:100000000C9418020C9435020C9435020C94311C9B
:100010000C9435020C9435020C9435020C94350284
:100020000C9435020C9435020C9461230C94352405
:100030000C94751E0C9435020C9435020C94350208
:100040000C9435020C9435020C9435020C94350254
:100050000C9435020C94181F0C9435020C94350244
:100060000C9435020C9435020C9435020C94350234
:100070000C9435020C9435020C9435020C94350224
:100080000C9435020C9435020C9435020C94350214
:100090000C9435020C9435020C9435020C94350204
:1000A0000C9435020C9435020C94350214001A009D
:1000B00008001500170004001621072409280A006B
:1000C0001D001B000600190005002B422A410000FC
:1000D000000000001C0018000C00120034000B008F
:1000E0000D280E240F2133001100100036003700B8
:1000F00038022C44284300000000000014021A02B9
:1001000008021502170204021602070209020A0277
:100110001D021B020602190205022B02000000004C
:10012000000000001C0218020C02120234020B0232
:100130000D020E020F02330211021002130013020D
:100140001E022C0228020000000000001F022002F4
:100150001F0621022202360237022602270224024B
:100160000C040F0406040E04350400004C000000CB
:100170000000000000002E002D002E02350031028C
:100180002F0230022F00300035022D0238002502E8
:1001900000002C090000000000000000000000002A
:1001A0000000000000002900E400E200E30000007D
:1001B000000000000000000000004600E100000018
:1001C000000000000000AC00AA00A900AB00000085
:1001D0005000510052004F000000A800AE00000087
:1001E0000000000000000000000000003A003B009A
:1001F0003C003D003E003F00400041004200430003
:1002000044004500680069006A000000000000002A
:100210000000000000005F0060006100000062005C
:100220005C005D005E000000000059005A005B00A9
:1002300000000000000000000000000000000000BE
:10024000000000002A2B2800000000000000000031
:100250000000000000000029000000002C1E3420D7
:10026000212224342627252E362D3738271E1F20FD
:100270002122232425263333362E37381F04050642
:100280000708090A0B0C0D0E0F1011121314151686
:100290001718191A1B1C1D2F3130232D3504050684
:1002A0000708090A0B0C0D0E0F1011121314151666
:1002B0001718191A1B1C1D2F3130354C0000000077
:1002C000000000000000000000000000000000002E
:1002D000000000000000000000000000000000001E
:1002E0007E0F00D4FFFFFFC70000007812034B0011
:1002F0006100680062006F0061007200640000002D
:10030000220341006E0074006F0069006E006500FA
:100310004B00610068006C006F00750063006800AE
:10032000650000000403090409023B00020100A06B
:10033000FA09040000010301010009211101000173
:1003400022400007058103080001090401000103A0
:10035000000000092111010001227B000705820332
:100360002000011201000200000008ABC23939016F
:10037000000102000105010902A10185020901A194
:100380000005091901290815002501950875018145
:10039000020501093009311581257F950275088113
:1003A0000609381581257F950175088106050C0A17
:1003B00038021581257F950175088106C0C00501A9
:1003C0000980A101850319012AB700150126B7008C
:1003D000950175108100C0050C0901A10185041962
:1003E000012AA002150126A002950175108100C006
:1003F00005010906A101050719E029E715002501F6
:10040000950875018102950175088101050719009C
:1004100029FF150026FF00950675088100050819BB
:10042000012905950575019102950175039101C09A
:1004300011241FBECFEFDAE0DEBFCDBF11E0A0E098
:10044000B1E0EAEFFDE402C005900D92A03DB107D6
:10045000D9F722E0A0EDB1E001C01D92A13DB207A5
:10046000E1F70E9443150C94B4260C9400008530EB
:10047000B8F46830A8F4453098F450E095E0699FEE
:10048000400D511D1124FA0198E2899FE00DF11DE4
:100490001124EE0FFF1FE455FF4F859194910895AD
:1004A00081E090E008950E94370208959C013A95FA
:1004B00021153F4150F5FC01EE27F170BC01662784
:1004C0007270AC01442754709C012227387094FF4D
:1004D0000EC080E1EF2B09F480E0672B09F0806209
:1004E000452B09F08064232B89F08068089581E012
:1004F000EF2B09F480E0672B09F08260452B09F0AF
:100500008460232B19F08860089580E00895CF93CC
:10051000DF93EB010E945602FE010995DF91CF9116
:100520000895CF93DF93EC01805E9109089720F046
:1005300063E277E0209711F465EE74E0CE010E944B
:1005400087028C2F0E944404DF91CF910895CF93AE
:10055000DF93EC010E949104CE01805E910908971F
:1005600020F06AE277E0209711F46CEE74E0CE019F
:100570000E948702DF91CF9108950F931F93CF932D
:10058000DF938C01EB010E949102209741F4C80196
:100590000E94A702DF91CF911F910F9108958FE9DB
:1005A0009FE00197F1F700C000002197EECF70E0C7
:1005B00060E08933910511F460E570E00E94BD02AE
:1005C000089581E008950E94E102089581E0089570
:1005D0000E94E10208950E94E802089508950E9491
:1005E000EE020895A6E0B0E0E8EFF2E00C941026E9
:1005F00049835A839E833091D70189819A81311131
:100600001AC03E81332399F0222389F00E94960874
:10061000182F682F89819A810E94720869817A81D6
:10062000812F0E948F0F2696E3E00C942C260E94C7
:100630008408182FF3CF0E94960869817A81F1CF40
:10064000FC01262F408151816281738184819581D3
:100650000E94F2020895CF93DF93EC0161E00E94C3
:100660002003BE010E94E302DF91CF910895CF9352
:10067000DF93EC0160E00E942003BE010E94EF02C4
:10068000DF91CF91089508950E9447070E94430388
:100690002FEF84E39CE0215080409040E1F700C0C0
:1006A000000008950E9444030E943C1F08950E9488
:1006B00044030E944D1F08950F931F93CF93DF9320
:1006C0008C0161E00E942003EC01B8010E94EB0262
:1006D000811106C080E0DF91CF911F910F910895A5
:1006E000B801CE010E94FA178823A1F3B801CE0108
:1006F0000E944D1B882371F3B801CE010E947B1923
:10070000882341F3B801CE010E94BF1A882311F358
:10071000F8018581882361F0C330FCE7DF07E9F049
:1007200058F4C115ECE7DE07A9F0C130DC47B9F099
:10073000C8010E94E602CFCFCB358CE7D807A9F0DD
:10074000CC35ECE7DE0771F0CA35DC4789F70E944B
:10075000E20CEECF0E945203BDCF0E94EA0C0E9431
:100760005703B8CF0E94D80CE3CF0E94E60CE0CF2D
:100770000E94521E0E94DF0308950E94E3030E941C
:10078000571E0895089581E008950895CF93DF934B
:10079000D82F0E94C303C82F882319F08D2F0E94E1
:1007A000C5038C2FDF91CF9108950895CF93C82F63
:1007B0000E94C2038C2F0E94C603CF91089580E04F
:1007C0000E94D60308950E94571D0E94D6030895E3
:1007D000CF930E94571DC82F8091D2018C1779F0BA
:1007E000C093D2010E94E11E6093D3017093D401A3
:1007F0008093D5019093D6018C2F0E94D603CF9180
:100800000895ADE0B0E0E7E0F4E00C9411264887ED
:1008100059876A877B878C879D8791110E94000C7E
:100820001F8286E0FE013896DE01119601900D923E
:100830008A95E1F78D8181110DC029813A814B8123
:100840005C816D817E818F810E942A0B2D96E2E072
:100850000C942D26CE0101960E942B038111EDCF21
:10086000F5CFFC012481213021F4808191810E9407
:10087000C8080895662329F00E94C7150E949A1699
:1008800008950E942116FACFCF93C82F8823B9F07C
:100890008CEF8C0F813AA8F46C2F8091000190911D
:1008A00001010E94E31D882329F08C2F0E94B70BC1
:1008B0000E94490C8C2F0E94AF0B0E94490CCF91D3
:1008C000089580E28C0F883048F4C77081E001C041
:1008D000880FCA95EAF70E94DA0BEFCFEBE5EC0F31
:1008E000E33040F4F0E0EE56FE4F808190E00E944D
:1008F000871DE5CFE8E5EC0FEB3150F4F0E0EE0FAB
:10090000FF1FE45AFE4F808191810E94AC1DD7CF1A
:1009100083E38C0F833198F661E08C2F0E943A04B8
:10092000CECF882381F19CEF980F913A28F40E9452
:10093000B70B0E94490C089590E2980F983050F43C
:10094000877091E001C0990F8A95EAF7892F0E947C
:10095000E00BEFCF9BE5980F933028F490E080E018
:100960000E94871D089598E5980F9B3128F490E028
:1009700080E00E94AC1D089593E3980F933118F422
:1009800060E00E943A0408951F93CF93DF93182FDD
:10099000EB010E944404209739F4812F0E949104B6
:1009A000DF91CF911F9108958FE99FE00197F1F7B3
:1009B00000C000002197EFCF70E060E0893311F4B0
:1009C00060E570E00E94C4040895882321F00E942D
:1009D000DA0B0E94490C0895882321F00E94E00B55
:1009E0000E94490C0895B0E0A0E0E9EFF4E00C9417
:1009F0000A266C01D62FC72FFC01158106810295AE
:100A00000F700E94D00BE82E8823E9F0E12E11230D
:100A1000D1F08C2F807F803451F080E28D0F8830B0
:100A2000F8F0011104C08C2F807E8032C9F08091D3
:100A3000AA0282FF15C082E00E94AC0C0E94D00B7B
:100A400091E0E82EE926BC2EB2949FE0B922FBE0AB
:100A5000FB15B8F1EB2DF0E0EA54F94D0C94FB25B1
:100A6000E12CF1CF0C2F0F70C07F11F00295007FA9
:100A7000112399F0002359F080E28D0F883010F097
:100A8000D11107C0802F0E94DA0B0E94490C8D2FD4
:100A90005AC0802F0E94F00BF8CF8D2F0E94910436
:100AA000002379F080E28D0F883010F0D11104C05E
:100AB000802F0E94E00B03C0802F0E94F60B0E9443
:100AC000490CEB2DE850FF0B349720F40E94571D82
:100AD0000E94D603EE2089F00E94CC0B80FD0DC051
:100AE000F60115820E94C60B0E94D007C6010E9423
:100AF00000070E94C60B0E94E007CDB7DEB7E9E011
:100B00000C9426262C2F2F70F22EC07FC03219F0A5
:100B1000F29480EFF822DD2341F0D130D1F111239E
:100B200009F444C00023F1F0B2CF8091AA0282FD03
:100B300015C0112359F0FF2029F08F2D0E94DA0BE8
:100B40000E94490C80E00E944404BBCF80E00E94D8
:100B50009104FF2009F4B5CF8F2DABCF112369F09D
:100B6000011104C08F2D0E94E504ABCF013009F0C4
:100B7000A8CF8F2D0E941A0CA4CF0111A2CF8F2DC8
:100B80000E94EC048F2D0E94260C8F2D0E940A0CCF
:100B900098CF112321F0063008F093CFE3CF053032
:100BA00008F08FCF8F2D0E94EC048BCF0023D1F360
:100BB000D93349F43FEF87EE93E0315080409040C5
:100BC000E1F700C000008D2F0E9491047ACF8C2F96
:100BD00086958695837069F0813009F072CF8D2FEC
:100BE0009C2F9370111102C080E090E00E94AC1D18
:100BF00068CF8D2F9C2F9370111102C080E090E080
:100C00000E94871D5ECF612F8D2F0E943A0459CF1D
:100C10008C2F8370A1F5111154CF4D2F429546951D
:100C20004770440F440F2D2F2F7030E0042E02C068
:100C3000220F331F0A94E2F790E080E0D4FF09C04E
:100C40008FE090E002C0880F991F4A95E2F78095E7
:100C50009095C695C695C370822B932BC23049F0F0
:100C600058F4C13019F00E94A0072BCF0E949707BB
:100C700028CF0E94A90725CF0E94940722CF8695EE
:100C8000112311F08C2F8170882309F41ACF4D2F76
:100C9000429546954770440F440F2D2F2F7030E03A
:100CA000042E02C0220F331F0A94E2F790E080E086
:100CB000D4FF09C08FE090E002C0880F991F4A95C9
:100CC000E2F780959095C695C695C370822B932BBD
:100CD000C23049F058F4C13019F00E940B08F1CE2F
:100CE0000E940208EECE0E941408EBCE0E94B807C4
:100CF000E8CECF70112329F08C2F0E94D0078D2FC2
:100D000032CF8D2F0E94EC048C2F0E94E007D9CEA9
:100D1000D23F41F160F4D03FB9F0D13F81F01123CF
:100D200009F446C00111B3CE8C2F8F711FC0D33F81
:100D300001F1D43FA1F78091AA0282FD24C08C2F3B
:100D40008F71112311F312C0112341F0053008F007
:100D5000B8CE8C2F8F710E94F207B3CE063008F008
:100D6000B0CEF7CF8C2F8F711111CFCF0E94D0074B
:100D7000A8CE112329F08C2F8F710E94C407A1CE19
:100D80000E94BF079ECE112349F0CF718C2F0E9485
:100D9000D00763E08C2F0E948E0C93CE81E00E94DE
:100DA000AC0C023008F48DCE82E00E94AC0C89CEEF
:100DB000002359F0D93309F006CFEFEFF7EE23E027
:100DC000E150F0402040E1F7FCCE8C2F8F719DCF99
:100DD0000F931F93CF93DF93EC01688179818D810D
:100DE0000E94D3088C010E941D080E949307B8013D
:100DF000CE010E94F304DF91CF911F910F910895CE
:100E0000CF93DF93EC018C81882399F0CE010E946F
:100E10005C03811111C00E94D00B882351F08D8199
:100E2000882339F08091AA0282FF03C082E00E94E9
:100E3000AC0CDF91CF910895CE010E94E806CE015F
:100E40000E943703F6CF882321F00E94F00B0E9406
:100E5000490C0895882321F00E94F60B0E94490C4A
:100E6000089590E080E00E94871D90E080E00E945D
:100E7000AC1D0E94000C0E94490C0E94B6160E94F4
:100E80009A1608950E94BF0B0E94310708950E9490
:100E9000EA0B0E944207089592959F70963091F058
:100EA00058F4925F9F70923058F4803F19F030F4FC
:100EB000883E30F481E008959A5FF4CF843FD1F307
:100EC00080E00895883EB0F3813FD1F7F3CFFC0175
:100ED0002481222339F0808191810E94C8080E94D8
:100EE0004C07089580E00895A6E0B0E0EAE7F7E057
:100EF0000C9411262696E2E00C942D26A7E0B0E093
:100F0000E4E8F7E00C9411262796E2E00C942D26F5
:100F100008950E94880708950E9489079093EF0121
:100F20008093EE01089508950E948C070895209102
:100F3000EE013091EF01822B932B0E948C070895D4
:100F40002091EE013091EF01822393230E948C07C0
:100F500008952091EE013091EF01822793270E949E
:100F60008C0708950E94880708950E94B20708958B
:100F70000E94B5079093ED018093EC01089590E0F5
:100F800080E00E94B807089521E030E0A90102C086
:100F9000440F551F8A95E2F7CA010E94B8070895C9
:100FA00021E030E002C0220F331F8A95E2F78091E2
:100FB000EC019091ED01822B932B0E94B8070895CC
:100FC00021E030E002C0220F331F8A95E2F720951E
:100FD00030958091EC019091ED01822393230E9442
:100FE000B807089521E030E002C0220F331F8A9530
:100FF000E2F78091EC019091ED01822793270E9406
:10100000B80708952091EC013091ED01822B932BCC
:101010000E94B80708952091EC013091ED018223E0
:1010200093230E94B80708952091EC013091ED01BF
:10103000822793270E94B80708950895262F2770C6
:1010400091E001C0990F2A95EAF723E0769567951C
:101050002A95E1F7660F771F660F771FFA01E60FF3
:10106000F71F50E040E0682F70E08191DF01119799
:101070009B01042E02C0369527950A94E2F7217051
:1010800021952827292328272C934F5F5F4F443031
:10109000510559F70895A82FA77023E096958795D5
:1010A0002A95E1F7880F991F880F991FFB01E80F18
:1010B000F91F50E040E080E0219130E00A2E02C0AC
:1010C000369527950A94E2F721703327042E01C044
:1010D000220F0A94EAF7822B4F5F5F4F443051058D
:1010E00059F70895262F983070F4853060F4682FF2
:1010F00070E085E0989F600D711D112448ED51E06E
:10110000822F0E941E080895292F983068F4853098
:1011100058F490E068ED71E035E0239F800D911D5B
:1011200011240E944B08089580E00895B0E0A0E0EB
:10113000ECE9F8E00C940A267C010091EC01109196
:10114000ED018091EE019091EF01082B192BCFE07A
:10115000D0E0CC24C394D12CBC2EC6010C2E02C0EE
:10116000880F991F0A94E2F780239123892B49F471
:10117000219790F7B12C8B2DCDB7DEB7E9E00C9419
:101180002626B7018C2F0E949B0F019789F3F3CF7E
:10119000CF93DF93EC010E949608BE010E949B0F43
:1011A000DF91CF9108951F93CF93DF93EB0190913F
:1011B000D701992339F0CB010E94C808DF91CF9164
:1011C0001F910895882369F0CB010E949608182F7B
:1011D000682FCE010E947208BE01812F0E949B0FD2
:1011E000EDCFCB010E948408182FF6CF1F93CF9329
:1011F000DF93C091F00117E08091F1018C1304C0DE
:10120000DF91CF911F910895D0E01C9FF0011D9FA9
:10121000F00D1124EE50FE4F208131814281538127
:101220006481758186810E947E072196C770E4CF14
:1012300020912A0230912B0240912C0250912D02D4
:1012400060912E0270912F02809130020E947E07E1
:101250000895CF93DF9380913002807F09F04DC0D5
:1012600080912F02882309F448C0E091F001509149
:10127000F101C0912B02D0912A0260912C02709151
:101280002D0247E05E17C9F18E2F90E0E49FF00138
:101290001124EE50FE4F2481222391F1489FF0014A
:1012A000499FF00D1124DF01AE50BE4F11962C91D5
:1012B00011972C1325C02C912D1322C015962C911B
:1012C000159721111DC012962D913C91261B370BAD
:1012D000283C3105A8F4809130028F7080618093A2
:1012E0003002E850FE4F80818F70806180838AE2F7
:1012F00092E00E9400070E94F608DF91CF910895C6
:10130000FC013196E770BECF482F2091F0019091FB
:10131000F10157E0291302C080E0089530E0529FA8
:10132000F001539FF00D1124EE50FE4F81816813A0
:1013300006C08081481303C085818111EECF2F5FE5
:101340003F4F2770E7CFA4E1B0E0E9EAF9E00C9461
:1013500007268C0186E0F801DE011F9601900D92B0
:101360008A95E1F7D80114968C9114971596EC9014
:1013700015979AE2A92E92E0B92E90912E02911122
:101380001FC08823D1F0EE20A9F0C8010E94670792
:10139000F82E882379F087E0F801D50101900D92AD
:1013A0008A95E1F7C5010E9431040E9429090E9433
:1013B00018093DC0C8010E940007FF24F39437C0FC
:1013C000F801C080D18082809380F0902F0220911C
:1013D0002C0230912D02A401421B530BFF2009F473
:1013E00003C1483C510508F0B2C0882301F1909137
:1013F0002B0280913002282F207F09F067C0D9127C
:101400001BC090912A029C1117C0E11059C08F7027
:101410008061809330020E9418098AE292E00E9463
:10142000000780913002D80116968C93F12C8F2DF5
:101430006496ECE00C942326E11042C06D2D8C2DB7
:101440000E948409E82E882371F08AE292E00E94CB
:10145000000787E0EAE2F2E0DF011D928A95E9F7F2
:101460000E941809E3CFCF86D88A8F8598890E9479
:10147000C808292F22952F70243058F49F702230ED
:1014800088F0992399F0F8019681907F79F4FE2CE9
:10149000CECF2A5F2F70223068F0C8010E9400076B
:1014A000EF2CF5CF992311F0882389F3805E8830E3
:1014B00070F3F3CF803F58F3815F833070F7E7CF4D
:1014C00080913002816080933002B0CFD91214C075
:1014D00090912A029C1110C0E1100EC016968C93B8
:1014E000C8010E94000787E0F801AAE2B2E001907B
:1014F0000D928A95E1F75BCFC8010E9467078823A8
:1015000009F458CFEE2009F455CF80913002803293
:1015100088F020912A0230912B02398728879B86F8
:101520008A8690912E029C871D868E87CE01089612
:101530000E94000787E0F801AAE2B2E001900D9254
:101540008A95E1F70E9429090E94180936CF9091E7
:101550003002292F207F91F4682D9A8A898AA6016A
:101560007A899E2D0E9474078AE292E00E94000709
:1015700087E0F50111928A95E9F772CF882309F483
:1015800056CF80912B028D1111C080912A028C11AF
:101590000DC0E1100BC016969C93C8010E94000775
:1015A00087E0F50111928A95E9F741CFC8010E94C1
:1015B0006707882309F4FECEEE2009F4FBCE809164
:1015C0003002803208F4B6CF20912A0230912B02EB
:1015D0003A8329839C828B8290912E029D831E8266
:1015E0008F83CE010196A4CF483C510528F588236E
:1015F00009F4E3CEFE2CEE2009F4DCCE80912B0220
:101600008D110CC080912A028C1108C087E0AAE2DB
:10161000B2E001900D928A95E1F709CFC8010E94CE
:101620006707811187CF80913002816080933002FB
:10163000C8010E940007FBCE682D9A8A898AA601FC
:101640007A899E2D0E94740787E0D5011D928A95A4
:10165000E9F7ADCEAEE0B0E0E0E3FBE00C9410269D
:10166000288739874A875B876C877D878E87CE017D
:1016700008960E94A3098823B1F06C85662341F087
:10168000288539854A855B857D858E850E947E0704
:1016900017E08091F0019091F10189133DC02E96E1
:1016A000E3E00C942C2687E0FE013896DE011196CB
:1016B00001900D928A95E1F78C85882349F320915A
:1016C000F10130E0C9010196877099274091F0013E
:1016D0004817190699F097E0929FD001939FB00D9B
:1016E0001124AE50BE4FFE01319601900D929A9595
:1016F000E1F78093F1010E94F608CACF0E944707E4
:101700001092F1011092F00187E0EAE2F2E0DF01CD
:101710001D928A95E9F7BCCF819FC00111248E509C
:101720009E4F0E94A309882309F4B9CFE091F001EC
:101730001E9FF0011124EE50FE4F20813181428125
:1017400053816481758186810E947E078091F001BA
:1017500090E00196877099278093F0019ACF682FC7
:1017600080910001909101010E94191E0895682F37
:1017700080910001909101010E941C1E08958091AA
:101780000001909101010E941F1E0895809139026D
:10179000869586958695089580913902877008957B
:1017A00090913902977081E009F480E0089580916A
:1017B0004502089590914502892B80934502089532
:1017C00080959091450298239093450208958093C7
:1017D00045020895109245020895809144020895AB
:1017E00090914402892B80934402089580959091B2
:1017F00044029823909344020895809344020895EC
:1018000010924402089580913B02089508950E9429
:10181000060C089590913A02292F282331F08095E3
:10182000892380933A020E94070C089508950E942C
:10183000160C089590913B02292F2823281729F090
:10184000982B90933B020E94170C089590913B02B5
:10185000292F282331F08095892380933B020E9411
:10186000170C08959091AA0292FF08C090913B0234
:10187000981721F080933B020E94170C08958091E5
:101880003B02882329F010923B0280E00E94170C53
:101890000895CF93DF93E0910001F09101018091D1
:1018A00045028083E0910001F091010180819091D7
:1018B0004402892B808390913B02992381F0E0912F
:1018C0000001F09101018081892B808380910001CA
:1018D000909101010E94D11D81110E943F0CC09185
:1018E0000001D091010148E050E061E372E0CE01D7
:1018F0000E944C26892B59F088E0FE01A1E3B2E05A
:1019000001900D928A95E1F7CE010E946E1DDF9144
:10191000CF91089508950E948A0C08959091AA028B
:1019200092FF11C098E0899F90011124622B60936F
:1019300039020E94D0078091390286958695869556
:101940000E948B0C08950E94D007089510923902CE
:1019500080E00E948B0C0895909139028095892334
:1019600080933902282F277069F4891759F09091D4
:10197000AA0292FF07C08695869586950E94E00789
:101980000E94A60C08959091AA0292FB222720F9AA
:10199000281769F080FB92F99093AA028091A9021E
:1019A0009091AA020E940B0D82E00E94AC0C089557
:1019B0008091AA0282FB882780F991E089270E9402
:1019C000C30C089581E00E94C30C089580E00E943A
:1019D000C30C08956FEF7FEF90E080E00E949E2699
:1019E000089590E080E00E946A2621E0863E9E4FA6
:1019F00009F020E0822F089582E090E00E946226A4
:101A0000089583E090E00E946226089584E090E0CB
:101A10000E946A260895BC0184E090E00E949E2600
:101A20000895AB01BC018FE090E00E9492260895DA
:101A3000AB01BC0183E190E00E949226089560E032
:101A400070E0CB010E94180D089560E070E0CB01BA
:101A50000E94110D0E941F0D0895A8E0B0E0E3E37D
:101A6000FDE00C94112666EE7EEF90E080E00E948F
:101A70009E2660E082E090E00E94802660E083E0A5
:101A800090E00E9480261092EF011092EE0160E03B
:101A900074E184E090E00E949E2660E086E090E0A1
:101AA0000E9480266FEF87E090E00E94802640E051
:101AB00050E0BA0188E090E00E94922660E084E263
:101AC00090E00E94802660E087E190E00E948026FE
:101AD00060E08CE090E00E94802660E08DE090E085
:101AE0000E94802619821A821B821C821D821E82FD
:101AF0001F82188648E050E068E170E0CE01019650
:101B00000E94702640E050E0BA0180E290E00E941E
:101B100092260E94250D2896E2E00C942D260E9424
:101B20002D0D0895682F8EE090E00E948026089584
:101B3000A6E0B0E0EEE9FDE00C940F260E94D51E71
:101B40008C0180914602909147028017910781F0A5
:101B500019821A820E94D51E682F49815A81792FD5
:101B600080E090E00E940104109347020093460237
:101B70002696E4E00C942B260E94AB10609354024E
:101B800070935502809356029093570260935002CF
:101B900070935102809352029093530208950895D6
:101BA00008950E94D00D089508950E94D40D0895BF
:101BB00081E0089585EC90E10E944D1D0E94CF0DBB
:101BC0000E94D10D08950E94B112089508950895BC
:101BD0000E94E60D0E94E70D08950E94F1100E94F8
:101BE000D5030E944A1808950E94CC1E0E948510B9
:101BF0000E94DA120E94E1110E94ED0D0E94D4179A
:101C00000E94E4120E94D50D0895A6E0B0E0EBE03A
:101C1000FEE00C9408260E94D80D81110CC00E9491
:101C2000980D0E94B1120E94D8160E94E8032696D1
:101C3000EBE00C9424260E94351288E4A82E82E062
:101C4000B82E750110E0F70101917F01812F0E94EC
:101C500017111F5F183009F441C00817A1F38091D4
:101C6000580281FD0E941D110E94E30DC82E10E054
:101C700099249394812F0E941711082FF5018191C7
:101C80005F01081729F1D02ED826F12CEE24E39419
:101C90008D2D8E21A9F0CC2099F0F9821A830E9413
:101CA000D51E9C838B839D8291E0802F8E2109F429
:101CB00090E049815A816B817C818D810E94010471
:101CC000F394EE0CF5E0FF12E3CFF50131970083BA
:101CD0001F5F183079F60E94BC0DA3CF0813BFCF49
:101CE0009ECF1F93CF93DF930E94A00FEC01C115ED
:101CF00080E5D807F0F5C11580E4D80708F09CC04E
:101D0000C03ED10520F5CD3CD10508F082C0C83ACF
:101D1000D10578F4C53AD10508F073C0C130D105BA
:101D200019F1209709F1C430D105F0F4D0E0C0E0FA
:101D30001BC0C33CD105D0F7C85AD0E0CC0FDD1F83
:101D4000CB56DE4F0990D881C02DD4640DC0C1158B
:101D500080E2D80708F0D1C0C11581E0D80708F0AB
:101D60005AC0C83ED10510F7CE01DF91CF911F9127
:101D70000895C03682E5D80718F5C03482E5D80743
:101D800008F06BC0C03282E5D80708F05FC0C1150B
:101D900082E5D80708F497C02C2F2695269580E277
:101DA000289F900111248C2F8370C1E0D0E002C0E5
:101DB000CC0FDD1F8A95E2F7C22BD32BDD68D4CF81
:101DC000C03A82E5D80760F4C03882E5D80708F445
:101DD00059C0CF71D0E0DC2FCC27C46FD06AC4CFFC
:101DE000C03C82E5D80708F462C0C03E82E5D8074F
:101DF00008F09CCFDC2FCC27CC27DF71C06FD06AD6
:101E0000B3CFC55AD0E0C553DE4FC881D0E0D0640F
:101E1000ABCFD065A9CF8D2F0E944210182FCE01D5
:101E200099270E94A00FC12FD0E0DC2FCC27CC2710
:101E3000DF71C82BD92B98CFCE0199270E94A00F14
:101E4000CC27DF70C82BD92BD06A8ECFCF71D0E0D2
:101E5000DC2FCC27C16FD06A87CF2C2F26952695F3
:101E6000277080E2289F900111248C2F8370C1E09D
:101E7000D0E002C0CC0FDD1F8A95E2F7C22BD32B36
:101E8000DC6872CF2C2F26952695277080E2289F3C
:101E9000900111248C2F8370C1E0D0E002C0CC0FE0
:101EA000DD1F8A95E2F7C22BD32BDA685DCF8C2F2A
:101EB0008F710E944210C82FD0E0DC2FCC27CC2796
:101EC000DF71D06251CF8C2F8F710E94421055E08C
:101ED000D695C7955A95E1F7CF70D0E0DC2FCC2787
:101EE000282F30E084FF05C044E0220F331F4A95BD
:101EF000E1F7C22BD32BD06937CF8D2F8F710E9482
:101F00004210182FCE0199270E94A00FC12FD0E0B8
:101F1000DC2FCC27CC27DF71C82BD92BD2CF462F73
:101F2000783030F4653020F4672F0E945302089512
:101F300090E080E008950E948F0F0E94710E089536
:101F400082389105B9F1B0F48133910509F47DC06F
:101F500048F48932910509F46DC08A32910509F47B
:101F60007BC008958533910509F45FC089339105DD
:101F700009F10895833E9105D9F138F4803E910529
:101F800029F1823E910579F10895863E9105D9F1B6
:101F9000873E910509F43EC0843E910541F52091AC
:101FA000AA0221FF24C08091A90284FD19C087EEF6
:101FB00090E008952091A902237009F05AC0209161
:101FC000AA0223FF14C089E290E008952091A9029B
:101FD00020FD38C03091AA0230FF09C024FF43C061
:101FE00090E080E008952091A90222FDF7CF0895A6
:101FF0002091A90222FD3AC03091AA0230FD39C0D9
:1020000024FFF5CFEDCF2091A90223FFF0CF24FDCF
:10201000E7CFCDCF2091A90223FD2EC03091AA0297
:1020200031FFEECF84EE90E008952091A90225FFC4
:10203000DECFC9CF2091A90225FD21C02091AA029F
:1020400023FFD5CF89E390E0D2CF2091A90226FFCC
:10205000CECF8AE290E008952091A90226FFC7CF53
:1020600081E390E0089583EE90E0089582EE90E0A1
:10207000089580EE90E0089586EE90E0089585E35F
:1020800090E008959091A90292FF06C0282F287130
:102090002830F9F4877F846093FF06C0282F2871C9
:1020A0002831F1F4877E84612091AA0220FF06C0C6
:1020B000382F38713830D9F4877F816021FF06C00E
:1020C000282F28712831D1F4877E816194FD877E85
:1020D0000895282F24712430F9F68B7F8860DCCF97
:1020E000282F2471243101F78B7E8861DDCF382FB2
:1020F0003171313019F78E7F8860E0CF282F217140
:10210000213121F78E7E8861E1CF1092A5021092D5
:10211000A6021092A7021092A8020895CF92DF9211
:10212000EF92FF926B017C010E94B11281110EC0EF
:102130000E94E11EC61AD70AE80AF90AC092A5024F
:10214000D092A602E092A702F092A802FF90EF9030
:10215000DF90CF9008950F931F930E94B1128823B0
:1021600029F00E94E11E1F910F9108950E94E11E27
:102170000091A5021091A6022091A7023091A80219
:10218000600F711F821F931FEECF80E008950E94A1
:10219000EA0C0895CF930E9435122FEF86E791E065
:1021A000215080409040E1F700C000000E943512AD
:1021B0000E94D712C4E08111C0E08C2F0E94171139
:1021C00090E002C095958795CA95E2F780FF04C01C
:1021D0000E94C7100E943C1FCF9108950E94CA1010
:1021E00008950E94F10C811102C00E948F0D0E947F
:1021F000FC0C809358020E94060D9093AA028093D3
:10220000A9020E94EE100E94010D90E00E94940726
:102210008091EC019091ED010E94B5070895089519
:102220000E940F11089508950E9413110895E82F38
:10223000F0E0EC54FD4F80810895089508950E94C8
:102240001E110895EF92FF921F93CF93DF9300D05A
:1022500000D0CDB7DEB70E94B112182F6091BC023A
:10226000882309F447C019821A821B821C82862F98
:1022700090E09E012F5F3F4F7901B9018C549D4F33
:102280000E94F2128823E9F08091AB0290E044E0D2
:1022900050E0B7018C549D4F0E944C2621E02093C2
:1022A0005902892BC9F410E00E941411812F0F905C
:1022B0000F900F900F90DF91CF911F91FF90EF90B3
:1022C000089580915902882371F384E0F7011192F7
:1022D0008A95E9F710925902E091AB02F0E0EC54D4
:1022E000FD4F89819A81AB81BC8180839183A283D8
:1022F000B383DACF70E06C547D4F8091AB0290E0F5
:102300008C549D4F0E9479130E941F11CFCF1F93B1
:10231000CF93DF9322E031E0C1E0D0E0D90150E07B
:1023200040E08D918F3F91F0E82FE295EF70F0E063
:1023300011A18F70BE0101C0660F8A95EAF7962F32
:102340009095912391A382A1862B82A34F5F5F4F2B
:102350004530510531F72B5F3F4F81E0263138077B
:10236000E9F6DF91CF911F910895CF93DF93AC01F0
:10237000A62FB0E085E0689FF0011124EE5FFE4FCC
:1023800075E081E060E091919F3FC9F0C92FC2954F
:10239000CF70D0E028A130E09F7002C0359527951E
:1023A0009A95E2F720FD0BC0282F622B880F715001
:1023B00051F7A40FB51F6C93DF91CF91089520E0E2
:1023C000F4CFA4E1B0E0E7EEF1E10C9411268091A6
:1023D0001601811126C084E1E8E4F1E0DE011196E6
:1023E00001900D928A95E1F7FE013196A2E0B1E0ED
:1023F000CE01459620812C93218111962C93119723
:10240000228112962C931297238113962C93139763
:10241000248114962C931497359615968E179F0742
:1024200049F78091160194E0811190E09093BC02ED
:1024300084E0891B8093AB020E94871188E0E4EB63
:10244000F2E0DF01982F1D929A95E9F7ECEAF2E0AD
:10245000DF011D928A95E9F784E00E9473120E94C1
:1024600010116496E2E00C942D26A8E0B0E0EBE3B6
:10247000F2E10C940E268E010F5F1F4F88E0F801E9
:1024800011928A95E9F7F12C6F2DC8010E94B511C0
:10249000F394F4E0FF12F8CF48E050E0B8018CEA82
:1024A00092E00E944C2621E0009709F420E0892B5D
:1024B00041F088E0F801ACEAB2E001900D928A9513
:1024C000E1F76091BC0270E06C547D4F44E08CEA0F
:1024D00092E00E947412182F0E942211812B2896DC
:1024E000E5E00C942A260895CF92DF92EF92FF92B6
:1024F0000F931F93CF936C017B01042F222349F08C
:1025000081E080935C020E94D51E90935B028093D1
:102510005A02C0915C02C1110AC0C0E08C2FCF9159
:102520001F910F91FF90EF90DF90CF9008958091D1
:102530005A0290915B020E94ED1E059770F310E025
:10254000A801B601C7010E944C26892B41F0A801C1
:10255000B601C7010E94592610925C02DFCFC0E08D
:10256000FBCFCF93DF9380915F02811117C0C8EC3E
:10257000D0E00E94E12581110EC08FE39CE9019714
:10258000F1F700C000002197A1F782E080935F027D
:102590000E94DC2503C081E080935F0281E090917E
:1025A0005F02913009F080E0DF91CF9108950E94A1
:1025B000B11208950E94D712809316010E94B112A1
:1025C00081110E94281308950E94B112811102C046
:1025D0000E942B13089581E0909160029A3008F0D8
:1025E00080E008950F931F93CF93DF93EC018B014D
:1025F000809160028A30B8F4B801CE010E9476134F
:10260000C82F811122C0809160028F3FB9F40E94CF
:10261000D51E90935E0280935D028C2FDF91CF9147
:102620001F910F91089580915D0290915E020E942A
:10263000ED1E843F914000F7C0E0EFCF8F5F8093A5
:1026400060028A3020F7C1E0E8CF10926002E5CF47
:102650000E94EB1B08950E94EE1B0895B0E0A0E0DD
:10266000E4E3F3E10C940C267901C82F880FDD0B0D
:1026700041155105A9F0FE0193E0EE0FFF1F9A9559
:10268000E1F7E95EFE4F818192818F599D4F208154
:1026900030E04217530708F49A01A9010E94592615
:1026A000CE010E94D71CD82E8823D1F00115110528
:1026B000B9F083E0CC0FDD1F8A95E1F7FE01E95EFA
:1026C000FE4F438150E00417150708F4A801C95EC6
:1026D000DE4F6C817D816F597D4FC7010E94592665
:1026E0008D2DCDB7DEB7E7E00C9428260E94D314D9
:1026F00008950E94F4140895A3E0B0E0E2E8F3E145
:102700000C940B2660917D0270917E0280917F0275
:10271000909180020E94FC1E6B017C0111E084E616
:10272000C816D104E104F10408F410E00E94D70BAC
:10273000898394E6C916D104E104F10438F4E091E8
:10274000CE01F091CF019185891311E00E94ED0B2C
:102750008A83111109C0E091CE01F091CF0111E0FF
:102760009285981301C010E00E94030C8B83111115
:1027700008C0E091CE01F091CF01938511E0891757
:10278000C9F010E000E030E020E043E050E0BE019E
:102790006F5F7F4F83E00E942E13182F882351F024
:1027A0000E94E11E60937D0270937E0280937F02FF
:1027B00090938002812F2396E8E00C942726A4E0D2
:1027C000B0E0E5EEF3E10C940F2660917902709190
:1027D0007A0280917B0290917C020E94FC1E11E0A3
:1027E000643671058105910518F10E94AB106E5F8A
:1027F0007F4F8F4F9F4F69837A838B839C8310E039
:1028000000E030E020E044E050E0BE016F5F7F4F29
:1028100082E00E942E13182F882351F00E94E11E9F
:102820006093790270937A0280937B0290937C028A
:10283000812F2496E4E00C942B26B0E0A0E0E3E2A4
:10284000F4E10C9409267C015B016A010E94EB1201
:1028500001E010E0882311F00AE010E0C1E0D0E0D0
:10286000B501C701F6010995811104C021960C1725
:102870001D072CF4CDB7DEB7EAE00C942526CC9FDB
:102880009001CD9F300D300D112490E080E045E3A4
:102890004A95F1F70000019682179307C1F7E0CF40
:1028A000A5E0B0E0E6E5F4E10C9409265B01E090D8
:1028B000CE01F090CF0101E010E09E012B5F3F4F71
:1028C00050E040E070E060E080E00E942E13182F9E
:1028D000882309F44BC067018FEFC81AD80A6091AA
:1028E00075027091760280917702909178020E9431
:1028F000FC1E643671058105910580F104E010E04D
:102900009E012F5F3F4F50E040E070E060E081E0CB
:102910000E942E13F82E64E070E0C6010E94D517C5
:1029200011E09D81981310E01F2159F10E94E11ED2
:102930006093750270937602809377029093780289
:1029400089819A81AB81BC818093710290937202DC
:10295000A0937302B093740211E013C064E070E0BE
:10296000C6010E94D5179D818913C8CFF7018181C7
:102970009281A381B48189839A83AB83BC83111133
:10298000DFCF8091710290917202A0917302B09199
:102990007402F50180839183A283B383812F2596EE
:1029A000EAE00C9425260F931F93CF93DF93EC015D
:1029B0008B0140E554E10E941D14811106C080E0A6
:1029C000DF91CF911F910F9108954FED53E1B80121
:1029D000CE010E941D14882391F34CE753E1B80106
:1029E000CE010E941D14ECCF0F931F93CF93DF9362
:1029F000C091CE01D091CF01CE01019624E0FB0120
:102A0000DC0101900D922A95E1F764E070E00E94EC
:102A1000D51788836D817E818F81988500916D02A5
:102A200010916E0220916F02309170026017710751
:102A30008207930751F060936D0270936E0280934A
:102A40006F02909370020E948E100A851B85898503
:102A50000E94E70B802F0E94FD0B812F0E94320CF9
:102A6000DF91CF911F910F9108950E94B2200E9493
:102A7000F40D0E94BF2008950E94C4200E94050EFC
:102A80000E94DE2008950E946E1E0E9498200E94DF
:102A9000DA0D0E9435150E943C150E94E80DFBCF0F
:102AA0008091870280FF0DC060913C0170E0660F4D
:102AB000771F6038710570F56115710569F1862F12
:102AC000089581FF07C060913C0184E0689FB001D8
:102AD0001124EFCF60913C0182FD0AC080918602F3
:102AE0008823A9F020913B0160913C01821710F0EE
:102AF00088E0ECCF869FC001112433E0880F991F36
:102B00003A95E1F7622F70E00E94E725D2CF68E0A6
:102B100070E0D5CF8FE7089581E008958091870216
:102B200080FF0CC06091380170E0759567957595D0
:102B300067956115710549F1862F089581FF06C0DB
:102B40006091380170E075956795F3CF6091380119
:102B500082FD0BC0909185029923A1F0609137010D
:102B600080913801961738F0682F70E06038710551
:102B700000F38FE70895899FC001112470E00E943F
:102B8000E725F4CF61E070E0D7CF81E008958D3C78
:102B900031F40E945015819580938B0208958E3CEC
:102BA00019F40E945015F8CF8F3C31F40E94501553
:102BB000819580938A020895803D19F40E945015F2
:102BC000F8CF893D29F40E948E1580938C020895D8
:102BD0008A3D21F40E948E158195F7CF8B3D31F40B
:102BE0000E948E15819580938D0208958C3D19F475
:102BF0000E948E15F8CF9FE2980F983070F4815D97
:102C0000990B21E030E001C0220F8A95EAF780910C
:102C10008902822B8093890208958D3D31F4809141
:102C2000870281608093870208958E3D21F4809110
:102C300087028260F7CF8F3DB9F780918702846069
:102C4000F1CF40918A028D3C59F480918B0287FF2D
:102C50000DC010928B0241110BC01092860208C069
:102C60008E3C81F480918B0218169CF3442381F0F2
:102C700080918C0290918D02892B09F05AC010929C
:102C8000850208958F3C49F447FFF0CF10928A02E5
:102C900080918B028111ECCFE0CF803D19F41416A6
:102CA000ACF3E4CF90918C02893D29F41916F4F627
:102CB00010928C02DBCF8A3D19F497FFD7CFF8CF63
:102CC00090918D028B3D29F497FFD0CF10928D0209
:102CD000CDCF8C3D19F41916CCF3C8CF9FE2980FD5
:102CE000983090F4815D990B21E030E0B90102C089
:102CF000660F771F8A95E2F7CB0180959091890244
:102D0000892380938902B2CF8D3D31F4809187026F
:102D10008E7F80938702AACF8E3D21F48091870217
:102D20008D7FF7CF8F3D09F0A1CF809187028B7FF8
:102D3000F0CF08950E94D51E9C0190918A02809147
:102D40008B02982B21F03093840220938302909180
:102D50008C0280918D02982B21F030938202209377
:102D6000810288E892E00E94791D089586E0E8E8F3
:102D7000F2E0DF011D928A95E9F710928602109227
:102D80008502109287020895FC01828181110EC094
:102D9000838181110BC08481811108C091E08581FC
:102DA000811101C090E0892F8170089581E0FCCFEE
:102DB000A6E0B0E0EEEDF6E10C94102686E0E8E83F
:102DC000F2E0DE01119601900D928A95E1F71092E2
:102DD0008A0210928B0210928C0210928D028B81CB
:102DE0009C81892B89F080918302909184020E94BA
:102DF000ED1EAC01909186029923C9F180913D01AD
:102E00008417150608F440C08D819E81892B91F0AE
:102E100080918102909182020E94ED1EAC019091FE
:102E20008502992309F471C0809139018417150630
:102E300008F479C0BE016F5F7F4F88E892E00E947E
:102E4000261E811105C088E892E00E94C4168111F7
:102E50000E949A1686E0FE013196A8E8B2E0019041
:102E60000D928A95E1F72696E3E00C942C262091AA
:102E70003E018AE0289F900111242417350720F68F
:102E80009F5F9093860202C09F3FD1F71B81112361
:102E900059F00E9450159FEF11160CF491E0899F94
:102EA000802D112480938A021C81112359F00E94E5
:102EB00050159FEF11160CF491E0899F802D11247D
:102EC00080938B0230918A02332309F49DCF2091A5
:102ED0008B02222309F498CF45EB3403C00111245F
:102EE000992359F090938A0245EB24039001112411
:102EF000332339F030938B0287CF81E080938A02AD
:102F0000F3CF81E080938B027FCF20913A018AE05A
:102F1000289F900111242417350708F08BCF9F5F5D
:102F20009093850202C09F3FD1F71D81112359F074
:102F30000E948E159FEF11160CF491E0899F802D51
:102F4000112480938C021E81112359F00E948E154A
:102F50009FEF11160CF491E0899F802D112480932E
:102F60008D0230918C02332309F464CF20918D02BD
:102F7000222309F45FCF45EB3403C00111249923C8
:102F800059F090938C0245EB2403900111243323D4
:102F900039F030938D024ECF81E080938C02F3CFD5
:102FA00081E080938D0246CF0895FC01680F791F60
:102FB0008FEF91E36E177F0709F40895219182271F
:102FC00028E030E087FF06C0880F892721503109AB
:102FD000C9F7F0CF880FFACFFB012581222341F0FA
:102FE00097FF06C09F77BC0190E080E00E943319F4
:102FF00081E008950F931F93CF93DF93EC018B0132
:10300000FB0185818823B1F00E94D70B8272FE01FB
:10301000E053FC47E830F10568F4EE53F94D0C94A9
:10302000FB25811104C081E003C08111FCCF8FEF2B
:103030000E945318B801CE010E94EC17DF91CF9186
:103040001F910F91089580E00E945B18F3CF81E0FB
:10305000FBCF82E0F9CF83E0F7CF84E0F5CF85E0C6
:10306000F3CF9091BE02923071F48A3050F490E028
:1030700009966AE070E00E94E725875A0E94DC0406
:1030800008958650FBCF0E94B41A089508950E94B7
:10309000461808958CE090E00E9462268093BE025C
:1030A0000E944718089508956091BE028CE090E058
:1030B0000E9480260895CF93C82F8093BE020E945D
:1030C00054188C2F0E944718CF9108950E946B1DB1
:1030D0008093BD029091BE02913029F481FF03C01C
:1030E00089E30E94DC040E94D70B8093BF020E94F8
:1030F000EA0B0E94000C8091BE02823021F158F44C
:103100008823C1F08130D1F08FE39CE90197F1F77A
:1031100000C000000895843051F18530A9F78BE19B
:1031200091E00E94D70285E290E00E94D70288E2F7
:1031300090E006C082EE0E944404E6CF88E193E06E
:103140000E94D702E1CF8091BD0280FD03C083E5DC
:103150000E94DC0482EE0E9444048FE39CE9019704
:10316000F1F700C0000087E50E94DC04CDCF86EEB9
:103170000E94DC0488E1F8CF8091BE02823011F118
:1031800048F4882381F0813091F08091BF020E9441
:10319000E70B08958430F9F08530B9F788E290E0C4
:1031A0000E94D702F2CF82EE0E949104EECF8CE211
:1031B0000E94DC048091BD0281FFE7CF89E30E9479
:1031C000DC04E3CF82EE0E9491048091BD0280FD79
:1031D000DCCF83E5F4CF88E2F2CF8F929F92AF925B
:1031E000BF92EF92FF920F931F93CF93DF934B0108
:1031F0005C01D091BE028CE1E82EF12C07E010E0DA
:1032000021E0D501C4010E2C04C0B695A795979571
:1032100087950A94D2F7C82FCF70222339F0D43083
:1032200051F4CA3040F080E00E9431188C2F0E9487
:10323000311820E005C0C111F9CF04301105B4F3F5
:103240000150110984E0E81AF1080F3F1007C9F690
:10325000DF91CF911F910F91FF90EF90BF90AF90B2
:103260009F908F900895CF92DF92EF92FF926B0123
:103270007C01C114D10481E1E806F104A0F5C11478
:10328000D10481E0E806F10420F08091BE02823092
:1032900051F10E946618C114D10481E0E806F104DE
:1032A00038F18091BE02811123C081E0E81AF10853
:1032B000C701B6012AE096958795779567952A9577
:1032C000D1F778528F4F9F4F0E94ED1883E0D8229C
:1032D000EE24FF24C701B60174528F4F9F4F0E9406
:1032E000ED180E94BC18FF90EF90DF90CF900895EA
:1032F000C701B601F4CFCF93DF93EC01FB018581C9
:10330000882309F4D2C09E0130572332310508F0DA
:10331000B2C00E94060D9093AA028093A902FE01FA
:10332000E150F047E232F10520F4E653F94D0C94F8
:10333000FB258091A90281608093A90293C08091AE
:10334000AA0288608093AA028DC08091A90282603F
:10335000F3CF8091A9028460EFCF8091A9028860A9
:10336000EBCF8091AA028160EDCF8091AA028260AA
:10337000E9CF8091A9028061DFCF8091A9028062AC
:10338000DBCF8091A9028064D7CF0E94470780914C
:10339000A9028068D1CF8091A9028C60CDCF8091A5
:1033A000AA028360CFCF8091A9028E7FC5CF809182
:1033B000AA02877FC7CF8091A9028D7FBDCF809160
:1033C000A9028B7FB9CF8091A902877FB5CF809169
:1033D000AA028E7FB7CF8091AA028D7FB3CF809152
:1033E000A9028F7EA9CF8091A9028F7DA5CF809160
:1033F000A9028F7BA1CF0E9447078091A9028F77F6
:103400009BCF8091A902837F97CF8091AA028C7F66
:1034100099CF8091A90282FB992790F921E0922708
:1034200090FB82F990FB83F987CF8091AA02982FB5
:10343000909591708E7F892B90FB81F983CF90912D
:10344000A902892F8F7B96FF806476CF0E94470761
:103450009091A902892F97FB87F980586DCF81E061
:103460000E94920D8091A9029091AA020E940B0DD8
:103470000E94470780E0DF91CF91089580E0F0CF70
:103480009091A902892F8F7E94FF806155CF9091F2
:10349000A902892F8E7F90FF81604ECF9091AA0262
:1034A000892F877F93FF88604DCF81E0E4CFB0E024
:1034B000A0E0EDE5FAE10C940C26E82FF0E0E45CE6
:1034C000FD4FD490282F26952695269530E0F901BA
:1034D000E452FD4F0491877010E0082E02C015954C
:1034E00007950A94E2F701701127F901E453FD4FA3
:1034F000E490F12C082E02C0F594E7940A94E2F7C8
:1035000091E0E922FF24F901E454FD4FC491D0E099
:1035100002C0D595C7958A95E2F7C170DD270115E0
:10352000110519F081EE0E944404E114F10419F030
:1035300086EE0E9444048D2D0E94DC04E114F10407
:1035400019F086EE0E9491040115110519F081EE23
:103550000E949104CD2B19F08CE20E94DC04CDB7BF
:10356000DEB7E7E00C942826982F9F709A5096308B
:1035700020F0805D0E94571A0895895AFBCFCF939F
:10358000DF93EB0186319C4711F50E94D70B9D819B
:10359000992399F08A7A91E009F490E090938E0251
:1035A000811109C089E20E94AF0B0E94490C80E0A2
:1035B000DF91CF91089585E3F6CF80918E0281113E
:1035C00004C089E20E94B70BF0CF85E3FBCF81E016
:1035D000EFCF0F931F93CF93DF93C42FD22FFC0114
:1035E00085818823C9F0409391020E94D51E909353
:1035F000900280938F0280E28C0F883040F4C77075
:1036000081E001C0880FCA95EAF70E94E504DF91C6
:10361000CF911F910F91089510919102141332C010
:1036200080918F02909190020E94ED1E883C91053E
:1036300048F5C0E2CD0F1D17B9F080E2810F883048
:1036400040F4177081E001C0880F1A95EAF70E94D4
:10365000EC04C83048F481E09D2F977001C0880FBA
:103660009A95EAF70E94E504802F0E94DC04C83096
:1036700070F6D77081E001C0880FDA95EAF70E94F2
:10368000EC04C5CF80E28C0F883008F6C77081E06B
:1036900001C0880FCA95EAF7F2CF0F93DB0188517A
:1036A0009C4787309105A0F5FC01E451F94D0C943D
:1036B000FB2506E221EE41EE6AE17CE7CD010E94A6
:1036C000E91A80E00F91089507E225EE45EE6BE1DF
:1036D0007CE7F4CF06E221EE40EE68E17CE7EECF36
:1036E00007E225EE44EE69E17CE7E8CF06E221EE51
:1036F00042EE6CE17CE7E2CF07E225EE46EE6DE1BB
:103700007CE7DCCF08E221E045EE6EE17CE7D6CF36
:1037100015968C91882319F010929102D3CF81E0F5
:10372000D1CF8EE14A9B02C08150E1F74A9BFECF88
:1037300008955A9880E28A95F1F75A9A0895FC0103
:103740003BE03A95F1F798E020E080E031E040E19D
:103750004A95F1F7880F4A9B02C08160232742E017
:103760004A95F1F7000040E14A95F1F7915079F759
:1037700090E19A95F1F799B132E03A95F1F70000AE
:1037800040E14A95F1F792FB992790F99227208121
:10379000920F90830895A1E0B0E0E1EDFBE10C947D
:1037A0000D2619828C017C01E60EF11C0E151F05F9
:1037B00041F481E09981911180E02196E6E00C943A
:1037C00029260E94911BCE0101960E949F1BF801A1
:1037D00081938F01EBCF529A5A9A089552985A9A30
:1037E000EA9AE9E6F0E080818F7C80830895615059
:1037F000770B91E001C0990F6A95EAF720E031E07C
:10380000911108C0222391F05A9A80E28A95F1F72B
:103810005A980895492F482339F05A9A232740E2AD
:103820004A95F1F79695ECCF5A98F9CF5A98EDCF83
:10383000FF920F931F93CF93DF93EC018C01060F40
:10384000111DC017D10729F4CDB7DEB7E5E00C9400
:103850002A26F9900E94991B68E08F2D0E94F71B81
:10386000F0CF1F920F920FB60F9211240F931F9358
:103870002F933F934F935F936F937F938F939F9378
:10388000AF93BF93EF93FF93CF93DF930F92CDB797
:10389000DEB719820E94911BCE0101960E949F1BE8
:1038A000082F069506950695282F22952570902FAE
:1038B0009570290F922F937026952695920F982731
:1038C00097708981982B09F05CC0053008F059C0C9
:1038D00080E18A95F1F75A9A529A82E08A95F1F737
:1038E00000C05A9888E0089F80011124D801A95E81
:1038F000BE4F1696ED91FC9117973097A9F0609105
:10390000CE017091CF0114962D913C911597260F01
:10391000371F11968D919C911297680F791F1396FE
:103920004C9113978C910995F801E95EFE4F6381E4
:10393000662351F02091CE013091CF018481958191
:10394000820F931F0E94181C0E94991B80E18A9588
:10395000F1F75A9852985A9A80E18A95F1F7F8014E
:10396000E95EFE4F6081662351F02091CE013091D7
:10397000CF0181819281820F931F0E94CB1B0E94F5
:10398000911B0F90DF91CF91FF91EF91BF91AF917C
:103990009F918F917F916F915F914F913F912F9167
:1039A0001F910F910F900FBE0F901F9018950F93BE
:1039B0001F93CF93DF93EC0105970CF04CC0F89464
:1039C000529A5A9885E08A95F1F700009C2F9695B7
:1039D00095708C2F8570980F892F8370969596958A
:1039E00023E0CC0FDD1F2A95E1F7980F8E01092BFC
:1039F0000E94991B00C068E0802F0E94F71B80E1A5
:103A00008A95F1F752985A9A4A9B1EC087E090E037
:103A10004A991CC0FE01E95EFE4F63816623F9F0FE
:103A20002091CE013091CF0184819581820F931F27
:103A30000E94CB1B811113C0529A5A9A7894DF913D
:103A4000CF911F910F91089500C0DECF019729F407
:103A5000529A5A9A789480E0F2CF00C0D9CF0E944F
:103A6000911B80E28A95F1F75A98529A80E18A95E3
:103A7000F1F7C95EDE4F6881662351F02091CE01D7
:103A80003091CF0189819A81820F931F0E94181C67
:103A90000E94991B789481E0D2CF9093D1018093BA
:103AA000D0010895909398028093970208950E9400
:103AB000B112811103C0809192020895E0919702A2
:103AC000F0919802309729F00190F081E02D09954E
:103AD000089580E008950E94571D0895E09197028F
:103AE000F0919802309721F00280F381E02D099542
:103AF0000895E0919702F0919802309739F022E012
:103B0000DC012C930480F581E02D09950895A3E054
:103B1000B0E0EDE8FDE10C94112620919502309182
:103B2000960228173907A1F0909396028093950288
:103B3000E0919702F0919802309751F023E02983A9
:103B40009B838A830680F781E02DCE01019609953B
:103B50002396E2E00C942D26A3E0B0E0E2EBFDE139
:103B60000C94112620919302309194022817390762
:103B7000A1F09093940280939302E0919702F091C8
:103B80009802309751F024E029839B838A83068032
:103B9000F781E02DCE01019609952396E2E00C9481
:103BA0002D269C012E5F3F4FAC01485F5F4F80E0A8
:103BB0002417350709F40895F90191919F0199237C
:103BC000B9F38F5FF5CF662349F0FC013296089672
:103BD0002191261729F0E817F907D1F780E0089519
:103BE00081E008959C01FC0132969FEF80E04191B5
:103BF000461751F09F3F19F4411101C0982F8F5F74
:103C00008630A9F79F3F09F40895290F311D97FDCC
:103C10003A95F90162830895FC0132960896219144
:103C2000261303C0DF0111971C92E817F907B9F7B3
:103C300008950E94F21D08950E940C1E0895029698
:103C400026E0FC0111922A95E9F7089546E050E03C
:103C50000E944C2621E0892B09F420E0822F089550
:103C600008950E94301E0895811106C081E080935E
:103C700099020E94311E089582E0F9CF83E080937B
:103C800099020E94311E08950E94341E089581E019
:103C9000809399020E94311E08950E94471E089544
:103CA000089508950E94511E0895089508950E9450
:103CB000501E0895CF930E94551E0E9435120E94F7
:103CC000561EC0E08C2F0E941711811105C0CF5FD6
:103CD000C830C1F7CF91089581E0FCCF85B78068E7
:103CE00085BF85B7806885BF08951F921FB61F9254
:103CF00011248F939F93AF93BF9380919A02811168
:103D000013C08091C0029091C102A091C202B091F3
:103D1000C3024196A11DB11D8093C0029093C102C0
:103D2000A093C202B093C302BF91AF919F918F91B4
:103D30001F901FBE1F9018958091C802843031F1EA
:103D40000E94B80310929A0288E190E020E40FB636
:103D5000F894A895809360000FBE2093600083B70D
:103D6000817F846083BF83B7816083BF78948895A7
:103D700083B78E7F83BF0FB6F894A89580916000BB
:103D8000886180936000109260000FBE08950E94C9
:103D900047070E94BD03089582E084BD93E095BD6E
:103DA0009AEF97BD80936E0008952FB7F894809195
:103DB000C0029091C102A091C202B091C3022FBF74
:103DC00008952FB7F8946091C0027091C10280915C
:103DD000C2029091C3022FBF08959C014FB7F8947F
:103DE0008091C0029091C102A091C202B091C30221
:103DF0004FBF821B930B0895CF92DF92EF92FF92F9
:103E00002FB7F894C090C002D090C102E090C202D7
:103E1000F090C3022FBFA7019601261B370B480B5A
:103E2000590BCA01B901FF90EF90DF90CF90089530
:103E300078941F921FB61F9211248F939F93AF9374
:103E4000BF938091C0029091C102A091C202B09133
:103E5000C3020196A11DB11D8093C0029093C102BF
:103E6000A093C202B093C302BF91AF919F918F9173
:103E70001F901FBE1F90189587E797E79093010842
:103E80008093000888E19AE00FB6F894A895809393
:103E900060000FBE90936000FFCF88E19AE00FB6FC
:103EA000F894A895809360000FBE90936000FFCFB8
:103EB0008091A30208959B01BA019091C8029430A9
:103EC000E9F48F708093E9009FEF8091E8009150B2
:103ED00085FD06C085ED8A95F1F700009111F5CFBB
:103EE0008091E80085FF0AC050E040E0C9010E94CF
:103EF00055218091E8008E778093E800089543E093
:103F000050E0BC0182E00E945B1F089546E050E053
:103F1000BC0182E00E945B1F0895CF93DF93EC0108
:103F200048E050E0BC0181E00E945B1F88E0FE0198
:103F3000ABE9B2E001900D928A95E1F7DF91CF9164
:103F400008958091C702811109C00E94E5220E9454
:103F500042238091E20084608093E20008951092F1
:103F6000C70208950E94471E08956091C40281E02F
:103F7000611101C080E00E943E1E08959091C80228
:103F800081E0943009F080E06091C4020E94441EF8
:103F9000089542E061EC81E00E94612242E261EC1E
:103FA00082E00E9461229091C80281E0943009F081
:103FB00080E06091C4020E94341E08958091CA027C
:103FC000833009F461C030F48130D1F1823009F4DA
:103FD0009EC008958A3009F48AC08B3009F46FC0FE
:103FE000893009F050C08091C902813209F04BC07C
:103FF0008091CD029091CE02029708F044C080914A
:10400000E800877F8093E8008091E80082FF37C056
:104010009091F3008091F200029731F48091F100C9
:10402000813011F0863021F48091F1008093A30259
:104030008091E8008B778093E8000E94952223C04E
:104040008091C902813AF9F48091E800877F8093DA
:10405000E8008091CD029091CE02892B61F468E056
:104060008BE992E070E00E94A4218091E8008B77B8
:104070008093E800089560E090E080E0F3CF8091C5
:10408000C8028111C1CF08958091C902813AD9F740
:104090008091CD029091CE02892BA9F78091E80002
:1040A000877F8093E8008091E80080FFFCCF8091BB
:1040B00047018093F1008091E8008E77BCCF80911A
:1040C000C902813201F78091CD029091CE02892BF5
:1040D000D1F68091E800877F8093E8000E949522C6
:1040E0008091CB02809347010E94470708958091F9
:1040F000C902813241F68091E800877F8093E80011
:104100000E9495228091CC028093A4020895809110
:10411000C902813A09F0B7CF8091E800877F809388
:10412000E8008091E80080FFFCCF8091A402C1CF1D
:1041300084B7877F84BF0FB6F894A89580916000FC
:10414000886180936000109260000FBE80E890E06C
:104150000FB6F89480936100909361000FBE0E94A7
:104160004D1E08950E94E5220E944223E2EEF0E0F7
:1041700080818460808378940E94C12508958FE3B4
:1041800091E00E94521D08958091C802853031F45B
:104190008091C802853019F00E94C71E08950E94C0
:1041A0009C1E8091C602882399F30E945A1E882380
:1041B00079F30E943F210E944707EACF08959A01B0
:1041C0004091CF025091D0020E94E7200895492FDC
:1041D00055274330510519F168F44130510509F470
:1041E00044C04230510509F445C090E080E050E001
:1041F00040E025C04132510549F142325105A9F74D
:1042000080E490E040EF53E061157105C1F08BE769
:1042100090E045E753E06130710589F0E6CF9927DA
:104220008130910581F0009729F00297F1F6ECEECC
:10423000F2E002C0E4E2F3E0849190E0AF01F90122
:10424000518340830895E0E0F3E0F6CF89E090E009
:104250004AE353E06115710591F389E090E043E58D
:1042600053E06130710559F3C0CF82E190E043E63D
:1042700053E0E5CF8BE390E048E253E0E0CF80E10C
:1042800089BD82E189BD09B400FEFDCF8091D800CF
:104290008F7D8093D8008091E00082608093E00061
:1042A0008091E00081FDFCCF0895AF92BF92CF9244
:1042B000DF92FF920F931F93CF93DF936C01EB017B
:1042C0008A010E94B422F82E811123C00115110524
:1042D00039F0F80180819181C81BD90BC80ED91E15
:1042E000B12CA12C2097A9F08091E80085FD22C077
:1042F0008091E8008E778093E80001151105A1F008
:10430000F80180819181A80EB91EB182A08285E05A
:10431000F82E8F2DDF91CF911F910F91FF90DF909D
:10432000CF90BF90AF9008950E94B4228823D1F21D
:10433000F82EEFCFF60181916F018093F100219764
:10434000FFEFAF1ABF0ACECFFC018091CF02909150
:10435000D00286179707A0F06115710529F4909196
:10436000E8009E779093E80090E06115710551F4A4
:10437000911108C08091E80082FF34C080E0089568
:10438000BC01F2CF8091C8028823C1F18530C1F110
:104390008091E80083FD30C08091E80082FDEACF83
:1043A0008091E80080FFE1CF8091F3002091F2003E
:1043B000382F6115710519F02830310558F091E05A
:1043C0002830310509F090E02091E8002E77209305
:1043D000E800CBCF81918093F100615071092F5F8C
:1043E0003F4FE7CF8091C802882341F0853041F0EC
:1043F0008091E80083FFBECF81E0089582E00895B8
:1044000083E00895FC018091CF029091D00286173D
:104410009707A0F06115710529F48091E8008E7767
:104420008093E80090E06115710551F4911108C086
:104430008091E80082FF35C080E00895BC01F2CF92
:104440008091C8028823C9F18530C9F18091E800C4
:1044500083FD31C08091E80082FDEACF8091E800C1
:1044600080FFE1CF8091F3002091F200382F611599
:10447000710519F02830310558F091E028303105E8
:1044800009F090E08091E8008E778093E800CBCF30
:1044900084918093F1003196615071092F5F3F4FF5
:1044A000E6CF8091C802882341F0853041F08091A9
:1044B000E80083FFBDCF81E0089582E0089583E0A6
:1044C0000895982F973028F08F708093E90081E04D
:1044D00008959093E900242F762F50E0981731F03B
:1044E0007091EC002091ED005091F00021FD02C090
:1044F0009F5FE8CF3091EB003E7F3093EB0030912F
:10450000ED003D7F3093ED003091EB003160309352
:10451000EB007093EC002093ED005093F00020919D
:10452000EE0027FDE5CF80E008958091C90287FF66
:1045300013C08091E80082FF06C08091E8008B776D
:104540008093E80004C08091C8028111F2CF0895E1
:104550008091C8028823D9F38091E80080FFF8CFCA
:104560008091E8008E77ECCF2091E4003091E50057
:1045700095E6A9012091EC00822F817020FF06C0F2
:104580008091E80080FF06C080E008952091E80057
:1045900022FD1AC08091C802882389F0853089F0F5
:1045A0008091EB0085FD0FC02091E4003091E50083
:1045B00042175307F9F29150E1F684E0089582E042
:1045C000089583E0089581E008950E9454230E9495
:1045D0005C23E0EEF0E0808181608083E8EDF0E034
:1045E00080818F77808319BCA7EDB0E08C918E7F9E
:1045F0008C9380818F7E80831092C70208950F93E1
:104600001F93CF93DF930E9454230E945C23C8ED35
:10461000D0E088818F7788838881806888838881CB
:104620008F7D888319BC1092C8021092C402109228
:10463000C6021092C50200EE10E0F80180818B7F67
:10464000808388818160888342E060E080E00E940E
:104650006122E1EEF0E080818E7F8083E2EEF0E087
:10466000808181608083808188608083F80180817F
:104670008E7F8083888180618883DF91CF911F91B5
:104680000F910895E8EDF0E080818F7E8083E7ED63
:10469000F0E080818160808384E082BF81E080934C
:1046A000C7020E94FF220895E8EDF0E080818E7F2E
:1046B00080831092E20008951092DA001092E100D7
:1046C00008951F920F920FB60F9211242F933F93CC
:1046D0004F935F936F937F938F939F93AF93BF930A
:1046E000EF93FF938091E10082FF0BC08091E20085
:1046F00082FF07C08091E1008B7F8093E1000E94E0
:10470000C0258091DA0080FF19C08091D80080FF19
:1047100015C08091DA008E7F8093DA008091D900F5
:1047200080FF96C080E189BD82E189BD09B400FEA9
:10473000FDCF81E08093C8020E94A11F8091E1001B
:1047400080FF19C08091E20080FF15C08091E200D7
:104750008E7F8093E2008091E20080618093E2008E
:104760008091D80080628093D80019BC85E0809346
:10477000C8020E94B51F8091E10084FF2BC0809188
:10478000E20084FF27C080E189BD82E189BD89B54F
:10479000982F917080FFFBCF8091D8008F7D809300
:1047A000D8008091E1008F7E8093E1008091E2004B
:1047B0008F7E8093E2008091E20081608093E2002E
:1047C0008091C402882309F449C084E08093C80220
:1047D0000E94BE1F8091E10083FF29C08091E2000A
:1047E00083FF25C08091E100877F8093E10082E014
:1047F0008093C8021092C4028091E1008E7F809362
:10480000E1008091E2008E7F8093E2008091E200DF
:1048100080618093E20042E060E080E00E946122DB
:104820008091F00088608093F0000E94B21FFF9199
:10483000EF91BF91AF919F918F917F916F915F9118
:104840004F913F912F910F900FBE0F901F90189591
:1048500019BC1092C8020E94AF1F70CF8091E30074
:1048600087FD93E09093C802B3CF1F920F920FB6CB
:104870000F9211242F933F934F935F936F937F93E6
:104880008F939F93AF93BF93CF93DF93EF93FF9358
:10489000D091E900DF708091EC00C82FC17080FDDD
:1048A000C0E81092E9008091F000877F8093F000CB
:1048B00078940E9479241092E9008091F000886039
:1048C0008093F000CD2BCF70C093E900FF91EF9162
:1048D000DF91CF91BF91AF919F918F917F916F9118
:1048E0005F914F913F912F910F900FBE0F901F90AE
:1048F0001895AAE2B0E0EFE7F4E20C94102689ECF8
:1049000092E02091F100FC012193CF01F2E0813D82
:104910009F07B9F70E94DE1F8091E80083FF1EC148
:104920008091C9029091CA029A3008F017C1E92F0C
:10493000F0E0ED50F94D0C94FB25803899F0823869
:1049400009F00CC18091CD028F70873008F006C14C
:104950008093E9008091EB0085FB882780F9109215
:10496000E90006C08091C5029091C6029111826053
:104970009091E800977F9093E8008093F100109267
:10498000F1008091E8008E77E5C0882309F4D3C058
:10499000823009F0E3C08091CB028111D6C08091B2
:1049A000CD028F702FEF280F263008F0D7C08093EC
:1049B000E9002091EB0020FFC8C0933031F48091D2
:1049C000EB0080628093EB00C0C09091EB0090619F
:1049D0009093EB0021E030E001C0220F8A95EAF7C6
:1049E0002093EA001092EA008091EB008860EACF01
:1049F0008111B4C01091CB021F778091E3008078C1
:104A0000812B8093E3008091E800877F8093E8000A
:104A10000E9495228091E80080FFFCCF8091E30006
:104A200080688093E30082E0111183E08093C802E4
:104A300095C08058823008F091C08091CB0290914F
:104A4000CC028C3D23E09207A1F583E08A838AE2C1
:104A500089834FB7F894DE01139620E03EE051E2DF
:104A6000E32FF0E050935700E49120FF03C0E2955C
:104A7000EF703F5FEF708E2F90E0EA30C0F0C79686
:104A80008D939D932F5F243159F74FBF8091E8009C
:104A9000877F8093E8006AE270E0CE0101960E9471
:104AA000A4218091E8008B778093E80057C0C096DE
:104AB000E7CF6091CD027091CE02AE014F5F5F4FA4
:104AC0000E94DF20BC01892B09F448C09091E800C6
:104AD000977F9093E80089819A810E940222E1CF1A
:104AE0008038E1F58091E800877F8093E80080912D
:104AF000C4028093F10045CF811130C09091CB0268
:104B0000923060F58091E800877F8093E800909371
:104B1000C4020E9495228091C402882311F084E08F
:104B200005C08091E30087FDFACF81E08093C80241
:104B30000E94C91F13C08091CB02813079F481E0BB
:104B4000933009F080E08093C6021092E9008091D2
:104B5000E800877F8093E8000E9495228091E8001A
:104B600083FF0AC08091E800877F8093E8008091EE
:104B7000EB0080628093EB00AA96E3E00C942C2675
:104B80000895CF938091C8028823A1F0C091E900D5
:104B9000CF709091EC00892F817090FD80E8C82B38
:104BA0001092E9008091E80083FD0E947924CF7083
:104BB000C093E900CF9108950E94E5221092C802A7
:104BC00008958091E300881F8827881F089597FB28
:104BD000072E16F4009407D077FD09D00E943826DE
:104BE00007FC05D03EF4909581959F4F08957095F0
:104BF00061957F4F0895EE0FFF1F0590F491E02D12
:104C000009942F923F924F925F926F927F928F9270
:104C10009F92AF92BF92CF92DF92EF92FF920F934B
:104C20001F93CF93DF93CDB7DEB7CA1BDB0B0FB655
:104C3000F894DEBF0FBECDBF09942A883988488812
:104C40005F846E847D848C849B84AA84B984C884A8
:104C5000DF80EE80FD800C811B81AA81B981CE0F9F
:104C6000D11D0FB6F894DEBF0FBECDBFED01089584
:104C7000AA1BBB1B51E107C0AA1FBB1FA617B70782
:104C800010F0A61BB70B881F991F5A95A9F780959E
:104C90009095BC01CD010895FB01DC0104C08D910C
:104CA0000190801921F441505040C8F7881B990B9E
:104CB0000895FB01DC0102C001900D92415050406B
:104CC000D8F70895F999FECF92BD81BDF89A99273A
:104CD00080B50895A8E1B0E042E050E00C94A6262B
:104CE000DC01A40FB51F4150504048F0CB01840FA8
:104CF000951F2E910E94812641505040D0F7089573
:104D0000262FF999FECF92BD81BDF89A019700B484
:104D1000021639F01FBA20BD0FB6F894FA9AF99A24
:104D20000FBE08950396272F0E9481260E94802699
:104D3000252F0E948126242F0C9481260196272F4F
:104D40000E9481260C948026DC01CB01FC01F9999C
:104D5000FECF06C0F2BDE1BDF89A319600B40D92C7
:104D600041505040B8F70895F894FFCF320532050E
:104D700082058205E70503066105610508067906D7
:104D800088068806111815182318271829182B18B3
:104D90002D182F18D319471ADB19A519A919DF19CE
:104DA000AD19E319EF19B919401ABD19F319C11951
:104DB000F7191F1AC519FB19261ACB19011A091A56
:104DC000B119E719B519EB19CF19051A151A2F1AC8
:104DD0003E1A9F19D7194E1A6A1B701B591B641B68
:104DE000761B7C1B821B9D24C524AE25C524AE25C5
:0A4DF000F8241925AE2570257C2556
:104DFA003C023294F691F4C63390F59336973166B5
:104E0A00F73435FFFFFF0100000001000000000039
:104E1A000000040100000004050000000000000377
:104E2A0009000000000000280850011E0A14015859
:104E3A001F8D1F861F7F1F01F491F6943293F59000
:104E4A0033C6F7663197363534FFFFFFE200E900D3
:104E5A00EA00B500B600B700CD008301CC008A0194
:104E6A00920194012102230224022502260227022A
:104E7A002A02B300B4006F0070009F01CB019F02A9
:104E8A00A002818283E200E900EA00B500B600B719
:104E9A0000CD008301CC008A0192019401210223F2
:104EAA000224022502260227022A02B300B4006F56
:104EBA000070009F01CB019F02A0028182836102E0
:00000001FF
