:100000000C94DD010C94FA010C94FA010C94531C2D
:100010000C94FA010C94FA010C94FA010C94FA0174
:100020000C94FA010C94FA010C9488230C945C242F
:100030000C947C1E0C94FA010C94FA010C94FA01B5
:100040000C94FA010C94FA010C94FA010C94FA0144
:100050000C94FA010C941F1F0C94FA010C94FA01F1
:100060000C94FA010C94FA010C94FA010C94FA0124
:100070000C94FA010C94FA010C94FA010C94FA0114
:100080000C94FA010C94FA010C94FA010C94FA0104
:100090000C94FA010C94FA010C94FA010C94FA01F4
:1000A0000C94FA010C94FA010C94FA010102E20199
:1000B000016201015901015A01015E0103E20001DF
:1000C00002E201016201016101015E0103E200043B
:1000D000001D00090013000A001400150016001787
:1000E0000007001A001B210624192805002B412AAD
:1000F000220000000000000D000F0018001C00216D
:10010000000B00110008000C0012000E003300105C
:1001100000360210022C4228430000000000002795
:100120001420142F002F0234026400640222002DD8
:10013000001E002700340026001F00240000004C91
:100140000000000000000025142E0023002E0240B5
:100150007E231421142E1422142D14417E250037E1
:10016000023100360800002C04000000000000539B
:100170007C547C567C577C557C2900AC00AE00AB8F
:10018000004600A500E400E200E30000000000E1FA
:1001900000000000000000A9005009427E437E4F8D
:1001A00009AA005000510052004F00A80050014A17
:1001B000004D004F01000000000000000000003A68
:1001C000003B003C003D003E003F0040004100423B
:1001D00000430044004500680069006A002C0400E8
:1001E0000000000000000000001E021F022002307C
:1001F00000270221022202230208142D02240225D4
:1002000002260200000000000000000000000000C4
:10021000000000000000002A2B2800000000000061
:100220000000000000000000000029000000002C79
:100230001E3420212224342627252E362D37382718
:100240001E1F202122232425263333362E37381F24
:100250000405060708090A0B0C0D0E0F10111213E6
:100260001415161718191A1B1C1D2F3130232D3584
:100270000405060708090A0B0C0D0E0F10111213C6
:100280001415161718191A1B1C1D2F3130354C0068
:10029000000000000000000000000000000000005E
:1002A000000000000000000000000000000000004E
:1002B0000000007E0F00D4FFFFFFC700000078128F
:1002C000034B006100680062006F0061007200640F
:1002D000000000220341006E0074006F0069006E90
:1002E0000065004B00610068006C006F00750063E2
:1002F000006800650000000403090409023B0002D5
:100300000100A0FA09040000010301010009211104
:1003100001000122400007058103080001090401D2
:100320000001030000000921110100012232000731
:1003300005820320000112010002000000080000F5
:10034000000000010102000105010980A1018503EF
:1003500019012AB700150126B70095017510810013
:10036000C0050C0901A101850419012AA00215018B
:1003700026A002950175108100C005010906A101A2
:10038000050719E029E71500250195087501810287
:100390009501750881010507190029FF150026FF41
:1003A0000095067508810005081901290595057550
:1003B000019102950175039101C011241FBECFEF79
:1003C000DAE0DEBFCDBF12E0A0E0B1E0E8EEFDE490
:1003D00002C005900D92A231B107D9F726E0A2E143
:1003E000B2E001C01D92AD39B207E1F70E94B61428
:1003F0000C94B3260C940000FB0181342EE7920785
:1004000021F128F480349E47A9F081E008958234D8
:100410002EE7920719F183349E47B9F78581882327
:1004200071F180911402811126C081E08093140241
:1004300080EE1FC08581882341F30E940D0760E094
:100440008FEB90E00E941416E0CF85818823E9F2BB
:100450000E940D0760E08CEA90E0F4CF858188234C
:1004600071F080911502811106C081E08093150220
:1004700082EE0E942C048BE20E942C04C6CF8BE2F9
:100480000E947004C2CF80911502882351F082E04F
:100490000E949E07811105C082EE0E947004109296
:1004A000150280911402882351F082E00E949E0779
:1004B000811105C080EE0E9470041092140208950C
:1004C0008430B8F46830A8F4453098F450E095E0F2
:1004D000699F400D511D1124FA0198E2899FE00D9A
:1004E000F11D1124EE0FFF1FE153FF4F85919491F1
:1004F000089581E090E008950E94600208959C01B3
:100500003A9521153F4150F5FC01EE27F170BC01F1
:1005100066277270AC01442754709C012227387002
:1005200094FF0EC080E1EF2B09F480E0672B09F007
:100530008062452B09F08064232B89F08068089540
:1005400081E0EF2B09F480E0672B09F08260452BF6
:1005500009F08460232B19F08860089580E00895E5
:10056000CF93DF93EB010E947F02FE010995DF919B
:10057000CF910895CF93DF93EC01805E91090897A6
:1005800020F064EF76E0209711F46BEB74E0CE017D
:100590000E94B0028C2F0E942C04DF91CF9108950D
:1005A00081E008950E94D002089581E008950E949C
:1005B000FC01089508950E94DA020895A6E0B0E0D3
:1005C000E4EEF2E00C94232649835A839E83309113
:1005D0001B0289819A8131111AC03E81332399F01F
:1005E000222389F00E947808182F682F89819A8128
:1005F0000E94540869817A81812F0E949E0F26965D
:10060000E3E00C943F260E946608182FF3CF0E9467
:10061000780869817A81F1CFFC01262F40815181D0
:1006200062817381848195810E94DE020895CF9357
:10063000DF93EC0161E00E940C03BE010E94D20234
:10064000DF91CF910895CF93DF93EC0160E00E949A
:100650000C03BE010E94DB02DF91CF910895089543
:100660000E940D070E942F032FEF84E39CE021508E
:1006700080409040E1F700C0000008950E943003E0
:100680000E94431F08950E9430030E94541F089542
:100690000F931F93CF93DF938C0161E00E940C03B3
:1006A000EC01B8010E948017811106C080E0DF9143
:1006B000CF911F910F910895B801CE010E94D702EA
:1006C0008823A1F3B801CE010E945C19882371F33D
:1006D000B801CE010E946F1B882341F3B801CE01FF
:1006E0000E94DB14882311F3B801CE010E94171871
:1006F0008823E1F2F8018581882361F0C330FCE7AB
:10070000DF07E9F058F4C115ECE7DE07A9F0C130C6
:10071000DC47B9F0C8010E94D502C9CFCB358CE7C0
:10072000D807A9F0CC35ECE7DE0771F0CA35DC4715
:1007300089F70E94E50CEECF0E943E03B7CF0E94DE
:10074000ED0C0E944303B2CF0E94DB0CE3CF0E946A
:10075000E90CE0CF0E94591E0E94D10308950E9427
:10076000D5030E945E1E0895089581E008950895BE
:10077000CF93DF93D82F0E94B503C82F882319F099
:100780008D2F0E94B7038C2FDF91CF91089508958C
:10079000CF93C82F0E94B4038C2F0E94B803CF912F
:1007A000089580E00E94C80308950E94791D0E9468
:1007B000C8030895CF930E94791DC82F8091160217
:1007C0008C1779F0C09316020E94E81E60931702FE
:1007D000709318028093190290931A028C2F0E9432
:1007E000C803CF910895ADE0B0E0E9EFF3E00C94D9
:1007F0002426488759876A877B878C879D87911134
:100800000E94F00B1F8286E0FE013896DE011196F1
:1008100001900D928A95E1F78D8181110DC029819A
:100820003A814B815C816D817E818F810E94200B9A
:100830002D96E2E00C944026CE0101960E9417030B
:100840008111EDCFF5CFFC012481213021F480818D
:1008500091810E94AA080895CF93C82F8823B9F0E8
:100860008CEF8C0F813AA8F46C2F80910C01909141
:100870000D010E94F41D882329F08C2F0E94AD0BDE
:100880000E94380C8C2F0E94A50B0E94380CCF912F
:10089000089580E28C0F883048F4C77081E001C071
:1008A000880FCA95EAF70E94D30BEFCFEBE5EC0F68
:1008B000E33040F4F0E0ED52FE4F808190E00E9482
:1008C000981DE5CFC85ACB3110F7EC2FF0E0EE0FB2
:1008D000FF1FE356FE4F808191810E94BD1DD7CF3F
:1008E000882339F19CEF980F913A28F40E94AD0BC0
:1008F0000E94380C089590E2980F983050F4877059
:1009000091E001C0990F8A95EAF7892F0E94D90BCF
:10091000EFCF9BE5980F933028F490E080E00E94A1
:10092000981D0895885A8B3120F490E080E00E9451
:10093000BD1D08951F93CF93DF93182FEB010E94E5
:100940002C04209739F4812F0E947004DF91CF91FD
:100950001F9108958FE99FE00197F1F700C0000013
:100960002197EFCF70E060E0893311F460E570E02B
:100970000E949A040895882321F00E94D30B0E94BC
:10098000380C0895882321F00E94D90B0E94380C5E
:100990000895B0E0A0E0EFECF4E00C941D266C01AB
:1009A000D62FC72FFC011581068102950F700E947A
:1009B000C90BE82E8823E9F0E12E1123D1F08C2F0A
:1009C000807F803451F080E28D0F8830F8F0011183
:1009D00004C08C2F807E8032C9F08091790682FF1E
:1009E00015C082E00E94AF0C0E94C90B91E0E82E76
:1009F000E926BC2EB2949FE0B922FBE0FB15B8F1CA
:100A0000EB2DF0E0EB54F94D0C940E26E12CF1CFD8
:100A10000C2F0F70C07F11F00295007F112399F009
:100A2000002359F080E28D0F883010F0D11107C0FB
:100A3000802F0E94D30B0E94380C8D2F5AC0802F1C
:100A40000E94E30BF8CF8D2F0E947004002379F0F1
:100A500080E28D0F883010F0D11104C0802F0E94E9
:100A6000D90B03C0802F0E94E90B0E94380CEB2D9C
:100A7000E850FF0B349720F40E94791D0E94C803B0
:100A8000EE2089F00E94C50B80FD0DC0F601158295
:100A90000E94BF0B0E94B207C6010E94D1060E94AD
:100AA000BF0B0E94C207CDB7DEB7E9E00C94392630
:100AB0002C2F2F70F22EC07FC03219F0F29480EFED
:100AC000F822DD2341F0D130D1F1112309F444C0E3
:100AD0000023F1F0B2CF8091790682FD15C0112379
:100AE00059F0FF2029F08F2D0E94D30B0E94380C63
:100AF00080E00E942C04BBCF80E00E947004FF20A5
:100B000009F4B5CF8F2DABCF112369F0011104C0CB
:100B10008F2D0E94BB04ABCF013009F0A8CF8F2DE1
:100B20000E94160CA4CF0111A2CF8F2D0E94C204E7
:100B30008F2D0E94220C8F2D0E94060C98CF11231E
:100B400021F0063008F093CFE3CF053008F08FCFC7
:100B50008F2D0E94C2048BCF0023D1F3D93349F4E7
:100B60003FEF87EE93E0315080409040E1F700C0C6
:100B700000008D2F0E9470047ACF8C2F8695869569
:100B8000837069F0813009F072CF8D2F9C2F9370A4
:100B9000111102C080E090E00E94BD1D68CF8D2F32
:100BA0009C2F9370111102C080E090E00E94981D6C
:100BB0005ECF8C2F8370A1F5111159CF4D2F429527
:100BC00046954770440F440F2D2F2F7030E0042EB0
:100BD00002C0220F331F0A94E2F790E080E0D4FFB6
:100BE00009C08FE090E002C0880F991F4A95E2F794
:100BF00080959095C695C695C370822B932BC23075
:100C000049F058F4C13019F00E94660730CF0E94B5
:100C10005D072DCF0E946F072ACF0E945A0727CF6A
:100C20008695112311F08C2F8170882309F41FCF32
:100C30004D2F429546954770440F440F2D2F2F702E
:100C400030E0042E02C0220F331F0A94E2F790E036
:100C500080E0D4FF09C08FE090E002C0880F991FA8
:100C60004A95E2F780959095C695C695C370822BFC
:100C7000932BC23049F058F4C13019F00E94ED07AF
:100C8000F6CE0E94E407F3CE0E94F607F0CE0E9453
:100C90007E07EDCECF70112329F08C2F0E94B20772
:100CA0008D2F37CF8D2F0E94C2048C2F0E94C20738
:100CB000DECED23F41F160F4D03FB9F0D13F81F0B8
:100CC000112309F446C00111B8CE8C2F8F711FC0BB
:100CD000D33F01F1D43FA1F78091790682FD24C072
:100CE0008C2F8F71112311F312C0112341F00530A5
:100CF00008F0BDCE8C2F8F710E94D407B8CE06307D
:100D000008F0B5CEF7CF8C2F8F711111CFCF0E9485
:100D1000B207ADCE112329F08C2F8F710E94A60748
:100D2000A6CE0E948507A3CE112349F0CF718C2F48
:100D30000E94B20763E08C2F0E94910C98CE81E054
:100D40000E94AF0C023008F492CE82E00E94AF0CF9
:100D50008ECE002359F0D93309F00BCFEFEFF7EE29
:100D600023E0E150F0402040E1F701CF8C2F8F715C
:100D70009DCF0F931F93CF93DF93EC01688179810F
:100D80008D810E94B5088C010E94FF070E945907BF
:100D9000B801CE010E94C904DF91CF911F910F913C
:100DA0000895CF93DF93EC018C81882399F0CE01D5
:100DB0000E944803811111C00E94C90B882351F081
:100DC0008D81882339F08091790682FF03C082E00B
:100DD0000E94AF0CDF91CF910895CE010E94B90619
:100DE000CE010E942303F6CF882321F00E94E30B5B
:100DF0000E94380C089590E080E00E94981D90E0D9
:100E000080E00E94BD1D0E94F00B0E94380C0895E6
:100E10000E94B50B0E94FB0608950E94E00B0E9401
:100E20000807089592959F70963091F058F4925F5C
:100E30009F70923058F4803F19F030F4883E30F4BF
:100E400081E008959A5FF4CF843FD1F380E0089564
:100E5000883EB0F3813FD1F7F3CFFC0124812223F8
:100E600039F0808191810E94AA080E94120708959A
:100E700080E00895A6E0B0E0E0E4F7E00C942426DA
:100E80002696E2E00C944026A7E0B0E0EAE4F7E022
:100E90000C9424262796E2E00C94402608950E94A4
:100EA0004E0708950E944F079093330280933202B9
:100EB000089508950E9452070895209132023091BA
:100EC0003302822B932B0E94520708952091320205
:100ED00030913302822393230E9452070895209178
:100EE000320230913302822793270E9452070895DD
:100EF0000E944E0708950E94780708950E947B077C
:100F00009093310280933002089590E080E00E9437
:100F10007E070895009729F481E0662371F080E050
:100F20000CC021E030E002C0220F331F6A95E2F7C7
:100F30002823392381E0232B91F30895682F809192
:100F40003002909131020E948A07089521E030E03A
:100F5000A90102C0440F551F8A95E2F7CA010E94F9
:100F60007E07089521E030E002C0220F331F8A95EA
:100F7000E2F78091300290913102822B932B0E94F4
:100F80007E07089521E030E002C0220F331F8A95CA
:100F9000E2F72095309580913002909131028223C2
:100FA00093230E947E07089521E030E002C0220FC3
:100FB000331F8A95E2F780913002909131028227A7
:100FC00093270E947E0708952091300230913102CC
:100FD000822B932B0E947E0708952091300230913E
:100FE0003102822393230E947E07089520913002CC
:100FF00030913102822793270E947E070895089539
:10100000262F277091E001C0990F2A95EAF723E077
:10101000769567952A95E1F7660F771F660F771F1C
:10102000FA01E60FF71F50E040E0682F70E0819171
:10103000DF0111979B01042E02C0369527950A9473
:10104000E2F7217021952827292328272C934F5F29
:101050005F4F4430510559F70895A82FA77023E03A
:10106000969587952A95E1F7880F991F880F991F04
:10107000FB01E80FF91F50E040E080E0219130E0F3
:101080000A2E02C0369527950A94E2F7217033277D
:10109000042E01C0220F0A94EAF7822B4F5F5F4FA4
:1010A0004430510559F70895262F983070F4853053
:1010B00060F4682F70E085E0989F600D711D112429
:1010C0004CE152E0822F0E9400080895292F9830A9
:1010D00068F4853058F490E06CE172E035E0239FCD
:1010E000800D911D11240E942D08089580E008951F
:1010F000B0E0A0E0EEE7F8E00C941D267C01009142
:101100003002109131028091320290913302082B0B
:10111000192BCFE0D0E0CC24C394D12CBC2EC60137
:101120000C2E02C0880F991F0A94E2F780239123A6
:10113000892B49F4219790F7B12C8B2DCDB7DEB7D1
:10114000E9E00C943926B7018C2F0E94AA0F019771
:1011500089F3F3CFCF93DF93EC010E947808BE01AF
:101160000E94AA0FDF91CF9108951F93CF93DF9331
:10117000EB0190911B02992339F0CB010E94AA0840
:10118000DF91CF911F910895882369F0CB010E94D0
:101190007808182F682FCE010E945408BE01812FB5
:1011A0000E94AA0FEDCFCB010E946608182FF6CF40
:1011B0001F93CF93DF93C091340217E080913502E3
:1011C0008C1304C0DF91CF911F910895D0E01C9F34
:1011D000F0011D9FF00D1124EA5CFD4F208131814B
:1011E000428153816481758186810E9444072196E2
:1011F000C770E4CF20916E0230916F02409170026F
:101200005091710260917202709173028091740228
:101210000E9444070895CF93DF9380917402807FEA
:1012200009F04DC080917302882309F448C0E09111
:10123000340250913502C0916F02D0916E026091DC
:1012400070027091710247E05E17C9F18E2F90E035
:10125000E49FF0011124EA5CFD4F2481222391F1E7
:10126000489FF001499FF00D1124DF01AA5CBD4F9A
:1012700011962C9111972C1325C02C912D1322C05F
:1012800015962C91159721111DC012962D913C9108
:10129000261B370B283C3105A8F4809174028F700F
:1012A000806180937402E45CFD4F80818F70806167
:1012B00080838EE692E00E94D1060E94D808DF91DA
:1012C000CF910895FC013196E770BECF482F209151
:1012D00034029091350257E0291302C080E008954E
:1012E00030E0529FF001539FF00D1124EA5CFD4F56
:1012F0008181681306C08081481303C085818111F4
:10130000EECF2F5F3F4F2770E7CFA4E1B0E0EBE8CF
:10131000F9E00C941A268C0186E0F801DE011F9694
:1013200001900D928A95E1F7D80114968C9114974B
:101330001596EC9015979EE6A92E92E0B92E909105
:10134000720291111FC08823D1F0EE20A9F0C801CC
:101350000E942D07F82E882379F087E0F801D50147
:1013600001900D928A95E1F7C5010E9423040E9425
:101370000B090E94FA083DC0C8010E94D106FF2453
:10138000F39437C0F801C080D18082809380F090C0
:1013900073022091700230917102A401421B530B21
:1013A000FF2009F4F6C0483C510508F0A5C0882389
:1013B00001F190916F0280917402282F207F09F033
:1013C00067C09D111BC090916E029C1117C0E11067
:1013D00059C08F708061809374020E94FA088EE673
:1013E00092E00E94D10680917402D80116968C93E7
:1013F000F12C8F2D6496ECE00C943626E11042C05F
:101400006D2D8C2D0E946609E82E882371F08EE6E2
:1014100092E00E94D10687E0EEE6F2E0DF011D9245
:101420008A95E9F70E94FA08E3CFCF86D88A8F859C
:1014300098890E94AA08292F22952F70243058F4E9
:101440009F70223088F0992399F0F8019681907F5F
:1014500079F4FE2CCECF2A5F2F70223068F0C801BD
:101460000E94D106EF2CF5CF992311F0882389F340
:10147000805E883070F3F3CF803F58F3815F833014
:1014800070F7E7CF80917402816080937402B0CFCF
:101490009D1107C090916E029C1103C0EE2009F4CB
:1014A0009CC0C8010E942D07882309F465CFEE2057
:1014B00009F462CF80917402803288F020916E022C
:1014C00030916F02398728879B868A8690917202B5
:1014D0009C871D868E87CE0108960E94D10687E0E4
:1014E000F801AEE6B2E001900D928A95E1F70E9414
:1014F0000B090E94FA0843CF90917402292F207F94
:1015000091F4682D9A8A898AA6017A899E2D0E9473
:101510003A078EE692E00E94D10687E0F50111922B
:101520008A95E9F77FCF882309F463CF80916F0212
:101530008D1111C080916E028C110DC0E1100BC095
:1015400016969C93C8010E94D10687E0F50111927E
:101550008A95E9F74ECFC8010E942D07882309F428
:101560000BCFEE2009F408CF80917402803208F48A
:10157000B6CF20916E0230916F023A8329839C820C
:101580008B82909172029D831E828F83CE01019681
:10159000A4CF483C510508F045C0882309F4EFCE9C
:1015A000FE2CEE2009F4E8CE80916F028D112CC044
:1015B00080916E028C1128C08091740280FD1BC046
:1015C000982F907FC1F016968C931697903F39F024
:1015D000982F907F905F8F70892B16968C93C801FF
:1015E0000E94D10687E0F801AEE6B2E001900D92CC
:1015F0008A95E1F7BECE87E0F801AEE6B2E0019051
:101600000D928A95E1F7F5CEC8010E942D07811150
:1016100066CF80917402816080937402C8010E9439
:10162000D106E7CE682D9A8A898AA6017A899E2DED
:101630000E943A0787E0F50111928A95E9F799CE61
:10164000AEE0B0E0E6E2FBE00C9423262887398781
:101650004A875B876C877D878E87CE0108960E94BC
:1016600085098823B1F06C85662341F0288539858A
:101670004A855B857D858E850E94440717E08091B1
:1016800034029091350289133DC02E96E3E00C940C
:101690003F2687E0FE013896DE01119601900D92FB
:1016A0008A95E1F78C85882349F32091350230E053
:1016B000C90101968770992740913402481719068D
:1016C00099F097E0929FD001939FB00D1124AA5CEE
:1016D000BD4FFE01319601900D929A95E1F78093EE
:1016E00035020E94D808CACF0E940D071092350219
:1016F0001092340287E0EEE6F2E0DF011D928A9557
:10170000E9F7BCCF819FC00111248A5C9D4F0E94E4
:101710008509882309F4B9CFE09134021E9FF001B6
:101720001124EA5CFD4F2081318142815381648123
:10173000758186810E9444078091340290E0019671
:1017400087709927809334029ACF682F80910C017B
:1017500090910D010E942A1E0895682F80910C011E
:1017600090910D010E942D1E089580910C01909181
:101770000D010E94301E089580917E02089580918F
:101780007D02869586958695089580917D02877065
:10179000089590917D02977081E009F480E00895AA
:1017A00080918B02089590918B02892B80938B02FC
:1017B0000895809590918B02982390938B020895C1
:1017C00010928B02089590918A02892B80938A024D
:1017D0000895809590918A02982390938A020895A3
:1017E00010928A02089580938902089510928902C6
:1017F0000895809388020895109288020895809138
:101800007F02089508950E94020C089590917E022F
:10181000292F282331F08095892380937E020E940E
:10182000030C089508950E94120C089590917F0270
:10183000292F2823281729F0982B90937F020E94A4
:10184000130C089590917F02292F282331F0809561
:10185000892380937F020E94130C089580917F0258
:10186000882329F010927F0280E00E94130C0895D3
:10187000CF93DF93E0910C01F0910D0180918B02E9
:101880008083E0910C01F0910D01808190918A029A
:10189000892B808390917F02992381F0E0910C0144
:1018A000F0910D018081892B808380910C019091B2
:1018B0000D010E94E21D81110E942E0CE0910C018D
:1018C000F0910D0180918802982F90958081892355
:1018D0008083E0910C01F0910D018081909189024B
:1018E000892B8083C0910C01D0910D0148E050E01C
:1018F00065E772E0CE010E944B26892B59F088E003
:10190000FE01A5E7B2E001900D928A95E1F7CE01C4
:101910000E948D1DDF91CF91089508950E948D0C36
:1019200008959091790692FF11C098E0899F9001E7
:101930001124622B60937D020E94B20780917D0288
:101940008695869586950E948E0C08950E94B20712
:10195000089510927D0280E00E948E0C089590916F
:101960007D028095892380937D02282F277069F45A
:10197000891759F09091790692FF07C08695869550
:1019800086950E94C2070E94A90C0895909179063D
:1019900092FB222720F9281769F080FB92F9909397
:1019A000790680917806909179060E940E0D82E06A
:1019B0000E94AF0C08958091790682FB882780F9F8
:1019C00091E089270E94C60C089581E00E94C60C10
:1019D000089580E00E94C60C08956FEF7FEF90E0BD
:1019E00080E00E949D26089590E080E00E94692694
:1019F00021E0863E9E4F09F020E0822F089582E08C
:101A000090E00E946126089583E090E00E946126A4
:101A1000089584E090E00E9469260895BC0184E066
:101A200090E00E949D260895AB01BC018FE090E0FC
:101A30000E9491260895AB01BC0183E190E00E94D1
:101A40009126089560E070E0CB010E941B0D08957F
:101A500060E070E0CB010E94140D0E94220D0895F9
:101A6000A8E0B0E0E6E3FDE00C94242666EE7EEF0D
:101A700090E080E00E949D2660E082E090E00E947D
:101A80007F2660E083E090E00E947F261092330280
:101A90001092320260E074E184E090E00E949D26A2
:101AA00060E086E090E00E947F266FEF87E090E0A4
:101AB0000E947F2640E050E0BA0188E090E00E945A
:101AC000912660E084E290E00E947F2660E087E15A
:101AD00090E00E947F2660E08CE090E00E947F26EC
:101AE00060E08DE090E00E947F2619821A821B82BE
:101AF0001C821D821E821F82188648E050E068E129
:101B000070E0CE0101960E946F2640E050E0BA01DD
:101B100080E290E00E9491260E94280D2896E2E043
:101B20000C9440260E94300D08958EE090E00E94B3
:101B3000612691E0811101C090E0892F0895682FFE
:101B40008EE090E00E947F260895A6E0B0E0EBEAE8
:101B5000FDE00C9422260E94DC1E8C0180918C02F8
:101B600090918D028017910781F019821A820E944C
:101B7000DC1E682F49815A81792F80E090E00E9415
:101B8000F30310938D0200938C022696E4E00C94EC
:101B90003E260E94BA1060939A0270939B02809333
:101BA0009C0290939D02609396027093970280939B
:101BB0009802909399020895089508950E94DD0D6A
:101BC000089508950E94E10D089581E0089584ED3F
:101BD00090E10E946F1D0E94DC0D0E94DE0D0895B1
:101BE0000E9499120895089508950E94F30D0E948D
:101BF000F40D08950E94D7100E94C70308950E9413
:101C0000D31E0E9494100E94BF120E94C6110E940F
:101C1000FA0D0E94C3140E94CF120E94E20D089593
:101C20000E94991281110E9420190895A6E0B0E047
:101C3000ECE1FEE00C941B260E94E50D81110AC028
:101C40000E94A50D0E94100E0E94DA032696EBE07A
:101C50000C9437260E941A128EE8A82E82E0B82E25
:101C6000750110E0F70101917F01812F0E94FC10A6
:101C70001F5F183009F441C00817A1F380919E023C
:101C800081FD0E9402110E94F00DC82E10E09924DF
:101C90009394812F0E94FC10082FF50181915F0120
:101CA000081729F1D02ED826F12CEE24E3948D2D9F
:101CB0008E21A9F0CC2099F0F9821A830E94DC1EB3
:101CC0009C838B839D8291E0802F8E2109F490E08C
:101CD00049815A816B817C818D810E94F303F39449
:101CE000EE0CF5E0FF12E3CFF501319700831F5FA3
:101CF000183079F60E94C90DA5CF0813BFCFA0CF29
:101D00001F93CF93DF930E94AF0FEC01C11580E5C5
:101D1000D807F0F5C11580E4D80708F09CC0C03E94
:101D2000D10520F5CD3CD10508F082C0C83AD105D7
:101D300078F4C53AD10508F073C0C130D10519F166
:101D4000209709F1C430D105F0F4D0E0C0E01BC009
:101D5000C33CD105D0F7C85AD0E0CC0FDD1FCA5222
:101D6000DE4F0990D881C02DD4640DC0C11580E22A
:101D7000D80708F0D1C0C11581E0D80708F05AC0D3
:101D8000C83ED10510F7CE01DF91CF911F91089584
:101D9000C03682E5D80718F5C03482E5D80708F0C8
:101DA0006BC0C03282E5D80708F05FC0C11582E57C
:101DB000D80708F497C02C2F2695269580E2289FF7
:101DC000900111248C2F8370C1E0D0E002C0CC0FB1
:101DD000DD1F8A95E2F7C22BD32BDD68D4CFC03A42
:101DE00082E5D80760F4C03882E5D80708F459C006
:101DF000CF71D0E0DC2FCC27C46FD06AC4CFC03CF9
:101E000082E5D80708F462C0C03E82E5D80708F032
:101E10009CCFDC2FCC27CC27DF71C06FD06AB3CF2B
:101E2000C55AD0E0C45FDD4FC881D0E0D064ABCFED
:101E3000D065A9CF8D2F0E945110182FCE01992760
:101E40000E94AF0FC12FD0E0DC2FCC27CC27DF7151
:101E5000C82BD92B98CFCE0199270E94AF0FCC2742
:101E6000DF70C82BD92BD06A8ECFCF71D0E0DC2F9A
:101E7000CC27C16FD06A87CF2C2F26952695277047
:101E800080E2289F900111248C2F8370C1E0D0E064
:101E900002C0CC0FDD1F8A95E2F7C22BD32BDC6882
:101EA00072CF2C2F26952695277080E2289F9001CF
:101EB00011248C2F8370C1E0D0E002C0CC0FDD1F55
:101EC0008A95E2F7C22BD32BDA685DCF8C2F8F7106
:101ED0000E945110C82FD0E0DC2FCC27CC27DF7117
:101EE000D06251CF8C2F8F710E94511055E0D69542
:101EF000C7955A95E1F7CF70D0E0DC2FCC27282F7B
:101F000030E084FF05C044E0220F331F4A95E1F71B
:101F1000C22BD32BD06937CF8D2F8F710E945110D8
:101F2000182FCE0199270E94AF0FC12FD0E0DC2FD0
:101F3000CC27CC27DF71C82BD92BD2CF462F7830B6
:101F400030F4653020F4672F0E947C02089590E001
:101F500080E008950E949E0F0E94800E08958238AE
:101F60009105B9F1B0F48133910509F47DC048F4CD
:101F70008932910509F46DC08A32910509F47BC05C
:101F800008958533910509F45FC08933910509F1FE
:101F90000895833E9105D9F138F4803E910529F1E9
:101FA000823E910579F10895863E9105D9F1873EEB
:101FB000910509F43EC0843E910541F520917906D2
:101FC00021FF24C08091780684FD19C087EE90E03F
:101FD000089520917806237009F05AC0209179065F
:101FE00023FF14C089E290E008952091780620FD37
:101FF00038C03091790630FF09C024FF43C090E01B
:1020000080E008952091780622FDF7CF0895209171
:10201000780622FD3AC03091790630FD39C024FFA0
:10202000F5CFEDCF2091780623FFF0CF24FDE7CF49
:10203000CDCF2091780623FD2EC03091790631FF57
:10204000EECF84EE90E008952091780625FFDECF54
:10205000C9CF2091780625FD21C02091790623FF64
:10206000D5CF89E390E0D2CF2091780626FFCECF5E
:102070008AE290E008952091780626FFC7CF81E399
:1020800090E0089583EE90E0089582EE90E0089548
:1020900080EE90E0089586EE90E0089585E390E06C
:1020A00008959091780692FF06C0282F2871283055
:1020B000F9F4877F846093FF06C0282F28712831A8
:1020C000F1F4877E84612091790620FF06C0382FC5
:1020D00038713830D9F4877F816021FF06C0282FFE
:1020E00028712831D1F4877E816194FD877E08951F
:1020F000282F24712430F9F68B7F8860DCCF282FBD
:102100002471243101F78B7E8861DDCF382F317146
:10211000313019F78E7F8860E0CF282F217121316F
:1021200021F78E7E8861E1CF1092740610927506B9
:1021300010927606109277060895CF92DF92EF9272
:10214000FF926B017C010E94991281110EC00E94C6
:10215000E81EC61AD70AE80AF90AC0927406D09295
:102160007506E0927606F0927706FF90EF90DF908A
:10217000CF9008950F931F930E949912882329F0FE
:102180000E94E81E1F910F9108950E94E81E009181
:102190007406109175062091760630917706600FCF
:1021A000711F821F931FEECF80E0089508950E9453
:1021B000F40C811102C00E94920D0E94FF0C8093CA
:1021C0009E020E94090D90937906809378060E94E2
:1021D000D6100E94040D90E00E945A0780913002B0
:1021E000909131020E947B07089508950E94F51096
:1021F00008950E9443020895E82FF0E0ED57F94F4B
:1022000080810895089508950E9403110895EF9222
:10221000FF921F93CF93DF9300D000D0CDB7DEB7EE
:102220000E949912182F60918B06882309F447C0E9
:1022300019821A821B821C82862F90E09E012F5FDA
:102240003F4F7901B9018D57994F0E94DD128823C4
:10225000E9F080917A0690E044E050E0B7018D57B4
:10226000994F0E944B2621E020939F02892BC9F4AD
:1022700010E00E94F910812F0F900F900F900F9097
:10228000DF91CF911F91FF90EF90089580919F0271
:10229000882371F384E0F70111928A95E9F710928F
:1022A0009F02E0917A06F0E0ED57F94F89819A811B
:1022B000AB81BC8180839183A283B383DACF70E04A
:1022C0006D57794F80917A0690E08D57994F0E9413
:1022D00064130E940411CFCF1F93CF93DF932EE09E
:1022E00031E0C1E0D0E0D90150E040E08D918F3F76
:1022F00091F0E82FE295EF70F0E011A18F70BE0130
:1023000001C0660F8A95EAF7962F9095912391A3C5
:1023100082A1862B82A34F5F5F4F4530510531F775
:102320002B5F3F4F81E022323807E9F6DF91CF91F2
:102330001F910895CF93DF93AC01A62FB0E085E005
:10234000689FF0011124E25FFE4F75E081E060E0DC
:1023500091919F3FC9F0C92FC295CF70D0E028A1BD
:1023600030E09F7002C0359527959A95E2F720FDE1
:102370000BC0282F622B880F715051F7A40FB51F87
:102380006C93DF91CF91089520E0F4CFA4E1B0E009
:10239000ECECF1E10C94242680912201811126C0FD
:1023A00084E1E9E4F1E0DE01119601900D928A9555
:1023B000E1F7FE013196AEE0B1E0CE014596208115
:1023C0002C93218111962C931197228112962C9394
:1023D0001297238113962C931397248114962C9390
:1023E0001497359615968E179F0749F7809122010D
:1023F00094E0811190E090938B0684E0891B809398
:102400007A060E946C1188E0E3E8F6E0DF01982F7D
:102410001D929A95E9F7EBE7F6E0DF011D928A95A8
:10242000E9F784E00E9458120E94F6106496E2E0F8
:102430000C944026A8E0B0E0E0E2F2E10C94212602
:102440008E010F5F1F4F88E0F80111928A95E9F71E
:10245000F12C6F2DC8010E949A11F394F4E0FF1241
:10246000F8CF48E050E0B8018BE796E00E944B2699
:1024700021E0009709F420E0892B41F088E0F80181
:10248000ABE7B6E001900D928A95E1F760918B067B
:1024900070E06D57794F44E08BE796E00E94591247
:1024A000182F0E940711812B2896E5E00C943D26F9
:1024B0000895CF92DF92EF92FF920F931F93CF93E5
:1024C0006C017B01042F222349F081E08093A2025A
:1024D0000E94DC1E9093A1028093A002C091A202F0
:1024E000C1110AC0C0E08C2FCF911F910F91FF90B6
:1024F000EF90DF90CF9008958091A0029091A1027B
:102500000E94F41E059770F310E0A801B601C70100
:102510000E944B26892B41F0A801B601C7010E94F9
:1025200058261092A202DFCFC0E0FBCF0E94950D8B
:102530000895CF93DF938091A502811117C0C8EC55
:10254000D0E00E94082681110EC08FE39CE901971C
:10255000F1F700C000002197A1F782E08093A50267
:102560000E94032603C081E08093A50281E0909140
:10257000A502913009F080E0DF91CF9108950E948B
:10258000F40C811102C00E94920D0E949612809359
:1025900022010E94991281110E94131308950E9432
:1025A0009912811102C00E941613089581E0909142
:1025B000A6029A3008F080E008950F931F93CF93FE
:1025C000DF93EC018B018091A6028A30B8F4B80148
:1025D000CE010E946113C82F811122C08091A602F2
:1025E0008F3FB9F40E94DC1E9093A4028093A30253
:1025F0008C2FDF91CF911F910F9108958091A302AD
:102600009091A4020E94F41E843F914000F7C0E024
:10261000EFCF8F5F8093A6028A3020F7C1E0E8CF2A
:102620001092A602E5CF0E940D1C08950E94101C76
:102630000895B0E0A0E0EFE1F3E10C941F267901EA
:10264000C82F880FDD0B41155105A9F0FE0193E05D
:10265000EE0FFF1F9A95E1F7ED5DFE4F81819281AC
:1026600089559D4F208130E04217530708F49A01A5
:10267000A9010E945826CE010E94F91CD82E882359
:10268000D1F001151105B9F083E0CC0FDD1F8A955B
:10269000E1F7FE01ED5DFE4F438150E004171507A1
:1026A00008F4A801CD5DDE4F6C817D8169557D4FB9
:1026B000C7010E9458268D2DCDB7DEB7E7E00C94F8
:1026C0003B260E945B1408950E9472140895A4E0B2
:1026D000B0E0EDE6F3E10C9422266091BC0270912B
:1026E000BD028091BE029091BF020E94031F11E0C3
:1026F000643671058105910518F10E94BA106E5F6C
:102700007F4F8F4F9F4F69837A838B839C8310E029
:1027100000E030E020E044E050E0BE016F5F7F4F1A
:1027200082E00E941913182F882351F00E94E81E9E
:102730006093BC027093BD028093BE029093BF026F
:10274000812F2496E4E00C943E26B0E0A0E0EBEA72
:10275000F3E10C941C267C015B016A010E94D612F5
:1027600001E010E0882311F00AE010E0C1E0D0E0C1
:10277000B501C701F6010995811104C021960C1716
:102780001D072CF4CDB7DEB7EAE00C943826CC9FB9
:102790009001CD9F300D300D112490E080E045E395
:1027A0004A95F1F70000019682179307C1F7E0CF31
:1027B000A5E0B0E0EEEDF3E10C941C265B01E090A7
:1027C0000F02F090100201E010E09E012B5F3F4FDE
:1027D00050E040E070E060E080E00E941913182FA4
:1027E000882309F44BC067018FEFC81AD80A60919B
:1027F000B8027091B9028091BA029091BB020E9416
:10280000031F643671058105910580F104E010E035
:102810009E012F5F3F4F50E040E070E060E081E0BC
:102820000E941913F82E64E070E0C6010E94C414DF
:1028300011E09D81981310E01F2159F10E94E81EBC
:102840006093B8027093B9028093BA029093BB026E
:1028500089819A81AB81BC818093B4029093B50247
:10286000A093B602B093B70211E013C064E070E029
:10287000C6010E94C4149D818913C8CFF7018181CC
:102880009281A381B48189839A83AB83BC83111124
:10289000DFCF8091B4029091B502A091B602B091C1
:1028A000B702F50180839183A283B383812F25969C
:1028B000EAE00C9438260F931F93CF93DF93EC013B
:1028C0008B0148ED53E10E94A513882331F047E6C0
:1028D00053E1B801CE010E94A513DF91CF911F9162
:1028E0000F9108950F931F93CF93DF93C0910F0221
:1028F000D0911002CE01019624E0FB01DC01019091
:102900000D922A95E1F764E070E00E94C414888378
:102910006D817E818F8198850091B0021091B10206
:102920002091B2023091B3026017710782079307BA
:1029300051F06093B0027093B1028093B202909311
:10294000B3020E949D10DF91CF911F910F910895C6
:102950000E94B3200E94FF0D0E94C02008950E9493
:10296000C5200E94160E0E94E82008950E94751E40
:102970000E9499200E94E70D0E94A8140E94AF14A3
:102980000E94F50DFBCF0895FC01680F791F8FEFB2
:1029900091E36E177F0709F408952191822728E0BB
:1029A00030E087FF06C0880F892721503109C9F719
:1029B000F0CF880FFACFCF93DF93EC01FB01858135
:1029C000882309F4D2C09E0130572332310508F024
:1029D000B2C00E94090D9093790680937806FE019B
:1029E000E150F047E232F10520F4EF53F94D0C9439
:1029F0000E268091780681608093780693C080913E
:102A000079068860809379068DC08091780682600F
:102A1000F3CF809178068460EFCF8091780688604C
:102A2000EBCF809179068160EDCF8091790682604D
:102A3000E9CF809178068061DFCF8091780680624F
:102A4000DBCF809178068064D7CF0E940D078091FC
:102A500078068068D1CF809178068C60CDCF809148
:102A600079068360CFCF809178068E7FC5CF809125
:102A70007906877FC7CF809178068D7FBDCF809103
:102A800078068B7FB9CF80917806877FB5CF80910C
:102A900079068E7FB7CF809179068D7FB3CF8091F5
:102AA00078068F7EA9CF809178068F7DA5CF809103
:102AB00078068F7BA1CF0E940D07809178068F77D3
:102AC0009BCF80917806837F97CF809179068C7F0A
:102AD00099CF8091780682FB992790F921E092277F
:102AE00090FB82F990FB83F987CF80917906982F2C
:102AF000909591708E7F892B90FB81F983CF909177
:102B00007806892F8F7B96FF806476CF0E940D0711
:102B100090917806892F97FB87F980586DCF81E0D7
:102B20000E949F0D80917806909179060E940E0D6B
:102B30000E940D0780E0DF91CF91089580E0F0CFF3
:102B400090917806892F8F7E94FF806155CF909168
:102B50007806892F8E7F90FF81604ECF9091790605
:102B6000892F877F93FF88604DCF81E0E4CFB0E06D
:102B7000A0E0EDEBF5E10C941F26E82FF0E0E15F1B
:102B8000FD4FD490282F26952695269530E0F90103
:102B9000E155FD4F0491877010E0082E02C0159595
:102BA00007950A94E2F701701127F901E156FD4FEC
:102BB000E490F12C082E02C0F594E7940A94E2F711
:102BC00091E0E922FF24F901E157FD4FC491D0E0E3
:102BD00002C0D595C7958A95E2F7C170DD2701152A
:102BE000110519F081EE0E942C04E114F10419F092
:102BF00086EE0E942C048D2D0E94B204E114F10493
:102C000019F086EE0E9470040115110519F081EE8D
:102C10000E947004CD2B19F08CE20E94B204CDB753
:102C2000DEB7E7E00C943B26EF92FF920F931F93E1
:102C3000CF93DF938C01F62E8AE0E82EF801849181
:102C4000882309F454C0813009F04DC0E801219671
:102C5000FE018491813091F42196FE0184910E94BD
:102C6000B2048E010F5F1F4F8F2D815038F3EFE9B3
:102C7000FFE03197F1F700C00000F7CF823039F460
:102C8000E8012296FE0184910E942C04EACF833051
:102C900039F4E8012296FE0184910E947004E1CF8C
:102CA0008430F9F6E8012296FE01249190E080E05C
:102CB000FE0131962053330B2A30310548F001973D
:102CC00080F2EFE9FFE03197F1F700C00000F7CFA5
:102CD000E89EA001E99E500D1124C901840F951FA3
:102CE0002491EF01E5CF0E94B715E801BACFCDB727
:102CF000DEB7E6E00C943C262091C102233090F12F
:102D00009091C402923060F08091C302882321F038
:102D100082E08093C0020895291302C081E0F9CFB8
:102D20008091C202253069F42091C5023091C6021B
:102D30002F3F310579F4913069F48230A1F483E0BA
:102D4000E8CF243039F491110EC0823029F4209359
:102D5000C0020895911107C0833021F48091C3020D
:102D60008130E1F208959091C302892BD9F7D6CF33
:102D70002091C1022F5F2093C1029093C6028093DD
:102D8000C5028230910541F48091C2028F5F809329
:102D9000C2020E947C1608958430910531F480911E
:102DA000C3028F5F8093C302F4CF8F3F910589F7F1
:102DB0008091C4028F5F8093C402EBCF0895089581
:102DC0000895089581E008950F931F93CF93DF93A3
:102DD000EC018B01842F0E94DE160E940D070E94D9
:102DE000850719830883DF91CF911F910F91089573
:102DF000AF92BF92CF92DF92EF92FF921F93CF9349
:102E0000DF93EC016B01142FE0903002F09031025F
:102E10000E940D070E94850787E0180250011124C7
:102E2000CC15DD0591F40E940D07C7010E947E07B5
:102E3000812F0E94DF16DF91CF911F91FF90EF90BD
:102E4000DF90CF90BF90AF900895CE010E94D10641
:102E5000CA0DDB1DE5CF0F931F93CF93DF93EB01DB
:102E6000F801A881B9813581311103C08A179B0708
:102E7000A9F087E02802B0011124CD01861B970B31
:102E80004817590781F087E001900D928A95E1F784
:102E900088819981860F971F99838883DF91CF91CD
:102EA0001F910F910895BF01822F0E94E016F6CF67
:102EB000CF92DF92EF92FF921F93CF93DF936C013B
:102EC000EB01142F7901842F0E94E11689EF18027B
:102ED000A0011124CC15DD0531F0FE01E40FF51F32
:102EE000858181110BC0F701D183C083DF91CF9120
:102EF0001F91FF90EF90DF90CF900895EF01EACF00
:102F00000F931F93CF938B012091490621113FC04E
:102F1000FB01C581CC2331F0C1E08C2FCF911F91F3
:102F20000F9108958435FCE79F07F1F070F4833525
:102F30009C4791F741E067EC72E087E496E00E94DD
:102F4000E41681E080934906E8CF8635ECE79E07DA
:102F5000A1F087359C4701F760913B0170913C01DE
:102F60004FEF80E496E010C04FEF60E476E087E436
:102F700096E00E94E41682E0E5CF60913D017091F9
:102F80003E0141E087EC92E00E94F816C6CFAC010A
:102F900043555C474330510538F531E085359C4752
:102FA00009F430E0F8018581831731F0213031F0E8
:102FB000223081F010924906C0E0AFCF6091470601
:102FC000709148062DE331E041E087EC92E00E94E9
:102FD0005817F0CF60914706709148062BE331E017
:102FE0004FEF80E496E0F3CF0E94E216C82F8823CB
:102FF00009F492CF80914906813069F0823009F05E
:103000008BCF40913D0150913E012FEF67E476E078
:1030100080E496E009C040913B0150913C0121E0E1
:1030200067E476E087EC92E00E942B1776CFCF938F
:10303000DF93EB0186319C4711F50E94D00B9D81F7
:10304000992399F08A7A91E009F490E090934A06E6
:10305000811109C089E20E94A50B0E94380C80E012
:10306000DF91CF91089585E3F6CF80914A068111D3
:1030700004C089E20E94AD0BF0CF85E3FBCF81E075
:10308000EFCFFC018581862351F492819923B9F019
:103090006923818583FF05C081E061110FC080E055
:1030A0000895892F8F7092959F70982B862F8F701F
:1030B00062956F70682B81E09613F1CF089581E0DF
:1030C000FDCFCF93DF93EC016091550670915606CA
:1030D00080915706909158060E94031F643F7140EB
:1030E0008105910518F58091550690915606A0919D
:1030F0005706B09158068093510690935206A093BC
:103100005306B093540684EF91E0A0E0B0E08093C2
:103110004D0690934E06A0934F06B0935006D09361
:103120004C06C0934B06DF91CF9108950E94E81E94
:103130006093510670935206809353069093540601
:1031400082E390E0A0E0B0E0E2CFFF920F931F9304
:10315000CF93DF93F82E00915C0610915D06011568
:10316000110509F44DC010924C0610924B060E94B6
:10317000FC0B0E94F60B00915C0610915D06D801D5
:103180001796CD91DC919E013A9521153F4108F4A7
:10319000D07ED1E0C11101C0D0E0D8011A96ED91E6
:1031A000FC911B97309731F01C966D917C9180E0DB
:1031B0000995D823DD2339F08CEF8C0F813A30F557
:1031C0008C2F0E94AD0BFF2099F0E0915C06F091EE
:1031D0005D06818584FD0CC080915B06882341F0EB
:1031E000808191819C01215031092F333E47A0F00D
:1031F0000E94380C10925D0610925C0610925B06DD
:10320000C801CDB7DEB7E5E00C943D260E94380C2E
:103210008C2F0E947004D7CF0E946118E9CF1092C2
:103220003F0180E00E94A518089580913F01882306
:1032300019F00E940F19089581E080933F010895CD
:103240000F931F9380914B0690914C06892B89F127
:1032500060915106709152068091530690915406E8
:103260000E94031F00914D0610914E0620914F06BB
:10327000309150066017710782079307D0F0809154
:103280004B0690914C060E94BA0210924C06109286
:103290004B0610925106109252061092530610924D
:1032A000540610924D0610924E0610924F06109240
:1032B00050061F910F910895A4E0B0E0E2E6F9E115
:1032C0000C9414268C017A836983DB0115965C903B
:1032D0005520B1F08E35BCE79B0759F08F35ECE7F0
:1032E0009E0759F08D359C4759F40E941519312CD1
:1032F0000DC081E080933F01FACF0E940F19F7CFF4
:1033000030903F01311007C033243394832D24962D
:10331000E2E10C943026680120EEC21AD1080E9426
:10332000D00BF82E0E94BC0B482E0E94FF0B482A9F
:103330004F2838E0C316D10408F094C098012770D4
:10334000332781E090E001C0880F2A95EAF75520E5
:1033500009F485C0482AA981BA818D919C910E9467
:10336000660880900001909001018114910409F495
:10337000E1C021E030E0F90102C0EE0FFF1F8A95A5
:10338000E2F7FA83E98360905C0670905D06A09096
:103390005906B0905A06212CE22DF0E0EE0FFF1FE7
:1033A000E80DF91D208131813C832B8321153105E6
:1033B00009F4C0C0411005C0D90112968C91811149
:1033C0008BC0EB81FC818381948129813A818223A6
:1033D0009323892B09F480C08185982F977009F475
:1033E00087E038E0C316D10408F056C0552009F430
:1033F0004FC086958170882309F46EC0AB81BC8173
:10340000ED90FC900E151F0519F4552009F464C0C9
:10341000EB81FC81E615F70509F45EC00684F785AB
:10342000E02D309721F08081882309F455C0642D68
:103430008B819C810E944118882309F44DC00E1590
:103440001F0509F08BC00115110509F48CC051103E
:103450008CC0EA14FB0409F03FC0512C86C0809553
:10346000482279CF552009F44EC010935A06009394
:1034700059060E94E81E6093550670935606809385
:1034800057069093580610924C0610924B0663CF45
:1034900082FB882780F9AFCF5520F1F08170ABCF48
:1034A0000E94700483C00497813A910548F4802FEC
:1034B0000E94A50B552009F427CF0E94380C17CF86
:1034C0000E94380C8FE39CE90197F1F700C00000DF
:1034D000802F0E942C04EECF23945ECFFC0120812C
:1034E00031812017310731F4511007C010925B066B
:1034F00080E031C0552009F407CFDC0119968C918A
:1035000085FD02CFF5CF8091590690915A0680171C
:10351000910781F410925A0610925906109255069E
:1035200010925606109257061092580610924C06AA
:1035300010924B0680915C0690915D06009709F40D
:10354000E3CEA8E0CA16D10448F6642D0E944118C3
:103550008111DACE81E00E94A518D8CEE114F104E1
:1035600009F077CF512CF12CE12C80E00E94A518B6
:10357000EB81FC81F0935D06E0935C0681E0809333
:103580005B0686810E94F90B511010C0E114F10412
:1035900069F0AB81BC818D919C919C0124503109D3
:1035A000213A310508F07CCF0E94AD0BEB81FC8104
:1035B00007811085C8019A9581159F4108F4107EF6
:1035C000FF24F394C80101978F339E4708F0F12C34
:1035D000AB81BC811A96ED91FC911B97309731F02D
:1035E0001C966D917C9181E00995F822FF2081F075
:1035F000EB81FC81878190850E947F020E94F30B02
:10360000C801F8E0CF16D10408F04DCF0E94611830
:103610000E94380C4FCF0F931F93CF93DF93C42F8B
:10362000D22FFC0185818823C9F0409360060E9457
:10363000DC1E90935F0680935E0680E28C0F8830DC
:1036400040F4C77081E001C0880FCA95EAF70E9474
:10365000BB04DF91CF911F910F91089510916006E7
:10366000141332C080915E0690915F060E94F41E92
:10367000883C910548F5C0E2CD0F1D17B9F080E2F6
:10368000810F883040F4177081E001C0880F1A95CF
:10369000EAF70E94C204C83048F481E09D2F977079
:1036A00001C0880F9A95EAF70E94BB04802F0E9400
:1036B000B204C83070F6D77081E001C0880FDA9587
:1036C000EAF70E94C204C5CF80E28C0F883008F66A
:1036D000C77081E001C0880FCA95EAF7F2CF0F9357
:1036E000DB0188519C4787309105A0F5FC01ED5125
:1036F000F94D0C940E2606E221EE41EE6AE17CE7DC
:10370000CD010E940B1B80E00F91089507E225EE8A
:1037100045EE6BE17CE7F4CF06E221EE40EE68E196
:103720007CE7EECF07E225EE44EE69E17CE7E8CFE7
:1037300006E221EE42EE6CE17CE7E2CF07E225EE05
:1037400046EE6DE17CE7DCCF08E221E045EE6EE17C
:103750007CE7D6CF15968C91882319F010926006DD
:10376000D3CF81E0D1CF8EE14A9B02C08150E1F7F7
:103770004A9BFECF08955A9880E28A95F1F75A9AAB
:103780000895FC013BE03A95F1F798E020E080E0F5
:1037900031E040E14A95F1F7880F4A9B02C0816011
:1037A000232742E04A95F1F7000040E14A95F1F7FE
:1037B000915079F790E19A95F1F799B132E03A9505
:1037C000F1F7000040E14A95F1F792FB992790F953
:1037D00092272081920F90830895A1E0B0E0E3EF5B
:1037E000FBE10C94202619828C017C01E60EF11C71
:1037F0000E151F0541F481E09981911180E0219619
:10380000E6E00C943C260E94B31BCE0101960E9478
:10381000C11BF80181938F01EBCF529A5A9A0895F8
:1038200052985A9AEA9AE9E6F0E080818F7C808388
:1038300008956150770B91E001C0990F6A95EAF7FE
:1038400020E031E0911108C0222391F05A9A80E2E1
:103850008A95F1F75A980895492F482339F05A9AD2
:10386000232740E24A95F1F79695ECCF5A98F9CF85
:103870005A98EDCFFF920F931F93CF93DF93EC01F4
:103880008C01060F111DC017D10729F4CDB7DEB783
:10389000E5E00C943D26F9900E94BB1B68E08F2D5B
:1038A0000E94191CF0CF1F920F920FB60F92112495
:1038B0000F931F932F933F934F935F936F937F9338
:1038C0008F939F93AF93BF93EF93FF93CF93DF9328
:1038D0000F92CDB7DEB719820E94B31BCE010196BD
:1038E0000E94C11B082F069506950695282F229544
:1038F0002570902F9570290F922F937026952695FD
:10390000920F982797708981982B09F05CC004303A
:1039100008F059C080E18A95F1F75A9A529A82E0EC
:103920008A95F1F700C05A9888E0089F8001112419
:10393000D801AD5DBE4F1696ED91FC91179730976B
:10394000A9F060910F027091100214962D913C9194
:103950001597260F371F11968D919C911297680F1E
:10396000791F13964C9113978C910995F801ED5D91
:10397000FE4F6381662351F020910F0230911002B7
:1039800084819581820F931F0E943A1C0E94BB1B69
:1039900080E18A95F1F75A9852985A9A80E18A956F
:1039A000F1F7F801ED5DFE4F6081662351F0209143
:1039B0000F023091100281819281820F931F0E9429
:1039C000ED1B0E94B31B0F90DF91CF91FF91EF9100
:1039D000BF91AF919F918F917F916F915F914F9127
:1039E0003F912F911F910F910F900FBE0F901F903D
:1039F00018950F931F93CF93DF93EC0104970CF06E
:103A00004CC0F894529A5A9885E08A95F1F70000D4
:103A10009C2F969595708C2F8570980F892F8370A9
:103A20009695969523E0CC0FDD1F2A95E1F7980F28
:103A30008E01092B0E94BB1B00C068E0802F0E94F2
:103A4000191C80E18A95F1F752985A9A4A9B1EC038
:103A500087E090E04A991CC0FE01ED5DFE4F638156
:103A60006623F9F020910F02309110028481958134
:103A7000820F931F0E94ED1B811113C0529A5A9A14
:103A80007894DF91CF911F910F91089500C0DECF00
:103A9000019729F4529A5A9A789480E0F2CF00C0A4
:103AA000D9CF0E94B31B80E28A95F1F75A98529AB7
:103AB00080E18A95F1F7CD5DDE4F6881662351F094
:103AC00020910F023091100289819A81820F931FF9
:103AD0000E943A1C0E94BB1B789481E0D2CF909345
:103AE00013028093120208959093670680936606EE
:103AF00008950E949912811103C080916106089572
:103B0000E0916606F0916706309729F00190F08108
:103B1000E02D0995089580E00895E0916606F09102
:103B20006706309721F00280F381E02D0995089512
:103B3000A3E0B0E0EEE9FDE10C94242620916406B8
:103B40003091650628173907A1F090936506809398
:103B50006406E0916606F0916706309751F023E025
:103B600029839B838A830680F781E02DCE0101960D
:103B700009952396E2E00C944026A3E0B0E0E3EC44
:103B8000FDE10C94242620916206309163062817EB
:103B90003907A1F09093630680936206E091660670
:103BA000F0916706309751F024E029839B838A8344
:103BB0000680F781E02DCE01019609952396E2E07B
:103BC0000C9440269C012E5F3F4FAC01485F5F4F35
:103BD00080E02417350709F40895F90191919F01B8
:103BE0009923B9F38F5FF5CF662349F0FC01329634
:103BF00008962191261729F0E817F907D1F780E0F8
:103C0000089581E008959C01FC0132969FEF80E0C9
:103C10004191461751F09F3F19F4411101C0982F6F
:103C20008F5F8630A9F79F3F09F40895290F311D52
:103C300097FD3A95F90162830895FC013296089642
:103C40002191261303C0DF0111971C92E817F90791
:103C5000B9F708950E94031E08950E941D1E08953D
:103C6000029626E0FC0111922A95E9F7089508953D
:103C70000E94371E0895811106C081E08093680676
:103C80000E94381E089582E0F9CF83E08093680691
:103C90000E94381E08950E943B1E089581E0809383
:103CA00068060E94381E08950E944E1E08950895C9
:103CB00008950E94581E0895089508950E94571E61
:103CC0000895CF930E945C1E0E941A120E945D1EEE
:103CD000C0E08C2F0E94FC10811105C0CF5FC8305E
:103CE000C1F7CF91089581E0FCCF85B7806885BF8B
:103CF00085B7806885BF08951F921FB61F92112453
:103D00008F939F93AF93BF9380916906811113C0E6
:103D100080918C0690918D06A0918E06B0918F06B1
:103D20004196A11DB11D80938C0690938D06A093A2
:103D30008E06B0938F06BF91AF919F918F911F9088
:103D40001FBE1F90189580919406843031F10E9417
:103D5000AA031092690688E190E020E40FB6F89477
:103D6000A895809360000FBE2093600083B7817F89
:103D7000846083BF83B7816083BF7894889583B75D
:103D80008E7F83BF0FB6F894A895809160008861FC
:103D900080936000109260000FBE08950E940D078E
:103DA0000E94AF03089582E084BD93E095BD9AEF31
:103DB00097BD80936E0008952FB7F89480918C067C
:103DC00090918D06A0918E06B0918F062FBF089519
:103DD0002FB7F89460918C0670918D0680918E06B5
:103DE00090918F062FBF08959C014FB7F894809152
:103DF0008C0690918D06A0918E06B0918F064FBFD4
:103E0000821B930B0895CF92DF92EF92FF922FB710
:103E1000F894C0908C06D0908D06E0908E06F090BD
:103E20008F062FBFA7019601261B370B480B590B96
:103E3000CA01B901FF90EF90DF90CF900895789478
:103E40001F921FB61F9211248F939F93AF93BF931E
:103E500080918C0690918D06A0918E06B0918F0670
:103E60000196A11DB11D80938C0690938D06A093A1
:103E70008E06B0938F06BF91AF919F918F911F9047
:103E80001FBE1F90189587E797E7909301088093CE
:103E9000000888E19AE00FB6F894A8958093600036
:103EA0000FBE90936000FFCF88E19AE00FB6F894C0
:103EB000A895809360000FBE90936000FFCF809123
:103EC0007206089508959B01BA019091940694306A
:103ED000E9F48F708093E9009FEF8091E8009150A2
:103EE00085FD06C085ED8A95F1F700009111F5CFAB
:103EF0008091E80085FF0AC050E040E0C9010E94BF
:103F00007C218091E8008E778093E800089543E05B
:103F100050E0BC0182E00E94631F0895CF93DF93BD
:103F2000EC0148E050E0BC0181E00E94631F88E0A2
:103F3000FE01AAE6B6E001900D928A95E1F7DF91C5
:103F4000CF91089580919306811109C00E940C239E
:103F50000E9469238091E20084608093E2000895CA
:103F60001092930608950E944E1E08956091900647
:103F700081E0611101C080E00E94451E089590918A
:103F8000940681E0943009F080E0609190060E94F0
:103F90004B1E089542E061EC81E00E94882242E2DB
:103FA00061EC82E00E9488229091940681E0943036
:103FB00009F080E0609190060E943B1E0895809178
:103FC0009606833009F461C030F48130D1F182303B
:103FD00009F49EC008958A3009F48AC08B3009F430
:103FE0006FC0893009F050C080919506813209F088
:103FF0004BC08091990690919A06029708F044C0B0
:104000008091E800877F8093E8008091E80082FF3C
:1040100037C09091F3008091F200029731F48091C3
:10402000F100813011F0863021F48091F10080930D
:1040300072068091E8008B778093E8000E94BC2292
:1040400023C080919506813AF9F48091E800877F3A
:104050008093E8008091990690919A06892B61F4EB
:1040600068E08AE696E070E00E94CB218091E8004B
:104070008B778093E800089560E090E080E0F3CFD4
:10408000809194068111C1CF089580919506813A5F
:10409000D9F78091990690919A06892BA9F780917A
:1040A000E800877F8093E8008091E80080FFFCCFE4
:1040B000809148018093F1008091E8008E77BCCF19
:1040C00080919506813201F78091990690919A0628
:1040D000892BD1F68091E800877F8093E8000E94C9
:1040E000BC2280919706809348010E940D07089595
:1040F00080919506813241F68091E800877F809318
:10410000E8000E94BC22809198068093730608956F
:1041100080919506813A09F0B7CF8091E800877FBA
:104120008093E8008091E80080FFFCCF80917306C7
:10413000C1CF84B7877F84BF0FB6F894A8958091CC
:104140006000886180936000109260000FBE80E87C
:1041500090E00FB6F89480936100909361000FBED9
:104160000E94541E08950E940C230E946923E2EECF
:10417000F0E080818460808378940E94E82508952F
:1041800080E491E00E94741D08958091940685302A
:1041900031F480919406853019F00E94CE1E089566
:1041A0000E94A31E80919206882399F30E94611EAB
:1041B000882379F30E9466210E940D072FEF83EC7C
:1041C00099E0215080409040E1F700C00000E1CF2D
:1041D00008959A0140919B0650919C060E94F120FF
:1041E0000895EF92FF920F931F93CF93DF9379017E
:1041F000292F33272330310551F198F4C2E1D0E063
:1042000006E313E02130310589F1CBE3D0E00BEF79
:1042100012E02230310551F1D0E0C0E010E000E0C2
:1042200025C02132310509F442C022323105A1F7FF
:10423000C0E4D0E00AE713E061157105B9F0C2E30C
:10424000D0E008E413E06130710581F0E5CF9927F3
:1042500081309105E1F0009791F0029701F1D0E0F3
:10426000C0E010E000E0CA010E94B816F701118317
:104270000083CE01CDB7DEB7E6E00C943C26E7EF35
:10428000F2E0E491CE2FD0E007EF12E0ECCFE3EDC7
:10429000F2E0E491CE2FD0E003ED12E0E4CFEFEBBB
:1042A000F2E0E491CE2FD0E00FEB12E0DCCFC9E0DA
:1042B000D0E00DE013E061157105C1F2C9E0D0E076
:1042C00006E213E06130710589F2A6CF80E189BD75
:1042D00082E189BD09B400FEFDCF8091D8008F7DB9
:1042E0008093D8008091E00082608093E00080910C
:1042F000E00081FDFCCF0895AF92BF92CF92DF9294
:10430000FF920F931F93CF93DF936C01EB018A0110
:104310000E94DB22F82E811123C00115110539F00E
:10432000F80180819181C81BD90BC80ED91EB12C10
:10433000A12C2097A9F08091E80085FD22C08091F2
:10434000E8008E778093E80001151105A1F0F801CF
:1043500080819181A80EB91EB182A08285E0F82EDD
:104360008F2DDF91CF911F910F91FF90DF90CF9014
:10437000BF90AF9008950E94DB228823D1F2F82EDF
:10438000EFCFF60181916F018093F1002197FFEF4C
:10439000AF1ABF0ACECFFC0180919B0690919C067C
:1043A00086179707A0F06115710529F49091E80030
:1043B0009E779093E80090E06115710551F491119A
:1043C00008C08091E80082FF34C080E00895BC01FD
:1043D000F2CF809194068823C1F18530C1F180919C
:1043E000E80083FD30C08091E80082FDEACF809133
:1043F000E80080FFE1CF8091F3002091F200382F98
:104400006115710519F02830310558F091E0283018
:10441000310509F090E02091E8002E772093E80024
:10442000CBCF81918093F100615071092F5F3F4F95
:10443000E7CF80919406882341F0853041F0809148
:10444000E80083FFBECF81E0089582E0089583E015
:104450000895FC0180919B0690919C068617970712
:10446000A0F06115710529F48091E8008E778093A2
:10447000E80090E06115710551F4911108C0809138
:10448000E80082FF35C080E00895BC01F2CF809142
:1044900094068823C9F18530C9F18091E80083FD35
:1044A00031C08091E80082FDEACF8091E80080FF72
:1044B000E1CF8091F3002091F200382F6115710552
:1044C00019F02830310558F091E02830310509F015
:1044D00090E08091E8008E778093E800CBCF8491C4
:1044E0008093F1003196615071092F5F3F4FE6CF05
:1044F00080919406882341F0853041F08091E80056
:1045000083FFBDCF81E0089582E0089583E00895A0
:10451000982F973028F08F708093E90081E00895FC
:104520009093E900242F762F50E0981731F0709186
:10453000EC002091ED005091F00021FD02C09F5F42
:10454000E8CF3091EB003E7F3093EB003091ED00EF
:104550003D7F3093ED003091EB0031603093EB0004
:104560007093EC002093ED005093F0002091EE004A
:1045700027FDE5CF80E008958091950687FF13C061
:104580008091E80082FF06C08091E8008B778093DD
:10459000E80004C0809194068111F2CF08958091C3
:1045A00094068823D9F38091E80080FFF8CF8091AA
:1045B000E8008E77ECCF2091E4003091E50095E69D
:1045C000A9012091EC00822F817020FF06C080910C
:1045D000E80080FF06C080E008952091E80022FDF9
:1045E0001AC080919406882389F0853089F08091E3
:1045F000EB0085FD0FC02091E4003091E5004217EB
:104600005307F9F29150E1F684E0089582E00895AD
:1046100083E0089581E008950E947B230E94832314
:10462000E0EEF0E0808181608083E8EDF0E0808161
:104630008F77808319BCA7EDB0E08C918E7F8C932F
:1046400080818F7E80831092930608950F931F932D
:10465000CF93DF930E947B230E948323C8EDD0E099
:1046600088818F77888388818068888388818F7D1F
:10467000888319BC109294061092900610929206AC
:104680001092910600EE10E0F80180818B7F80830C
:1046900088818160888342E060E080E00E94882217
:1046A000E1EEF0E080818E7F8083E2EEF0E08081B9
:1046B00081608083808188608083F80180818E7F23
:1046C0008083888180618883DF91CF911F910F91D2
:1046D0000895E8EDF0E080818F7E8083E7EDF0E0E3
:1046E00080818160808384E082BF81E08093930633
:1046F0000E9426230895E8EDF0E080818E7F80837C
:104700001092E20008951092DA001092E1000895EC
:104710001F920F920FB60F9211242F933F934F9336
:104720005F936F937F938F939F93AF93BF93EF9319
:10473000FF938091E10082FF0BC08091E20082FF35
:1047400007C08091E1008B7F8093E1000E94E72504
:104750008091DA0080FF19C08091D80080FF15C0D9
:104760008091DA008E7F8093DA008091D90080FFFB
:1047700096C080E189BD82E189BD09B400FEFDCF0C
:1047800081E0809394060E94A21F8091E10080FF47
:1047900019C08091E20080FF15C08091E2008E7FF9
:1047A0008093E2008091E20080618093E20080913A
:1047B000D80080628093D80019BC85E0809394066D
:1047C0000E94B61F8091E10084FF2BC08091E2001F
:1047D00084FF27C080E189BD82E189BD89B5982F1A
:1047E000917080FFFBCF8091D8008F7D8093D8009F
:1047F0008091E1008F7E8093E1008091E2008F7EC6
:104800008093E2008091E20081608093E2008091D9
:104810009006882309F449C084E0809394060E949E
:10482000BF1F8091E10083FF29C08091E20083FFD8
:1048300025C08091E100877F8093E10082E0809332
:104840009406109290068091E1008E7F8093E100A3
:104850008091E2008E7F8093E2008091E20080618F
:104860008093E20042E060E080E00E948822809134
:10487000F00088608093F0000E94B31FFF91EF91D9
:10488000BF91AF919F918F917F916F915F914F9168
:104890003F912F910F900FBE0F901F90189519BC4C
:1048A000109294060E94B01F70CF8091E30087FDA4
:1048B00093E090939406B3CF1F920F920FB60F928E
:1048C00011242F933F934F935F936F937F938F9315
:1048D0009F93AF93BF93CF93DF93EF93FF93D091C9
:1048E000E900DF708091EC00C82FC17080FDC0E846
:1048F0001092E9008091F000877F8093F000789417
:104900000E94A0241092E9008091F00088608093BA
:10491000F000CD2BCF70C093E900FF91EF91DF91B4
:10492000CF91BF91AF919F918F917F916F915F9147
:104930004F913F912F910F900FBE0F901F901895A0
:10494000AAE2B0E0E6EAF4E20C94232685E996E0D8
:104950002091F100FC012193CF01F6E08D399F07F2
:10496000B9F70E94DF1F8091E80083FF1EC180918C
:104970009506909196069A3008F017C1E92FF0E05D
:10498000E651F94D0C940E26803899F0823809F0E2
:104990000CC1809199068F70873008F006C1809312
:1049A000E9008091EB0085FB882780F91092E900EF
:1049B00006C080919106909192069111826090912B
:1049C000E800977F9093E8008093F1001092F10047
:1049D0008091E8008E77E5C0882309F4D3C0823047
:1049E00009F0E3C0809197068111D6C080919906A5
:1049F0008F702FEF280F263008F0D7C08093E90082
:104A00002091EB0020FFC8C0933031F48091EB007F
:104A100080628093EB00C0C09091EB009061909316
:104A2000EB0021E030E001C0220F8A95EAF72093E5
:104A3000EA001092EA008091EB008860EACF8111D1
:104A4000B4C0109197061F778091E3008078812B86
:104A50008093E3008091E800877F8093E8000E94C4
:104A6000BC228091E80080FFFCCF8091E300806849
:104A70008093E30082E0111183E08093940695C057
:104A80008058823008F091C08091970690919806E6
:104A90008C3D23E09207A1F583E08A838AE2898333
:104AA0004FB7F894DE01139620E03EE051E2E32F89
:104AB000F0E050935700E49120FF03C0E295EF70BF
:104AC0003F5FEF708E2F90E0EA30C0F0C7968D9375
:104AD0009D932F5F243159F74FBF8091E800877F66
:104AE0008093E8006AE270E0CE0101960E94CB213B
:104AF0008091E8008B778093E80057C0C096E7CF9D
:104B00006091990670919A06AE014F5F5F4F0E94C7
:104B1000E920BC01892B09F448C09091E800977FF7
:104B20009093E80089819A810E942922E1CF803800
:104B3000E1F58091E800877F8093E80080919006FE
:104B40008093F10045CF811130C09091970692304B
:104B500060F58091E800877F8093E800909390064D
:104B60000E94BC2280919006882311F084E005C049
:104B70008091E30087FDFACF81E0809394060E9444
:104B8000CA1F13C080919706813079F481E0933079
:104B900009F080E0809392061092E9008091E8008D
:104BA000877F8093E8000E94BC228091E80083FF09
:104BB0000AC08091E800877F8093E8008091EB0035
:104BC00080628093EB00AA96E3E00C943F26089560
:104BD000CF93809194068823A1F0C091E900CF7013
:104BE0009091EC00892F817090FD80E8C82B109285
:104BF000E9008091E80083FD0E94A024CF70C0935B
:104C0000E900CF9108950E940C2310929406089514
:104C10008091E300881F8827881F0895EE0FFF1FEB
:104C20000590F491E02D09942F923F924F925F925C
:104C30006F927F928F929F92AF92BF92CF92DF92AC
:104C4000EF92FF920F931F93CF93DF93CDB7DEB711
:104C5000CA1BDB0B0FB6F894DEBF0FBECDBF0994A5
:104C60002A88398848885F846E847D848C849B84FC
:104C7000AA84B984C884DF80EE80FD800C811B810A
:104C8000AA81B981CE0FD11D0FB6F894DEBF0FBE39
:104C9000CDBFED010895FB01DC0104C08D910190B1
:104CA000801921F441505040C8F7881B990B089592
:104CB000FB01DC0102C001900D9241505040D8F739
:104CC0000895F999FECF92BD81BDF89A992780B5D4
:104CD0000895A8E1B0E042E050E00C94A526DC0184
:104CE000A40FB51F4150504048F0CB01840F951FD1
:104CF0002E910E94802641505040D0F70895262FD3
:104D0000F999FECF92BD81BDF89A019700B40216C1
:104D100039F01FBA20BD0FB6F894FA9AF99A0FBE6F
:104D200008950396272F0E9480260E947F26252F14
:104D30000E948026242F0C9480260196272F0E9403
:104D400080260C947F26DC01CB01FC01F999FECF73
:104D500006C0F2BDE1BDF89A319600B40D92415003
:104D60005040B8F70895F894FFCF08050805580596
:104D70005805BD05370537053705D9054A065906D3
:104D800059063315A7153B15051509153F150D15C2
:104D900043154F151915A0151D1553152115571538
:104DA0007F1525155B1586152B15611569151115D0
:104DB000471515154B152F15651575158F159E156E
:104DC000FF143715AE158C1B921B7B1B861B981B83
:104DD0009E1BA41BC424EC24D525EC24D5251F251B
:084DE0004025D5259725A325E8
:104DE80002018D017D016D015D0100008002329498
:104DF800F691F4C63390F59336973166F73435FF5C
:104E0800FFFF010000000100000000000000040195
:104E180000000004050000000000004006C7020171
:104E28005F1F8E1F621F871F01F491F6943293F55E
:104E38009033C6F7663197363534FFFFFF100222EC
:104E4800FFFF0022380007000000000000360222A1
:104E5800FFFF0022370007000000000000100022BA
:104E6800FFFF00223600070000000000002100229A
:104E7800FFFF0022200007000000000000E200E918
:104E880000EA00B500B600B700CD008301CC008A67
:104E980001920194012102230224022502260227FD
:104EA800022A02B300B4006F0070009F01CB019F7B
:104EB80002A002818283E200E900EA00B500B600A0
:104EC800B700CD008301CC008A0192019401210230
:104ED800230224022502260227022A02B300B40074
:104EE8006F0070009F01CB019F02A002818283A7FF
:024EF8000200B6
:00000001FF
