:100000000C94EF010C940C020C940C020C94131C35
:100010000C940C020C940C020C940C020C940C0228
:100020000C940C020C940C020C942B230C94FF23C4
:100030000C943C1E0C940C020C940C020C940C02BC
:100040000C940C020C940C020C940C020C940C02F8
:100050000C940C020C94DF1E0C940C020C940C02F9
:100060000C940C020C940C020C940C020C940C02D8
:100070000C940C020C940C020C940C020C940C02C8
:100080000C940C020C940C020C940C020C940C02B8
:100090000C940C020C940C020C940C020C940C02A8
:1000A0000C940C020C940C020C940C020102E20160
:1000B00001350103E201010E000102E201010E011E
:1000C00003E201010E000102E20101350103E20138
:1000D000010C000102E20101350103E2010104000B
:1000E0000102E201016201015901015F01015E01AA
:1000F00003E20014001A000800150017000400169F
:1001000000070009000A001D001B2806241921050C
:10011000002B412A220000000000001C0018000CE7
:1001200000120034000B000D000E000F0033001110
:100130000010003600370038022C4228430000002F
:100140000000001F0220020F040C042202360237B6
:1001500002260227022402417E427E0604437E4498
:100160007E00004C0000000000000031002E002D39
:10017000002E02350031022F0230022F00300035F0
:10018000022D02380025022C0900002C0800000076
:10019000000000537C547C567C577C557C2900AC75
:1001A00000AE00AB00220AB00CE300E200E4000065
:1001B000000000E100000000000000A9005001451F
:1001C0007E467E4F01AA005000510052004F00A809
:1001D0000050044A004D004F0400000000000000E1
:1001E0000000003A003B003C003D003E003F004064
:1001F0000041004200430044004500680069006A75
:10020000002C08000000000000000000001E001F7D
:10021000002000210227002100220023001F0625C4
:100220000624002500260000000000000000000059
:1002300000000000000000000000002A2B28000041
:100240000000000000000000000000000000290085
:100250000000002C1E3420212224342627252E368F
:100260002D3738271E1F20212223242526333336FD
:100270002E37381F0405060708090A0B0C0D0E0F50
:10028000101112131415161718191A1B1C1D2F31D3
:1002900030232D350405060708090A0B0C0D0E0F37
:1002A000101112131415161718191A1B1C1D2F31B3
:1002B00030354C000000000000000000000000008D
:1002C000000000000000000000000000000000002E
:1002D000000000000000007E0F00D4FFFFFFC700F9
:1002E00000007812034B006100680062006F00613B
:1002F00000720064000000220341006E0074006F71
:100300000069006E0065004B00610068006C006FC2
:10031000007500630068006500000004030904091B
:10032000023B00020100A0FA0904000001030101E0
:100330000009211101000122400007058103080086
:10034000010904010001030000000921110100015D
:100350002232000705820320000112010002000082
:1003600000080000000000010102000105010980F1
:10037000A101850319012AB700150126B7009501CF
:1003800075108100C0050C0901A101850419012A1D
:10039000A002150126A002950175108100C005017B
:1003A0000906A101050719E029E7150025019508AF
:1003B000750181029501750881010507190029FF62
:1003C000150026FF0095067508810005081901290A
:1003D00005950575019102950175039101C01124E0
:1003E0001FBECFEFDAE0DEBFCDBF12E0A0E0B1E08C
:1003F000ECE3FDE402C005900D92A030B107D9F7FF
:1004000026E0A0E0B2E001C01D92A438B207E1F7F7
:100410000E94D8140C9456260C94000080549E47D9
:100420008730910588F4FC01E85AF94DDB011596F7
:100430009C910C94B125992339F00E942F0760E01C
:1004400080EE90E00E94361681E008959923E1F352
:100450000E942F0760E083ED90E0F4CF9923A1F391
:100460000E942F0760E086EC90E0ECCF992361F3C7
:100470000E942F0760E089EB90E0E4CF992321F3FD
:100480000E942F0760E08CEA90E0DCCF992371F0A6
:1004900080910302811106C081E08093030283EE04
:1004A0000E944E048BE20E944E04CECF8BE20E944B
:1004B0009204CACF9923D1F3809102028111F2CF25
:1004C00081E08093020280EEEBCF809103028823CB
:1004D00051F082E00E94C007811105C083EE0E94A6
:1004E00092041092030280910202882351F082E06C
:1004F0000E94C007811105C080EE0E9492041092F4
:10050000020208958430B8F46830A8F4453098F4B5
:1005100050E095E0699F400D511D1124FA0198E2C9
:10052000899FE00DF11D1124EE0FFF1FED50FF4FCD
:1005300085919491089581E090E008950E9482024F
:1005400008959C013A9521153F4150F5FC01EE2795
:10055000F170BC0166277270AC01442754709C0195
:100560002227387094FF0EC080E1EF2B09F480E061
:10057000672B09F08062452B09F08064232B89F0FA
:100580008068089581E0EF2B09F480E0672B09F083
:100590008260452B09F08460232B19F08860089550
:1005A00080E00895CF93DF93EB010E94A102FE014A
:1005B0000995DF91CF910895CF93DF93EC01805E91
:1005C0009109089720F066E177E0209711F46DED2E
:1005D00074E0CE010E94D2028C2F0E944E04DF9163
:1005E000CF91089581E008950E94F202089581E07C
:1005F00008950E940E02089508950E94FC02089535
:10060000A6E0B0E0E6E0F3E00C94C62549835A8307
:100610009E833091090289819A8131111AC03E81ED
:10062000332399F0222389F00E949A08182F682F0B
:1006300089819A810E94760869817A81812F0E943E
:10064000C00F2696E3E00C94E2250E948808182F3C
:10065000F3CF0E949A0869817A81F1CFFC01262F9D
:100660004081518162817381848195810E94000360
:100670000895CF93DF93EC0161E00E942E03BE0149
:100680000E94F402DF91CF910895CF93DF93EC01A4
:1006900060E00E942E03BE010E94FD02DF91CF9117
:1006A000089508950E942F070E9451032FEF84E3BD
:1006B0009CE0215080409040E1F700C00000089588
:1006C0000E9452030E94031F08950E9452030E9439
:1006D000141F08950F931F93CF93DF938C0161E054
:1006E0000E942E03EC01B8010E944017811106C040
:1006F00080E0DF91CF911F910F910895B801CE0155
:100700000E94F9028823A1F3B801CE010E941C19AE
:10071000882371F3B801CE010E942F1B882341F377
:10072000B801CE010E94FD14882311F3B801CE0157
:100730000E94D7178823E1F2F8018581882361F0B0
:10074000C330FCE7DF07E9F058F4C115ECE7DE073A
:10075000A9F0C130DC47B9F0C8010E94F702C9CF47
:10076000CB358CE7D807A9F0CC35ECE7DE0771F084
:10077000CA35DC4789F70E94070DEECF0E9460035F
:10078000B7CF0E940F0D0E946503B2CF0E94FD0CEF
:10079000E3CF0E940B0DE0CF0E94191E0E94F303CD
:1007A00008950E94F7030E941E1E0895089581E097
:1007B00008950895CF93DF93D82F0E94D703C82FB1
:1007C000882319F08D2F0E94D9038C2FDF91CF91B0
:1007D00008950895CF93C82F0E94D6038C2F0E94AE
:1007E000DA03CF91089580E00E94EA0308950E9401
:1007F000391D0E94EA030895CF930E94391DC82F26
:10080000809104028C1779F0C09304020E94A81E04
:10081000609305027093060280930702909308028A
:100820008C2F0E94EA03CF910895ADE0B0E0EBE198
:10083000F4E00C94C725488759876A877B878C87A3
:100840009D8791110E94120C1F8286E0FE0138964E
:10085000DE01119601900D928A95E1F78D8181114B
:100860000DC029813A814B815C816D817E818F81B0
:100870000E94420B2D96E2E00C94E325CE010196F6
:100880000E9439038111EDCFF5CFFC012481213085
:1008900021F4808191810E94CC080895CF93C82FC4
:1008A0008823B9F08CEF8C0F813AA8F46C2F8091DB
:1008B0000A0190910B010E94B41D882329F08C2F0E
:1008C0000E94CF0B0E945A0C8C2F0E94C70B0E94D3
:1008D0005A0CCF91089580E28C0F883048F4C7708D
:1008E00081E001C0880FCA95EAF70E94F50BEFCFAF
:1008F000EBE5EC0FE33040F4F0E0EF53FE4F808186
:1009000090E00E94581DE5CFC85ACB3110F7EC2F6C
:10091000F0E0EE0FFF1FE557FE4F808191810E94AE
:100920007D1DD7CF882339F19CEF980F913A28F499
:100930000E94CF0B0E945A0C089590E2980F9830B5
:1009400050F4877091E001C0990F8A95EAF7892FDA
:100950000E94FB0BEFCF9BE5980F933028F490E0BB
:1009600080E00E94581D0895885A8B3120F490E051
:1009700080E00E947D1D08951F93CF93DF93182F71
:10098000EB010E944E04209739F4812F0E949204BB
:10099000DF91CF911F9108958FE99FE00197F1F7C3
:1009A00000C000002197EFCF70E060E0893311F4C0
:1009B00060E570E00E94BC040895882321F00E9445
:1009C000F50B0E945A0C0895882321F00E94FB0B1E
:1009D0000E945A0C0895B0E0A0E0E1EFF4E00C941E
:1009E000C0256C01D62FC72FFC0115810681029509
:1009F0000F700E94EB0BE82E8823E9F0E12E112303
:100A0000D1F08C2F807F803451F080E28D0F8830C0
:100A1000F8F0011104C08C2F807E8032C9F08091E3
:100A2000600682FF15C082E00E94D10C0E94EB0B91
:100A300091E0E82EE926BC2EB2949FE0B922FBE0BB
:100A4000FB15B8F1EB2DF0E0E15AF94D0C94B1250E
:100A5000E12CF1CF0C2F0F70C07F11F00295007FB9
:100A6000112399F0002359F080E28D0F883010F0A7
:100A7000D11107C0802F0E94F50B0E945A0C8D2FB8
:100A80005AC0802F0E94050CF8CF8D2F0E9492042F
:100A9000002379F080E28D0F883010F0D11104C06E
:100AA000802F0E94FB0B03C0802F0E940B0C0E9422
:100AB0005A0CEB2DE850FF0B349720F40E94391D9F
:100AC0000E94EA03EE2089F00E94E70B80FD0DC032
:100AD000F60115820E94E10B0E94D407C6010E9414
:100AE000F3060E94E10B0E94E407CDB7DEB7E9E010
:100AF0000C94DC252C2F2F70F22EC07FC03219F001
:100B0000F29480EFF822DD2341F0D130D1F11123AE
:100B100009F444C00023F1F0B2CF8091600682FD59
:100B200015C0112359F0FF2029F08F2D0E94F50BDD
:100B30000E945A0C80E00E944E04BBCF80E00E94CD
:100B40009204FF2009F4B5CF8F2DABCF112369F0AC
:100B5000011104C08F2D0E94DD04ABCF013009F0DC
:100B6000A8CF8F2D0E94380CA4CF0111A2CF8F2DBA
:100B70000E94E4048F2D0E94440C8F2D0E94280CAB
:100B800098CF112321F0063008F093CFE3CF053042
:100B900008F08FCF8F2D0E94E4048BCF0023D1F378
:100BA000D93349F43FEF87EE93E0315080409040D5
:100BB000E1F700C000008D2F0E9492047ACF8C2FA5
:100BC00086958695837069F0813009F072CF8D2FFC
:100BD0009C2F9370111102C080E090E00E947D1D57
:100BE00068CF8D2F9C2F9370111102C080E090E090
:100BF0000E94581D5ECF8C2F8370A1F5111159CF23
:100C00004D2F429546954770440F440F2D2F2F705E
:100C100030E0042E02C0220F331F0A94E2F790E066
:100C200080E0D4FF09C08FE090E002C0880F991FD8
:100C30004A95E2F780959095C695C695C370822B2C
:100C4000932BC23049F058F4C13019F00E94880744
:100C500030CF0E947F072DCF0E9491072ACF0E949C
:100C60007C0727CF8695112311F08C2F8170882364
:100C700009F41FCF4D2F429546954770440F440FFE
:100C80002D2F2F7030E0042E02C0220F331F0A9444
:100C9000E2F790E080E0D4FF09C08FE090E002C06E
:100CA000880F991F4A95E2F780959095C695C6954D
:100CB000C370822B932BC23049F058F4C13019F025
:100CC0000E940F08F6CE0E940608F3CE0E94180874
:100CD000F0CE0E94A007EDCECF70112329F08C2F0B
:100CE0000E94D4078D2F37CF8D2F0E94E4048C2FC4
:100CF0000E94E407DECED23F41F160F4D03FB9F06C
:100D0000D13F81F0112309F446C00111B8CE8C2FD8
:100D10008F711FC0D33F01F1D43FA1F780916006CE
:100D200082FD24C08C2F8F71112311F312C0112367
:100D300041F0053008F0BDCE8C2F8F710E94F60770
:100D4000B8CE063008F0B5CEF7CF8C2F8F711111C9
:100D5000CFCF0E94D407ADCE112329F08C2F8F71F5
:100D60000E94C807A6CE0E94A707A3CE112349F070
:100D7000CF718C2F0E94D40763E08C2F0E94B30C9C
:100D800098CE81E00E94D10C023008F492CE82E02D
:100D90000E94D10C8ECE002359F0D93309F00BCF2D
:100DA000EFEFF7EE23E0E150F0402040E1F701CF14
:100DB0008C2F8F719DCF0F931F93CF93DF93EC01F7
:100DC000688179818D810E94D7088C010E94210859
:100DD0000E947B07B801CE010E94EB04DF91CF9106
:100DE0001F910F910895CF93DF93EC018C8188239D
:100DF00099F0CE010E946A03811111C00E94EB0B91
:100E0000882351F08D81882339F08091600682FF1C
:100E100003C082E00E94D10CDF91CF910895CE01F2
:100E20000E94DB06CE010E944503F6CF882321F005
:100E30000E94050C0E945A0C089590E080E00E94E8
:100E4000581D90E080E00E947D1D0E94120C0E94BF
:100E50005A0C08950E94D70B0E941D0708950E9406
:100E6000020C0E942A07089592959F70963091F087
:100E700058F4925F9F70923058F4803F19F030F42C
:100E8000883E30F481E008959A5FF4CF843FD1F337
:100E900080E00895883EB0F3813FD1F7F3CFFC01A5
:100EA0002481222339F0808191810E94CC080E9404
:100EB0003407089580E00895A6E0B0E0E2E6F7E0A8
:100EC0000C94C7252696E2E00C94E325A7E0B0E059
:100ED000ECE6F7E00C94C7252796E2E00C94E325B6
:100EE00008950E94700708950E947107909321024F
:100EF00080932002089508950E9474070895209118
:100F0000200230912102822B932B0E9474070895B6
:100F10002091200230912102822393230E947407A2
:100F200008952091200230912102822793270E9468
:100F3000740708950E94700708950E949A07089503
:100F40000E949D0790931F0280931E02089590E0D7
:100F500080E00E94A0070895009729F481E06623AD
:100F600071F080E00CC021E030E002C0220F331F9E
:100F70006A95E2F72823392381E0232B91F3089522
:100F8000682F80911E0290911F020E94AC07089565
:100F900021E030E0A90102C0440F551F8A95E2F715
:100FA000CA010E94A007089521E030E002C0220F8C
:100FB000331F8A95E2F780911E0290911F02822BC7
:100FC000932B0E94A007089521E030E002C0220F79
:100FD000331F8A95E2F72095309580911E029091FB
:100FE0001F02822393230E94A007089521E030E08E
:100FF00002C0220F331F8A95E2F780911E02909162
:101000001F02822793270E94A007089520911E02A5
:1010100030911F02822B932B0E94A00708952091EC
:101020001E0230911F02822393230E94A00708957D
:1010300020911E0230911F02822793270E94A00751
:1010400008950895262F277091E001C0990F2A95E1
:10105000EAF723E0769567952A95E1F7660F771F03
:10106000660F771FFA01E60FF71F50E040E0682F88
:1010700070E08191DF0111979B01042E02C036952B
:1010800027950A94E2F721702195282729232827FC
:101090002C934F5F5F4F4430510559F70895A82FA7
:1010A000A77023E0969587952A95E1F7880F991FF9
:1010B000880F991FFB01E80FF91F50E040E080E026
:1010C000219130E00A2E02C0369527950A94E2F766
:1010D00021703327042E01C0220F0A94EAF7822BD5
:1010E0004F5F5F4F4430510559F70895262F9830D0
:1010F00070F4853060F4682F70E085E0989F600D93
:10110000711D11244AE052E0822F0E9422080895A6
:10111000292F983068F4853058F490E06AE072E046
:1011200035E0239F800D911D11240E944F080895E2
:1011300080E00895B0E0A0E0E0EAF8E00C94C0257B
:101140007C0100911E0210911F028091200290915B
:101150002102082B192BCFE0D0E0CC24C394D12C52
:10116000BC2EC6010C2E02C0880F991F0A94E2F70C
:1011700080239123892B49F4219790F7B12C8B2D53
:10118000CDB7DEB7E9E00C94DC25B7018C2F0E94C7
:10119000CC0F019789F3F3CFCF93DF93EC010E943B
:1011A0009A08BE010E94CC0FDF91CF9108951F9342
:1011B000CF93DF93EB0190910902992339F0CB0192
:1011C0000E94CC08DF91CF911F910895882369F088
:1011D000CB010E949A08182F682FCE010E94760832
:1011E000BE01812F0E94CC0FEDCFCB010E94880859
:1011F000182FF6CF1F93CF93DF93C091220217E0F1
:10120000809123028C1304C0DF91CF911F91089528
:10121000D0E01C9FF0011D9FF00D1124EC5DFD4FEF
:1012200020813181428153816481758186810E9450
:1012300066072196C770E4CF20915C0230915D0271
:1012400040915E0250915F02609160027091610274
:10125000809162020E9466070895CF93DF93809188
:101260006202807F09F04DC080916102882309F4F9
:1012700048C0E091220250912302C0915D02D091BA
:101280005C0260915E0270915F0247E05E17C9F1F7
:101290008E2F90E0E49FF0011124EC5DFD4F24813E
:1012A000222391F1489FF001499FF00D1124DF01A5
:1012B000AC5DBD4F11962C9111972C1325C02C912C
:1012C0002D1322C015962C91159721111DC0129631
:1012D0002D913C91261B370B283C3105A8F48091B9
:1012E00062028F70806180936202E65DFD4F8081B3
:1012F0008F70806180838CE592E00E94F3060E94EB
:10130000FA08DF91CF910895FC013196E770BECFC6
:10131000482F209122029091230257E0291302C006
:1013200080E0089530E0529FF001539FF00D1124AA
:10133000EC5DFD4F8181681306C08081481303C0B6
:1013400085818111EECF2F5F3F4F2770E7CFA4E15A
:10135000B0E0EDEAF9E00C94BD258C0186E0F801DF
:10136000DE011F9601900D928A95E1F7D80114963F
:101370008C9114971596EC9015979CE5A92E92E008
:10138000B92E9091600291111FC08823D1F0EE20F8
:10139000A9F0C8010E944F07F82E882379F087E052
:1013A000F801D50101900D928A95E1F7C5010E94DF
:1013B00045040E942D090E941C093DC0C8010E94DD
:1013C000F306FF24F39437C0F801C080D1808280F7
:1013D0009380F090610220915E0230915F02A4013F
:1013E000421B530BFF2009F4F6C0483C510508F09E
:1013F000A5C0882301F190915D0280916202282F9F
:10140000207F09F067C09D111BC090915C029C1168
:1014100017C0E11059C08F708061809362020E94F2
:101420001C098CE592E00E94F30680916202D801CB
:1014300016968C93F12C8F2D6496ECE00C94D925A4
:10144000E11042C06D2D8C2D0E948809E82E882362
:1014500071F08CE592E00E94F30687E0ECE5F2E0A3
:10146000DF011D928A95E9F70E941C09E3CFCF8620
:10147000D88A8F8598890E94CC08292F22952F70B1
:10148000243058F49F70223088F0992399F0F801A5
:101490009681907F79F4FE2CCECF2A5F2F70223078
:1014A00068F0C8010E94F306EF2CF5CF992311F0E4
:1014B000882389F3805E883070F3F3CF803F58F340
:1014C000815F833070F7E7CF809162028160809303
:1014D0006202B0CF9D1107C090915C029C1103C0C5
:1014E000EE2009F49CC0C8010E944F07882309F42C
:1014F00065CFEE2009F462CF80916202803288F0DD
:1015000020915C0230915D02398728879B868A860C
:10151000909160029C871D868E87CE0108960E945E
:10152000F30687E0F801ACE5B2E001900D928A95F0
:10153000E1F70E942D090E941C0943CF909162029D
:10154000292F207F91F4682D9A8A898AA6017A89A9
:101550009E2D0E945C078CE592E00E94F30687E0D6
:10156000F50111928A95E9F77FCF882309F463CFBB
:1015700080915D028D1111C080915C028C110DC0B3
:10158000E1100BC016969C93C8010E94F30687E0F9
:10159000F50111928A95E9F74ECFC8010E944F07D5
:1015A000882309F40BCFEE2009F408CF8091620262
:1015B000803208F4B6CF20915C0230915D023A830C
:1015C00029839C828B82909160029D831E828F83EF
:1015D000CE010196A4CF483C510508F045C08823B0
:1015E00009F4EFCEFE2CEE2009F4E8CE80915D02E6
:1015F0008D112CC080915C028C1128C080916202F8
:1016000080FD1BC0982F907FC1F016968C93169783
:10161000903F39F0982F907F905F8F70892B1696AE
:101620008C93C8010E94F30687E0F801ACE5B2E0B4
:1016300001900D928A95E1F7BECE87E0F801ACE506
:10164000B2E001900D928A95E1F7F5CEC8010E94B3
:101650004F07811166CF80916202816080936202A0
:10166000C8010E94F306E7CE682D9A8A898AA601EE
:101670007A899E2D0E945C0787E0F50111928A9578
:10168000E9F799CEAEE0B0E0E8E4FBE00C94C625C3
:10169000288739874A875B876C877D878E87CE014D
:1016A00008960E94A7098823B1F06C85662341F053
:1016B000288539854A855B857D858E850E946607EC
:1016C00017E0809122029091230289133DC02E964B
:1016D000E3E00C94E22587E0FE013896DE011196E6
:1016E00001900D928A95E1F78C85882349F320912A
:1016F000230230E0C90101968770992740912202A8
:101700004817190699F097E0929FD001939FB00D6A
:101710001124AC5DBD4FFE01319601900D929A955A
:10172000E1F7809323020E94FA08CACF0E942F0794
:10173000109223021092220287E0ECE5F2E0DF0132
:101740001D928A95E9F7BCCF819FC00111248C5D61
:101750009D4F0E94A709882309F4B9CFE091220286
:101760001E9FF0011124EC5DFD4F208131814281EB
:1017700053816481758186810E946607809122026F
:1017800090E0019687709927809322029ACF682F64
:1017900080910A0190910B010E94EA1D0895682F23
:1017A00080910A0190910B010E94ED1D0895809196
:1017B0000A0190910B010E94F01D089580916C0226
:1017C000089580916B0286958695869508958091FF
:1017D0006B028770089590916B02977081E009F415
:1017E00080E0089580917902089590917902892B83
:1017F000809379020895809590917902982390932F
:101800007902089510927902089590917802892BB7
:101810008093780208958095909178029823909310
:1018200078020895109278020895809377020895BF
:1018300010927702089580937602089510927602AE
:10184000089580916D02089508950E94240C0895D2
:1018500090916C02292F282331F080958923809361
:101860006C020E94250C089508950E94340C08957E
:1018700090916D02292F2823281729F0982B9093F7
:101880006D020E94350C089590916D02292F282336
:1018900031F08095892380936D020E94350C089564
:1018A00080916D02882329F010926D0280E00E94E1
:1018B000350C0895CF93DF93E0910A01F0910B016D
:1018C000809179028083E0910A01F0910B0180817F
:1018D00090917802892B808390916D02992381F0F9
:1018E000E0910A01F0910B018081892B8083809126
:1018F0000A0190910B010E94A21D81110E94500CBF
:10190000E0910A01F0910B0180917602982F909559
:10191000808189238083E0910A01F0910B0180810D
:1019200090917702892B8083C0910A01D0910B019D
:1019300048E050E063E672E0CE010E94EE25892B7C
:1019400059F088E0FE01A3E6B2E001900D928A957D
:10195000E1F7CE010E944D1DDF91CF9108950895CA
:101960000E94AF0C08959091600692FF11C098E01C
:10197000899F90011124622B60936B020E94D4070F
:1019800080916B028695869586950E94B00C08958D
:101990000E94D407089510926B0280E00E94B00C60
:1019A000089590916B028095892380936B02282F74
:1019B000277069F4891759F09091600692FF07C06B
:1019C0008695869586950E94E4070E94CB0C089523
:1019D0009091600692FB222720F9281769F080FB7E
:1019E00092F99093600680915F06909160060E9444
:1019F000300D82E00E94D10C08958091600682FB38
:101A0000882780F991E089270E94E80C089581E0F9
:101A10000E94E80C089580E00E94E80C08956FEFA2
:101A20007FEF90E080E00E944026089590E080E003
:101A30000E940C2621E0863E9E4F09F020E0822F76
:101A4000089582E090E00E940426089583E090E0EB
:101A50000E940426089584E090E00E940C260895D8
:101A6000BC0184E090E00E9440260895AB01BC01D7
:101A70008FE090E00E9434260895AB01BC0183E121
:101A800090E00E943426089560E070E0CB010E944F
:101A90003D0D089560E070E0CB010E94360D0E947C
:101AA000440D0895A8E0B0E0E8E5FDE00C94C725FA
:101AB00066EE7EEF90E080E00E94402660E082E0EB
:101AC00090E00E94222660E083E090E00E942226BF
:101AD000109221021092200260E074E184E090E014
:101AE0000E94402660E086E090E00E9422266FEF90
:101AF00087E090E00E94222640E050E0BA0188E0B2
:101B000090E00E94342660E084E290E00E94222669
:101B100060E087E190E00E94222660E08CE090E0A7
:101B20000E94222660E08DE090E00E942226198229
:101B30001A821B821C821D821E821F82188648E028
:101B400050E068E170E0CE0101960E94122640E06C
:101B500050E0BA0180E290E00E9434260E944A0DD3
:101B60002896E2E00C94E3250E94520D08958EE041
:101B700090E00E94042691E0811101C090E0892F3D
:101B80000895682F8EE090E00E9422260895A6E036
:101B9000B0E0EDECFDE00C94C5250E949C1E8C018C
:101BA00080917A0290917B028017910781F01982CF
:101BB0001A820E949C1E682F49815A81792F80E0E9
:101BC00090E00E94150410937B0200937A022696FF
:101BD000E4E00C94E1250E94DC106093880270938D
:101BE000890280938A0290938B026093840270939F
:101BF0008502809386029093870208950895089540
:101C00000E94FF0D089508950E94030E089581E03B
:101C1000089586EF90E10E942F1D0E94FE0D0E9404
:101C2000000E08950E94BB120895089508950E9421
:101C3000150E0E94160E08950E94F9100E94E903E5
:101C400008950E94931E0E94B6100E94E1120E9405
:101C5000E8110E941C0E0E94E5140E94F1120E94DD
:101C6000040E08950E94BB1281110E94E01808958D
:101C7000A6E0B0E0EEE3FEE00C94BE250E94070E65
:101C800081110AC00E94C70D0E94320E0E94FC03FF
:101C90002696EBE00C94DA250E943C128CE7A82EE5
:101CA00082E0B82E750110E0F70101917F01812FCC
:101CB0000E941E111F5F183009F441C00817A1F3DC
:101CC00080918C0281FD0E9424110E94120EC82E68
:101CD00010E099249394812F0E941E11082FF50182
:101CE00081915F01081729F1D02ED826F12CEE241E
:101CF000E3948D2D8E21A9F0CC2099F0F9821A83DE
:101D00000E949C1E9C838B839D8291E0802F8E215C
:101D100009F490E049815A816B817C818D810E9418
:101D20001504F394EE0CF5E0FF12E3CFF5013197C3
:101D300000831F5F183079F60E94EB0DA5CF0813C2
:101D4000BFCFA0CF1F93CF93DF930E94D10FEC01A1
:101D5000C11580E5D807F0F5C11580E4D80708F073
:101D60009CC0C03ED10520F5CD3CD10508F082C015
:101D7000C83AD10578F4C53AD10508F073C0C1302E
:101D8000D10519F1209709F1C430D105F0F4D0E064
:101D9000C0E01BC0C33CD105D0F7C85AD0E0CC0F7F
:101DA000DD1FCC53DE4F0990D881C02DD4640DC007
:101DB000C11580E2D80708F0D1C0C11581E0D8076D
:101DC00008F05AC0C83ED10510F7CE01DF91CF917F
:101DD0001F910895C03682E5D80718F5C03482E512
:101DE000D80708F06BC0C03282E5D80708F05FC0A2
:101DF000C11582E5D80708F497C02C2F26952695A3
:101E000080E2289F900111248C2F8370C1E0D0E0E4
:101E100002C0CC0FDD1F8A95E2F7C22BD32BDD6801
:101E2000D4CFC03A82E5D80760F4C03882E5D8073D
:101E300008F459C0CF71D0E0DC2FCC27C46FD06A32
:101E4000C4CFC03C82E5D80708F462C0C03E82E53A
:101E5000D80708F09CCFDC2FCC27CC27DF71C06FD0
:101E6000D06AB3CFC55AD0E0C650DE4FC881D0E0AB
:101E7000D064ABCFD065A9CF8D2F0E947310182FDF
:101E8000CE0199270E94D10FC12FD0E0DC2FCC27A3
:101E9000CC27DF71C82BD92B98CFCE0199270E9470
:101EA000D10FCC27DF70C82BD92BD06A8ECFCF7142
:101EB000D0E0DC2FCC27C16FD06A87CF2C2F26959E
:101EC0002695277080E2289F900111248C2F837023
:101ED000C1E0D0E002C0CC0FDD1F8A95E2F7C22B33
:101EE000D32BDC6872CF2C2F26952695277080E2A5
:101EF000289F900111248C2F8370C1E0D0E002C094
:101F0000CC0FDD1F8A95E2F7C22BD32BDA685DCFA9
:101F10008C2F8F710E947310C82FD0E0DC2FCC273C
:101F2000CC27DF71D06251CF8C2F8F710E9473103C
:101F300055E0D695C7955A95E1F7CF70D0E0DC2FE4
:101F4000CC27282F30E084FF05C044E0220F331F48
:101F50004A95E1F7C22BD32BD06937CF8D2F8F71E4
:101F60000E947310182FCE0199270E94D10FC12F04
:101F7000D0E0DC2FCC27CC27DF71C82BD92BD2CFD8
:101F8000462F783030F4653020F4672F0E949E028F
:101F9000089590E080E008950E94C00F0E94A20E74
:101FA000089582389105B9F1B0F48133910509F4AF
:101FB0007DC048F48932910509F46DC08A329105DB
:101FC00009F47BC008958533910509F45FC0893316
:101FD000910509F10895833E9105D9F138F4803EC9
:101FE000910529F1823E910579F10895863E91058A
:101FF000D9F1873E910509F43EC0843E910541F533
:102000002091600621FF24C080915F0684FD19C0E5
:1020100087EE90E0089520915F06237009F05AC082
:102020002091600623FF14C089E290E0089520917A
:102030005F0620FD38C03091600630FF09C024FFE4
:1020400043C090E080E0089520915F0622FDF7CF25
:10205000089520915F0622FD3AC03091600630FD60
:1020600039C024FFF5CFEDCF20915F0623FFF0CFDD
:1020700024FDE7CFCDCF20915F0623FD2EC0309108
:10208000600631FFEECF84EE90E0089520915F0668
:1020900025FFDECFC9CF20915F0625FD21C020910D
:1020A000600623FFD5CF89E390E0D2CF20915F0671
:1020B00026FFCECF8AE290E0089520915F0626FFAA
:1020C000C7CF81E390E0089583EE90E0089582EE1B
:1020D00090E0089580EE90E0089586EE90E00895F7
:1020E00085E390E0089590915F0692FF06C0282F47
:1020F00028712830F9F4877F846093FF06C0282F69
:1021000028712831F1F4877E84612091600620FFD8
:1021100006C0382F38713830D9F4877F816021FFAD
:1021200006C0282F28712831D1F4877E816194FD63
:10213000877E0895282F24712430F9F68B7F8860DC
:10214000DCCF282F2471243101F78B7E8861DDCF0D
:10215000382F3171313019F78E7F8860E0CF282F0A
:102160002171213121F78E7E8861E1CF10925B06CB
:1021700010925C0610925D0610925E060895CF9252
:10218000DF92EF92FF926B017C010E94BB128111E2
:102190000EC00E94A81EC61AD70AE80AF90AC09201
:1021A0005B06D0925C06E0925D06F0925E06FF90C0
:1021B000EF90DF90CF9008950F931F930E94BB1272
:1021C000882329F00E94A81E1F910F9108950E9454
:1021D000A81E00915B0610915C0620915D0630916F
:1021E0005E06600F711F821F931FEECF80E008957F
:1021F00008950E94160D811102C00E94B40D0E9424
:10220000210D80938C020E942B0D90936006809389
:102210005F060E94F8100E94260D90E00E947C0745
:1022200080911E0290911F020E949D0708950895BB
:102230000E94171108950E9465020895E82FF0E0AA
:10224000E659F94F80810895089508950E94251157
:102250000895EF92FF921F93CF93DF9300D000D0A9
:10226000CDB7DEB70E94BB12182F6091720688238B
:1022700009F447C019821A821B821C82862F90E0C3
:102280009E012F5F3F4F7901B9018659994F0E94F6
:10229000FF128823E9F08091610690E044E050E06D
:1022A000B7018659994F0E94EE2521E020938D02B7
:1022B000892BC9F410E00E941B11812F0F900F9001
:1022C0000F900F90DF91CF911F91FF90EF900895A5
:1022D00080918D02882371F384E0F70111928A9531
:1022E000E9F710928D02E0916106F0E0E659F94FAE
:1022F00089819A81AB81BC8180839183A283B383DE
:10230000DACF70E06659794F8091610690E0865986
:10231000994F0E9486130E942611CFCF1F93CF930F
:10232000DF932CE031E0C1E0D0E0D90150E040E0A3
:102330008D918F3F91F0E82FE295EF70F0E011A1C1
:102340008F70BE0101C0660F8A95EAF7962F9095AF
:10235000912391A382A1862B82A34F5F5F4F4530CB
:10236000510531F72B5F3F4F81E020323807E9F606
:10237000DF91CF911F910895CF93DF93AC01A62FEA
:10238000B0E085E0689FF0011124E45FFE4F75E046
:1023900081E060E091919F3FC9F0C92FC295CF7055
:1023A000D0E028A130E09F7002C0359527959A951E
:1023B000E2F720FD0BC0282F622B880F715051F7D8
:1023C000A40FB51F6C93DF91CF91089520E0F4CF57
:1023D000A4E1B0E0EEEEF1E10C94C725809120017C
:1023E000811126C084E1E7E4F1E0DE01119601905D
:1023F0000D928A95E1F7FE013196ACE0B1E0CE0195
:10240000459620812C93218111962C93119722813E
:1024100012962C931297238113962C931397248151
:1024200014962C931497359615968E179F0749F797
:102430008091200194E0811190E09093720684E0F5
:10244000891B809361060E948E1188E0EAE6F6E01F
:10245000DF01982F1D929A95E9F7E2E6F6E0DF0199
:102460001D928A95E9F784E00E947A120E94181161
:102470006496E2E00C94E325A8E0B0E0E2E4F2E147
:102480000C94C4258E010F5F1F4F88E0F801119254
:102490008A95E9F7F12C6F2DC8010E94BC11F394C5
:1024A000F4E0FF12F8CF48E050E0B80182E696E091
:1024B0000E94EE2521E0009709F420E0892B41F0ED
:1024C00088E0F801A2E6B6E001900D928A95E1F766
:1024D0006091720670E06659794F44E082E696E0BA
:1024E0000E947B12182F0E942911812B2896E5E06B
:1024F0000C94E0250895CF92DF92EF92FF920F9314
:102500001F93CF936C017B01042F222349F081E0BC
:10251000809390020E949C1E90938F0280938E0263
:10252000C0919002C1110AC0C0E08C2FCF911F91C1
:102530000F91FF90EF90DF90CF90089580918E02E1
:1025400090918F020E94B41E059770F310E0A801CD
:10255000B601C7010E94EE25892B41F0A801B60102
:10256000C7010E94FB2510929002DFCFC0E0FBCF95
:102570000E94B70D0895CF93DF938091930281114C
:1025800017C0C8ECD0E00E94AB2581110EC08FE3CC
:102590009CE90197F1F700C000002197A1F782E0C4
:1025A000809393020E94A62503C081E0809393024A
:1025B00081E090919302913009F080E0DF91CF911A
:1025C00008950E94160D811102C00E94B40D0E9450
:1025D000B812809320010E94BB1281110E94351312
:1025E00008950E94BB12811102C00E943813089501
:1025F00081E0909194029A3008F080E008950F9362
:102600001F93CF93DF93EC018B01809194028A306A
:10261000B8F4B801CE010E948313C82F811122C0E3
:10262000809194028F3FB9F40E949C1E9093920275
:10263000809391028C2FDF91CF911F910F9108957C
:1026400080919102909192020E94B41E843F914029
:1026500000F7C0E0EFCF8F5F809394028A3020F7BD
:10266000C1E0E8CF10929402E5CF0E94CD1B0895FF
:102670000E94D01B0895B0E0A0E0E1E4F3E10C94E7
:10268000C2257901C82F880FDD0B41155105A9F02E
:10269000FE0193E0EE0FFF1F9A95E1F7EF5DFE4F0D
:1026A000818192818B569D4F208130E042175307E4
:1026B00008F49A01A9010E94FB25CE010E94B91CD1
:1026C000D82E8823D1F001151105B9F083E0CC0F85
:1026D000DD1F8A95E1F7FE01EF5DFE4F438150E07B
:1026E0000417150708F4A801CF5DDE4F6C817D81CA
:1026F0006B567D4FC7010E94FB258D2DCDB7DEB7F0
:10270000E7E00C94DE250E947D1408950E94941445
:102710000895A4E0B0E0EFE8F3E10C94C5256091E2
:10272000AA027091AB028091AC029091AD020E941E
:10273000C31E11E0643671058105910518F10E94F0
:10274000DC106E5F7F4F8F4F9F4F69837A838B833F
:102750009C8310E000E030E020E044E050E0BE0167
:102760006F5F7F4F82E00E943B13182F882351F048
:102770000E94A81E6093AA027093AB028093AC02E1
:102780009093AD02812F2496E4E00C94E125B0E013
:10279000A0E0EDECF3E10C94BF257C015B016A0144
:1027A0000E94F81201E010E0882311F00AE010E026
:1027B000C1E0D0E0B501C701F6010995811104C05F
:1027C00021960C171D072CF4CDB7DEB7EAE00C9468
:1027D000DB25CC9F9001CD9F300D300D112490E072
:1027E00080E045E34A95F1F70000019682179307D0
:1027F000C1F7E0CFA5E0B0E0E0E0F4E10C94BF2544
:102800005B01E090FD01F090FE0101E010E09E010F
:102810002B5F3F4F50E040E070E060E080E00E94BE
:102820003B13182F882309F44BC067018FEFC81A98
:10283000D80A6091A6027091A7028091A802909197
:10284000A9020E94C31E643671058105910580F1BD
:1028500004E010E09E012F5F3F4F50E040E070E049
:1028600060E081E00E943B13F82E64E070E0C60156
:102870000E94E61411E09D81981310E01F2159F188
:102880000E94A81E6093A6027093A7028093A802DC
:102890009093A90289819A81AB81BC818093A20225
:1028A0009093A302A093A402B093A50211E013C0D9
:1028B00064E070E0C6010E94E6149D818913C8CFD0
:1028C000F70181819281A381B48189839A83AB834B
:1028D000BC831111DFCF8091A2029091A302A0913D
:1028E000A402B091A502F50180839183A283B383F2
:1028F000812F2596EAE00C94DB250F931F93CF934D
:10290000DF93EC018B014AEF53E10E94C713882348
:1029100031F049E853E1B801CE010E94C713DF91BD
:10292000CF911F910F9108950F931F93CF93DF9332
:10293000C091FD01D091FE01CE01019624E0FB0182
:10294000DC0101900D922A95E1F764E070E00E94AD
:10295000E61488836D817E818F81988500919E0227
:1029600010919F022091A0023091A102601771077F
:102970008207930751F060939E0270939F028093A9
:10298000A0029093A1020E94BF10DF91CF911F91EE
:102990000F9108950E9473200E94210E0E948020B2
:1029A00008950E9485200E94380E0E94A820089554
:1029B0000E94351E0E9459200E94090E0E94CA14CE
:1029C0000E94D1140E94170EFBCF0895FC01680FDE
:1029D000791F8FEF91E36E177F0709F40895219116
:1029E000822728E030E087FF06C0880F8927215022
:1029F0003109C9F7F0CF880FFACFCF93DF93EC01FD
:102A0000FB018581882309F4D2C09E01305723320F
:102A1000310508F0B2C00E942B0D909360068093A0
:102A20005F06FE01E150F047E232F10520F4E5597E
:102A3000F94D0C94B12580915F06816080935F060B
:102A400093C0809160068860809360068DC08091FD
:102A50005F068260F3CF80915F068460EFCF809144
:102A60005F068860EBCF809160068160EDCF80913A
:102A700060068260E9CF80915F068061DFCF809140
:102A80005F068062DBCF80915F068064D7CF0E94B3
:102A90002F0780915F068068D1CF80915F068C60A0
:102AA000CDCF809160068360CFCF80915F068E7F0F
:102AB000C5CF80916006877FC7CF80915F068D7FED
:102AC000BDCF80915F068B7FB9CF80915F06877FF6
:102AD000B5CF809160068E7FB7CF809160068D7FE5
:102AE000B3CF80915F068F7EA9CF80915F068F7DE7
:102AF000A5CF80915F068F7BA1CF0E942F07809189
:102B00005F068F779BCF80915F06837F97CF809101
:102B100060068C7F99CF80915F0682FB992790F9A0
:102B200021E0922790FB82F990FB83F987CF809177
:102B30006006982F909591708E7F892B90FB81F97C
:102B400083CF90915F06892F8F7B96FF806476CF2D
:102B50000E942F0790915F06892F97FB87F9805875
:102B60006DCF81E00E94C10D80915F06909160065B
:102B70000E94300D0E942F0780E0DF91CF910895D1
:102B800080E0F0CF90915F06892F8F7E94FF806167
:102B900055CF90915F06892F8E7F90FF81604ECF39
:102BA00090916006892F877F93FF88604DCF81E0E9
:102BB000E4CFB0E0A0E0EFEDF5E10C94C225E82F02
:102BC000F0E0ED5CFD4FD490282F269526952695B4
:102BD00030E0F901ED52FD4F0491877010E0082EAE
:102BE00002C0159507950A94E2F701701127F901C3
:102BF000ED53FD4FE490F12C082E02C0F594E794BC
:102C00000A94E2F791E0E922FF24F901ED54FD4F27
:102C1000C491D0E002C0D595C7958A95E2F7C170FE
:102C2000DD270115110519F081EE0E944E04E11413
:102C3000F10419F086EE0E944E048D2D0E94D404FA
:102C4000E114F10419F086EE0E94920401151105B9
:102C500019F081EE0E949204CD2B19F08CE20E94B3
:102C6000D404CDB7DEB7E7E00C94DE25EF92FF92F7
:102C70000F931F93CF93DF938C01F62E8AE0E82EFB
:102C8000F8018491882309F454C0813009F04DC0C3
:102C9000E8012196FE018491813091F42196FE0194
:102CA00084910E94D4048E010F5F1F4F8F2D81509D
:102CB00038F3EFE9FFE03197F1F700C00000F7CFFC
:102CC000823039F4E8012296FE0184910E944E047C
:102CD000EACF833039F4E8012296FE0184910E9404
:102CE0009204E1CF8430F9F6E8012296FE012491A6
:102CF00090E080E0FE0131962053330B2A303105FD
:102D000048F0019780F2EFE9FFE03197F1F700C05A
:102D10000000F7CFE89EA001E99E500D1124C901E3
:102D2000840F951F2491EF01E5CF0E94D915E8018A
:102D3000BACFCDB7DEB7E6E00C94DF25089508954D
:102D40000895089581E008950F931F93CF93DF9323
:102D5000EC018B01842F0E949E160E942F070E9477
:102D6000A70719830883DF91CF911F910F910895D1
:102D7000AF92BF92CF92DF92EF92FF921F93CF93C9
:102D8000DF93EC016B01142FE0901E02F0901F0204
:102D90000E942F070E94A70787E018025001112404
:102DA000CC15DD0591F40E942F07C7010E94A007F2
:102DB000812F0E949F16DF91CF911F91FF90EF907E
:102DC000DF90CF90BF90AF900895CE010E94F306A0
:102DD000CA0DDB1DE5CF0F931F93CF93DF93EB015C
:102DE000F801A881B9813581311103C08A179B0789
:102DF000A9F087E02802B0011124CD01861B970BB2
:102E00004817590781F087E001900D928A95E1F704
:102E100088819981860F971F99838883DF91CF914D
:102E20001F910F910895BF01822F0E94A016F6CF27
:102E3000CF92DF92EF92FF921F93CF93DF936C01BB
:102E4000EB01142F7901842F0E94A11689EF18023B
:102E5000A0011124CC15DD0531F0FE01E40FF51FB2
:102E6000858181110BC0F701D183C083DF91CF91A0
:102E70001F91FF90EF90DF90CF900895EF01EACF80
:102E80000F931F93CF938B012091300621113FC0E8
:102E9000FB01C581CC2331F0C1E08C2FCF911F9174
:102EA0000F9108958435FCE79F07F1F070F48335A6
:102EB0009C4791F741E06EEA72E08EE296E00E9454
:102EC000A41681E080933006E8CF8635ECE79E07B4
:102ED000A1F087359C4701F76091390170913A0163
:102EE0004FEF87E296E010C04FEF67E276E08EE2A8
:102EF00096E00E94A41682E0E5CF60913B017091BC
:102F00003C0141E08EEA92E00E94B816C6CFAC01C7
:102F100043555C474330510538F531E085359C47D2
:102F200009F430E0F8018581831731F0213031F068
:102F3000223081F010923006C0E0AFCF60912E06B3
:102F400070912F062BE331E041E08EEA92E00E947F
:102F50001817F0CF60912E0670912F0629E331E00B
:102F60004FEF87E296E0F3CF0E94A216C82F882386
:102F700009F492CF80913006813069F0823009F0F7
:102F80008BCF40913B0150913C012FEF6EE276E0F8
:102F900087E296E009C04091390150913A0121E061
:102FA0006EE276E08EEA92E00E94EB1676CFCF9347
:102FB000DF93EB0186319C4711F50E94F20B9D8156
:102FC000992399F08A7A91E009F490E09093310680
:102FD000811109C089E20E94C70B0E945A0C80E04F
:102FE000DF91CF91089585E3F6CF8091310681116D
:102FF00004C089E20E94CF0BF0CF85E3FBCF81E0D4
:10300000EFCFFC018581862351F492819923B9F099
:103010006923818583FF05C081E061110FC080E0D5
:103020000895892F8F7092959F70982B862F8F709F
:1030300062956F70682B81E09613F1CF089581E05F
:10304000FDCFCF93DF93EC0160913C0670913D067C
:1030500080913E0690913F060E94C31E643F7140DE
:103060008105910518F580913C0690913D06A0914F
:103070003E06B0913F068093380690933906A093A0
:103080003A06B0933B0684EF91E0A0E0B0E0809375
:10309000340690933506A0933606B0933706D09346
:1030A0003306C0933206DF91CF9108950E94A81E87
:1030B000609338067093390680933A0690933B06E6
:1030C00082E390E0A0E0B0E0E2CFFF920F931F9385
:1030D000CF93DF93F82E009143061091440601151B
:1030E000110509F44DC010923306109232060E9469
:1030F0001E0C0E94180C0091430610914406D80142
:103100001796CD91DC919E013A9521153F4108F427
:10311000D07ED1E0C11101C0D0E0D8011A96ED9166
:10312000FC911B97309731F01C966D917C9180E05B
:103130000995D823DD2339F08CEF8C0F813A30F5D7
:103140008C2F0E94CF0BFF2099F0E0914306F09165
:103150004406818584FD0CC080914206882341F09D
:10316000808191819C01215031092F333E47A0F08D
:103170000E945A0C10924406109243061092420686
:10318000C801CDB7DEB7E5E00C94E0250E945A0CEB
:103190008C2F0E949204D7CF0E942118E9CF109261
:1031A0003D0180E00E946518089580913D018823CB
:1031B00019F00E94CF18089581E080933D01089591
:1031C0000F931F938091320690913306892B89F1DA
:1031D000609138067091390680913A0690913B06CD
:1031E0000E94C31E009134061091350620913606C8
:1031F000309137066017710782079307D0F08091EE
:103200003206909133060E94DC021092330610922F
:103210003206109238061092390610923A06109231
:103220003B06109234061092350610923606109224
:1032300037061F910F910895A4E0B0E0E2E2F9E1B2
:103240000C94B7258C017A836983DB0115965C9019
:103250005520B1F08E35BCE79B0759F08F35ECE770
:103260009E0759F08D359C4759F40E94D518312C92
:103270000DC081E080933D01FACF0E94CF18F7CFB7
:1032800030903D01311007C033243394832D2496B0
:10329000E2E10C94D325680120EEC21AD1080E9405
:1032A000F20BF82E0E94DE0B482E0E94210C482AB9
:1032B0004F2838E0C316D10408F094C09801277055
:1032C000332781E090E001C0880F2A95EAF7552066
:1032D00009F485C0482AA981BA818D919C910E94E8
:1032E000880880900001909001018114910409F4F4
:1032F000E1C021E030E0F90102C0EE0FFF1F8A9526
:10330000E2F7FA83E9836090430670904406A09048
:103310004006B0904106212CE22DF0E0EE0FFF1F99
:10332000E80DF91D208131813C832B832115310566
:1033300009F4C0C0411005C0D90112968C918111C9
:103340008BC0EB81FC818381948129813A81822326
:103350009323892B09F480C08185982F977009F4F5
:1033600087E038E0C316D10408F056C0552009F4B0
:103370004FC086958170882309F46EC0AB81BC81F3
:10338000ED90FC900E151F0519F4552009F464C04A
:10339000EB81FC81E615F70509F45EC00684F7852C
:1033A000E02D309721F08081882309F455C0642DE9
:1033B0008B819C810E940118882309F44DC00E1551
:1033C0001F0509F08BC00115110509F48CC05110BF
:1033D0008CC0EA14FB0409F03FC0512C86C08095D4
:1033E000482279CF552009F44EC01093410600932E
:1033F00040060E94A81E60933C0670933D06809391
:103400003E0690933F06109233061092320663CF29
:1034100082FB882780F9AFCF5520F1F08170ABCFC8
:103420000E94920483C00497813A910548F4802F4A
:103430000E94C70B552009F427CF0E945A0C17CFC2
:103440000E945A0C8FE39CE90197F1F700C000003D
:10345000802F0E944E04EECF23945ECFFC0120818A
:1034600031812017310731F4511007C01092420604
:1034700080E031C0552009F407CFDC0119968C910A
:1034800085FD02CFF5CF80914006909141068017CF
:10349000910781F4109241061092400610923C066A
:1034A00010923D0610923E0610923F06109233068F
:1034B000109232068091430690914406009709F4D9
:1034C000E3CEA8E0CA16D10448F6642D0E94011884
:1034D0008111DACE81E00E946518D8CEE114F104A2
:1034E00009F077CF512CF12CE12C80E00E94651877
:1034F000EB81FC81F0934406E093430681E08093E6
:10350000420686810E941B0C511010C0E114F10488
:1035100069F0AB81BC818D919C919C012450310953
:10352000213A310508F07CCF0E94CF0BEB81FC8162
:1035300007811085C8019A9581159F4108F4107E76
:10354000FF24F394C80101978F339E4708F0F12CB4
:10355000AB81BC811A96ED91FC911B97309731F0AD
:103560001C966D917C9181E00995F822FF2081F0F5
:10357000EB81FC81878190850E94A1020E94150C3D
:10358000C801F8E0CF16D10408F04DCF0E942118F1
:103590000E945A0C4FCF0F931F93CF93DF93C42FEA
:1035A000D22FFC0185818823C9F0409347060E94F1
:1035B0009C1E909346068093450680E28C0F8830CF
:1035C00040F4C77081E001C0880FCA95EAF70E94F5
:1035D000DD04DF91CF911F910F910895109147065F
:1035E000141332C080914506909146060E94B41E85
:1035F000883C910548F5C0E2CD0F1D17B9F080E277
:10360000810F883040F4177081E001C0880F1A954F
:10361000EAF70E94E404C83048F481E09D2F9770D7
:1036200001C0880F9A95EAF70E94DD04802F0E945E
:10363000D404C83070F6D77081E001C0880FDA95E5
:10364000EAF70E94E404C5CF80E28C0F883008F6C8
:10365000C77081E001C0880FCA95EAF7F2CF0F93D7
:10366000DB0188519C4787309105A0F5FC01E357A9
:10367000F94D0C94B12506E221EE41EE6AE17CE7BA
:10368000CD010E94CB1A80E00F91089507E225EE4C
:1036900045EE6BE17CE7F4CF06E221EE40EE68E117
:1036A0007CE7EECF07E225EE44EE69E17CE7E8CF68
:1036B00006E221EE42EE6CE17CE7E2CF07E225EE86
:1036C00046EE6DE17CE7DCCF08E221E045EE6EE1FD
:1036D0007CE7D6CF15968C91882319F01092470677
:1036E000D3CF81E0D1CF8EE14A9B02C08150E1F778
:1036F0004A9BFECF08955A9880E28A95F1F75A9A2C
:103700000895FC013BE03A95F1F798E020E080E075
:1037100031E040E14A95F1F7880F4A9B02C0816091
:10372000232742E04A95F1F7000040E14A95F1F77E
:10373000915079F790E19A95F1F799B132E03A9585
:10374000F1F7000040E14A95F1F792FB992790F9D3
:1037500092272081920F90830895A1E0B0E0E3EBDF
:10376000FBE10C94C32519828C017C01E60EF11C4F
:103770000E151F0541F481E09981911180E0219699
:10378000E6E00C94DF250E94731BCE0101960E9497
:10379000811BF80181938F01EBCF529A5A9A0895B9
:1037A00052985A9AEA9AE9E6F0E080818F7C808309
:1037B00008956150770B91E001C0990F6A95EAF77F
:1037C00020E031E0911108C0222391F05A9A80E262
:1037D0008A95F1F75A980895492F482339F05A9A53
:1037E000232740E24A95F1F79695ECCF5A98F9CF06
:1037F0005A98EDCFFF920F931F93CF93DF93EC0175
:103800008C01060F111DC017D10729F4CDB7DEB703
:10381000E5E00C94E025F9900E947B1B68E08F2D79
:103820000E94D91BF0CF1F920F920FB60F92112456
:103830000F931F932F933F934F935F936F937F93B8
:103840008F939F93AF93BF93EF93FF93CF93DF93A8
:103850000F92CDB7DEB719820E94731BCE0101967D
:103860000E94811B082F069506950695282F229504
:103870002570902F9570290F922F9370269526957D
:10388000920F982797708981982B09F05CC00430BB
:1038900008F059C080E18A95F1F75A9A529A82E06D
:1038A0008A95F1F700C05A9888E0089F800111249A
:1038B000D801AF5DBE4F1696ED91FC9117973097EA
:1038C000A9F06091FD017091FE0114962D913C913B
:1038D0001597260F371F11968D919C911297680F9F
:1038E000791F13964C9113978C910995F801EF5D10
:1038F000FE4F6381662351F02091FD013091FE015E
:1039000084819581820F931F0E94FA1B0E947B1B6A
:1039100080E18A95F1F75A9852985A9A80E18A95EF
:10392000F1F7F801EF5DFE4F6081662351F02091C1
:10393000FD013091FE0181819281820F931F0E94CF
:10394000AD1B0E94731B0F90DF91CF91FF91EF9100
:10395000BF91AF919F918F917F916F915F914F91A7
:103960003F912F911F910F910F900FBE0F901F90BD
:1039700018950F931F93CF93DF93EC0104970CF0EE
:103980004CC0F894529A5A9885E08A95F1F7000055
:103990009C2F969595708C2F8570980F892F83702A
:1039A0009695969523E0CC0FDD1F2A95E1F7980FA9
:1039B0008E01092B0E947B1B00C068E0802F0E94B3
:1039C000D91B80E18A95F1F752985A9A4A9B1EC0FA
:1039D00087E090E04A991CC0FE01EF5DFE4F6381D5
:1039E0006623F9F02091FD013091FE0184819581DB
:1039F000820F931F0E94AD1B811113C0529A5A9AD5
:103A00007894DF91CF911F910F91089500C0DECF80
:103A1000019729F4529A5A9A789480E0F2CF00C024
:103A2000D9CF0E94731B80E28A95F1F75A98529A77
:103A300080E18A95F1F7CF5DDE4F6881662351F012
:103A40002091FD013091FE0189819A81820F931F9F
:103A50000E94FA1B0E947B1B789481E0D2CF909346
:103A6000010280930002089590934E0680934D06C4
:103A700008950E94BB12811103C0809148060895E9
:103A8000E0914D06F0914E06309729F00190F081BB
:103A9000E02D0995089580E00895E0914D06F0919C
:103AA0004E06309721F00280F381E02D09950895AC
:103AB000A3E0B0E0EEE5FDE10C94C72520914B06B4
:103AC00030914C0628173907A1F090934C0680934B
:103AD0004B06E0914D06F0914E06309751F023E0F1
:103AE00029839B838A830680F781E02DCE0101968E
:103AF00009952396E2E00C94E325A3E0B0E0E3E827
:103B0000FDE10C94C7252091490630914A062817FB
:103B10003907A1F090934A0680934906E0914D063B
:103B2000F0914E06309751F024E029839B838A83DD
:103B30000680F781E02DCE01019609952396E2E0FB
:103B40000C94E3259C012E5F3F4FAC01485F5F4F13
:103B500080E02417350709F40895F90191919F0138
:103B60009923B9F38F5FF5CF662349F0FC013296B4
:103B700008962191261729F0E817F907D1F780E078
:103B8000089581E008959C01FC0132969FEF80E04A
:103B90004191461751F09F3F19F4411101C0982FF0
:103BA0008F5F8630A9F79F3F09F40895290F311DD3
:103BB00097FD3A95F90162830895FC0132960896C3
:103BC0002191261303C0DF0111971C92E817F90712
:103BD000B9F708950E94C31D08950E94DD1D089540
:103BE000029626E0FC0111922A95E9F708950895BE
:103BF0000E94F71D0895811106C081E080934F0651
:103C00000E94F81D089582E0F9CF83E080934F066B
:103C10000E94F81D08950E94FB1D089581E0809385
:103C20004F060E94F81D08950E940E1E08950895E3
:103C300008950E94181E0895089508950E94171E61
:103C40000895CF930E941C1E0E943C120E941D1ECC
:103C5000C0E08C2F0E941E11811105C0CF5FC830BB
:103C6000C1F7CF91089581E0FCCF85B7806885BF0B
:103C700085B7806885BF08951F921FB61F921124D3
:103C80008F939F93AF93BF9380915006811113C080
:103C90008091730690917406A0917506B091760696
:103CA0004196A11DB11D8093730690937406A09355
:103CB0007506B0937606BF91AF919F918F911F903B
:103CC0001FBE1F90189580917B06843031F10E94B1
:103CD000CC031092500688E190E020E40FB6F894EF
:103CE000A895809360000FBE2093600083B7817F0A
:103CF000846083BF83B7816083BF7894889583B7DE
:103D00008E7F83BF0FB6F894A8958091600088617C
:103D100080936000109260000FBE08950E942F07EC
:103D20000E94D103089582E084BD93E095BD9AEF8F
:103D300097BD80936E0008952FB7F8948091730615
:103D400090917406A0917506B09176062FBF0895E4
:103D50002FB7F89460917306709174068091750680
:103D6000909176062FBF08959C014FB7F8948091EB
:103D7000730690917406A0917506B09176064FBFB8
:103D8000821B930B0895CF92DF92EF92FF922FB791
:103D9000F894C0907306D0907406E0907506F09089
:103DA00076062FBFA7019601261B370B480B590B30
:103DB000CA01B901FF90EF90DF90CF9008957894F9
:103DC0001F921FB61F9211248F939F93AF93BF939F
:103DD0008091730690917406A0917506B091760655
:103DE0000196A11DB11D8093730690937406A09354
:103DF0007506B0937606BF91AF919F918F911F90FA
:103E00001FBE1F90189587E797E79093010880934E
:103E1000000888E19AE00FB6F894A89580936000B6
:103E20000FBE90936000FFCF88E19AE00FB6F89440
:103E3000A895809360000FBE90936000FFCF8091A3
:103E40005906089508959B01BA0190917B0694301C
:103E5000E9F48F708093E9009FEF8091E800915022
:103E600085FD06C085ED8A95F1F700009111F5CF2B
:103E70008091E80085FF0AC050E040E0C9010E943F
:103E80001F218091E8008E778093E800089543E039
:103E900050E0BC0182E00E94231F0895CF93DF937E
:103EA000EC0148E050E0BC0181E00E94231F88E063
:103EB000FE01A1E5B6E001900D928A95E1F7DF9150
:103EC000CF91089580917A06811109C00E94AF2296
:103ED0000E940C238091E20084608093E2000895A8
:103EE00010927A0608950E940E1E0895609177063A
:103EF00081E0611101C080E00E94051E089590914B
:103F00007B0681E0943009F080E0609177060E94A2
:103F10000B1E089542E061EC81E00E942B2242E2F8
:103F200061EC82E00E942B2290917B0681E094302C
:103F300009F080E0609177060E94FB1D0895809152
:103F40007D06833009F461C030F48130D1F18230D4
:103F500009F49EC008958A3009F48AC08B3009F4B0
:103F60006FC0893009F050C080917C06813209F021
:103F70004BC08091800690918106029708F044C062
:103F80008091E800877F8093E8008091E80082FFBD
:103F900037C09091F3008091F200029731F4809144
:103FA000F100813011F0863021F48091F10080938E
:103FB00059068091E8008B778093E8000E945F2289
:103FC00023C080917C06813AF9F48091E800877FD4
:103FD0008093E8008091800690918106892B61F49E
:103FE00068E081E596E070E00E946E218091E80033
:103FF0008B778093E800089560E090E080E0F3CF55
:1040000080917B068111C1CF089580917C06813A11
:10401000D9F78091800690918106892BA9F780912C
:10402000E800877F8093E8008091E80080FFFCCF64
:10403000809146018093F1008091E8008E77BCCF9B
:1040400080917C06813201F78091800690918106F3
:10405000892BD1F68091E800877F8093E8000E9449
:104060005F2280917E06809346010E942F0708956B
:1040700080917C06813241F68091E800877F8093B1
:10408000E8000E945F2280917F0680935A0608957F
:1040900080917C06813A09F0B7CF8091E800877F54
:1040A0008093E8008091E80080FFFCCF80915A0661
:1040B000C1CF84B7877F84BF0FB6F894A89580914D
:1040C0006000886180936000109260000FBE80E8FD
:1040D00090E00FB6F89480936100909361000FBE5A
:1040E0000E94141E08950E94AF220E940C23E2EE4B
:1040F000F0E080818460808378940E948B2508950D
:104100008EE391E00E94341D089580917B068530F6
:1041100031F480917B06853019F00E948E1E08953F
:104120000E94631E80917906882399F30E94211EC4
:10413000882379F30E9409210E942F072FEF83EC37
:1041400099E0215080409040E1F700C00000E1CFAD
:1041500008959A0140918206509183060E94B120F1
:104160000895492F55274330510519F168F441301E
:10417000510509F444C04230510509F445C090E0AE
:1041800080E050E040E025C04132510549F1423223
:104190005105A9F780E490E04EE953E061157105FF
:1041A000C1F082E390E04CE653E06130710589F0A4
:1041B000E6CF99278130910581F0009729F0029789
:1041C000F1F6E3EEF2E002C0EBE1F3E0849190E07F
:1041D000AF01F901518340830895E7EFF2E0F6CF94
:1041E00089E090E041E353E06115710591F389E0C6
:1041F00090E04AE453E06130710559F3C0CF82E1A9
:1042000090E04AE553E0E5CF8BE390E04FE153E0E7
:10421000E0CF80E189BD82E189BD09B400FEFDCF18
:104220008091D8008F7D8093D8008091E0008260DB
:104230008093E0008091E00081FDFCCF0895AF9273
:10424000BF92CF92DF92FF920F931F93CF93DF9392
:104250006C01EB018A010E947E22F82E811123C09D
:104260000115110539F0F80180819181C81BD90B26
:10427000C80ED91EB12CA12C2097A9F08091E8007E
:1042800085FD22C08091E8008E778093E8000115BB
:104290001105A1F0F80180819181A80EB91EB182AB
:1042A000A08285E0F82E8F2DDF91CF911F910F9185
:1042B000FF90DF90CF90BF90AF9008950E947E2234
:1042C0008823D1F2F82EEFCFF60181916F01809310
:1042D000F1002197FFEFAF1ABF0ACECFFC0180910A
:1042E00082069091830686179707A0F061157105E5
:1042F00029F49091E8009E779093E80090E0611592
:10430000710551F4911108C08091E80082FF34C01A
:1043100080E00895BC01F2CF80917B068823C1F133
:104320008530C1F18091E80083FD30C08091E800C4
:1043300082FDEACF8091E80080FFE1CF8091F30019
:104340002091F200382F6115710519F028303105E0
:1043500058F091E02830310509F090E02091E80014
:104360002E772093E800CBCF81918093F1006150AC
:1043700071092F5F3F4FE7CF80917B06882341F083
:10438000853041F08091E80083FFBECF81E0089541
:1043900082E0089583E00895FC0180918206909167
:1043A000830686179707A0F06115710529F480919F
:1043B000E8008E778093E80090E06115710551F474
:1043C000911108C08091E80082FF35C080E0089517
:1043D000BC01F2CF80917B068823C9F18530C9F1F9
:1043E0008091E80083FD31C08091E80082FDEACF32
:1043F0008091E80080FFE1CF8091F3002091F200EE
:10440000382F6115710519F02830310558F091E009
:104410002830310509F090E08091E8008E77809394
:10442000E800CBCF84918093F100319661507109FF
:104430002F5F3F4FE6CF80917B06882341F0853088
:1044400041F08091E80083FFBDCF81E0089582E0D4
:10445000089583E00895982F973028F08F70809307
:10446000E90081E008959093E900242F762F50E031
:10447000981731F07091EC002091ED005091F00010
:1044800021FD02C09F5FE8CF3091EB003E7F30936B
:10449000EB003091ED003D7F3093ED003091EB006B
:1044A00031603093EB007093EC002093ED0050935B
:1044B000F0002091EE0027FDE5CF80E00895809187
:1044C0007C0687FF13C08091E80082FF06C08091C0
:1044D000E8008B778093E80004C080917B0681110F
:1044E000F2CF089580917B068823D9F38091E8006C
:1044F00080FFF8CF8091E8008E77ECCF2091E40028
:104500003091E50095E6A9012091EC00822F8170A1
:1045100020FF06C08091E80080FF06C080E008957B
:104520002091E80022FD1AC080917B06882389F043
:10453000853089F08091EB0085FD0FC02091E4006B
:104540003091E50042175307F9F29150E1F684E00B
:10455000089582E0089583E0089581E008950E941F
:104560001E230E942623E0EEF0E08081816080839C
:10457000E8EDF0E080818F77808319BCA7EDB0E093
:104580008C918E7F8C9380818F7E808310927A06AF
:1045900008950F931F93CF93DF930E941E230E94D1
:1045A0002623C8EDD0E088818F7788838881806852
:1045B000888388818F7D888319BC10927B06109236
:1045C0007706109279061092780600EE10E0F80156
:1045D00080818B7F808388818160888342E060E076
:1045E00080E00E942B22E1EEF0E080818E7F8083CC
:1045F000E2EEF0E08081816080838081886080834A
:10460000F80180818E7F8083888180618883DF913B
:10461000CF911F910F910895E8EDF0E080818F7E9A
:104620008083E7EDF0E080818160808384E082BF59
:1046300081E080937A060E94C9220895E8EDF0E0B7
:1046400080818E7F80831092E20008951092DA00BC
:104650001092E10008951F920F920FB60F9211244D
:104660002F933F934F935F936F937F938F939F937A
:10467000AF93BF93EF93FF938091E10082FF0BC054
:104680008091E20082FF07C08091E1008B7F8093E0
:10469000E1000E948A258091DA0080FF19C0809194
:1046A000D80080FF15C08091DA008E7F8093DA00F9
:1046B0008091D90080FF96C080E189BD82E189BDEB
:1046C00009B400FEFDCF81E080937B060E94621F4B
:1046D0008091E10080FF19C08091E20080FF15C049
:1046E0008091E2008E7F8093E2008091E200806101
:1046F0008093E2008091D80080628093D80019BC3A
:1047000085E080937B060E94761F8091E10084FF04
:104710002BC08091E20084FF27C080E189BD82E147
:1047200089BD89B5982F917080FFFBCF8091D8000B
:104730008F7D8093D8008091E1008F7E8093E1008F
:104740008091E2008F7E8093E2008091E2008160A0
:104750008093E20080917706882309F449C084E0C1
:1047600080937B060E947F1F8091E10083FF29C018
:104770008091E20083FF25C08091E100877F8093D4
:10478000E10082E080937B06109277068091E10041
:104790008E7F8093E1008091E2008E7F8093E20023
:1047A0008091E20080618093E20042E060E080E07E
:1047B0000E942B228091F00088608093F0000E947C
:1047C000731FFF91EF91BF91AF919F918F917F9157
:1047D0006F915F914F913F912F910F900FBE0F906E
:1047E0001F90189519BC10927B060E94701F70CF05
:1047F0008091E30087FD93E090937B06B3CF1F92F7
:104800000F920FB60F9211242F933F934F935F9304
:104810006F937F938F939F93AF93BF93CF93DF93C8
:10482000EF93FF93D091E900DF708091EC00C82FE7
:10483000C17080FDC0E81092E9008091F000877F90
:104840008093F00078940E9443241092E9008091B4
:10485000F00088608093F000CD2BCF70C093E9000A
:10486000FF91EF91DF91CF91BF91AF919F918F9188
:104870007F916F915F914F913F912F910F900FBE5C
:104880000F901F901895AAE2B0E0E9E4F4E20C94CE
:10489000C6258CE796E02091F100FC012193CF0121
:1048A000F6E084389F07B9F70E949F1F8091E800C7
:1048B00083FF1EC180917C0690917D069A3008F09E
:1048C00017C1E92FF0E0EC56F94D0C94B125803872
:1048D00099F0823809F00CC1809180068F70873082
:1048E00008F006C18093E9008091EB0085FB8827E2
:1048F00080F91092E90006C08091780690917906BF
:10490000911182609091E800977F9093E8008093E6
:10491000F1001092F1008091E8008E77E5C08823C5
:1049200009F4D3C0823009F0E3C080917E06811182
:10493000D6C0809180068F702FEF280F263008F0A8
:10494000D7C08093E9002091EB0020FFC8C09330CE
:1049500031F48091EB0080628093EB00C0C09091B5
:10496000EB0090619093EB0021E030E001C0220F5A
:104970008A95EAF72093EA001092EA008091EB0012
:104980008860EACF8111B4C010917E061F778091B4
:10499000E3008078812B8093E3008091E800877F9B
:1049A0008093E8000E945F228091E80080FFFCCFA6
:1049B0008091E30080688093E30082E0111183E03E
:1049C00080937B0695C08058823008F091C080911A
:1049D0007E0690917F068C3D23E09207A1F583E04F
:1049E0008A838AE289834FB7F894DE01139620E028
:1049F0003EE051E2E32FF0E050935700E49120FFB6
:104A000003C0E295EF703F5FEF708E2F90E0EA30C9
:104A1000C0F0C7968D939D932F5F243159F74FBFF8
:104A20008091E800877F8093E8006AE270E0CE0121
:104A300001960E946E218091E8008B778093E800B8
:104A400057C0C096E7CF6091800670918106AE0195
:104A50004F5F5F4F0E94A920BC01892B09F448C019
:104A60009091E800977F9093E80089819A810E9455
:104A7000CC21E1CF8038E1F58091E800877F8093F9
:104A8000E800809177068093F10045CF811130C016
:104A900090917E06923060F58091E800877F809348
:104AA000E800909377060E945F2280917706882322
:104AB00011F084E005C08091E30087FDFACF81E02A
:104AC00080937B060E948A1F13C080917E068130EE
:104AD00079F481E0933009F080E0809379061092B8
:104AE000E9008091E800877F8093E8000E945F22C0
:104AF0008091E80083FF0AC08091E800877F80935F
:104B0000E8008091EB0080628093EB00AA96E3E0DE
:104B10000C94E2250895CF9380917B068823A1F021
:104B2000C091E900CF709091EC00892F817090FDC9
:104B300080E8C82B1092E9008091E80083FD0E9474
:104B40004324CF70C093E900CF9108950E94AF2213
:104B500010927B0608958091E300881F8827881FA4
:104B60000895EE0FFF1F0590F491E02D09942F9208
:104B70003F924F925F926F927F928F929F92AF92ED
:104B8000BF92CF92DF92EF92FF920F931F93CF933A
:104B9000DF93CDB7DEB7CA1BDB0B0FB6F894DEBFD1
:104BA0000FBECDBF09942A88398848885F846E84F7
:104BB0007D848C849B84AA84B984C884DF80EE8041
:104BC000FD800C811B81AA81B981CE0FD11D0FB64A
:104BD000F894DEBF0FBECDBFED010895FB01DC01EF
:104BE00004C08D910190801921F441505040C8F7C4
:104BF000881B990B0895FB01DC0102C001900D9206
:104C000041505040D8F70895F999FECF92BD81BD2B
:104C1000F89A992780B50895A8E1B0E042E050E005
:104C20000C944826DC01A40FB51F4150504048F0B9
:104C3000CB01840F951F2E910E9423264150504096
:104C4000D0F70895262FF999FECF92BD81BDF89A2D
:104C5000019700B4021639F01FBA20BD0FB6F894C0
:104C6000FA9AF99A0FBE08950396272F0E942326D9
:104C70000E942226252F0E942326242F0C942326CF
:104C80000196272F0E9423260C942226DC01CB01BB
:104C9000FC01F999FECF06C0F2BDE1BDF89A31964C
:104CA00000B40D9241505040B8F70895F894FFCFEA
:104CB0001B0226022E0236023E0246025A022A0534
:104CC0002A057A057A05DF05590559055905FB05B9
:104CD0006C067B067B065515C9155D1527152B152A
:104CE00061152F15651571153B15C2153F15751505
:104CF00043157915A11547157D15A8154D15831573
:104D00008B153315691537156D15511587159715C1
:104D1000B115C01521155915D0154C1B521B3B1B45
:104D2000461B581B5E1B641B67248F2478258F2429
:0C4D30007825C224E32478253A25462586
:104D3C0002017B016B015B0100006E023294F69163
:104D4C00F4C63390F59336973166F73435FFFFFF91
:104D5C000100000001000000000000000401000040
:104D6C000004050000000000002706AE02011F1F12
:104D7C004E1F221F471F01F491F6943293F5903386
:104D8C00C6F7663197363534FFFFFF380222FFFF36
:104D9C0000221E0207000000000000370022FFFF67
:104DAC000022130207000000000000360022FFFF63
:104DBC000022130007000000000000E200E900EAF6
:104DCC0000B500B600B700CD008301CC008A01927B
:104DDC000194012102230224022502260227022A21
:104DEC0002B300B4006F0070009F01CB019F02A0C2
:104DFC0002818283E200E900EA00B500B600B70048
:104E0C00CD008301CC008A0192019401210223027E
:104E1C0024022502260227022A02B300B4006F00E6
:104E2C0070009F01CB019F02A0028182839502003A
:00000001FF
