:100000000C940B020C9428020C9428020C94981B5C
:100010000C9428020C9428020C9428020C942802B8
:100020000C9428020C9428020C94C8220C949C2353
:100030000C94DC1D0C9428020C9428020C942802C9
:100040000C9428020C9428020C9428020C94280288
:100050000C9428020C947F1E0C9428020C94280205
:100060000C9428020C9428020C9428020C94280268
:100070000C9428020C9428020C9428020C94280258
:100080000C9428020C9428020C9428020C94280248
:100090000C9428020C9428020C9428020C94280238
:1000A0000C9428020C9428020C94280214001A00C4
:1000B00008001500170004001621072409280A006B
:1000C0001D001B000600190005002B4228410000FE
:1000D000000000001C0018000C00120013000B00B0
:1000E0000D280E240F2134001100100036003700B7
:1000F00038022C432A4400000000000014021A02B7
:1001000008021502170204021602070209020A0277
:100110001D021B020602190205022B02000000004C
:10012000000000001C0218020C02120213020B0253
:100130000D020E020F0234021102100233003302CC
:100140001E0200004C000000000000001F02200200
:100150001F0621022202360237022602270224024B
:100160000C040F0406040E04350400000000000017
:100170000000000000002E002D002E02350031028C
:100180002F0230022F00300035022D0238002502E8
:1001900000002C090000000000000000000000002A
:1001A0000000000000002900E400E200E30000007D
:1001B000000000000000000000004600E100000018
:1001C000000000000000AC00AA00A900AB00000085
:1001D0005000510052004F000000A800AE00000087
:1001E0000000000000000000000000003A003B009A
:1001F0003C003D003E003F00400041004200430003
:1002000044004500680069006A000000000000002A
:100210000000000000005F0060006100000062005C
:100220005C005D005E000000000059005A005B00A9
:1002300000000000000000000000000000000000BE
:10024000000000002A2B2800000000000000000031
:100250000000000000000029000000002C1E3420D7
:10026000212224342627252E362D3738271E1F20FD
:100270002122232425263333362E37381F04050642
:100280000708090A0B0C0D0E0F1011121314151686
:100290001718191A1B1C1D2F3130232D3504050684
:1002A0000708090A0B0C0D0E0F1011121314151666
:1002B0001718191A1B1C1D2F3130354C0000000077
:1002C000000000000000000000000000000000002E
:1002D000000000000000000000000000000000001E
:1002E0007E0F00D4FFFFFFC70000007812034B0011
:1002F0006100680062006F0061007200640000002D
:1003000008034400500042000000040309040902ED
:100310003B00020100A0FA090400000103010100F2
:100320000921110100012240000705810308000195
:10033000090401000103000000092111010001224C
:100340007B0007058203200001120100020000006B
:1003500008ABC2393901000102000105010902A1FF
:100360000185020901A100050919012908150025C7
:1003700001950875018102050109300931158125B2
:100380007F95027508810609381581257F950175CD
:10039000088106050C0A38021581257F950175082C
:1003A0008106C0C005010980A101850319012AB792
:1003B00000150126B700950175108100C0050C09D4
:1003C00001A101850419012AA002150126A00295A8
:1003D0000175108100C005010906A101050719E09A
:1003E00029E7150025019508750181029501750819
:1003F00081010507190029FF150026FF00950675E4
:1004000008810005081901290595057501910295D6
:100410000175039101C011241FBECFEFDAE0DEBFEA
:10042000CDBF11E0A0E0B1E0E6EDFCE402C0059034
:100430000D92A83CB107D9F722E0A8ECB1E001C0C9
:100440001D92A23CB207E1F70E94AA140C94222646
:100450000C9400008530B8F46830A8F4453098F466
:1004600050E095E0699F400D511D1124FA0198E27A
:10047000899FE00DF11D1124EE0FFF1FE455FF4F82
:1004800085919491089581E090E008950E942A0258
:1004900008959C013A9521153F4150F5FC01EE2746
:1004A000F170BC0166277270AC01442754709C0146
:1004B0002227387094FF0EC080E1EF2B09F480E012
:1004C000672B09F08062452B09F08064232B89F0AB
:1004D0008068089581E0EF2B09F480E0672B09F034
:1004E0008260452B09F08460232B19F08860089501
:1004F00080E00895CF93DF93EB010E944902FE0153
:100500000995DF91CF910895CF93DF93EC01805E41
:100510009109089720F066E177E0209711F468EDE3
:1005200074E0CE010E947A028C2F0E943704DF9182
:10053000CF910895CF93DF93EC010E948404CE0104
:10054000805E9109089720F06DE177E0209711F423
:100550006FED74E0CE010E947A02DF91CF91089591
:100560000F931F93CF93DF938C01EB010E948402C2
:10057000209741F4C8010E949A02DF91CF911F9108
:100580000F9108958FE99FE00197F1F700C00000F7
:100590002197EECF70E060E08933910511F460E5BA
:1005A00070E00E94B002089581E008950E94D40294
:1005B000089581E008950E94D40208950E94DB020C
:1005C000089508950E94E1020895A6E0B0E0EBEEE0
:1005D000F2E00C947E2549835A839E833091CF01AB
:1005E00089819A8131111AC03E81332399F02223E7
:1005F00089F00E948908182F682F89819A810E94AA
:10060000650869817A81812F0E94760F2696E3E042
:100610000C949A250E947708182FF3CF0E9489081E
:1006200069817A81F1CFFC01262F4081518162815D
:100630007381848195810E94E5020895CF93DF93B1
:10064000EC0161E00E941303BE010E94D602DF911B
:10065000CF910895CF93DF93EC0160E00E941303E4
:10066000BE010E94E202DF91CF91089508950E9499
:100670003A070E9436032FEF84E39CE0215080402C
:100680009040E1F700C0000008950E9437030E94E7
:10069000A31E08950E9437030E94B41E08950F936D
:1006A0001F93CF93DF938C0161E00E941303EC0151
:1006B000B8010E94DE02811106C080E0DF91CF9177
:1006C0001F910F910895B801CE010E9461178823F0
:1006D000A1F3B801CE010E94B41A882371F3B801C6
:1006E000CE010E94E218882341F3B801CE010E9496
:1006F000261A882311F3F8018581882361F0C3301D
:10070000FCE7DF07E9F058F4C115ECE7DE07A9F0D4
:10071000C130DC47B9F0C8010E94D902CFCFCB3538
:100720008CE7D807A9F0CC35ECE7DE0771F0CA35C5
:10073000DC4789F70E94BF0CEECF0E944503BDCF76
:100740000E94C70C0E944A03B8CF0E94B50CE3CFA9
:100750000E94C30CE0CF0E94B91D0E94D2030895ED
:100760000E94D6030E94BE1D0895089581E0089559
:100770000895CF93DF93D82F0E94B603C82F882304
:1007800019F08D2F0E94B8038C2FDF91CF9108951F
:100790000895CF93C82F0E94B5038C2F0E94B903F0
:1007A000CF91089580E00E94C90308950E94BE1C65
:1007B0000E94C9030895CF930E94BE1CC82F809148
:1007C000CA018C1779F0C093CA010E94481E609339
:1007D000CB017093CC018093CD019093CE018C2FEF
:1007E0000E94C903CF910895ADE0B0E0EAEFF3E0D5
:1007F0000C947F25488759876A877B878C879D87DC
:1008000091110E94ED0B1F8286E0FE013896DE01F9
:10081000119601900D928A95E1F78D8181110DC09D
:1008200029813A814B815C816D817E818F810E941B
:100830001D0B2D96E2E00C949B25CE0101960E94A3
:100840001E038111EDCFF5CFFC012481213021F46D
:10085000808191810E94BB080895662329F00E943F
:100860002E150E94011608950E948815FACFCF9385
:10087000C82F8823B9F08CEF8C0F813AA8F46C2F25
:1008800080910001909101010E944A1D882329F066
:100890008C2F0E94AA0B0E94260C8C2F0E94A20B68
:1008A0000E94260CCF91089580E28C0F883048F486
:1008B000C77081E001C0880FCA95EAF70E94CD0B8E
:1008C000EFCFEBE5EC0FE33040F4F0E0E657FE4FFE
:1008D000808190E00E94EE1CE5CFE8E5EC0FEB3163
:1008E00050F4F0E0EE0FFF1FEC5AFE4F8081918133
:1008F0000E94131DD7CF83E38C0F833198F661E0FC
:100900008C2F0E942D04CECF882381F19CEF980F6D
:10091000913A28F40E94AA0B0E94260C089590E2B6
:10092000980F983050F4877091E001C0990F8A9524
:10093000EAF7892F0E94D30BEFCF9BE5980F9330F6
:1009400028F490E080E00E94EE1C089598E5980F4E
:100950009B3128F490E080E00E94131D089593E3FA
:10096000980F933118F460E00E942D0408951F93AE
:10097000CF93DF93182FEB010E943704209739F4AF
:10098000812F0E948404DF91CF911F9108958FE9F8
:100990009FE00197F1F700C000002197EFCF70E0D2
:1009A00060E0893311F460E570E00E94B7040895B7
:1009B000882321F00E94CD0B0E94260C08958823E5
:1009C00021F00E94D30B0E94260C0895B0E0A0E015
:1009D000ECEEF4E00C9478256C01D62FC72FFC01C7
:1009E0001581068102950F700E94C30BE82E8823A3
:1009F000E9F0E12E1123D1F08C2F807F803451F06B
:100A000080E28D0F8830F8F0011104C08C2F807EB9
:100A10008032C9F080919B0282FF15C082E00E9463
:100A2000890C0E94C30B91E0E82EE926BC2EB294FB
:100A30009FE0B922FBE0FB15B8F1EB2DF0E0EC5D97
:100A4000F94D0C946925E12CF1CF0C2F0F70C07F6C
:100A500011F00295007F112399F0002359F080E2F4
:100A60008D0F883010F0D11107C0802F0E94CD0B60
:100A70000E94260C8D2F5AC0802F0E94E00BF8CFC9
:100A80008D2F0E948404002379F080E28D0F88303E
:100A900010F0D11104C0802F0E94D30B03C0802F0F
:100AA0000E94E60B0E94260CEB2DE850FF0B3497BA
:100AB00020F40E94BE1C0E94C903EE2089F00E940F
:100AC000BF0B80FD0DC0F60115820E94B90B0E947C
:100AD000C307C6010E94F3060E94B90B0E94D30708
:100AE000CDB7DEB7E9E00C9494252C2F2F70F22EB1
:100AF000C07FC03219F0F29480EFF822DD2341F07C
:100B0000D130D1F1112309F444C00023F1F0B2CF68
:100B100080919B0282FD15C0112359F0FF2029F01E
:100B20008F2D0E94CD0B0E94260C80E00E9437047E
:100B3000BBCF80E00E948404FF2009F4B5CF8F2D45
:100B4000ABCF112369F0011104C08F2D0E94D8048E
:100B5000ABCF013009F0A8CF8F2D0E94040CA4CF99
:100B60000111A2CF8F2D0E94DF048F2D0E94100C47
:100B70008F2D0E94F40B98CF112321F0063008F03E
:100B800093CFE3CF053008F08FCF8F2D0E94DF0485
:100B90008BCF0023D1F3D93349F43FEF87EE93E0B5
:100BA000315080409040E1F700C000008D2F0E943E
:100BB00084047ACF8C2F86958695837069F0813076
:100BC00009F072CF8D2F9C2F9370111102C080E01D
:100BD00090E00E94131D68CF8D2F9C2F93701111F0
:100BE00002C080E090E00E94EE1C5ECF612F8D2F4E
:100BF0000E942D0459CF8C2F8370A1F5111154CF71
:100C00004D2F429546954770440F440F2D2F2F705E
:100C100030E0042E02C0220F331F0A94E2F790E066
:100C200080E0D4FF09C08FE090E002C0880F991FD8
:100C30004A95E2F780959095C695C695C370822B2C
:100C4000932BC23049F058F4C13019F00E94930739
:100C50002BCF0E948A0728CF0E949C0725CF0E9495
:100C6000870722CF8695112311F08C2F817088235E
:100C700009F41ACF4D2F429546954770440F440F03
:100C80002D2F2F7030E0042E02C0220F331F0A9444
:100C9000E2F790E080E0D4FF09C08FE090E002C06E
:100CA000880F991F4A95E2F780959095C695C6954D
:100CB000C370822B932BC23049F058F4C13019F025
:100CC0000E94FE07F1CE0E94F507EECE0E940708B3
:100CD000EBCE0E94AB07E8CECF70112329F08C2F0A
:100CE0000E94C3078D2F32CF8D2F0E94DF048C2FDF
:100CF0000E94D307D9CED23F41F160F4D03FB9F082
:100D0000D13F81F0112309F446C00111B3CE8C2FDD
:100D10008F711FC0D33F01F1D43FA1F780919B0297
:100D200082FD24C08C2F8F71112311F312C0112367
:100D300041F0053008F0B8CE8C2F8F710E94E50786
:100D4000B3CE063008F0B0CEF7CF8C2F8F711111D3
:100D5000CFCF0E94C307A8CE112329F08C2F8F710B
:100D60000E94B707A1CE0E94B2079ECE112349F080
:100D7000CF718C2F0E94C30763E08C2F0E946B0CF5
:100D800093CE81E00E94890C023008F48DCE82E07F
:100D90000E94890C89CE002359F0D93309F006CF7F
:100DA000EFEFF7EE23E0E150F0402040E1F7FCCE1A
:100DB0008C2F8F719DCF0F931F93CF93DF93EC01F7
:100DC000688179818D810E94C6088C010E9410087B
:100DD0000E948607B801CE010E94E604DF91CF9100
:100DE0001F910F910895CF93DF93EC018C8188239D
:100DF00099F0CE010E944F03811111C00E94C30BD4
:100E0000882351F08D81882339F080919B0282FFE5
:100E100003C082E00E94890CDF91CF910895CE013A
:100E20000E94DB06CE010E942A03F6CF882321F020
:100E30000E94E00B0E94260C0895882321F00E9456
:100E4000E60B0E94260C089590E080E00E94EE1CC4
:100E500090E080E00E94131D0E94ED0B0E94260C82
:100E60000E941D160E94011608950E94B20B0E9456
:100E7000240708950E94DD0B0E943507089592957E
:100E80009F70963091F058F4925F9F70923058F4B2
:100E9000803F19F030F4883E30F481E008959A5F85
:100EA000F4CF843FD1F380E00895883EB0F3813FD2
:100EB000D1F7F3CFFC012481222339F08081918185
:100EC0000E94BB080E943F07089580E00895A6E0B5
:100ED000B0E0EDE6F7E00C947F252696E2E00C9476
:100EE0009B25A7E0B0E0E7E7F7E00C947F25279685
:100EF000E2E00C949B2508950E947B0708950E94D0
:100F00007C079093E7018093E601089508950E947D
:100F10007F0708952091E6013091E701822B932B02
:100F20000E947F0708952091E6013091E701822316
:100F300093230E947F0708952091E6013091E701F5
:100F4000822793270E947F0708950E947B070895B8
:100F50000E94A50708950E94A8079093E501809339
:100F6000E401089590E080E00E94AB07089521E03D
:100F700030E0A90102C0440F551F8A95E2F7CA016B
:100F80000E94AB07089521E030E002C0220F331F1A
:100F90008A95E2F78091E4019091E501822B932BF1
:100FA0000E94AB07089521E030E002C0220F331FFA
:100FB0008A95E2F7209530958091E4019091E501C2
:100FC000822393230E94AB07089521E030E002C002
:100FD000220F331F8A95E2F78091E4019091E50199
:100FE000822793270E94AB0708952091E401309156
:100FF000E501822B932B0E94AB0708952091E40119
:101000003091E501822393230E94AB07089520913C
:10101000E4013091E501822793270E94AB070895F0
:101020000895262F277091E001C0990F2A95EAF7BD
:1010300023E0769567952A95E1F7660F771F660F8F
:10104000771FFA01E60FF71F50E040E0682F70E0CD
:101050008191DF0111979B01042E02C036952795DF
:101060000A94E2F7217021952827292328272C9319
:101070004F5F5F4F4430510559F70895A82FA7706F
:1010800023E0969587952A95E1F7880F991F880F99
:10109000991FFB01E80FF91F50E040E080E021912B
:1010A00030E00A2E02C0369527950A94E2F72170A7
:1010B0003327042E01C0220F0A94EAF7822B4F5FD8
:1010C0005F4F4430510559F70895262F983070F43A
:1010D000853060F4682F70E085E0989F600D711D89
:1010E000112440ED51E0822F0E9411080895292F0C
:1010F000983068F4853058F490E060ED71E035E0A8
:10110000239F800D911D11240E943E08089580E0C8
:101110000895B0E0A0E0EFE8F8E00C9478257C01B9
:101120000091E4011091E5018091E6019091E701C1
:10113000082B192BCFE0D0E0CC24C394D12CBC2EAB
:10114000C6010C2E02C0880F991F0A94E2F7802373
:101150009123892B49F4219790F7B12C8B2DCDB792
:10116000DEB7E9E00C949425B7018C2F0E94820F22
:10117000019789F3F3CFCF93DF93EC010E948908A5
:10118000BE010E94820FDF91CF9108951F93CF93EC
:10119000DF93EB019091CF01992339F0CB010E94AD
:1011A000BB08DF91CF911F910895882369F0CB018F
:1011B0000E948908182F682FCE010E946508BE0181
:1011C000812F0E94820FEDCFCB010E947708182F4C
:1011D000F6CF1F93CF93DF93C091E80117E0809182
:1011E000E9018C1304C0DF91CF911F910895D0E0E5
:1011F0001C9FF0011D9FF00D1124E651FE4F208130
:101200003181428153816481758186810E94710799
:101210002196C770E4CF20912202309123024091A1
:10122000240250912502609126027091270280913C
:1012300028020E9471070895CF93DF9380912802BE
:10124000807F09F04DC080912702882309F448C0AF
:10125000E091E8015091E901C0912302D09122026E
:10126000609124027091250247E05E17C9F18E2F2C
:1012700090E0E49FF0011124E651FE4F24812223E7
:1012800091F1489FF001499FF00D1124DF01A65113
:10129000BE4F11962C9111972C1325C02C912D1314
:1012A00022C015962C91159721111DC012962D91D3
:1012B0003C91261B370B283C3105A8F4809128026D
:1012C0008F70806180932802E051FE4F80818F7083
:1012D0008061808382E292E00E94F3060E94E90826
:1012E000DF91CF910895FC013196E770BECF482F72
:1012F0002091E8019091E90157E0291302C080E0B4
:10130000089530E0529FF001539FF00D1124E651F3
:10131000FE4F8181681306C08081481303C0858118
:101320008111EECF2F5F3F4F2770E7CFA4E1B0E0F0
:10133000ECE9F9E00C9475258C0186E0F801DE01FA
:101340001F9601900D928A95E1F7D80114968C9121
:1013500014971596EC90159792E2A92E92E0B92E6B
:101360009091260291111FC08823D1F0EE20A9F0A0
:10137000C8010E945A07F82E882379F087E0F80107
:10138000D50101900D928A95E1F7C5010E942404D0
:101390000E941C090E940B093DC0C8010E94F3066F
:1013A000FF24F39437C0F801C080D18082809380FD
:1013B000F09027022091240230912502A401421BC3
:1013C000530BFF2009F403C1483C510508F0B2C09B
:1013D000882301F19091230280912802282F207FF9
:1013E00009F067C0D9121BC0909122029C1117C04E
:1013F000E11059C08F708061809328020E940B0910
:1014000082E292E00E94F30680912802D8011696AB
:101410008C93F12C8F2D6496ECE00C949125E110C7
:1014200042C06D2D8C2D0E947709E82E882371F023
:1014300082E292E00E94F30687E0E2E2F2E0DF015E
:101440001D928A95E9F70E940B09E3CFCF86D88ACF
:101450008F8598890E94BB08292F22952F702430F0
:1014600058F49F70223088F0992399F0F801968102
:10147000907F79F4FE2CCECF2A5F2F70223068F057
:10148000C8010E94F306EF2CF5CF992311F08823B1
:1014900089F3805E883070F3F3CF803F58F3815F2B
:1014A000833070F7E7CF8091280281608093280213
:1014B000B0CFD91214C0909122029C1110C0E1103B
:1014C0000EC016968C93C8010E94F30687E0F801BF
:1014D000A2E2B2E001900D928A95E1F75BCFC801DC
:1014E0000E945A07882309F458CFEE2009F455CFFB
:1014F00080912802803288F02091220230912302CC
:10150000398728879B868A86909126029C871D862C
:101510008E87CE0108960E94F30687E0F801A2E2CA
:10152000B2E001900D928A95E1F70E941C090E9499
:101530000B0936CF90912802292F207F91F4682D36
:101540009A8A898AA6017A899E2D0E94670782E27B
:1015500092E00E94F30687E0F50111928A95E9F77F
:1015600072CF882309F456CF809123028D1111C0C8
:10157000809122028C110DC0E1100BC016969C9335
:10158000C8010E94F30687E0F50111928A95E9F7F8
:1015900041CFC8010E945A07882309F4FECEEE20ED
:1015A00009F4FBCE80912802803208F4B6CF209156
:1015B0002202309123023A8329839C828B8290916C
:1015C00026029D831E828F83CE010196A4CF483CC4
:1015D000510528F5882309F4E3CEFE2CEE2009F40A
:1015E000DCCE809123028D110CC0809122028C11DF
:1015F00008C087E0A2E2B2E001900D928A95E1F77F
:1016000009CFC8010E945A07811187CF8091280213
:10161000816080932802C8010E94F306FBCE682DEA
:101620009A8A898AA6017A899E2D0E94670787E097
:10163000D5011D928A95E9F7ADCEAEE0B0E0E3E2C8
:10164000FBE00C947E25288739874A875B876C8767
:101650007D878E87CE0108960E9496098823B1F077
:101660006C85662341F0288539854A855B857D85B3
:101670008E850E94710717E08091E8019091E90141
:1016800089133DC02E96E3E00C949A2587E0FE0175
:101690003896DE01119601900D928A95E1F78C85BE
:1016A000882349F32091E90130E0C9010196877050
:1016B00099274091E8014817190699F097E0929F01
:1016C000D001939FB00D1124A651BE4FFE0131965B
:1016D00001900D929A95E1F78093E9010E94E90843
:1016E000CACF0E943A071092E9011092E80187E000
:1016F000E2E2F2E0DF011D928A95E9F7BCCF819F1B
:10170000C001112486519E4F0E949609882309F436
:10171000B9CFE091E8011E9FF0011124E651FE4F80
:1017200020813181428153816481758186810E944B
:1017300071078091E80190E0019687709927809366
:10174000E8019ACF682F80910001909101010E94D9
:10175000801D0895682F80910001909101010E94E1
:10176000831D089580910001909101010E94861DC2
:101770000895809131028695869586950895809189
:1017800031028770089590913102977081E009F4D9
:1017900080E0089580913D02089590913D02892B4B
:1017A00080933D020895809590913D0298239093F7
:1017B0003D02089580933D02089510923D020895E0
:1017C00090913C02892B80933C02089580959091E2
:1017D0003C02982390933C02089510923C02089595
:1017E00008950E94F00B089590913202292F28232A
:1017F00031F080958923809332020E94F10B089585
:1018000008950E94000C089590913302292F2823F7
:10181000281729F0982B909333020E94010C089509
:1018200090913302292F282331F0809589238093CA
:1018300033020E94010C089580913302882329F01D
:101840001092330280E00E94010C0895CF93DF9341
:10185000E0910001F091010180913D028083E091CF
:101860000001F0910101808190913C02892B8083DD
:1018700090913302992381F0E0910001F0910101F0
:101880008081892B808380910001909101010E94C9
:10189000381D81110E941C0CC0910001D0910101E2
:1018A00048E050E069E272E0CE010E94BA25892B3F
:1018B00059F088E0FE01A9E2B2E001900D928A950C
:1018C000E1F7CE010E94D51CDF91CF9108950895D4
:1018D0000E94670C089590919B0292FF11C098E0BE
:1018E000899F90011124622B609331020E94C307EB
:1018F000809131028695869586950E94680C0895A0
:101900000E94C30708951092310280E00E94680C83
:101910000895909131028095892380933102282F78
:10192000277069F4891759F090919B0292FF07C0C4
:101930008695869586950E94D3070E94830C08950C
:1019400090919B0292FB222720F9281769F080FBD7
:1019500092F990939B0280919A0290919B020E942F
:10196000E80C82E00E94890C089580919B0282FB22
:10197000882780F991E089270E94A00C089581E0D2
:101980000E94A00C089580E00E94A00C08956FEFC3
:101990007FEF90E080E00E940C26089590E080E0C8
:1019A0000E94D82521E0863E9E4F09F020E0822F3C
:1019B000089582E090E00E94D025089583E090E0B1
:1019C0000E94D025089584E090E00E94D8250895D3
:1019D000BC0184E090E00E940C260895AB01BC019C
:1019E0008FE090E00E9400260895AB01BC0183E1E6
:1019F00090E00E940026089560E070E0CB010E9414
:101A0000F50C089560E070E0CB010E94EE0C0E949E
:101A1000FC0C0895A8E0B0E0E0E1FDE00C947F2527
:101A200066EE7EEF90E080E00E940C2660E082E0AF
:101A300090E00E94EE2560E083E090E00E94EE25B9
:101A40001092E7011092E60160E074E184E090E01A
:101A50000E940C2660E086E090E00E94EE256FEF89
:101A600087E090E00E94EE2540E050E0BA0188E077
:101A700090E00E94002660E084E290E00E94EE2563
:101A800060E087E190E00E94EE2560E08CE090E06D
:101A90000E94EE2560E08DE090E00E94EE25198224
:101AA0001A821B821C821D821E821F82188648E0B9
:101AB00050E068E170E0CE0101960E94DE2540E032
:101AC00050E0BA0180E290E00E9400260E94020DE0
:101AD0002896E2E00C949B250E940A0D08958EE062
:101AE00090E00E94D02591E0811101C090E0892F03
:101AF0000895682F8EE090E00E94EE250895A6E0FC
:101B0000B0E0E5E8FDE00C947D250E943C1E8C01D0
:101B100080913E0290913F028017910781F01982D7
:101B20001A820E943C1E682F49815A81792F80E0D9
:101B300090E00E94F40310933F0200933E02269629
:101B4000E4E00C9499250E94921060934C027093EB
:101B50004D0280934E0290934F026093480270931F
:101B6000490280934A0290934B0208950895089584
:101B70000E94B70D089508950E94BB0D089581E05D
:101B800008958CEA90E10E94B41C0E94B60D0E9458
:101B9000B80D08950E949B120895089508950E941B
:101BA000CD0D0E94CE0D08950E94D8100E94C8034A
:101BB0000E94B11708950E94331E0E946C100E946B
:101BC000B3120E94C8110E94D40D0E943B170E94BC
:101BD000C3120E94BC0D0895A6E0B0E0E2EFFDE064
:101BE0000C9476250E94BF0D81110CC00E947F0DC0
:101BF0000E949B120E943F160E94DB032696EBE098
:101C00000C9492250E941C1280E4A82E82E0B82E2B
:101C1000750110E0F70101917F01812F0E94FE10F4
:101C20001F5F183009F441C00817A1F380915002DA
:101C300081FD0E9404110E94CA0DC82E10E0992453
:101C40009394812F0E94FE10082FF50181915F016E
:101C5000081729F1D02ED826F12CEE24E3948D2DEF
:101C60008E21A9F0CC2099F0F9821A830E943C1EA3
:101C70009C838B839D8291E0802F8E2109F490E0DC
:101C800049815A816B817C818D810E94F403F39498
:101C9000EE0CF5E0FF12E3CFF501319700831F5FF3
:101CA000183079F60E94A30DA3CF0813BFCF9ECFA3
:101CB0001F93CF93DF930E94870FEC01C11580E53E
:101CC000D807F0F5C11580E4D80708F09CC0C03EE5
:101CD000D10520F5CD3CD10508F082C0C83AD10528
:101CE00078F4C53AD10508F073C0C130D10519F1B7
:101CF000209709F1C430D105F0F4D0E0C0E01BC05A
:101D0000C33CD105D0F7C85AD0E0CC0FDD1FC35774
:101D1000DE4F0990D881C02DD4640DC0C11580E27A
:101D2000D80708F0D1C0C11581E0D80708F05AC023
:101D3000C83ED10510F7CE01DF91CF911F910895D4
:101D4000C03682E5D80718F5C03482E5D80708F018
:101D50006BC0C03282E5D80708F05FC0C11582E5CC
:101D6000D80708F497C02C2F2695269580E2289F47
:101D7000900111248C2F8370C1E0D0E002C0CC0F01
:101D8000DD1F8A95E2F7C22BD32BDD68D4CFC03A92
:101D900082E5D80760F4C03882E5D80708F459C056
:101DA000CF71D0E0DC2FCC27C46FD06AC4CFC03C49
:101DB00082E5D80708F462C0C03E82E5D80708F083
:101DC0009CCFDC2FCC27CC27DF71C06FD06AB3CF7C
:101DD000C55AD0E0CD53DE4FC881D0E0D064ABCF40
:101DE000D065A9CF8D2F0E942910182FCE019927D9
:101DF0000E94870FC12FD0E0DC2FCC27CC27DF71CA
:101E0000C82BD92B98CFCE0199270E94870FCC27BA
:101E1000DF70C82BD92BD06A8ECFCF71D0E0DC2FEA
:101E2000CC27C16FD06A87CF2C2F26952695277097
:101E300080E2289F900111248C2F8370C1E0D0E0B4
:101E400002C0CC0FDD1F8A95E2F7C22BD32BDC68D2
:101E500072CF2C2F26952695277080E2289F90011F
:101E600011248C2F8370C1E0D0E002C0CC0FDD1FA5
:101E70008A95E2F7C22BD32BDA685DCF8C2F8F7156
:101E80000E942910C82FD0E0DC2FCC27CC27DF718F
:101E9000D06251CF8C2F8F710E94291055E0D695BA
:101EA000C7955A95E1F7CF70D0E0DC2FCC27282FCB
:101EB00030E084FF05C044E0220F331F4A95E1F76C
:101EC000C22BD32BD06937CF8D2F8F710E94291051
:101ED000182FCE0199270E94870FC12FD0E0DC2F49
:101EE000CC27CC27DF71C82BD92BD2CF462F783007
:101EF00030F4653020F4672F0E944602089590E088
:101F000080E008950E94760F0E94580E089582384E
:101F10009105B9F1B0F48133910509F47DC048F41D
:101F20008932910509F46DC08A32910509F47BC0AC
:101F300008958533910509F45FC08933910509F14E
:101F40000895833E9105D9F138F4803E910529F139
:101F5000823E910579F10895863E9105D9F1873E3B
:101F6000910509F43EC0843E910541F520919B0204
:101F700021FF24C080919A0284FD19C087EE90E071
:101F8000089520919A02237009F05AC020919B0273
:101F900023FF14C089E290E0089520919A0220FD69
:101FA00038C030919B0230FF09C024FF43C090E04D
:101FB00080E0089520919A0222FDF7CF08952091A4
:101FC0009A0222FD3AC030919B0230FD39C024FFB5
:101FD000F5CFEDCF20919A0223FFF0CF24FDE7CF7C
:101FE000CDCF20919A0223FD2EC030919B0231FF6C
:101FF000EECF84EE90E0089520919A0225FFDECF87
:10200000C9CF20919A0225FD21C020919B0223FF78
:10201000D5CF89E390E0D2CF20919A0226FFCECF90
:102020008AE290E0089520919A0226FFC7CF81E3CB
:1020300090E0089583EE90E0089582EE90E0089598
:1020400080EE90E0089586EE90E0089585E390E0BC
:10205000089590919A0292FF06C0282F2871283087
:10206000F9F4877F846093FF06C0282F28712831F8
:10207000F1F4877E846120919B0220FF06C0382FF7
:1020800038713830D9F4877F816021FF06C0282F4E
:1020900028712831D1F4877E816194FD877E08956F
:1020A000282F24712430F9F68B7F8860DCCF282F0D
:1020B0002471243101F78B7E8861DDCF382F317197
:1020C000313019F78E7F8860E0CF282F21712131C0
:1020D00021F78E7E8861E1CF1092960210929702CE
:1020E00010929802109299020895CF92DF92EF9287
:1020F000FF926B017C010E949B1281110EC00E9415
:10210000481EC61AD70AE80AF90AC0929602D09267
:102110009702E0929802F0929902FF90EF90DF9080
:10212000CF9008950F931F930E949B12882329F04C
:102130000E94481E1F910F9108950E94481E009111
:102140009602109197022091980230919902600FA7
:10215000711F821F931FEECF80E008950E94C70C6D
:102160000895CF930E941C122FEF86E791E0215033
:1021700080409040E1F700C000000E941C120E94C5
:102180009812C4E08111C0E08C2F0E94FE1090E0F4
:1021900002C095958795CA95E2F780FF04C00E941A
:1021A000AE100E94A31ECF9108950E94B110089511
:1021B0000E94CE0C811102C00E946C0D0E94D90CAD
:1021C000809350020E94E30C90939B0280939A02AA
:1021D0000E94D5100E94DE0C90E00E94870780913B
:1021E000E4019091E5010E94A807089508950E94D6
:1021F000F610089508950E94FA100895E82FF0E06F
:10220000EB55FD4F80810895089508950E940511B2
:102210000895EF92FF921F93CF93DF9300D000D0E9
:10222000CDB7DEB70E949B12182F6091AD028823B4
:1022300009F447C019821A821B821C82862F90E003
:102240009E012F5F3F4F7901B9018B559D4F0E9431
:10225000D1128823E9F080919C0290E044E050E0A4
:10226000B7018B559D4F0E94BA2521E02093510262
:10227000892BC9F410E00E94FB10812F0F900F9062
:102280000F900F90DF91CF911F91FF90EF900895E5
:1022900080915102882371F384E0F70111928A95AD
:1022A000E9F710925102E0919C02F0E0EB55FD4FEE
:1022B00089819A81AB81BC8180839183A283B3831E
:1022C000DACF70E06B557D4F80919C0290E08B558A
:1022D0009D4F0E9458130E940611CFCF1F93CF939A
:1022E000DF9322E031E0C1E0D0E0D90150E040E0EE
:1022F0008D918F3F91F0E82FE295EF70F0E011A102
:102300008F70BE0101C0660F8A95EAF7962F9095EF
:10231000912391A382A1862B82A34F5F5F4F45300B
:10232000510531F72B5F3F4F81E026313807E9F641
:10233000DF91CF911F910895CF93DF93AC01A62F2A
:10234000B0E085E0689FF0011124EE5FFE4F75E07C
:1023500081E060E091919F3FC9F0C92FC295CF7095
:10236000D0E028A130E09F7002C0359527959A955E
:10237000E2F720FD0BC0282F622B880F715051F718
:10238000A40FB51F6C93DF91CF91089520E0F4CF97
:10239000A4E1B0E0EEECF1E10C947F258091160110
:1023A000811126C084E1E0E4F1E0DE0111960190A4
:1023B0000D928A95E1F7FE013196A2E0B1E0CE01DF
:1023C000459620812C93218111962C93119722817F
:1023D00012962C931297238113962C931397248192
:1023E00014962C931497359615968E179F0749F7D8
:1023F0008091160194E0811190E09093AD0284E009
:10240000891B80939C020E946E1188E0E5EAF2E04D
:10241000DF01982F1D929A95E9F7EDE9F2E0DF01CF
:102420001D928A95E9F784E00E945A120E94F710E3
:102430006496E2E00C949B25A8E0B0E0E2E2F2E1D1
:102440000C947C258E010F5F1F4F88E0F8011192DC
:102450008A95E9F7F12C6F2DC8010E949C11F39425
:10246000F4E0FF12F8CF48E050E0B8018DE992E0C7
:102470000E94BA2521E0009709F420E0892B41F061
:1024800088E0F801ADE9B2E001900D928A95E1F79C
:102490006091AD0270E06B557D4F44E08DE992E0B4
:1024A0000E945B12182F0E940911812B2896E5E0EB
:1024B0000C9498250895CF92DF92EF92FF920F939C
:1024C0001F93CF936C017B01042F222349F081E0FD
:1024D000809354020E943C1E9093530280935202B8
:1024E000C0915402C1110AC0C0E08C2FCF911F913E
:1024F0000F91FF90EF90DF90CF900895809152025E
:10250000909153020E94541E059770F310E0A801A9
:10251000B601C7010E94BA25892B41F0A801B60176
:10252000C7010E94C72510925402DFCFC0E0FBCF45
:102530000E946F0D089580915702811107C00E947B
:102540004825882351F081E08093570281E09091E3
:102550005702913009F080E0089582E0809357029D
:102560000E944325F3CF0E94CE0C811102C00E942D
:102570006C0D0E949812809316010E949B1281118B
:102580000E94071308950E949B12811102C00E94AD
:102590000A13089581E0909158029A3008F080E083
:1025A00008950F931F93CF93DF93EC018B018091DC
:1025B00058028A30B8F4B801CE010E945513C82FD2
:1025C000811122C0809158028F3FB9F40E943C1EB5
:1025D00090935602809355028C2FDF91CF911F91DB
:1025E0000F91089580915502909156020E94541EB9
:1025F000843F914000F7C0E0EFCF8F5F8093580297
:102600008A3020F7C1E0E8CF10925802E5CF0E944F
:10261000521B08950E94551B0895B0E0A0E0E3E12D
:10262000F3E10C947A257901C82F880FDD0B411551
:102630005105A9F0FE0193E0EE0FFF1F9A95E1F717
:10264000E95EFE4F81819281875A9D4F208130E063
:102650004217530708F49A01A9010E94C725CE0129
:102660000E943E1CD82E8823D1F001151105B9F027
:1026700083E0CC0FDD1F8A95E1F7FE01E95EFE4F96
:10268000438150E00417150708F4A801C95EDE4F26
:102690006C817D81675A7D4FC7010E94C7258D2DB2
:1026A000CDB7DEB7E7E00C9496250E944F1408954D
:1026B0000E9466140895A4E0B0E0E1E6F3E10C9412
:1026C0007D2560916E0270916F02809170029091F1
:1026D00071020E94631E11E0643671058105910547
:1026E00018F10E9492106E5F7F4F8F4F9F4F69834A
:1026F0007A838B839C8310E000E030E020E044E0AC
:1027000050E0BE016F5F7F4F82E00E940D13182FD3
:10271000882351F00E94481E60936E0270936F02EE
:102720008093700290937102812F2496E4E00C94C0
:102730009925B0E0A0E0EFE9F3E10C9477257C0166
:102740005B016A010E94CA1201E010E0882311F0C7
:102750000AE010E0C1E0D0E0B501C701F60109953B
:10276000811104C021960C171D072CF4CDB7DEB7DC
:10277000EAE00C949325CC9F9001CD9F300D300D55
:10278000112490E080E045E34A95F1F700000196BE
:1027900082179307C1F7E0CFA5E0B0E0E2EDF3E1E7
:1027A0000C9477255B01E090C601F090C70101E031
:1027B00010E09E012B5F3F4F50E040E070E060E092
:1027C00080E00E940D13182F882309F44BC0670185
:1027D0008FEFC81AD80A60916A0270916B028091DB
:1027E0006C0290916D020E94631E64367105810532
:1027F000910580F104E010E09E012F5F3F4F50E013
:1028000040E070E060E081E00E940D13F82E64E08B
:1028100070E0C6010E943C1711E09D81981310E002
:102820001F2159F10E94481E60936A0270936B0247
:1028300080936C0290936D0289819A81AB81BC81F7
:102840008093660290936702A0936802B093690236
:1028500011E013C064E070E0C6010E943C179D8146
:102860008913C8CFF70181819281A381B4818983C3
:102870009A83AB83BC831111DFCF80916602909164
:102880006702A0916802B0916902F501808391838B
:10289000A283B383812F2596EAE00C9493250F93AE
:1028A0001F93CF93DF93EC018B014CEC53E10E941B
:1028B0009913882331F04BE553E1B801CE010E9412
:1028C0009913DF91CF911F910F9108950F931F934B
:1028D000CF93DF93C091C601D091C701CE0101967D
:1028E00024E0FB01DC0101900D922A95E1F764E000
:1028F00070E00E943C1788836D817E818F8198856E
:10290000009162021091630220916402309165028D
:10291000601771078207930751F06093620270930A
:10292000630280936402909365020E947510DF91A8
:10293000CF911F910F9108950E9419200E94DB0DE5
:102940000E94262008950E942B200E94EC0D0E94D8
:10295000452008950E94D51D0E94FF1F0E94C10DB1
:102960000E949C140E94A3140E94CF0DFBCF809163
:10297000780280FF0DC06091340170E0660F771F10
:102980006038710570F56115710569F1862F08953C
:1029900081FF07C06091340184E0689FB001112479
:1029A000EFCF6091340182FD0AC0809177028823C5
:1029B000A9F02091330160913401821710F088E072
:1029C000ECCF869FC001112433E0880F991F3A9500
:1029D000E1F7622F70E00E945525D2CF68E070E0E9
:1029E000D5CF8FE7089581E008958091780280FF28
:1029F0000CC06091300170E075956795759567958D
:102A00006115710549F1862F089581FF06C0609117
:102A1000300170E075956795F3CF6091300182FDCC
:102A20000BC0909176029923A1F060912F018091C3
:102A30003001961738F0682F70E06038710500F3A8
:102A40008FE70895899FC001112470E00E945525E9
:102A5000F4CF61E070E0D7CF81E008958D3C31F490
:102A60000E94B714819580937C0208958E3C19F4DE
:102A70000E94B714F8CF8F3C31F40E94B7148195AF
:102A800080937B020895803D19F40E94B714F8CF1B
:102A9000893D29F40E94F51480937D0208958A3DB2
:102AA00021F40E94F5148195F7CF8B3D31F40E94FB
:102AB000F514819580937E0208958C3D19F40E944F
:102AC000F514F8CF9FE2980F983070F4815D990B60
:102AD00021E030E001C0220F8A95EAF780917A0266
:102AE000822B80937A0208958D3D31F48091780293
:102AF00081608093780208958E3D21F48091780260
:102B00008260F7CF8F3DB9F7809178028460F1CF72
:102B100040917B028D3C59F480917C0287FF0DC06F
:102B200010927C0241110BC01092770208C08E3CBB
:102B300081F480917C0218169CF3442381F08091EB
:102B40007D0290917E02892B09F05AC01092760284
:102B500008958F3C49F447FFF0CF10927B0280919B
:102B60007C028111ECCFE0CF803D19F41416ACF358
:102B7000E4CF90917D02893D29F41916F4F6109264
:102B80007D02DBCF8A3D19F497FFD7CFF8CF909124
:102B90007E028B3D29F497FFD0CF10927E02CDCFDD
:102BA0008C3D19F41916CCF3C8CF9FE2980F9830DA
:102BB00090F4815D990B21E030E0B90102C0660F0D
:102BC000771F8A95E2F7CB01809590917A0289234D
:102BD00080937A02B2CF8D3D31F4809178028E7F5E
:102BE00080937802AACF8E3D21F4809178028D7F68
:102BF000F7CF8F3D09F0A1CF809178028B7FF0CF86
:102C000008950E943C1E9C0190917B0280917C0261
:102C1000982B21F0309375022093740290917D02DD
:102C200080917E02982B21F03093730220937202E0
:102C300089E792E00E94E01C089586E0E9E7F2E06F
:102C4000DF011D928A95E9F71092770210927602C1
:102C5000109278020895FC01828181110EC0838157
:102C600081110BC08481811108C091E0858181119F
:102C700001C090E0892F8170089581E0FCCFA6E02B
:102C8000B0E0E5E4F6E10C947E2586E0E9E7F2E0C9
:102C9000DE01119601900D928A95E1F710927B0268
:102CA00010927C0210927D0210927E028B819C8198
:102CB000892B89F080917402909175020E94541EB4
:102CC000AC01909177029923C9F180913501841765
:102CD000150608F440C08D819E81892B91F080916A
:102CE0007202909173020E94541EAC019091760280
:102CF000992309F471C0809131018417150608F4F5
:102D000079C0BE016F5F7F4F89E792E00E948D1D01
:102D1000811105C089E792E00E942B1681110E9463
:102D2000011686E0FE013196A9E7B2E001900D920E
:102D30008A95E1F72696E3E00C949A2520913601D6
:102D40008AE0289F900111242417350720F69F5F01
:102D50009093770202C09F3FD1F71B81112359F056
:102D60000E94B7149FEF11160CF491E0899F802DFB
:102D7000112480937B021C81112359F00E94B71407
:102D80009FEF11160CF491E0899F802D1124809300
:102D90007C0230917B02332309F49DCF20917C0289
:102DA000222309F498CF45EB3403C0011124992361
:102DB00059F090937B0245EB2403900111243323B7
:102DC00039F030937C0287CF81E080937B02F3CF90
:102DD00081E080937C027FCF209132018AE0289F9E
:102DE000900111242417350708F08BCF9F5F909333
:102DF000760202C09F3FD1F71D81112359F00E9436
:102E0000F5149FEF11160CF491E0899F802D112489
:102E100080937D021E81112359F00E94F5149FEFCB
:102E200011160CF491E0899F802D112480937E026D
:102E300030917D02332309F464CF20917E02222356
:102E400009F45FCF45EB3403C0011124992359F0F5
:102E500090937D0245EB240390011124332339F034
:102E600030937E024ECF81E080937D02F3CF81E0EC
:102E700080937E0246CF0895FC01680F791F8FEF83
:102E800091E36E177F0709F408952191822728E0C6
:102E900030E087FF06C0880F892721503109C9F724
:102EA000F0CF880FFACFFB012581222341F097FF55
:102EB00006C09F77BC0190E080E00E949A1881E0F4
:102EC00008950F931F93CF93DF93EC018B01FB01C8
:102ED00085818823B1F00E94CA0B8272FE01E05303
:102EE000FC47E830F10568F4E05DF94D0C94692584
:102EF000811104C081E003C08111FCCF8FEF0E94DB
:102F0000BA17B801CE010E945317DF91CF911F91DC
:102F10000F91089580E00E94C217F3CF81E0FBCFAC
:102F200082E0F9CF83E0F7CF84E0F5CF85E0F3CFFF
:102F30009091AF02923071F48A3050F490E009968B
:102F40006AE070E00E945525875A0E94CF040895D8
:102F50008650FBCF0E941B1A089508950E94AD175A
:102F600008958CE090E00E94D0258093AF020E94EB
:102F7000AE17089508956091AF028CE090E00E9432
:102F8000EE250895CF93C82F8093AF020E94BB1700
:102F90008C2F0E94AE17CF9108950E94D21C80936F
:102FA000AE029091AF02913029F481FF03C089E312
:102FB0000E94CF040E94CA0B8093B0020E94DD0BD6
:102FC0000E94ED0B8091AF02823021F158F48823EA
:102FD000C1F08130D1F08FE39CE90197F1F700C097
:102FE00000000895843051F18530A9F78BE191E01C
:102FF0000E94CA0285E290E00E94CA0288E290E044
:1030000006C082EE0E943704E6CF88E193E00E947A
:10301000CA02E1CF8091AE0280FD03C083E50E9429
:10302000CF0482EE0E9437048FE39CE90197F1F709
:1030300000C0000087E50E94CF04CDCF86EE0E943D
:10304000CF0488E1F8CF8091AF02823011F148F4CB
:10305000882381F0813091F08091B0020E94DA0BD8
:1030600008958430F9F08530B9F788E290E00E9445
:10307000CA02F2CF82EE0E948404EECF8CE20E945C
:10308000CF048091AE0281FFE7CF89E30E94CF0495
:10309000E3CF82EE0E9484048091AE0280FDDCCFFB
:1030A00083E5F4CF88E2F2CF8F929F92AF92BF92E6
:1030B000EF92FF920F931F93CF93DF934B015C012D
:1030C000D091AF028CE1E82EF12C07E010E021E076
:1030D000D501C4010E2C04C0B695A7959795879588
:1030E0000A94D2F7C82FCF70222339F0D43051F48C
:1030F000CA3040F080E00E9498178C2F0E949817E9
:1031000020E005C0C111F9CF04301105B4F301501E
:10311000110984E0E81AF1080F3F1007C9F6DF91A2
:10312000CF911F910F91FF90EF90BF90AF909F9024
:103130008F900895CF92DF92EF92FF926B017C0106
:10314000C114D10481E1E806F104A0F5C114D10451
:1031500081E0E806F10420F08091AF02823051F165
:103160000E94CD17C114D10481E0E806F10438F1C2
:103170008091AF02811123C081E0E81AF108C701F4
:10318000B6012AE096958795779567952A95D1F7A8
:1031900078528F4F9F4F0E94541883E0D822EE241C
:1031A000FF24C701B60174528F4F9F4F0E945418DD
:1031B0000E942318FF90EF90DF90CF900895C701F1
:1031C000B601F4CFCF93DF93EC01FB018581882317
:1031D00009F4D2C09E0130572332310508F0B2C045
:1031E0000E94E30C90939B0280939A02FE01E150AF
:1031F000F047E232F10520F4E85CF94D0C946925C2
:1032000080919A02816080939A0293C080919B0280
:10321000886080939B028DC080919A028260F3CF78
:1032200080919A028460EFCF80919A028860EBCF00
:1032300080919B028160EDCF80919B028260E9CFFB
:1032400080919A028061DFCF80919A028062DBCF09
:1032500080919A028064D7CF0E943A0780919A02A7
:103260008068D1CF80919A028C60CDCF80919B02F3
:103270008360CFCF80919A028E7FC5CF80919B02D1
:10328000877FC7CF80919A028D7FBDCF80919A02B0
:103290008B7FB9CF80919A02877FB5CF80919B02B7
:1032A0008E7FB7CF80919B028D7FB3CF80919A02A2
:1032B0008F7EA9CF80919A028F7DA5CF80919A02AF
:1032C0008F7BA1CF0E943A0780919A028F779BCF84
:1032D00080919A02837F97CF80919B028C7F99CFB8
:1032E00080919A0282FB992790F921E0922790FB26
:1032F00082F990FB83F987CF80919B02982F90955C
:1033000091708E7F892B90FB81F983CF90919A02E7
:10331000892F8F7B96FF806476CF0E943A07909129
:103320009A02892F97FB87F980586DCF81E00E9420
:10333000790D80919A0290919B020E94E80C0E9464
:103340003A0780E0DF91CF91089580E0F0CF90912F
:103350009A02892F8F7E94FF806155CF90919A02B7
:10336000892F8E7F90FF81604ECF90919B02892F95
:10337000877F93FF88604DCF81E0E4CFB0E0A0E08D
:10338000E4ECF9E10C947A25E82FF0E0E45CFD4FE1
:10339000D490282F26952695269530E0F901E45201
:1033A000FD4F0491877010E0082E02C01595079517
:1033B0000A94E2F701701127F901E453FD4FE490FC
:1033C000F12C082E02C0F594E7940A94E2F791E0FC
:1033D000E922FF24F901E454FD4FC491D0E002C07A
:1033E000D595C7958A95E2F7C170DD2701151105BE
:1033F00019F081EE0E943704E114F10419F086EE11
:103400000E9437048D2D0E94CF04E114F10419F0BD
:1034100086EE0E9484040115110519F081EE0E94C8
:103420008404CD2B19F08CE20E94CF04CDB7DEB717
:10343000E7E00C949625982F9F709A50963020F0D4
:10344000805D0E94BE190895895AFBCFCF93DF9308
:10345000EB0186319C4711F50E94CA0B9D8199238F
:1034600099F08A7A91E009F490E090937F028111BB
:1034700009C089E20E94A20B0E94260C80E0DF9125
:10348000CF91089585E3F6CF80917F02811104C02A
:1034900089E20E94AA0BF0CF85E3FBCF81E0EFCF5A
:1034A0000F931F93CF93DF93C42FD22FFC018581FD
:1034B0008823C9F0409382020E943C1E90938102AF
:1034C0008093800280E28C0F883040F4C77081E0E6
:1034D00001C0880FCA95EAF70E94D804DF91CF9106
:1034E0001F910F91089510918202141332C08091A0
:1034F0008002909181020E94541E883C910548F5FB
:10350000C0E2CD0F1D17B9F080E2810F883040F482
:10351000177081E001C0880F1A95EAF70E94DF0456
:10352000C83048F481E09D2F977001C0880F9A95AC
:10353000EAF70E94D804802F0E94CF04C83070F6AA
:10354000D77081E001C0880FDA95EAF70E94DF04A6
:10355000C5CF80E28C0F883008F6C77081E001C0CB
:10356000880FCA95EAF7F2CF0F93DB0188519C4789
:1035700087309105A0F5FC01E65AF94D0C946925B8
:1035800006E221EE41EE6AE17CE7CD010E94501A8D
:1035900080E00F91089507E225EE45EE6BE17CE7B0
:1035A000F4CF06E221EE40EE68E17CE7EECF07E2E1
:1035B00025EE44EE69E17CE7E8CF06E221EE42EE3B
:1035C0006CE17CE7E2CF07E225EE46EE6DE17CE7B9
:1035D000DCCF08E221E045EE6EE17CE7D6CF159620
:1035E0008C91882319F010928202D3CF81E0D1CF41
:1035F0008EE14A9B02C08150E1F74A9BFECF0895BD
:103600005A9880E28A95F1F75A9A0895FC013BE0B6
:103610003A95F1F798E020E080E031E040E14A950A
:10362000F1F7880F4A9B02C08160232742E04A9548
:10363000F1F7000040E14A95F1F7915079F790E1F8
:103640009A95F1F799B132E03A95F1F7000040E12F
:103650004A95F1F792FB992790F992272081920FD2
:1036600090830895A1E0B0E0E8E3FBE10C947B25B2
:1036700019828C017C01E60EF11C0E151F0541F428
:1036800081E09981911180E02196E6E00C949725E4
:103690000E94F81ACE0101960E94061BF801819340
:1036A0008F01EBCF529A5A9A089552985A9AEA9AF1
:1036B000E9E6F0E080818F7C808308956150770B8C
:1036C00091E001C0990F6A95EAF720E031E091118D
:1036D00008C0222391F05A9A80E28A95F1F75A980D
:1036E0000895492F482339F05A9A232740E24A95F2
:1036F000F1F79695ECCF5A98F9CF5A98EDCFFF9203
:103700000F931F93CF93DF93EC018C01060F111DD4
:10371000C017D10729F4CDB7DEB7E5E00C949825A2
:10372000F9900E94001B68E08F2D0E945E1BF0CF75
:103730001F920F920FB60F9211240F931F932F9386
:103740003F934F935F936F937F938F939F93AF9329
:10375000BF93EF93FF93CF93DF930F92CDB7DEB775
:1037600019820E94F81ACE0101960E94061B082FAA
:10377000069506950695282F22952570902F957011
:10378000290F922F937026952695920F9827977060
:103790008981982B09F05CC0043008F059C080E1A1
:1037A0008A95F1F75A9A529A82E08A95F1F700C009
:1037B0005A9888E0089F80011124D801A95EBE4F65
:1037C0001696ED91FC9117973097A9F06091C6017C
:1037D0007091C70114962D913C911597260F371FB4
:1037E00011968D919C911297680F791F13964C91A9
:1037F00013978C910995F801E95EFE4F638166236A
:1038000051F02091C6013091C70184819581820FCA
:10381000931F0E947F1B0E94001B80E18A95F1F795
:103820005A9852985A9A80E18A95F1F7F801E95E20
:10383000FE4F6081662351F02091C6013091C7018F
:1038400081819281820F931F0E94321B0E94F81A7D
:103850000F90DF91CF91FF91EF91BF91AF919F9129
:103860008F917F916F915F914F913F912F911F9118
:103870000F910F900FBE0F901F9018950F931F93ED
:10388000CF93DF93EC0104970CF04CC0F894529A5C
:103890005A9885E08A95F1F700009C2F96959570CF
:1038A0008C2F8570980F892F83709695969523E0BD
:1038B000CC0FDD1F2A95E1F7980F8E01092B0E948E
:1038C000001B00C068E0802F0E945E1B80E18A958B
:1038D000F1F752985A9A4A9B1EC087E090E04A99A5
:1038E0001CC0FE01E95EFE4F63816623F9F0209162
:1038F000C6013091C70184819581820F931F0E9478
:10390000321B811113C0529A5A9A7894DF91CF9149
:103910001F910F91089500C0DECF019729F4529AAC
:103920005A9A789480E0F2CF00C0D9CF0E94F81A5A
:1039300080E28A95F1F75A98529A80E18A95F1F7D8
:10394000C95EDE4F6881662351F02091C601309137
:10395000C70189819A81820F931F0E947F1B0E9459
:10396000001B789481E0D2CF9093C9018093C80165
:103970000895909389028093880208950E949B1273
:10398000811103C0809183020895E0918802F09133
:103990008902309729F00190F081E02D0995089572
:1039A00080E008950E94BE1C0895E0918802F09185
:1039B0008902309721F00280F381E02D0995089566
:1039C000E0918802F0918902309739F022E0DC0121
:1039D0002C930480F581E02D09950895A3E0B0E0D3
:1039E000E4EFFCE10C947F25209186023091870260
:1039F00028173907A1F09093870280938602E091FF
:103A00008802F0918902309751F023E029839B834B
:103A10008A830680F781E02DCE01019609952396D1
:103A2000E2E00C949B25A3E0B0E0E9E1FDE10C9419
:103A30007F25209184023091850228173907A1F053
:103A40009093850280938402E0918802F09189022C
:103A5000309751F024E029839B838A830680F78185
:103A6000E02DCE01019609952396E2E00C949B256A
:103A70009C012E5F3F4FAC01485F5F4F80E02417F1
:103A8000350709F40895F90191919F019923B9F33C
:103A90008F5FF5CF662349F0FC013296089621919D
:103AA000261729F0E817F907D1F780E0089581E09B
:103AB00008959C01FC0132969FEF80E041914617EA
:103AC00051F09F3F19F4411101C0982F8F5F86304C
:103AD000A9F79F3F09F40895290F311D97FD3A95E5
:103AE000F90162830895FC0132960896219126130C
:103AF00003C0DF0111971C92E817F907B9F7089581
:103B00000E94591D08950E94731D0895029626E093
:103B1000FC0111922A95E9F7089546E050E00E94D1
:103B2000BA2521E0892B09F420E0822F0895089519
:103B30000E94971D0895811106C081E080938A023A
:103B40000E94981D089582E0F9CF83E080938A0255
:103B50000E94981D08950E949B1D089581E0809306
:103B60008A020E94981D08950E94AE1D089508952E
:103B700008950E94B81D0895089508950E94B71DE4
:103B80000895CF930E94BC1D0E941C120E94BD1D6F
:103B9000C0E08C2F0E94FE10811105C0CF5FC8309D
:103BA000C1F7CF91089581E0FCCF85B7806885BFCC
:103BB00085B7806885BF08951F921FB61F92112494
:103BC0008F939F93AF93BF9380918B02811113C00A
:103BD0008091B1029091B202A091B302B091B4026F
:103BE0004196A11DB11D8093B1029093B202A093A2
:103BF000B302B093B402BF91AF919F918F911F9088
:103C00001FBE1F9018958091B902843031F10E9437
:103C1000AB0310928B0288E190E020E40FB6F89499
:103C2000A895809360000FBE2093600083B7817FCA
:103C3000846083BF83B7816083BF7894889583B79E
:103C40008E7F83BF0FB6F894A8958091600088613D
:103C500080936000109260000FBE08950E943A07A2
:103C60000E94B003089582E084BD93E095BD9AEF71
:103C700097BD80936E0008952FB7F8948091B1029C
:103C80009091B202A091B302B091B4022FBF0895F7
:103C90002FB7F8946091B1027091B2028091B30293
:103CA0009091B4022FBF08959C014FB7F894809172
:103CB000B1029091B202A091B302B091B4024FBF91
:103CC000821B930B0895CF92DF92EF92FF922FB752
:103CD000F894C090B102D090B202E090B302F0909C
:103CE000B4022FBFA7019601261B370B480B590BB7
:103CF000CA01B901FF90EF90DF90CF9008957894BA
:103D00001F921FB61F9211248F939F93AF93BF935F
:103D10008091B1029091B202A091B302B091B4022D
:103D20000196A11DB11D8093B1029093B202A093A0
:103D3000B302B093B402BF91AF919F918F911F9046
:103D40001FBE1F90189587E797E79093010880930F
:103D5000000888E19AE00FB6F894A8958093600077
:103D60000FBE90936000FFCF88E19AE00FB6F89401
:103D7000A895809360000FBE90936000FFCF809164
:103D8000940208959B01BA019091B9029430E9F42C
:103D90008F708093E9009FEF8091E800915085FD3E
:103DA00006C085ED8A95F1F700009111F5CF80915D
:103DB000E80085FF0AC050E040E0C9010E94BC2035
:103DC0008091E8008E778093E800089543E050E00A
:103DD000BC0182E00E94C21E089546E050E0BC0192
:103DE00082E00E94C21E0895CF93DF93EC0148E069
:103DF00050E0BC0181E00E94C21E88E0FE01ACE8F8
:103E0000B2E001900D928A95E1F7DF91CF9108958C
:103E10008091B802811109C00E944C220E94A922FF
:103E20008091E20084608093E20008951092B802CD
:103E300008950E94AE1D08956091B50281E0611160
:103E400001C080E00E94A51D08959091B90281E013
:103E5000943009F080E06091B5020E94AB1D089596
:103E600042E061EC81E00E94C82142E261EC82E024
:103E70000E94C8219091B90281E0943009F080E05D
:103E80006091B5020E949B1D08958091BB02833012
:103E900009F461C030F48130D1F1823009F49EC060
:103EA00008958A3009F48AC08B3009F46FC08930D4
:103EB00009F050C08091BA02813209F04BC0809164
:103EC000BE029091BF02029708F044C08091E800C2
:103ED000877F8093E8008091E80082FF37C090914F
:103EE000F3008091F200029731F48091F10081306B
:103EF00011F0863021F48091F1008093940280913A
:103F0000E8008B778093E8000E94FC2123C0809119
:103F1000BA02813AF9F48091E800877F8093E80043
:103F20008091BE029091BF02892B61F468E08CE819
:103F300092E070E00E940B218091E8008B778093E3
:103F4000E800089560E090E080E0F3CF8091B9024E
:103F50008111C1CF08958091BA02813AD9F7809139
:103F6000BE029091BF02892BA9F78091E800877F5C
:103F70008093E8008091E80080FFFCCF80913F01B2
:103F80008093F1008091E8008E77BCCF8091BA02D7
:103F9000813201F78091BE029091BF02892BD1F648
:103FA0008091E800877F8093E8000E94FC21809147
:103FB000BC0280933F010E943A0708958091BA02A3
:103FC000813241F68091E800877F8093E8000E946B
:103FD000FC218091BD028093950208958091BA02E0
:103FE000813A09F0B7CF8091E800877F8093E8009D
:103FF0008091E80080FFFCCF80919502C1CF84B70B
:10400000877F84BF0FB6F894A8958091600088617F
:1040100080936000109260000FBE80E890E00FB6C1
:10402000F89480936100909361000FBE0E94B41DCC
:1040300008950E944C220E94A922E2EEF0E08081C5
:104040008460808378940E942825089587E391E016
:104050000E94B91C08958091B902853031F4809195
:10406000B902853019F00E942E1E08950E94031E89
:104070008091B702882399F30E94C11D882379F3A8
:104080000E94A6200E943A07EACF08959A01409123
:10409000C0025091C1020E944E200895492F552719
:1040A0004330510519F168F44130510509F444C019
:1040B0004230510509F445C090E080E050E040E016
:1040C00025C04132510549F142325105A9F780E43A
:1040D00090E046ED53E061157105C1F08BE790E08B
:1040E0004BE553E06130710589F0E6CF99278130C7
:1040F000910581F0009729F00297F1F6ECEEF2E0DD
:1041000002C0EAE0F3E0849190E0AF01F90151834D
:1041100040830895E0E0F3E0F6CF89E090E040E2EC
:1041200053E06115710591F389E090E049E353E0B4
:104130006130710559F3C0CF82E190E049E453E06A
:10414000E5CF8BE390E04EE053E0E0CF80E189BD26
:1041500082E189BD09B400FEFDCF8091D8008F7D3A
:104160008093D8008091E00082608093E00080918D
:10417000E00081FDFCCF0895AF92BF92CF92DF9215
:10418000FF920F931F93CF93DF936C01EB018A0192
:104190000E941B22F82E811123C00115110539F050
:1041A000F80180819181C81BD90BC80ED91EB12C92
:1041B000A12C2097A9F08091E80085FD22C0809174
:1041C000E8008E778093E80001151105A1F0F80151
:1041D00080819181A80EB91EB182A08285E0F82E5F
:1041E0008F2DDF91CF911F910F91FF90DF90CF9096
:1041F000BF90AF9008950E941B228823D1F2F82E21
:10420000EFCFF60181916F018093F1002197FFEFCD
:10421000AF1ABF0ACECFFC018091C0029091C102BB
:1042200086179707A0F06115710529F49091E800B1
:104230009E779093E80090E06115710551F491111B
:1042400008C08091E80082FF34C080E00895BC017E
:10425000F2CF8091B9028823C1F18530C1F18091FC
:10426000E80083FD30C08091E80082FDEACF8091B4
:10427000E80080FFE1CF8091F3002091F200382F19
:104280006115710519F02830310558F091E028309A
:10429000310509F090E02091E8002E772093E800A6
:1042A000CBCF81918093F100615071092F5F3F4F17
:1042B000E7CF8091B902882341F0853041F08091A9
:1042C000E80083FFBECF81E0089582E0089583E097
:1042D0000895FC018091C0029091C1028617970752
:1042E000A0F06115710529F48091E8008E77809324
:1042F000E80090E06115710551F4911108C08091BA
:10430000E80082FF35C080E00895BC01F2CF8091C3
:10431000B9028823C9F18530C9F18091E80083FD95
:1043200031C08091E80082FDEACF8091E80080FFF3
:10433000E1CF8091F3002091F200382F61157105D3
:1043400019F02830310558F091E02830310509F096
:1043500090E08091E8008E778093E800CBCF849145
:104360008093F1003196615071092F5F3F4FE6CF86
:104370008091B902882341F0853041F08091E800B6
:1043800083FFBDCF81E0089582E0089583E0089522
:10439000982F973028F08F708093E90081E008957E
:1043A0009093E900242F762F50E0981731F0709108
:1043B000EC002091ED005091F00021FD02C09F5FC4
:1043C000E8CF3091EB003E7F3093EB003091ED0071
:1043D0003D7F3093ED003091EB0031603093EB0086
:1043E0007093EC002093ED005093F0002091EE00CC
:1043F00027FDE5CF80E008958091BA0287FF13C0C2
:104400008091E80082FF06C08091E8008B7780935E
:10441000E80004C08091B9028111F2CF0895809123
:10442000B9028823D9F38091E80080FFF8CF80910A
:10443000E8008E77ECCF2091E4003091E50095E61E
:10444000A9012091EC00822F817020FF06C080918D
:10445000E80080FF06C080E008952091E80022FD7A
:104460001AC08091B902882389F0853089F0809143
:10447000EB0085FD0FC02091E4003091E50042176C
:104480005307F9F29150E1F684E0089582E008952F
:1044900083E0089581E008950E94BB220E94C32218
:1044A000E0EEF0E0808181608083E8EDF0E08081E3
:1044B0008F77808319BCA7EDB0E08C918E7F8C93B1
:1044C00080818F7E80831092B80208950F931F938E
:1044D000CF93DF930E94BB220E94C322C8EDD0E09D
:1044E00088818F77888388818068888388818F7DA1
:1044F000888319BC1092B9021092B5021092B702CB
:104500001092B60200EE10E0F80180818B7F80836C
:1045100088818160888342E060E080E00E94C82159
:10452000E1EEF0E080818E7F8083E2EEF0E080813A
:1045300081608083808188608083F80180818E7FA4
:104540008083888180618883DF91CF911F910F9153
:104550000895E8EDF0E080818F7E8083E7EDF0E064
:1045600080818160808384E082BF81E08093B80293
:104570000E9466220895E8EDF0E080818E7F8083BE
:104580001092E20008951092DA001092E10008956E
:104590001F920F920FB60F9211242F933F934F93B8
:1045A0005F936F937F938F939F93AF93BF93EF939B
:1045B000FF938091E10082FF0BC08091E20082FFB7
:1045C00007C08091E1008B7F8093E1000E94272546
:1045D0008091DA0080FF19C08091D80080FF15C05B
:1045E0008091DA008E7F8093DA008091D90080FF7D
:1045F00096C080E189BD82E189BD09B400FEFDCF8E
:1046000081E08093B9020E94081F8091E10080FF41
:1046100019C08091E20080FF15C08091E2008E7F7A
:104620008093E2008091E20080618093E2008091BB
:10463000D80080628093D80019BC85E08093B902CD
:104640000E941C1F8091E10084FF2BC08091E2003A
:1046500084FF27C080E189BD82E189BD89B5982F9B
:10466000917080FFFBCF8091D8008F7D8093D80020
:104670008091E1008F7E8093E1008091E2008F7E47
:104680008093E2008091E20081608093E20080915B
:10469000B502882309F449C084E08093B9020E94DE
:1046A000251F8091E10083FF29C08091E20083FFF4
:1046B00025C08091E100877F8093E10082E08093B4
:1046C000B9021092B5028091E1008E7F8093E100E3
:1046D0008091E2008E7F8093E2008091E200806111
:1046E0008093E20042E060E080E00E94C821809177
:1046F000F00088608093F0000E94191FFF91EF91F5
:10470000BF91AF919F918F917F916F915F914F91E9
:104710003F912F910F900FBE0F901F90189519BCCD
:104720001092B9020E94161F70CF8091E30087FD9E
:1047300093E09093B902B3CF1F920F920FB60F92EE
:1047400011242F933F934F935F936F937F938F9396
:104750009F93AF93BF93CF93DF93EF93FF93D0914A
:10476000E900DF708091EC00C82FC17080FDC0E8C7
:104770001092E9008091F000877F8093F000789498
:104780000E94E0231092E9008091F00088608093FD
:10479000F000CD2BCF70C093E900FF91EF91DF9136
:1047A000CF91BF91AF919F918F917F916F915F91C9
:1047B0004F913F912F910F900FBE0F901F90189522
:1047C000AAE2B0E0E6EEF3E20C947E258AEB92E0FA
:1047D0002091F100FC012193CF01F2E0823C9F0780
:1047E000B9F70E94451F8091E80083FF1EC18091A8
:1047F000BA029091BB029A3008F017C1E92FF0E09D
:10480000EF59F94D0C946925803899F0823809F0F8
:104810000CC18091BE028F70873008F006C1809372
:10482000E9008091EB0085FB882780F91092E90070
:1048300006C08091B6029091B7029111826090916A
:10484000E800977F9093E8008093F1001092F100C8
:104850008091E8008E77E5C0882309F4D3C08230C8
:1048600009F0E3C08091BC028111D6C08091BE02E4
:104870008F702FEF280F263008F0D7C08093E90003
:104880002091EB0020FFC8C0933031F48091EB0001
:1048900080628093EB00C0C09091EB009061909398
:1048A000EB0021E030E001C0220F8A95EAF7209367
:1048B000EA001092EA008091EB008860EACF811153
:1048C000B4C01091BC021F778091E3008078812BE7
:1048D0008093E3008091E800877F8093E8000E9446
:1048E000FC218091E80080FFFCCF8091E30080688C
:1048F0008093E30082E0111183E08093B90295C0B8
:104900008058823008F091C08091BC029091BD0225
:104910008C3D23E09207A1F583E08A838AE28983B4
:104920004FB7F894DE01139620E03EE051E2E32F0A
:10493000F0E050935700E49120FF03C0E295EF7040
:104940003F5FEF708E2F90E0EA30C0F0C7968D93F6
:104950009D932F5F243159F74FBF8091E800877FE7
:104960008093E8006AE270E0CE0101960E940B217C
:104970008091E8008B778093E80057C0C096E7CF1E
:104980006091BE027091BF02AE014F5F5F4F0E9407
:104990004620BC01892B09F448C09091E800977F1C
:1049A0009093E80089819A810E946921E1CF803843
:1049B000E1F58091E800877F8093E8008091B5025F
:1049C0008093F10045CF811130C09091BC029230AC
:1049D00060F58091E800877F8093E8009093B502AE
:1049E0000E94FC218091B502882311F084E005C06B
:1049F0008091E30087FDFACF81E08093B9020E94A5
:104A0000301F13C08091BC02813079F481E0933073
:104A100009F080E08093B7021092E9008091E800ED
:104A2000877F8093E8000E94FC218091E80083FF4B
:104A30000AC08091E800877F8093E8008091EB00B6
:104A400080628093EB00AA96E3E00C949A25089587
:104A5000CF938091B9028823A1F0C091E900CF7073
:104A60009091EC00892F817090FD80E8C82B109206
:104A7000E9008091E80083FD0E94E023CF70C0939D
:104A8000E900CF9108950E944C221092B902089536
:104A9000E8EDF0E08081806180838AE18A95F1F71A
:104AA00000C08091D9008170089597FB072E16F4FD
:104AB000009407D077FD09D00E94A62507FC05D0F9
:104AC0003EF4909581959F4F0895709561957F4F25
:104AD0000895EE0FFF1F0590F491E02D09942F9299
:104AE0003F924F925F926F927F928F929F92AF927E
:104AF000BF92CF92DF92EF92FF920F931F93CF93CB
:104B0000DF93CDB7DEB7CA1BDB0B0FB6F894DEBF61
:104B10000FBECDBF09942A88398848885F846E8487
:104B20007D848C849B84AA84B984C884DF80EE80D1
:104B3000FD800C811B81AA81B981CE0FD11D0FB6DA
:104B4000F894DEBF0FBECDBFED010895AA1BBB1BBD
:104B500051E107C0AA1FBB1FA617B70710F0A61B7D
:104B6000B70B881F991F5A95A9F780959095BC019E
:104B7000CD010895FB01DC0104C08D9101908019E5
:104B800021F441505040C8F7881B990B0895FB0150
:104B9000DC0102C001900D9241505040D8F70895B9
:104BA000F999FECF92BD81BDF89A992780B50895F5
:104BB000A8E1B0E042E050E00C941426DC01A40F20
:104BC000B51F4150504048F0CB01840F951F2E91E6
:104BD0000E94EF2541505040D0F70895262FF999B3
:104BE000FECF92BD81BDF89A019700B4021639F04C
:104BF0001FBA20BD0FB6F894FA9AF99A0FBE08951D
:104C00000396272F0E94EF250E94EE25252F0E9454
:104C1000EF25242F0C94EF250196272F0E94EF25D6
:104C20000C94EE25DC01CB01FC01F999FECF06C006
:104C3000F2BDE1BDF89A319600B40D92415050405A
:104C4000B8F70895F894FFCF250525057505750576
:104C5000DA05F60554055405FB056C067B067B0654
:104C600078177C178A178E17901792179417961734
:104C70003A19AE1942190C191019461914194A1982
:104C800056192019A71924195A1928195E198619B5
:104C90002C1962198D1932196819701918194E19C1
:104CA0001C19521936196C197C199619A51906196F
:104CB0003E19B519D11AD71AC01ACB1ADD1AE31A40
:104CC000E91A04242C2415252C2415255F2480247E
:064CD0001525D724E324A2
:104CD60034023294F691F4C63390F59336973166E2
:104CE600F73435FFFFFF010000000100000000005F
:104CF6000000040100000004050000000000002878
:104D06000850011E0A1401BF1EF41EED1EE61E0108
:104D1600F491F6943293F59033C6F76631973635AB
:104D260034FFFFFFE200E900EA00B500B600B70075
:104D3600CD008301CC008A01920194012102230255
:104D460024022502260227022A02B300B4006F00BD
:104D560070009F01CB019F02A002818283E200E9DD
:104D660000EA00B500B600B700CD008301CC008A8A
:104D76000192019401210223022402250226022720
:104D8600022A02B300B4006F0070009F01CB019F9E
:084D960002A002818283590290
:00000001FF
