:100000000C94FA010C9417020C9417020C9406201D
:100010000C9417020C9417020C9417020C941702FC
:100020000C9417020C9417020C9436270C940A288F
:100030000C944A220C9417020C9417020C94170289
:100040000C9417020C9417020C9417020C941702CC
:100050000C9417020C94ED220C9417020C941702C6
:100060000C9417020C9417020C9417020C941702AC
:100070000C9417020C9417020C9417020C9417029C
:100080000C9417020C9417020C9417020C9417028C
:100090000C9417020C9417020C9417020C9417027C
:1000A0000C9417020C9417020C9417020102E2013F
:1000B000016201015901015F01015E0103E20014C7
:1000C000001A0008001500170004001600070009B8
:1000D000000A001D001B210624192805002B412AB7
:1000E000220000000000001C0018000C0012003468
:1000F000000B000D000E000F003300110010383609
:1001000034373138022C4228430000000000001F21
:10011000022002221421022202360237022602277E
:100120000224020A141B1406140914161400004CAD
:100130000000000000000000002E002D002E0235FF
:100140000031022F0230022F00300035022D02381C
:10015000002502407E37082C040000000000004605
:1001600000AC00AE00AB0000002900AA00A800A966
:10017000000000A500E400E200E30000000000E150
:100180000000000000000000005009417E427E4F48
:100190000900005000510052004F00000050014A79
:1001A000004D004F01000000000000000000003A78
:1001B000003B003C003D003E003F0040004100424B
:1001C00000430044004500680069006A002C0400F8
:1001D0000000000000000000001E001F00200000C2
:1001E0000027002100220023000000000024002539
:1001F00000260000000000000000000000000000D9
:10020000000000000000002A2B2800000000000071
:100210000000000000000000000029000000002C89
:100220001E3420212224342627252E362D37382728
:100230001E1F202122232425263333362E37381F34
:100240000405060708090A0B0C0D0E0F10111213F6
:100250001415161718191A1B1C1D2F3130232D3594
:100260000405060708090A0B0C0D0E0F10111213D6
:100270001415161718191A1B1C1D2F3130354C0078
:10028000000000000000000000000000000000006E
:10029000000000000000000000000000000000005E
:1002A0000000007E0F00D4FFFFFFC700000078129F
:1002B000034B006100680062006F0061007200641F
:1002C000000000220341006E0074006F0069006EA0
:1002D0000065004B00610068006C006F00750063F2
:1002E000006800650000000403090409023B0002E5
:1002F0000100A0FA09040000010301010009211115
:1003000001000122400007058103080001090401E2
:10031000000103000000092111010001227B0007F8
:100320000582032000011201000200000008ABC298
:10033000393901000102000105010902A10185020C
:100340000901A100050919012908150025019508D1
:10035000750181020501093009311581257F95025A
:100360007508810609381581257F95017508810674
:10037000050C0A38021581257F950175088106C094
:10038000C005010980A101850319012AB7001501E3
:1003900026B700950175108100C0050C0901A10167
:1003A000850419012AA002150126A00295017510E5
:1003B0008100C005010906A101050719E029E7151B
:1003C00000250195087501810295017508810105D7
:1003D00007190029FF150026FF0095067508810002
:1003E0000508190129059505750191029501750307
:1003F0009101C00011241FBECFEFDAE0DEBFCDBFF8
:1004000012E0A0E0B1E0E4EAF5E502C005900D924B
:10041000AC30B107D9F723E0ACE0B2E001C01D92E7
:10042000A432B207E1F70E94E6150C94892A0C94D5
:100430000000FB0181342EE7920799F082342EE709
:10044000920721F180349E4751F48581882339F049
:100450000E94820760E08CEA90E00E94621B81E0CB
:1004600008958581882371F080910F02811106C063
:1004700081E080930F0282EE0E947F048BE20E9453
:100480007F04EDCF8BE20E94CC04E9CF85818823E5
:10049000C9F380910E028111F1CF81E080930E02A9
:1004A00080EEEACF80910F02882351F082E00E9413
:1004B0001308811105C082EE0E94CC0410920F0235
:1004C00080910E02882351F082E00E94130881116E
:1004D00005C080EE0E94CC0410920E020895843074
:1004E000B8F46830A8F4453098F450E095E0699F7E
:1004F000400D511D1124FA0198E2899FE00DF11D74
:100500001124EE0FFF1FE154FF4F85919491089540
:1005100081E090E008950E946F0208959C013A9551
:1005200021153F4150F5FC01EE27F170BC01662713
:100530007270AC01442754709C012227387094FFDC
:100540000EC080E1EF2B09F480E0672B09F0806298
:10055000452B09F08064232B89F08068089581E0A1
:10056000EF2B09F480E0672B09F08260452B09F03E
:100570008460232B19F08860089580E00895CF935C
:10058000DF93EB010E948E02FE010995DF91CF916E
:100590000895CF93DF93EC01805E9109089720F0D6
:1005A0006EE577E0209711F460E275E0CE010E94DD
:1005B000BF028C2F0E947F04DF91CF910895CF93CB
:1005C000DF93EC010E94CC04CE01805E9109089774
:1005D00020F065E677E0209711F467E275E0CE0140
:1005E0000E94BF02DF91CF9108950F931F93CF9385
:1005F000DF938C01EB010E94C902209741F4C801EE
:100600000E94DF02DF91CF911F910F9108958FE932
:100610009FE00197F1F700C000002197EECF70E056
:1006200060E08933910511F460E570E00E94F50205
:10063000089581E008950E941903089581E00895C6
:100640000E941902089508950E9423030895A6E0C8
:10065000B0E0EDE2F3E00C94E52949835A839E83F0
:100660003091150289819A8131111AC03E8133235C
:1006700099F0222389F00E94ED08182F682F8981B4
:100680009A810E94C90869817A81812F0E942D1068
:100690002696E3E00C94012A0E94DB08182FF3CF82
:1006A0000E94ED0869817A81F1CFFC01262F4081FB
:1006B000518162817381848195810E94270308950D
:1006C000CF93DF93EC0161E00E945503BE010E94CD
:1006D0001B03DF91CF910895CF93DF93EC0160E08E
:1006E0000E945503BE010E942403DF91CF9108951B
:1006F00008950E9482070E9478032FEF84E39CE014
:10070000215080409040E1F700C0000008950E9411
:1007100079030E94112308950E9479030E942223E5
:1007200008950F931F93CF93DF938C0161E00E9494
:100730005503EC01B8010E942003811106C080E03E
:10074000DF91CF911F910F910895B801CE010E94C2
:100750000F1D8823A1F3B801CE010E949D188823A4
:1007600071F3B801CE010E94221F882341F3B80122
:10077000CE010E941E1A882311F3B801CE010E94F7
:10078000CA1B8823E1F2F8018581882361F0C33018
:10079000FCE7DF07E9F058F4C115ECE7DE07A9F044
:1007A000C130DC47B9F0C8010E941E03C9CFCB3568
:1007B0008CE7D807A9F0CC35ECE7DE0771F0CA3535
:1007C000DC4789F70E94700DEECF0E948703B7CFF8
:1007D0000E94780D0E948C03B2CF0E94660DE3CF79
:1007E0000E94740DE0CF0E9427220E941A040895EF
:1007F0000E941E040E942C220895089581E008950D
:100800000895CF93DF93D82F0E94FE03C82F88232B
:1008100019F08D2F0E9400048C2FDF91CF91089545
:100820000895CF93C82F0E94FD038C2F0E940104CE
:10083000CF91089580E00E94110408950E942C2118
:100840000E9411040895CF930E942C21C82F8091FB
:1008500010028C1779F0C09310020E94B6226093A8
:1008600011027093120280931302909314028C2F42
:100870000E941104CF910895ADE0B0E0E2E4F4E00D
:100880000C94E629488759876A877B878C879D87E0
:1008900091110E946E0C1F8286E0FE013896DE01E7
:1008A000119601900D928A95E1F78D8181110DC00D
:1008B00029813A814B815C816D817E818F810E948B
:1008C000950B2D96E2E00C94022ACE0101960E942F
:1008D00060038111EDCFF5CFFC012481213021F49B
:1008E000808191810E941F090895662329F00E944A
:1008F0006A160E943D1708950E94C416FACFCF933E
:10090000C82F8823B9F08CEF8C0F813AA8F46C2F94
:1009100080910A0190910B010E94B821882329F04F
:100920008C2F0E94220C0E94C30C8C2F0E941A0C48
:100930000E94C30CCF91089580E28C0F883048F458
:10094000C77081E001C0880FCA95EAF70E94480C81
:10095000EFCFEBE5EC0FE33040F4F0E0E353FE4F74
:10096000808190E00E945C21E5CFE8E5EC0FEB315F
:1009700050F4F0E0EE0FFF1FE956FE4F80819181A9
:100980000E948121D7CF83E38C0F833198F661E0F9
:100990008C2F0E947504CECF882381F19CEF980F95
:1009A000913A28F40E94220C0E94C30C089590E210
:1009B000980F983050F4877091E001C0990F8A9594
:1009C000EAF7892F0E944E0CEFCF9BE5980F9330EA
:1009D00028F490E080E00E945C21089598E5980F4B
:1009E0009B3128F490E080E00E948121089593E3F8
:1009F000980F933118F460E00E94750408951F93D6
:100A0000CF93DF93182FEB010E947F04209739F4D6
:100A1000812F0E94CC04DF91CF911F9108958FE91F
:100A20009FE00197F1F700C000002197EFCF70E041
:100A300060E0893311F460E570E00E94FF040895DE
:100A4000882321F00E94480C0E94C30C089588233B
:100A500021F00E944E0C0E94C30C0895B0E0A0E06B
:100A6000E4E3F5E00C94DF296C01D62FC72FFC01DD
:100A70001581068102950F700E943E0CE82E882396
:100A8000E9F0E12E1123D1F08C2F807F803451F0DA
:100A900080E28D0F8830F8F0011104C08C2F807E29
:100AA0008032C9F08091FD0282FF15C082E00E9471
:100AB0003A0D0E943E0C91E0E82EE926BC2EB2943D
:100AC0009FE0B922FBE0FB15B8F1EB2DF0E0E55714
:100AD000F54D0C94D029E12CF1CF0C2F0F70C07F75
:100AE00011F00295007F112399F0002359F080E264
:100AF0008D0F883010F0D11107C0802F0E94480C54
:100B00000E94C30C8D2F5AC0802F0E945E0CF8CF1C
:100B10008D2F0E94CC04002379F080E28D0F883065
:100B200010F0D11104C0802F0E944E0C03C0802F02
:100B30000E94640C0E94C30CEB2DE850FF0B34970D
:100B400020F40E942C210E941104EE2089F00E94C2
:100B50003A0C80FD0DC0F60115820E94340C0E94F3
:100B60002708C6010E943B070E94340C0E943708E8
:100B7000CDB7DEB7E9E00C94FB292C2F2F70F22EB5
:100B8000C07FC03219F0F29480EFF822DD2341F0EB
:100B9000D130D1F1112309F444C00023F1F0B2CFD8
:100BA0008091FD0282FD15C0112359F0FF2029F02C
:100BB0008F2D0E94480C0E94C30C80E00E947F048D
:100BC000BBCF80E00E94CC04FF2009F4B5CF8F2D6D
:100BD000ABCF112369F0011104C08F2D0E942005B5
:100BE000ABCF013009F0A8CF8F2D0E94940CA4CF79
:100BF0000111A2CF8F2D0E9427058F2D0E94A00CDE
:100C00008F2D0E94840C98CF112321F0063008F01C
:100C100093CFE3CF053008F08FCF8F2D0E942705AB
:100C20008BCF0023D1F3D93349F43FEF87EE93E024
:100C3000315080409040E1F700C000008D2F0E94AD
:100C4000CC047ACF8C2F86958695837069F081309D
:100C500009F072CF8D2F9C2F9370111102C080E08C
:100C600090E00E94812168CF8D2F9C2F93701111ED
:100C700002C080E090E00E945C215ECF612F8D2F4A
:100C80000E94750459CF8C2F8370A1F5111154CF98
:100C90004D2F429546954770440F440F2D2F2F70CE
:100CA00030E0042E02C0220F331F0A94E2F790E0D6
:100CB00080E0D4FF09C08FE090E002C0880F991F48
:100CC0004A95E2F780959095C695C695C370822B9C
:100CD000932BC23049F058F4C13019F00E94DB0761
:100CE0002BCF0E94D20728CF0E94E40725CF0E9475
:100CF000CF0722CF8695112311F08C2F8170882386
:100D000009F41ACF4D2F429546954770440F440F72
:100D10002D2F2F7030E0042E02C0220F331F0A94B3
:100D2000E2F790E080E0D4FF09C08FE090E002C0DD
:100D3000880F991F4A95E2F780959095C695C695BC
:100D4000C370822B932BC23049F058F4C13019F094
:100D50000E946208F1CE0E945908EECE0E946B08F4
:100D6000EBCE0E94F307E8CECF70112329F08C2F31
:100D70000E9427088D2F32CF8D2F0E9427058C2FA0
:100D80000E943708D9CED23F41F160F4D03FB9F08C
:100D9000D13F81F0112309F446C00111B3CE8C2F4D
:100DA0008F711FC0D33F01F1D43FA1F78091FD02A5
:100DB00082FD24C08C2F8F71112311F312C01123D7
:100DC00041F0053008F0B8CE8C2F8F710E94490891
:100DD000B3CE063008F0B0CEF7CF8C2F8F71111143
:100DE000CFCF0E942708A8CE112329F08C2F8F7116
:100DF0000E941B08A1CE0E94FA079ECE112349F043
:100E0000CF718C2F0E94270863E08C2F0E941C0D4D
:100E100093CE81E00E943A0D023008F48DCE82E03C
:100E20000E943A0D89CE002359F0D93309F006CF3C
:100E3000EFEFF7EE23E0E150F0402040E1F7FCCE89
:100E40008C2F8F719DCF0F931F93CF93DF93EC0166
:100E5000688179818D810E942A098C010E94740821
:100E60000E94CE07B801CE010E942E05DF91CF91DE
:100E70001F910F910895CF93DF93EC018C8188230C
:100E800099F0CE010E949103811111C00E943E0C85
:100E9000882351F08D81882339F08091FD0282FFF3
:100EA00003C082E00E943A0DDF91CF910895CE01F8
:100EB0000E942307CE010E946C03F6CF882321F005
:100EC0000E945E0C0E94C30C0895882321F00E94AA
:100ED000640C0E94C30C089590E080E00E945C21A5
:100EE00090E080E00E9481210E946E0C0E94C30C61
:100EF0000E9459170E943D1708950E942A0C0E94D3
:100F00006C0708950E94580C0E947D0708959295E1
:100F10009F70963091F058F4925F9F70923058F421
:100F2000803F19F030F4883E30F481E008959A5FF4
:100F3000F4CF843FD1F380E00895883EB0F3813F41
:100F4000D1F7F3CFFC012481222339F080819181F4
:100F50000E941F090E948707089580E00895A6E077
:100F6000B0E0E5EBF7E00C94E6292696E2E00C947D
:100F7000022AA7E0B0E0EFEBF7E00C94E629279611
:100F8000E2E00C94022A08950E94C30708950E948B
:100F9000C40790932D0280932C02089508950E9417
:100FA000C707089520912C0230912D02822B932B9C
:100FB0000E94C707089520912C0230912D028223B0
:100FC00093230E94C707089520912C0230912D028F
:100FD000822793270E94C70708950E94C307089598
:100FE0000E94ED0708950E94F00790932B028093D2
:100FF0002A02089590E080E00E94F3070895009788
:1010000029F481E0662371F080E00CC021E030E03B
:1010100002C0220F331F6A95E2F72823392381E0AB
:10102000232B91F30895682F80912A0290912B022F
:101030000E94FF07089521E030E0A90102C0440F9B
:10104000551F8A95E2F7CA010E94F307089521E02F
:1010500030E002C0220F331F8A95E2F780912A0206
:1010600090912B02822B932B0E94F307089521E08D
:1010700030E002C0220F331F8A95E2F720953095A9
:1010800080912A0290912B02822393230E94F307DE
:10109000089521E030E002C0220F331F8A95E2F765
:1010A00080912A0290912B02822793270E94F307B6
:1010B000089520912A0230912B02822B932B0E94BB
:1010C000F307089520912A0230912B028223932363
:1010D0000E94F307089520912A0230912B02822763
:1010E00093270E94F30708950895262F277091E013
:1010F00001C0990F2A95EAF723E0769567952A951E
:10110000E1F7660F771F660F771FFA01E60FF71FEB
:1011100050E040E0682F70E08191DF0111979B0162
:10112000042E02C0369527950A94E2F72170219586
:101130002827292328272C934F5F5F4F44305105E0
:1011400059F70895A82FA77023E0969587952A95BB
:10115000E1F7880F991F880F991FFB01E80FF91F0E
:1011600050E040E080E0219130E00A2E02C0369548
:1011700027950A94E2F721703327042E01C0220F2D
:101180000A94EAF7822B4F5F5F4F4430510559F7BD
:101190000895262F983070F4853060F4682F70E041
:1011A00085E0989F600D711D112446E152E0822F69
:1011B0000E9475080895292F983068F4853058F4F6
:1011C00090E066E172E035E0239F800D911D1124CF
:1011D0000E94A208089580E00895B0E0A0E0E3EF47
:1011E000F8E00C94DF297C0100912A0210912B0277
:1011F00080912C0290912D02082B192BCFE0D0E08A
:10120000CC24C394D12CBC2EC6010C2E02C0880F56
:10121000991F0A94E2F780239123892B49F421979F
:1012200090F7B12C8B2DCDB7DEB7E9E00C94FB29FC
:10123000B7018C2F0E943910019789F3F3CFCF9318
:10124000DF93EC010E94ED08BE010E943910DF918E
:10125000CF9108951F93CF93DF93EB0190911502E7
:10126000992339F0CB010E941F09DF91CF911F9183
:101270000895882369F0CB010E94ED08182F682F8C
:10128000CE010E94C908BE01812F0E943910EDCF06
:10129000CB010E94DB08182FF6CF1F93CF93DF936B
:1012A000C0912E0217E080912F028C1304C0DF91B1
:1012B000CF911F910895D0E01C9FF0011D9FF00D6C
:1012C0001124E05DFD4F2081318142815381648191
:1012D000758186810E94B9072196C770E4CF20915D
:1012E00068023091690240916A0250916B026091EC
:1012F0006C0270916D0280916E020E94B907089590
:10130000CF93DF9380916E02807F09F04DC0809172
:101310006D02882309F448C0E0912E0250912F02FB
:10132000C0916902D091680260916A0270916B026B
:1013300047E05E17C9F18E2F90E0E49FF001112481
:10134000E05DFD4F2481222391F1489FF001499FE8
:10135000F00D1124DF01A05DBD4F11962C91119766
:101360002C1325C02C912D1322C015962C91159766
:1013700021111DC012962D913C91261B370B283C44
:101380003105A8F480916E028F70806180936E02A7
:10139000EA5CFD4F80818F708061808388E692E0F7
:1013A0000E943B070E944D09DF91CF910895FC01F7
:1013B0003196E770BECF482F20912E0290912F02D8
:1013C00057E0291302C080E0089530E0529FF001F9
:1013D000539FF00D1124E05DFD4F8181681306C01D
:1013E0008081481303C085818111EECF2F5F3F4F6D
:1013F0002770E7CFA4E1B0E0E0E0FAE00C94DC294C
:101400008C0186E0F801DE011F9601900D928A950D
:10141000E1F7D80114968C9114971596EC901597D6
:1014200098E6A92E92E0B92E90916C0291111FC0FE
:101430008823D1F0EE20A9F0C8010E94A207F82E5F
:10144000882379F087E0F801D50101900D928A9503
:10145000E1F7C5010E946C040E9480090E946F0997
:101460003DC0C8010E943B07FF24F39437C0F80138
:10147000C080D18082809380F0906D0220916A02BA
:1014800030916B02A401421B530BFF2009F4F6C0FC
:10149000483C510508F0A5C0882301F190916902EC
:1014A00080916E02282F207F09F067C09D111BC01C
:1014B000909168029C1117C0E11059C08F70806133
:1014C00080936E020E946F0988E692E00E943B07BB
:1014D00080916E02D80116968C93F12C8F2D649614
:1014E000ECE00C94F829E11042C06D2D8C2D0E9487
:1014F000DB09E82E882371F088E692E00E943B0722
:1015000087E0E8E6F2E0DF011D928A95E9F70E94A4
:101510006F09E3CFCF86D88A8F8598890E941F09EB
:10152000292F22952F70243058F49F70223088F094
:10153000992399F0F8019681907F79F4FE2CCECF13
:101540002A5F2F70223068F0C8010E943B07EF2C01
:10155000F5CF992311F0882389F3805E883070F3EA
:10156000F3CF803F58F3815F833070F7E7CF8091EE
:101570006E02816080936E02B0CF9D1107C0909182
:1015800068029C1103C0EE2009F49CC0C8010E94AF
:10159000A207882309F465CFEE2009F462CF809179
:1015A0006E02803288F0209168023091690239879A
:1015B00028879B868A8690916C029C871D868E87E1
:1015C000CE0108960E943B0787E0F801A8E6B2E04A
:1015D00001900D928A95E1F70E9480090E946F099F
:1015E00043CF90916E02292F207F91F4682D9A8A23
:1015F000898AA6017A899E2D0E94AF0788E692E02B
:101600000E943B0787E0F50111928A95E9F77FCFA9
:10161000882309F463CF809169028D1111C08091F4
:1016200068028C110DC0E1100BC016969C93C80186
:101630000E943B0787E0F50111928A95E9F74ECFAA
:10164000C8010E94A207882309F40BCFEE2009F4F9
:1016500008CF80916E02803208F4B6CF20916802E4
:10166000309169023A8329839C828B8290916C022B
:101670009D831E828F83CE010196A4CF483C5105E5
:1016800008F045C0882309F4EFCEFE2CEE2009F4C3
:10169000E8CE809169028D112CC0809168028C1176
:1016A00028C080916E0280FD1BC0982F907FC1F0F2
:1016B00016968C931697903F39F0982F907F905FF5
:1016C0008F70892B16968C93C8010E943B0787E088
:1016D000F801A8E6B2E001900D928A95E1F7BECE3E
:1016E00087E0F801A8E6B2E001900D928A95E1F753
:1016F000F5CEC8010E94A207811166CF80916E02CB
:10170000816080936E02C8010E943B07E7CE682D7E
:101710009A8A898AA6017A899E2D0E94AF0787E05E
:10172000F50111928A95E9F799CEAEE0B0E0EBE9C8
:10173000FBE00C94E529288739874A875B876C870B
:101740007D878E87CE0108960E94FA098823B1F022
:101750006C85662341F0288539854A855B857D85C2
:101760008E850E94B90717E080912E0290912F027A
:1017700089133DC02E96E3E00C94012A87E0FE0118
:101780003896DE01119601900D928A95E1F78C85CD
:10179000882349F320912F0230E0C9010196877018
:1017A000992740912E024817190699F097E0929FC9
:1017B000D001939FB00D1124A05DBD4FFE01319665
:1017C00001900D929A95E1F780932F020E944D09A6
:1017D000CACF0E94820710922F0210922E0287E039
:1017E000E8E6F2E0DF011D928A95E9F7BCCF819F20
:1017F000C0011124805D9D4F0E94FA09882309F4DD
:10180000B9CFE0912E021E9FF0011124E05DFD4F43
:1018100020813181428153816481758186810E945A
:10182000B90780912E0290E00196877099278093E6
:101830002E029ACF682F80910A0190910B010E948D
:10184000EE210895682F80910A0190910B010E946A
:10185000F121089580910A0190910B010E94F421D9
:1018600008958091780208958091770286958695F3
:1018700086950895809177028770089590917702F8
:10188000977081E009F480E00895809185020895C1
:1018900090918502892B809385020895809590917F
:1018A0008502982390938502089580938502089578
:1018B0001092850208958091840208959091840287
:1018C000892B8093840208958095909184029823B7
:1018D0009093840208958093840208951092840264
:1018E000089580938302089510928302089580934F
:1018F00082020895109282020895809179020895DB
:1019000008950E94800C089590917802292F282331
:1019100031F080958923809378020E94810C08958C
:1019200008950E94900C089590917902292F282300
:10193000281729F0982B909379020E94910C089512
:1019400090917902292F282331F080958923809363
:1019500079020E94910C08959091FD0292FF08C0B7
:1019600090917902981721F0809379020E94910C4E
:10197000089580917902882329F01092790280E0FD
:101980000E94910C0895CF93DF93E0910A01F091AA
:101990000B01809185028083E0910A01F0910B0197
:1019A000808190918402892B808390917902992380
:1019B00081F0E0910A01F0910B018081892B8083F5
:1019C00080910A0190910B010E94A62181110E9431
:1019D000B90CE0910A01F0910B0180918202982FDD
:1019E0009095808189238083E0910A01F0910B0119
:1019F000808190918302892B8083C0910A01D091CC
:101A00000B0148E050E06FE672E0CE010E94212A0F
:101A1000892B59F088E0FE01AFE6B2E001900D920B
:101A20008A95E1F7CE010E944321DF91CF9108957D
:101A300008950E94180D08959091FD0292FF11C023
:101A400098E0899F90011124622B609377020E9495
:101A50002708809177028695869586950E94190DB4
:101A600008950E94270808951092770280E00E944E
:101A7000190D0895909177028095892380937702BC
:101A8000282F277069F4891759F09091FD0292FF71
:101A900007C08695869586950E9437080E94340D6A
:101AA00008959091FD0292FB222720F9281769F0F2
:101AB00080FB92F99093FD028091FC029091FD02CF
:101AC0000E94990D82E00E943A0D08958091FD02D6
:101AD00082FB882780F991E089270E94510D0895A3
:101AE00081E00E94510D089580E00E94510D0895FB
:101AF0006FEF7FEF90E080E00E94732A089590E0FE
:101B000080E00E943F2A21E0863E9E4F09F020E0BF
:101B1000822F089582E090E00E94372A089583E0A2
:101B200090E00E94372A089584E090E00E943F2AC6
:101B30000895BC0184E090E00E94732A0895AB01EF
:101B4000BC018FE090E00E94672A0895AB01BC01C0
:101B500083E190E00E94672A089560E070E0CB0185
:101B60000E94A60D089560E070E0CB010E949F0DD9
:101B70000E94AD0D0895A8E0B0E0E1ECFDE00C940A
:101B8000E62966EE7EEF90E080E00E94732A60E036
:101B900082E090E00E94552A60E083E090E00E949D
:101BA000552A10922D0210922C0260E074E184E01C
:101BB00090E00E94732A60E086E090E00E94552A3F
:101BC0006FEF87E090E00E94552A40E050E0BA01B4
:101BD00088E090E00E94672A60E084E290E00E9442
:101BE000552A60E087E190E00E94552A60E08CE091
:101BF00090E00E94552A60E08DE090E00E94552A16
:101C000019821A821B821C821D821E821F821886E4
:101C100048E050E068E170E0CE0101960E94452A5C
:101C200040E050E0BA0180E290E00E94672A0E9402
:101C3000B30D2896E2E00C94022A0E94BB0D089591
:101C40008EE090E00E94372A91E0811101C090E07F
:101C5000892F0895682F8EE090E00E94552A0895FC
:101C6000A6E0B0E0E6E3FEE00C94E4290E94AA229C
:101C70008C0180918602909187028017910781F0F4
:101C800019821A820E94AA22682F49815A81792FCB
:101C900080E090E00E943C0410938702009386024B
:101CA0002696E4E00C94002A0E9449116093940265
:101CB000709395028093960290939702609390029E
:101CC00070939102809392029093930208950895E5
:101CD00008950E94680E089508950E946C0E08955C
:101CE00081E0089583E691E10E9422210E94670E1F
:101CF0000E94690E08950E94511308950895089551
:101D00000E947E0E0E947F0E08950E948F110E94F5
:101D100010040E94ED1808950E94A1220E94231130
:101D20000E9477130E947E120E94850E0E947718EF
:101D30000E9487130E946D0E08950E945113811115
:101D40000E94D31C0895A6E0B0E0E9EAFEE00C94FE
:101D5000DD290E94700E81110CC00E94300E0E947D
:101D60009D0E0E947B170E9423042696EBE00C94A4
:101D7000F9290E94D21288E8A82E82E0B82E7501B7
:101D800010E0F70101917F01812F0E94B4111F5FC4
:101D9000183009F441C00817A1F38091980281FD21
:101DA0000E94BA110E947B0EC82E10E099249394D1
:101DB000812F0E94B411082FF50181915F0108174E
:101DC00029F1D02ED826F12CEE24E3948D2D8E21EE
:101DD000A9F0CC2099F0F9821A830E94AA229C8350
:101DE0008B839D8291E0802F8E2109F490E04981C0
:101DF0005A816B817C818D810E943C04F394EE0CAE
:101E0000F5E0FF12E3CFF501319700831F5F183033
:101E100079F60E94540EA3CF0813BFCF9ECF1F9315
:101E2000CF93DF930E943E10EC01C11580E5D807E7
:101E3000F0F5C11580E4D80708F09CC0C03ED1057C
:101E400020F5CD3CD10508F082C0C83AD10578F420
:101E5000C53AD10508F073C0C130D10519F12097FA
:101E600009F1C430D105F0F4D0E0C0E01BC0C33CA0
:101E7000D105D0F7C85AD0E0CC0FDD1FC053DE4FDC
:101E80000990D881C02DD4640DC0C11580E2D80757
:101E900008F0D1C0C11581E0D80708F05AC0C83E8B
:101EA000D10510F7CE01DF91CF911F910895C03673
:101EB00082E5D80718F5C03482E5D80708F06BC072
:101EC000C03282E5D80708F05FC0C11582E5D807A7
:101ED00008F497C02C2F2695269580E2289F900124
:101EE00011248C2F8370C1E0D0E002C0CC0FDD1F25
:101EF0008A95E2F7C22BD32BDD68D4CFC03A82E5B6
:101F0000D80760F4C03882E5D80708F459C0CF710B
:101F1000D0E0DC2FCC27C46FD06AC4CFC03C82E5B0
:101F2000D80708F462C0C03E82E5D80708F09CCF0D
:101F3000DC2FCC27CC27DF71C06FD06AB3CFC55A56
:101F4000D0E0CA5FDD4FC881D0E0D064ABCFD065B0
:101F5000A9CF8D2F0E94E010182FCE0199270E9443
:101F60003E10C12FD0E0DC2FCC27CC27DF71C82B4F
:101F7000D92B98CFCE0199270E943E10CC27DF7035
:101F8000C82BD92BD06A8ECFCF71D0E0DC2FCC27D5
:101F9000C16FD06A87CF2C2F26952695277080E2B7
:101FA000289F900111248C2F8370C1E0D0E002C0E3
:101FB000CC0FDD1F8A95E2F7C22BD32BDC6872CFE2
:101FC0002C2F26952695277080E2289F90011124BA
:101FD0008C2F8370C1E0D0E002C0CC0FDD1F8A954A
:101FE000E2F7C22BD32BDA685DCF8C2F8F710E9462
:101FF000E010C82FD0E0DC2FCC27CC27DF71D062D7
:1020000051CF8C2F8F710E94E01055E0D695C79567
:102010005A95E1F7CF70D0E0DC2FCC27282F30E0A5
:1020200084FF05C044E0220F331F4A95E1F7C22B1D
:10203000D32BD06937CF8D2F8F710E94E010182FCE
:10204000CE0199270E943E10C12FD0E0DC2FCC2773
:10205000CC27DF71C82BD92BD2CF462F783030F464
:10206000653020F4672F0E948B02089590E080E095
:1020700008950E942D100E940F0F08958238910537
:10208000B9F1B0F48133910509F47DC048F4893287
:10209000910509F46DC08A32910509F47BC0089559
:1020A0008533910509F45FC08933910509F10895DD
:1020B000833E9105D9F138F4803E910529F1823EA5
:1020C000910579F10895863E9105D9F1873E9105F4
:1020D00009F43EC0843E910541F52091FD0221FFA7
:1020E00024C08091FC0284FD19C087EE90E0089521
:1020F0002091FC02237009F05AC02091FD0223FFB9
:1021000014C089E290E008952091FC0220FD38C0BF
:102110003091FD0230FF09C024FF43C090E080E011
:1021200008952091FC0222FDF7CF08952091FC0232
:1021300022FD3AC03091FD0230FD39C024FFF5CFB9
:10214000EDCF2091FC0223FFF0CF24FDE7CFCDCFD0
:102150002091FC0223FD2EC03091FD0231FFEECF15
:1021600084EE90E008952091FC0225FFDECFC9CFD8
:102170002091FC0225FD21C02091FD0223FFD5CF37
:1021800089E390E0D2CF2091FC0226FFCECF8AE2F5
:1021900090E008952091FC0226FFC7CF81E390E0F4
:1021A000089583EE90E0089582EE90E0089580EE29
:1021B00090E0089586EE90E0089585E390E008951C
:1021C0009091FC0292FF06C0282F28712830F9F464
:1021D000877F846093FF06C0282F28712831F1F48F
:1021E000877E84612091FD0220FF06C0382F387160
:1021F0003830D9F4877F816021FF06C0282F2871ED
:102200002831D1F4877E816194FD877E0895282F3F
:1022100024712430F9F68B7F8860DCCF282F24715D
:10222000243101F78B7E8861DDCF382F3171313059
:1022300019F78E7F8860E0CF282F2171213121F797
:102240008E7E8861E1CF1092F8021092F90210920E
:10225000FA021092FB020895CF92DF92EF92FF9262
:102260006B017C010E94511381110EC00E94B622A5
:10227000C61AD70AE80AF90AC092F802D092F902FF
:10228000E092FA02F092FB02FF90EF90DF90CF9085
:1022900008950F931F930E945113882329F00E94E1
:1022A000B6221F910F9108950E94B6220091F80264
:1022B0001091F9022091FA023091FB02600F711F18
:1022C000821F931FEECF80E008950E94780D08953D
:1022D000CF930E94D2122FEF86E791E021508040E9
:1022E0009040E1F700C000000E94D2120E944E13FD
:1022F000C4E08111C0E08C2F0E94B41190E002C0B4
:1023000095958795CA95E2F780FF04C00E946511F4
:102310000E941123CF9108950E94681108950E9490
:102320007F0D811102C00E941D0E0E948A0D8093B4
:1023300098020E94940D9093FD028093FC020E94EB
:102340008C110E948F0D90E00E94CF0780912A028D
:1023500090912B020E94F007089508950E94AD11FC
:1023600008950E9452020895E82FF0E0E95FFC4FC3
:1023700080810895089508950E94BB110895EF92F9
:10238000FF921F93CF93DF9300D000D0CDB7DEB77D
:102390000E945113182F60910F03882309F447C03E
:1023A00019821A821B821C82862F90E09E012F5F69
:1023B0003F4F7901B901895F9C4F0E949513882393
:1023C000E9F08091FE0290E044E050E0B701895FBF
:1023D0009C4F0E94212A21E020939902892BC9F465
:1023E00010E00E94B111812F0F900F900F900F906D
:1023F000DF91CF911F91FF90EF9008958091990206
:10240000882371F384E0F70111928A95E9F710921D
:102410009902E091FE02F0E0E95FFC4F89819A8128
:10242000AB81BC8180839183A283B383DACF70E0D8
:10243000695F7C4F8091FE0290E0895F9C4F0E9413
:102440001C140E94BC11CFCF1F93CF93DF932CE0BD
:1024500031E0C1E0D0E0D90150E040E08D918F3F04
:1024600091F0E82FE295EF70F0E011A18F70BE01BE
:1024700001C0660F8A95EAF7962F9095912391A354
:1024800082A1862B82A34F5F5F4F4530510531F704
:102490002B5F3F4F81E020323807E9F6DF91CF9183
:1024A0001F910895CF93DF93AC01A62FB0E085E094
:1024B000689FF0011124E45FFE4F75E081E060E069
:1024C00091919F3FC9F0C92FC295CF70D0E028A14C
:1024D00030E09F7002C0359527959A95E2F720FD70
:1024E0000BC0282F622B880F715051F7A40FB51F16
:1024F0006C93DF91CF91089520E0F4CFA4E1B0E098
:10250000E4E8F2E10C94E62980912001811126C0D3
:1025100084E1E3E5F1E0DE01119601900D928A95E8
:10252000E1F7FE013196ACE0B1E0CE0145962081A5
:102530002C93218111962C931197228112962C9322
:102540001297238113962C931397248114962C931E
:102550001497359615968E179F0749F7809120019D
:1025600094E0811190E090930F0384E0891B8093A5
:10257000FE020E94241288E0E7E0F3E0DF01982FDA
:102580001D929A95E9F7EFEFF2E0DF011D928A952F
:10259000E9F784E00E9410130E94AE116496E2E015
:1025A0000C94022AA8E0B0E0E8EDF2E10C94E329F3
:1025B0008E010F5F1F4F88E0F80111928A95E9F7AD
:1025C000F12C6F2DC8010E945212F394F4E0FF1217
:1025D000F8CF48E050E0B8018FEF92E00E94212A46
:1025E00021E0009709F420E0892B41F088E0F80110
:1025F000AFEFB2E001900D928A95E1F760910F0381
:1026000070E0695F7C4F44E08FEF92E00E9411130D
:10261000182F0E94BF11812B2896E5E00C94FF290A
:102620000895CF92DF92EF92FF920F931F93CF9373
:102630006C017B01042F222349F081E080939C02EE
:102640000E94AA2290939B0280939A02C0919C02BE
:10265000C1110AC0C0E08C2FCF911F910F91FF9044
:10266000EF90DF90CF90089580919A0290919B0215
:102670000E94C222059770F310E0A801B601C701BD
:102680000E94212A892B41F0A801B601C7010E94AE
:102690002E2A10929C02DFCFC0E0FBCF0E94200EBA
:1026A0000895CF93DF9380919F02811117C0C8ECEA
:1026B000D0E00E94B62981110EC08FE39CE90197FA
:1026C000F1F700C000002197A1F782E080939F02FC
:1026D0000E94B12903C081E080939F0281E0909124
:1026E0009F02913009F080E0DF91CF9108950E9420
:1026F0007F0D811102C00E941D0E0E944E13809317
:1027000020010E94511381110E94CB1308950E9451
:102710005113811102C00E94CE13089581E090915F
:10272000A0029A3008F080E008950F931F93CF9392
:10273000DF93EC018B018091A0028A30B8F4B801DC
:10274000CE010E941914C82F811122C08091A002CD
:102750008F3FB9F40E94AA2290939E0280939D021B
:102760008C2FDF91CF911F910F91089580919D0241
:1027700090919E020E94C222843F914000F7C0E0E7
:10278000EFCF8F5F8093A0028A3020F7C1E0E8CFBF
:102790001092A002E5CF0E94C01F08950E94C31F9F
:1027A0000895B0E0A0E0E7EDF3E10C94E1297901B0
:1027B000C82F880FDD0B41155105A9F0FE0193E0EC
:1027C000EE0FFF1F9A95E1F7EF5DFE4F8181928139
:1027D0008F559D4F208130E04217530708F49A012E
:1027E000A9010E942E2ACE010E94AC20D82E882357
:1027F000D1F001151105B9F083E0CC0FDD1F8A95EA
:10280000E1F7FE01EF5DFE4F438150E0041715072D
:1028100008F4A801CF5DDE4F6C817D816F557D4F3F
:10282000C7010E942E2A8D2DCDB7DEB7E7E00C94AC
:10283000FD290E94761508950E9497150895A3E03A
:10284000B0E0E5E2F4E10C94E0296091BD02709102
:10285000BE028091BF029091C0020E94D1226B0102
:102860007C0111E084E6C816D104E104F10408F407
:1028700010E00E94450C898394E6C916D104E10456
:10288000F10438F4E0910902F0910A02918589136C
:1028900011E00E945B0C8A83111109C0E0910902CA
:1028A000F0910A0211E09285981301C010E00E9495
:1028B0007D0C8B83111108C0E0910902F0910A028E
:1028C000938511E08917C9F010E000E030E020E0C6
:1028D00043E050E0BE016F5F7F4F83E00E94D11361
:1028E000182F882351F00E94B6226093BD02709386
:1028F000BE028093BF029093C002812F2396E8E02E
:102900000C94FC29A4E0B0E0E8E8F4E10C94E4299C
:102910006091B9027091BA028091BB029091BC02A1
:102920000E94D12211E0643671058105910518F1EC
:102930000E9449116E5F7F4F8F4F9F4F69837A834B
:102940008B839C8310E000E030E020E044E050E026
:10295000BE016F5F7F4F82E00E94D113182F882342
:1029600051F00E94B6226093B9027093BA0280932C
:10297000BB029093BC02812F2496E4E00C94002AC1
:10298000B0E0A0E0E6ECF4E10C94DE297C015B0110
:102990006A010E948E1301E010E0882311F00AE022
:1029A00010E0C1E0D0E0B501C701F6010995811141
:1029B00004C021960C171D072CF4CDB7DEB7EAE052
:1029C0000C94FA29CC9F9001CD9F300D300D11242D
:1029D00090E080E045E34A95F1F700000196821708
:1029E0009307C1F7E0CFA5E0B0E0E9EFF4E10C9484
:1029F000DE295B01E0900902F0900A0201E010E09C
:102A00009E012B5F3F4F50E040E070E060E080E0CF
:102A10000E94D113182F882309F44BC067018FEF50
:102A2000C81AD80A6091B5027091B6028091B702B7
:102A30009091B8020E94D1226436710581059105FA
:102A400080F104E010E09E012F5F3F4F50E040E036
:102A500070E060E081E00E94D113F82E64E070E045
:102A6000C6010E94781811E09D81981310E01F2183
:102A700059F10E94B6226093B5027093B60280931A
:102A8000B7029093B80289819A81AB81BC8180930F
:102A9000B1029093B202A093B302B093B40211E0DA
:102AA00013C064E070E0C6010E9478189D8189130C
:102AB000C8CFF70181819281A381B48189839A83F0
:102AC000AB83BC831111DFCF8091B1029091B20230
:102AD000A091B302B091B402F50180839183A283E7
:102AE000B383812F2596EAE00C94FA290F931F9364
:102AF000CF93DF93EC018B0143EF54E10E94C014AC
:102B0000811106C080E0DF91CF911F910F91089550
:102B100042E854E1B801CE010E94C014882391F329
:102B20004FE154E1B801CE010E94C014ECCF0F93E5
:102B30001F93CF93DF93C0910902D0910A02CE0177
:102B4000019624E0FB01DC0101900D922A95E1F74A
:102B500064E070E00E94781888836D817E818F81A7
:102B600098850091AD021091AE022091AF02309194
:102B7000B002601771078207930751F06093AD02AE
:102B80007093AE028093AF029093B0020E942C111A
:102B90000A851B8589850E94550C802F0E946B0C2D
:102BA000812F0E94AC0CDF91CF911F910F9108955E
:102BB0000E9487240E948C0E0E94942408950E94F3
:102BC00099240E94A30E0E94B32408950E944322D8
:102BD0000E946D240E94720E0E94D8150E94DF157B
:102BE0000E94800EFBCF8091C70280FF0DC06091D4
:102BF000460170E0660F771F6038710570F561154A
:102C0000710569F1862F089581FF07C06091460123
:102C100084E0689FB0011124EFCF6091460182FDEE
:102C20000AC08091C6028823A9F0209145016091D5
:102C30004601821710F088E0ECCF869FC001112476
:102C400033E0880F991F3A95E1F7622F70E00E94F8
:102C5000BC29D2CF68E070E0D5CF8FE7089581E03E
:102C600008958091C70280FF0CC06091420170E01E
:102C700075956795759567956115710549F1862F6D
:102C8000089581FF06C06091420170E075956795D7
:102C9000F3CF6091420182FD0BC09091C502992350
:102CA000A1F06091410180914201961738F0682FA0
:102CB00070E06038710500F38FE70895899FC001C7
:102CC000112470E00E94BC29F4CF61E070E0D7CFFE
:102CD00081E008958D3C31F40E94F3158195809335
:102CE000CB0208958E3C19F40E94F315F8CF8F3C67
:102CF00031F40E94F31581958093CA020895803DB6
:102D000019F40E94F315F8CF893D29F40E94311679
:102D10008093CC0208958A3D21F40E94311681955A
:102D2000F7CF8B3D31F40E94311681958093CD020F
:102D300008958C3D19F40E943116F8CF9FE2980F48
:102D4000983070F4815D990B21E030E001C0220FD2
:102D50008A95EAF78091C902822B8093C90208956F
:102D60008D3D31F48091C70281608093C702089540
:102D70008E3D21F48091C7028260F7CF8F3DB9F775
:102D80008091C7028460F1CF4091CA028D3C59F412
:102D90008091CB0287FF0DC01092CB0241110BC076
:102DA0001092C60208C08E3C81F48091CB021816A6
:102DB0009CF3442381F08091CC029091CD02892B29
:102DC00009F05AC01092C50208958F3C49F447FF9C
:102DD000F0CF1092CA028091CB028111ECCFE0CFEC
:102DE000803D19F41416ACF3E4CF9091CC02893DE8
:102DF00029F41916F4F61092CC02DBCF8A3D19F4AF
:102E000097FFD7CFF8CF9091CD028B3D29F497FF54
:102E1000D0CF1092CD02CDCF8C3D19F41916CCF342
:102E2000C8CF9FE2980F983090F4815D990B21E014
:102E300030E0B90102C0660F771F8A95E2F7CB0137
:102E400080959091C90289238093C902B2CF8D3DAC
:102E500031F48091C7028E7F8093C702AACF8E3D46
:102E600021F48091C7028D7FF7CF8F3D09F0A1CF6C
:102E70008091C7028B7FF0CF08950E94AA229C0107
:102E80009091CA028091CB02982B21F03093C4021A
:102E90002093C3029091CC028091CD02982B21F017
:102EA0003093C2022093C10288EC92E00E944E212E
:102EB000089586E0E8ECF2E0DF011D928A95E9F7DB
:102EC0001092C6021092C5021092C7020895FC012A
:102ED000828181110EC0838181110BC08481811197
:102EE00008C091E08581811101C090E0892F817037
:102EF000089581E0FCCFA6E0B0E0E1E8F7E10C94B2
:102F0000E52986E0E8ECF2E0DE01119601900D92F1
:102F10008A95E1F71092CA021092CB021092CC026D
:102F20001092CD028B819C81892B89F08091C30204
:102F30009091C4020E94C222AC019091C6029923D2
:102F4000C9F1809147018417150608F440C08D81AE
:102F50009E81892B91F08091C1029091C2020E94C2
:102F6000C222AC019091C502992309F471C08091ED
:102F700043018417150608F479C0BE016F5F7F4FC7
:102F800088EC92E00E94FB21811105C088EC92E060
:102F90000E94671781110E943D1786E0FE0131965D
:102FA000A8ECB2E001900D928A95E1F72696E3E055
:102FB0000C94012A209148018AE0289F9001112455
:102FC0002417350720F69F5F9093C60202C09F3FEB
:102FD000D1F71B81112359F00E94F3159FEF1116B1
:102FE0000CF491E0899F802D11248093CA021C81EA
:102FF000112359F00E94F3159FEF11160CF491E084
:10300000899F802D11248093CB023091CA023323F3
:1030100009F49DCF2091CB02222309F498CF45EBF0
:103020003403C0011124992359F09093CA0245EB4F
:10303000240390011124332339F03093CB0287CF3E
:1030400081E08093CA02F3CF81E08093CB027FCFEF
:10305000209144018AE0289F90011124241735070C
:1030600008F08BCF9F5F9093C50202C09F3FD1F7BE
:103070001D81112359F00E9431169FEF11160CF497
:1030800091E0899F802D11248093CC021E81112311
:1030900059F00E9431169FEF11160CF491E0899FB0
:1030A000802D11248093CD023091CC02332309F47A
:1030B00064CF2091CD02222309F45FCF45EB340386
:1030C000C0011124992359F09093CC0245EB2403BD
:1030D00090011124332339F03093CD024ECF81E09B
:1030E0008093CC02F3CF81E08093CD0246CF089548
:1030F000FC01680F791F8FEF91E36E177F0709F4CA
:1031000008952191822728E030E087FF06C0880FCC
:10311000892721503109C9F7F0CF880FFACFFB0179
:103120002581222341F097FF06C09F77BC0190E0E4
:1031300080E00E94D61981E008950F931F93CF93EA
:10314000DF93EC018B01FB0185818823B1F00E94A4
:10315000450C8272FE01E053FC47E830F10568F44B
:10316000E956F54D0C94D029811104C081E003C0CB
:103170008111FCCF8FEF0E94F618B801CE010E949A
:103180008F18DF91CF911F910F91089580E00E94D9
:10319000FE18F3CF81E0FBCF82E0F9CF83E0F7CFD9
:1031A00084E0F5CF85E0F3CF90911103923071F474
:1031B0008A3050F490E009966AE070E00E94BC29E1
:1031C000875A0E94170508958650FBCF0E94571B0F
:1031D000089508950E94E91808958CE090E00E94F7
:1031E000372A809311030E94EA1808950895609188
:1031F00011038CE090E00E94552A0895CF93C82FC8
:10320000809311030E94F7188C2F0E94EA18CF9127
:1032100008950E94402180931003909111039130F2
:1032200029F481FF03C089E30E9417050E94450C21
:10323000809312030E94580C0E946E0C809111031F
:10324000823021F158F48823C1F08130D1F08FE32E
:103250009CE90197F1F700C000000895843051F116
:103260008530A9F78BE191E00E940F0385E290E0A1
:103270000E940F0388E290E006C082EE0E947F0465
:10328000E6CF88E193E00E940F03E1CF8091100325
:1032900080FD03C083E50E94170582EE0E947F0433
:1032A0008FE39CE90197F1F700C0000087E50E94D9
:1032B0001705CDCF86EE0E94170588E1F8CF8091E3
:1032C0001103823011F148F4882381F0813091F0AC
:1032D000809112030E94550C08958430F9F08530D6
:1032E000B9F788E290E00E940F03F2CF82EE0E94CD
:1032F000CC04EECF8CE20E9417058091100381FF71
:10330000E7CF89E30E941705E3CF82EE0E94CC0449
:103310008091100380FDDCCF83E5F4CF88E2F2CF0B
:103320008F929F92AF92BF92EF92FF920F931F9353
:10333000CF93DF934B015C01D09111038CE1E82E18
:10334000F12C07E010E021E0D501C4010E2C04C0EF
:10335000B695A795979587950A94D2F7C82FCF7001
:10336000222339F0D43051F4CA3040F080E00E947A
:10337000D4188C2F0E94D41820E005C0C111F9CFB9
:1033800004301105B4F30150110984E0E81AF10882
:103390000F3F1007C9F6DF91CF911F910F91FF905A
:1033A000EF90BF90AF909F908F900895CF92DF9253
:1033B000EF92FF926B017C01C114D10481E1E80618
:1033C000F104A0F5C114D10481E0E806F10420F075
:1033D00080911103823051F10E940919C114D10466
:1033E00081E0E806F10438F180911103811123C0D6
:1033F00081E0E81AF108C701B6012AE096958795A1
:10340000779567952A95D1F778528F4F9F4F0E94F5
:10341000901983E0D822EE24FF24C701B60174522C
:103420008F4F9F4F0E9490190E945F19FF90EF905D
:10343000DF90CF900895C701B601F4CFCF93DF930B
:10344000EC01FB018581882309F4D2C09E0130572D
:103450002332310508F0B2C00E94940D9093FD0212
:103460008093FC02FE01E150F047E232F10520F4C6
:10347000E156F54D0C94D0298091FC028160809337
:10348000FC0293C08091FD0288608093FD028DC094
:103490008091FC028260F3CF8091FC028460EFCFC8
:1034A0008091FC028860EBCF8091FD028160EDCFBE
:1034B0008091FD028260E9CF8091FC028061DFCFC4
:1034C0008091FC028062DBCF8091FC028064D7CFC8
:1034D0000E9482078091FC028068D1CF8091FC021B
:1034E0008C60CDCF8091FD028360CFCF8091FC02B4
:1034F0008E7FC5CF8091FD02877FC7CF8091FC0270
:103500008D7FBDCF8091FC028B7FB9CF8091FC0273
:10351000877FB5CF8091FD028E7FB7CF8091FD026E
:103520008D7FB3CF8091FC028F7EA9CF8091FC026A
:103530008F7DA5CF8091FC028F7BA1CF0E94820757
:103540008091FC028F779BCF8091FC02837F97CF85
:103550008091FD028C7F99CF8091FC0282FB99279C
:1035600090F921E0922790FB82F990FB83F987CFB5
:103570008091FD02982F909591708E7F892B90FB02
:1035800081F983CF9091FC02892F8F7B96FF806415
:1035900076CF0E9482079091FC02892F97FB87F9D2
:1035A00080586DCF81E00E942A0E8091FC0290919C
:1035B000FD020E94990D0E94820780E0DF91CF9169
:1035C000089580E0F0CF9091FC02892F8F7E94FFC8
:1035D000806155CF9091FC02892F8E7F90FF816092
:1035E0004ECF9091FD02892F877F93FF88604DCF4A
:1035F00081E0E4CFB0E0A0E0E0E0FBE10C94E12961
:10360000E82FF0E0E150FE4FD490282F2695269524
:10361000269530E0F901E156FD4F0491877010E0E6
:10362000082E02C0159507950A94E2F7017011273C
:10363000F901E157FD4FE490F12C082E02C0F594FA
:10364000E7940A94E2F791E0E922FF24F901E158B6
:10365000FD4FC491D0E002C0D595C7958A95E2F799
:10366000C170DD270115110519F081EE0E947F045C
:10367000E114F10419F086EE0E947F048D2D0E9462
:103680001705E114F10419F086EE0E94CC0401152F
:10369000110519F081EE0E94CC04CD2B19F08CE2BB
:1036A0000E941705CDB7DEB7E7E00C94FD29982FEF
:1036B0009F709A50963020F0805D0E94FA1A08950B
:1036C000895AFBCFEF92FF920F931F93CF93DF9313
:1036D0008C01F62E8AE0E82EF8018491882309F403
:1036E00054C0813009F04DC0E8012196FE0184915B
:1036F000813091F42196FE0184910E9417058E017C
:103700000F5F1F4F8F2D815038F3EFE9FFE03197A6
:10371000F1F700C00000F7CF823039F4E8012296BB
:10372000FE0184910E947F04EACF833039F4E801DE
:103730002296FE0184910E94CC04E1CF8430F9F6F8
:10374000E8012296FE01249190E080E0FE0131968E
:103750002053330B2A30310548F0019780F2EFE90E
:10376000FFE03197F1F700C00000F7CFE89EA0011D
:10377000E99E500D1124C901840F951F2491EF017A
:10378000E5CF0E94FA1AE801BACFCDB7DEB7E6E07E
:103790000C94FE29CF93DF93EB0186319C4711F502
:1037A0000E94450C9D81992399F08A7A91E009F451
:1037B00090E09093CE02811109C089E20E941A0C18
:1037C0000E94C30C80E0DF91CF91089585E3F6CF8E
:1037D0008091CE02811104C089E20E94220CF0CFB8
:1037E00085E3FBCF81E0EFCFFC018581862351F497
:1037F00092819923B9F06923818583FF05C081E017
:1038000061110FC080E00895892F8F7092959F708D
:10381000982B862F8F7062956F70682B81E09613BE
:10382000F1CF089581E0FDCFCF93DF93EC0160915C
:10383000D9027091DA028091DB029091DC020E9441
:10384000D122643F71408105910518F58091D9021C
:103850009091DA02A091DB02B091DC028093D50254
:103860009093D602A093D702B093D80284EF91E050
:10387000A0E0B0E08093D1029093D202A093D30253
:10388000B093D402D093D002C093CF02DF91CF91F6
:1038900008950E94B6226093D5027093D602809359
:1038A000D7029093D80282E390E0A0E0B0E0E2CFAC
:1038B000FF920F931F93CF93DF93F82E0091E002B6
:1038C0001091E1020115110509F44DC01092D002CA
:1038D0001092CF020E947A0C0E94740C0091E002B8
:1038E0001091E102D8011796CD91DC919E013A9595
:1038F00021153F4108F4D07ED1E0C11101C0D0E0D4
:10390000D8011A96ED91FC911B97309731F01C96D7
:103910006D917C9180E00995D823DD2339F08CEFFF
:103920008C0F813A30F58C2F0E94220CFF2099F0E9
:10393000E091E002F091E102818584FD0CC080916C
:10394000DF02882341F0808191819C01215031095F
:103950002F333E47A0F00E94C30C1092E102109258
:10396000E0021092DF02C801CDB7DEB7E5E00C94AB
:10397000FF290E94C30C8C2F0E94CC04D7CF0E9439
:10398000141CE9CF1092490180E00E94581C089550
:1039900080914901882319F00E94C21C089581E09A
:1039A0008093490108950F931F938091CF029091C6
:1039B000D002892B89F16091D5027091D602809155
:1039C000D7029091D8020E94D1220091D102109189
:1039D000D2022091D3023091D4026017710782077E
:1039E0009307D0F08091CF029091D0020E94C9023B
:1039F0001092D0021092CF021092D5021092D602ED
:103A00001092D7021092D8021092D1021092D202D4
:103A10001092D3021092D4021F910F910895A4E046
:103A2000B0E0E5E1FDE10C94D6298C017A8369834D
:103A3000DB0115965C905520B1F08E35BCE79B07F5
:103A400059F08F35ECE79E0759F08D359C4759F4B6
:103A50000E94C81C312C0DC081E080934901FACF2F
:103A60000E94C21CF7CF30904901311007C03324A7
:103A70003394832D2496E2E10C94F229680120EE20
:103A8000C21AD1080E94450CF82E0E94310C482E13
:103A90000E947D0C482A4F2838E0C316D10408F054
:103AA00094C098012770332781E090E001C0880F0F
:103AB0002A95EAF7552009F485C0482AA981BA81D8
:103AC0008D919C910E94DB088090000190900101F3
:103AD0008114910409F4E1C021E030E0F90102C051
:103AE000EE0FFF1F8A95E2F7FA83E9836090E00208
:103AF0007090E102A090DD02B090DE02212CE22D58
:103B0000F0E0EE0FFF1FE80DF91D208131813C83AD
:103B10002B832115310509F4C0C0411005C0D9011E
:103B200012968C9181118BC0EB81FC8183819481F1
:103B300029813A8182239323892B09F480C08185CE
:103B4000982F977009F487E038E0C316D10408F085
:103B500056C0552009F44FC086958170882309F41A
:103B60006EC0AB81BC81ED90FC900E151F0519F461
:103B7000552009F464C0EB81FC81E615F70509F4D2
:103B80005EC00684F785E02D309721F08081882380
:103B900009F455C0642D8B819C810E94F41B8823FD
:103BA00009F44DC00E151F0509F08BC00115110554
:103BB00009F48CC051108CC0EA14FB0409F03FC01A
:103BC000512C86C08095482279CF552009F44EC0EB
:103BD0001093DE020093DD020E94B6226093D902A8
:103BE0007093DA028093DB029093DC021092D00291
:103BF0001092CF0263CF82FB882780F9AFCF552088
:103C0000F1F08170ABCF0E94CC0483C00497813A5D
:103C1000910548F4802F0E941A0C552009F427CFF3
:103C20000E94C30C17CF0E94C30C8FE39CE901973D
:103C3000F1F700C00000802F0E947F04EECF239494
:103C40005ECFFC01208131812017310731F4511002
:103C500007C01092DF0280E031C0552009F407CF81
:103C6000DC0119968C9185FD02CFF5CF8091DD02A4
:103C70009091DE028017910781F41092DE0210927B
:103C8000DD021092D9021092DA021092DB02109239
:103C9000DC021092D0021092CF028091E00290914B
:103CA000E102009709F4E3CEA8E0CA16D10448F671
:103CB000642D0E94F41B8111DACE81E00E94581C11
:103CC000D8CEE114F10409F077CF512CF12CE12C7E
:103CD00080E00E94581CEB81FC81F093E102E093AC
:103CE000E00281E08093DF0286810E94770C511010
:103CF00010C0E114F10469F0AB81BC818D919C91FD
:103D00009C0124503109213A310508F07CCF0E94F2
:103D1000220CEB81FC8107811085C8019A958115E1
:103D20009F4108F4107EFF24F394C80101978F335C
:103D30009E4708F0F12CAB81BC811A96ED91FC9165
:103D40001B97309731F01C966D917C9181E009951D
:103D5000F822FF2081F0EB81FC81878190850E9411
:103D60008E020E94710CC801F8E0CF16D10408F051
:103D70004DCF0E94141C0E94C30C4FCF0F931F9372
:103D8000CF93DF93C42FD22FFC0185818823C9F004
:103D90004093E4020E94AA229093E3028093E202FD
:103DA00080E28C0F883040F4C77081E001C0880F3A
:103DB000CA95EAF70E942005DF91CF911F910F91DC
:103DC00008951091E402141332C08091E2029091A0
:103DD000E3020E94C222883C910548F5C0E2CD0F63
:103DE0001D17B9F080E2810F883040F4177081E030
:103DF00001C0880F1A95EAF70E942705C83048F4D9
:103E000081E09D2F977001C0880F9A95EAF70E9474
:103E10002005802F0E941705C83070F6D77081E00A
:103E200001C0880FDA95EAF70E942705C5CF80E226
:103E30008C0F883008F6C77081E001C0880FCA95E2
:103E4000EAF7F2CF0F93DB0188519C478730910549
:103E5000A0F5FC01EF53F54D0C94D02906E221EEBC
:103E600041EE6AE17CE7CD010E94BE1E80E00F9129
:103E7000089507E225EE45EE6BE17CE7F4CF06E21C
:103E800021EE40EE68E17CE7EECF07E225EE44EE5E
:103E900069E17CE7E8CF06E221EE42EE6CE17CE7E7
:103EA000E2CF07E225EE46EE6DE17CE7DCCF08E2EB
:103EB00021E045EE6EE17CE7D6CF15968C91882304
:103EC00019F01092E402D3CF81E0D1CF8EE14A9B6A
:103ED00002C08150E1F74A9BFECF08955A9880E2D4
:103EE0008A95F1F75A9A0895FC013BE03A95F1F76B
:103EF00098E020E080E031E040E14A95F1F7880F5A
:103F00004A9B02C08160232742E04A95F1F70000F6
:103F100040E14A95F1F7915079F790E19A95F1F7E0
:103F200099B132E03A95F1F7000040E14A95F1F796
:103F300092FB992790F992272081920F9083089500
:103F4000A1E0B0E0E6EAFFE10C94E22919828C01DD
:103F50007C01E60EF11C0E151F0541F481E09981EC
:103F6000911180E02196E6E00C94FE290E94661FE4
:103F7000CE0101960E94741FF80181938F01EBCF4F
:103F8000529A5A9A089552985A9AEA9AE9E6F0E0B3
:103F900080818F7C808308956150770B91E001C010
:103FA000990F6A95EAF720E031E0911108C02223C9
:103FB00091F05A9A80E28A95F1F75A980895492F1C
:103FC000482339F05A9A232740E24A95F1F796950B
:103FD000ECCF5A98F9CF5A98EDCFFF920F931F93D9
:103FE000CF93DF93EC018C01060F111DC017D10791
:103FF00029F4CDB7DEB7E5E00C94FF29F9900E94D3
:104000006E1F68E08F2D0E94CC1FF0CF1F920F9281
:104010000FB60F9211240F931F932F933F934F933B
:104020005F936F937F938F939F93AF93BF93EF9320
:10403000FF93CF93DF930F92CDB7DEB719820E9423
:10404000661FCE0101960E94741F082F06950695E3
:104050000695282F22952570902F9570290F922F65
:10406000937026952695920F982797708981982BA3
:1040700009F05CC0053008F059C080E18A95F1F77D
:104080005A9A529A82E08A95F1F700C05A9888E0CD
:10409000089F80011124D801AF5DBE4F1696ED91A7
:1040A000FC9117973097A9F06091090270910A026C
:1040B00014962D913C911597260F371F11968D91CF
:1040C0009C911297680F791F13964C9113978C91BE
:1040D0000995F801EF5DFE4F6381662351F0209151
:1040E000090230910A0284819581820F931F0E94F8
:1040F000ED1F0E946E1F80E18A95F1F75A98529841
:104100005A9A80E18A95F1F7F801EF5DFE4F6081E0
:10411000662351F02091090230910A028181928137
:10412000820F931F0E94A01F0E94661F0F90DF91B5
:10413000CF91FF91EF91BF91AF919F918F917F911F
:104140006F915F914F913F912F911F910F910F9020
:104150000FBE0F901F9018950F931F93CF93DF936F
:10416000EC0105970CF04CC0F894529A5A9885E0EF
:104170008A95F1F700009C2F969595708C2F85708D
:10418000980F892F83709695969523E0CC0FDD1FAD
:104190002A95E1F7980F8E01092B0E946E1F00C02F
:1041A00068E0802F0E94CC1F80E18A95F1F7529839
:1041B0005A9A4A9B1EC087E090E04A991CC0FE01B3
:1041C000EF5DFE4F63816623F9F020910902309183
:1041D0000A0284819581820F931F0E94A01F811182
:1041E00013C0529A5A9A7894DF91CF911F910F91F0
:1041F000089500C0DECF019729F4529A5A9A789414
:1042000080E0F2CF00C0D9CF0E94661F80E28A957D
:10421000F1F75A98529A80E18A95F1F7CF5DDE4F17
:104220006881662351F02091090230910A02898148
:104230009A81820F931F0E94ED1F0E946E1F789437
:1042400081E0D2CF90930D0280930C020895909359
:10425000EB028093EA0208950E945113811103C07A
:104260008091E5020895E091EA02F091EB02309727
:1042700029F00190F081E02D0995089580E00895DE
:104280000E942C210895E091EA02F091EB02309710
:1042900021F00280F381E02D09950895E091EA0272
:1042A000F091EB02309739F022E0DC012C9304808E
:1042B000F581E02D09950895A3E0B0E0E2E6F1E292
:1042C0000C94E6292091E8023091E9022817390779
:1042D000A1F09093E9028093E802E091EA02F09164
:1042E000EB02309751F023E029839B838A83068079
:1042F000F781E02DCE01019609952396E2E00C941A
:10430000022AA3E0B0E0E7E8F1E20C94E62920916C
:10431000E6023091E70228173907A1F09093E702EF
:104320008093E602E091EA02F091EB02309751F0BF
:1043300024E029839B838A830680F781E02DCE01C8
:10434000019609952396E2E00C94022A9C012E5FC7
:104350003F4FAC01485F5F4F80E02417350709F4F9
:104360000895F90191919F019923B9F38F5FF5CFDA
:10437000662349F0FC01329608962191261729F010
:10438000E817F907D1F780E0089581E008959C01CE
:10439000FC0132969FEF80E04191461751F09F3F1C
:1043A00019F4411101C0982F8F5F8630A9F79F3F04
:1043B00009F40895290F311D97FD3A95F90162839B
:1043C0000895FC01329608962191261303C0DF015F
:1043D00011971C92E817F907B9F708950E94C721B1
:1043E00008950E94E1210895029626E0FC011192B1
:1043F0002A95E9F7089546E050E00E94212A21E03D
:10440000892B09F420E0822F089508950E94052247
:104410000895811106C081E08093EC020E9406227B
:10442000089582E0F9CF83E08093EC020E94062297
:1044300008950E940922089581E08093EC020E9471
:10444000062208950E941C220895089508950E944E
:1044500026220895089508950E9425220895CF9355
:104460000E942A220E94D2120E942B22C0E08C2F8E
:104470000E94B411811105C0CF5FC830C1F7CF9140
:10448000089581E0FCCF85B7806885BF85B78068D7
:1044900085BF08951F921FB61F9211248F939F937B
:1044A000AF93BF938091ED02811113C080911303EC
:1044B00090911403A0911503B09116034196A11D8C
:1044C000B11D8093130390931403A0931503B0932D
:1044D0001603BF91AF919F918F911F901FBE1F90A8
:1044E000189580911B03843031F10E94F3031092E0
:1044F000ED0288E190E020E40FB6F894A89580934F
:1045000060000FBE2093600083B7817F846083BF0B
:1045100083B7816083BF7894889583B78E7F83BF8C
:104520000FB6F894A8958091600088618093600030
:10453000109260000FBE08950E9482070E94F80347
:10454000089582E084BD93E095BD9AEF97BD809376
:104550006E0008952FB7F89480911303909114037F
:10456000A0911503B09116032FBF08952FB7F894AB
:1045700060911303709114038091150390911603B9
:104580002FBF08959C014FB7F89480911303909129
:104590001403A0911503B09116034FBF821B930B18
:1045A0000895CF92DF92EF92FF922FB7F894C090C8
:1045B0001303D0901403E0901503F09016032FBF5F
:1045C000A7019601261B370B480B590BCA01B901ED
:1045D000FF90EF90DF90CF90089578941F921FB6D0
:1045E0001F9211248F939F93AF93BF9380911303D6
:1045F00090911403A0911503B09116030196A11D8B
:10460000B11D8093130390931403A0931503B093EB
:104610001603BF91AF919F918F911F901FBE1F9066
:10462000189587E797E7909301088093000888E141
:104630009AE00FB6F894A895809360000FBE90930F
:104640006000FFCF88E19AE00FB6F894A8958093B8
:1046500060000FBE90936000FFCF8091F602089536
:104660009B01BA0190911B039430E9F48F70809301
:10467000E9009FEF8091E800915085FD06C085ED2F
:104680008A95F1F700009111F5CF8091E80085FF40
:104690000AC050E040E0C9010E942A258091E8004C
:1046A0008E778093E800089543E050E0BC0182E0FB
:1046B0000E943023089546E050E0BC0182E00E9451
:1046C00030230895CF93DF93EC0148E050E0BC0124
:1046D00081E00E94302388E0FE01AEEEB2E001905E
:1046E0000D928A95E1F7DF91CF91089580911A0399
:1046F000811109C00E94BA260E9417278091E2000A
:1047000084608093E200089510921A0308950E9435
:104710001C2208956091170381E0611101C080E0BF
:104720000E941322089590911B0381E0943009F0B8
:1047300080E0609117030E941922089542E061EC25
:1047400081E00E94362642E261EC82E00E94362639
:1047500090911B0381E0943009F080E06091170391
:104760000E940922089580911D03833009F461C0DD
:1047700030F48130D1F1823009F49EC008958A303E
:1047800009F48AC08B3009F46FC0893009F050C039
:1047900080911C03813209F04BC0809120039091DD
:1047A0002103029708F044C08091E800877F80933E
:1047B000E8008091E80082FF37C09091F30080917B
:1047C000F200029731F48091F100813011F08630CF
:1047D00021F48091F1008093F6028091E8008B77BC
:1047E0008093E8000E946A2623C080911C03813ACE
:1047F000F9F48091E800877F8093E800809120039E
:1048000090912103892B61F468E08EEE92E070E0D4
:104810000E9479258091E8008B778093E8000895C5
:1048200060E090E080E0F3CF80911B038111C1CF65
:10483000089580911C03813AD9F7809120039091CB
:104840002103892BA9F78091E800877F8093E800F6
:104850008091E80080FFFCCF809152018093F100AD
:104860008091E8008E77BCCF80911C03813201F7E4
:104870008091200390912103892BD1F68091E8004B
:10488000877F8093E8000E946A2680911E038093B0
:1048900052010E948207089580911C03813241F6E3
:1048A0008091E800877F8093E8000E946A268091CB
:1048B0001F038093F702089580911C03813A09F049
:1048C000B7CF8091E800877F8093E8008091E8006F
:1048D00080FFFCCF8091F702C1CF84B7877F84BF70
:1048E0000FB6F894A895809160008861809360006D
:1048F000109260000FBE80E890E00FB6F8948093AD
:104900006100909361000FBE0E94222208950E94D0
:10491000BA260E941727E2EEF0E08081846080834F
:1049200078940E94962908958AE491E00E942721B4
:10493000089580911B03853031F480911B038530ED
:1049400019F00E949C2208950E94712280911903FF
:10495000882399F30E942F22882379F30E9414253B
:104960000E948207EACF08959A0140912203509154
:1049700023030E94BC240895492F55274330510535
:1049800019F168F44130510509F444C04230510531
:1049900009F445C090E080E050E040E025C041329D
:1049A000510549F142325105A9F780E490E043EB0B
:1049B00053E061157105C1F08BE790E048E353E0E7
:1049C0006130710589F0E6CF99278130910581F03A
:1049D000009729F00297F1F6EFEAF2E002C0E7EE65
:1049E000F2E0849190E0AF01F90151834083089592
:1049F000E3ECF2E0F6CF89E090E04DEF52E0611594
:104A0000710591F389E090E046E153E06130710572
:104A100059F3C0CF82E190E046E253E0E5CF8BE36B
:104A200090E04BEE52E0E0CF80E189BD82E189BDAC
:104A300009B400FEFDCF8091D8008F7D8093D8000F
:104A40008091E00082608093E0008091E00081FD31
:104A5000FCCF0895AF92BF92CF92DF92FF920F9357
:104A60001F93CF93DF936C01EB018A010E9489268B
:104A7000F82E811123C00115110539F0F80180814C
:104A80009181C81BD90BC80ED91EB12CA12C20971F
:104A9000A9F08091E80085FD22C08091E8008E7722
:104AA0008093E80001151105A1F0F8018081918142
:104AB000A80EB91EB182A08285E0F82E8F2DDF915D
:104AC000CF911F910F91FF90DF90CF90BF90AF904B
:104AD00008950E9489268823D1F2F82EEFCFF6019F
:104AE00081916F018093F1002197FFEFAF1ABF0A08
:104AF000CECFFC0180912203909123038617970764
:104B0000A0F06115710529F49091E8009E779093CB
:104B1000E80090E06115710551F4911108C0809191
:104B2000E80082FF34C080E00895BC01F2CF80919C
:104B30001B038823C1F18530C1F18091E80083FD1A
:104B400030C08091E80082FDEACF8091E80080FFCC
:104B5000E1CF8091F3002091F200382F61157105AB
:104B600019F02830310558F091E02830310509F06E
:104B700090E02091E8002E772093E800CBCF819140
:104B80008093F100615071092F5F3F4FE7CF809113
:104B90001B03882341F0853041F08091E80083FFBA
:104BA000BECF81E0089582E0089583E00895FC017E
:104BB000809122039091230386179707A0F0611537
:104BC000710529F48091E8008E778093E80090E0E9
:104BD0006115710551F4911108C08091E80082FFC0
:104BE00035C080E00895BC01F2CF80911B0388237B
:104BF000C9F18530C9F18091E80083FD31C0809111
:104C0000E80082FDEACF8091E80080FFE1CF80914B
:104C1000F3002091F200382F6115710519F028304A
:104C2000310558F091E02830310509F090E080918D
:104C3000E8008E778093E800CBCF84918093F100D9
:104C40003196615071092F5F3F4FE6CF80911B0372
:104C5000882341F0853041F08091E80083FFBDCF8B
:104C600081E0089582E0089583E00895982F9730B9
:104C700028F08F708093E90081E008959093E90017
:104C8000242F762F50E0981731F07091EC0020918E
:104C9000ED005091F00021FD02C09F5FE8CF309100
:104CA000EB003E7F3093EB003091ED003D7F309381
:104CB000ED003091EB0031603093EB007093EC002D
:104CC0002093ED005093F0002091EE0027FDE5CFFA
:104CD00080E0089580911C0387FF13C08091E80055
:104CE00082FF06C08091E8008B778093E80004C0C3
:104CF00080911B038111F2CF089580911B038823BB
:104D0000D9F38091E80080FFF8CF8091E8008E779A
:104D1000ECCF2091E4003091E50095E6A9012091C7
:104D2000EC00822F817020FF06C08091E80080FF98
:104D300006C080E008952091E80022FD1AC080910D
:104D40001B03882389F0853089F08091EB0085FD75
:104D50000FC02091E4003091E50042175307F9F2AB
:104D60009150E1F684E0089582E0089583E008958B
:104D700081E008950E9429270E943127E0EEF0E0AB
:104D8000808181608083E8EDF0E080818F7780838F
:104D900019BCA7EDB0E08C918E7F8C9380818F7EC3
:104DA000808310921A0308950F931F93CF93DF937C
:104DB0000E9429270E943127C8EDD0E088818F7793
:104DC000888388818068888388818F7D888319BCE7
:104DD00010921B03109217031092190310921803DC
:104DE00000EE10E0F80180818B7F808388818160F4
:104DF000888342E060E080E00E943626E1EEF0E049
:104E000080818E7F8083E2EEF0E08081816080830C
:104E1000808188608083F80180818E7F8083888193
:104E200080618883DF91CF911F910F910895E8ED04
:104E3000F0E080818F7E8083E7EDF0E0808181600B
:104E4000808384E082BF81E080931A030E94D4268D
:104E50000895E8EDF0E080818E7F80831092E2007B
:104E600008951092DA001092E10008951F920F92B7
:104E70000FB60F9211242F933F934F935F936F932D
:104E80007F938F939F93AF93BF93EF93FF93809103
:104E9000E10082FF0BC08091E20082FF07C0809199
:104EA000E1008B7F8093E1000E9495298091DA00D8
:104EB00080FF19C08091D80080FF15C08091DA0072
:104EC0008E7F8093DA008091D90080FF96C080E1C8
:104ED00089BD82E189BD09B400FEFDCF81E08093E8
:104EE0001B030E9476238091E10080FF19C080910E
:104EF000E20080FF15C08091E2008E7F8093E20087
:104F00008091E20080618093E2008091D80080620D
:104F10008093D80019BC85E080931B030E948A23EC
:104F20008091E10084FF2BC08091E20084FF27C0C4
:104F300080E189BD82E189BD89B5982F917080FF9C
:104F4000FBCF8091D8008F7D8093D8008091E100C5
:104F50008F7E8093E1008091E2008F7E8093E2005B
:104F60008091E20081608093E200809117038823A2
:104F700009F449C084E080931B030E94932380912D
:104F8000E10083FF29C08091E20083FF25C080916A
:104F9000E100877F8093E10082E080931B03109201
:104FA00017038091E1008E7F8093E1008091E20001
:104FB0008E7F8093E2008091E20080618093E20026
:104FC00042E060E080E00E9436268091F000886038
:104FD0008093F0000E948723FF91EF91BF91AF91E2
:104FE0009F918F917F916F915F914F913F912F9101
:104FF0000F900FBE0F901F90189519BC10921B03B5
:105000000E94842370CF8091E30087FD93E090930A
:105010001B03B3CF1F920F920FB60F9211242F9341
:105020003F934F935F936F937F938F939F93AF9330
:10503000BF93CF93DF93EF93FF93D091E900DF709D
:105040008091EC00C82FC17080FDC0E81092E9008B
:105050008091F000877F8093F00078940E944E2822
:105060001092E9008091F00088608093F000CD2BD1
:10507000CF70C093E900FF91EF91DF91CF91BF9185
:10508000AF919F918F917F916F915F914F913F91E0
:105090002F910F900FBE0F901F901895AAE2B0E0CD
:1050A000E4E5F8E20C94E5298CE193E02091F1002D
:1050B000FC012193CF01F3E084329F07B9F70E94EE
:1050C000B3238091E80083FF1EC180911C0390915F
:1050D0001D039A3008F017C1E92FF0E0E853F54DB1
:1050E0000C94D029803899F0823809F00CC1809155
:1050F00020038F70873008F006C18093E90080910B
:10510000EB0085FB882780F91092E90006C08091AA
:10511000180390911903911182609091E800977F94
:105120009093E8008093F1001092F1008091E800E4
:105130008E77E5C0882309F4D3C0823009F0E3C03C
:1051400080911E038111D6C0809120038F702FEFB4
:10515000280F263008F0D7C08093E9002091EB009B
:1051600020FFC8C0933031F48091EB0080628093BF
:10517000EB00C0C09091EB0090619093EB0021E0B8
:1051800030E001C0220F8A95EAF72093EA001092DE
:10519000EA008091EB008860EACF8111B4C01091E1
:1051A0001E031F778091E3008078812B8093E300BA
:1051B0008091E800877F8093E8000E946A268091B2
:1051C000E80080FFFCCF8091E30080688093E300DB
:1051D00082E0111183E080931B0395C080588230D8
:1051E00008F091C080911E0390911F038C3D23E035
:1051F0009207A1F583E08A838AE289834FB7F89406
:10520000DE01139620E03EE051E2E32FF0E0509300
:105210005700E49120FF03C0E295EF703F5FEF700D
:105220008E2F90E0EA30C0F0C7968D939D932F5F4C
:10523000243159F74FBF8091E800877F8093E800C1
:105240006AE270E0CE0101960E9479258091E80023
:105250008B778093E80057C0C096E7CF609120031A
:1052600070912103AE014F5F5F4F0E94B424BC01D7
:10527000892B09F448C09091E800977F9093E8004B
:1052800089819A810E94D725E1CF8038E1F580910C
:10529000E800877F8093E800809117038093F100F6
:1052A00045CF811130C090911E03923060F58091FE
:1052B000E800877F8093E800909317030E946A2696
:1052C00080911703882311F084E005C08091E300EA
:1052D00087FDFACF81E080931B030E949E2313C0B9
:1052E00080911E03813079F481E0933009F080E0F1
:1052F000809319031092E9008091E800877F8093E2
:10530000E8000E946A268091E80083FF0AC080912D
:10531000E800877F8093E8008091EB0080628093B3
:10532000EB00AA96E3E00C94012A0895CF938091B4
:105330001B038823A1F0C091E900CF709091EC008D
:10534000892F817090FD80E8C82B1092E900809130
:10535000E80083FD0E944E28CF70C093E900CF91F2
:1053600008950E94BA2610921B0308958091E300CD
:10537000881F8827881F089597FB072E16F400942E
:1053800007D077FD09D00E940D2A07FC05D03EF416
:10539000909581959F4F0895709561957F4F0895E1
:1053A000EE0FFF1F0590F491E02D09942F923F928C
:1053B0004F925F926F927F928F929F92AF92BF9225
:1053C000CF92DF92EF92FF920F931F93CF93DF93D1
:1053D000CDB7DEB7CA1BDB0B0FB6F894DEBF0FBE2E
:1053E000CDBF09942A88398848885F846E847D847B
:1053F0008C849B84AA84B984C884DF80EE80FD807D
:105400000C811B81AA81B981CE0FD11D0FB6F894F2
:10541000DEBF0FBECDBFED010895AA1BBB1B51E13E
:1054200007C0AA1FBB1FA617B70710F0A61BB70B14
:10543000881F991F5A95A9F780959095BC01CD01B9
:105440000895FB01DC0104C08D910190801921F4C5
:1054500041505040C8F7881B990B0895FB01DC01AF
:1054600002C001900D9241505040D8F70895F9992B
:10547000FECF92BD81BDF89A992780B50895A8E125
:10548000B0E042E050E00C947B2ADC01A40FB51F91
:105490004150504048F0CB01840F951F2E910E943F
:1054A000562A41505040D0F70895262FF999FECF43
:1054B00092BD81BDF89A019700B4021639F01FBA67
:1054C00020BD0FB6F894FA9AF99A0FBE0895039684
:1054D000272F0E94562A0E94552A252F0E94562ABD
:1054E000242F0C94562A0196272F0E94562A0C949A
:1054F000552ADC01CB01FC01F999FECF06C0F2BDB3
:10550000E1BDF89A319600B40D9241505040B8F781
:105510000895F894FFCF6D056D05BD05BD05220604
:105520003E069C059C054306B406C306C306B41894
:10553000B818C618CA18CC18CE18D018D218761AAF
:10554000EA1A7E1A481A4C1A821A501A861A921AA5
:105550005C1AE31A601A961A641A9A1AC21A681A1E
:105560009E1AC91A6E1AA41AAC1A541A8A1A581A10
:105570008E1A721AA81AB81AD21AE11A421A7A1A8C
:10558000F11A3F1F451F2E1F391F4B1F511F571F59
:1055900072289A2883299A288329CD28EE288329DE
:0455A000452951291F
:1055A400020187017701670100007A023294F691C3
:1055B400F4C63390F59336973166F73435FFFFFF21
:1055C40001000000010000000000000004010000D0
:1055D40000040500000000000003090000000000B2
:1055E40000280850011E0A1401012D2362235B23A5
:1055F400542301F491F6943293F59033C6F766314F
:1056040097363534FFFFFF380222FFFF00221E02C7
:1056140007000000000000373122FFFF00221302C0
:1056240007000000000000363422FFFF00221300B0
:1056340007000000000000E200E900EA00B500B63F
:1056440000B700CD008301CC008A019201940121AE
:1056540002230224022502260227022A02B300B4EE
:10566400006F0070009F01CB019F02A00281828322
:10567400E200E900EA00B500B600B700CD008301FE
:10568400CC008A0192019401210223022402250202
:10569400260227022A02B300B4006F0070009F01A3
:0C56A400CB019F02A002818283A10200C2
:00000001FF
