:100000000C94B0010C94CD010C94CD010C940D1AFC
:100010000C94CD010C94CD010C94CD010C94CD0128
:100020000C94CD010C94CD010C94B5200C94892135
:100030000C94EC1B0C94CD010C94CD010C94CD01CF
:100040000C94CD010C94CD010C94CD010C94CD01F8
:100050000C94CD010C948F1C0C94CD010C94CD010B
:100060000C94CD010C94CD010C94CD010C94CD01D8
:100070000C94CD010C94CD010C94CD010C94CD01C8
:100080000C94CD010C94CD010C94CD010C94CD01B8
:100090000C94CD010C94CD010C94CD010C94CD01A8
:1000A0000C94CD010C94CD010C94CD010102E20120
:1000B000016201015901015F01015E0103E20014C7
:1000C000001A0008001500170004001600070009B8
:1000D000000A001D001B210624192805002B412AB7
:1000E000220000000000001C0018000C0012003468
:1000F000000B000D000E000F003300110010383609
:1001000034373138022C4228430000000000001F21
:10011000022002221421022202360237022602277E
:100120000224020A141B1406140914161400004CAD
:100130000000000000000000002E002D002E0235FF
:100140000031022F0230022F00300035022D02381C
:10015000002502407E37082C040000000000004605
:1001600000AC00AE00AB0000002900AA00A800A966
:10017000000000A500E400E200E30000000000E150
:100180000000000000000000005009417E427E4F48
:100190000900005000510052004F00000050014A79
:1001A000004D004F01000000000000000000003A78
:1001B000003B003C003D003E003F0040004100424B
:1001C00000430044004500680069006A002C0400F8
:1001D00000000000000000000059005A005B000011
:1001E0000062005C005D005E00000000005F0060D7
:1001F000006100000000000000000000000000009E
:10020000000000000000002A2B2800000000000071
:100210000000000000000000000029000000002C89
:100220001E3420212224342627252E362D37382728
:100230001E1F202122232425263333362E37381F34
:100240000405060708090A0B0C0D0E0F10111213F6
:100250001415161718191A1B1C1D2F3130232D3594
:100260000405060708090A0B0C0D0E0F10111213D6
:100270001415161718191A1B1C1D2F3130354C0078
:10028000000000000000000000000000000000006E
:10029000000000000000000000000000000000005E
:1002A0000000007E0F00D4FFFFFFC700000078129F
:1002B000034B006100680062006F0061007200641F
:1002C000000000220341006E0074006F0069006EA0
:1002D0000065004B00610068006C006F00750063F2
:1002E00000680065000000040309040902220001FF
:1002F0000100A0FA09040000010301010009211115
:1003000001000122400007058103080001120100DD
:100310000200000008ABC2393901000102000105EA
:10032000010906A101050719E029E7150025019536
:1003300008750181029501750881010507190029D9
:10034000FF150026FF0095067508810005081901B4
:100350002905950575019102950175039101C0006C
:1003600011241FBECFEFDAE0DEBFCDBF11E0A0E069
:10037000B1E0E2E4F8E402C005900D92AA38B107BA
:10038000D9F722E0AAE8B1E001C01D92A738B20770
:10039000E1F70E940B140C94E0230C940000FB0185
:1003A00081342EE7920799F082342EE7920721F1EB
:1003B00080349E4751F48581882339F00E9482065B
:1003C00060E08CEA90E00E94691581E008958581E3
:1003D000882371F080918D01811106C081E08093A6
:1003E0008D0182EE0E94F0038BE20E94F003EDCFBC
:1003F0008BE20E941A04E9CF85818823C9F380919A
:100400008C018111F1CF81E080938C0180EEEACFE5
:1004100080918D01882351F086E00E94130781119D
:1004200005C082EE0E941A0410928D0180918C0109
:10043000882379F082E00E94130781110AC086E0C8
:100440000E941307811105C080EE0E941A041092C9
:100450008C0108958430B8F46830A8F4453098F4DD
:1004600050E095E0699F400D511D1124FA0198E27A
:10047000899FE00DF11D1124EE0FFF1FE154FF4F86
:1004800085919491089581E090E008950E942A0258
:1004900008959C013A9521153F4150F5FC01EE2746
:1004A000F170BC0166277270AC01442754709C0146
:1004B0002227387094FF0EC080E1EF2B09F480E012
:1004C000672B09F08062452B09F08064232B89F0AB
:1004D0008068089581E0EF2B09F480E0672B09F034
:1004E0008260452B09F08460232B19F08860089501
:1004F00080E00895CF93DF93EB010E944902FE0153
:100500000995DF91CF910895CF93DF93EC01805E41
:100510009109089720F061E776E0209711F464E5EF
:1005200074E0CE010E947A028C2F0E94F003DF91CA
:10053000CF91089581E008950E949A02089581E084
:1005400008950E94CF01089508950E94A40208957D
:10055000A6E0B0E0EEEAF2E00C94502349835A831F
:100560009E833091930189819A8131111AC03E8115
:10057000332399F0222389F00E94ED07182F682F6A
:1005800089819A810E94C90769817A81812F0E949D
:10059000F30E2696E3E00C946C230E94DB07182FE1
:1005A000F3CF0E94ED0769817A81F1CFFC01262FFC
:1005B0004081518162817381848195810E94A8026A
:1005C0000895CF93DF93EC0161E00E94D602BE0153
:1005D0000E949C02DF91CF910895CF93DF93EC01AD
:1005E00060E00E94D602BE010E94A502DF91CF9179
:1005F000089508950E9482060E94F9022FEF84E375
:100600009CE0215080409040E1F700C00000089538
:100610000E94FA020E94B31C08950E94FA020E94EE
:10062000C41C08950F931F93CF93DF938C0161E057
:100630000E94D602EC01B8010E94A102811106C0FD
:1006400080E0DF91CF911F910F910895B801CE0105
:100650000E9416178823A1F3B801CE010E94291920
:10066000882371F3B801CE010E943014882341F32E
:10067000B801CE010E94D115882311F3F8018581BC
:10068000882361F0C330FCE7DF07E9F058F4C115B7
:10069000ECE7DE07A9F0C130DC47B9F0C8010E94E1
:1006A0009F02CFCFCB358CE7D807A9F0CC35ECE74C
:1006B000DE0771F0CA35DC4789F70E945A0CEECF8D
:1006C0000E940803BDCF0E94620C0E940D03B8CFA8
:1006D0000E94500CE3CF0E945E0CE0CF0E94C91B29
:1006E0000E94950308950E9499030E94CE1B0895CD
:1006F000089581E008950895CF93DF93D82F0E9445
:100700007903C82F882319F08D2F0E947B038C2F2B
:10071000DF91CF9108950895CF93C82F0E94780359
:100720008C2F0E947C03CF91089580E00E948C035F
:1007300008950E94331B0E948C030895CF930E945A
:10074000331BC82F80918E018C1779F0C0938E01D6
:100750000E94581C60938F017093900180939101C7
:10076000909392018C2F0E948C03CF910895ADE05D
:10077000B0E0EDEBF3E00C945123488759876A878A
:100780007B878C879D8791110E94650B1F8286E075
:10079000FE013896DE01119601900D928A95E1F7DF
:1007A0008D8181110DC029813A814B815C816D81E0
:1007B0007E818F810E94950A2D96E2E00C946D2334
:1007C000CE0101960E94E1028111EDCFF5CFFC012F
:1007D0002481213021F4808191810E941F08089595
:1007E000CF93C82F8823B9F08CEF8C0F813AA8F4EF
:1007F0006C2F80910A0190910B010E94641B882349
:1008000029F08C2F0E94220B0E94AD0B8C2F0E948E
:100810001A0B0E94AD0BCF91089580E28C0F8830A7
:10082000D0F7C77081E001C0880FCA95EAF70E942F
:10083000480BEFCF882341F09CEF980F913A28F4B2
:100840000E94220B0E94AD0B089590E2980F983001
:10085000D8F7877091E001C0990F8A95EAF7892F40
:100860000E944E0BEFCF1F93CF93DF93182FEB0116
:100870000E94F003209739F4812F0E941A04DF911F
:10088000CF911F9108958FE99FE00197F1F700C084
:1008900000002197EFCF70E060E0893311F460E54C
:1008A00070E00E9433040895882321F00E94480BD1
:1008B0000E94AD0B0895882321F00E944E0B0E94E8
:1008C000AD0B0895B0E0A0E0E8E6F4E00C944A2314
:1008D0006C01D62FC72FFC011581068102950F7080
:1008E0000E943E0BE82E8823E9F0E12E1123D1F07F
:1008F0008C2F807F803451F080E28D0F8830F8F0AB
:10090000011104C08C2F807E8032C9F08091630277
:1009100082FF15C082E00E94240C0E943E0B91E0F1
:10092000E82EE926BC2EB2949FE0B922FBE0FB152D
:10093000B8F1EB2DF0E0EE51FC4D0C943B23E12C93
:10094000F1CF0C2F0F70C07F11F00295007F1123A3
:1009500099F0002359F080E28D0F883010F0D1110A
:1009600007C0802F0E94480B0E94AD0B8D2F5AC0EC
:10097000802F0E94580BF8CF8D2F0E941A0400235D
:1009800079F080E28D0F883010F0D11104C0802FF3
:100990000E944E0B03C0802F0E945E0B0E94AD0B85
:1009A000EB2DE850FF0B349720F40E94331B0E947C
:1009B0008C03EE2089F00E943A0B80FD0DC0F601F9
:1009C00015820E94340B0E942707C6010E944E0622
:1009D0000E94340B0E943707CDB7DEB7E9E00C94D4
:1009E00066232C2F2F70F22EC07FC03219F0F294A4
:1009F00080EFF822DD2341F0D130D1F1112309F449
:100A000044C00023F1F0B2CF8091630282FD15C093
:100A1000112359F0FF2029F08F2D0E94480B0E94CE
:100A2000AD0B80E00E94F003BBCF80E00E941A046F
:100A3000FF2009F4B5CF8F2DABCF112369F0011141
:100A400004C08F2D0E945404ABCF013009F0A8CF11
:100A50008F2D0E948B0BA4CF0111A2CF8F2D0E944E
:100A60005B048F2D0E94970B8F2D0E947B0B98CFDC
:100A7000112321F0063008F093CFE3CF053008F0C2
:100A80008FCF8F2D0E945B048BCF0023D1F3D933FE
:100A900049F43FEF87EE93E0315080409040E1F71A
:100AA00000C000008D2F0E941A047ACF8C2F837013
:100AB000A1F5111175CF4D2F429546954770440F02
:100AC000440F2D2F2F7030E0042E02C0220F331F51
:100AD0000A94E2F790E080E0D4FF09C08FE090E054
:100AE00002C0880F991F4A95E2F780959095C695A8
:100AF000C695C370822B932BC23049F058F4C13095
:100B000019F00E94DB064CCF0E94D20649CF0E940A
:100B1000E40646CF0E94CF0643CF8695112311F0FD
:100B20008C2F8170882309F43BCF4D2F4295469539
:100B30004770440F440F2D2F2F7030E0042E02C059
:100B4000220F331F0A94E2F790E080E0D4FF09C03F
:100B50008FE090E002C0880F991F4A95E2F78095D8
:100B60009095C695C695C370822B932BC23049F0E1
:100B700058F4C13019F00E94620712CF0E94590741
:100B80000FCF0E946B070CCF0E94F30609CFCF70E6
:100B9000112329F08C2F0E9427078D2F53CF8D2FE3
:100BA0000E945B048C2F0E943707FACED23F41F19E
:100BB00060F4D03FB9F0D13F81F0112309F446C071
:100BC0000111D4CE8C2F8F711FC0D33F01F1D43FC0
:100BD000A1F78091630282FD24C08C2F8F711123B5
:100BE00011F312C0112341F0053008F0D9CE8C2F3B
:100BF0008F710E944907D4CE063008F0D1CEF7CFCE
:100C00008C2F8F711111CFCF0E942707C9CE1123CE
:100C100029F08C2F8F710E941B07C2CE0E94FA060A
:100C2000BFCE112349F0CF718C2F0E94270763E0BC
:100C30008C2F0E94060CB4CE81E00E94240C02305E
:100C400008F4AECE82E00E94240CAACE002359F014
:100C5000D93309F027CFEFEFF7EE23E0E150F04072
:100C60002040E1F71DCF8C2F8F719DCF0F931F93E5
:100C7000CF93DF93EC01688179818D810E942A08EE
:100C80008C010E9474070E94CE06B801CE010E941A
:100C90006204DF91CF911F910F910895CF93DF935D
:100CA000EC018C81882399F0CE010E9412038111FE
:100CB00011C00E943E0B882351F08D81882339F0AA
:100CC0008091630282FF03C082E00E94240CDF91C6
:100CD000CF910895CE010E943606CE010E94ED020A
:100CE000F6CF882321F00E94580B0E94AD0B089587
:100CF0000E94650B0E94AD0B08950E942A0B0E9472
:100D0000780608950E94550B0E947D0608959295DD
:100D10009F70963091F058F4925F9F70923058F423
:100D2000803F19F030F4883E30F481E008959A5FF6
:100D3000F4CF843FD1F380E00895883EB0F3813F43
:100D4000D1F7F3CFFC012481222339F080819181F6
:100D50000E941F080E948706089580E00895A6E07B
:100D6000B0E0E5EBF6E00C9451232696E2E00C941B
:100D70006D23A7E0B0E0EFEBF6E00C94512327964B
:100D8000E2E00C946D2308950E94C30608950E942A
:100D9000C4069093AB018093AA01089508950E9420
:100DA000C70608952091AA013091AB01822B932BA5
:100DB0000E94C70608952091AA013091AB018223B9
:100DC00093230E94C70608952091AA013091AB0198
:100DD000822793270E94C70608950E94C30608959C
:100DE0000E94ED0608950E94F0069093A901809359
:100DF000A801089590E080E00E94F306089500970E
:100E000029F481E0662371F080E00CC021E030E03D
:100E100002C0220F331F6A95E2F72823392381E0AD
:100E2000232B91F30895682F8091A8019091A90137
:100E30000E94FF06089521E030E0A90102C0440F9E
:100E4000551F8A95E2F7CA010E94F306089521E032
:100E500030E002C0220F331F8A95E2F78091A8018B
:100E60009091A901822B932B0E94F306089521E013
:100E700030E002C0220F331F8A95E2F720953095AB
:100E80008091A8019091A901822393230E94F306E7
:100E9000089521E030E002C0220F331F8A95E2F767
:100EA0008091A8019091A901822793270E94F306BF
:100EB00008952091A8013091A901822B932B0E94C3
:100EC000F30608952091A8013091A901822393236C
:100ED0000E94F30608952091A8013091A90182276C
:100EE00093270E94F30608950895262F277091E016
:100EF00001C0990F2A95EAF723E0769567952A9520
:100F0000E1F7660F771F660F771FFA01E60FF71FED
:100F100050E040E0682F70E08191DF0111979B0164
:100F2000042E02C0369527950A94E2F72170219588
:100F30002827292328272C934F5F5F4F44305105E2
:100F400059F70895A82FA77023E0969587952A95BD
:100F5000E1F7880F991F880F991FFB01E80FF91F10
:100F600050E040E080E0219130E00A2E02C036954A
:100F700027950A94E2F721703327042E01C0220F2F
:100F80000A94EAF7822B4F5F5F4F4430510559F7BF
:100F90000895262F983070F4853060F4682F70E043
:100FA00085E0989F600D711D112444E951E0822F66
:100FB0000E9475070895292F983068F4853058F4F9
:100FC00090E064E971E035E0239F800D911D1124CC
:100FD0000E94A207089580E00895B0E0A0E0E3EF4A
:100FE000F7E00C944A237C010091A8011091A9011B
:100FF0008091AA019091AB01082B192BCFE0D0E092
:10100000CC24C394D12CBC2EC6010C2E02C0880F58
:10101000991F0A94E2F780239123892B49F42197A1
:1010200090F7B12C8B2DCDB7DEB7E9E00C94662399
:10103000B7018C2F0E94FF0E019789F3F3CFCF9356
:10104000DF93EC010E94ED07BE010E94FF0EDF91CD
:10105000CF9108951F93CF93DF93EB01909193016C
:10106000992339F0CB010E941F08DF91CF911F9186
:101070000895882369F0CB010E94ED07182F682F8F
:10108000CE010E94C907BE01812F0E94FF0EEDCF45
:10109000CB010E94DB07182FF6CF1F93CF93DF936E
:1010A000C091AC0117E08091AD018C1304C0DF91B9
:1010B000CF911F910895D0E01C9FF0011D9FF00D6E
:1010C0001124E255FE4F2081318142815381648198
:1010D000758186810E94B9062196C770E4CF209160
:1010E000E6013091E7014091E8015091E9016091FA
:1010F000EA017091EB018091EC010E94B90608951C
:10110000CF93DF938091EC01807F09F04DC08091F7
:10111000EB01882309F448C0E091AC015091AD0186
:10112000C091E701D091E6016091E8017091E90179
:1011300047E05E17C9F18E2F90E0E49FF001112483
:10114000E255FE4F2481222391F1489FF001499FEF
:10115000F00D1124DF01A255BE4F11962C9111976D
:101160002C1325C02C912D1322C015962C91159768
:1011700021111DC012962D913C91261B370B283C46
:101180003105A8F48091EC018F7080618093EC01AF
:10119000EC54FE4F80818F708061808386EE91E0F9
:1011A0000E944E060E944D08DF91CF910895FC01E8
:1011B0003196E770BECF482F2091AC019091AD01E0
:1011C00057E0291302C080E0089530E0529FF001FB
:1011D000539FF00D1124E255FE4F8181681306C024
:1011E0008081481303C085818111EECF2F5F3F4F6F
:1011F0002770E7CFA4E1B0E0E0E0F9E00C944723EA
:101200008C0186E0F801DE011F9601900D928A950F
:10121000E1F7D80114968C9114971596EC901597D8
:1012200096EEA92E91E0B92E9091EA0191111FC07E
:101230008823D1F0EE20A9F0C8010E94A206F82E62
:10124000882379F087E0F801D50101900D928A9505
:10125000E1F7C5010E94E7030E9480080E946F0821
:101260003DC0C8010E944E06FF24F39437C0F80128
:10127000C080D18082809380F090EB012091E801C2
:101280003091E901A401421B530BFF2009F4F6C081
:10129000483C510508F0A5C0882301F19091E70171
:1012A0008091EC01282F207F09F067C09D111BC0A1
:1012B0009091E6019C1117C0E11059C08F708061B8
:1012C0008093EC010E946F0886EE91E00E944E062A
:1012D0008091EC01D80116968C93F12C8F2D649699
:1012E000ECE00C946323E11042C06D2D8C2D0E9424
:1012F000DB08E82E882371F086EE91E00E944E060E
:1013000087E0E6EEF1E0DF011D928A95E9F70E94A1
:101310006F08E3CFCF86D88A8F8598890E941F08EF
:10132000292F22952F70243058F49F70223088F096
:10133000992399F0F8019681907F79F4FE2CCECF15
:101340002A5F2F70223068F0C8010E944E06EF2CF1
:10135000F5CF992311F0882389F3805E883070F3EC
:10136000F3CF803F58F3815F833070F7E7CF8091F0
:10137000EC0181608093EC01B0CF9D1107C090918A
:10138000E6019C1103C0EE2009F49CC0C8010E9434
:10139000A206882309F465CFEE2009F462CF80917C
:1013A000EC01803288F02091E6013091E701398725
:1013B00028879B868A869091EA019C871D868E8766
:1013C000CE0108960E944E0687E0F801A6EEB1E035
:1013D00001900D928A95E1F70E9480080E946F08A3
:1013E00043CF9091EC01292F207F91F4682D9A8AA8
:1013F000898AA6017A899E2D0E94AF0686EE91E029
:101400000E944E0687E0F50111928A95E9F77FCF99
:10141000882309F463CF8091E7018D1111C0809179
:10142000E6018C110DC0E1100BC016969C93C8010B
:101430000E944E0687E0F50111928A95E9F74ECF9A
:10144000C8010E94A206882309F40BCFEE2009F4FC
:1014500008CF8091EC01803208F4B6CF2091E601EC
:101460003091E7013A8329839C828B829091EA0133
:101470009D831E828F83CE010196A4CF483C5105E7
:1014800008F045C0882309F4EFCEFE2CEE2009F4C5
:10149000E8CE8091E7018D112CC08091E6018C117E
:1014A00028C08091EC0180FD1BC0982F907FC1F077
:1014B00016968C931697903F39F0982F907F905FF7
:1014C0008F70892B16968C93C8010E944E0687E078
:1014D000F801A6EEB1E001900D928A95E1F7BECE3B
:1014E00087E0F801A6EEB1E001900D928A95E1F750
:1014F000F5CEC8010E94A206811166CF8091EC0151
:1015000081608093EC01C8010E944E06E7CE682DF1
:101510009A8A898AA6017A899E2D0E94AF0687E061
:10152000F50111928A95E9F799CEAEE0B0E0EBE9CA
:10153000FAE00C945023288739874A875B876C87A9
:101540007D878E87CE0108960E94FA088823B1F025
:101550006C85662341F0288539854A855B857D85C4
:101560008E850E94B90617E08091AC019091AD0183
:1015700089133DC02E96E3E00C946C2387E0FE01B6
:101580003896DE01119601900D928A95E1F78C85CF
:10159000882349F32091AD0130E0C901019687709D
:1015A00099274091AC014817190699F097E0929F4E
:1015B000D001939FB00D1124A255BE4FFE0131966C
:1015C00001900D929A95E1F78093AD010E944D082C
:1015D000CACF0E9482061092AD011092AC0187E042
:1015E000E6EEF1E0DF011D928A95E9F7BCCF819F1D
:1015F000C001112482559E4F0E94FA08882309F4E5
:10160000B9CFE091AC011E9FF0011124E255FE4FCD
:1016100020813181428153816481758186810E945C
:10162000B9068091AC0190E001968770992780936C
:10163000AC019ACF682F80910A0190910B010E9412
:101640009A1B0895682F80910A0190910B010E94C6
:101650009D1B089580910A0190910B010E94A01B8F
:1016600008958091F60108958091F50186958695FB
:10167000869508958091F501877008959091F50100
:10168000977081E009F480E0089580910302089545
:1016900090910302892B8093030208958095909185
:1016A0000302982390930302089510920302089571
:1016B00090910202892B8093020208958095909167
:1016C0000202982390930202089510920202089554
:1016D0008093010208951092010208958093000200
:1016E00008951092000208958091F70108950895D9
:1016F0000E94770B08959091F601292F282331F04D
:10170000809589238093F6010E94780B08950895AF
:101710000E94870B08959091F701292F28232817FD
:1017200029F0982B9093F7010E94880B08959091CF
:10173000F701292F282331F0809589238093F70121
:101740000E94880B08958091F701882329F0109258
:10175000F70180E00E94880B0895CF93DF93E0911A
:101760000A01F0910B01809103028083E0910A014C
:10177000F0910B01808190910202892B80839091DE
:10178000F701992381F0E0910A01F0910B0180812A
:10179000892B808380910A0190910B010E94521B3A
:1017A00081110E94A30BE0910A01F0910B0180913D
:1017B0000002982F9095808189238083E0910A010F
:1017C000F0910B01808190910102892B8083C0915F
:1017D0000A01D0910B0148E050E06DEE71E0CE01BE
:1017E0000E947823892B59F088E0FE01ADEEB1E02C
:1017F00001900D928A95E1F7CE010E94471BDF917F
:10180000CF91089508950E94020C0895909163026B
:1018100092FF11C098E0899F90011124622B609380
:10182000F5010E9427078091F5018695869586959A
:101830000E94030C08950E94270708951092F50155
:1018400080E00E94030C08959091F5018095892312
:101850008093F501282F277069F4891759F090912A
:10186000630292FF07C08695869586950E9437078A
:101870000E941E0C08959091630292FB222720F98A
:10188000281769F080FB92F99093630280916202BD
:10189000909163020E94830C82E00E94240C0895C0
:1018A0008091630282FB882780F991E089270E945A
:1018B0003B0C089581E00E943B0C089580E00E945B
:1018C0003B0C08956FEF7FEF90E080E00E94CA2309
:1018D000089590E080E00E94962321E0863E9E4F8E
:1018E00009F020E0822F089582E090E00E948E238C
:1018F000089583E090E00E948E23089584E090E0B4
:101900000E9496230895BC0184E090E00E94CA23BF
:101910000895AB01BC018FE090E00E94BE230895C2
:10192000AB01BC0183E190E00E94BE23089560E01A
:1019300070E0CB010E94900C089560E070E0CB0154
:101940000E94890C0E94970C0895A8E0B0E0EBEA91
:10195000FCE00C94512366EE7EEF90E080E00E9464
:10196000CA2360E082E090E00E94AC2360E083E064
:1019700090E00E94AC231092AB011092AA0160E0AB
:1019800074E184E090E00E94CA2360E086E090E089
:101990000E94AC236FEF87E090E00E94AC2340E010
:1019A00050E0BA0188E090E00E94BE2360E084E24B
:1019B00090E00E94AC2360E087E190E00E94AC23BD
:1019C00060E08CE090E00E94AC2360E08DE090E06D
:1019D0000E94AC2319821A821B821C821D821E82E5
:1019E0001F82188648E050E068E170E0CE01019661
:1019F0000E949C2340E050E0BA0180E290E00E9407
:101A0000BE230E949D0C2896E2E00C946D230E9458
:101A1000A50C08958EE090E00E948E2391E0811144
:101A200001C090E0892F0895682F8EE090E00E9419
:101A3000AC230895A6E0B0E0E0E2FDE00C944F2373
:101A40000E944C1C8C018091040290910502801729
:101A5000910781F019821A820E944C1C682F4981DB
:101A60005A81792F80E090E00E94B703109305021D
:101A7000009304022696E4E00C946B230E940F105E
:101A800060931202709313028093140290931502D4
:101A900060930E0270930F028093100290931102D4
:101AA0000895089508950E94520D089508950E9482
:101AB000560D089581E0089589E290E10E94291B66
:101AC0000E94510D0E94530D08950E94EE11089539
:101AD000089508950E94680D0E94690D08950E945E
:101AE0002C100E948B0308950E94431C0E94E90F52
:101AF0000E9414120E941B110E946F0D0E94181464
:101B00000E9424120E94570D08950E94EE11811127
:101B10000E94DA160895A6E0B0E0E1E9FDE00C9439
:101B200048230E945A0D81110AC00E941A0D0E947A
:101B3000850D0E949E032696EBE00C9464230E9480
:101B40006F1186E0A82E82E0B82E750110E0F70133
:101B500001917F01812F0E9451101F5F183009F4FD
:101B600041C00817A1F38091160281FD0E94571011
:101B70000E94650DC82E10E099249394812F0E9435
:101B80005110082FF50181915F01081729F1D02E1E
:101B9000D826F12CEE24E3948D2D8E21A9F0CC20B3
:101BA00099F0F9821A830E944C1C9C838B839D823E
:101BB00091E0802F8E2109F490E049815A816B8158
:101BC0007C818D810E94B703F394EE0CF5E0FF1247
:101BD000E3CFF501319700831F5F183079F60E943B
:101BE0003E0DA5CF0813BFCFA0CF1F93CF93DF9398
:101BF0000E94040FEC01C11582E5D80708F03FC030
:101C0000C11590E5D90708F0C2C0C83ED105C0F49F
:101C1000C03ED10580F4C53AD10548F4C430D105A1
:101C200050F4C130D10539F0D0E0C0E004C0CD3C63
:101C3000D105D0F3D065CE01DF91CF911F910895EA
:101C4000C11580E4D80708F053C0C11590E2D90748
:101C500008F0B7C0C11581E0D80730F38D2F0E947E
:101C6000A60F182FCE0199270E94040FC12FD0E094
:101C7000DC2FCC27CC27DF71C82BD92BDCCFC03889
:101C800092E5D907A8F4C03682E5D80708F063C00A
:101C9000C03492E5D90708F049C0C03282E5D807C0
:101CA00088F1CF71D0E0DC2FCC27C16FD06AC3CFD1
:101CB000C03C92E5D90780F48C2F8F71C03AD24591
:101CC00008F45EC00E94A60FC82FD0E0DC2FCC27FE
:101CD000CC27DF71D062AFCFC03E82E5D80708F0D5
:101CE000A3CFDC2FCC27CC27DF71C06FD06AA3CF66
:101CF000CE0199270E94040FCC27DF70C82BD92B67
:101D0000D06A99CF2C2F2695269590E2299F900195
:101D100011248C2F8370C1E0D0E002C0CC0FDD1FF6
:101D20008A95E2F7C22BD32BDD6885CF2C2F269521
:101D30002695277080E2289F900111248C2F8370B4
:101D4000C1E0D0E002C0CC0FDD1F8A95E2F7C22BC4
:101D5000D32BDC6870CF2C2F26952695277090E228
:101D6000299F900111248C2F8370C1E0D0E002C024
:101D7000CC0FDD1F8A95E2F7C22BD32BDA685BCF3D
:101D8000C82FD0E0DC2FCC27C46FD06A54CF8C2F63
:101D90008F710E94A60F55E0D695C7955A95E1F729
:101DA000CF70D0E0DC2FCC27282F30E084FF05C097
:101DB00044E0220F331F4A95E1F7C22BD32BD069A1
:101DC0003ACF8D2F8F710E94A60F182FCE01992721
:101DD0000E94040FC12FD0E0DC2FCC27CC27DF716D
:101DE000C82BD92B77CF462F783030F4653020F4CC
:101DF000672F0E944602089590E080E008950E94B7
:101E0000F30E0E94F50D089582389105B9F1B0F4F2
:101E10008133910509F47DC048F48932910509F4B4
:101E20006DC08A32910509F47BC008958533910510
:101E300009F45FC08933910509F10895833E910546
:101E4000D9F138F4803E910529F1823E910579F16E
:101E50000895863E9105D9F1873E910509F43EC06B
:101E6000843E910541F52091630221FF24C08091B9
:101E7000620284FD19C087EE90E00895209162020D
:101E8000237009F05AC02091630223FF14C089E235
:101E900090E008952091620220FD38C030916302E5
:101EA00030FF09C024FF43C090E080E008952091F6
:101EB000620222FDF7CF08952091620222FD3AC00E
:101EC0003091630230FD39C024FFF5CFEDCF209172
:101ED000620223FFF0CF24FDE7CFCDCF2091620235
:101EE00023FD2EC03091630231FFEECF84EE90E0EF
:101EF00008952091620225FFDECFC9CF20916202B2
:101F000025FD21C02091630223FFD5CF89E390E016
:101F1000D2CF2091620226FFCECF8AE290E00895D0
:101F20002091620226FFC7CF81E390E0089583EEFF
:101F300090E0089582EE90E0089580EE90E008959C
:101F400086EE90E0089585E390E008959091620216
:101F500092FF06C0282F28712830F9F4877F84600B
:101F600093FF06C0282F28712831F1F4877E846101
:101F70002091630220FF06C0382F38713830D9F421
:101F8000877F816021FF06C0282F28712831D1F476
:101F9000877E816194FD877E0895282F24712430E7
:101FA000F9F68B7F8860DCCF282F2471243101F76C
:101FB0008B7E8861DDCF382F3171313019F78E7FFC
:101FC0008860E0CF282F2171213121F78E7E886132
:101FD000E1CF10925E0210925F02109260021092A6
:101FE00061020895CF92DF92EF92FF926B017C0124
:101FF0000E94EE1181110EC00E94581CC61AD70A09
:10200000E80AF90AC0925E02D0925F02E092600292
:10201000F0926102FF90EF90DF90CF9008950F93C0
:102020001F930E94EE11882329F00E94581C1F91D3
:102030000F9108950E94581C00915E0210915F025A
:102040002091600230916102600F711F821F931F07
:10205000EECF80E0089508950E94690C811102C0BE
:102060000E94070D0E94740C809316020E947E0C41
:1020700090936302809362020E942B100E94790C5D
:1020800090E00E94CF068091A8019091A9010E9442
:10209000F006089508950E944A1008950E940802CB
:1020A0000895E82FF0E0E359FD4F808108950895E9
:1020B00008950E9458100895EF92FF921F93CF93B6
:1020C000DF9300D000D0CDB7DEB70E94EE11182FFD
:1020D00060917502882309F447C019821A821B8215
:1020E0001C82862F90E09E012F5F3F4F7901B9013E
:1020F00083599D4F0E9432128823E9F08091640237
:1021000090E044E050E0B70183599D4F0E9478234E
:1021100021E020931702892BC9F410E00E944E1091
:10212000812F0F900F900F900F90DF91CF911F9103
:10213000FF90EF90089580911702882371F384E057
:10214000F70111928A95E9F710921702E091640263
:10215000F0E0E359FD4F89819A81AB81BC81808396
:102160009183A283B383DACF70E063597D4F80916E
:10217000640290E083599D4F0E94B9120E94591049
:10218000CFCF1F93CF93DF932CE031E0C1E0D0E0BD
:10219000D90150E040E08D918F3F91F0E82FE2951A
:1021A000EF70F0E011A18F70BE0101C0660F8A953B
:1021B000EAF7962F9095912391A382A1862B82A373
:1021C0004F5F5F4F4530510531F72B5F3F4F81E047
:1021D00020323807E9F6DF91CF911F910895CF9310
:1021E000DF93AC01A62FB0E085E0689FF0011124D9
:1021F000E45FFE4F75E081E060E091919F3FC9F0A0
:10220000C92FC295CF70D0E028A130E09F7002C0E6
:10221000359527959A95E2F720FD0BC0282F622B64
:10222000880F715051F7A40FB51F6C93DF91CF91B8
:10223000089520E0F4CFA4E1B0E0E1E2F1E10C94F4
:10224000512380912001811126C084E1E3E4F1E073
:10225000DE01119601900D928A95E1F7FE0131960B
:10226000ACE0B1E0CE01459620812C9321811196FE
:102270002C931197228112962C93129723811396F7
:102280002C931397248114962C93149735961596B6
:102290008E179F0749F78091200194E0811190E00B
:1022A0009093750284E0891B809364020E94C110A0
:1022B00088E0EDE6F2E0DF01982F1D929A95E9F7AC
:1022C000E5E6F2E0DF011D928A95E9F784E00E94DD
:1022D000AD110E944B106496E2E00C946D23A8E0CF
:1022E000B0E0E5E7F1E10C944E238E010F5F1F4F44
:1022F00088E0F80111928A95E9F7F12C6F2DC80159
:102300000E94EF10F394F4E0FF12F8CF48E050E0A1
:10231000B80185E692E00E94782321E0009709F455
:1023200020E0892B41F088E0F801A5E6B2E00190B9
:102330000D928A95E1F76091750270E063597D4FC7
:1023400044E085E692E00E94AE11182F0E945C10D6
:10235000812B2896E5E00C946A230895CF92DF92B2
:10236000EF92FF920F931F93CF936C017B01042F89
:10237000222349F081E080931A020E944C1C909322
:10238000190280931802C0911A02C1110AC0C0E05C
:102390008C2FCF911F910F91FF90EF90DF90CF90F6
:1023A000089580911802909119020E94641C05976B
:1023B00070F310E0A801B601C7010E947823892BB1
:1023C00041F0A801B601C7010E94852310921A02AC
:1023D000DFCFC0E0FBCF0E940A0D0895CF93DF93BB
:1023E00080911D02811117C0C8ECD0E00E943523F6
:1023F00081110EC08FE39CE90197F1F700C0000046
:102400002197A1F782E080931D020E94302303C030
:1024100081E080931D0281E090911D02913009F0CE
:1024200080E0DF91CF9108950E94690C811102C074
:102430000E94070D0E94EB11809320010E94EE1173
:1024400081110E94681208950E94EE11811102C04C
:102450000E946B12089581E090911E029A3008F05C
:1024600080E008950F931F93CF93DF93EC018B01CE
:1024700080911E028A30B8F4B801CE010E94B612D3
:10248000C82F811122C080911E028F3FB9F40E9493
:102490004C1C90931C0280931B028C2FDF91CF91D8
:1024A0001F910F91089580911B0290911C020E9430
:1024B000641C843F914000F7C0E0EFCF8F5F8093B2
:1024C0001E028A3020F7C1E0E8CF10921E02E5CF4D
:1024D0000E94C71908950E94CA190895B0E0A0E0AB
:1024E000E4E7F2E10C944C237901C82F880FDD0B4F
:1024F00041155105A9F0FE0193E0EE0FFF1F9A95DB
:10250000E1F7EF5DFE4F81819281815E9D4F2081D9
:1025100030E04217530708F49A01A9010E9485236D
:10252000CE010E94B31AD82E8823D1F001151105CF
:10253000B9F083E0CC0FDD1F8A95E1F7FE01EF5D76
:10254000FE4F438150E00417150708F4A801CF5D42
:10255000DE4F6C817D81615E7D4FC7010E948523C6
:102560008D2DCDB7DEB7E7E00C9468230E94B01341
:1025700008950E94C7130895A4E0B0E0E2ECF2E1F0
:102580000C944F2360913402709135028091360291
:10259000909137020E94731C11E064367105810529
:1025A000910518F10E940F106E5F7F4F8F4F9F4F64
:1025B00069837A838B839C8310E000E030E020E025
:1025C00044E050E0BE016F5F7F4F82E00E946E12D8
:1025D000182F882351F00E94581C60933402709386
:1025E00035028093360290933702812F2496E4E0DF
:1025F0000C946B23B0E0A0E0E0E0F3E10C944923FD
:102600007C015B016A010E942B1201E010E088232B
:1026100011F00AE010E0C1E0D0E0B501C701F60119
:102620000995811104C021960C171D072CF4CDB714
:10263000DEB7EAE00C946523CC9F9001CD9F300D6E
:10264000300D112490E080E045E34A95F1F7000059
:10265000019682179307C1F7E0CFA5E0B0E0E3E36E
:10266000F3E10C9449235B01E0908701F09088012D
:1026700001E010E09E012B5F3F4F50E040E070E032
:1026800060E080E00E946E12182F882309F44BC08E
:1026900067018FEFC81AD80A609130027091310239
:1026A00080913202909133020E94731C643671054E
:1026B0008105910580F104E010E09E012F5F3F4FFE
:1026C00050E040E070E060E081E00E946E12F82E81
:1026D00064E070E0C6010E94191411E09D81981316
:1026E00010E01F2159F10E94581C60933002709332
:1026F0003102809332029093330289819A81AB81B7
:10270000BC8180932C0290932D02A0932E02B09353
:102710002F0211E013C064E070E0C6010E9419149A
:102720009D818913C8CFF70181819281A381B481F2
:1027300089839A83AB83BC831111DFCF80912C02F4
:1027400090912D02A0912E02B0912F02F50180836D
:102750009183A283B383812F2596EAE00C946523AD
:102760000F931F93CF93DF93EC018B014DE253E165
:102770000E94FA12882331F04CEB52E1B801CE01ED
:102780000E94FA12DF91CF911F910F9108950F933C
:102790001F93CF93DF93C0918701D0918801CE0121
:1027A000019624E0FB01DC0101900D922A95E1F7EE
:1027B00064E070E00E94191488836D817E818F81AE
:1027C0009885009128021091290220912A023091C7
:1027D0002B02601771078207930751F0609328025C
:1027E0007093290280932A0290932B020E94F20F89
:1027F000DF91CF911F910F9108950E94181E0E94A2
:10280000740D0E94251E08950E942A1E0E948B0DA1
:102810000E94441E08950E94E51B0E94FE1D0E9416
:102820005C0D0E94FD130E9404140E946A0DFBCFF0
:102830000895FC01680F791F8FEF91E36E177F07F2
:1028400009F408952191822728E030E087FF06C02F
:10285000880F892721503109C9F7F0CF880FFACFA7
:10286000CF93DF93EC01FB018581882309F4D2C06B
:102870009E0130572332310508F0B2C00E947E0C11
:102880009093630280936202FE01E150F047E232CE
:10289000F10520F4E251FC4D0C943B23809162023F
:1028A00081608093620293C080916302886080930C
:1028B00063028DC0809162028260F3CF80916202D8
:1028C0008460EFCF809162028860EBCF80916302D9
:1028D0008160EDCF809163028260E9CF80916202D6
:1028E0008061DFCF809162028062DBCF80916202E3
:1028F0008064D7CF0E948206809162028068D1CF27
:10290000809162028C60CDCF809163028360CFCFD3
:10291000809162028E7FC5CF80916302877FC7CF8F
:10292000809162028D7FBDCF809162028B7FB9CF93
:1029300080916202877FB5CF809163028E7FB7CF8F
:10294000809163028D7FB3CF809162028F7EA9CF89
:10295000809162028F7DA5CF809162028F7BA1CF93
:102960000E948206809162028F779BCF80916202E3
:10297000837F97CF809163028C7F99CF8091620291
:1029800082FB992790F921E0922790FB82F990FB36
:1029900083F987CF80916302982F909591708E7FF5
:1029A000892B90FB81F983CF90916202892F8F7BD5
:1029B00096FF806476CF0E94820690916202892FF2
:1029C00097FB87F980586DCF81E00E94140D8091AC
:1029D0006202909163020E94830C0E94820680E052
:1029E000DF91CF91089580E0F0CF90916202892F1E
:1029F0008F7E94FF806155CF90916202892F8E7FE8
:102A000090FF81604ECF90916302892F877F93FF63
:102A100088604DCF81E0E4CFB0E0A0E0E2E1F5E1F5
:102A20000C944C23E82FF0E0E150FE4FD490282F77
:102A300026952695269530E0F901E156FD4F049143
:102A4000877010E0082E02C0159507950A94E2F7EA
:102A500001701127F901E157FD4FE490F12C082E88
:102A600002C0F594E7940A94E2F791E0E922FF248A
:102A7000F901E158FD4FC491D0E002C0D595C7954A
:102A80008A95E2F7C170DD270115110519F081EE75
:102A90000E94F003E114F10419F086EE0E94F003A5
:102AA0008D2D0E944B04E114F10419F086EE0E9472
:102AB0001A040115110519F081EE0E941A04CD2B9C
:102AC00019F08CE20E944B04CDB7DEB7E7E00C941E
:102AD0006823EF92FF920F931F93CF93DF938C01A4
:102AE000F62E8AE0E82EF8018491882309F454C078
:102AF000813009F04DC0E8012196FE0184918130BA
:102B000091F42196FE0184910E944B048E010F5F87
:102B10001F4F8F2D815038F3EFE9FFE03197F1F728
:102B200000C00000F7CF823039F4E8012296FE01A0
:102B300084910E94F003EACF833039F4E8012296B1
:102B4000FE0184910E941A04E1CF8430F9F6E80175
:102B50002296FE01249190E080E0FE013196205300
:102B6000330B2A30310548F0019780F2EFE9FFE09E
:102B70003197F1F700C00000F7CFE89EA001E99E71
:102B8000500D1124C901840F951F2491EF01E5CF49
:102B90000E940C15E801BACFCDB7DEB7E6E00C9481
:102BA0006923CF93DF93EB0186319C4711F50E9497
:102BB000450B9D81992399F08A7A91E009F490E080
:102BC00090933802811109C089E20E941A0B0E9479
:102BD000AD0B80E0DF91CF91089585E3F6CF809132
:102BE0003802811104C089E20E94220BF0CF85E3F4
:102BF000FBCF81E0EFCFFC018581862351F49281E8
:102C00009923B9F06923818583FF05C081E06111B3
:102C10000FC080E00895892F8F7092959F70982B38
:102C2000862F8F7062956F70682B81E09613F1CFBD
:102C3000089581E0FDCFCF93DF93EC0160914302D3
:102C40007091440280914502909146020E94731C4B
:102C5000643F71408105910518F580914302909180
:102C60004402A0914502B091460280933F029093A6
:102C70004002A0934102B093420284EF91E0A0E0B1
:102C8000B0E080933B0290933C02A0933D02B0934E
:102C90003E02D0933A02C0933902DF91CF9108955A
:102CA0000E94581C60933F0270934002809341023F
:102CB0009093420282E390E0A0E0B0E0E2CFFF9286
:102CC0000F931F93CF93DF93F82E00914A02109138
:102CD0004B020115110509F44DC010923A021092F1
:102CE00039020E94710B0E946B0B00914A021091F5
:102CF0004B02D8011796CD91DC919E013A95211592
:102D00003F4108F4D07ED1E0C11101C0D0E0D8012C
:102D10001A96ED91FC911B97309731F01C966D91AE
:102D20007C9180E00995D823DD2339F08CEF8C0F5E
:102D3000813A30F58C2F0E94220BFF2099F0E09110
:102D40004A02F0914B02818584FD0CC080914902BA
:102D5000882341F0808191819C01215031092F33DA
:102D60003E47A0F00E94AD0B10924B0210924A0217
:102D700010924902C801CDB7DEB7E5E00C946A2392
:102D80000E94AD0B8C2F0E941A04D7CF0E941B16F5
:102D9000E9CF1092390180E00E945F16089580917A
:102DA0003901882319F00E94C916089581E08093A3
:102DB000390108950F931F938091390290913A023F
:102DC000892B89F160913F0270914002809141020C
:102DD000909142020E94731C00913B0210913C02B0
:102DE00020913D0230913E026017710782079307E0
:102DF000D0F08091390290913A020E9484021092A0
:102E00003A021092390210923F0210924002109240
:102E100041021092420210923B0210923C02109228
:102E20003D0210923E021F910F910895A4E0B0E080
:102E3000ECE1F7E10C9441238C017A836983DB0197
:102E400015965C905520B1F08E35BCE79B0759F084
:102E50008F35ECE79E0759F08D359C4759F40E9459
:102E6000CF16312C0DC081E080933901FACF0E943A
:102E7000C916F7CF30903901311007C0332433948D
:102E8000832D2496E2E10C945D23680120EEC21AA2
:102E9000D1080E94450BF82E0E94310B482E0E944B
:102EA000740B482A4F2838E0C316D10408F094C0A8
:102EB00098012770332781E090E001C0880F2A95A0
:102EC000EAF7552009F485C0482AA981BA818D9175
:102ED0009C910E94DB078090000190900101811479
:102EE000910409F4E1C021E030E0F90102C0EE0FE5
:102EF000FF1F8A95E2F7FA83E98360904A02709097
:102F00004B02A0904702B0904802212CE22DF0E045
:102F1000EE0FFF1FE80DF91D208131813C832B83CB
:102F20002115310509F4C0C0411005C0D901129620
:102F30008C9181118BC0EB81FC81838194812981EB
:102F40003A8182239323892B09F480C08185982FAD
:102F5000977009F487E038E0C316D10408F056C032
:102F6000552009F44FC086958170882309F46EC0FE
:102F7000AB81BC81ED90FC900E151F0519F4552016
:102F800009F464C0EB81FC81E615F70509F45EC025
:102F90000684F785E02D309721F08081882309F49D
:102FA00055C0642D8B819C810E94FB15882309F4F8
:102FB0004DC00E151F0509F08BC00115110509F450
:102FC0008CC051108CC0EA14FB0409F03FC0512C96
:102FD00086C08095482279CF552009F44EC01093C1
:102FE0004802009347020E94581C6093430270936A
:102FF0004402809345029093460210923A02109246
:10300000390263CF82FB882780F9AFCF5520F1F0DA
:103010008170ABCF0E941A0483C00497813A910556
:1030200048F4802F0E941A0B552009F427CF0E94E4
:10303000AD0B17CF0E94AD0B8FE39CE90197F1F721
:1030400000C00000802F0E94F003EECF23945ECFDB
:10305000FC01208131812017310731F4511007C064
:103060001092490280E031C0552009F407CFDC01FD
:1030700019968C9185FD02CFF5CF809147029091F2
:1030800048028017910781F410924802109247027B
:10309000109243021092440210924502109246028E
:1030A00010923A021092390280914A0290914B029A
:1030B000009709F4E3CEA8E0CA16D10448F6642DBF
:1030C0000E94FB158111DACE81E00E945F16D8CEF6
:1030D000E114F10409F077CF512CF12CE12C80E0C0
:1030E0000E945F16EB81FC81F0934B02E0934A0251
:1030F00081E08093490286810E946E0B511010C0BE
:10310000E114F10469F0AB81BC818D919C919C012B
:1031100024503109213A310508F07CCF0E94220B5E
:10312000EB81FC8107811085C8019A9581159F412B
:1031300008F4107EFF24F394C80101978F339E4753
:1031400008F0F12CAB81BC811A96ED91FC911B9794
:10315000309731F01C966D917C9181E00995F822B1
:10316000FF2081F0EB81FC81878190850E944902DC
:103170000E94680BC801F8E0CF16D10408F04DCFCB
:103180000E941B160E94AD0B4FCF0F931F93CF933E
:10319000DF93C42FD22FFC0185818823C9F040938F
:1031A0004E020E944C1C90934D0280934C0280E290
:1031B0008C0F883040F4C77081E001C0880FCA9539
:1031C000EAF70E945404DF91CF911F910F91089567
:1031D00010914E02141332C080914C0290914D0216
:1031E0000E94641C883C910548F5C0E2CD0F1D1774
:1031F000B9F080E2810F883040F4177081E001C09F
:10320000880F1A95EAF70E945B04C83048F481E001
:103210009D2F977001C0880F9A95EAF70E94540479
:10322000802F0E944B04C83070F6D77081E001C037
:10323000880FDA95EAF70E945B04C5CF80E28C0F15
:10324000883008F6C77081E001C0880FCA95EAF798
:10325000F2CF0F93DB0188519C4787309105A0F591
:10326000FC01E05FFB4D0C943B2306E221EE41EEB6
:103270006AE17CE7CD010E94C51880E00F910895B6
:1032800007E225EE45EE6BE17CE7F4CF06E221EEA6
:1032900040EE68E17CE7EECF07E225EE44EE69E11F
:1032A0007CE7E8CF06E221EE42EE6CE17CE7E2CF7C
:1032B00007E225EE46EE6DE17CE7DCCF08E221E097
:1032C00045EE6EE17CE7D6CF15968C91882319F0F8
:1032D00010924E02D3CF81E0D1CF8EE14A9B02C043
:1032E0008150E1F74A9BFECF08955A9880E28A9573
:1032F000F1F75A9A0895FC013BE03A95F1F798E00E
:1033000020E080E031E040E14A95F1F7880F4A9BE8
:1033100002C08160232742E04A95F1F7000040E1B6
:103320004A95F1F7915079F790E19A95F1F799B1B3
:1033300032E03A95F1F7000040E14A95F1F792FB4F
:10334000992790F992272081920F90830895A1E008
:10335000B0E0EDEAF9E10C944D2319828C017C0177
:10336000E60EF11C0E151F0541F481E099819111C3
:1033700080E02196E6E00C9469230E946D19CE014D
:1033800001960E947B19F80181938F01EBCF529A2D
:103390005A9A089552985A9AEA9AE9E6F0E080819A
:1033A0008F7C808308956150770B91E001C0990F65
:1033B0006A95EAF720E031E0911108C0222391F0EC
:1033C0005A9A80E28A95F1F75A980895492F48232E
:1033D00039F05A9A232740E24A95F1F79695ECCFB7
:1033E0005A98F9CF5A98EDCFFF920F931F93CF932E
:1033F000DF93EC018C01060F111DC017D10729F4D2
:10340000CDB7DEB7E5E00C946A23F9900E947519F8
:1034100068E08F2D0E94D319F0CF1F920F920FB644
:103420000F9211240F931F932F933F934F935F930A
:103430006F937F938F939F93AF93BF93EF93FF937C
:10344000CF93DF930F92CDB7DEB719820E946D192B
:10345000CE0101960E947B19082F069506950695C8
:10346000282F22952570902F9570290F922F9370F9
:1034700026952695920F982797708981982B09F0A9
:103480005CC0043008F059C080E18A95F1F75A9A7F
:10349000529A82E08A95F1F700C05A9888E0089F16
:1034A00080011124D801AF5DBE4F1696ED91FC91BD
:1034B00017973097A9F06091870170918801149651
:1034C0002D913C911597260F371F11968D919C9148
:1034D0001297680F791F13964C9113978C91099549
:1034E000F801EF5DFE4F6381662351F02091870163
:1034F0003091880184819581820F931F0E94F41975
:103500000E94751980E18A95F1F75A9852985A9A53
:1035100080E18A95F1F7F801EF5DFE4F6081662347
:1035200051F0209187013091880181819281820F31
:10353000931F0E94A7190E946D190F90DF91CF91E0
:10354000FF91EF91BF91AF919F918F917F916F917B
:103550005F914F913F912F911F910F910F900FBE4F
:103560000F901F9018950F931F93CF93DF93EC014B
:1035700004970CF04CC0F894529A5A9885E08A95BA
:10358000F1F700009C2F969595708C2F8570980F01
:10359000892F83709695969523E0CC0FDD1F2A9591
:1035A000E1F7980F8E01092B0E94751900C068E0A1
:1035B000802F0E94D31980E18A95F1F752985A9A88
:1035C0004A9B1EC087E090E04A991CC0FE01EF5D57
:1035D000FE4F63816623F9F02091870130918801C5
:1035E00084819581820F931F0E94A719811113C0B6
:1035F000529A5A9A7894DF91CF911F910F91089522
:1036000000C0DECF019729F4529A5A9A789480E04C
:10361000F2CF00C0D9CF0E946D1980E28A95F1F7F0
:103620005A98529A80E18A95F1F7CF5DDE4F688112
:10363000662351F0209187013091880189819A8118
:10364000820F931F0E94F4190E947519789481E0EB
:10365000D2CF90938B0180938A0108959093510269
:103660008093500208950E94EE11811103C0809151
:103670004F020895E0915002F0915102309729F0E5
:103680000190F081E02D0995089580E00895E09182
:103690005002F0915102309721F00280F381E02D29
:1036A000099508959C012E5F3F4FAC01485F5F4F25
:1036B00080E02417350709F40895F90191919F01DD
:1036C0009923B9F38F5FF5CF662349F0FC01329659
:1036D00008962191261729F0E817F907D1F780E01D
:1036E000089581E008959C01FC0132969FEF80E0EF
:1036F0004191461751F09F3F19F4411101C0982F95
:103700008F5F8630A9F79F3F09F40895290F311D77
:1037100097FD3A95F90162830895FC013296089667
:103720002191261303C0DF0111971C92E817F907B6
:10373000B9F708950E94731B08950E948D1B089588
:10374000029626E0FC0111922A95E9F70895089562
:103750000E94A71B0895811106C081E08093520248
:103760000E94A81B089582E0F9CF83E08093520263
:103770000E94A81B08950E94AB1B089581E08093CE
:1037800052020E94A81B08950E94BE1B089508952E
:1037900008950E94C81B0895089508950E94C71BAC
:1037A0000895CF930E94CC1B0E946F110E94CD1BE5
:1037B000C0E08C2F0E945110811105C0CF5FC8302E
:1037C000C1F7CF91089581E0FCCF85B7806885BFB0
:1037D00085B7806885BF08951F921FB61F92112478
:1037E0008F939F93AF93BF9380915302811113C026
:1037F0008091760290917702A0917802B09179023F
:103800004196A11DB11D8093760290937702A093FB
:103810007802B0937902BF91AF919F918F911F90E1
:103820001FBE1F90189580917E02843031F10E9456
:103830006E031092530288E190E020E40FB6F894F2
:10384000A895809360000FBE2093600083B7817FAE
:10385000846083BF83B7816083BF7894889583B782
:103860008E7F83BF0FB6F894A89580916000886121
:1038700080936000109260000FBE08950E9482063F
:103880000E947303089582E084BD93E095BD9AEF92
:1038900097BD80936E0008952FB7F89480917602BB
:1038A00090917702A0917802B09179022FBF08958C
:1038B0002FB7F89460917602709177028091780228
:1038C000909179022FBF08959C014FB7F894809191
:1038D000760290917702A0917802B09179024FBF61
:1038E000821B930B0895CF92DF92EF92FF922FB736
:1038F000F894C0907602D0907702E0907802F09031
:1039000079022FBFA7019601261B370B480B590BD5
:10391000CA01B901FF90EF90DF90CF90089578949D
:103920001F921FB61F9211248F939F93AF93BF9343
:103930008091760290917702A0917802B0917902FD
:103940000196A11DB11D8093760290937702A093FA
:103950007802B0937902BF91AF919F918F911F90A0
:103960001FBE1F90189587E797E7909301088093F3
:10397000000888E19AE00FB6F894A895809360005B
:103980000FBE90936000FFCF88E19AE00FB6F894E5
:10399000A895809360000FBE90936000FFCF809148
:1039A0005C020895089508959B01BA0190917E02EA
:1039B0009430E9F48F708093E9009FEF8091E800E4
:1039C000915085FD06C085ED8A95F1F700009111B3
:1039D000F5CF8091E80085FF0AC050E040E0C901C2
:1039E0000E94A91E8091E8008E778093E8000895D8
:1039F000CF93DF93EC0148E050E0BC0181E00E94EE
:103A0000D41C88E0FE01A4E5B2E001900D928A95F5
:103A1000E1F7DF91CF91089580917D02811109C076
:103A20000E9439200E9496208091E2008460809359
:103A3000E200089510927D0208950E94BE1B089531
:103A400060917A0281E0611101C080E00E94B51BA3
:103A5000089590917E0281E0943009F080E06091B9
:103A60007A020E94BB1B089542E061EC81E00E9453
:103A7000B51F90917E0281E0943009F080E0609162
:103A80007A020E94AB1B089580918002833009F472
:103A900061C030F48130D1F1823009F49EC00895C4
:103AA0008A3009F48AC08B3009F46FC0893009F07C
:103AB00050C080917F02813209F04BC08091830217
:103AC00090918402892B09F044C08091E800877F9F
:103AD0008093E8008091E80082FF37C09091F30066
:103AE0008091F200029731F48091F100813011F061
:103AF000863021F48091F10080935C028091E8008F
:103B00008B778093E8000E94E91F23C080917F0299
:103B1000813AF9F48091E800877F8093E8008091F2
:103B2000830290918402892B61F468E084E592E03D
:103B300070E00E94F81E8091E8008B778093E80087
:103B4000089560E090E080E0F3CF80917E028111E3
:103B5000C1CF089580917F02813AD9F78091830285
:103B600090918402892BA9F78091E800877F809348
:103B7000E8008091E80080FFFCCF809142018093B3
:103B8000F1008091E8008E77BCCF80917F02813276
:103B900001F78091830290918402892BD1F6809164
:103BA000E800877F8093E8000E94E91F80918102EE
:103BB000809342010E948206089580917F028132A3
:103BC00041F68091E800877F8093E8000E94E91F1A
:103BD0008091820280935D02089580917F02813AF4
:103BE00009F0B7CF8091E800877F8093E80080914B
:103BF000E80080FFFCCF80915D02C1CF84B7877F52
:103C000084BF0FB6F894A895809160008861809376
:103C10006000109260000FBE80E890E00FB6F8944C
:103C200080936100909361000FBE0E94C41B0895B1
:103C30000E9439200E949620E2EEF0E080818460AC
:103C4000808378940E94152308958AE391E00E946E
:103C50002E1B089580917E02853031F480917E0282
:103C6000853019F00E943E1C08950E94131C80911B
:103C70007C02882399F30E94D11B882379F30E9448
:103C8000931E0E948206EACF08959A014091850210
:103C9000509186020E944D1E0895492F55274330AA
:103CA0005105C9F058F44130510599F142305105A0
:103CB000A9F190E080E050E040E01DC041325105A4
:103CC00009F142325105A9F780E490E04FE153E059
:103CD000672B79F710C099278130910581F0009703
:103CE00029F0029731F7EFEAF2E002C0E7EEF2E0E6
:103CF000849190E0AF01F901518340830895E3EC92
:103D0000F2E0F6CF89E090E04DEF52E0672B89F6C4
:103D1000F2CF82E190E04DE053E0EDCF82E290E01F
:103D20004BEE52E0E8CF80E189BD82E189BD09B464
:103D300000FEFDCF8091D8008F7D8093D8008091C8
:103D4000E00082608093E0008091E00081FDFCCF84
:103D50000895AF92BF92CF92DF92FF920F931F937D
:103D6000CF93DF936C01EB018A010E940820F82EAB
:103D7000811123C00115110539F0F801808191816D
:103D8000C81BD90BC80ED91EB12CA12C2097A9F0A5
:103D90008091E80085FD22C08091E8008E778093B5
:103DA000E80001151105A1F0F80180819181A80EAC
:103DB000B91EB182A08285E0F82E8F2DDF91CF91C0
:103DC0001F910F91FF90DF90CF90BF90AF9008951B
:103DD0000E9408208823D1F2F82EEFCFF6018191BE
:103DE0006F018093F1002197FFEFAF1ABF0ACECF8A
:103DF000FC01809185029091860286179707A0F0BA
:103E00006115710529F49091E8009E779093E80080
:103E100090E06115710551F4911108C08091E8009E
:103E200082FF34C080E00895BC01F2CF80917E0211
:103E30008823C1F18530C1F18091E80083FD30C055
:103E40008091E80082FDEACF8091E80080FFE1CF19
:103E50008091F3002091F200382F6115710519F05F
:103E60002830310558F091E02830310509F090E014
:103E70002091E8002E772093E800CBCF81918093AA
:103E8000F100615071092F5F3F4FE7CF80917E02B3
:103E9000882341F0853041F08091E80083FFBECF58
:103EA00081E0089582E0089583E00895FC01809107
:103EB00085029091860286179707A0F0611571051B
:103EC00029F48091E8008E778093E80090E06115F6
:103ED000710551F4911108C08091E80082FF35C04E
:103EE00080E00895BC01F2CF80917E028823C9F161
:103EF0008530C9F18091E80083FD31C08091E800F0
:103F000082FDEACF8091E80080FFE1CF8091F3004D
:103F10002091F200382F6115710519F02830310514
:103F200058F091E02830310509F090E08091E800E8
:103F30008E778093E800CBCF84918093F100319607
:103F4000615071092F5F3F4FE6CF80917E02882339
:103F500041F0853041F08091E80083FFBDCF81E0E2
:103F6000089582E0089583E00895982F973028F00F
:103F70008F708093E90081E008959093E900242FE9
:103F8000762F50E0981731F07091EC002091ED0001
:103F90005091F00021FD02C09F5FE8CF3091EB000F
:103FA0003E7F3093EB003091ED003D7F3093ED008C
:103FB0003091EB0031603093EB007093EC00209374
:103FC000ED005093F0002091EE0027FDE5CF80E05A
:103FD000089580917F0287FF13C08091E80082FFDF
:103FE00006C08091E8008B778093E80004C0809140
:103FF0007E028111F2CF089580917E028823D9F349
:104000008091E80080FFF8CF8091E8008E77ECCFB8
:104010002091E4003091E50095E6A9012091EC00A3
:10402000822F817020FF06C08091E80080FF06C0CB
:1040300080E008952091E80022FD1AC080917E0260
:10404000882389F0853089F08091EB0085FD0FC0D1
:104050002091E4003091E50042175307F9F29150A6
:10406000E1F684E0089582E0089583E0089581E018
:1040700008950E94A8200E94B020E0EEF0E0808128
:1040800081608083E8EDF0E080818F77808319BCC8
:10409000A7EDB0E08C918E7F8C9380818F7E8083A2
:1040A00010927D0208950F931F93CF93DF930E9488
:1040B000A8200E94B020C8EDD0E088818F77888347
:1040C00088818068888388818F7D888319BC10925D
:1040D0007E0210927A0210927C0210927B0200EE15
:1040E00010E0F80180818B7F8083888181608883E4
:1040F00042E060E080E00E94B51FE1EEF0E08081E8
:104100008E7F8083E2EEF0E0808181608083808119
:1041100088608083F80180818E7F808388818061C0
:104120008883DF91CF911F910F910895E8EDF0E022
:1041300080818F7E8083E7EDF0E0808181608083E5
:1041400084E082BF81E080937D020E945320089525
:10415000E8EDF0E080818E7F80831092E200089588
:104160001092DA001092E10008951F920F920FB69C
:104170000F9211242F933F934F935F936F937F93ED
:104180008F939F93AF93BF93EF93FF938091E10041
:1041900082FF0BC08091E20082FF07C08091E100A6
:1041A0008B7F8093E1000E9414238091DA0080FFCE
:1041B00019C08091D80080FF15C08091DA008E7FF1
:1041C0008093DA008091D90080FF96C080E189BD9C
:1041D00082E189BD09B400FEFDCF81E080937E02BB
:1041E0000E940C1D8091E10080FF19C08091E200C7
:1041F00080FF15C08091E2008E7F8093E200809165
:10420000E20080618093E2008091D8008062809318
:10421000D80019BC85E080937E020E94201D809109
:10422000E10084FF2BC08091E20084FF27C080E181
:1042300089BD82E189BD89B5982F917080FFFBCF40
:104240008091D8008F7D8093D8008091E1008F7E8F
:104250008093E1008091E2008F7E8093E200809164
:10426000E20081608093E20080917A02882309F461
:1042700049C084E080937E020E94291D8091E10064
:1042800083FF29C08091E20083FF25C08091E10077
:10429000877F8093E10082E080937E0210927A0211
:1042A0008091E1008E7F8093E1008091E2008E7F1B
:1042B0008093E2008091E20080618093E20042E01E
:1042C00060E080E00E94B51F8091F00088608093DC
:1042D000F0000E941D1DFF91EF91BF91AF919F9142
:1042E0008F917F916F915F914F913F912F910F909F
:1042F0000FBE0F901F90189519BC10927E020E945D
:104300001A1D70CF8091E30087FD93E090937E02A9
:10431000B3CF1F920F920FB60F9211242F933F939A
:104320004F935F936F937F938F939F93AF93BF93BD
:10433000CF93DF93EF93FF93D091E900DF708091EB
:10434000EC00C82FC17080FDC0E81092E900809198
:10435000F000877F8093F00078940E94CD21109226
:10436000E9008091F00088608093F000CD2BCF7041
:10437000C093E900FF91EF91DF91CF91BF91AF9191
:104380009F918F917F916F915F914F913F912F916D
:104390000F900FBE0F901F901895AAE2B0E0E3EDCA
:1043A000F1E20C9450238FE792E02091F100FC01A0
:1043B0002193CF01F2E087389F07B9F70E94441D8F
:1043C0008091E80083FF1EC180917F02909180025E
:1043D0009A3008F017C1E92FF0E0E95EFB4D0C942C
:1043E0003B23803899F0823809F00CC18091830218
:1043F0008F70873008F006C18093E9008091EB0050
:1044000085FB882780F91092E90006C080917B0225
:1044100090917C02911182609091E800977F909337
:10442000E8008093F1001092F1008091E8008E770F
:10443000E5C0882309F4D3C0823009F0E3C080913D
:1044400081028111D6C0809183028F702FEF280FD7
:10445000263008F0D7C08093E9002091EB0020FFC0
:10446000C8C0933031F48091EB0080628093EB0000
:10447000C0C09091EB0090619093EB0021E030E0A0
:1044800001C0220F8A95EAF72093EA001092EA0011
:104490008091EB008860EACF8111B4C01091810255
:1044A0001F778091E3008078812B8093E3008091D7
:1044B000E800877F8093E8000E94E91F8091E80070
:1044C00080FFFCCF8091E30080688093E30082E06E
:1044D000111183E080937E0295C08058823008F0ED
:1044E00091C080918102909182028C3D23E09207DD
:1044F000A1F583E08A838AE289834FB7F894DE01CD
:10450000139620E03EE051E2E32FF0E05093570095
:10451000E49120FF03C0E295EF703F5FEF708E2FB4
:1045200090E0EA30C0F0C7968D939D932F5F2431C1
:1045300059F74FBF8091E800877F8093E8006AE2D7
:1045400070E0CE0101960E94F81E8091E8008B7702
:104550008093E80057C0C096E7CF609183027091C6
:104560008402AE014F5F5F4F0E94451EBC01892B44
:1045700009F448C09091E800977F9093E800898102
:104580009A810E94561FE1CF8038E1F58091E800C2
:10459000877F8093E80080917A028093F10045CF75
:1045A000811130C090918102923060F58091E800D5
:1045B000877F8093E80090937A020E94E91F8091A0
:1045C0007A02882311F084E005C08091E30087FD22
:1045D000FACF81E080937E020E94341D13C0809147
:1045E0008102813079F481E0933009F080E080939A
:1045F0007C021092E9008091E800877F8093E800B8
:104600000E94E91F8091E80083FF0AC08091E800C2
:10461000877F8093E8008091EB0080628093EB00BD
:10462000AA96E3E00C946C230895CF9380917E02C8
:104630008823A1F0C091E900CF709091EC00892F00
:10464000817090FD80E8C82B1092E9008091E8000D
:1046500083FD0E94CD21CF70C093E900CF910895D2
:104660000E94392010927E0208958091E300881FF5
:104670008827881F0895EE0FFF1F0590F491E02D05
:1046800009942F923F924F925F926F927F928F92F6
:104690009F92AF92BF92CF92DF92EF92FF920F93D1
:1046A0001F93CF93DF93CDB7DEB7CA1BDB0B0FB6DB
:1046B000F894DEBF0FBECDBF09942A883988488898
:1046C0005F846E847D848C849B84AA84B984C8842E
:1046D000DF80EE80FD800C811B81AA81B981CE0F25
:1046E000D11D0FB6F894DEBF0FBECDBFED0108950A
:1046F000FB01DC0104C08D910190801921F441502F
:104700005040C8F7881B990B0895FB01DC0102C0DB
:1047100001900D9241505040D8F70895F999FECF7D
:1047200092BD81BDF89A992780B50895A8E1B0E0BF
:1047300042E050E00C94D223DC01A40FB51F41509D
:10474000504048F0CB01840F951F2E910E94AD235D
:1047500041505040D0F70895262FF999FECF92BDD1
:1047600081BDF89A019700B4021639F01FBA20BD36
:104770000FB6F894FA9AF99A0FBE08950396272F68
:104780000E94AD230E94AC23252F0E94AD23242F2D
:104790000C94AD230196272F0E94AD230C94AC23DB
:1047A000DC01CB01FC01F999FECF06C0F2BDE1BDF1
:1047B000F89A319600B40D9241505040B8F70895E0
:1047C000F894FFCFA104A104F104F104D004D004B3
:1047D000D004D0045605C705D605D6058814FC14A8
:1047E00090145A145E14941462149814A4146E1441
:1047F000F5147214A8147614AC14D4147A14B014EA
:10480000DB148014B614BE1466149C146A14A0142D
:104810008414BA14CA14E414F31454148C14031535
:1048200046194C1935194019521958195E19F121B8
:1048300019220223192202234C226D220223C422B0
:02484000D02284
:1048420002017701670157010000F8013294F691E5
:10485200F4C63390F59336973166F73435FFFFFF90
:10486200010000000100000000000000040100003F
:1048720000040500000000000001CF1CF81CD31C3E
:10488200D21C01F491F6943293F59033C6F7663157
:1048920097363534FFFFFF380222FFFF00221E0247
:1048A20007000000000000373122FFFF0022130240
:1048B20007000000000000363422FFFF0022130030
:0A48C200070000000000001F0200C4
:00000001FF
