:100000000C949A020C94B7020C94B7020C94BA2088
:100010000C94B7020C94B7020C94B7020C94B7027C
:100020000C94B7020C94B7020C94EA270C94BE28E7
:100030000C94FE220C94B7020C94B7020C94B702F5
:100040000C94B7020C94B7020C94B7020C94B7024C
:100050000C94B7020C94A1230C94B7020C94B70231
:100060000C94B7020C94B7020C94B7020C94B7022C
:100070000C94B7020C94B7020C94B7020C94B7021C
:100080000C94B7020C94B7020C94B7020C94B7020C
:100090000C94B7020C94B7020C94B7020C94B702FC
:1000A0000C94B7020C94B7020C94B7020102E2015F
:1000B000016201015901015F01015E0103E20014C7
:1000C000001A0008001500170004001600070009B8
:1000D000000A001D001B280624192105002B412AB7
:1000E000220000000000001C0018000C0012003468
:1000F000000B000D000E000F003300110010313610
:1001000034373838022C4228430000000000001F1A
:100110000220021F0621022202360237022602278F
:100120000224020C040F0406040E04350400004CE3
:100130000000000000000000002E002D002E0235FF
:100140000031022F0230022F00300035022D02381C
:1001500000250225062C092C0800000000000022C2
:100160000AAC00AE00AB0000002900AA00A800A95C
:10017000000000B00CE300E200E40044520000E1A3
:100180000000000000000000005001417E437E4F4F
:100190000100005000510052004F00000050085074
:1001A000044F044F08000000000000000000003A67
:1001B000003B003C003D003E003F0040004100424B
:1001C00000430044004500680069006A002C0800F4
:1001D00000000000000000000059005A005B000011
:1001E0000062005C005D005E00000000005F0060D7
:1001F000006100000000000000000000000000148A
:10020000001A000800150017000400160007000976
:10021000000A001D001B210624192805002B452A71
:10022000220000000000001C0018000C0012003426
:10023000000B000D000E000F0033001100103836C7
:1002400034373138022C4628470000000000001FD8
:10025000022002221421022202360237022602273D
:100260000224020A141B1406140914161400004C6C
:100270000000000000000000002E002D002E0235BE
:100280000031022F0230022F00300035022D0238DB
:10029000002502407E37082C0400000000000046C4
:1002A00000AC00AE00AB0000002900AA00A800A925
:1002B000000000A500E400E200E30040520000E17D
:1002C0000000000000000000005009427E437E4F05
:1002D0000900005000510052004F0000004A005039
:1002E000014F014D00000000000000000000003A36
:1002F000003B003C003D003E003F0040004100420A
:1003000000430044004500680069006A002C0400B6
:1003100000000000000000000059005A005B0000CF
:100320000062005C005D005E00000000005F006095
:10033000006100000000000000000000000000005C
:10034000000000000000002A2B2800000000000030
:100350000000000000000000000029000000002C48
:100360001E3420212224342627252E362D373827E7
:100370001E1F202122232425263333362E37381FF3
:100380000405060708090A0B0C0D0E0F10111213B5
:100390001415161718191A1B1C1D2F3130232D3553
:1003A0000405060708090A0B0C0D0E0F1011121395
:1003B0001415161718191A1B1C1D2F3130354C0037
:1003C000000000000000000000000000000000002D
:1003D000000000000000000000000000000000001D
:1003E0000000007E0F00D4FFFFFFC700000078125E
:1003F000034B006100680062006F006100720064DE
:10040000000000220341006E0074006F0069006E5E
:100410000065004B00610068006C006F00750063B0
:10042000006800650000000403090409023B0002A3
:100430000100A0FA090400000103010100092111D3
:1004400001000122400007058103080001090401A1
:10045000000103000000092111010001227B0007B7
:100460000582032000011201000200000008ABC257
:10047000393901000102000105010902A1018502CB
:100480000901A10005091901290815002501950890
:10049000750181020501093009311581257F950219
:1004A0007508810609381581257F95017508810633
:1004B000050C0A38021581257F950175088106C053
:1004C000C005010980A101850319012AB7001501A2
:1004D00026B700950175108100C0050C0901A10126
:1004E000850419012AA002150126A00295017510A4
:1004F0008100C005010906A101050719E029E715DA
:100500000025019508750181029501750881010595
:1005100007190029FF150026FF00950675088100C0
:1005200005081901290595057501910295017503C5
:100530009101C00011241FBECFEFDAE0DEBFCDBFB6
:1005400012E0A0E0B1E0ECE0F7E502C005900D920A
:10055000AE31B107D9F723E0AEE1B2E001C01D92A0
:10056000A733B207E1F70E949A160C943D2B0C9426
:100570000000FB0181342EE7920721F128F480343A
:100580009E47A9F081E0089582342EE7920779F121
:1005900083349E47B9F78581882329F18091200211
:1005A00081111DC081E08093200280EE16C08581FC
:1005B000882341F30E94460860E08CEA90E00E94A4
:1005C000161CE0CF8581882371F080912102811172
:1005D00006C081E08093210283EE0E9443058BE2F6
:1005E0000E944305CFCF8BE20E949005CBCF85813F
:1005F0008823C9F3809122028111F1CF81E0809399
:10060000220282EEEACF80912102882351F082E01B
:100610000E94D708811105C083EE0E9490051092B8
:10062000210280912202882351F086E00E94D7089F
:10063000811105C082EE0E949005109222028091E5
:100640002002882379F082E00E94D70881110AC035
:1006500086E00E94D708811105C080EE0E949005B7
:100660001092200208958830B8F46830A8F445301C
:1006700098F450E095E0699F400D511D1124FA0156
:1006800098E2899FE00DF11D1124EE0FFF1FE15448
:10069000FF4F85919491089581E090E008950E9424
:1006A000330308959C013A9521153F4150F5FC0113
:1006B000EE27F170BC0166277270AC0144275470BC
:1006C0009C012227387094FF0EC080E1EF2B09F4C3
:1006D00080E0672B09F08062452B09F08064232BB2
:1006E00089F08068089581E0EF2B09F480E0672BA2
:1006F00009F08260452B09F08460232B19F0886093
:10070000089580E00895CF93DF93EB010E94520398
:10071000FE010995DF91CF910895CF93DF93EC010E
:10072000805E9109089720F062E278E0209711F44A
:1007300064EE75E0CE010E9483038C2F0E94430576
:10074000DF91CF910895CF93DF93EC010E94900544
:10075000CE01805E9109089720F069E278E0209749
:1007600011F46BEE75E0CE010E948303DF91CF910F
:1007700008950F931F93CF93DF938C01EB010E9499
:100780008D03209741F4C8010E94A303DF91CF910C
:100790001F910F9108958FE99FE00197F1F700C035
:1007A00000002197EECF70E060E08933910511F4ED
:1007B00060E570E00E94B903089581E008950E9409
:1007C000DD03089581E008950E94B9020895089517
:1007D0000E94E7030895A6E0B0E0E1EFF3E00C9497
:1007E000992A49835A839E833091280289819A816C
:1007F00031111AC03E81332399F0222389F00E94DF
:10080000B109182F682F89819A810E948D09698109
:100810007A81812F0E94E7102696E3E00C94B52A96
:100820000E949F09182FF3CF0E94B10969817A8134
:10083000F1CFFC01262F4081518162817381848137
:1008400095810E94EB030895CF93DF93EC0161E063
:100850000E941904BE010E94DF03DF91CF91089529
:10086000CF93DF93EC0160E00E941904BE010E9467
:10087000E803DF91CF91089508950E9446080E94F1
:100880003C042FEF84E39CE0215080409040E1F74E
:1008900000C0000008950E943D040E94C5230895F1
:1008A0000E943D040E94D62308950F931F93CF9377
:1008B000DF938C0161E00E941904EC01B8010E94F1
:1008C000E403811106C080E0DF91CF911F910F9169
:1008D0000895B801CE010E94C31D8823A1F3B80179
:1008E000CE010E945119882371F3B801CE010E94F4
:1008F000D61F882341F3B801CE010E94D21A882363
:1009000011F3B801CE010E947E1C8823E1F2F801A8
:100910008581882361F0C330FCE7DF07E9F058F4F4
:10092000C115ECE7DE07A9F0C130DC47B9F0C8011A
:100930000E94E203C9CFCB358CE7D807A9F0CC35AC
:10094000ECE7DE0771F0CA35DC4789F70E94340E08
:10095000EECF0E944B04B7CF0E943C0E0E94500481
:10096000B2CF0E942A0EE3CF0E94380EE0CF0E9441
:10097000DB220E94DE0408950E94E2040E94E0222D
:100980000895089581E008950895CF93DF93D82FB7
:100990000E94C204C82F882319F08D2F0E94C4041E
:1009A0008C2FDF91CF9108950895CF93C82F0E9487
:1009B000C1048C2F0E94C504CF91089580E00E944D
:1009C000D50408950E94E0210E94D5040895CF9394
:1009D0000E94E021C82F809123028C1779F0C093E8
:1009E00023020E946A23609324027093250280935D
:1009F0002602909327028C2F0E94D504CF91089550
:100A0000ADE0B0E0E6E0F5E00C949A2A488759871B
:100A10006A877B878C879D8791110E94320D1F8288
:100A200086E0FE013896DE01119601900D928A95BE
:100A3000E1F78D8181110DC029813A814B815C8163
:100A40006D817E818F810E94590C2D96E2E00C947D
:100A5000B62ACE0101960E9424048111EDCFF5CF74
:100A6000FC012481213021F4808191810E94E309DD
:100A70000895662329F00E941E170E94F117089519
:100A80000E947817FACFCF93C82F8823B9F08CEF44
:100A90008C0F813AA8F46C2F80910C0190910D017C
:100AA0000E946C22882329F08C2F0E94E60C0E9461
:100AB000870D8C2F0E94DE0C0E94870DCF91089528
:100AC00080E28C0F883048F4C77081E001C0880F45
:100AD000CA95EAF70E940C0DEFCFEBE5EC0FE3307F
:100AE00040F4F0E0E152FE4F808190E00E9410223D
:100AF000E5CFE8E5EC0FEB3150F4F0E0EE0FFF1F2F
:100B0000E755FE4F808191810E943522D7CF83E344
:100B10008C0F833198F661E08C2F0E943905CECF7F
:100B2000882381F19CEF980F913A28F40E94E60CFB
:100B30000E94870D089590E2980F983050F48770C6
:100B400091E001C0990F8A95EAF7892F0E94120D52
:100B5000EFCF9BE5980F933028F490E080E00E945F
:100B60001022089598E5980F9B3128F490E080E0DA
:100B70000E943522089593E3980F933118F460E0B2
:100B80000E94390508951F93CF93DF93182FEB012F
:100B90000E944305209739F4812F0E949005DF9130
:100BA000CF911F9108958FE99FE00197F1F700C061
:100BB00000002197EFCF70E060E0893311F460E529
:100BC00070E00E94C3050895882321F00E940C0D57
:100BD0000E94870D0895882321F00E94120D0E9423
:100BE000870D0895B0E0A0E0E8EFF5E00C94932ABB
:100BF0006C01D62FC72FFC011581068102950F705D
:100C00000E94020DE82E8823E9F0E12E1123D1F095
:100C10008C2F807F803451F080E28D0F8830F8F087
:100C2000011104C08C2F807E8032C9F080911003A6
:100C300082FF15C082E00E94FE0D0E94020D91E02D
:100C4000E82EE926BC2EB2949FE0B922FBE0FB150A
:100C5000B8F1EB2DF0E0E15CF44D0C94842AE12C2A
:100C6000F1CF0C2F0F70C07F11F00295007F112380
:100C700099F0002359F080E28D0F883010F0D111E7
:100C800007C0802F0E940C0D0E94870D8D2F5AC027
:100C9000802F0E94220DF8CF8D2F0E9490050023F7
:100CA00079F080E28D0F883010F0D11104C0802FD0
:100CB0000E94120D03C0802F0E94280D0E94870DF4
:100CC000EB2DE850FF0B349720F40E94E0210E94A6
:100CD000D504EE2089F00E94FE0C80FD0DC0F601C7
:100CE00015820E94F80C0E94EB08C6010E94FF07C3
:100CF0000E94F80C0E94FB08CDB7DEB7E9E00C9427
:100D0000AF2A2C2F2F70F22EC07FC03219F0F29430
:100D100080EFF822DD2341F0D130D1F1112309F425
:100D200044C00023F1F0B2CF8091100382FD15C0C2
:100D3000112359F0FF2029F08F2D0E940C0D0E94E5
:100D4000870D80E00E944305BBCF80E00E949005A4
:100D5000FF2009F4B5CF8F2DABCF112369F001111E
:100D600004C08F2D0E94E405ABCF013009F0A8CF5D
:100D70008F2D0E94580DA4CF0111A2CF8F2D0E945C
:100D8000EB058F2D0E94640D8F2D0E94480D98CF8A
:100D9000112321F0063008F093CFE3CF053008F09F
:100DA0008FCF8F2D0E94EB058BCF0023D1F3D9334A
:100DB00049F43FEF87EE93E0315080409040E1F7F7
:100DC00000C000008D2F0E9490057ACF8C2F869551
:100DD0008695837069F0813009F072CF8D2F9C2F3A
:100DE0009370111102C080E090E00E94352268CF1C
:100DF0008D2F9C2F9370111102C080E090E00E9413
:100E000010225ECF612F8D2F0E94390559CF8C2F74
:100E10008370A1F5111154CF4D2F4295469547701F
:100E2000440F440F2D2F2F7030E0042E02C0220FEC
:100E3000331F0A94E2F790E080E0D4FF09C08FE00E
:100E400090E002C0880F991F4A95E2F7809590952F
:100E5000C695C695C370822B932BC23049F058F4C7
:100E6000C13019F00E949F082BCF0E94960828CF0E
:100E70000E94A80825CF0E94930822CF86951123AF
:100E800011F08C2F8170882309F41ACF4D2F4295D1
:100E900046954770440F440F2D2F2F7030E0042EDD
:100EA00002C0220F331F0A94E2F790E080E0D4FFE3
:100EB00009C08FE090E002C0880F991F4A95E2F7C1
:100EC00080959095C695C695C370822B932BC230A2
:100ED00049F058F4C13019F00E942609F1CE0E9461
:100EE0001D09EECE0E942F09EBCE0E94B708E8CE76
:100EF000CF70112329F08C2F0E94EB088D2F32CF59
:100F00008D2F0E94EB058C2F0E94FB08D9CED23F7B
:100F100041F160F4D03FB9F0D13F81F0112309F4E1
:100F200046C00111B3CE8C2F8F711FC0D33F01F18A
:100F3000D43FA1F78091100382FD24C08C2F8F71C4
:100F4000112311F312C0112341F0053008F0B8CE7F
:100F50008C2F8F710E940D09B3CE063008F0B0CEF1
:100F6000F7CF8C2F8F711111CFCF0E94EB08A8CE35
:100F7000112329F08C2F8F710E94DF08A1CE0E94CF
:100F8000BE089ECE112349F0CF718C2F0E94EB0832
:100F900063E08C2F0E94E00D93CE81E00E94FE0D55
:100FA000023008F48DCE82E00E94FE0D89CE00232F
:100FB00059F0D93309F006CFEFEFF7EE23E0E15017
:100FC000F0402040E1F7FCCE8C2F8F719DCF0F9326
:100FD0001F93CF93DF93EC01688179818D810E940B
:100FE000EE098C010E9438090E949208B801CE01D6
:100FF0000E94F205DF91CF911F910F910895CF9339
:10100000DF93EC018C81882399F0CE010E94550476
:10101000811111C00E94020D882351F08D81882317
:1010200039F08091100382FF03C082E00E94FE0D20
:10103000DF91CF910895CE010E94E707CE010E9473
:101040003004F6CF882321F00E94220D0E94870DE4
:101050000895882321F00E94280D0E94870D08958D
:1010600090E080E00E94102290E080E00E94352213
:101070000E94320D0E94870D0E940D180E94F117E8
:1010800008950E94EE0C0E94300808950E941C0DE5
:101090000E944108089592959F70963091F058F4FF
:1010A000925F9F70923058F4803F19F030F4883E80
:1010B00030F481E008959A5FF4CF843FD1F380E06B
:1010C0000895883EB0F3813FD1F7F3CFFC0124812E
:1010D000222339F0808191810E94E3090E944B080C
:1010E000089580E00895A6E0B0E0E9E7F8E00C9408
:1010F0009A2A2696E2E00C94B62AA7E0B0E0E3E84C
:10110000F8E00C949A2A2796E2E00C94B62A089507
:101110000E94870808950E94880890934002809357
:101120003F02089508950E948B08089520913F0280
:1011300030914002822B932B0E948B0808952091BE
:101140003F0230914002822393230E948B0808952E
:1011500020913F0230914002822793270E948B0802
:1011600008950E94870808950E94B10808950E947A
:10117000B40890933E0280933D02089590E080E091
:101180000E94B7080895009729F481E0662371F062
:1011900080E00CC021E030E002C0220F331F6A95CE
:1011A000E2F72823392381E0232B91F30895682F58
:1011B00080913D0290913E020E94C308089521E073
:1011C00030E0A90102C0440F551F8A95E2F7CA0119
:1011D0000E94B708089521E030E002C0220F331FBB
:1011E0008A95E2F780913D0290913E02822B932BEB
:1011F0000E94B708089521E030E002C0220F331F9B
:101200008A95E2F72095309580913D0290913E02BB
:10121000822393230E94B708089521E030E002C0A2
:10122000220F331F8A95E2F780913D0290913E0292
:10123000822793270E94B708089520913D0230919C
:101240003E02822B932B0E94B708089520913D0205
:1012500030913E02822393230E94B7080895209183
:101260003D0230913E02822793270E94B7080895DD
:101270000895262F277091E001C0990F2A95EAF76B
:1012800023E0769567952A95E1F7660F771F660F3D
:10129000771FFA01E60FF71F50E040E0682F70E07B
:1012A0008191DF0111979B01042E02C0369527958D
:1012B0000A94E2F7217021952827292328272C93C7
:1012C0004F5F5F4F4430510559F70895A82FA7701D
:1012D00023E0969587952A95E1F7880F991F880F47
:1012E000991FFB01E80FF91F50E040E080E02191D9
:1012F00030E00A2E02C0369527950A94E2F7217055
:101300003327042E01C0220F0A94EAF7822B4F5F85
:101310005F4F4430510559F70895262F983070F4E7
:10132000853060F4682F70E085E0989F600D711D36
:10133000112449E252E0822F0E9439090895292F91
:10134000983068F4853058F490E069E272E035E056
:10135000239F800D911D11240E946609089580E04D
:101360000895B0E0A0E0E7EBF9E00C94932A7C014B
:1013700000913D0210913E0280913F029091400207
:10138000082B192BCFE0D0E0CC24C394D12CBC2E59
:10139000C6010C2E02C0880F991F0A94E2F7802321
:1013A0009123892B49F4219790F7B12C8B2DCDB740
:1013B000DEB7E9E00C94AF2AB7018C2F0E94F3103E
:1013C000019789F3F3CFCF93DF93EC010E94B1092A
:1013D000BE010E94F310DF91CF9108951F93CF9328
:1013E000DF93EB0190912802992339F0CB010E9401
:1013F000E309DF91CF911F910895882369F0CB0114
:101400000E94B109182F682FCE010E948D09BE01DC
:10141000812F0E94F310EDCFCB010E949F09182F5E
:10142000F6CF1F93CF93DF93C091410217E08091D5
:1014300042028C1304C0DF91CF911F910895D0E038
:101440001C9FF0011D9FF00D1124ED5BFD4F2081CD
:101450003181428153816481758186810E947D083A
:101460002196C770E4CF20917B0230917C0240919D
:101470007D0250917E0260917F0270918002809186
:1014800081020E947D080895CF93DF9380918102AD
:10149000807F09F04DC080918002882309F448C004
:1014A000E091410250914202C0917C02D0917B02B6
:1014B00060917D0270917E0247E05E17C9F18E2F28
:1014C00090E0E49FF0011124ED5BFD4F2481222385
:1014D00091F1489FF001499FF00D1124DF01AD5BB0
:1014E000BD4F11962C9111972C1325C02C912D13C3
:1014F00022C015962C91159721111DC012962D9181
:101500003C91261B370B283C3105A8F480918102C1
:101510008F70806180938102E75BFD4F80818F70C7
:10152000806180838BE792E00E94FF070E94110A8E
:10153000DF91CF910895FC013196E770BECF482F1F
:10154000209141029091420257E0291302C080E0AD
:10155000089530E0529FF001539FF00D1124ED5B90
:10156000FD4F8181681306C08081481303C08581C7
:101570008111EECF2F5F3F4F2770E7CFA4E1B0E09E
:10158000E4ECFAE00C94902A8C0186E0F801DE018C
:101590001F9601900D928A95E1F7D80114968C91CF
:1015A00014971596EC9015979BE7A92E92E0B92E0B
:1015B00090917F0291111FC08823D1F0EE20A9F0F5
:1015C000C8010E946608F82E882379F087E0F801A8
:1015D000D50101900D928A95E1F7C5010E94300571
:1015E0000E94440A0E94330A3DC0C8010E94FF07BE
:1015F000FF24F39437C0F801C080D18082809380AB
:10160000F090800220917D0230917E02A401421B65
:10161000530BFF2009F4F6C0483C510508F0A5C063
:10162000882301F190917C0280918102282F207FF4
:1016300009F067C09D111BC090917B029C1117C0DF
:10164000E11059C08F708061809381020E94330A3B
:101650008BE792E00E94FF0780918102D8011696E5
:101660008C93F12C8F2D6496ECE00C94AC2AE11055
:1016700042C06D2D8C2D0E949F0AE82E882371F0A8
:101680008BE792E00E94FF0787E0EBE7F2E0DF01E3
:101690001D928A95E9F70E94330AE3CFCF86D88A54
:1016A0008F8598890E94E309292F22952F70243075
:1016B00058F49F70223088F0992399F0F8019681B0
:1016C000907F79F4FE2CCECF2A5F2F70223068F005
:1016D000C8010E94FF07EF2CF5CF992311F0882352
:1016E00089F3805E883070F3F3CF803F58F3815FD9
:1016F000833070F7E7CF809181028160809381020F
:10170000B0CF9D1107C090917B029C1103C0EE20C9
:1017100009F49CC0C8010E946608882309F465CFBB
:10172000EE2009F462CF80918102803288F020910E
:101730007B0230917C02398728879B868A8690912C
:101740007F029C871D868E87CE0108960E94FF0728
:1017500087E0F801ABE7B2E001900D928A95E1F7DE
:101760000E94440A0E94330A43CF90918102292F9C
:10177000207F91F4682D9A8A898AA6017A899E2D04
:101780000E9473088BE792E00E94FF0787E0F50153
:1017900011928A95E9F77FCF882309F463CF80916E
:1017A0007C028D1111C080917B028C110DC0E11063
:1017B0000BC016969C93C8010E94FF0787E0F501B5
:1017C00011928A95E9F74ECFC8010E9466088823D6
:1017D00009F40BCFEE2009F408CF8091810280320A
:1017E00008F4B6CF20917B0230917C023A832983A2
:1017F0009C828B8290917F029D831E828F83CE017B
:101800000196A4CF483C510508F045C0882309F44F
:10181000EFCEFE2CEE2009F4E8CE80917C028D11F3
:101820002CC080917B028C1128C08091810280FDA8
:101830001BC0982F907FC1F016968C931697903FFF
:1018400039F0982F907F905F8F70892B16968C932C
:10185000C8010E94FF0787E0F801ABE7B2E0019002
:101860000D928A95E1F7BECE87E0F801ABE7B2E0D2
:1018700001900D928A95E1F7F5CEC8010E946608A5
:10188000811166CF80918102816080938102C801BD
:101890000E94FF07E7CE682D9A8A898AA6017A8975
:1018A0009E2D0E94730887E0F50111928A95E9F751
:1018B00099CEAEE0B0E0EFE5FCE00C94992A2887E1
:1018C00039874A875B876C877D878E87CE0108962C
:1018D0000E94BE0A8823B1F06C85662341F02885FA
:1018E00039854A855B857D858E850E947D0817E058
:1018F000809141029091420289133DC02E96E3E00F
:101900000C94B52A87E0FE013896DE01119601900D
:101910000D928A95E1F78C85882349F32091420244
:1019200030E0C9010196877099274091410248171C
:10193000190699F097E0929FD001939FB00D112462
:10194000AD5BBD4FFE01319601900D929A95E1F786
:10195000809342020E94110ACACF0E944608109248
:1019600042021092410287E0EBE7F2E0DF011D92B4
:101970008A95E9F7BCCF819FC00111248D5B9D4FF3
:101980000E94BE0A882309F4B9CFE09141021E9F4C
:10199000F0011124ED5BFD4F2081318142815381A3
:1019A0006481758186810E947D088091410290E06A
:1019B000019687709927809341029ACF682F809172
:1019C0000C0190910D010E94A2220895682F809130
:1019D0000C0190910D010E94A522089580910C01A7
:1019E00090910D010E94A822089580918B02089584
:1019F00080918A02869586958695089580918A02BF
:101A00008770089590918A02977081E009F480E0D0
:101A1000089580919802089590919802892B80935F
:101A20009802089580959091980298239093980237
:101A300008958093980208951092980208958091D5
:101A40009702089590919702892B809397020895A9
:101A50008095909197029823909397020895809390
:101A60009702089510929702089580939602089520
:101A7000109296020895809395020895109295020F
:101A8000089580918C02089508950E94440D089550
:101A900090918B02292F282331F080958923809300
:101AA0008B020E94450D089508950E94540D0895DB
:101AB00090918C02292F2823281729F0982B909396
:101AC0008C020E94550D089590918C02292F282395
:101AD00031F08095892380938C020E94550D0895E2
:101AE0009091100392FF08C090918C02981721F0FA
:101AF00080938C020E94550D089580918C0288235A
:101B000029F010928C0280E00E94550D0895CF9329
:101B1000DF93E0910C01F0910D0180919802808398
:101B2000E0910C01F0910D01808190919702892B39
:101B3000808390918C02992381F0E0910C01F091C7
:101B40000D018081892B808380910C0190910D0182
:101B50000E945A2281110E947D0DE0910C01F091AA
:101B60000D0180919502982F909580818923808323
:101B7000E0910C01F0910D01808190919602892BEA
:101B80008083C0910C01D0910D0148E050E062E8E3
:101B900072E0CE010E94D52A892B59F088E0FE011F
:101BA000A2E8B2E001900D928A95E1F7CE010E9481
:101BB000F721DF91CF91089508950E94DC0D0895DB
:101BC0009091100392FF11C098E0899F9001112419
:101BD000622B60938A020E94EB0880918A028695AC
:101BE000869586950E94DD0D08950E94EB08089564
:101BF00010928A0280E00E94DD0D089590918A0281
:101C00008095892380938A02282F277069F4891789
:101C100059F09091100392FF07C08695869586959E
:101C20000E94FB080E94F80D08959091100392FB0A
:101C3000222720F9281769F080FB92F9909310036E
:101C400080910F03909110030E945D0E82E00E942C
:101C5000FE0D08958091100382FB882780F991E0A2
:101C600089270E94150E089581E00E94150E08959F
:101C700080E00E94150E08956FEF7FEF90E080E006
:101C80000E94272B089590E080E00E94F32A21E033
:101C9000863E9E4F09F020E0822F089582E090E07A
:101CA0000E94EB2A089583E090E00E94EB2A0895B9
:101CB00084E090E00E94F32A0895BC0184E090E063
:101CC0000E94272B0895AB01BC018FE090E00E9499
:101CD0001B2B0895AB01BC0183E190E00E941B2BFC
:101CE000089560E070E0CB010E946A0E089560E004
:101CF00070E0CB010E94630E0E94710E0895A8E06F
:101D0000B0E0E5E8FEE00C949A2A66EE7EEF90E003
:101D100080E00E94272B60E082E090E00E94092B87
:101D200060E083E090E00E94092B10924002109244
:101D30003F0260E074E184E090E00E94272B60E0C5
:101D400086E090E00E94092B6FEF87E090E00E9410
:101D5000092B40E050E0BA0188E090E00E941B2B84
:101D600060E084E290E00E94092B60E087E190E06F
:101D70000E94092B60E08CE090E00E94092B60E05B
:101D80008DE090E00E94092B19821A821B821C822E
:101D90001D821E821F82188648E050E068E170E0D4
:101DA000CE0101960E94F92A40E050E0BA0180E29B
:101DB00090E00E941B2B0E94770E2896E2E00C9484
:101DC000B62A0E947F0E0895682F8EE090E00E9450
:101DD000092B0895A6E0B0E0E0EFFEE00C94982A0D
:101DE0000E945E238C018091990290919A02801743
:101DF000910781F019821A820E945E23682F49811F
:101E00005A81792F80E090E00E94000510939A0299
:101E1000009399022696E4E00C94B42A0E940312DF
:101E20006093A7027093A8028093A9029093AA02DC
:101E30006093A3027093A4028093A5029093A602DC
:101E40000895089508950E94220F089508950E940C
:101E5000260F089581E008958DE192E10E94D62138
:101E60000E94210F0E94230F08950E9408140895D4
:101E7000089508950E94380F0E94390F08950E9416
:101E800049120E94D4040E94A11908950E9455236A
:101E90000E94DD110E9431140E9438130E943F0FEE
:101EA0000E942B190E943B140E94270F08950E9444
:101EB000081481110E94871D0895A6E0B0E0E3E6B2
:101EC000FFE00C94912A0E942A0F81110CC00E94FD
:101ED000EA0E0E94570F0E942F180E94E7042696D0
:101EE000EBE00C94AD2A0E948C138BE9A82E82E0C3
:101EF000B82E750110E0F70101917F01812F0E943A
:101F00006E121F5F183009F441C00817A1F38091C9
:101F1000AB0281FD0E9474120E94350FC82E10E0A2
:101F200099249394812F0E946E12082FF5018191BC
:101F30005F01081729F1D02ED826F12CEE24E39466
:101F40008D2D8E21A9F0CC2099F0F9821A830E9460
:101F50005E239C838B839D8291E0802F8E2109F4E8
:101F600090E049815A816B817C818D810E940005BE
:101F7000F394EE0CF5E0FF12E3CFF5013197008307
:101F80001F5F183079F60E940E0FA3CF0813BFCF42
:101F90009ECF1F93CF93DF930E94F810EC01C115E1
:101FA00080E5D807F0F5C11580E4D80708F09CC09B
:101FB000C03ED10520F5CD3CD10508F082C0C83A1D
:101FC000D10578F4C53AD10508F073C0C130D10508
:101FD00019F1209709F1C430D105F0F4D0E0C0E048
:101FE0001BC0C33CD105D0F7C85AD0E0CC0FDD1FD1
:101FF000CE51DE4F0990D881C02DD4640DC0C115DB
:1020000080E2D80708F0D1C0C11581E0D80708F0F8
:102010005AC0C83ED10510F7CE01DF91CF911F9174
:102020000895C03682E5D80718F5C03482E5D80790
:1020300008F06BC0C03282E5D80708F05FC0C11558
:1020400082E5D80708F497C02C2F2695269580E2C4
:10205000289F900111248C2F8370C1E0D0E002C032
:10206000CC0FDD1F8A95E2F7C22BD32BDD68D4CFCE
:10207000C03A82E5D80760F4C03882E5D80708F492
:1020800059C0CF71D0E0DC2FCC27C46FD06AC4CF49
:10209000C03C82E5D80708F462C0C03E82E5D8079C
:1020A00008F09CCFDC2FCC27CC27DF71C06FD06A23
:1020B000B3CFC55AD0E0C85EDD4FC881D0E0D06450
:1020C000ABCFD065A9CF8D2F0E949A11182FCE01CA
:1020D00099270E94F810C12FD0E0DC2FCC27CC2705
:1020E000DF71C82BD92B98CFCE0199270E94F81009
:1020F000CC27DF70C82BD92BD06A8ECFCF71D0E020
:10210000DC2FCC27C16FD06A87CF2C2F2695269540
:10211000277080E2289F900111248C2F8370C1E0EA
:10212000D0E002C0CC0FDD1F8A95E2F7C22BD32B83
:10213000DC6872CF2C2F26952695277080E2289F89
:10214000900111248C2F8370C1E0D0E002C0CC0F2D
:10215000DD1F8A95E2F7C22BD32BDA685DCF8C2F77
:102160008F710E949A11C82FD0E0DC2FCC27CC278A
:10217000DF71D06251CF8C2F8F710E949A1155E080
:10218000D695C7955A95E1F7CF70D0E0DC2FCC27D4
:10219000282F30E084FF05C044E0220F331F4A950A
:1021A000E1F7C22BD32BD06937CF8D2F8F710E94CF
:1021B0009A11182FCE0199270E94F810C12FD0E054
:1021C000DC2FCC27CC27DF71C82BD92BD2CF462FC1
:1021D000783030F4653020F4672F0E944F03089563
:1021E00090E080E008950E94E7100E94C90F0895D2
:1021F00082389105B9F1B0F48133910509F47DC0BD
:1022000048F48932910509F46DC08A32910509F4C8
:102210007BC008958533910509F45FC0893391052A
:1022200009F10895833E9105D9F138F4803E910576
:1022300029F1823E910579F10895863E9105D9F103
:10224000873E910509F43EC0843E910541F52091F9
:10225000100321FF24C080910F0384FD19C087EE75
:1022600090E0089520910F03237009F05AC0209147
:10227000100323FF14C089E290E0089520910F031A
:1022800020FD38C03091100330FF09C024FF43C047
:1022900090E080E0089520910F0322FDF7CF08958C
:1022A00020910F0322FD3AC03091100330FD39C058
:1022B00024FFF5CFEDCF20910F0323FFF0CF24FDB6
:1022C000E7CFCDCF20910F0323FD2EC03091100317
:1022D00031FFEECF84EE90E0089520910F0325FFAB
:1022E000DECFC9CF20910F0325FD21C0209110031F
:1022F00023FFD5CF89E390E0D2CF20910F0326FFB3
:10230000CECF8AE290E0089520910F0326FFC7CF39
:1023100081E390E0089583EE90E0089582EE90E0EE
:10232000089580EE90E0089586EE90E0089585E3AC
:1023300090E0089590910F0392FF06C0282F287116
:102340002830F9F4877F846093FF06C0282F287116
:102350002831F1F4877E84612091100320FF06C0AC
:10236000382F38713830D9F4877F816021FF06C05B
:10237000282F28712831D1F4877E816194FD877ED2
:102380000895282F24712430F9F68B7F8860DCCFE4
:10239000282F2471243101F78B7E8861DDCF382FFF
:1023A0003171313019F78E7F8860E0CF282F21718D
:1023B000213121F78E7E8861E1CF10920B031092BC
:1023C0000C0310920D0310920E030895CF92DF922A
:1023D000EF92FF926B017C010E94081481110EC0E4
:1023E0000E946A23C61AD70AE80AF90AC0920B03A8
:1023F000D0920C03E0920D03F0920E03FF90EF9049
:10240000DF90CF9008950F931F930E9408148823A4
:1024100029F00E946A231F910F9108950E946A2358
:1024200000910B0310910C0320910D0330910E03CA
:10243000600F711F821F931FEECF80E008950E94EE
:102440003C0E0895CF930E948C132FEF86E791E006
:10245000215080409040E1F700C000000E948C13A2
:102460000E942E14C4E08111C0E08C2F0E946E12D5
:1024700090E002C095958795CA95E2F780FF04C069
:102480000E941F120E94C523CF9108950E9422121C
:1024900008950E94430E811102C00E94E10E0E9425
:1024A0004E0E8093AB020E94580E909310038093BF
:1024B0000F030E9446120E94530E90E00E94930860
:1024C00080913D0290913E020E94B40808950895C3
:1024D0000E94671208950E9403030895E82FF0E018
:1024E000E65EFC4F80810895089508950E9475125C
:1024F0000895EF92FF921F93CF93DF9300D000D007
:10250000CDB7DEB70E940814182F609122038823EC
:1025100009F447C019821A821B821C82862F90E020
:102520009E012F5F3F4F7901B901865E9C4F0E944B
:1025300049148823E9F08091110390E044E050E0D1
:10254000B701865E9C4F0E94D52A21E02093AC0201
:10255000892BC9F410E00E946B12812F0F900F900D
:102560000F900F90DF91CF911F91FF90EF90089502
:102570008091AC02882371F384E0F70111928A956F
:10258000E9F71092AC02E0911103F0E0E65EFC4F37
:1025900089819A81AB81BC8180839183A283B3833B
:1025A000DACF70E0665E7C4F8091110390E0865E2A
:1025B0009C4F0E94D0140E947612CFCF1F93CF93CE
:1025C000DF932EE031E0C1E0D0E0D90150E040E0FF
:1025D0008D918F3F91F0E82FE295EF70F0E011A11F
:1025E0008F70BE0101C0660F8A95EAF7962F90950D
:1025F000912391A382A1862B82A34F5F5F4F453029
:10260000510531F72B5F3F4F81E022323807E9F661
:10261000DF91CF911F910895CF93DF93AC01A62F47
:10262000B0E085E0689FF0011124E25FFE4F75E0A5
:1026300081E060E091919F3FC9F0C92FC295CF70B2
:10264000D0E028A130E09F7002C0359527959A957B
:10265000E2F720FD0BC0282F622B880F715051F735
:10266000A40FB51F6C93DF91CF91089520E0F4CFB4
:10267000A4E1B0E0EEE3F3E10C949A2A8091220108
:10268000811126C084E1E5E5F1E0DE0111960190BB
:102690000D928A95E1F7FE013196AEE0B1E0CE01F0
:1026A000459620812C93218111962C93119722819C
:1026B00012962C931297238113962C9313972481AF
:1026C00014962C931497359615968E179F0749F7F5
:1026D0008091220194E0811190E09093220384E0A4
:1026E000891B809311030E94DE1288E0EAE1F3E087
:1026F000DF01982F1D929A95E9F7E2E1F3E0DF01FF
:102700001D928A95E9F784E00E94CA130E9468121C
:102710006496E2E00C94B62AA8E0B0E0E2E9F3E1C6
:102720000C94972A8E010F5F1F4F88E0F8011192D9
:102730008A95E9F7F12C6F2DC8010E940C13F394D0
:10274000F4E0FF12F8CF48E050E0B80182E193E0F6
:102750000E94D52A21E0009709F420E0892B41F05E
:1027600088E0F801A2E1B3E001900D928A95E1F7CB
:102770006091220370E0665E7C4F44E082E193E06A
:102780000E94CB13182F0E947912812B2896E5E026
:102790000C94B32A0895CF92DF92EF92FF920F9399
:1027A0001F93CF936C017B01042F222349F081E01A
:1027B0008093AF020E945E239093AE028093AD029D
:1027C000C091AF02C1110AC0C0E08C2FCF911F9100
:1027D0000F91FF90EF90DF90CF9008958091AD0220
:1027E0009091AE020E947623059770F310E0A80145
:1027F000B601C7010E94D52A892B41F0A801B60174
:10280000C7010E94E22A1092AF02DFCFC0E0FBCFE7
:10281000CF93DF938091B202811117C0C8ECD0E052
:102820000E946A2A81110EC08FE39CE90197F1F79B
:1028300000C000002197A1F782E08093B2020E94BD
:10284000652A03C081E08093B20281E09091B202D8
:10285000913009F080E0DF91CF9108950E94081433
:1028600008950E942E14809322010E940814811161
:102870000E947F1408950E940814811102C00E94D2
:102880008214089581E09091B3029A3008F080E0BC
:1028900008950F931F93CF93DF93EC018B018091E9
:1028A000B3028A30B8F4B801CE010E94CD14C82F0B
:1028B000811122C08091B3028F3FB9F40E945E2340
:1028C0009093B1028093B0028C2FDF91CF911F9132
:1028D0000F9108958091B0029091B1020E947623E9
:1028E000843F914000F7C0E0EFCF8F5F8093B30249
:1028F0008A3020F7C1E0E8CF1092B302E5CF0E9402
:10290000742008950E9477200895B0E0A0E0EBE8DD
:10291000F4E10C94952A7901C82F880FDD0B41153D
:102920005105A9F0FE0193E0EE0FFF1F9A95E1F724
:10293000ED5DFE4F818192818C549D4F208130E06E
:102940004217530708F49A01A9010E94E22ACE0116
:102950000E946021D82E8823D1F001151105B9F00D
:1029600083E0CC0FDD1F8A95E1F7FE01ED5DFE4FA0
:10297000438150E00417150708F4A801CD5DDE4F30
:102980006C817D816C547D4FC7010E94E22A8D2DA0
:10299000CDB7DEB7E7E00C94B12A0E942A1608955D
:1029A0000E944B160895A3E0B0E0E9EDF4E10C9429
:1029B000942A6091D0027091D1028091D2029091BC
:1029C000D3020E9485236B017C0111E084E6C816C6
:1029D000D104E104F10408F410E00E94090D898398
:1029E00094E6C916D104E104F10438F4E0911B0225
:1029F000F0911C029185891311E00E941F0D8A83BA
:102A0000111109C0E0911B02F0911C0211E09285A6
:102A1000981301C010E00E94410D8B83111108C072
:102A2000E0911B02F0911C02938511E08917C9F017
:102A300010E000E030E020E043E050E0BE016F5FD6
:102A40007F4F83E00E948514182F882351F00E9445
:102A50006A236093D0027093D1028093D202909344
:102A6000D302812F2396E8E00C94B02AA4E0B0E0D2
:102A7000ECE3F5E10C94982A6091CC027091CD02C0
:102A80008091CE029091CF020E94852311E064369E
:102A900071058105910518F10E9403126E5F7F4F49
:102AA0008F4F9F4F69837A838B839C8310E000E074
:102AB00030E020E044E050E0BE016F5F7F4F82E0F5
:102AC0000E948514182F882351F00E946A23609376
:102AD000CC027093CD028093CE029093CF02812FCF
:102AE0002496E4E00C94B42AB0E0A0E0EAE7F5E133
:102AF0000C94922A7C015B016A010E94421401E05D
:102B000010E0882311F00AE010E0C1E0D0E0B50148
:102B1000C701F6010995811104C021960C171D0704
:102B20002CF4CDB7DEB7EAE00C94AE2ACC9F90012E
:102B3000CD9F300D300D112490E080E045E34A95A3
:102B4000F1F70000019682179307C1F7E0CFA5E0E7
:102B5000B0E0EDEAF5E10C94922A5B01E0901B02F3
:102B6000F0901C0201E010E09E012B5F3F4F50E00F
:102B700040E070E060E080E00E948514182F882318
:102B800009F44BC067018FEFC81AD80A6091C802D8
:102B90007091C9028091CA029091CB020E94852354
:102BA000643671058105910580F104E010E09E0115
:102BB0002F5F3F4F50E040E070E060E081E00E9416
:102BC0008514F82E64E070E0C6010E942C1911E013
:102BD0009D81981310E01F2159F10E946A23609390
:102BE000C8027093C9028093CA029093CB02898174
:102BF0009A81AB81BC818093C4029093C502A0935B
:102C0000C602B093C70211E013C064E070E0C601D1
:102C10000E942C199D818913C8CFF701818192816F
:102C2000A381B48189839A83AB83BC831111DFCFE5
:102C30008091C4029091C502A091C602B091C702D2
:102C4000F50180839183A283B383812F2596EAE0E7
:102C50000C94AE2A0F931F93CF93DF93EC018B015B
:102C600047EA55E10E947415811106C080E0DF91AA
:102C7000CF911F910F91089546E355E1B801CE0120
:102C80000E947415882391F343ED54E1B801CE01FD
:102C90000E947415ECCF0F931F93CF93DF93C091D5
:102CA0001B02D0911C02CE01019624E0FB01DC0145
:102CB00001900D922A95E1F764E070E00E942C19D2
:102CC00088836D817E818F8198850091C0021091EB
:102CD000C1022091C2023091C302601771078207BE
:102CE000930751F06093C0027093C1028093C202B7
:102CF0009093C3020E94E6110A851B8589850E9474
:102D0000190D802F0E942F0D812F0E94700DDF91D1
:102D1000CF911F910F9108950E943B250E94460F6D
:102D20000E94482508950E944D250E945D0F0E9433
:102D3000672508950E94F7220E9421250E942C0FEA
:102D40000E948C160E9493160E943A0FFBCF80912E
:102D5000DA0280FF0DC06091480170E0660F771FB6
:102D60006038710570F56115710569F1862F089558
:102D700081FF07C06091480184E0689FB001112481
:102D8000EFCF6091480182FD0AC08091D90288236B
:102D9000A9F02091470160914801821710F088E066
:102DA000ECCF869FC001112433E0880F991F3A951C
:102DB000E1F7622F70E00E94702AD2CF68E070E0E5
:102DC000D5CF8FE7089581E008958091DA0280FFE2
:102DD0000CC06091440170E0759567957595679595
:102DE0006115710549F1862F089581FF06C0609134
:102DF000440170E075956795F3CF6091440182FDC1
:102E00000BC09091D8029923A1F060914301809169
:102E10004401961738F0682F70E06038710500F3B0
:102E20008FE70895899FC001112470E00E94702AE5
:102E3000F4CF61E070E0D7CF81E008958D3C31F4AC
:102E40000E94A71681958093DE0208958E3C19F4A6
:102E50000E94A716F8CF8F3C31F40E94A7168195E7
:102E60008093DD020895803D19F40E94A716F8CFE3
:102E7000893D29F40E94E5168093DF0208958A3D7A
:102E800021F40E94E5168195F7CF8B3D31F40E9425
:102E9000E51681958093E00208958C3D19F40E9417
:102EA000E516F8CF9FE2980F983070F4815D990B8A
:102EB00021E030E001C0220F8A95EAF78091DC0220
:102EC000822B8093DC0208958D3D31F48091DA02EB
:102ED00081608093DA0208958E3D21F48091DA02B8
:102EE0008260F7CF8F3DB9F78091DA028460F1CF2D
:102EF0004091DD028D3C59F48091DE0287FF0DC0C8
:102F00001092DE0241110BC01092D90208C08E3C13
:102F100081F48091DE0218169CF3442381F08091A5
:102F2000DF029091E002892B09F05AC01092D8027A
:102F300008958F3C49F447FFF0CF1092DD02809155
:102F4000DE028111ECCFE0CF803D19F41416ACF312
:102F5000E4CF9091DF02893D29F41916F4F610921E
:102F6000DF02DBCF8A3D19F497FFD7CFF8CF9091DE
:102F7000E0028B3D29F497FFD0CF1092E002CDCF35
:102F80008C3D19F41916CCF3C8CF9FE2980F9830F6
:102F900090F4815D990B21E030E0B90102C0660F29
:102FA000771F8A95E2F7CB0180959091DC02892307
:102FB0008093DC02B2CF8D3D31F48091DA028E7FB6
:102FC0008093DA02AACF8E3D21F48091DA028D7FC0
:102FD000F7CF8F3D09F0A1CF8091DA028B7FF0CF40
:102FE00008950E945E239C019091DD028091DE0293
:102FF000982B21F03093D7022093D6029091DF02D4
:103000008091E002982B21F03093D5022093D402D6
:103010008BED92E00E940222089586E0EBEDF2E053
:10302000DF011D928A95E9F71092D9021092D80219
:103030001092DA020895FC01828181110EC0838111
:1030400081110BC08481811108C091E085818111BB
:1030500001C090E0892F8170089581E0FCCFA6E047
:10306000B0E0E5E3F8E10C94992A86E0EBEDF2E0BC
:10307000DE01119601900D928A95E1F71092DD0222
:103080001092DE021092DF021092E0028B819C818E
:10309000892B89F08091D6029091D7020E947623E5
:1030A000AC019091D9029923C9F18091490184170B
:1030B000150608F440C08D819E81892B91F0809186
:1030C000D4029091D5020E947623AC019091D8024F
:1030D000992309F471C0809145018417150608F4FD
:1030E00079C0BE016F5F7F4F8BED92E00E94AF22EF
:1030F000811105C08BED92E00E941B1881110E9486
:10310000F11786E0FE013196ABEDB2E001900D9231
:103110008A95E1F72696E3E00C94B52A20914A01BE
:103120008AE0289F900111242417350720F69F5F1D
:103130009093D90202C09F3FD1F71B81112359F010
:103140000E94A7169FEF11160CF491E0899F802D25
:1031500011248093DD021C81112359F00E94A716CF
:103160009FEF11160CF491E0899F802D112480931C
:10317000DE023091DD02332309F49DCF2091DE027F
:10318000222309F498CF45EB3403C001112499237D
:1031900059F09093DD0245EB240390011124332371
:1031A00039F03093DE0287CF81E08093DD02F3CFE8
:1031B00081E08093DE027FCF209146018AE0289F44
:1031C000900111242417350708F08BCF9F5F90934F
:1031D000D80202C09F3FD1F71D81112359F00E94F0
:1031E000E5169FEF11160CF491E0899F802D1124B4
:1031F0008093DF021E81112359F00E94E5169FEF94
:1032000011160CF491E0899F802D11248093E00227
:103210003091DF02332309F464CF2091E0022223AE
:1032200009F45FCF45EB3403C0011124992359F011
:103230009093DF0245EB240390011124332339F0EE
:103240003093E0024ECF81E08093DF02F3CF81E044
:103250008093E00246CF0895FC01680F791F8FEF3D
:1032600091E36E177F0709F408952191822728E0E2
:1032700030E087FF06C0880F892721503109C9F740
:10328000F0CF880FFACFFB012581222341F097FF71
:1032900006C09F77BC0190E080E00E948A1A81E01E
:1032A00008950F931F93CF93DF93EC018B01FB01E4
:1032B00085818823B1F00E94090D8272FE01E053DE
:1032C000FC47E830F10568F4E55BF44D0C94842A82
:1032D000811104C081E003C08111FCCF8FEF0E94F7
:1032E000AA19B801CE010E944319DF91CF911F9115
:1032F0000F91089580E00E94B219F3CF81E0FBCFD7
:1033000082E0F9CF83E0F7CF84E0F5CF85E0F3CF1B
:1033100090912403923071F48A3050F490E0099631
:103320006AE070E00E94702A875A0E94DB050895C7
:103330008650FBCF0E940B1C089508950E949D1992
:1033400008958CE090E00E94EB2A809324030E9471
:103350009E1908950895609124038CE090E00E94E6
:10336000092B0895CF93C82F809324030E94AB1993
:103370008C2F0E949E19CF9108950E94F421809372
:10338000230390912403913029F481FF03C089E342
:103390000E94DB050E94090D809325030E941C0DED
:1033A0000E94320D80912403823021F158F4882349
:1033B000C1F08130D1F08FE39CE90197F1F700C0B3
:1033C00000000895843051F18530A9F78BE191E038
:1033D0000E94D30385E290E00E94D30388E290E04C
:1033E00006C082EE0E944305E6CF88E193E00E948A
:1033F000D303E1CF8091230380FD03C083E50E94C6
:10340000DB0582EE0E9443058FE39CE90197F1F70B
:1034100000C0000087E50E94DB05CDCF86EE0E944C
:10342000DB0588E1F8CF80912403823011F148F464
:10343000882381F0813091F0809125030E94190D3D
:1034400008958430F9F08530B9F788E290E00E9461
:10345000D303F2CF82EE0E949005EECF8CE20E9461
:10346000DB058091230381FFE7CF89E30E94DB0521
:10347000E3CF82EE0E9490058091230380FDDCCF94
:1034800083E5F4CF88E2F2CF8F929F92AF92BF9202
:10349000EF92FF920F931F93CF93DF934B015C0149
:1034A000D09124038CE1E82EF12C07E010E021E01C
:1034B000D501C4010E2C04C0B695A79597958795A4
:1034C0000A94D2F7C82FCF70222339F0D43051F4A8
:1034D000CA3040F080E00E9488198C2F0E94881921
:1034E00020E005C0C111F9CF04301105B4F301503B
:1034F000110984E0E81AF1080F3F1007C9F6DF91BF
:10350000CF911F910F91FF90EF90BF90AF909F9040
:103510008F900895CF92DF92EF92FF926B017C0122
:10352000C114D10481E1E806F104A0F5C114D1046D
:1035300081E0E806F10420F080912403823051F10B
:103540000E94BD19C114D10481E0E806F10438F1EC
:1035500080912403811123C081E0E81AF108C7019A
:10356000B6012AE096958795779567952A95D1F7C4
:1035700078528F4F9F4F0E94441A83E0D822EE2446
:10358000FF24C701B60174528F4F9F4F0E94441A07
:103590000E94131AFF90EF90DF90CF900895C7011B
:1035A000B601F4CFCF93DF93EC01FB018581882333
:1035B00009F4D2C09E0130572332310508F0B2C061
:1035C0000E94580E9093100380930F03FE01E15068
:1035D000F047E232F10520F4ED5AF44D0C94842AC0
:1035E00080910F03816080930F0393C0809110033B
:1035F0008860809310038DC080910F038260F3CFA9
:1036000080910F038460EFCF80910F038860EBCF30
:10361000809110038160EDCF809110038260E9CF2B
:1036200080910F038061DFCF80910F038062DBCF39
:1036300080910F038064D7CF0E94460880910F03CA
:103640008068D1CF80910F038C60CDCF8091100323
:103650008360CFCF80910F038E7FC5CF8091100301
:10366000877FC7CF80910F038D7FBDCF80910F03E0
:103670008B7FB9CF80910F03877FB5CF80911003E7
:103680008E7FB7CF809110038D7FB3CF80910F03D2
:103690008F7EA9CF80910F038F7DA5CF80910F03DF
:1036A0008F7BA1CF0E94460880910F038F779BCF1D
:1036B00080910F03837F97CF809110038C7F99CFE8
:1036C00080910F0382FB992790F921E0922790FBCC
:1036D00082F990FB83F987CF80911003982F909502
:1036E00091708E7F892B90FB81F983CF90910F038E
:1036F000892F8F7B96FF806476CF0E944608909139
:103700000F03892F97FB87F980586DCF81E00E94C6
:10371000E40E80910F03909110030E945D0E0E94B1
:10372000460880E0DF91CF91089580E0F0CF90913E
:103730000F03892F8F7E94FF806155CF90910F03E7
:10374000892F8E7F90FF81604ECF90911003892F3B
:10375000877F93FF88604DCF81E0E4CFB0E0A0E0A9
:10376000E4EBFBE10C94952AE82FF0E0E15CFC4FE0
:10377000D490282F26952695269530E0F901E15220
:10378000FC4F0491877010E0082E02C01595079534
:103790000A94E2F701701127F901E153FC4FE4901C
:1037A000F12C082E02C0F594E7940A94E2F791E018
:1037B000E922FF24F901E154FC4FC491D0E002C09A
:1037C000D595C7958A95E2F7C170DD2701151105DA
:1037D00019F081EE0E944305E114F10419F086EE20
:1037E0000E9443058D2D0E94DB05E114F10419F0C0
:1037F00086EE0E9490050115110519F081EE0E94D8
:103800009005CD2B19F08CE20E94DB05CDB7DEB719
:10381000E7E00C94B12A982F9F709A50963020F0D0
:10382000805D0E94AE1B0895895AFBCFEF92FF92F4
:103830000F931F93CF93DF938C01F62E8AE0E82E2F
:10384000F8018491882309F454C0813009F04DC0F7
:10385000E8012196FE018491813091F42196FE01C8
:1038600084910E94DB058E010F5F1F4F8F2D8150C9
:1038700038F3EFE9FFE03197F1F700C00000F7CF30
:10388000823039F4E8012296FE0184910E944305BA
:10389000EACF833039F4E8012296FE0184910E9438
:1038A0009005E1CF8430F9F6E8012296FE012491DB
:1038B00090E080E0FE0131962053330B2A30310531
:1038C00048F0019780F2EFE9FFE03197F1F700C08F
:1038D0000000F7CFE89EA001E99E500D1124C90118
:1038E000840F951F2491EF01E5CF0E94AE1BE801E4
:1038F000BACFCDB7DEB7E6E00C94B22ACF93DF9310
:10390000EB0186319C4711F50E94090D9D81992399
:1039100099F08A7A91E009F490E09093E1028111A4
:1039200009C089E20E94DE0C0E94870D80E0DF91D1
:10393000CF91089585E3F6CF8091E102811104C013
:1039400089E20E94E60CF0CF85E3FBCF81E0EFCF68
:10395000FC018581862351F492819923B9F0692372
:10396000818583FF05C081E061110FC080E008956B
:10397000892F8F7092959F70982B862F8F706295EC
:103980006F70682B81E09613F1CF089581E0FDCF31
:10399000CF93DF93EC016091EC027091ED02809186
:1039A000EE029091EF020E948523643F71408105F1
:1039B000910518F58091EC029091ED02A091EE0234
:1039C000B091EF028093E8029093E902A093EA029B
:1039D000B093EB0284EF91E0A0E0B0E08093E402CA
:1039E0009093E502A093E602B093E702D093E3023E
:1039F000C093E202DF91CF9108950E946A23609301
:103A0000E8027093E9028093EA029093EB0282E36A
:103A100090E0A0E0B0E0E2CFFF920F931F93CF932E
:103A2000DF93F82E0091F3021091F40201151105B5
:103A300009F44DC01092E3021092E2020E943E0D82
:103A40000E94380D0091F3021091F402D8011796EC
:103A5000CD91DC919E013A9521153F4108F4D07E2D
:103A6000D1E0C11101C0D0E0D8011A96ED91FC91CE
:103A70001B97309731F01C966D917C9180E00995F1
:103A8000D823DD2339F08CEF8C0F813A30F58C2F61
:103A90000E94E60CFF2099F0E091F302F091F4020D
:103AA000818584FD0CC08091F202882341F08081E1
:103AB00091819C01215031092F333E47A0F00E9493
:103AC000870D1092F4021092F3021092F202C801D4
:103AD000CDB7DEB7E5E00C94B32A0E94870D8C2F9A
:103AE0000E949005D7CF0E94C81CE9CF10924B01CD
:103AF00080E00E940C1D089580914B01882319F0ED
:103B00000E94761D089581E080934B0108950F93E4
:103B10001F938091E2029091E302892B89F16091D9
:103B2000E8027091E9028091EA029091EB020E9412
:103B300085230091E4021091E5022091E602309184
:103B4000E7026017710782079307D0F08091E202C5
:103B50009091E3020E948D031092E3021092E20220
:103B60001092E8021092E9021092EA021092EB021F
:103B70001092E4021092E5021092E6021092E7021F
:103B80001F910F910895A4E0B0E0E9ECFDE10C94E1
:103B90008A2A8C017A836983DB0115965C90552013
:103BA000B1F08E35BCE79B0759F08F35ECE79E07E7
:103BB00059F08D359C4759F40E947C1D312C0DC065
:103BC00081E080934B01FACF0E94761DF7CF3090B1
:103BD0004B01311007C033243394832D2496E2E146
:103BE0000C94A62A680120EEC21AD1080E94090D81
:103BF000F82E0E94F50C482E0E94410D482A4F28AD
:103C000038E0C316D10408F094C098012770332718
:103C100081E090E001C0880F2A95EAF7552009F469
:103C200085C0482AA981BA818D919C910E949F09E3
:103C300080900001909001018114910409F4E1C089
:103C400021E030E0F90102C0EE0FFF1F8A95E2F794
:103C5000FA83E9836090F3027090F402A090F0027E
:103C6000B090F102212CE22DF0E0EE0FFF1FE80DE5
:103C7000F91D208131813C832B832115310509F405
:103C8000C0C0411005C0D90112968C9181118BC022
:103C9000EB81FC818381948129813A818223932362
:103CA000892B09F480C08185982F977009F487E0EB
:103CB00038E0C316D10408F056C0552009F44FC0AF
:103CC00086958170882309F46EC0AB81BC81ED902C
:103CD000FC900E151F0519F4552009F464C0EB8102
:103CE000FC81E615F70509F45EC00684F785E02D32
:103CF000309721F08081882309F455C0642D8B8191
:103D00009C810E94A81C882309F44DC00E151F0534
:103D100009F08BC00115110509F48CC051108CC03D
:103D2000EA14FB0409F03FC0512C86C0809548225C
:103D300079CF552009F44EC01093F1020093F002A0
:103D40000E946A236093EC027093ED028093EE026E
:103D50009093EF021092E3021092E20263CF82FB93
:103D6000882780F9AFCF5520F1F08170ABCF0E944A
:103D7000900583C00497813A910548F4802F0E94F2
:103D8000DE0C552009F427CF0E94870D17CF0E9423
:103D9000870D8FE39CE90197F1F700C00000802FA9
:103DA0000E944305EECF23945ECFFC012081318138
:103DB0002017310731F4511007C01092F20280E051
:103DC00031C0552009F407CFDC0119968C9185FD8F
:103DD00002CFF5CF8091F0029091F1028017910708
:103DE00081F41092F1021092F0021092EC02109203
:103DF000ED021092EE021092EF021092E302109286
:103E0000E2028091F3029091F402009709F4E3CE6C
:103E1000A8E0CA16D10448F6642D0E94A81C81119E
:103E2000DACE81E00E940C1DD8CEE114F10409F035
:103E300077CF512CF12CE12C80E00E940C1DEB81FE
:103E4000FC81F093F402E093F30281E08093F202AC
:103E500086810E943B0D511010C0E114F10469F0FD
:103E6000AB81BC818D919C919C0124503109213AF8
:103E7000310508F07CCF0E94E60CEB81FC810781C4
:103E80001085C8019A9581159F4108F4107EFF2482
:103E9000F394C80101978F339E4708F0F12CAB8152
:103EA000BC811A96ED91FC911B97309731F01C96CE
:103EB0006D917C9181E00995F822FF2081F0EB81E2
:103EC000FC81878190850E9452030E94350DC801B4
:103ED000F8E0CF16D10408F04DCF0E94C81C0E9414
:103EE000870D4FCF0F931F93CF93DF93C42FD22F04
:103EF000FC0185818823C9F04093F7020E945E236C
:103F00009093F6028093F50280E28C0F883040F4A3
:103F1000C77081E001C0880FCA95EAF70E94E405E6
:103F2000DF91CF911F910F9108951091F702141313
:103F300032C08091F5029091F6020E947623883C6F
:103F4000910548F5C0E2CD0F1D17B9F080E2810F51
:103F5000883040F4177081E001C0880F1A95EAF7A5
:103F60000E94EB05C83048F481E09D2F977001C096
:103F7000880F9A95EAF70E94E405802F0E94DB05DE
:103F8000C83070F6D77081E001C0880FDA95EAF783
:103F90000E94EB05C5CF80E28C0F883008F6C77011
:103FA00081E001C0880FCA95EAF7F2CF0F93DB01D9
:103FB00088519C4787309105A0F5FC01EB58F44DE2
:103FC0000C94842A06E221EE41EE6AE17CE7CD0101
:103FD0000E94721F80E00F91089507E225EE45EEE2
:103FE0006BE17CE7F4CF06E221EE40EE68E17CE78E
:103FF000EECF07E225EE44EE69E17CE7E8CF06E28A
:1040000021EE42EE6CE17CE7E2CF07E225EE46EEE0
:104010006DE17CE7DCCF08E221E045EE6EE17CE774
:10402000D6CF15968C91882319F01092F702D3CF32
:1040300081E0D1CF8EE14A9B02C08150E1F74A9BDB
:10404000FECF08955A9880E28A95F1F75A9A08951A
:10405000FC013BE03A95F1F798E020E080E031E0A8
:1040600040E14A95F1F7880F4A9B02C081602327FF
:1040700042E04A95F1F7000040E14A95F1F791508E
:1040800079F790E19A95F1F799B132E03A95F1F725
:10409000000040E14A95F1F792FB992790F99227A9
:1040A0002081920F90830895A1E0B0E0EAE5F0E26C
:1040B0000C94962A19828C017C01E60EF11C0E15D7
:1040C0001F0541F481E09981911180E02196E6E09D
:1040D0000C94B22A0E941A20CE0101960E94282038
:1040E000F80181938F01EBCF529A5A9A0895529812
:1040F0005A9AEA9AE9E6F0E080818F7C80830895FD
:104100006150770B91E001C0990F6A95EAF720E0C2
:1041100031E0911108C0222391F05A9A80E28A95E9
:10412000F1F75A980895492F482339F05A9A2327CE
:1041300040E24A95F1F79695ECCF5A98F9CF5A9804
:10414000EDCFFF920F931F93CF93DF93EC018C0180
:10415000060F111DC017D10729F4CDB7DEB7E5E072
:104160000C94B32AF9900E94222068E08F2D0E94BF
:104170008020F0CF1F920F920FB60F9211240F9351
:104180001F932F933F934F935F936F937F938F93DF
:104190009F93AF93BF93EF93FF93CF93DF930F92D0
:1041A000CDB7DEB719820E941A20CE0101960E9477
:1041B0002820082F069506950695282F229525700C
:1041C000902F9570290F922F937026952695920F18
:1041D000982797708981982B09F05CC0053008F00A
:1041E00059C080E18A95F1F75A9A529A82E08A95ED
:1041F000F1F700C05A9888E0089F80011124D80187
:10420000AD5DBE4F1696ED91FC9117973097A9F0D2
:1042100060911B0270911C0214962D913C91159790
:10422000260F371F11968D919C911297680F791F59
:1042300013964C9113978C910995F801ED5DFE4F03
:104240006381662351F020911B0230911C0284810E
:104250009581820F931F0E94A1200E94222080E15D
:104260008A95F1F75A9852985A9A80E18A95F1F70F
:10427000F801ED5DFE4F6081662351F020911B0235
:1042800030911C0281819281820F931F0E945420E1
:104290000E941A200F90DF91CF91FF91EF91BF9173
:1042A000AF919F918F917F916F915F914F913F91CE
:1042B0002F911F910F910F900FBE0F901F90189587
:1042C0000F931F93CF93DF93EC0105970CF04CC035
:1042D000F894529A5A9885E08A95F1F700009C2F3D
:1042E000969595708C2F8570980F892F8370969571
:1042F000969523E0CC0FDD1F2A95E1F7980F8E01EC
:10430000092B0E94222000C068E0802F0E9480209C
:1043100080E18A95F1F752985A9A4A9B1EC087E02D
:1043200090E04A991CC0FE01ED5DFE4F638166235B
:10433000F9F020911B0230911C0284819581820F3B
:10434000931F0E945420811113C0529A5A9A789454
:10435000DF91CF911F910F91089500C0DECF01979B
:1043600029F4529A5A9A789480E0F2CF00C0D9CFBB
:104370000E941A2080E28A95F1F75A98529A80E1B9
:104380008A95F1F7CD5DDE4F6881662351F020916B
:104390001B0230911C0289819A81820F931F0E9417
:1043A000A1200E942220789481E0D2CF90931F0216
:1043B00080931E0208959093FE028093FD0208955B
:1043C0000E940814811103C08091F8020895E091C1
:1043D000FD02F091FE02309729F00190F081E02D6E
:1043E0000995089580E008950E94E0210895E091E4
:1043F000FD02F091FE02309721F00280F381E02D62
:1044000009950895E091FD02F091FE02309739F090
:1044100022E0DC012C930480F581E02D09950895BC
:10442000A3E0B0E0E6E1F2E20C949A2A2091FB02CC
:104430003091FC0228173907A1F09093FC02809379
:10444000FB02E091FD02F091FE02309751F023E073
:1044500029839B838A830680F781E02DCE01019614
:1044600009952396E2E00C94B62AA3E0B0E0EBE3D2
:10447000F2E20C949A2A2091F9023091FA0228175C
:104480003907A1F09093FA028093F902E091FD02BE
:10449000F091FE02309751F024E029839B838A83B8
:1044A0000680F781E02DCE01019609952396E2E082
:1044B0000C94B62A9C012E5F3F4FAC01485F5F4FC2
:1044C00080E02417350709F40895F90191919F01BF
:1044D0009923B9F38F5FF5CF662349F0FC0132963B
:1044E00008962191261729F0E817F907D1F780E0FF
:1044F000089581E008959C01FC0132969FEF80E0D1
:104500004191461751F09F3F19F4411101C0982F76
:104510008F5F8630A9F79F3F09F40895290F311D59
:1045200097FD3A95F90162830895FC013296089649
:104530002191261303C0DF0111971C92E817F90798
:10454000B9F708950E947B2208950E94952208954C
:10455000029626E0FC0111922A95E9F7089546E0BB
:1045600050E00E94D52A21E0892B09F420E0822F17
:10457000089508950E94B9220895811106C081E02E
:104580008093FF020E94BA22089582E0F9CF83E06F
:104590008093FF020E94BA2208950E94BD220895CE
:1045A00081E08093FF020E94BA2208950E94D022E7
:1045B0000895089508950E94DA22089508950895AF
:1045C0000E94D9220895CF930E94DE220E948C136C
:1045D0000E94DF22C0E08C2F0E946E12811105C064
:1045E000CF5FC830C1F7CF91089581E0FCCF85B788
:1045F000806885BF85B7806885BF08951F921FB604
:104600001F9211248F939F93AF93BF9380910003C8
:10461000811113C08091260390912703A091280354
:10462000B09129034196A11DB11D8093260390935B
:104630002703A0932803B0932903BF91AF919F91C3
:104640008F911F901FBE1F90189580912E0384306C
:1046500031F10E94B7041092000388E190E020E459
:104660000FB6F894A895809360000FBE2093600069
:1046700083B7817F846083BF83B7816083BF789471
:10468000889583B78E7F83BF0FB6F894A8958091E5
:104690006000886180936000109260000FBE0895F2
:1046A0000E9446080E94BC04089582E084BD93E005
:1046B00095BD9AEF97BD80936E0008952FB7F8943B
:1046C0008091260390912703A0912803B09129039C
:1046D0002FBF08952FB7F894609126037091270398
:1046E00080912803909129032FBF08959C014FB713
:1046F000F8948091260390912703A0912803B0910C
:1047000029034FBF821B930B0895CF92DF92EF9244
:10471000FF922FB7F894C0902603D0902703E09023
:104720002803F09029032FBFA7019601261B370B02
:10473000480B590BCA01B901FF90EF90DF90CF9061
:10474000089578941F921FB61F9211248F939F9300
:10475000AF93BF938091260390912703A0912803E4
:10476000B09129030196A11DB11D8093260390935A
:104770002703A0932803B0932903BF91AF919F9182
:104780008F911F901FBE1F90189587E797E7909312
:1047900001088093000888E19AE00FB6F894A89584
:1047A000809360000FBE90936000FFCF88E19AE095
:1047B0000FB6F894A895809360000FBE90936000A8
:1047C000FFCF8091090308959B01BA0190912E03B8
:1047D0009430E9F48F708093E9009FEF8091E800B6
:1047E000915085FD06C085ED8A95F1F70000911185
:1047F000F5CF8091E80085FF0AC050E040E0C90194
:104800000E94DE258091E8008E778093E80008956D
:1048100043E050E0BC0182E00E94E423089546E0BA
:1048200050E0BC0182E00E94E4230895CF93DF931F
:10483000EC0148E050E0BC0181E00E94E42388E004
:10484000FE01A1E0B3E001900D928A95E1F7DF91BE
:10485000CF91089580912D03811109C00E946E2788
:104860000E94CB278091E20084608093E20008954B
:1048700010922D0308950E94D022089560912A037A
:1048800081E0611101C080E00E94C72208959091EB
:104890002E0381E0943009F080E060912A030E94A9
:1048A000CD22089542E061EC81E00E94EA2642E2D6
:1048B00061EC82E00E94EA2690912E0381E0943020
:1048C00009F080E060912A030E94BD220895809142
:1048D0003003833009F461C030F48130D1F182308B
:1048E00009F49EC008958A3009F48AC08B3009F417
:1048F0006FC0893009F050C080912F03813209F0D8
:104900004BC08091330390913403029708F044C068
:104910008091E800877F8093E8008091E80082FF23
:1049200037C09091F3008091F200029731F48091AA
:10493000F100813011F0863021F48091F1008093F4
:1049400009038091E8008B778093E8000E941E277E
:1049500023C080912F03813AF9F48091E800877F8A
:104960008093E8008091330390913403892B61F4A4
:1049700068E081E093E070E00E942D268091E800DD
:104980008B778093E800089560E090E080E0F3CFBB
:1049900080912E038111C1CF089580912F03813A18
:1049A000D9F78091330390913403892BA9F7809133
:1049B000E800877F8093E8008091E80080FFFCCFCB
:1049C000809154018093F1008091E8008E77BCCFF4
:1049D00080912F03813201F780913303909134034A
:1049E000892BD1F68091E800877F8093E8000E94B0
:1049F0001E2780913103809354010E944608089538
:104A000080912F03813241F68091E800877F809367
:104A1000E8000E941E278091320380930A030895C4
:104A200080912F03813A09F0B7CF8091E800877F0A
:104A30008093E8008091E80080FFFCCF80910A031A
:104A4000C1CF84B7877F84BF0FB6F894A8958091B3
:104A50006000886180936000109260000FBE80E863
:104A600090E00FB6F89480936100909361000FBEC0
:104A70000E94D62208950E946E270E94CB27E2EE64
:104A8000F0E080818460808378940E944A2A0895AF
:104A90008CE491E00E94DB21089580912E03853003
:104AA00031F480912E03853019F00E94502308952F
:104AB0000E94252380912C03882399F30E94E322EE
:104AC000882379F30E94C8250E944608EACF0895FA
:104AD0009A0140913503509136030E947025089544
:104AE000492F55274330510519F168F441305105DC
:104AF00009F444C04230510509F445C090E080E01B
:104B000050E040E025C04132510549F142325105A3
:104B1000A9F780E490E043EF54E061157105C1F01E
:104B20008BE790E048E754E06130710589F0E6CF0B
:104B300099278130910581F0009729F00297F1F6CD
:104B4000EFEEF3E002C0E7E2F4E0849190E0AF0121
:104B5000F901518340830895E3E0F4E0F6CF89E062
:104B600090E04DE354E06115710591F389E090E028
:104B700046E554E06130710559F3C0CF82E190E021
:104B800046E654E0E5CF8BE390E04BE254E0E0CF23
:104B900080E189BD82E189BD09B400FEFDCF80912D
:104BA000D8008F7D8093D8008091E0008260809350
:104BB000E0008091E00081FDFCCF0895AF92BF92AC
:104BC000CF92DF92FF920F931F93CF93DF936C01ED
:104BD000EB018A010E943D27F82E811123C00115A7
:104BE000110539F0F80180819181C81BD90BC80EDD
:104BF000D91EB12CA12C2097A9F08091E80085FD49
:104C000022C08091E8008E778093E800011511059D
:104C1000A1F0F80180819181A80EB91EB182A08215
:104C200085E0F82E8F2DDF91CF911F910F91FF908E
:104C3000DF90CF90BF90AF9008950E943D278823CA
:104C4000D1F2F82EEFCFF60181916F018093F10040
:104C50002197FFEFAF1ABF0ACECFFC018091350339
:104C60009091360386179707A0F06115710529F416
:104C70009091E8009E779093E80090E061157105AF
:104C800051F4911108C08091E80082FF34C080E0A7
:104C90000895BC01F2CF80912E038823C1F18530A5
:104CA000C1F18091E80083FD30C08091E80082FD71
:104CB000EACF8091E80080FFE1CF8091F30020915E
:104CC000F200382F6115710519F02830310558F0C0
:104CD00091E02830310509F090E02091E8002E772E
:104CE0002093E800CBCF81918093F100615071094E
:104CF0002F5F3F4FE7CF80912E03882341F085300F
:104D000041F08091E80083FFBECF81E0089582E00A
:104D1000089583E00895FC01809135039091360356
:104D200086179707A0F06115710529F48091E800B6
:104D30008E778093E80090E06115710551F4911130
:104D400008C08091E80082FF35C080E00895BC0172
:104D5000F2CF80912E038823C9F18530C9F180916B
:104D6000E80083FD31C08091E80082FDEACF8091A8
:104D7000E80080FFE1CF8091F3002091F200382F0E
:104D80006115710519F02830310558F091E028308F
:104D9000310509F090E08091E8008E778093E8007B
:104DA000CBCF84918093F1003196615071092F5FD0
:104DB0003F4FE6CF80912E03882341F0853041F0AC
:104DC0008091E80083FFBDCF81E0089582E00895DF
:104DD00083E00895982F973028F08F708093E90032
:104DE00081E008959093E900242F762F50E09817E2
:104DF00031F07091EC002091ED005091F00021FD18
:104E000002C09F5FE8CF3091EB003E7F3093EB0014
:104E10003091ED003D7F3093ED003091EB0031603B
:104E20003093EB007093EC002093ED005093F00072
:104E30002091EE0027FDE5CF80E0089580912F03BB
:104E400087FF13C08091E80082FF06C08091E800D0
:104E50008B778093E80004C080912E038111F2CFFC
:104E6000089580912E038823D9F38091E80080FF74
:104E7000F8CF8091E8008E77ECCF2091E40030915C
:104E8000E50095E6A9012091EC00822F817020FFBA
:104E900006C08091E80080FF06C080E00895209160
:104EA000E80022FD1AC080912E03882389F0853006
:104EB00089F08091EB0085FD0FC02091E4003091D6
:104EC000E50042175307F9F29150E1F684E00895A6
:104ED00082E0089583E0089581E008950E94DD272F
:104EE0000E94E527E0EEF0E0808181608083E8EDBC
:104EF000F0E080818F77808319BCA7EDB0E08C91C2
:104F00008E7F8C9380818F7E808310922D030895F5
:104F10000F931F93CF93DF930E94DD270E94E52715
:104F2000C8EDD0E088818F77888388818068888306
:104F300088818F7D888319BC10922E0310922A03DA
:104F400010922C0310922B0300EE10E0F8018081E8
:104F50008B7F808388818160888342E060E080E08D
:104F60000E94EA26E1EEF0E080818E7F8083E2EE0F
:104F7000F0E0808181608083808188608083F80197
:104F800080818E7F8083888180618883DF91CF914B
:104F90001F910F910895E8EDF0E080818F7E80836E
:104FA000E7EDF0E080818160808384E082BF81E072
:104FB00080932D030E9488270895E8EDF0E080811A
:104FC0008E7F80831092E20008951092DA00109292
:104FD000E10008951F920F920FB60F9211242F93A4
:104FE0003F934F935F936F937F938F939F93AF9371
:104FF000BF93EF93FF938091E10082FF0BC08091FC
:10500000E20082FF07C08091E1008B7F8093E10086
:105010000E94492A8091DA0080FF19C08091D8004F
:1050200080FF15C08091DA008E7F8093DA00809136
:10503000D90080FF96C080E189BD82E189BD09B4B5
:1050400000FEFDCF81E080932E030E942A248091F0
:10505000E10080FF19C08091E20080FF15C08091BF
:10506000E2008E7F8093E2008091E2008061809375
:10507000E2008091D80080628093D80019BC85E05E
:1050800080932E030E943E248091E10084FF2BC078
:105090008091E20084FF27C080E189BD82E189BD63
:1050A00089B5982F917080FFFBCF8091D8008F7DBC
:1050B0008093D8008091E1008F7E8093E100809101
:1050C000E2008F7E8093E2008091E2008160809315
:1050D000E20080912A03882309F449C084E0809388
:1050E0002E030E9447248091E10083FF29C0809114
:1050F000E20083FF25C08091E100877F8093E1007B
:1051000082E080932E0310922A038091E1008E7F2B
:105110008093E1008091E2008E7F8093E200809195
:10512000E20080618093E20042E060E080E00E9463
:10513000EA268091F00088608093F0000E943B2472
:10514000FF91EF91BF91AF919F918F917F916F915F
:105150005F914F913F912F910F900FBE0F901F9035
:10516000189519BC10922E030E94382470CF80919C
:10517000E30087FD93E090932E03B3CF1F920F922D
:105180000FB60F9211242F933F934F935F936F931A
:105190007F938F939F93AF93BF93CF93DF93EF93BF
:1051A000FF93D091E900DF708091EC00C82FC170AF
:1051B00080FDC0E81092E9008091F000877F809325
:1051C000F00078940E9402291092E9008091F0008A
:1051D00088608093F000CD2BCF70C093E900FF91E1
:1051E000EF91DF91CF91BF91AF919F918F917F917F
:1051F0006F915F914F913F912F910F900FBE0F9044
:105200001F901895AAE2B0E0E8E0F9E20C94992A20
:105210008FE293E02091F100FC012193CF01F3E0B4
:1052200087339F07B9F70E9467248091E80083FFC6
:105230001EC180912F03909130039A3008F017C15E
:10524000E92FF0E0E458F44D0C94842A803899F06A
:10525000823809F00CC1809133038F70873008F0D9
:1052600006C18093E9008091EB0085FB882780F9D7
:105270001092E90006C080912B0390912C039111AC
:1052800082609091E800977F9093E8008093F1000E
:105290001092F1008091E8008E77E5C0882309F430
:1052A000D3C0823009F0E3C0809131038111D6C0B0
:1052B000809133038F702FEF280F263008F0D7C06E
:1052C0008093E9002091EB0020FFC8C0933031F4B7
:1052D0008091EB0080628093EB00C0C09091EB0066
:1052E00090619093EB0021E030E001C0220F8A959D
:1052F000EAF72093EA001092EA008091EB008860C0
:10530000EACF8111B4C0109131031F778091E3007F
:105310008078812B8093E3008091E800877F8093E1
:10532000E8000E941E278091E80080FFFCCF80915A
:10533000E30080688093E30082E0111183E08093B2
:105340002E0395C08058823008F091C080913103BF
:10535000909132038C3D23E09207A1F583E08A838C
:105360008AE289834FB7F894DE01139620E03EE08D
:1053700051E2E32FF0E050935700E49120FF03C087
:10538000E295EF703F5FEF708E2F90E0EA30C0F053
:10539000C7968D939D932F5F243159F74FBF80910E
:1053A000E800877F8093E8006AE270E0CE01019612
:1053B0000E942D268091E8008B778093E80057C0EB
:1053C000C096E7CF6091330370913403AE014F5F15
:1053D0005F4F0E946825BC01892B09F448C0909159
:1053E000E800977F9093E80089819A810E948B263C
:1053F000E1CF8038E1F58091E800877F8093E80075
:1054000080912A038093F10045CF811130C09091A3
:105410003103923060F58091E800877F8093E80047
:1054200090932A030E941E2780912A03882311F05B
:1054300084E005C08091E30087FDFACF81E080938E
:105440002E030E94522413C080913103813079F4DD
:1054500081E0933009F080E080932C031092E90002
:105460008091E800877F8093E8000E941E2780914A
:10547000E80083FF0AC08091E800877F8093E800FE
:105480008091EB0080628093EB00AA96E3E00C949D
:10549000B52A0895CF9380912E038823A1F0C0915F
:1054A000E900CF709091EC00892F817090FD80E829
:1054B000C82B1092E9008091E80083FD0E94022928
:1054C000CF70C093E900CF9108950E946E2710928B
:1054D0002E0308958091E300881F8827881F089570
:1054E00097FB072E16F4009407D077FD09D00E9491
:1054F000C12A07FC05D03EF4909581959F4F0895F1
:10550000709561957F4F0895EE0FFF1F0590F49100
:10551000E02D09942F923F924F925F926F927F926B
:105520008F929F92AF92BF92CF92DF92EF92FF92B3
:105530000F931F93CF93DF93CDB7DEB7CA1BDB0B5F
:105540000FB6F894DEBF0FBECDBF09942A88398804
:1055500048885F846E847D848C849B84AA84B9840B
:10556000C884DF80EE80FD800C811B81AA81B98117
:10557000CE0FD11D0FB6F894DEBF0FBECDBFED012B
:105580000895AA1BBB1B51E107C0AA1FBB1FA6178A
:10559000B70710F0A61BB70B881F991F5A95A9F7DC
:1055A00080959095BC01CD010895FB01DC0104C0FC
:1055B0008D910190801921F441505040C8F7881B0B
:1055C000990B0895FB01DC0102C001900D9241503E
:1055D0005040D8F70895F999FECF92BD81BDF89A51
:1055E000992780B50895A8E1B0E042E050E00C941E
:1055F0002F2BDC01A40FB51F4150504048F0CB01C8
:10560000840F951F2E910E940A2B41505040D0F7D5
:105610000895262FF999FECF92BD81BDF89A019782
:1056200000B4021639F01FBA20BD0FB6F894FA9AEA
:10563000F99A0FBE08950396272F0E940A2B0E9405
:10564000092B252F0E940A2B242F0C940A2B01963C
:10565000272F0E940A2B0C94092BDC01CB01FC01A3
:10566000F999FECF06C0F2BDE1BDF89A319600B4BB
:105670000D9241505040B8F70895F894FFCF31068D
:10568000310681068106E606020760066006070706
:1056900078078707870768196C197A197E198019A6
:1056A0008219841986192A1B9E1B321BFC1A001BA7
:1056B000361B041B3A1B461B101B971B141B4A1B53
:1056C000181B4E1B761B1C1B521B7D1B221B581BC1
:1056D000601B081B3E1B0C1B421B261B5C1B6C1B10
:1056E000861B951BF61A2E1BA51BF31FF91FE21F25
:1056F000ED1FFF1F05200B2026294E29372A4E2992
:0C570000372A8129A229372AF929052A15
:10570C000201990189017901690100008D0232942D
:10571C00F691F4C63390F59336973166F73435FF2E
:10572C00FFFF010000000100000000000000040168
:10573C000000000405000000000000030900000048
:10574C00000000280850011E0A140101E123162450
:10575C000F24082401F491F6943293F59033C6F794
:10576C00663197363534FFFFFF380222FFFF0022E7
:10577C001E0207000000000000373122FFFF00224C
:10578C00130207000000000000373822FFFF002240
:10579C00130207000000000000363422FFFF002235
:1057AC00130007000000000000E200E900EA00B569
:1057BC0000B600B700CD008301CC008A01920194A1
:1057CC00012102230224022502260227022A02B307
:1057DC0000B4006F0070009F01CB019F02A00281FA
:1057EC008283E200E900EA00B500B600B700CD0004
:1057FC008301CC008A01920194012102230224022C
:10580C002502260227022A02B300B4006F007000A2
:0E581C009F01CB019F02A002818283B4020093
:00000001FF
