:100000000C94D5010C94F2010C94F2010C949C1AFE
:100010000C94F2010C94F2010C94F2010C94F20194
:100020000C94F2010C94F2010C94B4210C948822EB
:100030000C94C51C0C94F2010C94F2010C94F20186
:100040000C94F2010C94F2010C94F2010C94F20164
:100050000C94F2010C94681D0C94F2010C94F201C2
:100060000C94F2010C94F2010C94F2010C94F20144
:100070000C94F2010C94F2010C94F2010C94F20134
:100080000C94F2010C94F2010C94F2010C94F20124
:100090000C94F2010C94F2010C94F2010C94F20114
:1000A0000C94F2010C94F2010C94F2010102E201B1
:1000B000016201015901015F01015E0103E20014C7
:1000C000001A0008001500170004001600070009B8
:1000D000000A001D001B280624192105002B412AB7
:1000E000220000000000001C0018000C0012003468
:1000F000000B000D000E000F003300110010313610
:1001000034373838022C4228430000000000001F1A
:100110000220021F0621022202360237022602278F
:100120000224020C040F0406040E04350400004CE3
:100130000000000000000031002E002D002E0235CE
:100140000031022F0230022F00300035022D02381C
:1001500000250225062C092C0800000000000000E4
:100160000000000000220AB00C2900AC00AE00AB79
:100170000000000000E300E200E40000000000E1F5
:1001800000000000000000A9005001417E427E4FA7
:1001900001AA005000510052004F00A80050044A2C
:1001A000004D004F04000000000000000000003A75
:1001B000003B003C003D003E003F0040004100424B
:1001C00000430044004500680069006A002C0800F4
:1001D0000000000000000000001E001F00200000C2
:1001E0000027002100220023000000000024002539
:1001F00000260000000000000000000000000000D9
:10020000000000000000002A2B2800000000000071
:100210000000000000000000000029000000002C89
:100220001E3420212224342627252E362D37382728
:100230001E1F202122232425263333362E37381F34
:100240000405060708090A0B0C0D0E0F10111213F6
:100250001415161718191A1B1C1D2F3130232D3594
:100260000405060708090A0B0C0D0E0F10111213D6
:100270001415161718191A1B1C1D2F3130354C0078
:10028000000000000000000000000000000000006E
:10029000000000000000000000000000000000005E
:1002A0000000007E0F00D4FFFFFFC700000078129F
:1002B000034B006100680062006F0061007200641F
:1002C000000000220341006E0074006F0069006EA0
:1002D0000065004B00610068006C006F00750063F2
:1002E000006800650000000403090409023B0002E5
:1002F0000100A0FA09040000010301010009211115
:1003000001000122400007058103080001090401E2
:100310000001030000000921110100012232000741
:100320000582032000011201000200000008000005
:10033000000000010102000105010980A1018503FF
:1003400019012AB700150126B70095017510810023
:10035000C0050C0901A101850419012AA00215019B
:1003600026A002950175108100C005010906A101B2
:10037000050719E029E71500250195087501810297
:100380009501750881010507190029FF150026FF51
:100390000095067508810005081901290595057560
:1003A000019102950175039101C011241FBECFEF89
:1003B000DAE0DEBFCDBF11E0A0E0B1E0E0E4FAE4B6
:1003C00002C005900D92AC3FB107D9F722E0ACEF27
:1003D000B1E001C01D92AD3FB207E1F70E949A144F
:1003E0000C94DF240C940000FB0181342EE792076B
:1003F00099F082342EE7920721F180349E4751F420
:100400008581882339F00E94F10660E08CEA90E053
:100410000E94F81581E008958581882371F080910C
:10042000FF01811106C081E08093FF0183EE0E94ED
:1004300010048BE20E941004EDCF8BE20E94540462
:10044000E9CF85818823C9F38091FE018111F1CF25
:1004500081E08093FE0180EEEACF8091FF01882346
:1004600051F082E00E948207811105C083EE0E9454
:1004700054041092FF018091FE01882351F082E024
:100480000E948207811105C080EE0E9454041092E0
:10049000FE0108958430B8F46830A8F4453098F42B
:1004A00050E095E0699F400D511D1124FA0198E23A
:1004B000899FE00DF11D1124EE0FFF1FE154FF4F46
:1004C00085919491089581E090E008950E944A02F8
:1004D00008959C013A9521153F4150F5FC01EE2706
:1004E000F170BC0166277270AC01442754709C0106
:1004F0002227387094FF0EC080E1EF2B09F480E0D2
:10050000672B09F08062452B09F08064232B89F06A
:100510008068089581E0EF2B09F480E0672B09F0F3
:100520008260452B09F08460232B19F088600895C0
:1005300080E00895CF93DF93EB010E946902FE01F2
:100540000995DF91CF910895CF93DF93EC01805E01
:100550009109089720F068ED76E0209711F46FE993
:1005600074E0CE010E949A028C2F0E941004DF9149
:10057000CF91089581E008950E94BA02089581E024
:1005800008950E94F401089508950E94C4020895F8
:10059000A6E0B0E0EEECF2E00C944F2449835A83DD
:1005A0009E833091050289819A8131111AC03E8162
:1005B000332399F0222389F00E945C08182F682FBA
:1005C00089819A810E94380869817A81812F0E94ED
:1005D000820F2696E3E00C946B240E944A08182FA1
:1005E000F3CF0E945C0869817A81F1CFFC01262F4C
:1005F0004081518162817381848195810E94C8020A
:100600000895CF93DF93EC0161E00E94F602BE01F2
:100610000E94BC02DF91CF910895CF93DF93EC014C
:1006200060E00E94F602BE010E94C502DF91CF91F8
:10063000089508950E94F1060E9419032FEF84E3A4
:100640009CE0215080409040E1F700C000000895F8
:100650000E941A030E948C1D08950E941A030E9492
:100660009D1D08950F931F93CF93DF938C0161E03D
:100670000E94F602EC01B8010E94C102811106C07D
:1006800080E0DF91CF911F910F910895B801CE01C5
:100690000E94A5178823A1F3B801CE010E94B819C2
:1006A000882371F3B801CE010E94BF14882341F35F
:1006B000B801CE010E946016882311F3F8018581EC
:1006C000882361F0C330FCE7DF07E9F058F4C11577
:1006D000ECE7DE07A9F0C130DC47B9F0C8010E94A1
:1006E000BF02CFCFCB358CE7D807A9F0CC35ECE7EC
:1006F000DE0771F0CA35DC4789F70E94C90CEECFDE
:100700000E942803BDCF0E94D10C0E942D03B8CFB8
:100710000E94BF0CE3CF0E94CD0CE0CF0E94A21C30
:100720000E94B50308950E94B9030E94A71C089572
:10073000089581E008950895CF93DF93D82F0E9404
:100740009903C82F882319F08D2F0E949B038C2FAB
:10075000DF91CF9108950895CF93C82F0E949803F9
:100760008C2F0E949C03CF91089580E00E94AC03DF
:1007700008950E94C21B0E94AC030895CF930E946B
:10078000C21BC82F809100028C1779F0C093000221
:100790000E94311D60930102709302028093030254
:1007A000909304028C2F0E94AC03CF910895ADE08A
:1007B000B0E0EDEDF3E00C945024488759876A8748
:1007C0007B878C879D8791110E94D40B1F8286E0C6
:1007D000FE013896DE01119601900D928A95E1F79F
:1007E0008D8181110DC029813A814B815C816D81A0
:1007F0007E818F810E94040B2D96E2E00C946C2484
:10080000CE0101960E9401038111EDCFF5CFFC01CD
:100810002481213021F4808191810E948E080895E5
:10082000CF93C82F8823B9F08CEF8C0F813AA8F4AE
:100830006C2F80910A0190910B010E943D1C88232E
:1008400029F08C2F0E94910B0E941C0C8C2F0E946F
:10085000890B0E941C0CCF91089580E28C0F883088
:1008600048F4C77081E001C0880FCA95EAF70E947A
:10087000B70BEFCFEBE5EC0FE33040F4F0E0E354DF
:10088000FE4F808190E00E94E11BE5CFC85ACB313A
:1008900010F7EC2FF0E0EE0FFF1FE957FE4F8081BD
:1008A00091810E94061CD7CF882339F19CEF980FC5
:1008B000913A28F40E94910B0E941C0C089590E23A
:1008C000980F983050F4877091E001C0990F8A9585
:1008D000EAF7892F0E94BD0BEFCF9BE5980F93306D
:1008E00028F490E080E00E94E11B0895885A8B3143
:1008F00020F490E080E00E94061C08951F93CF939F
:10090000DF93182FEB010E941004209739F4812FF8
:100910000E945404DF91CF911F9108958FE99FE0C9
:100920000197F1F700C000002197EFCF70E060E081
:10093000893311F460E570E00E947E0408958823F5
:1009400021F00E94B70B0E941C0C0895882321F00F
:100950000E94BD0B0E941C0C0895B0E0A0E0E3EBE8
:10096000F4E00C9449246C01D62FC72FFC011581AB
:10097000068102950F700E94AD0BE82E8823E9F0E6
:10098000E12E1123D1F08C2F807F803451F080E252
:100990008D0F8830F8F0011104C08C2F807E8032DA
:1009A000C9F08091D90282FF15C082E00E94930CA9
:1009B0000E94AD0B91E0E82EE926BC2EB2949FE098
:1009C000B922FBE0FB15B8F1EB2DF0E0EF51FB4D48
:1009D0000C943A24E12CF1CF0C2F0F70C07F11F052
:1009E0000295007F112399F0002359F080E28D0FCA
:1009F000883010F0D11107C0802F0E94B70B0E94E1
:100A00001C0C8D2F5AC0802F0E94C70BF8CF8D2F42
:100A10000E945404002379F080E28D0F883010F09A
:100A2000D11104C0802F0E94BD0B03C0802F0E94F3
:100A3000CD0B0E941C0CEB2DE850FF0B349720F4DB
:100A40000E94C21B0E94AC03EE2089F00E94A90BF9
:100A500080FD0DC0F60115820E94A30B0E9496072F
:100A6000C6010E94B5060E94A30B0E94A607CDB73F
:100A7000DEB7E9E00C9465242C2F2F70F22EC07F96
:100A8000C03219F0F29480EFF822DD2341F0D1302A
:100A9000D1F1112309F444C00023F1F0B2CF8091C9
:100AA000D90282FD15C0112359F0FF2029F08F2DA6
:100AB0000E94B70B0E941C0C80E00E941004BBCF68
:100AC00080E00E945404FF2009F4B5CF8F2DABCFF6
:100AD000112369F0011104C08F2D0E949F04ABCF38
:100AE000013009F0A8CF8F2D0E94FA0BA4CF01117D
:100AF000A2CF8F2D0E94A6048F2D0E94060C8F2D51
:100B00000E94EA0B98CF112321F0063008F093CF12
:100B1000E3CF053008F08FCF8F2D0E94A6048BCF36
:100B20000023D1F3D93349F43FEF87EE93E03150FE
:100B300080409040E1F700C000008D2F0E945404D7
:100B40007ACF8C2F86958695837069F0813009F075
:100B500072CF8D2F9C2F9370111102C080E090E016
:100B60000E94061C68CF8D2F9C2F9370111102C01C
:100B700080E090E00E94E11B5ECF8C2F8370A1F596
:100B8000111159CF4D2F429546954770440F440F90
:100B90002D2F2F7030E0042E02C0220F331F0A9435
:100BA000E2F790E080E0D4FF09C08FE090E002C05F
:100BB000880F991F4A95E2F780959095C695C6953E
:100BC000C370822B932BC23049F058F4C13019F016
:100BD0000E944A0730CF0E9441072DCF0E94530741
:100BE0002ACF0E943E0727CF8695112311F08C2F24
:100BF0008170882309F41FCF4D2F42954695477089
:100C0000440F440F2D2F2F7030E0042E02C0220F0E
:100C1000331F0A94E2F790E080E0D4FF09C08FE030
:100C200090E002C0880F991F4A95E2F78095909551
:100C3000C695C695C370822B932BC23049F058F4E9
:100C4000C13019F00E94D107F6CE0E94C807F3CE3A
:100C50000E94DA07F0CE0E946207EDCECF7011231A
:100C600029F08C2F0E9496078D2F37CF8D2F0E9451
:100C7000A6048C2F0E94A607DECED23F41F160F47D
:100C8000D03FB9F0D13F81F0112309F446C00111E2
:100C9000B8CE8C2F8F711FC0D33F01F1D43FA1F785
:100CA0008091D90282FD24C08C2F8F71112311F302
:100CB00012C0112341F0053008F0BDCE8C2F8F718A
:100CC0000E94B807B8CE063008F0B5CEF7CF8C2F0B
:100CD0008F711111CFCF0E949607ADCE112329F04D
:100CE0008C2F8F710E948A07A6CE0E946907A3CE1F
:100CF000112349F0CF718C2F0E94960763E08C2F4F
:100D00000E94750C98CE81E00E94930C023008F48A
:100D100092CE82E00E94930C8ECE002359F0D933FC
:100D200009F00BCFEFEFF7EE23E0E150F040204069
:100D3000E1F701CF8C2F8F719DCF0F931F93CF932E
:100D4000DF93EC01688179818D810E9499088C0183
:100D50000E94E3070E943D07B801CE010E94AD0446
:100D6000DF91CF911F910F910895CF93DF93EC0105
:100D70008C81882399F0CE010E943203811111C029
:100D80000E94AD0B882351F08D81882339F080912A
:100D9000D90282FF03C082E00E94930CDF91CF91C1
:100DA0000895CE010E949D06CE010E940D03F6CF4C
:100DB000882321F00E94C70B0E941C0C089590E02C
:100DC00080E00E94E11B90E080E00E94061C0E94EF
:100DD000D40B0E941C0C08950E94990B0E94DF0600
:100DE00008950E94C40B0E94EC06089592959F708E
:100DF000963091F058F4925F9F70923058F4803F93
:100E000019F030F4883E30F481E008959A5FF4CF11
:100E1000843FD1F380E00895883EB0F3813FD1F75D
:100E2000F3CFFC012481222339F0808191810E943B
:100E30008E080E94F606089580E00895A6E0B0E0CE
:100E4000E4E2F7E00C9450242696E2E00C946C2443
:100E5000A7E0B0E0EEE2F7E00C9450242796E2E041
:100E60000C946C2408950E94320708950E94330761
:100E700090931D0280931C02089508950E943607E6
:100E8000089520911C0230911D02822B932B0E9409
:100E90003607089520911C0230911D02822393236E
:100EA0000E943607089520911C0230911D0282276E
:100EB00093270E94360708950E94320708950E94E2
:100EC0005C0708950E945F0790931B0280931A02AB
:100ED000089590E080E00E9462070895009729F449
:100EE00081E0662371F080E00CC021E030E002C0B8
:100EF000220F331F6A95E2F72823392381E0232B41
:100F000091F30895682F80911A0290911B020E941C
:100F10006E07089521E030E0A90102C0440F551F7B
:100F20008A95E2F7CA010E946207089521E030E045
:100F300002C0220F331F8A95E2F780911A02909126
:100F40001B02822B932B0E946207089521E030E060
:100F500002C0220F331F8A95E2F7209530958091C9
:100F60001A0290911B02822393230E946207089524
:100F700021E030E002C0220F331F8A95E2F7809112
:100F80001A0290911B02822793270E9462070895FC
:100F900020911A0230911B02822B932B0E94620730
:100FA000089520911A0230911B02822393230E94FC
:100FB0006207089520911A0230911B02822793271D
:100FC0000E94620708950895262F277091E001C0BE
:100FD000990F2A95EAF723E0769567952A95E1F728
:100FE000660F771F660F771FFA01E60FF71F50E0B5
:100FF00040E0682F70E08191DF0111979B01042E82
:1010000002C0369527950A94E2F72170219528278A
:10101000292328272C934F5F5F4F4430510559F700
:101020000895A82FA77023E0969587952A95E1F754
:10103000880F991F880F991FFB01E80FF91F50E0D7
:1010400040E080E0219130E00A2E02C036952795DD
:101050000A94E2F721703327042E01C0220F0A946C
:10106000EAF7822B4F5F5F4F4430510559F70895DF
:10107000262F983070F4853060F4682F70E085E09A
:10108000989F600D711D112446E052E0822F0E944E
:10109000E4070895292F983068F4853058F490E0DB
:1010A00066E072E035E0239F800D911D11240E94BF
:1010B0001108089580E00895B0E0A0E0E2E6F8E0CD
:1010C0000C9449247C0100911A0210911B0280911A
:1010D0001C0290911D02082B192BCFE0D0E0CC24EC
:1010E000C394D12CBC2EC6010C2E02C0880F991FB0
:1010F0000A94E2F780239123892B49F4219790F7F2
:10110000B12C8B2DCDB7DEB7E9E00C946524B70187
:101110008C2F0E948E0F019789F3F3CFCF93DF932B
:10112000EC010E945C08BE010E948E0FDF91CF91FE
:1011300008951F93CF93DF93EB01909105029923BC
:1011400039F0CB010E948E08DF91CF911F91089555
:10115000882369F0CB010E945C08182F682FCE010C
:101160000E943808BE01812F0E948E0FEDCFCB0167
:101170000E944A08182FF6CF1F93CF93DF93C09198
:101180001E0217E080911F028C1304C0DF91CF91E3
:101190001F910895D0E01C9FF0011D9FF00D1124B8
:1011A000E05EFD4F208131814281538164817581F0
:1011B00086810E9428072196C770E4CF20915802AB
:1011C0003091590240915A0250915B0260915C0249
:1011D00070915D0280915E020E9428070895CF936E
:1011E000DF9380915E02807F09F04DC080915D02A7
:1011F000882309F448C0E0911E0250911F02C0915B
:101200005902D091580260915A0270915B0247E0F6
:101210005E17C9F18E2F90E0E49FF0011124E05E8B
:10122000FD4F2481222391F1489FF001499FF00D49
:101230001124DF01A05EBD4F11962C9111972C1344
:1012400025C02C912D1322C015962C911597211194
:101250001DC012962D913C91261B370B283C310561
:10126000A8F480915E028F70806180935E02EA5DD7
:10127000FD4F80818F708061808388E592E00E94BD
:10128000B5060E94BC08DF91CF910895FC0131960C
:10129000E770BECF482F20911E0290911F0257E0A9
:1012A000291302C080E0089530E0529FF001539F5F
:1012B000F00D1124E05EFD4F8181681306C080812E
:1012C000481303C085818111EECF2F5F3F4F2770F8
:1012D000E7CFA4E1B0E0EFE6F9E00C9446248C01FE
:1012E00086E0F801DE011F9601900D928A95E1F7E4
:1012F000D80114968C9114971596EC90159798E553
:10130000A92E92E0B92E90915C0291111FC0882302
:10131000D1F0EE20A9F0C8010E941107F82E882311
:1013200079F087E0F801D50101900D928A95E1F7F7
:10133000C5010E9407040E94EF080E94DE083DC01C
:10134000C8010E94B506FF24F39437C0F801C0809D
:10135000D18082809380F0905D0220915A0230917A
:101360005B02A401421B530BFF2009F4F6C0483C6A
:10137000510508F0A5C0882301F190915902809190
:101380005E02282F207F09F067C09D111BC090913D
:1013900058029C1117C0E11059C08F708061809372
:1013A0005E020E94DE0888E592E00E94B506809108
:1013B0005E02D80116968C93F12C8F2D6496ECE08A
:1013C0000C946224E11042C06D2D8C2D0E944A09BC
:1013D000E82E882371F088E592E00E94B50687E048
:1013E000E8E5F2E0DF011D928A95E9F70E94DE0848
:1013F000E3CFCF86D88A8F8598890E948E08292FBF
:1014000022952F70243058F49F70223088F0992351
:1014100099F0F8019681907F79F4FE2CCECF2A5F67
:101420002F70223068F0C8010E94B506EF2CF5CF6E
:10143000992311F0882389F3805E883070F3F3CF0D
:10144000803F58F3815F833070F7E7CF80915E0271
:10145000816080935E02B0CF9D1107C090915802C9
:101460009C1103C0EE2009F49CC0C8010E94110722
:10147000882309F465CFEE2009F462CF80915E02E3
:10148000803288F02091580230915902398728879C
:101490009B868A8690915C029C871D868E87CE01F2
:1014A00008960E94B50687E0F801A8E5B2E0019031
:1014B0000D928A95E1F70E94EF080E94DE0843CF63
:1014C00090915E02292F207F91F4682D9A8A898A53
:1014D000A6017A899E2D0E941E0788E592E00E944F
:1014E000B50687E0F50111928A95E9F77FCF882349
:1014F00009F463CF809159028D1111C08091580277
:101500008C110DC0E1100BC016969C93C8010E946F
:10151000B50687E0F50111928A95E9F74ECFC8012B
:101520000E941107882309F40BCFEE2009F408CF9D
:1015300080915E02803208F4B6CF2091580230913B
:1015400059023A8329839C828B8290915C029D830D
:101550001E828F83CE010196A4CF483C510508F02E
:1015600045C0882309F4EFCEFE2CEE2009F4E8CE26
:10157000809159028D112CC0809158028C1128C085
:1015800080915E0280FD1BC0982F907FC1F016965F
:101590008C931697903F39F0982F907F905F8F70C3
:1015A000892B16968C93C8010E94B50687E0F80136
:1015B000A8E5B2E001900D928A95E1F7BECE87E0F2
:1015C000F801A8E5B2E001900D928A95E1F7F5CE19
:1015D000C8010E941107811166CF80915E0281606F
:1015E00080935E02C8010E94B506E7CE682D9A8AF4
:1015F000898AA6017A899E2D0E941E0787E0F5013F
:1016000011928A95E9F799CEAEE0B0E0EAE0FBE00E
:101610000C944F24288739874A875B876C877D879E
:101620008E87CE0108960E9469098823B1F06C85E7
:10163000662341F0288539854A855B857D858E85C1
:101640000E94280717E080911E0290911F028913C3
:101650003DC02E96E3E00C946B2487E0FE013896A3
:10166000DE01119601900D928A95E1F78C85882311
:1016700049F320911F0230E0C90101968770992734
:1016800040911E024817190699F097E0929FD001E9
:10169000939FB00D1124A05EBD4FFE0131960190C5
:1016A0000D929A95E1F780931F020E94BC08CACF61
:1016B0000E94F10610921F0210921E0287E0E8E5D8
:1016C000F2E0DF011D928A95E9F7BCCF819FC0014E
:1016D0001124805E9D4F0E946909882309F4B9CFC7
:1016E000E0911E021E9FF0011124E05EFD4F20815B
:1016F0003181428153816481758186810E942807EE
:1017000080911E0290E001968770992780931E02B7
:101710009ACF682F80910A0190910B010E94731C4F
:101720000895682F80910A0190910B010E94761C08
:10173000089580910A0190910B010E94791C0895EF
:1017400080916802089580916702869586958695B6
:10175000089580916702877008959091670297704D
:1017600081E009F480E008958091750208959091D8
:101770007502892B8093750208958095909175026A
:101780009823909375020895109275020895909190
:101790007402892B8093740208958095909174024D
:1017A0009823909374020895109274020895809380
:1017B000730208951092730208958093720208953F
:1017C00010927202089580916902089508950E940E
:1017D000E60B089590916802292F282331F0809517
:1017E0008923809368020E94E70B089508950E9460
:1017F000F60B089590916902292F2823281729F0C4
:10180000982B909369020E94F70B089590916902BA
:10181000292F282331F080958923809369020E9423
:10182000F70B089580916902882329F010926902CC
:1018300080E00E94F70B0895CF93DF93E0910A01B7
:10184000F0910B01809175028083E0910A01F09183
:101850000B01808190917402892B808390916902A1
:10186000992381F0E0910A01F0910B018081892B8D
:10187000808380910A0190910B010E942B1C8111A1
:101880000E94120CE0910A01F0910B01809172020A
:10189000982F9095808189238083E0910A01F091AF
:1018A0000B01808190917302892B8083C0910A0182
:1018B000D0910B0148E050E06FE572E0CE010E944C
:1018C0007724892B59F088E0FE01AFE5B2E0019062
:1018D0000D928A95E1F7CE010E94D61BDF91CF9140
:1018E000089508950E94710C08959091D90292FF75
:1018F00011C098E0899F90011124622B60936702C8
:101900000E949607809167028695869586950E942B
:10191000720C08950E94960708951092670280E065
:101920000E94720C0895909167028095892380939C
:101930006702282F277069F4891759F09091D9020E
:1019400092FF07C08695869586950E94A6070E94FD
:101950008D0C08959091D90292FB222720F9281727
:1019600069F080FB92F99093D9028091D80290910E
:10197000D9020E94F20C82E00E94930C089580919B
:10198000D90282FB882780F991E089270E94AA0C5E
:10199000089581E00E94AA0C089580E00E94AA0C9C
:1019A00008956FEF7FEF90E080E00E94C9240895D2
:1019B00090E080E00E94952421E0863E9E4F09F051
:1019C00020E0822F089582E090E00E948D24089507
:1019D00083E090E00E948D24089584E090E00E94CE
:1019E00095240895BC0184E090E00E94C9240895E4
:1019F000AB01BC018FE090E00E94BD240895AB01D3
:101A0000BC0183E190E00E94BD24089560E070E095
:101A1000CB010E94FF0C089560E070E0CB010E94B2
:101A2000F80C0E94060D0895A8E0B0E0EAE1FDE0A0
:101A30000C94502466EE7EEF90E080E00E94C92472
:101A400060E082E090E00E94AB2460E083E090E000
:101A50000E94AB2410921D0210921C0260E074E1FF
:101A600084E090E00E94C92460E086E090E00E945B
:101A7000AB246FEF87E090E00E94AB2440E050E0A1
:101A8000BA0188E090E00E94BD2460E084E290E02A
:101A90000E94AB2460E087E190E00E94AB2460E00C
:101AA0008CE090E00E94AB2460E08DE090E00E942A
:101AB000AB2419821A821B821C821D821E821F8205
:101AC000188648E050E068E170E0CE0101960E947F
:101AD0009B2440E050E0BA0180E290E00E94BD24E7
:101AE0000E940C0D2896E2E00C946C240E94140DC8
:101AF00008958EE090E00E948D2491E0811101C054
:101B000090E0892F0895682F8EE090E00E94AB242A
:101B10000895A6E0B0E0EFE8FDE00C944E240E94AA
:101B2000251D8C0180917602909177028017910794
:101B300081F019821A820E94251D682F49815A81DD
:101B4000792F80E090E00E94D703109377020093F2
:101B500076022696E4E00C946A240E949E1060931C
:101B6000840270938502809386029093870260932B
:101B70008002709381028093820290938302089581
:101B8000089508950E94C10D089508950E94C50DFD
:101B9000089581E0089588EB90E10E94B81B0E94AF
:101BA000C00D0E94C20D08950E947D1208950895EF
:101BB00008950E94D70D0E94D80D08950E94BB1071
:101BC0000E94AB0308950E941C1D0E9478100E9481
:101BD000A3120E94AA110E94DE0D0E94A7140E9467
:101BE000B3120E94C60D08950E947D1281110E94B9
:101BF00069170895A6E0B0E0E0E0FEE00C94472409
:101C00000E94C90D81110AC00E94890D0E94F40D25
:101C10000E94BE032696EBE00C9463240E94FE1102
:101C200088E7A82E82E0B82E750110E0F701019137
:101C30007F01812F0E94E0101F5F183009F441C01E
:101C40000817A1F38091880281FD0E94E6100E948E
:101C5000D40DC82E10E099249394812F0E94E01097
:101C6000082FF50181915F01081729F1D02ED826A0
:101C7000F12CEE24E3948D2D8E21A9F0CC2099F047
:101C8000F9821A830E94251D9C838B839D8291E09B
:101C9000802F8E2109F490E049815A816B817C81EB
:101CA0008D810E94D703F394EE0CF5E0FF12E3CF91
:101CB000F501319700831F5F183079F60E94AD0D52
:101CC000A5CF0813BFCFA0CF1F93CF93DF930E9460
:101CD000930FEC01C11580E5D807F0F5C11580E43C
:101CE000D80708F09CC0C03ED10520F5CD3CD105F9
:101CF00008F082C0C83AD10578F4C53AD10508F099
:101D000073C0C130D10519F1209709F1C430D10554
:101D1000F0F4D0E0C0E01BC0C33CD105D0F7C85AF6
:101D2000D0E0CC0FDD1FC054DE4F0990D881C02D0C
:101D3000D4640DC0C11580E2D80708F0D1C0C11528
:101D400081E0D80708F05AC0C83ED10510F7CE018F
:101D5000DF91CF911F910895C03682E5D80718F51D
:101D6000C03482E5D80708F06BC0C03282E5D807DE
:101D700008F05FC0C11582E5D80708F497C02C2F82
:101D80002695269580E2289F900111248C2F837040
:101D9000C1E0D0E002C0CC0FDD1F8A95E2F7C22B74
:101DA000D32BDD68D4CFC03A82E5D80760F4C038C1
:101DB00082E5D80708F459C0CF71D0E0DC2FCC27DA
:101DC000C46FD06AC4CFC03C82E5D80708F462C0B3
:101DD000C03E82E5D80708F09CCFDC2FCC27CC276B
:101DE000DF71C06FD06AB3CFC55AD0E0CA50DE4FA2
:101DF000C881D0E0D064ABCFD065A9CF8D2F0E9431
:101E00003510182FCE0199270E94930FC12FD0E0D3
:101E1000DC2FCC27CC27DF71C82BD92B98CFCE0154
:101E200099270E94930FCC27DF70C82BD92BD06A3B
:101E30008ECFCF71D0E0DC2FCC27C16FD06A87CF97
:101E40002C2F26952695277080E2289F900111243B
:101E50008C2F8370C1E0D0E002C0CC0FDD1F8A95CB
:101E6000E2F7C22BD32BDC6872CF2C2F2695269558
:101E7000277080E2289F900111248C2F8370C1E08D
:101E8000D0E002C0CC0FDD1F8A95E2F7C22BD32B26
:101E9000DA685DCF8C2F8F710E943510C82FD0E08B
:101EA000DC2FCC27CC27DF71D06251CF8C2F8F71E4
:101EB0000E94351055E0D695C7955A95E1F7CF7039
:101EC000D0E0DC2FCC27282F30E084FF05C044E091
:101ED000220F331F4A95E1F7C22BD32BD06937CF9E
:101EE0008D2F8F710E943510182FCE0199270E94D7
:101EF000930FC12FD0E0DC2FCC27CC27DF71C82B6C
:101F0000D92BD2CF462F783030F4653020F4672FAC
:101F10000E946602089590E080E008950E94820F7A
:101F20000E94640E089582389105B9F1B0F48133AE
:101F3000910509F47DC048F48932910509F46DC01A
:101F40008A32910509F47BC008958533910509F41F
:101F50005FC08933910509F10895833E9105D9F158
:101F600038F4803E910529F1823E910579F108957A
:101F7000863E9105D9F1873E910509F43EC0843E25
:101F8000910541F52091D90221FF24C08091D8020A
:101F900084FD19C087EE90E008952091D802237047
:101FA00009F05AC02091D90223FF14C089E290E0C1
:101FB00008952091D80220FD38C03091D90230FF19
:101FC00009C024FF43C090E080E008952091D8022A
:101FD00022FDF7CF08952091D80222FD3AC030911A
:101FE000D90230FD39C024FFF5CFEDCF2091D802C2
:101FF00023FFF0CF24FDE7CFCDCF2091D80223FDE2
:102000002EC03091D90231FFEECF84EE90E00895DA
:102010002091D80225FFDECFC9CF2091D80225FD1F
:1020200021C02091D90223FFD5CF89E390E0D2CF00
:102030002091D80226FFCECF8AE290E00895209129
:10204000D80226FFC7CF81E390E0089583EE90E0A9
:10205000089582EE90E0089580EE90E0089586EE77
:1020600090E0089585E390E008959091D80292FF62
:1020700006C0282F28712830F9F4877F846093FFE9
:1020800006C0282F28712831F1F4877E84612091C1
:10209000D90220FF06C0382F38713830D9F4877F35
:1020A000816021FF06C0282F28712831D1F4877E56
:1020B000816194FD877E0895282F24712430F9F6DC
:1020C0008B7F8860DCCF282F2471243101F78B7E31
:1020D0008861DDCF382F3171313019F78E7F8860FC
:1020E000E0CF282F2171213121F78E7E8861E1CF49
:1020F0001092D4021092D5021092D6021092D702FA
:102100000895CF92DF92EF92FF926B017C010E94C3
:102110007D1281110EC00E94311DC61AD70AE80A2D
:10212000F90AC092D402D092D502E092D602F0927F
:10213000D702FF90EF90DF90CF9008950F931F93F9
:102140000E947D12882329F00E94311D1F910F915A
:1021500008950E94311D0091D4021091D502209162
:10216000D6023091D702600F711F821F931FEECFEE
:1021700080E0089508950E94D80C811102C00E9449
:10218000760D0E94E30C809388020E94ED0C9093E0
:10219000D9028093D8020E94BA100E94E80C90E005
:1021A0000E943E0780911A0290911B020E945F07D5
:1021B000089508950E94D91008950E942D0208954F
:1021C000E82FF0E0ED51FD4F8081089508950895C6
:1021D0000E94E7100895EF92FF921F93CF93DF9331
:1021E00000D000D0CDB7DEB70E947D12182F6091CD
:1021F000EB02882309F447C019821A821B821C82D1
:10220000862F90E09E012F5F3F4F7901B9018D51DC
:102210009D4F0E94C1128823E9F08091DA0290E07C
:1022200044E050E0B7018D519D4F0E94772421E09A
:1022300020938902892BC9F410E00E94DD10812FC0
:102240000F900F900F900F90DF91CF911F91FF9003
:10225000EF90089580918902882371F384E0F7015B
:1022600011928A95E9F710928902E091DA02F0E082
:10227000ED51FD4F89819A81AB81BC81808391832F
:10228000A283B383DACF70E06D517D4F8091DA0283
:1022900090E08D519D4F0E9448130E94E810CFCFCF
:1022A0001F93CF93DF932CE031E0C1E0D0E0D90160
:1022B00050E040E08D918F3F91F0E82FE295EF7074
:1022C000F0E011A18F70BE0101C0660F8A95EAF798
:1022D000962F9095912391A382A1862B82A34F5F85
:1022E0005F4F4530510531F72B5F3F4F81E0203282
:1022F0003807E9F6DF91CF911F910895CF93DF93CF
:10230000AC01A62FB0E085E0689FF0011124E45FE6
:10231000FE4F75E081E060E091919F3FC9F0C92FC9
:10232000C295CF70D0E028A130E09F7002C03595F3
:1023300027959A95E2F720FD0BC0282F622B880F76
:10234000715051F7A40FB51F6C93DF91CF91089591
:1023500020E0F4CFA4E1B0E0E0EBF1E10C945024F4
:1023600080912001811126C084E1E3E4F1E0DE01E7
:10237000119601900D928A95E1F7FE013196ACE03D
:10238000B1E0CE01459620812C93218111962C93AA
:102390001197228112962C931297238113962C93D6
:1023A0001397248114962C931497359615968E17AF
:1023B0009F0749F78091200194E0811190E090936C
:1023C000EB0284E0891B8093DA020E94501188E0BE
:1023D000E3EEF2E0DF01982F1D929A95E9F7EBED1D
:1023E000F2E0DF011D928A95E9F784E00E943C1239
:1023F0000E94DA106496E2E00C946C24A8E0B0E04D
:10240000E4E0F2E10C944D248E010F5F1F4F88E051
:10241000F80111928A95E9F7F12C6F2DC8010E94FD
:102420007E11F394F4E0FF12F8CF48E050E0B801D9
:102430008BED92E00E94772421E0009709F420E0E0
:10244000892B41F088E0F801ABEDB2E001900D92EC
:102450008A95E1F76091EB0270E06D517D4F44E0A9
:102460008BED92E00E943D12182F0E94EB10812B01
:102470002896E5E00C9469240895CF92DF92EF92BC
:10248000FF920F931F93CF936C017B01042F2223A4
:1024900049F081E080938C020E94251D90938B026D
:1024A00080938A02C0918C02C1110AC0C0E08C2FB7
:1024B000CF911F910F91FF90EF90DF90CF900895F3
:1024C00080918A0290918B020E943D1D059770F3C6
:1024D00010E0A801B601C7010E947724892B41F0C2
:1024E000A801B601C7010E94842410928C02DFCF9C
:1024F000C0E0FBCF0E94790D0895CF93DF938091C8
:102500008F02811117C0C8ECD0E00E9434248111E1
:102510000EC08FE39CE90197F1F700C000002197FE
:10252000A1F782E080938F020E942F2403C081E0F4
:1025300080938F0281E090918F02913009F080E0CA
:10254000DF91CF9108950E94D80C811102C00E94A2
:10255000760D0E947A12809320010E947D128111D3
:102560000E94F71208950E947D12811102C00E94FC
:10257000FA12089581E0909190029A3008F080E07C
:1025800008950F931F93CF93DF93EC018B018091FC
:1025900090028A30B8F4B801CE010E944513C82FCA
:1025A000811122C0809190028F3FB9F40E94251DB5
:1025B00090938E0280938D028C2FDF91CF911F918B
:1025C0000F91089580918D0290918E020E943D1D81
:1025D000843F914000F7C0E0EFCF8F5F809390027F
:1025E0008A3020F7C1E0E8CF10929002E5CF0E9438
:1025F000561A08950E94591A0895B0E0A0E0E3E049
:10260000F3E10C944B247901C82F880FDD0B4115A1
:102610005105A9F0FE0193E0EE0FFF1F9A95E1F737
:10262000EF5DFE4F818192818F569D4F208130E07A
:102630004217530708F49A01A9010E948424CE018D
:102640000E94421BD82E8823D1F001151105B9F044
:1026500083E0CC0FDD1F8A95E1F7FE01EF5DFE4FB1
:10266000438150E00417150708F4A801CF5DDE4F41
:102670006C817D816F567D4FC7010E9484248D2D12
:10268000CDB7DEB7E7E00C9467240E943F140895AD
:102690000E9456140895A4E0B0E0E1E5F3E10C9443
:1026A0004E246091A6027091A7028091A802909199
:1026B000A9020E944C1D11E0643671058105910547
:1026C00018F10E949E106E5F7F4F8F4F9F4F69835E
:1026D0007A838B839C8310E000E030E020E044E0CC
:1026E00050E0BE016F5F7F4F82E00E94FD12182F05
:1026F000882351F00E94311D6093A6027093A702B7
:102700008093A8029093A902812F2496E4E00C9470
:102710006A24B0E0A0E0EFE8F3E10C9448247C01E7
:102720005B016A010E94BA1201E010E0882311F0F7
:102730000AE010E0C1E0D0E0B501C701F60109955B
:10274000811104C021960C171D072CF4CDB7DEB7FC
:10275000EAE00C946424CC9F9001CD9F300D300DA5
:10276000112490E080E045E34A95F1F700000196DE
:1027700082179307C1F7E0CFA5E0B0E0E2ECF3E108
:102780000C9448245B01E090F901F090FA0101E01B
:1027900010E09E012B5F3F4F50E040E070E060E0B2
:1027A00080E00E94FD12182F882309F44BC06701B6
:1027B0008FEFC81AD80A6091A2027091A30280918B
:1027C000A4029091A5020E944C1D643671058105FA
:1027D000910580F104E010E09E012F5F3F4F50E033
:1027E00040E070E060E081E00E94FD12F82E64E0BD
:1027F00070E0C6010E94A81411E09D81981310E0BA
:102800001F2159F10E94311D6093A2027093A3020F
:102810008093A4029093A50289819A81AB81BC81A7
:1028200080939E0290939F02A093A002B093A10276
:1028300011E013C064E070E0C6010E94A8149D81FD
:102840008913C8CFF70181819281A381B4818983E3
:102850009A83AB83BC831111DFCF80919E0290914C
:102860009F02A091A002B091A102F5018083918303
:10287000A283B383812F2596EAE00C9464240F93FE
:102880001F93CF93DF93EC018B014CEB53E10E943C
:102890008913882331F04BE453E1B801CE010E9443
:1028A0008913DF91CF911F910F9108950F931F937B
:1028B000CF93DF93C091F901D091FA01CE01019637
:1028C00024E0FB01DC0101900D922A95E1F764E020
:1028D00070E00E94A81488836D817E818F81988525
:1028E00000919A0210919B0220919C0230919D02CE
:1028F000601771078207930751F060939A027093F3
:102900009B0280939C0290939D020E948110DF9114
:10291000CF911F910F9108950E94FC1E0E94E30D1C
:102920000E94091F08950E940E1F0E94FA0D0E9426
:10293000311F08950E94BE1C0E94E21E0E94CB0D12
:102940000E948C140E9493140E94D90DFBCF08950D
:10295000FC01680F791F8FEF91E36E177F0709F471
:1029600008952191822728E030E087FF06C0880F74
:10297000892721503109C9F7F0CF880FFACFCF93BB
:10298000DF93EC01FB018581882309F4D2C09E010D
:1029900030572332310508F0B2C00E94ED0C9093FD
:1029A000D9028093D802FE01E150F047E232F105EE
:1029B00020F4E351FB4D0C943A248091D8028160BD
:1029C0008093D80293C08091D90288608093D90205
:1029D0008DC08091D8028260F3CF8091D80284604C
:1029E000EFCF8091D8028860EBCF8091D9028160CF
:1029F000EDCF8091D9028260E9CF8091D8028061C9
:102A0000DFCF8091D8028062DBCF8091D8028064D2
:102A1000D7CF0E94F1068091D8028068D1CF8091F3
:102A2000D8028C60CDCF8091D9028360CFCF8091C6
:102A3000D8028E7FC5CF8091D902877FC7CF809182
:102A4000D8028D7FBDCF8091D8028B7FB9CF809186
:102A5000D802877FB5CF8091D9028E7FB7CF809182
:102A6000D9028D7FB3CF8091D8028F7EA9CF80917C
:102A7000D8028F7DA5CF8091D8028F7BA1CF0E94F5
:102A8000F1068091D8028F779BCF8091D802837F07
:102A900097CF8091D9028C7F99CF8091D80282FB09
:102AA000992790F921E0922790FB82F990FB83F916
:102AB00087CF8091D902982F909591708E7F892B26
:102AC00090FB81F983CF9091D802892F8F7B96FF5D
:102AD000806476CF0E94F1069091D802892F97FBEF
:102AE00087F980586DCF81E00E94830D8091D802D4
:102AF0009091D9020E94F20C0E94F10680E0DF91D1
:102B0000CF91089580E0F0CF9091D802892F8F7EE9
:102B100094FF806155CF9091D802892F8E7F90FFCE
:102B200081604ECF9091D902892F877F93FF886073
:102B30004DCF81E0E4CFB0E0A0E0E1EAF5E10C9414
:102B40004B24E82FF0E0E150FE4FD490282F26953B
:102B50002695269530E0F901E156FD4F04918770E6
:102B600010E0082E02C0159507950A94E2F701704F
:102B70001127F901E157FD4FE490F12C082E02C016
:102B8000F594E7940A94E2F791E0E922FF24F90131
:102B9000E158FD4FC491D0E002C0D595C7958A9504
:102BA000E2F7C170DD270115110519F081EE0E94D1
:102BB0001004E114F10419F086EE0E9410048D2D2A
:102BC0000E949604E114F10419F086EE0E94540468
:102BD0000115110519F081EE0E945404CD2B19F056
:102BE0008CE20E949604CDB7DEB7E7E00C94672430
:102BF000EF92FF920F931F93CF93DF938C01F62EEA
:102C00008AE0E82EF8018491882309F454C08130C9
:102C100009F04DC0E8012196FE018491813091F4C4
:102C20002196FE0184910E9496048E010F5F1F4F32
:102C30008F2D815038F3EFE9FFE03197F1F700C0B5
:102C40000000F7CF823039F4E8012296FE0184912A
:102C50000E941004EACF833039F4E8012296FE0185
:102C600084910E945404E1CF8430F9F6E801229661
:102C7000FE01249190E080E0FE0131962053330B59
:102C80002A30310548F0019780F2EFE9FFE03197F3
:102C9000F1F700C00000F7CFE89EA001E99E500DBB
:102CA0001124C901840F951F2491EF01E5CF0E94E3
:102CB0009B15E801BACFCDB7DEB7E6E00C946824E7
:102CC000CF93DF93EB0186319C4711F50E94B40B43
:102CD0009D81992399F08A7A91E009F490E090938C
:102CE000AA02811109C089E20E94890B0E941C0C72
:102CF00080E0DF91CF91089585E3F6CF8091AA021D
:102D0000811104C089E20E94910BF0CF85E3FBCFD3
:102D100081E0EFCFFC018581862351F492819923D4
:102D2000B9F06923818583FF05C081E061110FC07F
:102D300080E00895892F8F7092959F70982B862F31
:102D40008F7062956F70682B81E09613F1CF0895B4
:102D500081E0FDCFCF93DF93EC016091B5027091DC
:102D6000B6028091B7029091B8020E944C1D643F58
:102D700071408105910518F58091B5029091B602D8
:102D8000A091B702B091B8028093B1029093B202C1
:102D9000A093B302B093B40284EF91E0A0E0B0E05E
:102DA0008093AD029093AE02A093AF02B093B002B5
:102DB000D093AC02C093AB02DF91CF9108950E94F3
:102DC000311D6093B1027093B2028093B30290936D
:102DD000B40282E390E0A0E0B0E0E2CFFF920F9374
:102DE0001F93CF93DF93F82E0091BC021091BD0288
:102DF0000115110509F44DC01092AC021092AB02FE
:102E00000E94E00B0E94DA0B0091BC021091BD02FF
:102E1000D8011796CD91DC919E013A9521153F413D
:102E200008F4D07ED1E0C11101C0D0E0D8011A96DB
:102E3000ED91FC911B97309731F01C966D917C9130
:102E400080E00995D823DD2339F08CEF8C0F813A8F
:102E500030F58C2F0E94910BFF2099F0E091BC027D
:102E6000F091BD02818584FD0CC08091BB02882356
:102E700041F0808191819C01215031092F333E47DF
:102E8000A0F00E941C0C1092BD021092BC02109285
:102E9000BB02C801CDB7DEB7E5E00C9469240E94FF
:102EA0001C0C8C2F0E945404D7CF0E94AA16E9CF85
:102EB0001092390180E00E94EE1608958091390148
:102EC000882319F00E945817089581E080933901F2
:102ED00008950F931F938091AB029091AC02892BC0
:102EE00089F16091B1027091B2028091B302909128
:102EF000B4020E944C1D0091AD021091AE022091CF
:102F0000AF023091B0026017710782079307D0F0CB
:102F10008091AB029091AC020E94A4021092AC028C
:102F20001092AB021092B1021092B2021092B30250
:102F30001092B4021092AD021092AE021092AF0243
:102F40001092B0021F910F910895A4E0B0E0EBEA57
:102F5000F7E10C9440248C017A836983DB01159698
:102F60005C905520B1F08E35BCE79B0759F08F354A
:102F7000ECE79E0759F08D359C4759F40E945E1787
:102F8000312C0DC081E080933901FACF0E9458178F
:102F9000F7CF30903901311007C033243394832D9B
:102FA0002496E2E10C945C24680120EEC21AD10858
:102FB0000E94B40BF82E0E94A00B482E0E94E30B37
:102FC000482A4F2838E0C316D10408F094C098016D
:102FD0002770332781E090E001C0880F2A95EAF737
:102FE000552009F485C0482AA981BA818D919C9108
:102FF0000E944A0880900001909001018114910480
:1030000009F4E1C021E030E0F90102C0EE0FFF1F3A
:103010008A95E2F7FA83E9836090BC027090BD0262
:10302000A090B902B090BA02212CE22DF0E0EE0F90
:10303000FF1FE80DF91D208131813C832B83211571
:10304000310509F4C0C0411005C0D90112968C9118
:1030500081118BC0EB81FC818381948129813A812C
:1030600082239323892B09F480C08185982F977040
:1030700009F487E038E0C316D10408F056C05520A3
:1030800009F44FC086958170882309F46EC0AB8126
:10309000BC81ED90FC900E151F0519F4552009F424
:1030A00064C0EB81FC81E615F70509F45EC0068477
:1030B000F785E02D309721F08081882309F455C0F1
:1030C000642D8B819C810E948A16882309F44DC04F
:1030D0000E151F0509F08BC00115110509F48CC0F0
:1030E00051108CC0EA14FB0409F03FC0512C86C07B
:1030F0008095482279CF552009F44EC01093BA022A
:103100000093B9020E94311D6093B5027093B6021C
:103110008093B7029093B8021092AC021092AB0267
:1031200063CF82FB882780F9AFCF5520F1F0817003
:10313000ABCF0E94540483C00497813A910548F4B0
:10314000802F0E94890B552009F427CF0E941C0C68
:1031500017CF0E941C0C8FE39CE90197F1F700C088
:103160000000802F0E941004EECF23945ECFFC015C
:10317000208131812017310731F4511007C010929E
:10318000BB0280E031C0552009F407CFDC0119965D
:103190008C9185FD02CFF5CF8091B9029091BA0252
:1031A0008017910781F41092BA021092B90210921E
:1031B000B5021092B6021092B7021092B8021092A5
:1031C000AC021092AB028091BC029091BD020097BC
:1031D00009F4E3CEA8E0CA16D10448F6642D0E9493
:1031E0008A168111DACE81E00E94EE16D8CEE11463
:1031F000F10409F077CF512CF12CE12C80E00E94F2
:10320000EE16EB81FC81F093BD02E093BC0281E0FD
:103210008093BB0286810E94DD0B511010C0E11427
:10322000F10469F0AB81BC818D919C919C0124508B
:103230003109213A310508F07CCF0E94910BEB81D6
:10324000FC8107811085C8019A9581159F4108F47A
:10325000107EFF24F394C80101978F339E4708F036
:10326000F12CAB81BC811A96ED91FC911B973097A4
:1032700031F01C966D917C9181E00995F822FF2038
:1032800081F0EB81FC81878190850E9469020E9418
:10329000D70BC801F8E0CF16D10408F04DCF0E943B
:1032A000AA160E941C0C4FCF0F931F93CF93DF934E
:1032B000C42FD22FFC0185818823C9F04093C0021E
:1032C0000E94251D9093BF028093BE0280E28C0F66
:1032D000883040F4C77081E001C0880FCA95EAF7D2
:1032E0000E949F04DF91CF911F910F91089510913B
:1032F000C002141332C08091BE029091BF020E949E
:103300003D1D883C910548F5C0E2CD0F1D17B9F071
:1033100080E2810F883040F4177081E001C0880F8F
:103320001A95EAF70E94A604C83048F481E09D2F60
:10333000977001C0880F9A95EAF70E949F04802F2A
:103340000E949604C83070F6D77081E001C0880FE3
:10335000DA95EAF70E94A604C5CF80E28C0F883088
:1033600008F6C77081E001C0880FCA95EAF7F2CF6E
:103370000F93DB0188519C4787309105A0F5FC0134
:10338000E15FFA4D0C943A2406E221EE41EE6AE147
:103390007CE7CD010E94541980E00F91089507E267
:1033A00025EE45EE6BE17CE7F4CF06E221EE40EE40
:1033B00068E17CE7EECF07E225EE44EE69E17CE7C9
:1033C000E8CF06E221EE42EE6CE17CE7E2CF07E2D5
:1033D00025EE46EE6DE17CE7DCCF08E221E045EE2C
:1033E0006EE17CE7D6CF15968C91882319F0109268
:1033F000C002D3CF81E0D1CF8EE14A9B02C0815081
:10340000E1F74A9BFECF08955A9880E28A95F1F73A
:103410005A9A0895FC013BE03A95F1F798E020E0D4
:1034200080E031E040E14A95F1F7880F4A9B02C005
:103430008160232742E04A95F1F7000040E14A9578
:10344000F1F7915079F790E19A95F1F799B132E05F
:103450003A95F1F7000040E14A95F1F792FB992780
:1034600090F992272081920F90830895A1E0B0E017
:10347000ECE3FAE10C944C2419828C017C01E60EF9
:10348000F11C0E151F0541F481E09981911180E036
:103490002196E6E00C9468240E94FC19CE01019666
:1034A0000E940A1AF80181938F01EBCF529A5A9A1F
:1034B000089552985A9AEA9AE9E6F0E080818F7C62
:1034C000808308956150770B91E001C0990F6A9550
:1034D000EAF720E031E0911108C0222391F05A9AD6
:1034E00080E28A95F1F75A980895492F482339F0D8
:1034F0005A9A232740E24A95F1F79695ECCF5A98CD
:10350000F9CF5A98EDCFFF920F931F93CF93DF938C
:10351000EC018C01060F111DC017D10729F4CDB79E
:10352000DEB7E5E00C946924F9900E94041A68E083
:103530008F2D0E94621AF0CF1F920F920FB60F923A
:1035400011240F931F932F933F934F935F936F9388
:103550007F938F939F93AF93BF93EF93FF93CF93FB
:10356000DF930F92CDB7DEB719820E94FC19CE010E
:1035700001960E940A1A082F069506950695282F8F
:1035800022952570902F9570290F922F9370269574
:103590002695920F982797708981982B09F05CC027
:1035A000043008F059C080E18A95F1F75A9A529A8E
:1035B00082E08A95F1F700C05A9888E0089F800160
:1035C0001124D801AF5DBE4F1696ED91FC9117976F
:1035D0003097A9F06091F9017091FA0114962D913C
:1035E0003C911597260F371F11968D919C9112973C
:1035F000680F791F13964C9113978C910995F801D8
:10360000EF5DFE4F6381662351F02091F901309107
:10361000FA0184819581820F931F0E94831A0E9470
:10362000041A80E18A95F1F75A9852985A9A80E1E3
:103630008A95F1F7F801EF5DFE4F6081662351F046
:103640002091F9013091FA0181819281820F931FBB
:103650000E94361A0E94FC190F90DF91CF91FF91C2
:10366000EF91BF91AF919F918F917F916F915F91FA
:103670004F913F912F911F910F910F900FBE0F907F
:103680001F9018950F931F93CF93DF93EC0104972E
:103690000CF04CC0F894529A5A9885E08A95F1F74C
:1036A00000009C2F969595708C2F8570980F892F10
:1036B00083709695969523E0CC0FDD1F2A95E1F750
:1036C000980F8E01092B0E94041A00C068E0802F19
:1036D0000E94621A80E18A95F1F752985A9A4A9BA1
:1036E0001EC087E090E04A991CC0FE01EF5DFE4FCE
:1036F00063816623F9F02091F9013091FA01848108
:103700009581820F931F0E94361A811113C0529A1D
:103710005A9A7894DF91CF911F910F91089500C02C
:10372000DECF019729F4529A5A9A789480E0F2CF2A
:1037300000C0D9CF0E94FC1980E28A95F1F75A980F
:10374000529A80E18A95F1F7CF5DDE4F688166235A
:1037500051F02091F9013091FA0189819A81820F0B
:10376000931F0E94831A0E94041A789481E0D2CF9A
:103770009093FD018093FC0108959093C70280937C
:10378000C60208950E947D12811103C08091C1027A
:103790000895E091C602F091C702309729F0019098
:1037A000F081E02D0995089580E00895E091C6022A
:1037B000F091C702309721F00280F381E02D099546
:1037C0000895A3E0B0E0E7EEFBE10C9450242091D3
:1037D000C4023091C50228173907A1F09093C502A1
:1037E0008093C402E091C602F091C702309751F075
:1037F00023E029839B838A830680F781E02DCE0115
:10380000019609952396E2E00C946C24A3E0B0E0C5
:10381000ECE0FCE10C9450242091C2023091C302F0
:1038200028173907A1F09093C3028093C202E09158
:10383000C602F091C702309751F024E029839B83A0
:103840008A830680F781E02DCE01019609952396A3
:10385000E2E00C946C249C012E5F3F4FAC01485F6A
:103860005F4F80E02417350709F40895F90191911D
:103870009F019923B9F38F5FF5CF662349F0FC01CF
:10388000329608962191261729F0E817F907D1F703
:1038900080E0089581E008959C01FC0132969FEF3D
:1038A00080E04191461751F09F3F19F4411101C04A
:1038B000982F8F5F8630A9F79F3F09F40895290F4D
:1038C000311D97FD3A95F90162830895FC01329606
:1038D00008962191261303C0DF0111971C92E81767
:1038E000F907B9F708950E944C1C08950E94661CC0
:1038F0000895029626E0FC0111922A95E9F70895B1
:1039000008950E94801C0895811106C081E0809373
:10391000C8020E94811C089582E0F9CF83E0809361
:10392000C8020E94811C08950E94841C089581E0B1
:103930008093C8020E94811C08950E94971C0895DC
:10394000089508950E94A11C0895089508950E9465
:10395000A01C0895CF930E94A51C0E94FE110E94F6
:10396000A61CC0E08C2F0E94E010811105C0CF5F23
:10397000C830C1F7CF91089581E0FCCF85B780684A
:1039800085BF85B7806885BF08951F921FB61F92B7
:1039900011248F939F93AF93BF938091C90281119C
:1039A00013C08091EC029091ED02A091EE02B091D3
:1039B000EF024196A11DB11D8093EC029093ED02A0
:1039C000A093EE02B093EF02BF91AF919F918F91C0
:1039D0001F901FBE1F9018958091F402843031F122
:1039E0000E948E031092C90288E190E020E40FB695
:1039F000F894A895809360000FBE2093600083B771
:103A0000817F846083BF83B7816083BF789488950A
:103A100083B78E7F83BF0FB6F894A895809160001E
:103A2000886180936000109260000FBE08950E942C
:103A3000F1060E949303089582E084BD93E095BD52
:103A40009AEF97BD80936E0008952FB7F8948091F8
:103A5000EC029091ED02A091EE02B091EF022FBF27
:103A600008952FB7F8946091EC027091ED02809167
:103A7000EE029091EF022FBF08959C014FB7F8948A
:103A80008091EC029091ED02A091EE02B091EF02D4
:103A90004FBF821B930B0895CF92DF92EF92FF925C
:103AA0002FB7F894C090EC02D090ED02E090EE02B7
:103AB000F090EF022FBFA7019601261B370B480B92
:103AC000590BCA01B901FF90EF90DF90CF90089594
:103AD00078941F921FB61F9211248F939F93AF93D8
:103AE000BF938091EC029091ED02A091EE02B09113
:103AF000EF020196A11DB11D8093EC029093ED029F
:103B0000A093EE02B093EF02BF91AF919F918F917E
:103B10001F901FBE1F90189587E797E790930108A5
:103B20008093000888E19AE00FB6F894A8958093F6
:103B300060000FBE90936000FFCF88E19AE00FB65F
:103B4000F894A895809360000FBE90936000FFCF1B
:103B50008091D202089508959B01BA019091F402D8
:103B60009430E9F48F708093E9009FEF8091E80032
:103B7000915085FD06C085ED8A95F1F70000911101
:103B8000F5CF8091E80085FF0AC050E040E0C90110
:103B90000E94A81F8091E8008E778093E800089526
:103BA00043E050E0BC0182E00E94AC1D0895CF9339
:103BB000DF93EC0148E050E0BC0181E00E94AC1DC5
:103BC00088E0FE01AAECB2E001900D928A95E1F73F
:103BD000DF91CF9108958091F302811109C00E9475
:103BE00038210E9495218091E20084608093E20058
:103BF00008951092F30208950E94971C0895609111
:103C0000F00281E0611101C080E00E948E1C0895E5
:103C10009091F40281E0943009F080E06091F0022C
:103C20000E94941C089542E061EC81E00E94B4205F
:103C300042E261EC82E00E94B4209091F40281E0C3
:103C4000943009F080E06091F0020E94841C089595
:103C50008091F602833009F461C030F48130D1F1F3
:103C6000823009F49EC008958A3009F48AC08B30EE
:103C700009F46FC0893009F050C08091F50281329B
:103C800009F04BC08091F9029091FA02029708F076
:103C900044C08091E800877F8093E8008091E8002D
:103CA00082FF37C09091F3008091F200029731F4C7
:103CB0008091F100813011F0863021F48091F10083
:103CC0008093D2028091E8008B778093E8000E9475
:103CD000E82023C08091F502813AF9F48091E80050
:103CE000877F8093E8008091F9029091FA02892BF6
:103CF00061F468E08AEC92E070E00E94F71F809126
:103D0000E8008B778093E800089560E090E080E021
:103D1000F3CF8091F4028111C1CF08958091F50213
:103D2000813AD9F78091F9029091FA02892BA9F78B
:103D30008091E800877F8093E8008091E80080FF11
:103D4000FCCF809142018093F1008091E8008E7752
:103D5000BCCF8091F502813201F78091F9029091F8
:103D6000FA02892BD1F68091E800877F8093E800E2
:103D70000E94E8208091F702809342010E94F106A0
:103D800008958091F502813241F68091E800877FA5
:103D90008093E8000E94E8208091F8028093D3028B
:103DA00008958091F502813A09F0B7CF8091E8003B
:103DB000877F8093E8008091E80080FFFCCF8091AE
:103DC000D302C1CF84B7877F84BF0FB6F894A8957C
:103DD00080916000886180936000109260000FBE47
:103DE00080E890E00FB6F8948093610090936100B2
:103DF0000FBE0E949D1C08950E9438210E949521AB
:103E0000E2EEF0E080818460808378940E94142444
:103E100008958AE391E00E94BD1B08958091F40209
:103E2000853031F48091F402853019F00E94171D1D
:103E300008950E94EC1C8091F202882399F30E945D
:103E4000AA1C882379F30E94921F0E94F1062FEF8B
:103E500083EC99E0215080409040E1F700C00000E1
:103E6000E1CF08959A014091FB025091FC020E941B
:103E70003A1F0895492F55274330510519F168F429
:103E80004130510509F444C04230510509F445C0A0
:103E900090E080E050E040E025C04132510549F11A
:103EA00042325105A9F780E490E04AE653E06115FB
:103EB0007105C1F082E390E048E353E061307105A1
:103EC00089F0E6CF99278130910581F0009729F09C
:103ED0000297F1F6EFEAF2E002C0E7EEF2E0849139
:103EE00090E0AF01F901518340830895E3ECF2E0E3
:103EF000F6CF89E090E04DEF52E06115710591F346
:103F000089E090E046E153E06130710559F3C0CF9C
:103F100082E190E046E253E0E5CF8BE390E04BEEA8
:103F200052E0E0CF80E189BD82E189BD09B400FEA5
:103F3000FDCF8091D8008F7D8093D8008091E000E4
:103F400082608093E0008091E00081FDFCCF0895C5
:103F5000AF92BF92CF92DF92FF920F931F93CF93B6
:103F6000DF936C01EB018A010E940721F82E811179
:103F700023C00115110539F0F80180819181C81B1A
:103F8000D90BC80ED91EB12CA12C2097A9F0809175
:103F9000E80085FD22C08091E8008E778093E800DC
:103FA00001151105A1F0F80180819181A80EB91EBB
:103FB000B182A08285E0F82E8F2DDF91CF911F91E5
:103FC0000F91FF90DF90CF90BF90AF9008950E9427
:103FD00007218823D1F2F82EEFCFF60181916F01EE
:103FE0008093F1002197FFEFAF1ABF0ACECFFC01FB
:103FF0008091FB029091FC0286179707A0F0611553
:10400000710529F49091E8009E779093E80090E084
:104010006115710551F4911108C08091E80082FF8B
:1040200034C080E00895BC01F2CF8091F40288236F
:10403000C1F18530C1F18091E80083FD30C08091ED
:10404000E80082FDEACF8091E80080FFE1CF809117
:10405000F3002091F200382F6115710519F0283016
:10406000310558F091E02830310509F090E02091B9
:10407000E8002E772093E800CBCF81918093F10068
:10408000615071092F5F3F4FE7CF8091F402882381
:1040900041F0853041F08091E80083FFBECF81E0A0
:1040A000089582E0089583E00895FC018091FB0269
:1040B0009091FC0286179707A0F06115710529F40D
:1040C0008091E8008E778093E80090E0611571059B
:1040D00051F4911108C08091E80082FF35C080E062
:1040E0000895BC01F2CF8091F4028823C9F1853094
:1040F000C9F18091E80083FD31C08091E80082FD24
:10410000EACF8091E80080FFE1CF8091F300209119
:10411000F200382F6115710519F02830310558F07B
:1041200091E02830310509F090E08091E8008E7729
:104130008093E800CBCF84918093F1003196615059
:1041400071092F5F3F4FE6CF8091F402882341F041
:10415000853041F08091E80083FFBDCF81E0089574
:1041600082E0089583E00895982F973028F08F70AB
:104170008093E90081E008959093E900242F762F41
:1041800050E0981731F07091EC002091ED005091C3
:10419000F00021FD02C09F5FE8CF3091EB003E7F31
:1041A0003093EB003091ED003D7F3093ED00309186
:1041B000EB0031603093EB007093EC002093ED0046
:1041C0005093F0002091EE0027FDE5CF80E00895A8
:1041D0008091F50287FF13C08091E80082FF06C03E
:1041E0008091E8008B778093E80004C08091F4020E
:1041F0008111F2CF08958091F4028823D9F3809140
:10420000E80080FFF8CF8091E8008E77ECCF209116
:10421000E4003091E50095E6A9012091EC00822FA1
:10422000817020FF06C08091E80080FF06C080E01A
:1042300008952091E80022FD1AC08091F40288239D
:1042400089F0853089F08091EB0085FD0FC02091C9
:10425000E4003091E50042175307F9F29150E1F67E
:1042600084E0089582E0089583E0089581E0089550
:104270000E94A7210E94AF21E0EEF0E080818160E2
:104280008083E8EDF0E080818F77808319BCA7ED13
:10429000B0E08C918E7F8C9380818F7E8083109292
:1042A000F30208950F931F93CF93DF930E94A721EA
:1042B0000E94AF21C8EDD0E088818F778883888104
:1042C0008068888388818F7D888319BC1092F4026E
:1042D0001092F0021092F2021092F10200EE10E041
:1042E000F80180818B7F808388818160888342E0B0
:1042F00060E080E00E94B420E1EEF0E080818E7FFB
:104300008083E2EEF0E0808181608083808188603C
:104310008083F80180818E7F80838881806188839B
:10432000DF91CF911F910F910895E8EDF0E080812A
:104330008F7E8083E7EDF0E080818160808384E080
:1043400082BF81E08093F3020E9452210895E8ED3C
:10435000F0E080818E7F80831092E20008951092B9
:10436000DA001092E10008951F920F920FB60F929B
:1043700011242F933F934F935F936F937F938F936A
:104380009F93AF93BF93EF93FF938091E10082FFE0
:104390000BC08091E20082FF07C08091E1008B7F1B
:1043A0008093E1000E9413248091DA0080FF19C0FD
:1043B0008091D80080FF15C08091DA008E7F8093B5
:1043C000DA008091D90080FF96C080E189BD82E14A
:1043D00089BD09B400FEFDCF81E08093F4020E9404
:1043E000EB1D8091E10080FF19C08091E20080FF09
:1043F00015C08091E2008E7F8093E2008091E20000
:1044000080618093E2008091D80080628093D80020
:1044100019BC85E08093F4020E94FF1D8091E100A9
:1044200084FF2BC08091E20084FF27C080E189BD1A
:1044300082E189BD89B5982F917080FFFBCF809173
:10444000D8008F7D8093D8008091E1008F7E80938B
:10445000E1008091E2008F7E8093E2008091E20093
:1044600081608093E2008091F002882309F449C0C2
:1044700084E08093F4020E94081E8091E10083FF93
:1044800029C08091E20083FF25C08091E100877FF1
:104490008093E10082E08093F4021092F002809118
:1044A000E1008E7F8093E1008091E2008E7F809317
:1044B000E2008091E20080618093E20042E060E0EF
:1044C00080E00E94B4208091F00088608093F0002A
:1044D0000E94FC1DFF91EF91BF91AF919F918F9131
:1044E0007F916F915F914F913F912F910F900FBEF0
:1044F0000F901F90189519BC1092F4020E94F91D9C
:1045000070CF8091E30087FD93E09093F402B3CFE6
:104510001F920F920FB60F9211242F933F934F9338
:104520005F936F937F938F939F93AF93BF93CF933B
:10453000DF93EF93FF93D091E900DF708091EC005F
:10454000C82FC17080FDC0E81092E9008091F00092
:10455000877F8093F00078940E94CC221092E9002B
:104560008091F00088608093F000CD2BCF70C093D5
:10457000E900FF91EF91DF91CF91BF91AF919F91B2
:104580008F917F916F915F914F913F912F910F90FC
:104590000FBE0F901F901895AAE2B0E0E2EDF2E294
:1045A0000C944F2485EF92E02091F100FC012193BF
:1045B000CF01F2E08D3F9F07B9F70E94281E80913E
:1045C000E80083FF1EC18091F5029091F6029A30B7
:1045D00008F017C1E92FF0E0EA5EFA4D0C943A2496
:1045E000803899F0823809F00CC18091F9028F70FF
:1045F000873008F006C18093E9008091EB0085FBCD
:10460000882780F91092E90006C08091F10290910C
:10461000F202911182609091E800977F9093E800F8
:104620008093F1001092F1008091E8008E77E5C050
:10463000882309F4D3C0823009F0E3C08091F702E7
:104640008111D6C08091F9028F702FEF280F26308C
:1046500008F0D7C08093E9002091EB0020FFC8C08C
:10466000933031F48091EB0080628093EB00C0C006
:104670009091EB0090619093EB0021E030E001C05D
:10468000220F8A95EAF72093EA001092EA008091BF
:10469000EB008860EACF8111B4C01091F7021F7758
:1046A0008091E3008078812B8093E3008091E80083
:1046B000877F8093E8000E94E8208091E80080FFD7
:1046C000FCCF8091E30080688093E30082E01111C9
:1046D00083E08093F40295C08058823008F091C046
:1046E0008091F7029091F8028C3D23E09207A1F5AA
:1046F00083E08A838AE289834FB7F894DE011396B8
:1047000020E03EE051E2E32FF0E050935700E491C7
:1047100020FF03C0E295EF703F5FEF708E2F90E0B7
:10472000EA30C0F0C7968D939D932F5F243159F7DF
:104730004FBF8091E800877F8093E8006AE270E0D5
:10474000CE0101960E94F71F8091E8008B7780933D
:10475000E80057C0C096E7CF6091F9027091FA0265
:10476000AE014F5F5F4F0E94321FBC01892B09F4DD
:1047700048C09091E800977F9093E80089819A81E2
:104780000E945520E1CF8038E1F58091E800877FD5
:104790008093E8008091F0028093F10045CF811171
:1047A00030C09091F702923060F58091E800877FE9
:1047B0008093E8009093F0020E94E8208091F0023C
:1047C000882311F084E005C08091E30087FDFACFD3
:1047D00081E08093F4020E94131E13C08091F702BF
:1047E000813079F481E0933009F080E08093F20227
:1047F0001092E9008091E800877F8093E8000E9492
:10480000E8208091E80083FF0AC08091E800877F5C
:104810008093E8008091EB0080628093EB00AA9681
:10482000E3E00C946B240895CF938091F4028823E5
:10483000A1F0C091E900CF709091EC00892F8170B8
:1048400090FD80E8C82B1092E9008091E80083FD7C
:104850000E94CC22CF70C093E900CF9108950E94AE
:1048600038211092F40208958091E300881F882770
:10487000881F0895EE0FFF1F0590F491E02D099415
:104880002F923F924F925F926F927F928F929F9260
:10489000AF92BF92CF92DF92EF92FF920F931F934E
:1048A000CF93DF93CDB7DEB7CA1BDB0B0FB6F894FF
:1048B000DEBF0FBECDBF09942A88398848885F843F
:1048C0006E847D848C849B84AA84B984C884DF80B0
:1048D000EE80FD800C811B81AA81B981CE0FD11D94
:1048E0000FB6F894DEBF0FBECDBFED010895FB01FA
:1048F000DC0104C08D910190801921F44150504099
:10490000C8F7881B990B0895FB01DC0102C00190D8
:104910000D9241505040D8F70895F999FECF92BDBD
:1049200081BDF89A992780B50895A8E1B0E042E0EA
:1049300050E00C94D124DC01A40FB51F415050402D
:1049400048F0CB01840F951F2E910E94AC2441505A
:104950005040D0F70895262FF999FECF92BD81BD22
:10496000F89A019700B4021639F01FBA20BD0FB6AD
:10497000F894FA9AF99A0FBE08950396272F0E9489
:10498000AC240E94AB24252F0E94AC24242F0C942D
:10499000AC240196272F0E94AC240C94AB24DC019C
:1049A000CB01FC01F999FECF06C0F2BDE1BDF89A3A
:1049B000319600B40D9241505040B8F70895F894E4
:1049C000FFCFEC04EC043C053C05A1051B051B05D1
:1049D0001B05BD052E063D063D0617158B151F153B
:1049E000E914ED142315F11427153315FD1484155E
:1049F0000115371505153B15631509153F156A1582
:104A00000F1545154D15F5142B15F9142F15131504
:104A10004915591573158215E3141B159215D519EF
:104A2000DB19C419CF19E119E719ED19F022182380
:104A30000124182301244B236C230124C323CF23F7
:104A4000020177016701570100006A023294F69172
:104A5000F4C63390F59336973166F73435FFFFFF90
:104A6000010000000100000000000000040100003F
:104A700000040500000000000001A81DD71DAB1DAB
:104A8000D01D01F491F6943293F59033C6F7663158
:104A900097363534FFFFFF380222FFFF00221E0247
:104AA00007000000000000373822FFFF0022130239
:104AB00007000000000000363422FFFF0022130030
:104AC00007000000000000E200E900EA00B500B6BF
:104AD00000B700CD008301CC008A0192019401212E
:104AE00002230224022502260227022A02B300B46E
:104AF000006F0070009F01CB019F02A002818283A2
:104B0000E200E900EA00B500B600B700CD0083017D
:104B1000CC008A0192019401210223022402250281
:104B2000260227022A02B300B4006F0070009F0122
:0C4B3000CB019F02A00281828391020051
:00000001FF
