:100000000C9497020C94B4020C94B4020C946C1DE2
:100010000C94B4020C94B4020C94B4020C94B40288
:100020000C94B4020C94B4020C94A1240C94752585
:100030000C94951F0C94B4020C94B4020C94B4026A
:100040000C94B4020C94B4020C94B4020C94B40258
:100050000C94B4020C9438200C94B4020C94B402A6
:100060000C94B4020C94B4020C94B4020C94B40238
:100070000C94B4020C94B4020C94B4020C94B40228
:100080000C94B4020C94B4020C94B4020C94B40218
:100090000C94B4020C94B4020C94B4020C94B40208
:1000A0000C94B4020C94B4020C94B4020102E20168
:1000B000016201015901015A01015E0103E20001DF
:1000C00002E201016201016101015E0103E200013E
:1000D00002E20101350103E201010E000102E20129
:1000E000010E0103E201010E000102E201013501EE
:1000F00003E201010C000102E20101350103E2010A
:1001000001040014001A000800150017000400166E
:1001100000070009000A001D001B280624192105FC
:10012000002B412A220000000000001C0018000CD7
:1001300000120034000B000D000E000F0033001100
:100140000010003600370038022C4228430000001F
:100150000000001F0220020F040C042202360237A6
:1001600002260227022402427E437E0604447E4584
:100170007E00004C0000000000000031002E002D29
:10018000002E02350031022F0230022F00300035E0
:10019000022D02380025022C0900002C0800000066
:1001A000000000537C547C567C577C557C2900AC65
:1001B00000AE00AB00220AB00CE300E200E400490C
:1001C0007E0000E100000000000000A90050014690
:1001D0007E487E4F01AA005000510052004F00A8F7
:1001E0000050044A004D004F0400000000000000D1
:1001F0000000003A003B003C003D003E003F004054
:100200000041004200430044004500680069006A64
:10021000002C08000000000000000000001E001F6D
:10022000002000210227002100220023001F0625B4
:100230000624002500260000000000000000000049
:1002400000000004001D00090013000A001400153E
:10025000001600170007001A001B210624192805A4
:10026000002B452A220000000000000D000F00189E
:10027000001C0021000B00110008000C0012000EF1
:100280000033001000360210022C46284700000000
:10029000000000271420142F002F02340264006491
:1002A0000222002D001E002700340026001F00241B
:1002B0000000004C0000000000000025142E002368
:1002C000002E02407E231421142E1422142D1441DA
:1002D0007E250037023100360800002C04000000A3
:1002E000000000537C547C567C577C557C2900AC24
:1002F00000AE00AB004600A500E400E200E30049C8
:100300007E0000E100000000000000A90050094745
:100310007E487E4F09AA005000510052004F00A8AD
:100320000050014A004D004F010000000000000095
:100330000000003A003B003C003D003E003F004012
:100340000041004200430044004500680069006A23
:10035000002C04000000000000000000001E021F2E
:100360000220023000270221022202230208142D5B
:100370000224022502260200000000000000000006
:1003800000000000000000000000002A2B280000F0
:100390000000000000000000000000000000290034
:1003A0000000002C1E3420212224342627252E363E
:1003B0002D3738271E1F20212223242526333336AC
:1003C0002E37381F0405060708090A0B0C0D0E0FFF
:1003D000101112131415161718191A1B1C1D2F3182
:1003E00030232D350405060708090A0B0C0D0E0FE6
:1003F000101112131415161718191A1B1C1D2F3162
:1004000030354C000000000000000000000000003B
:1004100000000000000000000000000000000000DC
:10042000000000000000007E0F00D4FFFFFFC700A7
:1004300000007812034B006100680062006F0061E9
:1004400000720064000000220341006E0074006F1F
:100450000069006E0065004B00610068006C006F71
:1004600000750063006800650000000403090409CA
:10047000023B00020100A0FA09040000010301018F
:100480000009211101000122400007058103080035
:10049000010904010001030000000921110100010C
:1004A0002232000705820320000112010002000031
:1004B00000080000000000010102000105010980A0
:1004C000A101850319012AB700150126B70095017E
:1004D00075108100C0050C0901A101850419012ACC
:1004E000A002150126A002950175108100C005012A
:1004F0000906A101050719E029E71500250195085E
:10050000750181029501750881010507190029FF10
:10051000150026FF009506750881000508190129B8
:1005200005950575019102950175039101C011248E
:100530001FBECFEFDAE0DEBFCDBF12E0A0E0B1E03A
:10054000EEE2F0E502C005900D92A834B107D9F7AC
:1005500026E0A8E4B2E001C01D92A43DB207E1F795
:100560000E94CC150C94CC270C94000080549E471C
:100570008A30910588F4FC01E253F84DDB011596B1
:100580009C910C942727992339F00E94240860E05D
:1005900086EF90E00E942A1781E008959923E1F305
:1005A0000E94240860E089EE90E0F4CF9923A1F343
:1005B0000E94240860E08CED90E0ECCF992361F379
:1005C0000E94240860E08FEC90E0E4CF992371F062
:1005D00080914C02811106C081E080934C0283EE31
:1005E0000E9443058BE20E944305D6CF8BE20E9416
:1005F0008705D2CF992381F20E94240860E08FEB17
:1006000090E0C8CF992341F20E94240860E08CEA70
:1006100090E0C0CF992351F380914B028111E2CF3A
:1006200081E080934B0282EEDBCF9923F9F2809137
:100630004A028111D7CF81E080934A0280EED0CF69
:100640009111AACF82E00E94B508882319F084E0B6
:100650000E94BD0886E00E94B508882309F49CCF5B
:1006600080E00E94BD0898CF80914C02882351F011
:1006700082E00E94B508811105C083EE0E948705C3
:1006800010924C0280914B02882351F086E00E9428
:10069000B508811105C082EE0E94870510924B02B9
:1006A00080914A02882379F082E00E94B508811186
:1006B0000AC086E00E94B508811105C080EE0E9444
:1006C000870510924A0208952FEF87E893E12150A1
:1006D00080409040E1F700C000000E94F417833092
:1006E00021F480E00E94BD08089584E0FBCF8830AB
:1006F000B8F46830A8F4453098F450E095E0699F6C
:10070000400D511D1124FA0198E2899FE00DF11D61
:100710001124EE0FFF1FED5FFE4F85919491089518
:1007200081E090E008950E94770308959C013A9536
:1007300021153F4150F5FC01EE27F170BC01662701
:100740007270AC01442754709C012227387094FFCA
:100750000EC080E1EF2B09F480E0672B09F0806286
:10076000452B09F08064232B89F08068089581E08F
:10077000EF2B09F480E0672B09F08260452B09F02C
:100780008460232B19F08860089580E00895CF934A
:10079000DF93EB010E949603FE010995DF91CF9153
:1007A0000895CF93DF93EC01805E9109089720F0C4
:1007B0006BE078E0209711F462ED75E0CE010E94C5
:1007C000C7038C2F0E944305DF91CF91089581E0EC
:1007D00008950E94E703089581E008950E94B602FB
:1007E000089508950E94F1030895A6E0B0E0EBEFAC
:1007F000F3E00C943C2749835A839E833091520244
:1008000089819A8131111AC03E81332399F02223C4
:1008100089F00E948F09182F682F89819A810E9480
:100820006B0969817A81812F0E94B4102696E3E0DA
:100830000C9458270E947D09182FF3CF0E948F092E
:1008400069817A81F1CFFC01262F4081518162813B
:100850007381848195810E94F5030895CF93DF937E
:10086000EC0161E00E942304BE010E94E903DF91D4
:10087000CF910895CF93DF93EC0160E00E942304B1
:10088000BE010E94F203DF91CF91089508950E9466
:1008900024080E9446042FEF84E39CE0215080400E
:1008A0009040E1F700C0000008950E9447040E94B4
:1008B0005C2008950E9447040E946D2008950F93C4
:1008C0001F93CF93DF938C0161E00E942304EC011E
:1008D000B8010E949918811106C080E0DF91CF9184
:1008E0001F910F910895B801CE010E94EE03882355
:1008F000A1F3B801CE010E94751A882371F3B801E3
:10090000CE010E94881C882341F3B801CE010E94C9
:10091000F115882311F3B801CE010E943019882304
:10092000E1F2F8018581882361F0C330FCE7DF073D
:10093000E9F058F4C115ECE7DE07A9F0C130DC4757
:10094000B9F0C8010E94EC03C9CFCB358CE7D807BA
:10095000A9F0CC35ECE7DE0771F0CA35DC4789F742
:100960000E94FC0DEECF0E945504B7CF0E94040EEA
:100970000E945A04B2CF0E94F20DE3CF0E94000EF3
:10098000E0CF0E94721F0E94E80408950E94EC04C8
:100990000E94771F0895089581E008950895CF93E8
:1009A000DF93D82F0E94CC04C82F882319F08D2FF5
:1009B0000E94CE048C2FDF91CF9108950895CF939C
:1009C000C82F0E94CB048C2F0E94CF04CF91089592
:1009D00080E00E94DF0408950E94921E0E94DF04BE
:1009E0000895CF930E94921EC82F80914D028C17BC
:1009F00079F0C0934D020E94012060934E027093E3
:100A00004F0280935002909351028C2F0E94DF047A
:100A1000CF910895ADE0B0E0E0E1F5E00C943D2722
:100A2000488759876A877B878C879D8791110E94A9
:100A3000070D1F8286E0FE013896DE0111960190B7
:100A40000D928A95E1F78D8181110DC029813A813E
:100A50004B815C816D817E818F810E94370C2D9648
:100A6000E2E00C945927CE0101960E942E048111D8
:100A7000EDCFF5CFFC012481213021F480819181DB
:100A80000E94C1090895CF93C82F8823B9F08CEF35
:100A90008C0F813AA8F46C2F809112019091130170
:100AA0000E940D1F882329F08C2F0E94C40C0E94E5
:100AB0004F0D8C2F0E94BC0C0E944F0DCF910895BA
:100AC00080E28C0F883048F4C77081E001C0880F45
:100AD000CA95EAF70E94EA0CEFCFEBE5EC0FE330A2
:100AE00040F4F0E0E75FFD4F808190E00E94B11E8E
:100AF000E5CFC85ACB3110F7EC2FF0E0EE0FFF1F17
:100B0000ED52FE4F808191810E94D61ED7CF88235F
:100B100039F19CEF980F913A28F40E94C40C0E947E
:100B20004F0D089590E2980F983050F4877091E03F
:100B300001C0990F8A95EAF7892F0E94F00CEFCF38
:100B40009BE5980F933028F490E080E00E94B11E5E
:100B50000895885A8B3120F490E080E00E94D61EE0
:100B600008951F93CF93DF93182FEB010E94430545
:100B7000209739F4812F0E948705DF91CF911F9133
:100B800008958FE99FE00197F1F700C000002197D9
:100B9000EFCF70E060E0893311F460E570E00E940F
:100BA000B1050895882321F00E94EA0C0E944F0DA0
:100BB0000895882321F00E94F00C0E944F0D0895A3
:100BC000B0E0A0E0E6EEF5E00C9436276C01D62FFD
:100BD000C72FFC011581068102950F700E94E00C61
:100BE000E82E8823E9F0E12E1123D1F08C2F807FAD
:100BF000803451F080E28D0F8830F8F0011104C08C
:100C00008C2F807E8032C9F08091B00682FF15C0A3
:100C100082E00E94C60D0E94E00C91E0E82EE926D9
:100C2000BC2EB2949FE0B922FBE0FB15B8F1EB2D8E
:100C3000F0E0E852F84D0C942727E12CF1CF0C2F6F
:100C40000F70C07F11F00295007F112399F00023EF
:100C500059F080E28D0F883010F0D11107C0802F3D
:100C60000E94EA0C0E944F0D8D2F5AC0802F0E94C7
:100C7000FA0CF8CF8D2F0E948705002379F080E2CF
:100C80008D0F883010F0D11104C0802F0E94F00C1D
:100C900003C0802F0E94000D0E944F0DEB2DE850E5
:100CA000FF0B349720F40E94921E0E94DF04EE2076
:100CB00089F00E94DC0C80FD0DC0F60115820E94B7
:100CC000D60C0E94C908C6010E94E8070E94D60CF3
:100CD0000E94D908CDB7DEB7E9E00C9452272C2F3B
:100CE0002F70F22EC07FC03219F0F29480EFF822FC
:100CF000DD2341F0D130D1F1112309F444C00023A8
:100D0000F1F0B2CF8091B00682FD15C0112359F0E9
:100D1000FF2029F08F2D0E94EA0C0E944F0D80E0E9
:100D20000E944305BBCF80E00E948705FF2009F4A5
:100D3000B5CF8F2DABCF112369F0011104C08F2DDA
:100D40000E94D205ABCF013009F0A8CF8F2D0E94B1
:100D50002D0DA4CF0111A2CF8F2D0E94D9058F2D6B
:100D60000E94390D8F2D0E941D0D98CF112321F067
:100D7000063008F093CFE3CF053008F08FCF8F2DEA
:100D80000E94D9058BCF0023D1F3D93349F43FEF2B
:100D900087EE93E0315080409040E1F700C00000C2
:100DA0008D2F0E9487057ACF8C2F8695869583702C
:100DB00069F0813009F072CF8D2F9C2F9370111143
:100DC00002C080E090E00E94D61E68CF8D2F9C2F3D
:100DD0009370111102C080E090E00E94B11E5ECFBE
:100DE0008C2F8370A1F5111159CF4D2F4295469547
:100DF0004770440F440F2D2F2F7030E0042E02C097
:100E0000220F331F0A94E2F790E080E0D4FF09C07C
:100E10008FE090E002C0880F991F4A95E2F7809515
:100E20009095C695C695C370822B932BC23049F01E
:100E300058F4C13019F00E947D0830CF0E94740828
:100E40002DCF0E9486082ACF0E94710827CF869551
:100E5000112311F08C2F8170882309F41FCF4D2F9F
:100E6000429546954770440F440F2D2F2F7030E068
:100E7000042E02C0220F331F0A94E2F790E080E0B4
:100E8000D4FF09C08FE090E002C0880F991F4A95F7
:100E9000E2F780959095C695C695C370822B932BEB
:100EA000C23049F058F4C13019F00E940409F6CE5E
:100EB0000E94FB08F3CE0E940D09F0CE0E94950817
:100EC000EDCECF70112329F08C2F0E94C9088D2FF1
:100ED00037CF8D2F0E94D9058C2F0E94D908DECEE6
:100EE000D23F41F160F4D03FB9F0D13F81F01123FE
:100EF00009F446C00111B8CE8C2F8F711FC0D33FAB
:100F000001F1D43FA1F78091B00682FD24C08C2F5F
:100F10008F71112311F312C0112341F0053008F035
:100F2000BDCE8C2F8F710E94EB08B8CE063008F032
:100F3000B5CEF7CF8C2F8F711111CFCF0E94C9087A
:100F4000ADCE112329F08C2F8F710E94BD08A6CE43
:100F50000E949C08A3CE112349F0CF718C2F0E94D0
:100F6000C90863E08C2F0E94A80D98CE81E00E94F2
:100F7000C60D023008F492CE82E00E94C60D8ECEDD
:100F8000002359F0D93309F00BCFEFEFF7EE23E050
:100F9000E150F0402040E1F701CF8C2F8F719DCFC1
:100FA0000F931F93CF93DF93EC01688179818D813B
:100FB0000E94CC098C010E9416090E947008B80199
:100FC000CE010E94E005DF91CF911F910F9108950E
:100FD000CF93DF93EC018C81882399F0CE010E949E
:100FE0005F04811111C00E94E00C882351F08D81B3
:100FF000882339F08091B00682FF03C082E00E940E
:10100000C60DDF91CF910895CE010E94D007CE0189
:101010000E943A04F6CF882321F00E94FA0C0E9425
:101020004F0D089590E080E00E94B11E90E080E0B6
:101030000E94D61E0E94070D0E944F0D08950E9427
:10104000CC0C0E94120808950E94F70C0E941F0801
:10105000089592959F70963091F058F4925F9F702A
:10106000923058F4803F19F030F4883E30F481E03B
:1010700008959A5FF4CF843FD1F380E00895883ECD
:10108000B0F3813FD1F7F3CFFC012481222339F063
:10109000808191810E94C1090E942908089580E001
:1010A0000895A6E0B0E0E7E5F8E00C943D27269629
:1010B000E2E00C945927A7E0B0E0E1E6F8E00C94F8
:1010C0003D272796E2E00C94592708950E94650871
:1010D00008950E94660890936A02809369020895B9
:1010E00008950E94690808952091690230916A026A
:1010F000822B932B0E9469080895209169023091F8
:101100006A02822393230E9469080895209169024C
:1011100030916A02822793270E94690808950E94ED
:10112000650808950E948F0808950E949208909380
:10113000680280936702089590E080E00E9495081D
:101140000895009729F481E0662371F080E00CC0D7
:1011500021E030E002C0220F331F6A95E2F7282316
:10116000392381E0232B91F30895682F8091670242
:10117000909168020E94A108089521E030E0A90141
:1011800002C0440F551F8A95E2F7CA010E949508D4
:10119000089521E030E002C0220F331F8A95E2F764
:1011A0008091670290916802822B932B0E94950890
:1011B000089521E030E002C0220F331F8A95E2F744
:1011C0002095309580916702909168028223932345
:1011D0000E949508089521E030E002C0220F331FDD
:1011E0008A95E2F78091670290916802822793279F
:1011F0000E94950808952091670230916802822B21
:10120000932B0E94950808952091670230916802FF
:10121000822393230E9495080895209167023091BC
:101220006802822793270E94950808950895262F23
:10123000277091E001C0990F2A95EAF723E076958F
:1012400067952A95E1F7660F771F660F771FFA01FA
:10125000E60FF71F50E040E0682F70E08191DF015A
:1012600011979B01042E02C0369527950A94E2F748
:10127000217021952827292328272C934F5F5F4F22
:101280004430510559F70895A82FA77023E096958B
:1012900087952A95E1F7880F991F880F991FFB0101
:1012A000E80FF91F50E040E080E0219130E00A2E85
:1012B00002C0369527950A94E2F721703327042E51
:1012C00001C0220F0A94EAF7822B4F5F5F4F443030
:1012D000510559F70895262F983070F4853060F441
:1012E000682F70E085E0989F600D711D112443E523
:1012F00052E0822F0E9417090895292F983068F430
:10130000853058F490E063E572E035E0239F800D6E
:10131000911D11240E944409089580E00895B0E0D1
:10132000A0E0E5E9F9E00C9436277C010091670222
:10133000109168028091690290916A02082B192B22
:10134000CFE0D0E0CC24C394D12CBC2EC6010C2E0F
:1013500002C0880F991F0A94E2F780239123892BFA
:1013600049F4219790F7B12C8B2DCDB7DEB7E9E08A
:101370000C945227B7018C2F0E94C010019789F35B
:10138000F3CFCF93DF93EC010E948F09BE010E943F
:10139000C010DF91CF9108951F93CF93DF93EB019E
:1013A00090915202992339F0CB010E94C109DF913B
:1013B000CF911F910895882369F0CB010E948F0976
:1013C000182F682FCE010E946B09BE01812F0E9449
:1013D000C010EDCFCB010E947D09182FF6CF1F93CF
:1013E000CF93DF93C0916B0217E080916C028C1356
:1013F00004C0DF91CF911F910895D0E01C9FF001B0
:101400001D9FF00D1124E359FD4F20813181428150
:1014100053816481758186810E945B082196C77023
:10142000E4CF2091A5023091A6024091A7025091ED
:10143000A8026091A9027091AA028091AB020E9459
:101440005B080895CF93DF938091AB02807F09F012
:101450004DC08091AA02882309F448C0E0916B0234
:1014600050916C02C091A602D091A5026091A70292
:101470007091A80247E05E17C9F18E2F90E0E49FBB
:10148000F0011124E359FD4F2481222391F1489F5B
:10149000F001499FF00D1124DF01A359BD4F1196B2
:1014A0002C9111972C1325C02C912D1322C0159629
:1014B0002C91159721111DC012962D913C91261B40
:1014C000370B283C3105A8F48091AB028F70806106
:1014D0008093AB02ED58FD4F80818F7080618083D7
:1014E00085EA92E00E94E8070E94EF09DF91CF9120
:1014F0000895FC013196E770BECF482F20916B0212
:1015000090916C0257E0291302C080E0089530E00A
:10151000529FF001539FF00D1124E359FD4F81813B
:10152000681306C08081481303C085818111EECF06
:101530002F5F3F4F2770E7CFA4E1B0E0E2EAFAE087
:101540000C9433278C0186E0F801DE011F96019090
:101550000D928A95E1F7D80114968C9114971596FF
:10156000EC90159795EAA92E92E0B92E9091A902D8
:1015700091111FC08823D1F0EE20A9F0C8010E946C
:101580004408F82E882379F087E0F801D50101900E
:101590000D928A95E1F7C5010E943A050E94220A40
:1015A0000E94110A3DC0C8010E94E807FF24F3947D
:1015B00037C0F801C080D18082809380F090AA0269
:1015C0002091A7023091A802A401421B530BFF20D7
:1015D00009F4F6C0483C510508F0A5C0882301F184
:1015E0009091A6028091AB02282F207F09F067C05E
:1015F0009D111BC09091A5029C1117C0E11059C00C
:101600008F7080618093AB020E94110A85EA92E09C
:101610000E94E8078091AB02D80116968C93F12CBA
:101620008F2D6496ECE00C944F27E11042C06D2D95
:101630008C2D0E947D0AE82E882371F085EA92E0C5
:101640000E94E80787E0E5EAF2E0DF011D928A9553
:10165000E9F70E94110AE3CFCF86D88A8F8598894F
:101660000E94C109292F22952F70243058F49F70B1
:10167000223088F0992399F0F8019681907F79F4CF
:10168000FE2CCECF2A5F2F70223068F0C8010E9456
:10169000E807EF2CF5CF992311F0882389F3805EBA
:1016A000883070F3F3CF803F58F3815F833070F759
:1016B000E7CF8091AB0281608093AB02B0CF9D11E8
:1016C00007C09091A5029C1103C0EE2009F49CC0B4
:1016D000C8010E944408882309F465CFEE2009F46C
:1016E00062CF8091AB02803288F02091A5023091C8
:1016F000A602398728879B868A869091A9029C87B3
:101700001D868E87CE0108960E94E80787E0F801C3
:10171000A5EAB2E001900D928A95E1F70E94220AB3
:101720000E94110A43CF9091AB02292F207F91F4A0
:10173000682D9A8A898AA6017A899E2D0E9451086D
:1017400085EA92E00E94E80787E0F50111928A9508
:10175000E9F77FCF882309F463CF8091A6028D112A
:1017600011C08091A5028C110DC0E1100BC016961E
:101770009C93C8010E94E80787E0F50111928A95C1
:10178000E9F74ECFC8010E944408882309F40BCF23
:10179000EE2009F408CF8091AB02803208F4B6CF76
:1017A0002091A5023091A6023A8329839C828B82E4
:1017B0009091A9029D831E828F83CE010196A4CFB2
:1017C000483C510508F045C0882309F4EFCEFE2CB3
:1017D000EE2009F4E8CE8091A6028D112CC08091F4
:1017E000A5028C1128C08091AB0280FD1BC0982FF0
:1017F000907FC1F016968C931697903F39F0982FF2
:10180000907F905F8F70892B16968C93C8010E94F1
:10181000E80787E0F801A5EAB2E001900D928A9509
:10182000E1F7BECE87E0F801A5EAB2E001900D92A3
:101830008A95E1F7F5CEC8010E944408811166CF70
:101840008091AB0281608093AB02C8010E94E807DF
:10185000E7CE682D9A8A898AA6017A899E2D0E94F0
:10186000510887E0F50111928A95E9F799CEAEE02B
:10187000B0E0EDE3FCE00C943C27288739874A87E9
:101880005B876C877D878E87CE0108960E949C0AB5
:101890008823B1F06C85662341F0288539854A8517
:1018A0005B857D858E850E945B0817E080916B02C9
:1018B00090916C0289133DC02E96E3E00C9458275A
:1018C00087E0FE013896DE01119601900D928A950F
:1018D000E1F78C85882349F320916C0230E0C9013F
:1018E00001968770992740916B024817190699F065
:1018F00097E0929FD001939FB00D1124A359BD4F43
:10190000FE01319601900D929A95E1F780936C0259
:101910000E94EF09CACF0E94240810926C02109214
:101920006B0287E0E5EAF2E0DF011D928A95E9F7B4
:10193000BCCF819FC001112483599D4F0E949C0AF6
:10194000882309F4B9CFE0916B021E9FF0011124A6
:10195000E359FD4F2081318142815381648175813A
:1019600086810E945B0880916B0290E001968770EF
:10197000992780936B029ACF682F809112019091E2
:1019800013010E94431F0895682F809112019091C6
:1019900013010E94461F0895809112019091130136
:1019A0000E94491F08958091B50208958091B40264
:1019B00086958695869508958091B40287700895DE
:1019C0009091B402977081E009F480E008958091CD
:1019D000C20208959091C202892B8093C202089599
:1019E00080959091C20298239093C202089510921C
:1019F000C20208959091C102892B8093C10208957B
:101A000080959091C10298239093C10208951092FD
:101A1000C10208958093C00208951092C0020895F3
:101A20008093BF0208951092BF0208958091B6027C
:101A3000089508950E94190D08959091B502292FD7
:101A4000282331F0809589238093B5020E941A0DD6
:101A5000089508950E94290D08959091B602292FA6
:101A60002823281729F0982B9093B6020E942A0D5C
:101A700008959091B602292F282331F0809589236B
:101A80008093B6020E942A0D08958091B6028823A1
:101A900029F01092B60280E00E942A0D0895CF939B
:101AA000DF93E0911201F09113018091C2028083D3
:101AB000E0911201F091130180819091C102892B74
:101AC00080839091B602992381F0E0911201F09108
:101AD00013018081892B80838091120190911301E1
:101AE0000E94FB1E81110E94450DE0911201F091B0
:101AF00013018091BF02982F909580818923808364
:101B0000E0911201F091130180819091C002892B24
:101B10008083C0911201D091130148E050E06CEA3B
:101B200072E0CE010E946427892B59F088E0FE0103
:101B3000ACEAB2E001900D928A95E1F7CE010E94E5
:101B4000A61EDF91CF91089508950E94A40D0895D7
:101B50009091B00692FF11C098E0899F90011124E6
:101B6000622B6093B4020E94C9088091B4028695EA
:101B7000869586950E94A50D08950E94C90808952E
:101B80001092B40280E00E94A50D08959091B402D5
:101B9000809589238093B402282F277069F48917D0
:101BA00059F09091B00692FF07C08695869586956C
:101BB0000E94D9080E94C00D08959091B00692FB32
:101BC000222720F9281769F080FB92F99093B0063C
:101BD0008091AF069091B0060E94250E82E00E948F
:101BE000C60D08958091B00682FB882780F991E0A8
:101BF00089270E94DD0D089581E00E94DD0D089582
:101C000080E00E94DD0D08956FEF7FEF90E080E0AF
:101C10000E94B627089590E080E00E94822721E08C
:101C2000863E9E4F09F020E0822F089582E090E0EA
:101C30000E947A27089583E090E00E947A27089511
:101C400084E090E00E9482270895BC0184E090E047
:101C50000E94B6270895AB01BC018FE090E00E947E
:101C6000AA270895AB01BC0183E190E00E94AA2756
:101C7000089560E070E0CB010E94320E089560E0AC
:101C800070E0CB010E942B0E0E94390E0895A8E04F
:101C9000B0E0EDE4FEE00C943D2766EE7EEF90E0D0
:101CA00080E00E94B62760E082E090E00E949827E2
:101CB00060E083E090E00E94982710926A02109200
:101CC000690260E074E184E090E00E94B62760E081
:101CD00086E090E00E9498276FEF87E090E00E94F6
:101CE000982740E050E0BA0188E090E00E94AA27DF
:101CF00060E084E290E00E94982760E087E190E055
:101D00000E94982760E08CE090E00E94982760E0B5
:101D10008DE090E00E94982719821A821B821C8213
:101D20001D821E821F82188648E050E068E170E044
:101D3000CE0101960E94882740E050E0BA0180E27F
:101D400090E00E94AA270E943F0E2896E2E00C94A1
:101D500059270E94470E08958EE090E00E947A274E
:101D600091E0811101C090E0892F0895682F8EE0E5
:101D700090E00E9498270895A6E0B0E0E2ECFEE033
:101D80000C943B270E94F51F8C018091C302909117
:101D9000C4028017910781F019821A820E94F51FF0
:101DA000682F49815A81792F80E090E00E940A05CE
:101DB0001093C4020093C3022696E4E00C945727C4
:101DC0000E94D0116093D1027093D2028093D3020B
:101DD0009093D4026093CD027093CE028093CF0291
:101DE0009093D0020895089508950E94F40E0895E6
:101DF0000E946403089581E008958AEE91E10E94B3
:101E0000881E0E94F30E0E94F50E08950E94AF13E3
:101E10000895089508950E94090F0E940A0F0895D9
:101E20000E94ED110E94DE0408950E94EC1F0E94A2
:101E3000AA110E94D5130E94DC120E94100F0E946A
:101E4000D9150E94E5130E94F80E08950E94AF1361
:101E500081110E94391A0895A6E0B0E0E2E3FFE0A4
:101E60000C9434270E94FB0E81110AC00E94BC0E04
:101E70000E94260F0E94F1042696EBE00C94502756
:101E80000E94301385ECA82E82E0B82E750110E078
:101E9000F70101917F01812F0E9412121F5F1830FC
:101EA00009F441C00817A1F38091D50281FD0E9479
:101EB00018120E94060FC82E10E099249394812FC7
:101EC0000E941212082FF50181915F01081729F174
:101ED000D02ED826F12CEE24E3948D2D8E21A9F05E
:101EE000CC2099F0F9821A830E94F51F9C838B8382
:101EF0009D8291E0802F8E2109F490E049815A81E2
:101F00006B817C818D810E940A05F394EE0CF5E0D3
:101F1000FF12E3CFF501319700831F5F183079F688
:101F20000E94E00EA5CF0813BFCFA0CF1F93CF9381
:101F3000DF930E94C510EC01C11580E5D807F0F5CC
:101F4000C11580E4D80708F09CC0C03ED10520F53B
:101F5000CD3CD10508F082C0C83AD10578F4C53A25
:101F6000D10508F073C0C130D10519F1209709F1EE
:101F7000C430D105F0F4D0E0C0E01BC0C33CD105B3
:101F8000D0F7C85AD0E0CC0FDD1FC45FDD4F0990F9
:101F9000D881C02DD4640DC0C11580E2D80708F0E7
:101FA000D1C0C11581E0D80708F05AC0C83ED1059C
:101FB00010F7CE01DF91CF911F910895C03682E5D1
:101FC000D80718F5C03482E5D80708F06BC0C032D6
:101FD00082E5D80708F05FC0C11582E5D80708F48C
:101FE00097C02C2F2695269580E2289F90011124DA
:101FF0008C2F8370C1E0D0E002C0CC0FDD1F8A952A
:10200000E2F7C22BD32BDD68D4CFC03A82E5D807E4
:1020100060F4C03882E5D80708F459C0CF71D0E029
:10202000DC2FCC27C46FD06AC4CFC03C82E5D80770
:1020300008F462C0C03E82E5D80708F09CCFDC2FD0
:10204000CC27CC27DF71C06FD06AB3CFC55AD0E0A0
:10205000CE5BDD4FC881D0E0D064ABCFD065A9CFD7
:102060008D2F0E946711182FCE0199270E94C5104D
:10207000C12FD0E0DC2FCC27CC27DF71C82BD92B88
:1020800098CFCE0199270E94C510CC27DF70C82BAE
:10209000D92BD06A8ECFCF71D0E0DC2FCC27C16F87
:1020A000D06A87CF2C2F26952695277080E2289F0F
:1020B000900111248C2F8370C1E0D0E002C0CC0FBE
:1020C000DD1F8A95E2F7C22BD32BDC6872CF2C2F51
:1020D00026952695277080E2289F900111248C2F49
:1020E0008370C1E0D0E002C0CC0FDD1F8A95E2F71B
:1020F000C22BD32BDA685DCF8C2F8F710E946711B2
:10210000C82FD0E0DC2FCC27CC27DF71D06251CF95
:102110008C2F8F710E94671155E0D695C7955A95FF
:10212000E1F7CF70D0E0DC2FCC27282F30E084FF00
:1021300005C044E0220F331F4A95E1F7C22BD32B91
:10214000D06937CF8D2F8F710E946711182FCE0164
:1021500099270E94C510C12FD0E0DC2FCC27CC27B7
:10216000DF71C82BD92BD2CF462F783030F46530B1
:1021700020F4672F0E949303089590E080E0089573
:102180000E94B4100E94960F089582389105B9F10B
:10219000B0F48133910509F47DC048F4893291058A
:1021A00009F46DC08A32910509F47BC00895853326
:1021B000910509F45FC08933910509F10895833EC3
:1021C0009105D9F138F4803E910529F1823E9105BF
:1021D00079F10895863E9105D9F1873E910509F47C
:1021E0003EC0843E910541F52091B00621FF24C0F8
:1021F0008091AF0684FD19C087EE90E0089520918C
:10220000AF06237009F05AC02091B00623FF14C016
:1022100089E290E008952091AF0620FD38C030910A
:10222000B00630FF09C024FF43C090E080E008956D
:102230002091AF0622FDF7CF08952091AF0622FD31
:102240003AC03091B00630FD39C024FFF5CFEDCF54
:102250002091AF0623FFF0CF24FDE7CFCDCF209113
:10226000AF0623FD2EC03091B00631FFEECF84EED5
:1022700090E008952091AF0625FFDECFC9CF2091D1
:10228000AF0625FD21C02091B00623FFD5CF89E3FD
:1022900090E0D2CF2091AF0626FFCECF8AE290E029
:1022A00008952091AF0626FFC7CF81E390E00895FF
:1022B00083EE90E0089582EE90E0089580EE90E045
:1022C000089586EE90E0089585E390E0089590915A
:1022D000AF0692FF06C0282F28712830F9F4877FB7
:1022E000846093FF06C0282F28712831F1F4877E7F
:1022F00084612091B00620FF06C0382F3871383035
:10230000D9F4877F816021FF06C0282F28712831EA
:10231000D1F4877E816194FD877E0895282F2471F2
:102320002430F9F68B7F8860DCCF282F247124318C
:1023300001F78B7E8861DDCF382F3171313019F78D
:102340008E7F8860E0CF282F2171213121F78E7E8A
:102350008861E1CF1092AB061092AC061092AD06E8
:102360001092AE060895CF92DF92EF92FF926B012A
:102370007C010E94AF1381110EC00E940120C61A79
:10238000D70AE80AF90AC092AB06D092AC06E092EE
:10239000AD06F092AE06FF90EF90DF90CF900895DB
:1023A0000F931F930E94AF13882329F00E940120EE
:1023B0001F910F9108950E9401200091AB0610918A
:1023C000AC062091AD063091AE06600F711F821FE2
:1023D000931FEECF80E0089508950E940B0E8111A7
:1023E00002C00E94A90E0E94160E8093D5020E9480
:1023F000200E9093B0068093AF060E94EC110E94CD
:102400001B0E90E00E947108809167029091680213
:102410000E949208089508950E940B1208950E9448
:1024200034030895E82FF0E0E654F94F80810895D1
:10243000089508950E9419120895EF92FF921F9334
:10244000CF93DF9300D000D0CDB7DEB70E94AF139B
:10245000182F6091C206882309F447C019821A8296
:102460001B821C82862F90E09E012F5F3F4F7901D7
:10247000B9018654994F0E94F3138823E9F08091A3
:10248000B10690E044E050E0B7018654994F0E94B5
:10249000642721E02093D602892BC9F410E00E9422
:1024A0000F12812F0F900F900F900F90DF91CF910F
:1024B0001F91FF90EF9008958091D602882371F3C9
:1024C00084E0F70111928A95E9F71092D602E09123
:1024D000B106F0E0E654F94F89819A81AB81BC8165
:1024E00080839183A283B383DACF70E06654794FFF
:1024F0008091B10690E08654994F0E947A140E9410
:102500001A12CFCF1F93CF93DF9324E131E0C1E0C4
:10251000D0E0D90150E040E08D918F3F91F0E82F5D
:10252000E295EF70F0E011A18F70BE0101C0660F5F
:102530008A95EAF7962F9095912391A382A1862BF5
:1025400082A34F5F5F4F4530510531F72B5F3F4FFF
:1025500081E028323807E9F6DF91CF911F91089585
:10256000CF93DF93AC01A62FB0E085E0689FF00128
:102570001124EC5EFE4F75E081E060E091919F3F99
:10258000C9F0C92FC295CF70D0E028A130E09F706C
:1025900002C0359527959A95E2F720FD0BC0282FAC
:1025A000622B880F715051F7A40FB51F6C93DF9108
:1025B000CF91089520E0F4CFA4E1B0E0E2EEF2E1A3
:1025C0000C943D2780912801811126C084E1EFE41D
:1025D000F1E0DE01119601900D928A95E1F7FE017E
:1025E0003196A4E1B1E0CE01459620812C93218162
:1025F00011962C931197228112962C931297238176
:1026000013962C931397248114962C931497359634
:1026100015968E179F0749F78091280194E0811144
:1026200090E09093C20684E0891B8093B1060E94DB
:10263000821288E0EAEBF6E0DF01982F1D929A956E
:10264000E9F7E2EBF6E0DF011D928A95E9F784E015
:102650000E946E130E940C126496E2E00C945927BB
:10266000A8E0B0E0E6E3F3E10C943A278E010F5FB7
:102670001F4F88E0F80111928A95E9F7F12C6F2D30
:10268000C8010E94B012F394F4E0FF12F8CF48E0C2
:1026900050E0B80182EB96E00E94642721E00097A9
:1026A00009F420E0892B41F088E0F801A2EBB6E0C4
:1026B00001900D928A95E1F76091C20670E0665430
:1026C000794F44E082EB96E00E946F13182F0E942E
:1026D0001D12812B2896E5E00C9456270895CF9281
:1026E000DF92EF92FF920F931F93CF936C017B01C8
:1026F000042F222349F081E08093D9020E94F51F24
:102700009093D8028093D702C091D902C1110AC018
:10271000C0E08C2FCF911F910F91FF90EF90DF9031
:10272000CF9008958091D7029091D8020E940D20F9
:10273000059770F310E0A801B601C7010E94642755
:10274000892B41F0A801B601C7010E9471271092A0
:10275000D902DFCFC0E0FBCF0E94AC0E0895CF932B
:10276000DF938091DC02811117C0C8ECD0E00E9499
:10277000212781110EC08FE39CE90197F1F700C07A
:1027800000002197A1F782E08093DC020E941C27C1
:1027900003C081E08093DC0281E09091DC02913003
:1027A00009F080E0DF91CF9108950E940B0E811116
:1027B00002C00E94A90E0E94AC13809328010E94BF
:1027C000AF1381110E94291408950E94AF13811143
:1027D00002C00E942C14089581E09091DD029A308D
:1027E00008F080E008950F931F93CF93DF93EC01DF
:1027F0008B018091DD028A30B8F4B801CE010E94CD
:102800007714C82F811122C08091DD028F3FB9F467
:102810000E94F51F9093DB028093DA028C2FDF91E8
:10282000CF911F910F9108958091DA029091DB0270
:102830000E940D20843F914000F7C0E0EFCF8F5FF2
:102840008093DD028A3020F7C1E0E8CF1092DD02EC
:10285000E5CF0E94261D08950E94291D0895B0E02D
:10286000A0E0E5E3F4E10C9438277901C82F880F44
:10287000DD0B41155105A9F0FE0193E0EE0FFF1F9E
:102880009A95E1F7E75DFE4F8181928182529D4FDB
:10289000208130E04217530708F49A01A9010E94F1
:1028A0007127CE010E94121ED82E8823D1F0011567
:1028B0001105B9F083E0CC0FDD1F8A95E1F7FE0129
:1028C000E75DFE4F438150E00417150708F4A801A7
:1028D000C75DDE4F6C817D8162527D4FC7010E94D2
:1028E00071278D2DCDB7DEB7E7E00C9454270E94F9
:1028F000711508950E9488150895A4E0B0E0E3E8FA
:10290000F4E10C943B276091F3027091F402809102
:10291000F5029091F6020E941C2011E064367105C8
:102920008105910518F10E94D0116E5F7F4F8F4F86
:102930009F4F69837A838B839C8310E000E030E0B3
:1029400020E044E050E0BE016F5F7F4F82E00E94D4
:102950002F14182F882351F00E9401206093F30256
:102960007093F4028093F5029093F602812F2496DF
:10297000E4E00C945727B0E0A0E0E1ECF4E10C9423
:1029800035277C015B016A010E94EC1301E010E035
:10299000882311F00AE010E0C1E0D0E0B501C701E2
:1029A000F6010995811104C021960C171D072CF41E
:1029B000CDB7DEB7EAE00C945127CC9F9001CD9FB4
:1029C000300D300D112490E080E045E34A95F1F799
:1029D0000000019682179307C1F7E0CFA5E0B0E0B1
:1029E000E4EFF4E10C9435275B01E0904502F090B0
:1029F000460201E010E09E012B5F3F4F50E040E0B7
:102A000070E060E080E00E942F14182F882309F402
:102A10004BC067018FEFC81AD80A6091EF0270911E
:102A2000F0028091F1029091F2020E941C20643623
:102A300071058105910580F104E010E09E012F5F92
:102A40003F4F50E040E070E060E081E00E942F14D2
:102A5000F82E64E070E0C6010E94DA1511E09D8155
:102A6000981310E01F2159F10E9401206093EF029A
:102A70007093F0028093F1029093F20289819A811F
:102A8000AB81BC818093EB029093EC02A093ED02AA
:102A9000B093EE0211E013C064E070E0C6010E9442
:102AA000DA159D818913C8CFF70181819281A381B5
:102AB000B48189839A83AB83BC831111DFCF80916A
:102AC000EB029091EC02A091ED02B091EE02F501C3
:102AD00080839183A283B383812F2596EAE00C94AF
:102AE00051270F931F93CF93DF93EC018B014EEE91
:102AF00054E10E94BB14882331F04DE754E1B80142
:102B0000CE010E94BB14DF91CF911F910F910895C8
:102B10000F931F93CF93DF93C0914502D09146024C
:102B2000CE01019624E0FB01DC0101900D922A9573
:102B3000E1F764E070E00E94DA1588836D817E81A0
:102B40008F8198850091E7021091E8022091E902B7
:102B50003091EA02601771078207930751F0609382
:102B6000E7027093E8028093E9029093EA020E94E0
:102B7000B311DF91CF911F910F9108950E94CC2145
:102B80000E94150F0E94D92108950E94DE210E9403
:102B90002C0F0E94012208950E948E1F0E94B221D4
:102BA0000E94FD0E0E94BE150E94C5150E940B0FCB
:102BB000FBCF0895FC01680F791F8FEF91E36E172B
:102BC0007F0709F408952191822728E030E087FFEC
:102BD00006C0880F892721503109C9F7F0CF880F27
:102BE000FACFCF93DF93EC01FB018581882309F4B1
:102BF000D2C09E0130572332310508F0B2C00E9486
:102C0000200E9093B0068093AF06FE01E150F0478E
:102C1000E232F10520F4EC51F84D0C942727809115
:102C2000AF0681608093AF0693C08091B006886044
:102C30008093B0068DC08091AF068260F3CF809103
:102C4000AF068460EFCF8091AF068860EBCF8091B4
:102C5000B0068160EDCF8091B0068260E9CF8091AF
:102C6000AF068061DFCF8091AF068062DBCF8091BD
:102C7000AF068064D7CF0E9424088091AF06806899
:102C8000D1CF8091AF068C60CDCF8091B0068360AC
:102C9000CFCF8091AF068E7FC5CF8091B006877F62
:102CA000C7CF8091AF068D7FBDCF8091AF068B7F60
:102CB000B9CF8091AF06877FB5CF8091B0068E7F68
:102CC000B7CF8091B0068D7FB3CF8091AF068F7E56
:102CD000A9CF8091AF068F7DA5CF8091AF068F7B66
:102CE000A1CF0E9424088091AF068F779BCF80915F
:102CF000AF06837F97CF8091B0068C7F99CF80916C
:102D0000AF0682FB992790F921E0922790FB82F988
:102D100090FB83F987CF8091B006982F90959170A2
:102D20008E7F892B90FB81F983CF9091AF06892FFD
:102D30008F7B96FF806476CF0E9424089091AF0627
:102D4000892F97FB87F980586DCF81E00E94B60EDE
:102D50008091AF069091B0060E94250E0E94240833
:102D600080E0DF91CF91089580E0F0CF9091AF06A1
:102D7000892F8F7E94FF806155CF9091AF06892F68
:102D80008E7F90FF81604ECF9091B006892F877F14
:102D900093FF88604DCF81E0E4CFB0E0A0E0E3EDA9
:102DA000F6E10C943827E82FF0E0ED57FC4FD49073
:102DB000282F26952695269530E0F901ED5DFB4FED
:102DC0000491877010E0082E02C0159507950A94AB
:102DD000E2F701701127F901ED5EFB4FE490F12C51
:102DE000082E02C0F594E7940A94E2F791E0E922F4
:102DF000FF24F901ED5FFB4FC491D0E002C0D595EF
:102E0000C7958A95E2F7C170DD270115110519F004
:102E100081EE0E944305E114F10419F086EE0E9450
:102E200043058D2D0E94C905E114F10419F086EEC9
:102E30000E9487050115110519F081EE0E94870592
:102E4000CD2B19F08CE20E94C905CDB7DEB7E7E0C3
:102E50000C945427EF92FF920F931F93CF93DF931D
:102E60008C01F62E8AE0E82EF8018491882309F47B
:102E700054C0813009F04DC0E8012196FE018491D3
:102E8000813091F42196FE0184910E94C9058E0142
:102E90000F5F1F4F8F2D815038F3EFE9FFE031971F
:102EA000F1F700C00000F7CF823039F4E801229634
:102EB000FE0184910E944305EACF833039F4E80192
:102EC0002296FE0184910E948705E1CF8430F9F6B5
:102ED000E8012296FE01249190E080E0FE01319607
:102EE0002053330B2A30310548F0019780F2EFE987
:102EF000FFE03197F1F700C00000F7CFE89EA00196
:102F0000E99E500D1124C901840F951F2491EF01F2
:102F1000E5CF0E94CD16E801BACFCDB7DEB7E6E027
:102F20000C9455272091F802233090F19091FB02E8
:102F3000923060F08091FA02882321F082E0809341
:102F4000F7020895291302C081E0F9CF8091F902B8
:102F5000253069F42091FC023091FD022F3F3105AC
:102F600079F4913069F48230A1F483E0E8CF243021
:102F700039F491110EC0823029F42093F70208959C
:102F8000911107C0833021F48091FA028130E1F27F
:102F900008959091FA02892BD9F7D6CF2091F802A3
:102FA0002F5F2093F8029093FD028093FC02823001
:102FB000910541F48091F9028F5F8093F9020E949C
:102FC000921708958430910531F48091FA028F5F51
:102FD0008093FA02F4CF8F3F910589F78091FB022D
:102FE0008F5F8093FB02EBCF8091F70208950895E5
:102FF00008950895089581E008950F931F93CF9346
:10300000DF93EC018B01842F0E94F7170E942408A4
:103010000E949C0819830883DF91CF911F910F9123
:103020000895AF92BF92CF92DF92EF92FF921F93DB
:10303000CF93DF93EC016B01142FE0906702F090C7
:1030400068020E9424080E949C0887E01802500130
:103050001124CC15DD0591F40E942408C7010E94BB
:103060009508812F0E94F817DF91CF911F91FF9053
:10307000EF90DF90CF90BF90AF900895CE010E9467
:10308000E807CA0DDB1DE5CF0F931F93CF93DF93A6
:10309000EB01F801A881B9813581311103C08A178C
:1030A0009B07A9F087E02802B0011124CD01861BFF
:1030B000970B4817590781F087E001900D928A9588
:1030C000E1F788819981860F971F99838883DF9123
:1030D000CF911F910F910895BF01822F0E94F91780
:1030E000F6CFCF92DF92EF92FF921F93CF93DF93B1
:1030F0006C01EB01142F7901842F0E94FA1789EFDC
:103100001802A0011124CC15DD0531F0FE01E40FF9
:10311000F51F858181110BC0F701D183C083DF9139
:10312000CF911F91FF90EF90DF90CF900895EF0126
:10313000EACF0F931F93CF938B012091800621112B
:103140003FC0FB01C581CC2331F0C1E08C2FCF9172
:103150001F910F9108958435FCE79F07F1F070F4FB
:1031600083359C4791F741E06EEF72E08EE796E081
:103170000E94FD1781E080938006E8CF8635ECE75A
:103180009E07A1F087359C4701F76091410170913E
:1031900042014FEF87E796E010C04FEF67E776E018
:1031A0008EE796E00E94FD1782E0E5CF6091430133
:1031B0007091440141E08EEF92E00E941118C6CF59
:1031C000AC0143555C474330510538F531E0853556
:1031D0009C4709F430E0F8018581831731F02130F4
:1031E00031F0223081F010928006C0E0AFCF6091C4
:1031F0007E0670917F0623E431E041E08EEF92E09D
:103200000E947118F0CF60917E0670917F0621E4D4
:1032100031E04FEF87E796E0F3CF0E94FB17C82F0E
:10322000882309F492CF80918006813069F0823042
:1032300009F08BCF40914301509144012FEF6EE78D
:1032400076E087E796E009C0409141015091420144
:1032500021E06EE776E08EEF92E00E94441876CF90
:10326000CF93DF93EB0186319C4711F50E94E70C69
:103270009D81992399F08A7A91E009F490E09093E6
:103280008106811109C089E20E94BC0C0E944F0D89
:1032900080E0DF91CF91089585E3F6CF809181069C
:1032A000811104C089E20E94C40CF0CF85E3FBCFFA
:1032B00081E0EFCFFC018581862351F4928199232F
:1032C000B9F06923818583FF05C081E061110FC0DA
:1032D00080E00895892F8F7092959F70982B862F8C
:1032E0008F7062956F70682B81E09613F1CF08950F
:1032F00081E0FDCFCF93DF93EC0160918C0670915C
:103300008D0680918E0690918F060E941C20643F4E
:1033100071408105910518F580918C0690918D067C
:10332000A0918E06B0918F068093880690938906AF
:10333000A0938A06B0938B0684EF91E0A0E0B0E002
:103340008093840690938506A0938606B0938706A3
:10335000D0938306C0938206DF91CF9108950E9497
:103360000120609388067093890680938A06909363
:103370008B0682E390E0A0E0B0E0E2CFFF920F93F3
:103380001F93CF93DF93F82E00919306109194062C
:103390000115110509F44DC01092830610928206A2
:1033A0000E94130D0E940D0D00919306109194063A
:1033B000D8011796CD91DC919E013A9521153F4198
:1033C00008F4D07ED1E0C11101C0D0E0D8011A9636
:1033D000ED91FC911B97309731F01C966D917C918B
:1033E00080E00995D823DD2339F08CEF8C0F813AEA
:1033F00030F58C2F0E94C40CFF2099F0E0919306C9
:10340000F0919406818584FD0CC0809192068823FA
:1034100041F0808191819C01215031092F333E4739
:10342000A0F00E944F0D10929406109293061092F5
:103430009206C801CDB7DEB7E5E00C9456270E948E
:103440004F0D8C2F0E948705D7CF0E947A19E9CFA4
:103450001092450180E00E94BE19089580914501B7
:10346000882319F00E94281A089581E0809345016D
:1034700008950F931F938091820690918306892B64
:1034800089F1609188067091890680918A069091F1
:103490008B060E941C2000918406109185062091C5
:1034A0008606309187066017710782079307D0F070
:1034B00080918206909183060E94D1031092830628
:1034C00010928206109288061092890610928A063F
:1034D00010928B0610928406109285061092860632
:1034E000109287061F910F910895A4E0B0E0EBE7DA
:1034F000FAE10C942D278C017A836983DB01159600
:103500005C905520B1F08E35BCE79B0759F08F35A4
:10351000ECE79E0759F08D359C4759F40E942E1A0E
:10352000312C0DC081E080934501FACF0E94281A0A
:10353000F7CF30904501311007C033243394832DE9
:103540002496E2E10C944927680120EEC21AD108C2
:103550000E94E70CF82E0E94D30C482E0E94160DF4
:10356000482A4F2838E0C316D10408F094C09801C7
:103570002770332781E090E001C0880F2A95EAF791
:10358000552009F485C0482AA981BA818D919C9162
:103590000E947D09809000019090010181149104A6
:1035A00009F4E1C021E030E0F90102C0EE0FFF1F95
:1035B0008A95E2F7FA83E983609093067090940607
:1035C000A0909006B0909106212CE22DF0E0EE0F35
:1035D000FF1FE80DF91D208131813C832B832115CC
:1035E000310509F4C0C0411005C0D90112968C9173
:1035F00081118BC0EB81FC818381948129813A8187
:1036000082239323892B09F480C08185982F97709A
:1036100009F487E038E0C316D10408F056C05520FD
:1036200009F44FC086958170882309F46EC0AB8180
:10363000BC81ED90FC900E151F0519F4552009F47E
:1036400064C0EB81FC81E615F70509F45EC00684D1
:10365000F785E02D309721F08081882309F455C04B
:10366000642D8B819C810E945A19882309F44DC0D6
:103670000E151F0509F08BC00115110509F48CC04A
:1036800051108CC0EA14FB0409F03FC0512C86C0D5
:103690008095482279CF552009F44EC010939106A9
:1036A000009390060E94012060938C0670938D0613
:1036B00080938E0690938F06109283061092820656
:1036C00063CF82FB882780F9AFCF5520F1F081705E
:1036D000ABCF0E94870583C00497813A910548F4D7
:1036E000802F0E94BC0C552009F427CF0E944F0D5B
:1036F00017CF0E944F0D8FE39CE90197F1F700C0AF
:103700000000802F0E944305EECF23945ECFFC0182
:10371000208131812017310731F4511007C01092F8
:10372000920680E031C0552009F407CFDC011996DC
:103730008C9185FD02CFF5CF8091900690919106F6
:103740008017910781F410929106109290061092C2
:103750008C0610928D0610928E0610928F06109293
:1037600083061092820680919306909194060097AA
:1037700009F4E3CEA8E0CA16D10448F6642D0E94ED
:103780005A198111DACE81E00E94BE19D8CEE11417
:10379000F10409F077CF512CF12CE12C80E00E944C
:1037A000BE19EB81FC81F0939406E093930681E0CF
:1037B0008093920686810E94100D511010C0E11472
:1037C000F10469F0AB81BC818D919C919C012450E6
:1037D0003109213A310508F07CCF0E94C40CEB81FD
:1037E000FC8107811085C8019A9581159F4108F4D5
:1037F000107EFF24F394C80101978F339E4708F091
:10380000F12CAB81BC811A96ED91FC911B973097FE
:1038100031F01C966D917C9181E00995F822FF2092
:1038200081F0EB81FC81878190850E9496030E9444
:103830000A0DC801F8E0CF16D10408F04DCF0E9460
:103840007A190E944F0D4FCF0F931F93CF93DF93A1
:10385000C42FD22FFC0185818823C9F0409397069D
:103860000E94F51F909396068093950680E28C0F38
:10387000883040F4C77081E001C0880FCA95EAF72C
:103880000E94D205DF91CF911F910F910895109161
:103890009706141332C080919506909196060E9467
:1038A0000D20883C910548F5C0E2CD0F1D17B9F0F9
:1038B00080E2810F883040F4177081E001C0880FEA
:1038C0001A95EAF70E94D905C83048F481E09D2F87
:1038D000977001C0880F9A95EAF70E94D205802F51
:1038E0000E94C905C83070F6D77081E001C0880F0A
:1038F000DA95EAF70E94D905C5CF80E28C0F8830AF
:1039000008F6C77081E001C0880FCA95EAF7F2CFC8
:103910000F93DB0188519C4787309105A0F5FC018E
:10392000EA5FF74D0C94272706E221EE41EE6AE1AB
:103930007CE7CD010E94241C80E00F91089507E2EE
:1039400025EE45EE6BE17CE7F4CF06E221EE40EE9A
:1039500068E17CE7EECF07E225EE44EE69E17CE723
:10396000E8CF06E221EE42EE6CE17CE7E2CF07E22F
:1039700025EE46EE6DE17CE7DCCF08E221E045EE86
:103980006EE17CE7D6CF15968C91882319F01092C2
:103990009706D3CF81E0D1CF8EE14A9B02C0815000
:1039A000E1F74A9BFECF08955A9880E28A95F1F795
:1039B0005A9A0895FC013BE03A95F1F798E020E02F
:1039C00080E031E040E14A95F1F7880F4A9B02C060
:1039D0008160232742E04A95F1F7000040E14A95D3
:1039E000F1F7915079F790E19A95F1F799B132E0BA
:1039F0003A95F1F7000040E14A95F1F792FB9927DB
:103A000090F992272081920F90830895A1E0B0E071
:103A1000ECE0FDE10C94392719828C017C01E60E63
:103A2000F11C0E151F0541F481E09981911180E090
:103A30002196E6E00C9455270E94CC1CCE010196FD
:103A40000E94DA1CF80181938F01EBCF529A5A9AA7
:103A5000089552985A9AEA9AE9E6F0E080818F7CBC
:103A6000808308956150770B91E001C0990F6A95AA
:103A7000EAF720E031E0911108C0222391F05A9A30
:103A800080E28A95F1F75A980895492F482339F032
:103A90005A9A232740E24A95F1F79695ECCF5A9827
:103AA000F9CF5A98EDCFFF920F931F93CF93DF93E7
:103AB000EC018C01060F111DC017D10729F4CDB7F9
:103AC000DEB7E5E00C945627F9900E94D41C68E01C
:103AD0008F2D0E94321DF0CF1F920F920FB60F92C2
:103AE00011240F931F932F933F934F935F936F93E3
:103AF0007F938F939F93AF93BF93EF93FF93CF9356
:103B0000DF930F92CDB7DEB719820E94CC1CCE0195
:103B100001960E94DA1C082F069506950695282F17
:103B200022952570902F9570290F922F93702695CE
:103B30002695920F982797708981982B09F05CC081
:103B4000043008F059C080E18A95F1F75A9A529AE8
:103B500082E08A95F1F700C05A9888E0089F8001BA
:103B60001124D801A75DBE4F1696ED91FC911797D1
:103B70003097A9F0609145027091460214962D91FC
:103B80003C911597260F371F11968D919C91129796
:103B9000680F791F13964C9113978C910995F80132
:103BA000E75DFE4F6381662351F02091450230911D
:103BB000460284819581820F931F0E94531D0E94AB
:103BC000D41C80E18A95F1F75A9852985A9A80E16C
:103BD0008A95F1F7F801E75DFE4F6081662351F0A9
:103BE000209145023091460281819281820F931F7C
:103BF0000E94061D0E94CC1C0F90DF91CF91FF9177
:103C0000EF91BF91AF919F918F917F916F915F9154
:103C10004F913F912F911F910F910F900FBE0F90D9
:103C20001F9018950F931F93CF93DF93EC01049788
:103C30000CF04CC0F894529A5A9885E08A95F1F7A6
:103C400000009C2F969595708C2F8570980F892F6A
:103C500083709695969523E0CC0FDD1F2A95E1F7AA
:103C6000980F8E01092B0E94D41C00C068E0802FA1
:103C70000E94321D80E18A95F1F752985A9A4A9B28
:103C80001EC087E090E04A991CC0FE01E75DFE4F30
:103C900063816623F9F020914502309146028481C8
:103CA0009581820F931F0E94061D811113C0529AA5
:103CB0005A9A7894DF91CF911F910F91089500C087
:103CC000DECF019729F4529A5A9A789480E0F2CF85
:103CD00000C0D9CF0E94CC1C80E28A95F1F75A9897
:103CE000529A80E18A95F1F7C75DDE4F68816623BD
:103CF00051F0209145023091460289819A81820FCC
:103D0000931F0E94531D0E94D41C789481E0D2CF4F
:103D10009093490280934802089590939E06809361
:103D20009D0608950E94AF13811103C080919806EB
:103D30000895E0919D06F0919E06309729F001903C
:103D4000F081E02D0995089580E00895E0919D06A9
:103D5000F0919E06309721F00280F381E02D0995C5
:103D60000895A3E0B0E0E7EBFEE10C943D2720913D
:103D70009B0630919C0628173907A1F090939C066A
:103D800080939B06E0919D06F0919E06309751F03E
:103D900023E029839B838A830680F781E02DCE016F
:103DA000019609952396E2E00C945927A3E0B0E030
:103DB000ECEDFEE10C943D272091990630919A0696
:103DC00028173907A1F090939A0680939906E091FD
:103DD0009D06F0919E06309751F024E029839B8345
:103DE0008A830680F781E02DCE01019609952396FE
:103DF000E2E00C9459279C012E5F3F4FAC01485FD5
:103E00005F4F80E02417350709F40895F901919177
:103E10009F019923B9F38F5FF5CF662349F0FC0129
:103E2000329608962191261729F0E817F907D1F75D
:103E300080E0089581E008959C01FC0132969FEF97
:103E400080E04191461751F09F3F19F4411101C0A4
:103E5000982F8F5F8630A9F79F3F09F40895290FA7
:103E6000311D97FD3A95F90162830895FC01329660
:103E700008962191261303C0DF0111971C92E817C1
:103E8000F907B9F708950E941C1F08950E94361F74
:103E90000895029626E0FC0111922A95E9F708950B
:103EA00008950E94501F0895811106C081E08093FB
:103EB0009F060E94511F089582E0F9CF83E080930E
:103EC0009F060E94511F08950E94541F089581E08B
:103ED00080939F060E94511F08950E94671F0895B6
:103EE000089508950E94711F0895089508950E94ED
:103EF000701F0895CF930E94751F0E9430130E9477
:103F0000761FC0E08C2F0E941212811105C0CF5F76
:103F1000C830C1F7CF91089581E0FCCF85B78068A4
:103F200085BF85B7806885BF08951F921FB61F9211
:103F300011248F939F93AF93BF938091A00681111B
:103F400013C08091C3069091C406A091C506B0919C
:103F5000C6064196A11DB11D8093C3069093C40669
:103F6000A093C506B093C606BF91AF919F918F9164
:103F70001F901FBE1F9018958091CB06843031F1A1
:103F80000E94C1041092A00688E190E020E40FB6E0
:103F9000F894A895809360000FBE2093600083B7CB
:103FA000817F846083BF83B7816083BF7894889565
:103FB00083B78E7F83BF0FB6F894A8958091600079
:103FC000886180936000109260000FBE08950E9487
:103FD00024080E94C604089582E084BD93E095BD44
:103FE0009AEF97BD80936E0008952FB7F894809153
:103FF000C3069091C406A091C506B091C6062FBF16
:1040000008952FB7F8946091C3067091C40680910B
:10401000C5069091C6062FBF08959C014FB7F8942E
:104020008091C3069091C406A091C506B091C606C2
:104030004FBF821B930B0895CF92DF92EF92FF92B6
:104040002FB7F894C090C306D090C406E090C50680
:10405000F090C6062FBFA7019601261B370B480B11
:10406000590BCA01B901FF90EF90DF90CF900895EE
:1040700078941F921FB61F9211248F939F93AF9332
:10408000BF938091C3069091C406A091C506B091DC
:10409000C6060196A11DB11D8093C3069093C40668
:1040A000A093C506B093C606BF91AF919F918F9123
:1040B0001F901FBE1F90189587E797E79093010800
:1040C0008093000888E19AE00FB6F894A895809351
:1040D00060000FBE90936000FFCF88E19AE00FB6BA
:1040E000F894A895809360000FBE90936000FFCF76
:1040F0008091A906089508959B01BA019091CB067D
:104100009430E9F48F708093E9009FEF8091E8008C
:10411000915085FD06C085ED8A95F1F7000091115B
:10412000F5CF8091E80085FF0AC050E040E0C9016A
:104130000E9495228091E8008E778093E800089590
:1041400043E050E0BC0182E00E947C200895CF93C0
:10415000DF93EC0148E050E0BC0181E00E947C204C
:1041600088E0FE01A1EAB6E001900D928A95E1F7A0
:10417000DF91CF9108958091CA06811109C00E94F4
:1041800025240E9482248091E20084608093E200D2
:1041900008951092CA0608950E94671F08956091BD
:1041A000C70681E0611101C080E00E945E1F089592
:1041B0009091CB0681E0943009F080E06091C706D1
:1041C0000E94641F089542E061EC81E00E94A123F7
:1041D00042E261EC82E00E94A1239091CB0681E053
:1041E000943009F080E06091C7060E94541F089542
:1041F0008091CD06833009F461C030F48130D1F173
:10420000823009F49EC008958A3009F48AC08B3048
:1042100009F46FC0893009F050C08091CC0681321A
:1042200009F04BC08091D0069091D106029708F01A
:1042300044C08091E800877F8093E8008091E80087
:1042400082FF37C09091F3008091F200029731F421
:104250008091F100813011F0863021F48091F100DD
:104260008093A9068091E8008B778093E8000E94F4
:10427000D52323C08091CC06813AF9F48091E800DF
:10428000877F8093E8008091D0069091D106892B9A
:1042900061F468E081EA96E070E00E94E422809197
:1042A000E8008B778093E800089560E090E080E07C
:1042B000F3CF8091CB068111C1CF08958091CC06B8
:1042C000813AD9F78091D0069091D106892BA9F730
:1042D0008091E800877F8093E8008091E80080FF6C
:1042E000FCCF80914E018093F1008091E8008E77A1
:1042F000BCCF8091CC06813201F78091D00690919D
:10430000D106892BD1F68091E800877F8093E80061
:104310000E94D5238091CE0680934E010E942408EE
:1043200008958091CC06813241F68091E800877F24
:104330008093E8000E94D5238091CF068093AA063F
:1043400008958091CC06813A09F0B7CF8091E800BA
:10435000877F8093E8008091E80080FFFCCF809108
:10436000AA06C1CF84B7877F84BF0FB6F894A895FB
:1043700080916000886180936000109260000FBEA1
:1043800080E890E00FB6F89480936100909361000C
:104390000FBE0E946D1F08950E9425240E94822452
:1043A000E2EEF0E080818460808378940E940127AF
:1043B000089586E491E00E948D1E08958091CB06B9
:1043C000853031F48091CB06853019F00E94E71FCB
:1043D00008950E94BC1F8091C906882399F30E940A
:1043E0007A1F882379F30E947F220E9424082FEFEE
:1043F00083EC99E0215080409040E1F700C000003C
:10440000E1CF08959A014091D2065091D3060E94BF
:104410000A220895EF92FF920F931F93CF93DF9399
:104420007901292F33272330310551F198F4C2E166
:10443000D0E00AEA14E02130310589F1CBE3D0E085
:104440000FE614E02230310551F1D0E0C0E010E079
:1044500000E025C02132310509F442C02232310585
:10446000A1F7C0E4D0E00EEE14E061157105B9F0DB
:10447000C2E3D0E00CEB14E06130710581F0E5CFD0
:10448000992781309105E1F0009791F0029701F1B1
:10449000D0E0C0E010E000E0CA010E94CE17F701B2
:1044A00011830083CE01CDB7DEB7E6E00C9455272B
:1044B000EBE6F4E0E491CE2FD0E00BE614E0ECCF95
:1044C000E7E4F4E0E491CE2FD0E007E414E0E4CF99
:1044D000E3E3F4E0E491CE2FD0E003E314E0DCCF9B
:1044E000C9E0D0E001E814E061157105C1F2C9E04E
:1044F000D0E00AE914E06130710589F2A6CF80E1CD
:1045000089BD82E189BD09B400FEFDCF8091D8004C
:104510008F7D8093D8008091E00082608093E000DE
:104520008091E00081FDFCCF0895AF92BF92CF92C1
:10453000DF92FF920F931F93CF93DF936C01EB01F8
:104540008A010E94F423F82E811123C00115110560
:1045500039F0F80180819181C81BD90BC80ED91E92
:10456000B12CA12C2097A9F08091E80085FD22C0F4
:104570008091E8008E778093E80001151105A1F085
:10458000F80180819181A80EB91EB182A08285E0D8
:10459000F82E8F2DDF91CF911F910F91FF90DF901B
:1045A000CF90BF90AF9008950E94F4238823D1F25A
:1045B000F82EEFCFF60181916F018093F1002197E2
:1045C000FFEFAF1ABF0ACECFFC018091D2069091C7
:1045D000D30686179707A0F06115710529F490910D
:1045E000E8009E779093E80090E06115710551F422
:1045F000911108C08091E80082FF34C080E00895E6
:10460000BC01F2CF8091CB068823C1F18530C1F186
:104610008091E80083FD30C08091E80082FDEACF00
:104620008091E80080FFE1CF8091F3002091F200BB
:10463000382F6115710519F02830310558F091E0D7
:104640002830310509F090E02091E8002E77209382
:10465000E800CBCF81918093F100615071092F5F09
:104660003F4FE7CF8091CB06882341F0853041F062
:104670008091E80083FFBECF81E0089582E0089535
:1046800083E00895FC018091D2069091D3068617AD
:104690009707A0F06115710529F48091E8008E77E5
:1046A0008093E80090E06115710551F4911108C004
:1046B0008091E80082FF35C080E00895BC01F2CF10
:1046C0008091CB068823C9F18530C9F18091E8003B
:1046D00083FD31C08091E80082FDEACF8091E8003F
:1046E00080FFE1CF8091F3002091F200382F611517
:1046F000710519F02830310558F091E02830310566
:1047000009F090E08091E8008E778093E800CBCFAD
:1047100084918093F1003196615071092F5F3F4F72
:10472000E6CF8091CB06882341F0853041F080911F
:10473000E80083FFBDCF81E0089582E0089583E023
:104740000895982F973028F08F708093E90081E0CA
:1047500008959093E900242F762F50E0981731F0B8
:104760007091EC002091ED005091F00021FD02C00D
:104770009F5FE8CF3091EB003E7F3093EB003091AC
:10478000ED003D7F3093ED003091EB0031603093D0
:10479000EB007093EC002093ED005093F00020911B
:1047A000EE0027FDE5CF80E008958091CC0687FFDD
:1047B00013C08091E80082FF06C08091E8008B77EB
:1047C0008093E80004C08091CB068111F2CF089558
:1047D0008091CB068823D9F38091E80080FFF8CF41
:1047E0008091E8008E77ECCF2091E4003091E500D5
:1047F00095E6A9012091EC00822F817020FF06C070
:104800008091E80080FF06C080E008952091E800D4
:1048100022FD1AC08091CB06882389F0853089F06B
:104820008091EB0085FD0FC02091E4003091E50000
:1048300042175307F9F29150E1F684E0089582E0BF
:10484000089583E0089581E008950E9494240E94D1
:104850009C24E0EEF0E0808181608083E8EDF0E070
:1048600080818F77808319BCA7EDB0E08C918E7F1B
:104870008C9380818F7E80831092CA0608950F9357
:104880001F93CF93DF930E9494240E949C24C8ED31
:10489000D0E088818F778883888180688883888149
:1048A0008F7D888319BC1092CB061092C706109298
:1048B000C9061092C80600EE10E0F80180818B7FD7
:1048C000808388818160888342E060E080E00E948C
:1048D000A123E1EEF0E080818E7F8083E2EEF0E0C4
:1048E000808181608083808188608083F8018081FD
:1048F0008E7F8083888180618883DF91CF911F9133
:104900000F910895E8EDF0E080818F7E8083E7EDE0
:10491000F0E080818160808384E082BF81E08093C9
:10492000CA060E943F240895E8EDF0E080818E7F62
:1049300080831092E20008951092DA001092E10054
:1049400008951F920F920FB60F9211242F933F9349
:104950004F935F936F937F938F939F93AF93BF9387
:10496000EF93FF938091E10082FF0BC08091E20002
:1049700082FF07C08091E1008B7F8093E1000E945D
:1049800000278091DA0080FF19C08091D80080FF55
:1049900015C08091DA008E7F8093DA008091D90073
:1049A00080FF96C080E189BD82E189BD09B400FE27
:1049B000FDCF81E08093CB060E94BB208091E10077
:1049C00080FF19C08091E20080FF15C08091E20055
:1049D0008E7F8093E2008091E20080618093E2000C
:1049E0008091D80080628093D80019BC85E08093C4
:1049F000CB060E94CF208091E10084FF2BC08091E4
:104A0000E20084FF27C080E189BD82E189BD89B5CC
:104A1000982F917080FFFBCF8091D8008F7D80937D
:104A2000D8008091E1008F7E8093E1008091E200C8
:104A30008F7E8093E2008091E20081608093E200AB
:104A40008091C706882309F449C084E08093CB068F
:104A50000E94D8208091E10083FF29C08091E2006C
:104A600083FF25C08091E100877F8093E10082E091
:104A70008093CB061092C7068091E1008E7F8093D1
:104A8000E1008091E2008E7F8093E2008091E2005D
:104A900080618093E20042E060E080E00E94A12318
:104AA0008091F00088608093F0000E94CC20FF91FC
:104AB000EF91BF91AF919F918F917F916F915F9196
:104AC0004F913F912F910F900FBE0F901F9018950F
:104AD00019BC1092CB060E94C92070CF8091E300D0
:104AE00087FD93E09093CB06B3CF1F920F920FB642
:104AF0000F9211242F933F934F935F936F937F9364
:104B00008F939F93AF93BF93CF93DF93EF93FF93D5
:104B1000D091E900DF708091EC00C82FC17080FD5A
:104B2000C0E81092E9008091F000877F8093F00048
:104B300078940E94B9251092E9008091F000886075
:104B40008093F000CD2BCF70C093E900FF91EF91DF
:104B5000DF91CF91BF91AF919F918F917F916F9195
:104B60005F914F913F912F910F900FBE0F901F902B
:104B70001895AAE2B0E0EFEBF5E20C943C278CEC40
:104B800096E02091F100FC012193CF01F6E0843DF5
:104B90009F07B9F70E94F8208091E80083FF1EC1AB
:104BA0008091CC069091CD069A3008F017C1E92F7C
:104BB000F0E0E35FF74D0C942727803899F08238B6
:104BC00009F00CC18091D0068F70873008F006C1C3
:104BD0008093E9008091EB0085FB882780F9109293
:104BE000E90006C08091C8069091C90691118260C3
:104BF0009091E800977F9093E8008093F1001092E5
:104C0000F1008091E8008E77E5C0882309F4D3C0D5
:104C1000823009F0E3C08091CE068111D6C0809128
:104C2000D0068F702FEF280F263008F0D7C0809362
:104C3000E9002091EB0020FFC8C0933031F480914F
:104C4000EB0080628093EB00C0C09091EB0090611C
:104C50009093EB0021E030E001C0220F8A95EAF743
:104C60002093EA001092EA008091EB008860EACF7E
:104C70008111B4C01091CE061F778091E300807837
:104C8000812B8093E3008091E800877F8093E80088
:104C90000E94D5238091E80080FFFCCF8091E30043
:104CA00080688093E30082E0111183E08093CB065B
:104CB00095C08058823008F091C08091CE069091C6
:104CC000CF068C3D23E09207A1F583E08A838AE238
:104CD00089834FB7F894DE01139620E03EE051E25D
:104CE000E32FF0E050935700E49120FF03C0E295DA
:104CF000EF703F5FEF708E2F90E0EA30C0F0C79604
:104D00008D939D932F5F243159F74FBF8091E80019
:104D1000877F8093E8006AE270E0CE0101960E94EE
:104D2000E4228091E8008B778093E80057C0C0961A
:104D3000E7CF6091D0067091D106AE014F5F5F4F13
:104D40000E940222BC01892B09F448C09091E8001E
:104D5000977F9093E80089819A810E944223E1CF56
:104D60008038E1F58091E800877F8093E8008091AA
:104D7000C7068093F10045CF811130C09091CE06D7
:104D8000923060F58091E800877F8093E8009093EF
:104D9000C7060E94D5238091C706882311F084E0BE
:104DA00005C08091E30087FDFACF81E08093CB06B8
:104DB0000E94E32013C08091CE06813079F481E017
:104DC000933009F080E08093C9061092E900809149
:104DD000E800877F8093E8000E94D5238091E80057
:104DE00083FF0AC08091E800877F8093E80080916C
:104DF000EB0080628093EB00AA96E3E00C945827C6
:104E00000895CF938091CB068823A1F0C091E9004B
:104E1000CF709091EC00892F817090FD80E8C82BB5
:104E20001092E9008091E80083FD0E94B925CF70BF
:104E3000C093E900CF9108950E9425241092CB06DB
:104E400008958091E300881F8827881F0895EE0F3A
:104E5000FF1F0590F491E02D09942F923F924F92FD
:104E60005F926F927F928F929F92AF92BF92CF92FA
:104E7000DF92EF92FF920F931F93CF93DF93CDB703
:104E8000DEB7CA1BDB0B0FB6F894DEBF0FBECDBF7B
:104E900009942A88398848885F846E847D848C844C
:104EA0009B84AA84B984C884DF80EE80FD800C8155
:104EB0001B81AA81B981CE0FD11D0FB6F894DEBF38
:104EC0000FBECDBFED010895FB01DC0104C08D9143
:104ED0000190801921F441505040C8F7881B990B6C
:104EE0000895FB01DC0102C001900D924150504039
:104EF000D8F70895F999FECF92BD81BDF89A992708
:104F000080B50895A8E1B0E042E050E00C94BE27DF
:104F1000DC01A40FB51F4150504048F0CB01840F75
:104F2000951F2E910E94992741505040D0F7089527
:104F3000262FF999FECF92BD81BDF89A019700B452
:104F4000021639F01FBA20BD0FB6F894FA9AF99AF2
:104F50000FBE08950396272F0E9499270E94982735
:104F6000252F0E949927242F0C9499270196272FEB
:104F70000E9499270C949827DC01CB01FC01F99938
:104F8000FECF06C0F2BDE1BDF89A319600B40D9295
:104F900041505040B8F70895F894FFCFFA02020349
:104FA000C302CE02D602DE02E6020A031503200384
:104FB0001F061F066F066F06D4064E064E064E06E7
:104FC000F0066107700770074916BD1651161B16CB
:104FD0001F1655162316591665162F16B6163316B4
:104FE000691637166D1695163B1671169C164116E6
:104FF00077167F1627165D162B16611645167B163B
:105000008B16A516B41615164D16C416A51CAB1C8A
:10501000941C9F1CB11CB71CBD1CDD250526EE266B
:0E5020000526EE2638265926EE26B026BC269A
:10502E000201C301B301A301930183017301630163
:10503E000000B7023294F691F4C63390F59336978A
:10504E003166F73435FFFFFF01000000010000005C
:10505E000000000004010000000405000000000034
:10506E00007706FE02017820A7207B20A02001F405
:10507E0091F6943293F59033C6F766319736353400
:10508E00FFFFFF210022FBFF00222000070000008F
:10509E00000000100222FBFF002238000700000073
:1050AE00000000380222FFFF00221E02070000004F
:1050BE00000000360222FBFF00223700070000002E
:1050CE00000000370022FFFF00221302070000003D
:1050DE00000000100022FBFF002236000700000037
:1050EE00000000360022FFFF002213000700000020
:1050FE00000000E200E900EA00B500B600B700CDFE
:10510E00008301CC008A0192019401210223022422
:10511E00022502260227022A02B300B4006F007095
:10512E00009F01CB019F02A002818283E200E90071
:10513E00EA00B500B600B700CD008301CC008A01AD
:10514E009201940121022302240225022602270243
:10515E002A02B300B4006F0070009F01CB019F02C2
:08516E00A002818283DE020031
:00000001FF
