:100000000C949A020C94B7020C94B7020C9435200D
:100010000C94B7020C94B7020C94B7020C94B7027C
:100020000C94B7020C94B7020C9465270C943928F1
:100030000C9479220C94B7020C94B7020C94B7027A
:100040000C94B7020C94B7020C94B7020C94B7024C
:100050000C94B7020C941C230C94B7020C94B702B6
:100060000C94B7020C94B7020C94B7020C94B7022C
:100070000C94B7020C94B7020C94B7020C94B7021C
:100080000C94B7020C94B7020C94B7020C94B7020C
:100090000C94B7020C94B7020C94B7020C94B702FC
:1000A0000C94B7020C94B7020C94B7020102E2015F
:1000B000016201015901015F01015E0103E20014C7
:1000C000001A0008001500170004001600070009B8
:1000D000000A001D001B280624192105002B412AB7
:1000E000220000000000001C0018000C0012003468
:1000F000000B000D000E000F003300110010313610
:1001000034373838022C4228430000000000001F1A
:100110000220021F0621022202360237022602278F
:100120000224020C040F0406040E04350400004CE3
:100130000000000000000000002E002D002E0235FF
:100140000031022F0230022F00300035022D02381C
:1001500000250225062C092C0800000000000016CE
:100160000AAC00AE00AB0000002900AA00A800A95C
:10017000000000B00CE300E200E40044520000E1A3
:1001800000000000000000000050012B082B014F70
:100190000100005000510052004F00000050085074
:1001A000044F044F08000000000000000000003A67
:1001B000003B003C003D003E003F0040004100424B
:1001C00000430044004500680069006A002C0800F4
:1001D00000000000000000000059005A005B000011
:1001E0000062005C005D005E00000000005F0060D7
:1001F000006100000000000000000000000000148A
:10020000001A000800150017000400160007000976
:10021000000A001D001B210624192805002B452A71
:10022000220000000000001C0018000C0012003426
:10023000000B000D000E000F0033001100103836C7
:1002400034373138022C4628470000000000001FD8
:10025000022002221421022202360237022602273D
:100260000224020A141B1406140914161400004C6C
:100270000000000000000000002E002D002E0235BE
:100280000031022F0230022F00300035022D0238DB
:10029000002502407E37082C0400000000000046C4
:1002A00000AC00AE00AB0000002900AA00A800A925
:1002B000000000A500E400E200E30040520000E17D
:1002C00000000000000000000050092B042B014F2B
:1002D0000900005000510052004F0000004A005039
:1002E000014F014D00000000000000000000003A36
:1002F000003B003C003D003E003F0040004100420A
:1003000000430044004500680069006A002C0400B6
:1003100000000000000000000059005A005B0000CF
:100320000062005C005D005E00000000005F006095
:10033000006100000000000000000000000000005C
:10034000000000000000002A2B2800000000000030
:100350000000000000000000000029000000002C48
:100360001E3420212224342627252E362D373827E7
:100370001E1F202122232425263333362E37381FF3
:100380000405060708090A0B0C0D0E0F10111213B5
:100390001415161718191A1B1C1D2F3130232D3553
:1003A0000405060708090A0B0C0D0E0F1011121395
:1003B0001415161718191A1B1C1D2F3130354C0037
:1003C000000000000000000000000000000000002D
:1003D000000000000000000000000000000000001D
:1003E0000000007E0F00D4FFFFFFC700000078125E
:1003F000034B006100680062006F006100720064DE
:10040000000000220341006E0074006F0069006E5E
:100410000065004B00610068006C006F00750063B0
:10042000006800650000000403090409023B0002A3
:100430000100A0FA090400000103010100092111D3
:1004400001000122400007058103080001090401A1
:10045000000103000000092111010001227B0007B7
:100460000582032000011201000200000008ABC257
:10047000393901000102000105010902A1018502CB
:100480000901A10005091901290815002501950890
:10049000750181020501093009311581257F950219
:1004A0007508810609381581257F95017508810633
:1004B000050C0A38021581257F950175088106C053
:1004C000C005010980A101850319012AB7001501A2
:1004D00026B700950175108100C0050C0901A10126
:1004E000850419012AA002150126A00295017510A4
:1004F0008100C005010906A101050719E029E715DA
:100500000025019508750181029501750881010595
:1005100007190029FF150026FF00950675088100C0
:1005200005081901290595057501910295017503C5
:100530009101C00011241FBECFEFDAE0DEBFCDBFB6
:1005400012E0A0E0B1E0E2E0F6E502C005900D9215
:10055000AE31B107D9F723E0AEE1B2E001C01D92A0
:10056000A433B207E1F70E9415160C94B82A0C9434
:10057000000080349E4759F4FB018581882339F0BF
:100580000E94DC0760E08CEA90E00E94911B81E011
:1005900008958830B8F46830A8F4453098F450E0F5
:1005A00095E0699F400D511D1124FA0198E2899F41
:1005B000E00DF11D1124EE0FFF1FE154FF4F859157
:1005C0009491089581E090E008950E94C9020895F1
:1005D0009C013A9521153F4150F5FC01EE27F17041
:1005E000BC0166277270AC01442754709C0122271D
:1005F000387094FF0EC080E1EF2B09F480E0672B88
:1006000009F08062452B09F08064232B89F0806813
:10061000089581E0EF2B09F480E0672B09F08260F8
:10062000452B09F08460232B19F08860089580E041
:100630000895CF93DF93EB010E94E802FE01099534
:10064000DF91CF910895CF93DF93EC01805E910904
:10065000089720F068EB77E0209711F46AE775E0DF
:10066000CE010E9419038C2F0E94D904DF91CF91F3
:100670000895CF93DF93EC010E942605CE01805EA2
:100680009109089720F06FEB77E0209711F461E86B
:1006900075E0CE010E941903DF91CF9108950F9369
:1006A0001F93CF93DF938C01EB010E9423032097CC
:1006B00041F4C8010E943903DF91CF911F910F913E
:1006C00008958FE99FE00197F1F700C0000021979E
:1006D000EECF70E060E08933910511F460E570E0E1
:1006E0000E944F03089581E008950E9473030895C6
:1006F00081E008950E94B902089508950E947D0343
:100700000895A6E0B0E0E7E8F3E00C94142A4983EA
:100710005A839E833091250289819A8131111AC0B2
:100720003E81332399F0222389F00E942B09182F50
:10073000682F89819A810E94070969817A81812FB6
:100740000E9461102696E3E00C94302A0E94190959
:10075000182FF3CF0E942B0969817A81F1CFFC0118
:10076000262F4081518162817381848195810E940D
:1007700081030895CF93DF93EC0161E00E94AF0302
:10078000BE010E947503DF91CF910895CF93DF934F
:10079000EC0160E00E94AF03BE010E947E03DF9186
:1007A000CF91089508950E94DC070E94D2032FEF95
:1007B00084E39CE0215080409040E1F700C00000BD
:1007C00008950E94D3030E94402308950E94D303FA
:1007D0000E94512308950F931F93CF93DF938C01B1
:1007E00061E00E94AF03EC01B8010E947A0381111D
:1007F00006C080E0DF91CF911F910F910895B8015D
:10080000CE010E943E1D8823A1F3B801CE010E94B3
:10081000CC18882371F3B801CE010E94511F8823A0
:1008200041F3B801CE010E944D1A882311F3B8019B
:10083000CE010E94F91B8823E1F2F801858188230B
:1008400061F0C330FCE7DF07E9F058F4C115ECE7CD
:10085000DE07A9F0C130DC47B9F0C8010E94780377
:10086000C9CFCB358CE7D807A9F0CC35ECE7DE074C
:1008700071F0CA35DC4789F70E94AE0DEECF0E94B9
:10088000E103B7CF0E94B60D0E94E603B2CF0E94EB
:10089000A40DE3CF0E94B20DE0CF0E9456220E9429
:1008A000740408950E9478040E945B2208950895BC
:1008B00081E008950895CF93DF93D82F0E945804C4
:1008C000C82F882319F08D2F0E945A048C2FDF9196
:1008D000CF9108950895CF93C82F0E9457048C2F6D
:1008E0000E945B04CF91089580E00E946B040895FC
:1008F0000E945B210E946B040895CF930E945B21AC
:10090000C82F809120028C1779F0C09320020E949A
:10091000E522609321027093220280932302909338
:1009200024028C2F0E946B04CF910895ADE0B0E0BB
:10093000ECE9F4E00C94152A488759876A877B878D
:100940008C879D8791110E94AC0C1F8286E0FE016E
:100950003896DE01119601900D928A95E1F78D810E
:1009600081110DC029813A814B815C816D817E812D
:100970008F810E94D30B2D96E2E00C94312ACE0198
:1009800001960E94BA038111EDCFF5CFFC012481BD
:10099000213021F4808191810E945D0908956623B0
:1009A00029F00E9499160E946C1708950E94F31670
:1009B000FACFCF93C82F8823B9F08CEF8C0F813AF0
:1009C000A8F46C2F80910C0190910D010E94E721F9
:1009D000882329F08C2F0E94600C0E94010D8C2F1F
:1009E0000E94580C0E94010DCF91089580E28C0F57
:1009F000883048F4C77081E001C0880FCA95EAF7D3
:100A00000E94860CEFCFEBE5EC0FE33040F4F0E012
:100A1000E152FE4F808190E00E948B21E5CFE8E516
:100A2000EC0FEB3150F4F0E0EE0FFF1FE755FE4FF7
:100A3000808191810E94B021D7CF83E38C0F8331D5
:100A400098F661E08C2F0E94CF04CECF882381F1ED
:100A50009CEF980F913A28F40E94600C0E94010DBF
:100A6000089590E2980F983050F4877091E001C09B
:100A7000990F8A95EAF7892F0E948C0CEFCF9BE59E
:100A8000980F933028F490E080E00E948B21089525
:100A900098E5980F9B3128F490E080E00E94B02107
:100AA000089593E3980F933118F460E00E94CF0407
:100AB00008951F93CF93DF93182FEB010E94D90461
:100AC000209739F4812F0E942605DF91CF911F9145
:100AD00008958FE99FE00197F1F700C0000021978A
:100AE000EFCF70E060E0893311F460E570E00E94C0
:100AF00059050895882321F00E94860C0E94010D5B
:100B00000895882321F00E948C0C0E94010D089505
:100B1000B0E0A0E0EEE8F5E00C940E2A6C01D62FD0
:100B2000C72FFC011581068102950F700E947C0C75
:100B3000E82E8823E9F0E12E1123D1F08C2F807F5D
:100B4000803451F080E28D0F8830F8F0011104C03C
:100B50008C2F807E8032C9F080910D0382FF15C0FA
:100B600082E00E94780D0E947C0C91E0E82EE9263C
:100B7000BC2EB2949FE0B922FBE0FB15B8F1EB2D3F
:100B8000F0E0E654F54D0C94FF29E12CF1CF0C2F49
:100B90000F70C07F11F00295007F112399F00023A0
:100BA00059F080E28D0F883010F0D11107C0802FEE
:100BB0000E94860C0E94010D8D2F5AC0802F0E942A
:100BC0009C0CF8CF8D2F0E942605002379F080E23F
:100BD0008D0F883010F0D11104C0802F0E948C0C32
:100BE00003C0802F0E94A20C0E94010DEB2DE85043
:100BF000FF0B349720F40E945B210E946B04EE20CF
:100C000089F00E94780C80FD0DC0F60115820E94CB
:100C1000720C0E946508C6010E9495070E94720C22
:100C20000E947508CDB7DEB7E9E00C942A2A2C2F74
:100C30002F70F22EC07FC03219F0F29480EFF822AC
:100C4000DD2341F0D130D1F1112309F444C0002358
:100C5000F1F0B2CF80910D0382FD15C0112359F040
:100C6000FF2029F08F2D0E94860C0E94010D80E04C
:100C70000E94D904BBCF80E00E942605FF2009F422
:100C8000B5CF8F2DABCF112369F0011104C08F2D8B
:100C90000E947A05ABCF013009F0A8CF8F2D0E94BA
:100CA000D20CA4CF0111A2CF8F2D0E9481058F2DD0
:100CB0000E94DE0C8F2D0E94C20C98CF112321F0D0
:100CC000063008F093CFE3CF053008F08FCF8F2D9B
:100CD0000E9481058BCF0023D1F3D93349F43FEF34
:100CE00087EE93E0315080409040E1F700C0000073
:100CF0008D2F0E9426057ACF8C2F8695869583703E
:100D000069F0813009F072CF8D2F9C2F93701111F3
:100D100002C080E090E00E94B02168CF8D2F9C2F10
:100D20009370111102C080E090E00E948B215ECF91
:100D3000612F8D2F0E94CF0459CF8C2F8370A1F586
:100D4000111154CF4D2F429546954770440F440FD3
:100D50002D2F2F7030E0042E02C0220F331F0A9473
:100D6000E2F790E080E0D4FF09C08FE090E002C09D
:100D7000880F991F4A95E2F780959095C695C6957C
:100D8000C370822B932BC23049F058F4C13019F054
:100D90000E9435082BCF0E942C0828CF0E943E08C5
:100DA00025CF0E94290822CF8695112311F08C2F80
:100DB0008170882309F41ACF4D2F429546954770CC
:100DC000440F440F2D2F2F7030E0042E02C0220F4D
:100DD000331F0A94E2F790E080E0D4FF09C08FE06F
:100DE00090E002C0880F991F4A95E2F78095909590
:100DF000C695C695C370822B932BC23049F058F428
:100E0000C13019F00E94A008F1CE0E949708EECEE2
:100E10000E94A908EBCE0E944D08E8CECF701123A6
:100E200029F08C2F0E9465088D2F32CF8D2F0E94C4
:100E300081058C2F0E947508D9CED23F41F160F414
:100E4000D03FB9F0D13F81F0112309F446C0011120
:100E5000B3CE8C2F8F711FC0D33F01F1D43FA1F7C8
:100E600080910D0382FD24C08C2F8F71112311F30B
:100E700012C0112341F0053008F0B8CE8C2F8F71CD
:100E80000E948708B3CE063008F0B0CEF7CF8C2F83
:100E90008F711111CFCF0E946508A8CE112329F0C0
:100EA0008C2F8F710E945908A1CE0E9454089ECEAB
:100EB000112349F0CF718C2F0E94650863E08C2FBD
:100EC0000E945A0D93CE81E00E94780D023008F402
:100ED0008DCE82E00E94780D89CE002359F0D9335F
:100EE00009F006CFEFEFF7EE23E0E150F0402040AD
:100EF000E1F7FCCE8C2F8F719DCF0F931F93CF9373
:100F0000DF93EC01688179818D810E9468098C01F1
:100F10000E94B2080E942808B801CE010E948805EC
:100F2000DF91CF911F910F910895CF93DF93EC0143
:100F30008C81882399F0CE010E94EB03811111C0AE
:100F40000E947C0C882351F08D81882339F0809198
:100F50000D0382FF03C082E00E94780DDF91CF91E4
:100F60000895CE010E947D07CE010E94C603F6CFF0
:100F7000882321F00E949C0C0E94010D0895882373
:100F800021F00E94A20C0E94010D089590E080E0E3
:100F90000E948B2190E080E00E94B0210E94AC0C66
:100FA0000E94010D0E9488170E946C1708950E94EC
:100FB000680C0E94C60708950E94960C0E94D707ED
:100FC000089592959F70963091F058F4925F9F70BB
:100FD000923058F4803F19F030F4883E30F481E0CC
:100FE00008959A5FF4CF843FD1F380E00895883E5E
:100FF000B0F3813FD1F7F3CFFC012481222339F0F4
:10100000808191810E945D090E94E107089580E03E
:101010000895A6E0B0E0EFE0F8E00C94152A2696DB
:10102000E2E00C94312AA7E0B0E0E9E1F8E00C94AA
:10103000152A2796E2E00C94312A08950E941D0893
:1010400008950E941E0890933D0280933C020895EB
:1010500008950E942108089520913C0230913D029C
:10106000822B932B0E942108089520913C023091FD
:101070003D02822393230E942108089520913C027F
:1010800030913D02822793270E94210808950E94F3
:101090001D0808950E94470808950E944A089093E9
:1010A0003B0280933A02089590E080E00E944D0850
:1010B000089521E030E0A90102C0440F551F8A9530
:1010C000E2F7CA010E944D08089521E030E002C015
:1010D000220F331F8A95E2F780913A0290913B02EA
:1010E000822B932B0E944D08089521E030E002C02E
:1010F000220F331F8A95E2F72095309580913A02AE
:1011000090913B02822393230E944D08089521E091
:1011100030E002C0220F331F8A95E2F780913A0235
:1011200090913B02822793270E944D0808952091B9
:101130003A0230913B02822B932B0E944D08089576
:1011400020913A0230913B02822393230E944D0862
:10115000089520913A0230913B02822793270E9402
:101160004D0808950895262F277091E001C0990F2A
:101170002A95EAF723E0769567952A95E1F7660FB9
:10118000771F660F771FFA01E60FF71F50E040E068
:10119000682F70E08191DF0111979B01042E02C03E
:1011A000369527950A94E2F721702195282729235F
:1011B00028272C934F5F5F4F4430510559F708950E
:1011C000A82FA77023E0969587952A95E1F7880FB9
:1011D000991F880F991FFB01E80FF91F50E040E0AD
:1011E00080E0219130E00A2E02C0369527950A94BE
:1011F000E2F721703327042E01C0220F0A94EAF788
:10120000822B4F5F5F4F4430510559F70895262FC9
:10121000983070F4853060F4682F70E085E0989F16
:10122000600D711D112446E252E0822F0E94B30826
:101230000895292F983068F4853058F490E066E2DC
:1012400072E035E0239F800D911D11240E94E0087B
:10125000089580E00895B0E0A0E0E1E3F9E00C94A7
:101260000E2A7C0100913A0210913B0280913C02CF
:1012700090913D02082B192BCFE0D0E0CC24C394F1
:10128000D12CBC2EC6010C2E02C0880F991F0A94C7
:10129000E2F780239123892B49F4219790F7B12C11
:1012A0008B2DCDB7DEB7E9E00C942A2AB7018C2F3D
:1012B0000E946D10019789F3F3CFCF93DF93EC0178
:1012C0000E942B09BE010E946D10DF91CF910895FD
:1012D0001F93CF93DF93EB0190912502992339F06F
:1012E000CB010E945D09DF91CF911F910895882362
:1012F00069F0CB010E942B09182F682FCE010E94A4
:101300000709BE01812F0E946D10EDCFCB010E9415
:101310001909182FF6CF1F93CF93DF93C0913E0288
:1013200017E080913F028C1304C0DF91CF911F9191
:101330000895D0E01C9FF0011D9FF00D1124E05C8A
:10134000FD4F208131814281538164817581868185
:101350000E9413082196C770E4CF20917802309143
:10136000790240917A0250917B0260917C027091E7
:101370007D0280917E020E9413080895CF93DF932F
:1013800080917E02807F09F04DC080917D0288238C
:1013900009F448C0E0913E0250913F02C0917902A9
:1013A000D091780260917A0270917B0247E05E17DB
:1013B000C9F18E2F90E0E49FF0011124E05CFD4F15
:1013C0002481222391F1489FF001499FF00D1124BF
:1013D000DF01A05CBD4F11962C9111972C1325C0F5
:1013E0002C912D1322C015962C91159721111DC0FB
:1013F00012962D913C91261B370B283C3105A8F401
:1014000080917E028F70806180937E02EA5BFD4F47
:1014100080818F708061808388E792E00E949507C9
:101420000E948B09DF91CF910895FC013196E770FE
:10143000BECF482F20913E0290913F0257E02913E2
:1014400002C080E0089530E0529FF001539FF00DFC
:101450001124E05CFD4F8181681306C08081481330
:1014600003C085818111EECF2F5F3F4F2770E7CFFB
:10147000A4E1B0E0EEE3FAE00C940B2A8C0186E0E4
:10148000F801DE011F9601900D928A95E1F7D801CF
:1014900014968C9114971596EC90159798E7A92EB1
:1014A00092E0B92E90917C0291111FC08823D1F057
:1014B000EE20A9F0C8010E94FC07F82E882379F0DD
:1014C00087E0F801D50101900D928A95E1F7C501F9
:1014D0000E94C6040E94BE090E94AD093DC0C80119
:1014E0000E949507FF24F39437C0F801C080D18093
:1014F00082809380F0907D0220917A0230917B026D
:10150000A401421B530BFF2009F4F6C0483C5105CF
:1015100008F0A5C0882301F19091790280917E02A4
:10152000282F207F09F067C09D111BC09091780281
:101530009C1117C0E11059C08F70806180937E02AA
:101540000E94AD0988E792E00E94950780917E0293
:10155000D80116968C93F12C8F2D6496ECE00C94A8
:10156000272AE11042C06D2D8C2D0E94190AE82E09
:10157000882371F088E792E00E94950787E0E8E70A
:10158000F2E0DF011D928A95E9F70E94AD09E3CFF1
:10159000CF86D88A8F8598890E945D09292F229548
:1015A0002F70243058F49F70223088F0992399F0DE
:1015B000F8019681907F79F4FE2CCECF2A5F2F70B0
:1015C000223068F0C8010E949507EF2CF5CF9923CF
:1015D00011F0882389F3805E883070F3F3CF803F69
:1015E00058F3815F833070F7E7CF80917E0281608E
:1015F00080937E02B0CF9D1107C0909178029C111C
:1016000003C0EE2009F49CC0C8010E94FC07882397
:1016100009F465CFEE2009F462CF80917E0280321A
:1016200088F02091780230917902398728879B864B
:101630008A8690917C029C871D868E87CE010896B3
:101640000E94950787E0F801A8E7B2E001900D92AB
:101650008A95E1F70E94BE090E94AD0943CF90919F
:101660007E02292F207F91F4682D9A8A898AA6010B
:101670007A899E2D0E94090888E792E00E949507CA
:1016800087E0F50111928A95E9F77FCF882309F465
:1016900063CF809179028D1111C0809178028C11F5
:1016A0000DC0E1100BC016969C93C8010E949507CF
:1016B00087E0F50111928A95E9F74ECFC8010E94A3
:1016C000FC07882309F40BCFEE2009F408CF8091A2
:1016D0007E02803208F4B6CF2091780230917902F0
:1016E0003A8329839C828B8290917C029D831E8207
:1016F0008F83CE010196A4CF483C510508F045C028
:10170000882309F4EFCEFE2CEE2009F4E8CE809178
:1017100079028D112CC0809178028C1128C08091A3
:101720007E0280FD1BC0982F907FC1F016968C938F
:101730001697903F39F0982F907F905F8F70892B8C
:1017400016968C93C8010E94950787E0F801A8E7D8
:10175000B2E001900D928A95E1F7BECE87E0F801E4
:10176000A8E7B2E001900D928A95E1F7F5CEC801A5
:101770000E94FC07811166CF80917E028160809378
:101780007E02C8010E949507E7CE682D9A8A898A51
:10179000A6017A899E2D0E94090887E0F501119221
:1017A0008A95E9F799CEAEE0B0E0E9EDFBE00C9464
:1017B000142A288739874A875B876C877D878E87BD
:1017C000CE0108960E94380A8823B1F06C85662302
:1017D00041F0288539854A855B857D858E850E9407
:1017E000130817E080913E0290913F0289133DC09B
:1017F0002E96E3E00C94302A87E0FE013896DE0155
:10180000119601900D928A95E1F78C85882349F312
:1018100020913F0230E0C9010196877099274091DD
:101820003E024817190699F097E0929FD001939FC6
:10183000B00D1124A05CBD4FFE01319601900D92B8
:101840009A95E1F780933F020E948B09CACF0E94CC
:10185000DC0710923F0210923E0287E0E8E7F2E0D8
:10186000DF011D928A95E9F7BCCF819FC001112449
:10187000805C9D4F0E94380A882309F4B9CFE0911B
:101880003E021E9FF0011124E05CFD4F208131815A
:10189000428153816481758186810E941308809101
:1018A0003E0290E001968770992780933E029ACF7E
:1018B000682F80910C0190910D010E941D220895C6
:1018C000682F80910C0190910D010E9420220895B3
:1018D00080910C0190910D010E9423220895809126
:1018E0008802089580918702869586958695089549
:1018F000809187028770089590918702977081E0A8
:1019000009F480E0089580919502089590919502E0
:10191000892B809395020895809590919502982344
:1019200090939502089580939502089510929502E0
:10193000089580919402089590919402892B809348
:101940009402089580959091940298239093940224
:1019500008958093940208951092940208958093BC
:10196000930208951092930208958093920208952D
:1019700010929202089580918902089508950E941C
:10198000BE0C089590918802292F282331F080956C
:101990008923809388020E94BF0C089508950E94B5
:1019A000CE0C089590918902292F2823281729F019
:1019B000982B909389020E94CF0C089590918902F0
:1019C000292F282331F080958923809389020E9452
:1019D000CF0C089590910D0392FF08C09091890259
:1019E000981721F0809389020E94CF0C089580916E
:1019F0008902882329F01092890280E00E94CF0C8E
:101A00000895CF93DF93E0910C01F0910D01809147
:101A100095028083E0910C01F0910D0180819091FD
:101A20009402892B808390918902992381F0E0911F
:101A30000C01F0910D018081892B808380910C0134
:101A400090910D010E94D52181110E94F70CE09127
:101A50000C01F0910D0180919202982F9095808158
:101A600089238083E0910C01F0910D018081909198
:101A70009302892B8083C0910C01D0910D0148E025
:101A800050E06FE772E0CE010E94502A892B59F096
:101A900088E0FE01AFE7B2E001900D928A95E1F790
:101AA000CE010E947221DF91CF91089508950E9486
:101AB000560D089590910D0392FF11C098E0899FF3
:101AC00090011124622B609387020E946508809127
:101AD00087028695869586950E94570D08950E94E7
:101AE000650808951092870280E00E94570D0895BE
:101AF000909187028095892380938702282F2770F1
:101B000069F4891759F090910D0392FF07C08695EB
:101B1000869586950E9475080E94720D0895909191
:101B20000D0392FB222720F9281769F080FB92F918
:101B300090930D0380910C0390910D030E94D70D9B
:101B400082E00E94780D089580910D0382FB882722
:101B500080F991E089270E948F0D089581E00E940D
:101B60008F0D089580E00E948F0D08956FEF7FEF35
:101B700090E080E00E94A22A089590E080E00E9418
:101B80006E2A21E0863E9E4F09F020E0822F0895C4
:101B900082E090E00E94662A089583E090E00E942F
:101BA000662A089584E090E00E946E2A0895BC01A0
:101BB00084E090E00E94A22A0895AB01BC018FE06E
:101BC00090E00E94962A0895AB01BC0183E190E069
:101BD0000E94962A089560E070E0CB010E94E40D17
:101BE000089560E070E0CB010E94DD0D0E94EB0DD6
:101BF0000895A8E0B0E0EFEFFDE00C94152A66EE42
:101C00007EEF90E080E00E94A22A60E082E090E017
:101C10000E94842A60E083E090E00E94842A10926F
:101C20003D0210923C0260E074E184E090E00E948A
:101C3000A22A60E086E090E00E94842A6FEF87E0AD
:101C400090E00E94842A40E050E0BA0188E090E0F1
:101C50000E94962A60E084E290E00E94842A60E07C
:101C600087E190E00E94842A60E08CE090E00E948E
:101C7000842A60E08DE090E00E94842A19821A8212
:101C80001B821C821D821E821F82188648E050E043
:101C900068E170E0CE0101960E94742A40E050E0B5
:101CA000BA0180E290E00E94962A0E94F10D2896E7
:101CB000E2E00C94312A0E94F90D0895682F8EE01D
:101CC00090E00E94842A0895A6E0B0E0EAE6FEE0F3
:101CD0000C94132A0E94D9228C0180919602909133
:101CE00097028017910781F019821A820E94D922E7
:101CF000682F49815A81792F80E090E00E949604F4
:101D000010939702009396022696E4E00C942F2AF3
:101D10000E947D116093A4027093A5028093A60295
:101D20009093A7026093A0027093A1028093A202F5
:101D30009093A3020895089508950E949C0E08951B
:101D400008950E94A00E089581E0089587E991E129
:101D50000E9451210E949B0E0E949D0E08950E9498
:101D600083130895089508950E94B20E0E94B30E41
:101D700008950E94C3110E946A040E941C190895CC
:101D80000E94D0220E9457110E94AC130E94B312ED
:101D90000E94B90E0E94A6180E94B6130E94A10EBE
:101DA00008950E94831381110E94021D0895A6E0E8
:101DB000B0E0EDEDFEE00C940C2A0E94A40E81111F
:101DC0000CC00E94640E0E94D10E0E94AA170E94AD
:101DD0007D042696EBE00C94282A0E94071388E9DC
:101DE000A82E82E0B82E750110E0F70101917F0165
:101DF000812F0E94E9111F5F183009F441C00817B4
:101E0000A1F38091A80281FD0E94EF110E94AF0E04
:101E1000C82E10E099249394812F0E94E911082F75
:101E2000F50181915F01081729F1D02ED826F12CF8
:101E3000EE24E3948D2D8E21A9F0CC2099F0F98227
:101E40001A830E94D9229C838B839D8291E0802FEC
:101E50008E2109F490E049815A816B817C818D81CA
:101E60000E949604F394EE0CF5E0FF12E3CFF50127
:101E7000319700831F5F183079F60E94880EA3CF38
:101E80000813BFCF9ECF1F93CF93DF930E94721092
:101E9000EC01C11580E5D807F0F5C11580E4D8073D
:101EA00008F09CC0C03ED10520F5CD3CD10508F01E
:101EB00082C0C83AD10578F4C53AD10508F073C09C
:101EC000C130D10519F1209709F1C430D105F0F4E2
:101ED000D0E0C0E01BC0C33CD105D0F7C85AD0E069
:101EE000CC0FDD1FCE51DE4F0990D881C02DD464B8
:101EF0000DC0C11580E2D80708F0D1C0C11581E03E
:101F0000D80708F05AC0C83ED10510F7CE01DF91BE
:101F1000CF911F910895C03682E5D80718F5C034D7
:101F200082E5D80708F06BC0C03282E5D80708F018
:101F30005FC0C11582E5D80708F497C02C2F2695FD
:101F4000269580E2289F900111248C2F8370C1E098
:101F5000D0E002C0CC0FDD1F8A95E2F7C22BD32B55
:101F6000DD68D4CFC03A82E5D80760F4C03882E596
:101F7000D80708F459C0CF71D0E0DC2FCC27C46F4C
:101F8000D06AC4CFC03C82E5D80708F462C0C03E26
:101F900082E5D80708F09CCFDC2FCC27CC27DF7157
:101FA000C06FD06AB3CFC55AD0E0C85EDD4FC881DC
:101FB000D0E0D064ABCFD065A9CF8D2F0E94141193
:101FC000182FCE0199270E947210C12FD0E0DC2F6C
:101FD000CC27CC27DF71C82BD92B98CFCE019927DE
:101FE0000E947210CC27DF70C82BD92BD06A8ECFFD
:101FF000CF71D0E0DC2FCC27C16FD06A87CF2C2FD8
:1020000026952695277080E2289F900111248C2F19
:102010008370C1E0D0E002C0CC0FDD1F8A95E2F7EB
:10202000C22BD32BDC6872CF2C2F269526952770D8
:1020300080E2289F900111248C2F8370C1E0D0E0B2
:1020400002C0CC0FDD1F8A95E2F7C22BD32BDA68D2
:102050005DCF8C2F8F710E941411C82FD0E0DC2F20
:10206000CC27CC27DF71D06251CF8C2F8F710E948B
:10207000141155E0D695C7955A95E1F7CF70D0E089
:10208000DC2FCC27282F30E084FF05C044E0220F4E
:10209000331F4A95E1F7C22BD32BD06937CF8D2F51
:1020A0008F710E941411182FCE0199270E9472106F
:1020B000C12FD0E0DC2FCC27CC27DF71C82BD92B48
:1020C000D2CF462F783030F4653020F4672F0E944D
:1020D000E502089590E080E008950E9461100E945A
:1020E000430F089582389105B9F1B0F48133910519
:1020F00009F47DC048F48932910509F46DC08A3233
:10210000910509F47BC008958533910509F45FC0FA
:102110008933910509F10895833E9105D9F138F489
:10212000803E910529F1823E910579F10895863E20
:102130009105D9F1873E910509F43EC0843E910591
:1021400041F520910D0321FF24C080910C0384FDF3
:1021500019C087EE90E0089520910C03237009F0D8
:102160005AC020910D0323FF14C089E290E0089526
:1021700020910C0320FD38C030910D0330FF09C0C1
:1021800024FF43C090E080E0089520910C0322FDDD
:10219000F7CF089520910C0322FD3AC030910D0332
:1021A00030FD39C024FFF5CFEDCF20910C0323FF84
:1021B000F0CF24FDE7CFCDCF20910C0323FD2EC01F
:1021C00030910D0331FFEECF84EE90E00895209121
:1021D0000C0325FFDECFC9CF20910C0325FD21C0C4
:1021E00020910D0323FFD5CF89E390E0D2CF20913A
:1021F0000C0326FFCECF8AE290E0089520910C03D5
:1022000026FFC7CF81E390E0089583EE90E0089524
:1022100082EE90E0089580EE90E0089586EE90E0E2
:10222000089585E390E0089590910C0392FF06C015
:10223000282F28712830F9F4877F846093FF06C027
:10224000282F28712831F1F4877E846120910D03B5
:1022500020FF06C0382F38713830D9F4877F81606D
:1022600021FF06C0282F28712831D1F4877E816193
:1022700094FD877E0895282F24712430F9F68B7FF2
:102280008860DCCF282F2471243101F78B7E886190
:10229000DDCF382F3171313019F78E7F8860E0CF74
:1022A000282F2171213121F78E7E8861E1CF109294
:1022B00008031092090310920A0310920B03089569
:1022C000CF92DF92EF92FF926B017C010E94831309
:1022D00081110EC00E94E522C61AD70AE80AF90A3F
:1022E000C0920803D0920903E0920A03F0920B0314
:1022F000FF90EF90DF90CF9008950F931F930E946F
:102300008313882329F00E94E5221F910F910895DD
:102310000E94E522009108031091090320910A030D
:1023200030910B03600F711F821F931FEECF80E06F
:1023300008950E94B60D0895CF930E9407132FEFC2
:1023400086E791E0215080409040E1F700C0000016
:102350000E9407130E94A913C4E08111C0E08C2FD2
:102360000E94E91190E002C095958795CA95E2F721
:1023700080FF04C00E9499110E944023CF910895CC
:102380000E949C1108950E94BD0D811102C00E94FF
:102390005B0E0E94C80D8093A8020E94D20D9093FC
:1023A0000D0380930C030E94C0110E94CD0D90E09C
:1023B0000E94290880913A0290913B020E944A08AB
:1023C000089508950E94E111089508950E94E5116D
:1023D0000895E82FF0E0E95EFC4F808108950895AC
:1023E00008950E94F0110895EF92FF921F93CF93EA
:1023F000DF9300D000D0CDB7DEB70E948313182F33
:1024000060911F03882309F447C019821A821B8236
:102410001C82862F90E09E012F5F3F4F7901B9010A
:10242000895E9C4F0E94C4138823E9F080910E03BB
:1024300090E044E050E0B701895E9C4F0E94502A32
:1024400021E02093A902892BC9F410E00E94E61133
:10245000812F0F900F900F900F90DF91CF911F91D0
:10246000FF90EF9008958091A902882371F384E092
:10247000F70111928A95E9F71092A902E0910E03F3
:10248000F0E0E95EFC4F89819A81AB81BC81808359
:102490009183A283B383DACF70E0695E7C4F809131
:1024A0000E0390E0895E9C4F0E944B140E94F11134
:1024B000CFCF1F93CF93DF932EE031E0C1E0D0E088
:1024C000D90150E040E08D918F3F91F0E82FE295E7
:1024D000EF70F0E011A18F70BE0101C0660F8A9508
:1024E000EAF7962F9095912391A382A1862B82A340
:1024F0004F5F5F4F4530510531F72B5F3F4F81E014
:1025000022323807E9F6DF91CF911F910895CF93DA
:10251000DF93AC01A62FB0E085E0689FF0011124A5
:10252000E25FFE4F75E081E060E091919F3FC9F06E
:10253000C92FC295CF70D0E028A130E09F7002C0B3
:10254000359527959A95E2F720FD0BC0282F622B31
:10255000880F715051F7A40FB51F6C93DF91CF9185
:10256000089520E0F4CFA4E1B0E0E9EBF2E10C94AF
:10257000152A80912201811126C084E1E5E5F1E070
:10258000DE01119601900D928A95E1F7FE013196D8
:10259000AEE0B1E0CE01459620812C9321811196C9
:1025A0002C931197228112962C93129723811396C4
:1025B0002C931397248114962C9314973596159683
:1025C0008E179F0749F78091220194E0811190E0D6
:1025D00090931F0384E0891B80930E030E9459127D
:1025E00088E0E7E1F3E0DF01982F1D929A95E9F783
:1025F000EFE0F3E0DF011D928A95E9F784E00E94A5
:1026000045130E94E2116496E2E00C94312AA8E09E
:10261000B0E0EDE0F3E10C94122A8E010F5F1F4F42
:1026200088E0F80111928A95E9F7F12C6F2DC80125
:102630000E948712F394F4E0FF12F8CF48E050E0D4
:10264000B8018FE093E00E94502A21E0009709F43E
:1026500020E0892B41F088E0F801AFE0B3E0019081
:102660000D928A95E1F760911F0370E0695E7C4FDF
:1026700044E08FE093E00E944613182F0E94F4116B
:10268000812B2896E5E00C942E2A0895CF92DF92B4
:10269000EF92FF920F931F93CF936C017B01042F56
:1026A000222349F081E08093AC020E94D9229093CA
:1026B000AB028093AA02C091AC02C1110AC0C0E073
:1026C0008C2FCF911F910F91FF90EF90DF90CF90C3
:1026D00008958091AA029091AB020E94F122059781
:1026E00070F310E0A801B601C7010E94502A892B9F
:1026F00041F0A801B601C7010E945D2A1092AC0208
:10270000DFCFC0E0FBCFCF93DF938091AF02811189
:1027100017C0C8ECD0E00E94E52981110EC08FE3FC
:102720009CE90197F1F700C000002197A1F782E032
:102730008093AF020E94E02903C081E08093AF0242
:1027400081E09091AF02913009F080E0DF91CF916C
:1027500008950E94831308950E94A9138093220173
:102760000E94831381110E94FA1308950E9483131B
:10277000811102C00E94FD13089581E09091B00282
:102780009A3008F080E008950F931F93CF93DF9362
:10279000EC018B018091B0028A30B8F4B801CE010F
:1027A0000E944814C82F811122C08091B0028F3F2F
:1027B000B9F40E94D9229093AE028093AD028C2F7F
:1027C000DF91CF911F910F9108958091AD0290916B
:1027D000AE020E94F122843F914000F7C0E0EFCFAB
:1027E0008F5F8093B0028A3020F7C1E0E8CF10926B
:1027F000B002E5CF0E94EF1F08950E94F21F0895D6
:10280000B0E0A0E0E6E0F4E10C94102A7901C82FD2
:10281000880FDD0B41155105A9F0FE0193E0EE0F85
:10282000FF1F9A95E1F7ED5DFE4F818192818F54F4
:102830009D4F208130E04217530708F49A01A90107
:102840000E945D2ACE010E94DB20D82E8823D1F081
:1028500001151105B9F083E0CC0FDD1F8A95E1F772
:10286000FE01ED5DFE4F438150E00417150708F4AB
:10287000A801CD5DDE4F6C817D816F547D4FC70116
:102880000E945D2A8D2DCDB7DEB7E7E00C942C2A8F
:102890000E94A51508950E94C6150895A3E0B0E012
:1028A000E4E5F4E10C940F2A6091CD027091CE0220
:1028B0008091CF029091D0020E9400236B017C0195
:1028C00011E084E6C816D104E104F10408F410E034
:1028D0000E94830C898394E6C916D104E104F104B3
:1028E00038F4E0911B02F0911C029185891311E0EC
:1028F0000E94990C8A83111109C0E0911B02F0918A
:102900001C0211E09285981301C010E00E94BB0CDC
:102910008B83111108C0E0911B02F0911C0293857A
:1029200011E08917C9F010E000E030E020E043E05A
:1029300050E0BE016F5F7F4F83E00E940014182FAC
:10294000882351F00E94E5226093CD027093CE025D
:102950008093CF029093D002812F2396E8E00C94CD
:102960002B2AA4E0B0E0E7EBF4E10C94132A609189
:10297000C9027091CA028091CB029091CC020E9450
:10298000002311E0643671058105910518F10E945C
:102990007D116E5F7F4F8F4F9F4F69837A838B834B
:1029A0009C8310E000E030E020E044E050E0BE0115
:1029B0006F5F7F4F82E00E940014182F882351F030
:1029C0000E94E5226093C9027093CA028093CB02F1
:1029D0009093CC02812F2496E4E00C942F2AB0E04F
:1029E000A0E0E5EFF4E10C940D2A7C015B016A01A3
:1029F0000E94BD1301E010E0882311F00AE010E00E
:102A0000C1E0D0E0B501C701F6010995811104C00C
:102A100021960C171D072CF4CDB7DEB7EAE00C9415
:102A2000292ACC9F9001CD9F300D300D112490E0CC
:102A300080E045E34A95F1F700000196821793077D
:102A4000C1F7E0CFA5E0B0E0E8E2F5E10C940D2A93
:102A50005B01E0901B02F0901C0201E010E09E017F
:102A60002B5F3F4F50E040E070E060E080E00E946C
:102A70000014182F882309F44BC067018FEFC81A80
:102A8000D80A6091C5027091C6028091C7029091E8
:102A9000C8020E940023643671058105910580F10A
:102AA00004E010E09E012F5F3F4F50E040E070E0F7
:102AB00060E081E00E940014F82E64E070E0C6013E
:102AC0000E94A71811E09D81981310E01F2159F171
:102AD0000E94E5226093C5027093C6028093C702EC
:102AE0009093C80289819A81AB81BC818093C10295
:102AF0009093C202A093C302B093C40211E013C02A
:102B000064E070E0C6010E94A7189D818913C8CFB8
:102B1000F70181819281A381B48189839A83AB83F8
:102B2000BC831111DFCF8091C1029091C202A091AC
:102B3000C302B091C402F50180839183A283B38361
:102B4000812F2596EAE00C94292A0F931F93CF93A7
:102B5000DF93EC018B0142E255E10E94EF148111F9
:102B600006C080E0DF91CF911F910F91089541EB56
:102B700054E1B801CE010E94EF14882391F34EE492
:102B800054E1B801CE010E94EF14ECCF0F931F93D4
:102B9000CF93DF93C0911B02D0911C02CE0101960E
:102BA00024E0FB01DC0101900D922A95E1F764E03D
:102BB00070E00E94A71888836D817E818F8198853F
:102BC0000091BD021091BE022091BF023091C0025F
:102BD000601771078207930751F06093BD027093ED
:102BE000BE028093BF029093C0020E9460110A85CA
:102BF0001B8589850E94930C802F0E94A90C812F30
:102C00000E94EA0CDF91CF911F910F9108950E94CD
:102C1000B6240E94C00E0E94C32408950E94C824B6
:102C20000E94D70E0E94E22408950E9472220E9400
:102C30009C240E94A60E0E9407160E940E160E9457
:102C4000B40EFBCF8091D70280FF0DC06091480188
:102C500070E0660F771F6038710570F561157105BA
:102C600069F1862F089581FF07C06091480184E0D3
:102C7000689FB0011124EFCF6091480182FD0AC026
:102C80008091D6028823A9F02091470160914801E4
:102C9000821710F088E0ECCF869FC001112433E04A
:102CA000880F991F3A95E1F7622F70E00E94EB2997
:102CB000D2CF68E070E0D5CF8FE7089581E0089526
:102CC0008091D70280FF0CC06091440170E075953F
:102CD0006795759567956115710549F1862F08957A
:102CE00081FF06C06091440170E075956795F3CF50
:102CF0006091440182FD0BC09091D5029923A1F00F
:102D00006091430180914401961738F0682F70E07C
:102D10006038710500F38FE70895899FC001112481
:102D200070E00E94EB29F4CF61E070E0D7CF81E042
:102D300008958D3C31F40E94221681958093DB0228
:102D400008958E3C19F40E942216F8CF8F3C31F47E
:102D50000E94221681958093DA020895803D19F42D
:102D60000E942216F8CF893D29F40E9460168093B4
:102D7000DC0208958A3D21F40E9460168195F7CF08
:102D80008B3D31F40E94601681958093DD02089599
:102D90008C3D19F40E946016F8CF9FE2980F98308E
:102DA00070F4815D990B21E030E001C0220F8A951B
:102DB000EAF78091D902822B8093D90208958D3D44
:102DC00031F48091D70281608093D70208958E3DBF
:102DD00021F48091D7028260F7CF8F3DB9F78091BF
:102DE000D7028460F1CF4091DA028D3C59F4809192
:102DF000DB0287FF0DC01092DB0241110BC0109265
:102E0000D60208C08E3C81F48091DB0218169CF338
:102E1000442381F08091DC029091DD02892B09F03E
:102E20005AC01092D50208958F3C49F447FFF0CF65
:102E30001092DA028091DB028111ECCFE0CF803D6D
:102E400019F41416ACF3E4CF9091DC02893D29F417
:102E50001916F4F61092DC02DBCF8A3D19F497FFC5
:102E6000D7CFF8CF9091DD028B3D29F497FFD0CFDB
:102E70001092DD02CDCF8C3D19F41916CCF3C8CFDA
:102E80009FE2980F983090F4815D990B21E030E03B
:102E9000B90102C0660F771F8A95E2F7CB018095D2
:102EA0009091D90289238093D902B2CF8D3D31F41C
:102EB0008091D7028E7F8093D702AACF8E3D21F4D6
:102EC0008091D7028D7FF7CF8F3D09F0A1CF809100
:102ED000D7028B7FF0CF08950E94D9229C01909158
:102EE000DA028091DB02982B21F03093D4022093F8
:102EF000D3029091DC028091DD02982B21F0309377
:102F0000D2022093D10288ED92E00E947D210895A3
:102F100086E0E8EDF2E0DF011D928A95E9F7109274
:102F2000D6021092D5021092D7020895FC01828138
:102F300081110EC0838181110BC08481811108C071
:102F400091E08581811101C090E0892F8170089501
:102F500081E0FCCFA6E0B0E0E0EBF7E10C94142AAE
:102F600086E0E8EDF2E0DE01119601900D928A957F
:102F7000E1F71092DA021092DB021092DC0210925A
:102F8000DD028B819C81892B89F08091D302909105
:102F9000D4020E94F122AC019091D6029923C9F18A
:102FA000809149018417150608F440C08D819E81E7
:102FB000892B91F08091D1029091D2020E94F1224E
:102FC000AC019091D502992309F471C0809145011B
:102FD0008417150608F479C0BE016F5F7F4F88ED36
:102FE00092E00E942A22811105C088ED92E00E94A1
:102FF000961781110E946C1786E0FE013196A8EDAC
:10300000B2E001900D928A95E1F72696E3E00C94E8
:10301000302A20914A018AE0289F90011124241728
:10302000350720F69F5F9093D60202C09F3FD1F7ED
:103030001B81112359F00E9422169FEF11160CF4E8
:1030400091E0899F802D11248093DA021C81112345
:1030500059F00E9422169FEF11160CF491E0899FFF
:10306000802D11248093DB023091DA02332309F49E
:103070009DCF2091DB02222309F498CF45EB340346
:10308000C0011124992359F09093DA0245EB2403EF
:1030900090011124332339F03093DB0287CF81E094
:1030A0008093DA02F3CF81E08093DB027FCF20911F
:1030B00046018AE0289F900111242417350708F063
:1030C0008BCF9F5F9093D50202C09F3FD1F71D81A8
:1030D000112359F00E9460169FEF11160CF491E035
:1030E000899F802D11248093DC021E81112359F0C9
:1030F0000E9460169FEF11160CF491E0899F802DBD
:1031000011248093DD023091DC02332309F464CF73
:103110002091DD02222309F45FCF45EB3403C00187
:103120001124992359F09093DC0245EB240390017C
:103130001124332339F03093DD024ECF81E08093A8
:10314000DC02F3CF81E08093DD0246CF0895FC01DD
:10315000680F791F8FEF91E36E177F0709F40895C9
:103160002191822728E030E087FF06C0880F892759
:1031700021503109C9F7F0CF880FFACFFB01258123
:10318000222341F097FF06C09F77BC0190E080E0CA
:103190000E94051A81E008950F931F93CF93DF9348
:1031A000EC018B01FB0185818823B1F00E94830C27
:1031B0008272FE01E053FC47E830F10568F4EA53FF
:1031C000F54D0C94FF29811104C081E003C08111E9
:1031D000FCCF8FEF0E942519B801CE010E94BE18C6
:1031E000DF91CF911F910F91089580E00E942D19DA
:1031F000F3CF81E0FBCF82E0F9CF83E0F7CF84E02B
:10320000F5CF85E0F3CF90912103923071F48A30AD
:1032100050F490E009966AE070E00E94EB29875A2A
:103220000E94710508958650FBCF0E94861B089569
:1032300008950E94181908958CE090E00E94662A73
:10324000809321030E941919089508956091210324
:103250008CE090E00E94842A0895CF93C82F809339
:1032600021030E9426198C2F0E941919CF910895CD
:103270000E946F218093200390912103913029F4C3
:1032800081FF03C089E30E9471050E94830C809333
:1032900022030E94960C0E94AC0C80912103823084
:1032A00021F158F48823C1F08130D1F08FE39CE9FB
:1032B0000197F1F700C000000895843051F1853086
:1032C000A9F78BE191E00E94690385E290E00E94FA
:1032D000690388E290E006C082EE0E94D904E6CF3E
:1032E00088E193E00E946903E1CF8091200380FD93
:1032F00003C083E50E94710582EE0E94D9048FE32A
:103300009CE90197F1F700C0000087E50E94710574
:10331000CDCF86EE0E94710588E1F8CF8091210320
:10332000823011F148F4882381F0813091F080914E
:1033300022030E94930C08958430F9F08530B9F788
:1033400088E290E00E946903F2CF82EE0E94260597
:10335000EECF8CE20E9471058091200381FFE7CFC0
:1033600089E30E947105E3CF82EE0E9426058091D9
:10337000200380FDDCCF83E5F4CF88E2F2CF8F928B
:103380009F92AF92BF92EF92FF920F931F93CF93B2
:10339000DF934B015C01D09121038CE1E82EF12CED
:1033A00007E010E021E0D501C4010E2C04C0B69561
:1033B000A795979587950A94D2F7C82FCF702223A7
:1033C00039F0D43051F4CA3040F080E00E94031943
:1033D0008C2F0E94031920E005C0C111F9CF0430E1
:1033E0001105B4F30150110984E0E81AF1080F3F08
:1033F0001007C9F6DF91CF911F910F91FF90EF90C9
:10340000BF90AF909F908F900895CF92DF92EF92F0
:10341000FF926B017C01C114D10481E1E806F10443
:10342000A0F5C114D10481E0E806F10420F08091F8
:103430002103823051F10E943819C114D10481E076
:10344000E806F10438F180912103811123C081E065
:10345000E81AF108C701B6012AE096958795779595
:1034600067952A95D1F778528F4F9F4F0E94BF19C9
:1034700083E0D822EE24FF24C701B60174528F4F97
:103480009F4F0E94BF190E948E19FF90EF90DF900E
:10349000CF900895C701B601F4CFCF93DF93EC012D
:1034A000FB018581882309F4D2C09E013057233265
:1034B000310508F0B2C00E94D20D90930D038093A5
:1034C0000C03FE01E150F047E232F10520F4E25333
:1034D000F54D0C94FF2980910C03816080930C03BF
:1034E00093C080910D03886080930D038DC08091FF
:1034F0000C038260F3CF80910C038460EFCF809146
:103500000C038860EBCF80910D038160EDCF80913B
:103510000D038260E9CF80910C038061DFCF809141
:103520000C038062DBCF80910C038064D7CF0E94B4
:10353000DC0780910C038068D1CF80910C038C60F4
:10354000CDCF80910D038360CFCF80910C038E7F10
:10355000C5CF80910D03877FC7CF80910C038D7FEE
:10356000BDCF80910C038B7FB9CF80910C03877FF7
:10357000B5CF80910D038E7FB7CF80910D038D7FE6
:10358000B3CF80910C038F7EA9CF80910C038F7DE8
:10359000A5CF80910C038F7BA1CF0E94DC07809187
:1035A0000C038F779BCF80910C03837F97CF809103
:1035B0000D038C7F99CF80910C0382FB992790F9A2
:1035C00021E0922790FB82F990FB83F987CF8091CD
:1035D0000D03982F909591708E7F892B90FB81F928
:1035E00083CF90910C03892F8F7B96FF806476CFD9
:1035F0000E94DC0790910C03892F97FB87F9805874
:103600006DCF81E00E945E0E80910C0390910D03BE
:103610000E94D70D0E94DC0780E0DF91CF910895D2
:1036200080E0F0CF90910C03892F8F7E94FF806112
:1036300055CF90910C03892F8E7F90FF81604ECFE4
:1036400090910D03892F877F93FF88604DCF81E094
:10365000E4CFB0E0A0E0EFE2FBE10C94102AE82F09
:10366000F0E0E15CFC4FD490282F26952695269516
:1036700030E0F901E152FC4F0491877010E0082E10
:1036800002C0159507950A94E2F701701127F90118
:10369000E153FC4FE490F12C082E02C0F594E7941E
:1036A0000A94E2F791E0E922FF24F901E154FC4F8A
:1036B000C491D0E002C0D595C7958A95E2F7C17054
:1036C000DD270115110519F081EE0E94D904E114DE
:1036D000F10419F086EE0E94D9048D2D0E94710527
:1036E000E114F10419F086EE0E942605011511057A
:1036F00019F081EE0E942605CD2B19F08CE20E9474
:103700007105CDB7DEB7E7E00C942C2A982F9F7097
:103710009A50963020F0805D0E94291B0895895AA6
:10372000FBCFEF92FF920F931F93CF93DF938C0108
:10373000F62E8AE0E82EF8018491882309F454C01B
:10374000813009F04DC0E8012196FE01849181305D
:1037500091F42196FE0184910E9471058E010F5F04
:103760001F4F8F2D815038F3EFE9FFE03197F1F7CC
:1037700000C00000F7CF823039F4E8012296FE0144
:1037800084910E94D904EACF833039F4E80122966B
:10379000FE0184910E942605E1CF8430F9F6E8010C
:1037A0002296FE01249190E080E0FE0131962053A4
:1037B000330B2A30310548F0019780F2EFE9FFE042
:1037C0003197F1F700C00000F7CFE89EA001E99E15
:1037D000500D1124C901840F951F2491EF01E5CFED
:1037E0000E94291BE801BACFCDB7DEB7E6E00C9402
:1037F0002D2ACF93DF93EB0186319C4711F50E9470
:10380000830C9D81992399F08A7A91E009F490E0E4
:103810009093DE02811109C089E20E94580C0E9437
:10382000010D80E0DF91CF91089585E3F6CF80917F
:10383000DE02811104C089E20E94600CF0CF85E3B2
:10384000FBCF81E0EFCFFC018581862351F492818B
:103850009923B9F06923818583FF05C081E0611157
:103860000FC080E00895892F8F7092959F70982BDC
:10387000862F8F7062956F70682B81E09613F1CF61
:10388000089581E0FDCFCF93DF93EC016091E902D1
:103890007091EA028091EB029091EC020E94002369
:1038A000643F71408105910518F58091E90290917E
:1038B000EA02A091EB02B091EC028093E5029093B2
:1038C000E602A093E702B093E80284EF91E0A0E063
:1038D000B0E08093E1029093E202A093E302B09300
:1038E000E402D093E002C093DF02DF91CF9108950C
:1038F0000E94E5226093E5027093E6028093E7025E
:103900009093E80282E390E0A0E0B0E0E2CFFF9283
:103910000F931F93CF93DF93F82E0091F002109135
:10392000F1020115110509F44DC01092E002109248
:10393000DF020E94B80C0E94B20C0091F0021091BC
:10394000F102D8011796CD91DC919E013A9521158F
:103950003F4108F4D07ED1E0C11101C0D0E0D801D0
:103960001A96ED91FC911B97309731F01C966D9152
:103970007C9180E00995D823DD2339F08CEF8C0F02
:10398000813A30F58C2F0E94600CFF2099F0E09175
:10399000F002F091F102818584FD0CC08091EF026C
:1039A000882341F0808191819C01215031092F337E
:1039B0003E47A0F00E94010D1092F1021092F00219
:1039C0001092EF02C801CDB7DEB7E5E00C942E2AC5
:1039D0000E94010D8C2F0E942605D7CF0E94431C08
:1039E000E9CF10924B0180E00E94871C08958091DE
:1039F0004B01882319F00E94F11C089581E0809307
:103A00004B0108950F931F938091DF029091E00284
:103A1000892B89F16091E5027091E6028091E702BD
:103A20009091E8020E9400230091E1021091E202CD
:103A30002091E3023091E402601771078207930737
:103A4000D0F08091DF029091E0020E942303109257
:103A5000E0021092DF021092E5021092E60210924C
:103A6000E7021092E8021092E1021092E202109234
:103A7000E3021092E4021F910F910895A4E0B0E0D8
:103A8000E4E4FDE10C94052A8C017A836983DB016F
:103A900015965C905520B1F08E35BCE79B0759F028
:103AA0008F35ECE79E0759F08D359C4759F40E94FD
:103AB000F71C312C0DC081E080934B01FACF0E949E
:103AC000F11CF7CF30904B01311007C033243394F1
:103AD000832D2496E2E10C94212A680120EEC21A7B
:103AE000D1080E94830CF82E0E946F0C482E0E9471
:103AF000BB0C482A4F2838E0C316D10408F094C004
:103B000098012770332781E090E001C0880F2A9543
:103B1000EAF7552009F485C0482AA981BA818D9118
:103B20009C910E94190980900001909001018114DC
:103B3000910409F4E1C021E030E0F90102C0EE0F88
:103B4000FF1F8A95E2F7FA83E9836090F002709094
:103B5000F102A090ED02B090EE02212CE22DF0E0F7
:103B6000EE0FFF1FE80DF91D208131813C832B836F
:103B70002115310509F4C0C0411005C0D9011296C4
:103B80008C9181118BC0EB81FC818381948129818F
:103B90003A8182239323892B09F480C08185982F51
:103BA000977009F487E038E0C316D10408F056C0D6
:103BB000552009F44FC086958170882309F46EC0A2
:103BC000AB81BC81ED90FC900E151F0519F45520BA
:103BD00009F464C0EB81FC81E615F70509F45EC0C9
:103BE0000684F785E02D309721F08081882309F441
:103BF00055C0642D8B819C810E94231C882309F46D
:103C00004DC00E151F0509F08BC00115110509F4F3
:103C10008CC051108CC0EA14FB0409F03FC0512C39
:103C200086C08095482279CF552009F44EC0109364
:103C3000EE020093ED020E94E5226093E902709388
:103C4000EA028093EB029093EC021092E002109251
:103C5000DF0263CF82FB882780F9AFCF5520F1F0D8
:103C60008170ABCF0E94260583C00497813A9105ED
:103C700048F4802F0E94580C552009F427CF0E9449
:103C8000010D17CF0E94010D8FE39CE90197F1F719
:103C900000C00000802F0E94D904EECF23945ECF95
:103CA000FC01208131812017310731F4511007C008
:103CB0001092EF0280E031C0552009F407CFDC01FB
:103CC00019968C9185FD02CFF5CF8091ED029091F0
:103CD000EE028017910781F41092EE021092ED022D
:103CE0001092E9021092EA021092EB021092EC029A
:103CF0001092E0021092DF028091F0029091F102A6
:103D0000009709F4E3CEA8E0CA16D10448F6642D62
:103D10000E94231C8111DACE81E00E94871CD8CE3C
:103D2000E114F10409F077CF512CF12CE12C80E063
:103D30000E94871CEB81FC81F093F102E093F0027A
:103D400081E08093EF0286810E94B50C511010C073
:103D5000E114F10469F0AB81BC818D919C919C01CF
:103D600024503109213A310508F07CCF0E94600CC3
:103D7000EB81FC8107811085C8019A9581159F41CF
:103D800008F4107EFF24F394C80101978F339E47F7
:103D900008F0F12CAB81BC811A96ED91FC911B9738
:103DA000309731F01C966D917C9181E00995F82255
:103DB000FF2081F0EB81FC81878190850E94E802E1
:103DC0000E94AF0CC801F8E0CF16D10408F04DCF27
:103DD0000E94431C0E94010D4FCF0F931F93CF935E
:103DE000DF93C42FD22FFC0185818823C9F0409333
:103DF000F4020E94D9229093F3028093F20280E2AF
:103E00008C0F883040F4C77081E001C0880FCA95DC
:103E1000EAF70E947A05DF91CF911F910F910895E3
:103E20001091F402141332C08091F2029091F302C7
:103E30000E94F122883C910548F5C0E2CD0F1D1784
:103E4000B9F080E2810F883040F4177081E001C042
:103E5000880F1A95EAF70E948105C83048F481E07E
:103E60009D2F977001C0880F9A95EAF70E947A05F6
:103E7000802F0E947105C83070F6D77081E001C0B4
:103E8000880FDA95EAF70E948105C5CF80E28C0F92
:103E9000883008F6C77081E001C0880FCA95EAF73C
:103EA000F2CF0F93DB0188519C4787309105A0F535
:103EB000FC01E051F54D0C94FF2906E221EE41EEA4
:103EC0006AE17CE7CD010E94ED1E80E00F9108952C
:103ED00007E225EE45EE6BE17CE7F4CF06E221EE4A
:103EE00040EE68E17CE7EECF07E225EE44EE69E1C3
:103EF0007CE7E8CF06E221EE42EE6CE17CE7E2CF20
:103F000007E225EE46EE6DE17CE7DCCF08E221E03A
:103F100045EE6EE17CE7D6CF15968C91882319F09B
:103F20001092F402D3CF81E0D1CF8EE14A9B02C040
:103F30008150E1F74A9BFECF08955A9880E28A9516
:103F4000F1F75A9A0895FC013BE03A95F1F798E0B1
:103F500020E080E031E040E14A95F1F7880F4A9B8C
:103F600002C08160232742E04A95F1F7000040E15A
:103F70004A95F1F7915079F790E19A95F1F799B157
:103F800032E03A95F1F7000040E14A95F1F792FBF3
:103F9000992790F992272081920F90830895A1E0AC
:103FA000B0E0E5EDFFE10C94112A19828C017C014F
:103FB000E60EF11C0E151F0541F481E09981911167
:103FC00080E02196E6E00C942D2A0E94951FCE01F8
:103FD00001960E94A31FF80181938F01EBCF529AA3
:103FE0005A9A089552985A9AEA9AE9E6F0E080813E
:103FF0008F7C808308956150770B91E001C0990F09
:104000006A95EAF720E031E0911108C0222391F08F
:104010005A9A80E28A95F1F75A980895492F4823D1
:1040200039F05A9A232740E24A95F1F79695ECCF5A
:104030005A98F9CF5A98EDCFFF920F931F93CF93D1
:10404000DF93EC018C01060F111DC017D10729F475
:10405000CDB7DEB7E5E00C942E2AF9900E949D1FA3
:1040600068E08F2D0E94FB1FF0CF1F920F920FB6BA
:104070000F9211240F931F932F933F934F935F93AE
:104080006F937F938F939F93AF93BF93EF93FF9320
:10409000CF93DF930F92CDB7DEB719820E94951FA1
:1040A000CE0101960E94A31F082F0695069506953E
:1040B000282F22952570902F9570290F922F93709D
:1040C00026952695920F982797708981982B09F04D
:1040D0005CC0053008F059C080E18A95F1F75A9A22
:1040E000529A82E08A95F1F700C05A9888E0089FBA
:1040F00080011124D801AD5DBE4F1696ED91FC9163
:1041000017973097A9F060911B0270911C021496CA
:104110002D913C911597260F371F11968D919C91EB
:104120001297680F791F13964C9113978C910995EC
:10413000F801ED5DFE4F6381662351F020911B0273
:1041400030911C0284819581820F931F0E941C2054
:104150000E949D1F80E18A95F1F75A9852985A9AC9
:1041600080E18A95F1F7F801ED5DFE4F60816623ED
:1041700051F020911B0230911C0281819281820FAB
:10418000931F0E94CF1F0E94951F0F90DF91CF9128
:10419000FF91EF91BF91AF919F918F917F916F911F
:1041A0005F914F913F912F911F910F910F900FBEF3
:1041B0000F901F9018950F931F93CF93DF93EC01EF
:1041C00005970CF04CC0F894529A5A9885E08A955D
:1041D000F1F700009C2F969595708C2F8570980FA5
:1041E000892F83709695969523E0CC0FDD1F2A9535
:1041F000E1F7980F8E01092B0E949D1F00C068E017
:10420000802F0E94FB1F80E18A95F1F752985A9AFD
:104210004A9B1EC087E090E04A991CC0FE01ED5DFC
:10422000FE4F63816623F9F020911B0230911C023E
:1042300084819581820F931F0E94CF1F811113C02B
:10424000529A5A9A7894DF91CF911F910F910895C5
:1042500000C0DECF019729F4529A5A9A789480E0F0
:10426000F2CF00C0D9CF0E94951F80E28A95F1F766
:104270005A98529A80E18A95F1F7CD5DDE4F6881B8
:10428000662351F020911B0230911C0289819A8192
:10429000820F931F0E941C200E949D1F789481E032
:1042A000D2CF90931F0280931E0208959093FB0239
:1042B0008093FA0208950E948313811103C08091B4
:1042C000F5020895E091FA02F091FB02309729F08F
:1042D0000190F081E02D0995089580E008950E94F5
:1042E0005B210895E091FA02F091FB02309721F0F2
:1042F0000280F381E02D09950895E091FA02F09192
:10430000FB02309739F022E0DC012C930480F58128
:10431000E02D09950895A3E0B0E0E1E9F1E20C9405
:10432000152A2091F8023091F90228173907A1F0D7
:104330009093F9028093F802E091FA02F091FB0267
:10434000309751F023E029839B838A830680F7818D
:10435000E02DCE01019609952396E2E00C94312AD6
:10436000A3E0B0E0E6EBF1E20C94152A2091F6020E
:104370003091F70228173907A1F09093F702809344
:10438000F602E091FA02F091FB02309751F024E03E
:1043900029839B838A830680F781E02DCE010196D5
:1043A00009952396E2E00C94312A9C012E5F3F4F41
:1043B000AC01485F5F4F80E02417350709F408958A
:1043C000F90191919F019923B9F38F5FF5CF66238E
:1043D00049F0FC01329608962191261729F0E8173A
:1043E000F907D1F780E0089581E008959C01FC0170
:1043F00032969FEF80E04191461751F09F3F19F4AC
:10440000411101C0982F8F5F8630A9F79F3F09F4B3
:104410000895290F311D97FD3A95F901628308959A
:10442000FC01329608962191261303C0DF011197F3
:104430001C92E817F907B9F708950E94F62108952C
:104440000E9410220895029626E0FC0111922A95FE
:10445000E9F7089546E050E00E94502A21E0892BB8
:1044600009F420E0822F089508950E9434220895CF
:10447000811106C081E08093FC020E9435220895DC
:1044800082E0F9CF83E08093FC020E9435220895F8
:104490000E943822089581E08093FC020E94352218
:1044A00008950E944B220895089508950E94552270
:1044B0000895089508950E9454220895CF930E946C
:1044C00059220E9407130E945A22C0E08C2F0E949A
:1044D000E911811105C0CF5FC830C1F7CF910895B0
:1044E00081E0FCCF85B7806885BF85B7806885BFD0
:1044F00008951F921FB61F9211248F939F93AF931D
:10450000BF938091FD02811113C08091230390918C
:104510002403A0912503B09126034196A11DB11D4E
:104520008093230390932403A0932503B093260341
:10453000BF91AF919F918F911F901FBE1F901895B3
:1045400080912B03843031F10E944D041092FD02C2
:1045500088E190E020E40FB6F894A895809360007D
:104560000FBE2093600083B7817F846083BF83B7D1
:10457000816083BF7894889583B78E7F83BF0FB6A1
:10458000F894A895809160008861809360001092F3
:1045900060000FBE08950E94DC070E945204089537
:1045A00082E084BD93E095BD9AEF97BD80936E0045
:1045B00008952FB7F8948091230390912403A0913C
:1045C0002503B09126032FBF08952FB7F89460916B
:1045D00023037091240380912503909126032FBF1C
:1045E00008959C014FB7F894809123039091240380
:1045F000A0912503B09126034FBF821B930B089512
:10460000CF92DF92EF92FF922FB7F894C0902303DE
:10461000D0902403E0902503F09026032FBFA7013C
:104620009601261B370B480B590BCA01B901FF90A5
:10463000EF90DF90CF90089578941F921FB61F924D
:1046400011248F939F93AF93BF93809123039091F5
:104650002403A0912503B09126030196A11DB11D4D
:104660008093230390932403A0932503B093260300
:10467000BF91AF919F918F911F901FBE1F90189572
:1046800087E797E7909301088093000888E19AE014
:104690000FB6F894A895809360000FBE90936000C9
:1046A000FFCF88E19AE00FB6F894A8958093600058
:1046B0000FBE90936000FFCF8091060308959B0189
:1046C000BA0190912B039430E9F48F708093E90044
:1046D0009FEF8091E800915085FD06C085ED8A9599
:1046E000F1F700009111F5CF8091E80085FF0AC035
:1046F00050E040E0C9010E9459258091E8008E7782
:104700008093E800089543E050E0BC0182E00E94FD
:104710005F23089546E050E0BC0182E00E945F23E1
:104720000895CF93DF93EC0148E050E0BC0181E0B5
:104730000E945F2388E0FE01AEEFB2E001900D928F
:104740008A95E1F7DF91CF91089580912A03811135
:1047500009C00E94E9260E9446278091E2008460F9
:104760008093E200089510922A0308950E944B223C
:1047700008956091270381E0611101C080E00E94EB
:104780004222089590912B0381E0943009F080E05B
:10479000609127030E944822089542E061EC81E085
:1047A0000E94652642E261EC82E00E9465269091BB
:1047B0002B0381E0943009F080E0609127030E9490
:1047C0003822089580912D03833009F461C030F4BC
:1047D0008130D1F1823009F49EC008958A3009F405
:1047E0008AC08B3009F46FC0893009F050C08091C5
:1047F0002C03813209F04BC080913003909131033A
:10480000029708F044C08091E800877F8093E80019
:104810008091E80082FF37C09091F3008091F20010
:10482000029731F48091F100813011F0863021F44B
:104830008091F100809306038091E8008B7780934C
:10484000E8000E94992623C080912C03813AF9F454
:104850008091E800877F8093E800809130039091F9
:104860003103892B61F468E08EEF92E070E00E94E2
:10487000A8258091E8008B778093E800089560E098
:1048800090E080E0F3CF80912B038111C1CF089598
:1048900080912C03813AD9F78091300390913103B4
:1048A000892BA9F78091E800877F8093E8008091A9
:1048B000E80080FFFCCF809154018093F10080914B
:1048C000E8008E77BCCF80912C03813201F7809174
:1048D000300390913103892BD1F68091E800877FD6
:1048E0008093E8000E94992680912E0380935401C2
:1048F0000E94DC07089580912C03813241F680915B
:10490000E800877F8093E8000E94992680912F031A
:1049100080930703089580912C03813A09F0B7CF63
:104920008091E800877F8093E8008091E80080FF15
:10493000FCCF80910703C1CF84B7877F84BF0FB6B8
:10494000F894A8958091600088618093600010922F
:1049500060000FBE80E890E00FB6F894809361008D
:10496000909361000FBE0E94512208950E94E92693
:104970000E944627E2EEF0E0808184608083789494
:104980000E94C52908958CE491E00E945621089563
:1049900080912B03853031F480912B03853019F001
:1049A0000E94CB2208950E94A0228091290388238F
:1049B00099F30E945E22882379F30E9443250E9486
:1049C000DC07EACF08959A014091320350913303F6
:1049D0000E94EB240895492F55274330510519F1C2
:1049E00068F44130510509F444C04230510509F4DE
:1049F00045C090E080E050E040E025C041325105E4
:104A000049F142325105A9F780E490E043EF54E0C8
:104A100061157105C1F08BE790E048E754E0613023
:104A2000710589F0E6CF99278130910581F00097D3
:104A300029F00297F1F6EFEEF3E002C0E7E2F4E0CE
:104A4000849190E0AF01F901518340830895E3E040
:104A5000F4E0F6CF89E090E04DE354E06115710594
:104A600091F389E090E046E554E06130710559F337
:104A7000C0CF82E190E046E654E0E5CF8BE390E0E2
:104A80004BE254E0E0CF80E189BD82E189BD09B409
:104A900000FEFDCF8091D8008F7D8093D80080915B
:104AA000E00082608093E0008091E00081FDFCCF17
:104AB0000895AF92BF92CF92DF92FF920F931F9310
:104AC000CF93DF936C01EB018A010E94B826F82E88
:104AD000811123C00115110539F0F8018081918100
:104AE000C81BD90BC80ED91EB12CA12C2097A9F038
:104AF0008091E80085FD22C08091E8008E77809348
:104B0000E80001151105A1F0F80180819181A80E3E
:104B1000B91EB182A08285E0F82E8F2DDF91CF9152
:104B20001F910F91FF90DF90CF90BF90AF900895AD
:104B30000E94B8268823D1F2F82EEFCFF60181919A
:104B40006F018093F1002197FFEFAF1ABF0ACECF1C
:104B5000FC01809132039091330386179707A0F0F0
:104B60006115710529F49091E8009E779093E80013
:104B700090E06115710551F4911108C08091E80031
:104B800082FF34C080E00895BC01F2CF80912B03F6
:104B90008823C1F18530C1F18091E80083FD30C0E8
:104BA0008091E80082FDEACF8091E80080FFE1CFAC
:104BB0008091F3002091F200382F6115710519F0F2
:104BC0002830310558F091E02830310509F090E0A7
:104BD0002091E8002E772093E800CBCF819180933D
:104BE000F100615071092F5F3F4FE7CF80912B0398
:104BF000882341F0853041F08091E80083FFBECFEB
:104C000081E0089582E0089583E00895FC01809199
:104C100032039091330386179707A0F06115710551
:104C200029F48091E8008E778093E80090E0611588
:104C3000710551F4911108C08091E80082FF35C0E0
:104C400080E00895BC01F2CF80912B038823C9F145
:104C50008530C9F18091E80083FD31C08091E80082
:104C600082FDEACF8091E80080FFE1CF8091F300E0
:104C70002091F200382F6115710519F028303105A7
:104C800058F091E02830310509F090E08091E8007B
:104C90008E778093E800CBCF84918093F10031969A
:104CA000615071092F5F3F4FE6CF80912B0388231E
:104CB00041F0853041F08091E80083FFBDCF81E075
:104CC000089582E0089583E00895982F973028F0A2
:104CD0008F708093E90081E008959093E900242F7C
:104CE000762F50E0981731F07091EC002091ED0094
:104CF0005091F00021FD02C09F5FE8CF3091EB00A2
:104D00003E7F3093EB003091ED003D7F3093ED001E
:104D10003091EB0031603093EB007093EC00209306
:104D2000ED005093F0002091EE0027FDE5CF80E0EC
:104D3000089580912C0387FF13C08091E80082FFC3
:104D400006C08091E8008B778093E80004C08091D2
:104D50002B038111F2CF089580912B038823D9F37F
:104D60008091E80080FFF8CF8091E8008E77ECCF4B
:104D70002091E4003091E50095E6A9012091EC0036
:104D8000822F817020FF06C08091E80080FF06C05E
:104D900080E008952091E80022FD1AC080912B0345
:104DA000882389F0853089F08091EB0085FD0FC064
:104DB0002091E4003091E50042175307F9F2915039
:104DC000E1F684E0089582E0089583E0089581E0AB
:104DD00008950E9458270E946027E0EEF0E080814D
:104DE00081608083E8EDF0E080818F77808319BC5B
:104DF000A7EDB0E08C918E7F8C9380818F7E808335
:104E000010922A0308950F931F93CF93DF930E946C
:104E100058270E946027C8EDD0E088818F7788836B
:104E200088818068888388818F7D888319BC1092EF
:104E30002B0310922703109229031092280300EEEF
:104E400010E0F80180818B7F808388818160888376
:104E500042E060E080E00E946526E1EEF0E08081C3
:104E60008E7F8083E2EEF0E08081816080838081AC
:104E700088608083F80180818E7F80838881806153
:104E80008883DF91CF911F910F910895E8EDF0E0B5
:104E900080818F7E8083E7EDF0E080818160808378
:104EA00084E082BF81E080932A030E940327089553
:104EB000E8EDF0E080818E7F80831092E20008951B
:104EC0001092DA001092E10008951F920F920FB62F
:104ED0000F9211242F933F934F935F936F937F9380
:104EE0008F939F93AF93BF93EF93FF938091E100D4
:104EF00082FF0BC08091E20082FF07C08091E10039
:104F00008B7F8093E1000E94C4298091DA0080FFAA
:104F100019C08091D80080FF15C08091DA008E7F83
:104F20008093DA008091D90080FF96C080E189BD2E
:104F300082E189BD09B400FEFDCF81E080932B039F
:104F40000E94A5238091E10080FF19C08091E200BA
:104F500080FF15C08091E2008E7F8093E2008091F7
:104F6000E20080618093E2008091D80080628093AB
:104F7000D80019BC85E080932B030E94B92380914F
:104F8000E10084FF2BC08091E20084FF27C080E114
:104F900089BD82E189BD89B5982F917080FFFBCFD3
:104FA0008091D8008F7D8093D8008091E1008F7E22
:104FB0008093E1008091E2008F7E8093E2008091F7
:104FC000E20081608093E20080912703882309F446
:104FD00049C084E080932B030E94C2238091E100AA
:104FE00083FF29C08091E20083FF25C08091E1000A
:104FF000877F8093E10082E080932B031092270348
:105000008091E1008E7F8093E1008091E2008E7FAD
:105010008093E2008091E20080618093E20042E0B0
:1050200060E080E00E9465268091F00088608093B7
:10503000F0000E94B623FF91EF91BF91AF919F9135
:105040008F917F916F915F914F913F912F910F9031
:105050000FBE0F901F90189519BC10922B030E9441
:10506000B32370CF8091E30087FD93E090932B03EF
:10507000B3CF1F920F920FB60F9211242F933F932D
:105080004F935F936F937F938F939F93AF93BF9350
:10509000CF93DF93EF93FF93D091E900DF7080917E
:1050A000EC00C82FC17080FDC0E81092E90080912B
:1050B000F000877F8093F00078940E947D28109202
:1050C000E9008091F00088608093F000CD2BCF70D4
:1050D000C093E900FF91EF91DF91CF91BF91AF9124
:1050E0009F918F917F916F915F914F913F912F9100
:1050F0000F900FBE0F901F901895AAE2B0E0E3E862
:10510000F8E20C94142A8CE293E02091F100FC0167
:105110002193CF01F3E084339F07B9F70E94E22384
:105120008091E80083FF1EC180912C0390912D0394
:105130009A3008F017C1E92FF0E0E950F54D0C94D2
:10514000FF29803899F0823809F00CC18091300332
:105150008F70873008F006C18093E9008091EB00E2
:1051600085FB882780F91092E90006C0809128030A
:1051700090912903911182609091E800977F90931C
:10518000E8008093F1001092F1008091E8008E77A2
:10519000E5C0882309F4D3C0823009F0E3C08091D0
:1051A0002E038111D6C0809130038F702FEF280F0E
:1051B000263008F0D7C08093E9002091EB0020FF53
:1051C000C8C0933031F48091EB0080628093EB0093
:1051D000C0C09091EB0090619093EB0021E030E033
:1051E00001C0220F8A95EAF72093EA001092EA00A4
:1051F0008091EB008860EACF8111B4C010912E033A
:105200001F778091E3008078812B8093E300809169
:10521000E800877F8093E8000E9499268091E8004B
:1052200080FFFCCF8091E30080688093E30082E000
:10523000111183E080932B0395C08058823008F0D1
:1052400091C080912E0390912F038C3D23E0920713
:10525000A1F583E08A838AE289834FB7F894DE015F
:10526000139620E03EE051E2E32FF0E05093570028
:10527000E49120FF03C0E295EF703F5FEF708E2F47
:1052800090E0EA30C0F0C7968D939D932F5F243154
:1052900059F74FBF8091E800877F8093E8006AE26A
:1052A00070E0CE0101960E94A8258091E8008B77DE
:1052B0008093E80057C0C096E7CF609130037091AB
:1052C0003103AE014F5F5F4F0E94E324BC01892B85
:1052D00009F448C09091E800977F9093E800898195
:1052E0009A810E940626E1CF8038E1F58091E8009E
:1052F000877F8093E800809127038093F10045CF5A
:10530000811130C090912E03923060F58091E800B9
:10531000877F8093E800909327030E9499268091CD
:105320002703882311F084E005C08091E30087FD06
:10533000FACF81E080932B030E94CD2313C080918C
:105340002E03813079F481E0933009F080E080937E
:1053500029031092E9008091E800877F8093E8009C
:105360000E9499268091E80083FF0AC08091E8009E
:10537000877F8093E8008091EB0080628093EB0050
:10538000AA96E3E00C94302A0895CF9380912B03E2
:105390008823A1F0C091E900CF709091EC00892F93
:1053A000817090FD80E8C82B1092E9008091E800A0
:1053B00083FD0E947D28CF70C093E900CF910895AE
:1053C0000E94E92610922B0308958091E300881F24
:1053D0008827881F089597FB072E16F4009407D09E
:1053E00077FD09D00E943C2A07FC05D03EF4909539
:1053F00081959F4F0895709561957F4F0895EE0FA9
:10540000FF1F0590F491E02D09942F923F924F9247
:105410005F926F927F928F929F92AF92BF92CF9244
:10542000DF92EF92FF920F931F93CF93DF93CDB74D
:10543000DEB7CA1BDB0B0FB6F894DEBF0FBECDBFC5
:1054400009942A88398848885F846E847D848C8496
:105450009B84AA84B984C884DF80EE80FD800C819F
:105460001B81AA81B981CE0FD11D0FB6F894DEBF82
:105470000FBECDBFED010895AA1BBB1B51E107C0B4
:10548000AA1FBB1FA617B70710F0A61BB70B881FD4
:10549000991F5A95A9F780959095BC01CD01089563
:1054A000FB01DC0104C08D910190801921F4415071
:1054B0005040C8F7881B990B0895FB01DC0102C01E
:1054C00001900D9241505040D8F70895F999FECFC0
:1054D00092BD81BDF89A992780B50895A8E1B0E002
:1054E00042E050E00C94AA2ADC01A40FB51F415001
:1054F000504048F0CB01840F951F2E910E94852AC1
:1055000041505040D0F70895262FF999FECF92BD13
:1055100081BDF89A019700B4021639F01FBA20BD78
:105520000FB6F894FA9AF99A0FBE08950396272FAA
:105530000E94852A0E94842A252F0E94852A242FD2
:105540000C94852A0196272F0E94852A0C94842A80
:10555000DC01CB01FC01F999FECF06C0F2BDE1BD33
:10556000F89A319600B40D9241505040B8F7089522
:10557000F894FFCFC705C705170617067C069806DF
:10558000F605F6059D060E071D071D07E318E7182B
:10559000F518F918FB18FD18FF180119A51A191BA1
:1055A000AD1A771A7B1AB11A7F1AB51AC11A8B1A5B
:1055B000121B8F1AC51A931AC91AF11A971ACD1A03
:1055C000F81A9D1AD31ADB1A831AB91A871ABD1A48
:1055D000A11AD71AE71A011B101B711AA91A201B4E
:1055E0006E1F741F5D1F681F7A1F801F861FA128F2
:1055F000C928B229C928B229FC281D29B229742931
:025600008029FF
:105602000201990189017901690100008A0232943B
:10561200F691F4C63390F59336973166F73435FF39
:10562200FFFF010000000100000000000000040173
:105632000000000405000000000000030900000053
:10564200000000280850011E0A1401015C23912366
:105652008A23832301F491F6943293F59033C6F7AB
:10566200663197363534FFFFFF380222FFFF0022F2
:105672001E0207000000000000373122FFFF002257
:10568200130207000000000000373822FFFF00224B
:10569200130207000000000000363422FFFF002240
:1056A200130007000000000000E200E900EA00B574
:1056B20000B600B700CD008301CC008A01920194AC
:1056C200012102230224022502260227022A02B312
:1056D20000B4006F0070009F01CB019F02A0028105
:1056E2008283E200E900EA00B500B600B700CD000F
:1056F2008301CC008A019201940121022302240237
:105702002502260227022A02B300B4006F007000AD
:0E5712009F01CB019F02A002818283B10200A1
:00000001FF
