:100000000C94DD010C94FA010C94FA010C94B21AD0
:100010000C94FA010C94FA010C94FA010C94FA0174
:100020000C94FA010C94FA010C94CA210C949E22AF
:100030000C94DB1C0C94FA010C94FA010C94FA0158
:100040000C94FA010C94FA010C94FA010C94FA0144
:100050000C94FA010C947E1D0C94FA010C94FA0194
:100060000C94FA010C94FA010C94FA010C94FA0124
:100070000C94FA010C94FA010C94FA010C94FA0114
:100080000C94FA010C94FA010C94FA010C94FA0104
:100090000C94FA010C94FA010C94FA010C94FA01F4
:1000A0000C94FA010C94FA010C94FA010102E20199
:1000B000016201015901015A01015E0103E20001DF
:1000C00002E201016201016101015E0103E200043B
:1000D000001D00090013000A001400150016001787
:1000E0000007001A001B210624192805002B412AAD
:1000F000220000000000000D000F0018001C00216D
:10010000000B00110008000C0012000E003300105C
:1001100000360210022C4228430000000000002795
:100120001420142F002F0234026400640222002DD8
:10013000001E002700340026001F00240000004C91
:100140000000000000000025142E0023002E0240B5
:100150007E231421142E1422142D14417E250037E1
:10016000023100000036082C0400000000000000EE
:1001700000000000004600A5002900AC00AE00AB66
:100180000000000000E400E200E30000000000E1E5
:1001900000000000000000A9005009427E437E4F8D
:1001A00009AA005000510052004F00A80050014A17
:1001B000004D004F01000000000000000000003A68
:1001C000003B003C003D003E003F0040004100423B
:1001D00000430044004500680069006A002C0400E8
:1001E0000000000000000000001E021F022002307C
:1001F00000270221022202230208142D02240225D4
:1002000002260200000000000000000000000000C4
:10021000000000000000002A2B2800000000000061
:100220000000000000000000000029000000002C79
:100230001E3420212224342627252E362D37382718
:100240001E1F202122232425263333362E37381F24
:100250000405060708090A0B0C0D0E0F10111213E6
:100260001415161718191A1B1C1D2F3130232D3584
:100270000405060708090A0B0C0D0E0F10111213C6
:100280001415161718191A1B1C1D2F3130354C0068
:10029000000000000000000000000000000000005E
:1002A000000000000000000000000000000000004E
:1002B0000000007E0F00D4FFFFFFC700000078128F
:1002C000034B006100680062006F0061007200640F
:1002D000000000220341006E0074006F0069006E90
:1002E0000065004B00610068006C006F00750063E2
:1002F000006800650000000403090409023B0002D5
:100300000100A0FA09040000010301010009211104
:1003100001000122400007058103080001090401D2
:100320000001030000000921110100012232000731
:1003300005820320000112010002000000080000F5
:10034000000000010102000105010980A1018503EF
:1003500019012AB700150126B70095017510810013
:10036000C0050C0901A101850419012AA00215018B
:1003700026A002950175108100C005010906A101A2
:10038000050719E029E71500250195087501810287
:100390009501750881010507190029FF150026FF41
:1003A0000095067508810005081901290595057550
:1003B000019102950175039101C011241FBECFEF79
:1003C000DAE0DEBFCDBF12E0A0E0B1E0ECE6FAE497
:1003D00002C005900D92AE30B107D9F723E0AEE030
:1003E000B2E001C01D92AF30B207E1F70E94B01435
:1003F0000C94F5240C940000FB0181342EE7920745
:1004000021F128F480349E47A9F081E008958234D8
:100410002EE7920719F183349E47B9F78581882327
:1004200071F180911002811126C081E08093100249
:1004300080EE1FC08581882341F30E94070760E09A
:100440008FEB90E00E940E16E0CF85818823E9F2C1
:100450000E94070760E08CEA90E0F4CF8581882352
:1004600071F080911102811106C081E08093110228
:1004700082EE0E9426048BE20E942604C6CF8BE205
:100480000E946A04C2CF80911102882351F082E059
:100490000E949807811105C082EE0E946A041092A2
:1004A000110280911002882351F082E00E94980787
:1004B000811105C080EE0E946A0410921002089516
:1004C0008430B8F46830A8F4453098F450E095E0F2
:1004D000699F400D511D1124FA0198E2899FE00D9A
:1004E000F11D1124EE0FFF1FE153FF4F85919491F1
:1004F000089581E090E008950E94600208959C01B3
:100500003A9521153F4150F5FC01EE27F170BC01F1
:1005100066277270AC01442754709C012227387002
:1005200094FF0EC080E1EF2B09F480E0672B09F007
:100530008062452B09F08064232B89F08068089540
:1005400081E0EF2B09F480E0672B09F08260452BF6
:1005500009F08460232B19F08860089580E00895E5
:10056000CF93DF93EB010E947F02FE010995DF919B
:10057000CF910895CF93DF93EC01805E91090897A6
:1005800020F06EEE76E0209711F465EB74E0CE017A
:100590000E94B0028C2F0E942604DF91CF91089513
:1005A00081E008950E94D002089581E008950E949C
:1005B000FC01089508950E94DA020895A6E0B0E0D3
:1005C000E4EEF2E00C94652449835A839E833091D3
:1005D000170289819A8131111AC03E81332399F023
:1005E000222389F00E947208182F682F89819A812E
:1005F0000E944E0869817A81812F0E94980F269669
:10060000E3E00C9481240E946008182FF3CF0E942D
:10061000720869817A81F1CFFC01262F40815181D6
:1006200062817381848195810E94DE020895CF9357
:10063000DF93EC0161E00E940C03BE010E94D20234
:10064000DF91CF910895CF93DF93EC0160E00E949A
:100650000C03BE010E94DB02DF91CF910895089543
:100660000E9407070E942F032FEF84E39CE0215094
:1006700080409040E1F700C0000008950E943003E0
:100680000E94A21D08950E9430030E94B31D089588
:100690000F931F93CF93DF938C0161E00E940C03B3
:1006A000EC01B8010E94D702811106C080E0DF9101
:1006B000CF911F910F910895B801CE010E94BB17F1
:1006C0008823A1F3B801CE010E94CE19882371F3CB
:1006D000B801CE010E94D514882341F3B801CE01A0
:1006E0000E947616882311F3F8018581882361F032
:1006F000C330FCE7DF07E9F058F4C115ECE7DE078B
:10070000A9F0C130DC47B9F0C8010E94D502CFCFB3
:10071000CB358CE7D807A9F0CC35ECE7DE0771F0D4
:10072000CA35DC4789F70E94DF0CEECF0E943E03FA
:10073000BDCF0E94E70C0E944303B8CF0E94D50CA6
:10074000E3CF0E94E30CE0CF0E94B81C0E94CB03D1
:1007500008950E94CF030E94BD1C0895089581E072
:1007600008950895CF93DF93D82F0E94AF03C82F29
:10077000882319F08D2F0E94B1038C2FDF91CF9128
:1007800008950895CF93C82F0E94AE038C2F0E9426
:10079000B203CF91089580E00E94C20308950E94A1
:1007A000D81B0E94C2030895CF930E94D81BC82F64
:1007B000809112028C1779F0C09312020E94471D9B
:1007C00060931302709314028093150290931602A3
:1007D0008C2F0E94C203CF910895ADE0B0E0E3EF0B
:1007E000F3E00C946624488759876A877B878C8757
:1007F0009D8791110E94EA0B1F8286E0FE013896C8
:10080000DE01119601900D928A95E1F78D8181119B
:100810000DC029813A814B815C816D817E818F8100
:100820000E941A0B2D96E2E00C948224CE010196D0
:100830000E9417038111EDCFF5CFFC0124812130F7
:1008400021F4808191810E94A4080895CF93C82F3C
:100850008823B9F08CEF8C0F813AA8F46C2F80912B
:100860000C0190910D010E94531C882329F08C2FBC
:100870000E94A70B0E94320C8C2F0E949F0B0E949B
:10088000320CCF91089580E28C0F883048F4C77005
:1008900081E001C0880FCA95EAF70E94CD0BEFCF27
:1008A000EBE5EC0FE33040F4F0E0E153FE4F8081E4
:1008B00090E00E94F71BE5CFC85ACB3110F7EC2F20
:1008C000F0E0EE0FFF1FE756FE4F808191810E94FE
:1008D0001C1CD7CF882339F19CEF980F913A28F44C
:1008E0000E94A70B0E94320C089590E2980F983056
:1008F00050F4877091E001C0990F8A95EAF7892F2B
:100900000E94D30BEFCF9BE5980F933028F490E033
:1009100080E00E94F71B0895885A8B3120F490E004
:1009200080E00E941C1C08951F93CF93DF93182F23
:10093000EB010E942604209739F4812F0E946A045B
:10094000DF91CF911F9108958FE99FE00197F1F713
:1009500000C000002197EFCF70E060E0893311F410
:1009600060E570E00E9494040895882321F00E94BD
:10097000CD0B0E94320C0895882321F00E94D30BE6
:100980000E94320C0895B0E0A0E0E9ECF4E00C9491
:100990005F246C01D62FC72FFC01158106810295BB
:1009A0000F700E94C30BE82E8823E9F0E12E11237B
:1009B000D1F08C2F807F803451F080E28D0F883011
:1009C000F8F0011104C08C2F807E8032C9F0809134
:1009D000EB0282FF15C082E00E94A90C0E94C30BAB
:1009E00091E0E82EE926BC2EB2949FE0B922FBE00C
:1009F000FB15B8F1EB2DF0E0E950FB4D0C945024C1
:100A0000E12CF1CF0C2F0F70C07F11F00295007F09
:100A1000112399F0002359F080E28D0F883010F0F7
:100A2000D11107C0802F0E94CD0B0E94320C8D2F58
:100A30005AC0802F0E94DD0BF8CF8D2F0E946A04D0
:100A4000002379F080E28D0F883010F0D11104C0BE
:100A5000802F0E94D30B03C0802F0E94E30B0E94C3
:100A6000320CEB2DE850FF0B349720F40E94D81B7A
:100A70000E94C203EE2089F00E94BF0B80FD0DC0D2
:100A8000F60115820E94B90B0E94AC07C6010E94B4
:100A9000CB060E94B90B0E94BC07CDB7DEB7E9E0D8
:100AA0000C947B242C2F2F70F22EC07FC03219F0B3
:100AB000F29480EFF822DD2341F0D130D1F11123FF
:100AC00009F444C00023F1F0B2CF8091EB0282FD23
:100AD00015C0112359F0FF2029F08F2D0E94CD0B56
:100AE0000E94320C80E00E942604BBCF80E00E946E
:100AF0006A04FF2009F4B5CF8F2DABCF112369F025
:100B0000011104C08F2D0E94B504ABCF013009F054
:100B1000A8CF8F2D0E94100CA4CF0111A2CF8F2D32
:100B20000E94BC048F2D0E941C0C8F2D0E94000C73
:100B300098CF112321F0063008F093CFE3CF053092
:100B400008F08FCF8F2D0E94BC048BCF0023D1F3F0
:100B5000D93349F43FEF87EE93E031508040904025
:100B6000E1F700C000008D2F0E946A047ACF8C2F1D
:100B700086958695837069F0813009F072CF8D2F4C
:100B80009C2F9370111102C080E090E00E941C1C09
:100B900068CF8D2F9C2F9370111102C080E090E0E0
:100BA0000E94F71B5ECF8C2F8370A1F5111159CFD6
:100BB0004D2F429546954770440F440F2D2F2F70AF
:100BC00030E0042E02C0220F331F0A94E2F790E0B7
:100BD00080E0D4FF09C08FE090E002C0880F991F29
:100BE0004A95E2F780959095C695C695C370822B7D
:100BF000932BC23049F058F4C13019F00E946007BD
:100C000030CF0E9457072DCF0E9469072ACF0E943C
:100C1000540727CF8695112311F08C2F81708823DC
:100C200009F41FCF4D2F429546954770440F440F4E
:100C30002D2F2F7030E0042E02C0220F331F0A9494
:100C4000E2F790E080E0D4FF09C08FE090E002C0BE
:100C5000880F991F4A95E2F780959095C695C6959D
:100C6000C370822B932BC23049F058F4C13019F075
:100C70000E94E707F6CE0E94DE07F3CE0E94F0073F
:100C8000F0CE0E947807EDCECF70112329F08C2F83
:100C90000E94AC078D2F37CF8D2F0E94BC048C2F64
:100CA0000E94BC07DECED23F41F160F4D03FB9F0E4
:100CB000D13F81F0112309F446C00111B8CE8C2F29
:100CC0008F711FC0D33F01F1D43FA1F78091EB0298
:100CD00082FD24C08C2F8F71112311F312C01123B8
:100CE00041F0053008F0BDCE8C2F8F710E94CE07E9
:100CF000B8CE063008F0B5CEF7CF8C2F8F7111111A
:100D0000CFCF0E94AC07ADCE112329F08C2F8F716D
:100D10000E94A007A6CE0E947F07A3CE112349F010
:100D2000CF718C2F0E94AC0763E08C2F0E948B0C3C
:100D300098CE81E00E94A90C023008F492CE82E0A5
:100D40000E94A90C8ECE002359F0D93309F00BCFA5
:100D5000EFEFF7EE23E0E150F0402040E1F701CF64
:100D60008C2F8F719DCF0F931F93CF93DF93EC0147
:100D7000688179818D810E94AF088C010E94F907FA
:100D80000E945307B801CE010E94C304DF91CF91A6
:100D90001F910F910895CF93DF93EC018C818823ED
:100DA00099F0CE010E944803811111C00E94C30B2B
:100DB000882351F08D81882339F08091EB0282FFE6
:100DC00003C082E00E94A90CDF91CF910895CE016B
:100DD0000E94B306CE010E942303F6CF882321F0A0
:100DE0000E94DD0B0E94320C089590E080E00E948A
:100DF000F71B90E080E00E941C1C0E94EA0B0E94FE
:100E0000320C08950E94AF0B0E94F50608950E94CF
:100E1000DA0B0E940207089592959F70963091F028
:100E200058F4925F9F70923058F4803F19F030F47C
:100E3000883E30F481E008959A5FF4CF843FD1F387
:100E400080E00895883EB0F3813FD1F7F3CFFC01F5
:100E50002481222339F0808191810E94A4080E947C
:100E60000C07089580E00895A6E0B0E0EAE3F7E01B
:100E70000C9466242696E2E00C948224A7E0B0E06D
:100E8000E4E4F7E00C9466242796E2E00C948224D4
:100E900008950E94480708950E94490790932F02E1
:100EA00080932E02089508950E944C070895209182
:100EB0002E0230912F02822B932B0E944C07089513
:100EC00020912E0230912F02822393230E944C07FF
:100ED000089520912E0230912F02822793270E949D
:100EE0004C0708950E94480708950E9472070895CC
:100EF0000E94750790932D0280932C02089590E034
:100F000080E00E9478070895009729F481E0662325
:100F100071F080E00CC021E030E002C0220F331FEE
:100F20006A95E2F72823392381E0232B91F3089572
:100F3000682F80912C0290912D020E9484070895C1
:100F400021E030E0A90102C0440F551F8A95E2F765
:100F5000CA010E947807089521E030E002C0220F04
:100F6000331F8A95E2F780912C0290912D02822BFB
:100F7000932B0E947807089521E030E002C0220FF1
:100F8000331F8A95E2F72095309580912C0290913D
:100F90002D02822393230E947807089521E030E0F8
:100FA00002C0220F331F8A95E2F780912C029091A4
:100FB0002D02822793270E947807089520912C0202
:100FC00030912D02822B932B0E9478070895209157
:100FD0002C0230912D02822393230E9478070895DA
:100FE00020912C0230912D02822793270E947807AE
:100FF00008950895262F277091E001C0990F2A9532
:10100000EAF723E0769567952A95E1F7660F771F53
:10101000660F771FFA01E60FF71F50E040E0682FD8
:1010200070E08191DF0111979B01042E02C036957B
:1010300027950A94E2F7217021952827292328274C
:101040002C934F5F5F4F4430510559F70895A82FF7
:10105000A77023E0969587952A95E1F7880F991F49
:10106000880F991FFB01E80FF91F50E040E080E076
:10107000219130E00A2E02C0369527950A94E2F7B6
:1010800021703327042E01C0220F0A94EAF7822B25
:101090004F5F5F4F4430510559F70895262F983020
:1010A00070F4853060F4682F70E085E0989F600DE3
:1010B000711D112448E152E0822F0E94FA07089521
:1010C000292F983068F4853058F490E068E172E098
:1010D00035E0239F800D911D11240E94270808955B
:1010E00080E00895B0E0A0E0E8E7F8E00C945F2429
:1010F0007C0100912C0210912D0280912E02909182
:101100002F02082B192BCFE0D0E0CC24C394D12C94
:10111000BC2EC6010C2E02C0880F991F0A94E2F75C
:1011200080239123892B49F4219790F7B12C8B2DA3
:10113000CDB7DEB7E9E00C947B24B7018C2F0E9479
:10114000A40F019789F3F3CFCF93DF93EC010E94B3
:101150007208BE010E94A40FDF91CF9108951F93E2
:10116000CF93DF93EB0190911702992339F0CB01D4
:101170000E94A408DF91CF911F910895882369F000
:10118000CB010E947208182F682FCE010E944E08D2
:10119000BE01812F0E94A40FEDCFCB010E946008F9
:1011A000182FF6CF1F93CF93DF93C091300217E033
:1011B000809131028C1304C0DF91CF911F9108956B
:1011C000D0E01C9FF0011D9FF00D1124EE5CFD4F3F
:1011D00020813181428153816481758186810E94A1
:1011E0003E072196C770E4CF20916A0230916B02CE
:1011F00040916C0250916D0260916E0270916F028D
:10120000809170020E943E070895CF93DF938091F2
:101210007002807F09F04DC080916F02882309F42D
:1012200048C0E091300250913102C0916B02D091E0
:101230006A0260916C0270916D0247E05E17C9F11D
:101240008E2F90E0E49FF0011124EE5CFD4F24818D
:10125000222391F1489FF001499FF00D1124DF01F5
:10126000AE5CBD4F11962C9111972C1325C02C917B
:101270002D1322C015962C91159721111DC0129681
:101280002D913C91261B370B283C3105A8F4809109
:1012900070028F70806180937002E85CFD4F8081E6
:1012A0008F70806180838AE692E00E94CB060E9464
:1012B000D208DF91CF910895FC013196E770BECF3F
:1012C000482F209130029091310257E0291302C03B
:1012D00080E0089530E0529FF001539FF00D1124FB
:1012E000EE5CFD4F8181681306C08081481303C006
:1012F00085818111EECF2F5F3F4F2770E7CFA4E1AB
:10130000B0E0E5E8F9E00C945C248C0186E0F8019B
:10131000DE011F9601900D928A95E1F7D80114968F
:101320008C9114971596EC9015979AE6A92E92E059
:10133000B92E90916E0291111FC08823D1F0EE203A
:10134000A9F0C8010E942707F82E882379F087E0CA
:10135000F801D50101900D928A95E1F7C5010E942F
:101360001D040E9405090E94F4083DC0C8010E94A6
:10137000CB06FF24F39437C0F801C080D18082806F
:101380009380F0906F0220916C0230916D02A40165
:10139000421B530BFF2009F4F6C0483C510508F0EE
:1013A000A5C0882301F190916B0280917002282FD3
:1013B000207F09F067C09D111BC090916A029C11AB
:1013C00017C0E11059C08F708061809370020E9435
:1013D000F4088AE692E00E94CB0680917002D80160
:1013E00016968C93F12C8F2D6496ECE00C94782457
:1013F000E11042C06D2D8C2D0E946009E82E8823DB
:1014000071F08AE692E00E94CB0687E0EAE6F2E01D
:10141000DF011D928A95E9F70E94F408E3CFCF8699
:10142000D88A8F8598890E94A408292F22952F7029
:10143000243058F49F70223088F0992399F0F801F5
:101440009681907F79F4FE2CCECF2A5F2F702230C8
:1014500068F0C8010E94CB06EF2CF5CF992311F05C
:10146000882389F3805E883070F3F3CF803F58F390
:10147000815F833070F7E7CF809170028160809345
:101480007002B0CF9D1107C090916A029C1103C0F9
:10149000EE2009F49CC0C8010E942707882309F4A4
:1014A00065CFEE2009F462CF80917002803288F01F
:1014B00020916A0230916B02398728879B868A8641
:1014C00090916E029C871D868E87CE0108960E94A1
:1014D000CB0687E0F801AAE6B2E001900D928A956A
:1014E000E1F70E9405090E94F40843CF9091700231
:1014F000292F207F91F4682D9A8A898AA6017A89FA
:101500009E2D0E9434078AE692E00E94CB0687E077
:10151000F50111928A95E9F77FCF882309F463CF0B
:1015200080916B028D1111C080916A028C110DC0E7
:10153000E1100BC016969C93C8010E94CB0687E071
:10154000F50111928A95E9F74ECFC8010E9427074D
:10155000882309F40BCFEE2009F408CF80917002A4
:10156000803208F4B6CF20916A0230916B023A8340
:1015700029839C828B8290916E029D831E828F8331
:10158000CE010196A4CF483C510508F045C0882300
:1015900009F4EFCEFE2CEE2009F4E8CE80916B0228
:1015A0008D112CC080916A028C1128C0809170022C
:1015B00080FD1BC0982F907FC1F016968C931697D4
:1015C000903F39F0982F907F905F8F70892B1696FF
:1015D0008C93C8010E94CB0687E0F801AAE6B2E02E
:1015E00001900D928A95E1F7BECE87E0F801AAE658
:1015F000B2E001900D928A95E1F7F5CEC8010E9404
:101600002707811166CF80917002816080937002FC
:10161000C8010E94CB06E7CE682D9A8A898AA60166
:101620007A899E2D0E94340787E0F50111928A95F0
:10163000E9F799CEAEE0B0E0E0E2FBE00C9465247F
:10164000288739874A875B876C877D878E87CE019D
:1016500008960E947F098823B1F06C85662341F0CB
:10166000288539854A855B857D858E850E943E0764
:1016700017E0809130029091310289133DC02E967F
:10168000E3E00C94812487E0FE013896DE01119698
:1016900001900D928A95E1F78C85882349F320917A
:1016A000310230E0C90101968770992740913002DC
:1016B0004817190699F097E0929FD001939FB00DBB
:1016C0001124AE5CBD4FFE01319601900D929A95AA
:1016D000E1F7809331020E94D208CACF0E94070727
:1016E000109231021092300287E0EAE6F2E0DF0168
:1016F0001D928A95E9F7BCCF819FC00111248E5CB1
:101700009D4F0E947F09882309F4B9CFE0913002F0
:101710001E9FF0011124EE5CFD4F2081318142813A
:1017200053816481758186810E943E0780913002D9
:1017300090E0019687709927809330029ACF682FA6
:1017400080910C0190910D010E94891C0895682FD1
:1017500080910C0190910D010E948C1C0895809144
:101760000C0190910D010E948F1C089580917A02C6
:101770000895809179028695869586950895809141
:1017800079028770089590917902977081E009F449
:1017900080E0089580918702089590918702892BB7
:1017A0008093870208958095909187029823909363
:1017B0008702089510928702089590918602892BDE
:1017C0008093860208958095909186029823909345
:1017D00086020895109286020895809385020895E6
:1017E00010928502089580938402089510928402D5
:1017F000089580917B02089508950E94FC0B08953E
:1018000090917A02292F282331F0809589238093A3
:101810007A020E94FD0B089508950E940C0C089511
:1018200090917B02292F2823281729F0982B909339
:101830007B020E940D0C089590917B02292F282392
:1018400031F08095892380937B020E940D0C0895CE
:1018500080917B02882329F010927B0280E00E9415
:101860000D0C0895CF93DF93E0910C01F0910D01E1
:10187000809187028083E0910C01F0910D018081BD
:1018800090918602892B808390917B02992381F02D
:10189000E0910C01F0910D018081892B8083809172
:1018A0000C0190910D010E94411C81110E94280C95
:1018B000E0910C01F0910D0180918402982F909598
:1018C000808189238083E0910C01F0910D0180815A
:1018D00090918502892B8083C0910C01D0910D01DC
:1018E00048E050E061E772E0CE010E948D24892B30
:1018F00059F088E0FE01A1E7B2E001900D928A95CF
:10190000E1F7CE010E94EC1BDF91CF91089508957D
:101910000E94870C08959091EB0292FF11C098E00D
:10192000899F90011124622B609379020E94AC0779
:10193000809179028695869586950E94880C0895F7
:101940000E94AC0708951092790280E00E94880CF2
:101950000895909179028095892380937902282FA8
:10196000277069F4891759F09091EB0292FF07C034
:101970008695869586950E94BC070E94A30C0895C3
:101980009091EB0292FB222720F9281769F080FB47
:1019900092F99093EB028091EA029091EB020E94FF
:1019A000080D82E00E94A90C08958091EB0282FB51
:1019B000882780F991E089270E94C00C089581E072
:1019C0000E94C00C089580E00E94C00C08956FEF43
:1019D0007FEF90E080E00E94DF24089590E080E0B7
:1019E0000E94AB2421E0863E9E4F09F020E0822F2A
:1019F000089582E090E00E94A324089583E090E09F
:101A00000E94A324089584E090E00E94AB240895EE
:101A1000BC0184E090E00E94DF240895AB01BC018A
:101A20008FE090E00E94D3240895AB01BC0183E1D4
:101A300090E00E94D324089560E070E0CB010E9402
:101A4000150D089560E070E0CB010E940E0D0E941C
:101A50001C0D0895A8E0B0E0E0E3FDE00C946624DE
:101A600066EE7EEF90E080E00E94DF2460E082E09E
:101A700090E00E94C12460E083E090E00E94C124D5
:101A800010922F0210922E0260E074E184E090E048
:101A90000E94DF2460E086E090E00E94C1246FEFA6
:101AA00087E090E00E94C12440E050E0BA0188E065
:101AB00090E00E94D32460E084E290E00E94C12480
:101AC00060E087E190E00E94C12460E08CE090E05B
:101AD0000E94C12460E08DE090E00E94C124198240
:101AE0001A821B821C821D821E821F82188648E079
:101AF00050E068E170E0CE0101960E94B12440E020
:101B000050E0BA0180E290E00E94D3240E94220DAE
:101B10002896E2E00C9482240E942A0D08958EE01B
:101B200090E00E94A32491E0811101C090E0892FF0
:101B30000895682F8EE090E00E94C1240895A6E0E9
:101B4000B0E0E5EAFDE00C9464240E943B1D8C01AA
:101B500080918802909189028017910781F0198203
:101B60001A820E943B1D682F49815A81792F80E09B
:101B700090E00E94ED03109389020093880226965C
:101B8000E4E00C9480240E94B41060939602709359
:101B900097028093980290939902609392027093B7
:101BA0009302809394029093950208950895089566
:101BB0000E94D70D089508950E94DB0D089581E0DD
:101BC00008958EEC90E10E94CE1B0E94D60D0E94DB
:101BD000D80D08950E9493120895089508950E94C3
:101BE000ED0D0E94EE0D08950E94D1100E94C103D8
:101BF00008950E94321D0E948E100E94B9120E9408
:101C0000C0110E94F40D0E94BD140E94C9120E94CE
:101C1000DC0D08950E94931281110E947F17089590
:101C2000A6E0B0E0E6E1FEE00C945D240E94DF0D4A
:101C300081110AC00E949F0D0E940A0E0E94D403C7
:101C40002696EBE00C9479240E9414128AE8A82EC0
:101C500082E0B82E750110E0F70101917F01812F1C
:101C60000E94F6101F5F183009F441C00817A1F355
:101C700080919A0281FD0E94FC100E94EA0DC82EFC
:101C800010E099249394812F0E94F610082FF501FB
:101C900081915F01081729F1D02ED826F12CEE246E
:101CA000E3948D2D8E21A9F0CC2099F0F9821A832E
:101CB0000E943B1D9C838B839D8291E0802F8E210F
:101CC00009F490E049815A816B817C818D810E9469
:101CD000ED03F394EE0CF5E0FF12E3CFF50131973D
:101CE00000831F5F183079F60E94C30DA5CF08133B
:101CF000BFCFA0CF1F93CF93DF930E94A90FEC011A
:101D0000C11580E5D807F0F5C11580E4D80708F0C3
:101D10009CC0C03ED10520F5CD3CD10508F082C065
:101D2000C83AD10578F4C53AD10508F073C0C1307E
:101D3000D10519F1209709F1C430D105F0F4D0E0B4
:101D4000C0E01BC0C33CD105D0F7C85AD0E0CC0FCF
:101D5000DD1FCE52DE4F0990D881C02DD4640DC056
:101D6000C11580E2D80708F0D1C0C11581E0D807BD
:101D700008F05AC0C83ED10510F7CE01DF91CF91CF
:101D80001F910895C03682E5D80718F5C03482E562
:101D9000D80708F06BC0C03282E5D80708F05FC0F2
:101DA000C11582E5D80708F497C02C2F26952695F3
:101DB00080E2289F900111248C2F8370C1E0D0E035
:101DC00002C0CC0FDD1F8A95E2F7C22BD32BDD6852
:101DD000D4CFC03A82E5D80760F4C03882E5D8078E
:101DE00008F459C0CF71D0E0DC2FCC27C46FD06A83
:101DF000C4CFC03C82E5D80708F462C0C03E82E58B
:101E0000D80708F09CCFDC2FCC27CC27DF71C06F20
:101E1000D06AB3CFC55AD0E0C85FDD4FC881D0E0EB
:101E2000D064ABCFD065A9CF8D2F0E944B10182F57
:101E3000CE0199270E94A90FC12FD0E0DC2FCC271B
:101E4000CC27DF71C82BD92B98CFCE0199270E94C0
:101E5000A90FCC27DF70C82BD92BD06A8ECFCF71BA
:101E6000D0E0DC2FCC27C16FD06A87CF2C2F2695EE
:101E70002695277080E2289F900111248C2F837073
:101E8000C1E0D0E002C0CC0FDD1F8A95E2F7C22B83
:101E9000D32BDC6872CF2C2F26952695277080E2F5
:101EA000289F900111248C2F8370C1E0D0E002C0E4
:101EB000CC0FDD1F8A95E2F7C22BD32BDA685DCFFA
:101EC0008C2F8F710E944B10C82FD0E0DC2FCC27B5
:101ED000CC27DF71D06251CF8C2F8F710E944B10B5
:101EE00055E0D695C7955A95E1F7CF70D0E0DC2F35
:101EF000CC27282F30E084FF05C044E0220F331F99
:101F00004A95E1F7C22BD32BD06937CF8D2F8F7134
:101F10000E944B10182FCE0199270E94A90FC12FA4
:101F2000D0E0DC2FCC27CC27DF71C82BD92BD2CF28
:101F3000462F783030F4653020F4672F0E947C0201
:101F4000089590E080E008950E94980F0E947A0E14
:101F5000089582389105B9F1B0F48133910509F4FF
:101F60007DC048F48932910509F46DC08A3291052B
:101F700009F47BC008958533910509F45FC0893366
:101F8000910509F10895833E9105D9F138F4803E19
:101F9000910529F1823E910579F10895863E9105DA
:101FA000D9F1873E910509F43EC0843E910541F583
:101FB0002091EB0221FF24C08091EA0284FD19C028
:101FC00087EE90E008952091EA02237009F05AC04C
:101FD0002091EB0223FF14C089E290E00895209144
:101FE000EA0220FD38C03091EB0230FF09C024FF27
:101FF00043C090E080E008952091EA0222FDF7CFEF
:1020000008952091EA0222FD3AC03091EB0230FDA2
:1020100039C024FFF5CFEDCF2091EA0223FFF0CFA6
:1020200024FDE7CFCDCF2091EA0223FD2EC03091D1
:10203000EB0231FFEECF84EE90E008952091EA02AA
:1020400025FFDECFC9CF2091EA0225FD21C02091D6
:10205000EB0223FFD5CF89E390E0D2CF2091EA02B3
:1020600026FFCECF8AE290E008952091EA0226FF73
:10207000C7CF81E390E0089583EE90E0089582EE6B
:1020800090E0089580EE90E0089586EE90E0089547
:1020900085E390E008959091EA0292FF06C0282F10
:1020A00028712830F9F4877F846093FF06C0282FB9
:1020B00028712831F1F4877E84612091EB0220FFA2
:1020C00006C0382F38713830D9F4877F816021FFFE
:1020D00006C0282F28712831D1F4877E816194FDB4
:1020E000877E0895282F24712430F9F68B7F88602D
:1020F000DCCF282F2471243101F78B7E8861DDCF5E
:10210000382F3171313019F78E7F8860E0CF282F5A
:102110002171213121F78E7E8861E1CF1092E60294
:102120001092E7021092E8021092E9020895CF920D
:10213000DF92EF92FF926B017C010E94931281115A
:102140000EC00E94471DC61AD70AE80AF90AC092B3
:10215000E602D092E702E092E802F092E902FF90F4
:10216000EF90DF90CF9008950F931F930E949312EA
:10217000882329F00E94471D1F910F9108950E9406
:10218000471D0091E6021091E7022091E80230918C
:10219000E902600F711F821F931FEECF80E0089548
:1021A00008950E94EE0C811102C00E948C0D0E94C5
:1021B000F90C80939A020E94030D9093EB02809396
:1021C000EA020E94D0100E94FE0C90E00E94540788
:1021D00080912C0290912D020E9475070895089518
:1021E0000E94EF1008950E9443020895E82FF0E046
:1021F000EB50FD4F80810895089508950E94FD10D1
:102200000895EF92FF921F93CF93DF9300D000D0F9
:10221000CDB7DEB70E949312182F6091FD0288237C
:1022200009F447C019821A821B821C82862F90E013
:102230009E012F5F3F4F7901B9018B509D4F0E9446
:10224000D7128823E9F08091EC0290E044E050E05E
:10225000B7018B509D4F0E948D2421E020939B025B
:10226000892BC9F410E00E94F310812F0F900F907A
:102270000F900F90DF91CF911F91FF90EF900895F5
:1022800080919B02882371F384E0F70111928A9573
:10229000E9F710929B02E091EC02F0E0EB50FD4F69
:1022A00089819A81AB81BC8180839183A283B3832E
:1022B000DACF70E06B507D4F8091EC0290E08B5054
:1022C0009D4F0E945E130E94FE10CFCF1F93CF93AD
:1022D000DF932EE031E0C1E0D0E0D90150E040E0F2
:1022E0008D918F3F91F0E82FE295EF70F0E011A112
:1022F0008F70BE0101C0660F8A95EAF7962F909500
:10230000912391A382A1862B82A34F5F5F4F45301B
:10231000510531F72B5F3F4F81E022323807E9F654
:10232000DF91CF911F910895CF93DF93AC01A62F3A
:10233000B0E085E0689FF0011124E25FFE4F75E098
:1023400081E060E091919F3FC9F0C92FC295CF70A5
:10235000D0E028A130E09F7002C0359527959A956E
:10236000E2F720FD0BC0282F622B880F715051F728
:10237000A40FB51F6C93DF91CF91089520E0F4CFA7
:10238000A4E1B0E0E6ECF1E10C9466248091220136
:10239000811126C084E1E5E4F1E0DE0111960190AF
:1023A0000D928A95E1F7FE013196AEE0B1E0CE01E3
:1023B000459620812C93218111962C93119722818F
:1023C00012962C931297238113962C9313972481A2
:1023D00014962C931497359615968E179F0749F7E8
:1023E0008091220194E0811190E09093FD0284E0BD
:1023F000891B8093EC020E94661188E0E5EFF2E011
:10240000DF01982F1D929A95E9F7EDEEF2E0DF01DA
:102410001D928A95E9F784E00E9452120E94F01002
:102420006496E2E00C948224A8E0B0E0EAE1F2E1F4
:102430000C9463248E010F5F1F4F88E0F801119206
:102440008A95E9F7F12C6F2DC8010E949411F3943D
:10245000F4E0FF12F8CF48E050E0B8018DEE92E0D2
:102460000E948D2421E0009709F420E0892B41F09F
:1024700088E0F801ADEEB2E001900D928A95E1F7A7
:102480006091FD0270E06B507D4F44E08DEE92E074
:102490000E945312182F0E940111812B2896E5E00B
:1024A0000C947F240895CF92DF92EF92FF920F93C6
:1024B0001F93CF936C017B01042F222349F081E00D
:1024C00080939E020E943B1D90939D0280939C02EC
:1024D000C0919E02C1110AC0C0E08C2FCF911F9104
:1024E0000F91FF90EF90DF90CF90089580919C0224
:1024F00090919D020E94531D059770F310E0A80172
:10250000B601C7010E948D24892B41F0A801B601B4
:10251000C7010E949A2410929E02DFCFC0E0FBCF39
:102520000E948F0D0895CF93DF938091A1028111B6
:1025300017C0C8ECD0E00E944A2481110EC08FE37E
:102540009CE90197F1F700C000002197A1F782E014
:102550008093A1020E94452403C081E08093A102E0
:1025600081E09091A102913009F080E0DF91CF915C
:1025700008950E94EE0C811102C00E948C0D0E94F1
:102580009012809322010E94931281110E940D13D8
:1025900008950E949312811102C00E9410130895A1
:1025A00081E09091A2029A3008F080E008950F93A4
:1025B0001F93CF93DF93EC018B018091A2028A30AD
:1025C000B8F4B801CE010E945B13C82F811122C05C
:1025D0008091A2028F3FB9F40E943B1D9093A0020C
:1025E00080939F028C2FDF91CF911F910F910895BF
:1025F00080919F029091A0020E94531D843F9140C0
:1026000000F7C0E0EFCF8F5F8093A2028A3020F7FF
:10261000C1E0E8CF1092A202E5CF0E946C1A0895A3
:102620000E946F1A0895B0E0A0E0E9E1F3E10C9494
:1026300061247901C82F880FDD0B41155105A9F0E0
:10264000FE0193E0EE0FFF1F9A95E1F7ED5DFE4F5F
:10265000818192818D559D4F208130E04217530733
:1026600008F49A01A9010E949A24CE010E94581BE5
:10267000D82E8823D1F001151105B9F083E0CC0FD5
:10268000DD1F8A95E1F7FE01ED5DFE4F438150E0CD
:102690000417150708F4A801CD5DDE4F6C817D811C
:1026A0006D557D4FC7010E949A248D2DCDB7DEB7A1
:1026B000E7E00C947D240E94551408950E946C1448
:1026C0000895A4E0B0E0E7E6F3E10C94642460919F
:1026D000B8027091B9028091BA029091BB020E9437
:1026E000621D11E0643671058105910518F10E94A3
:1026F000B4106E5F7F4F8F4F9F4F69837A838B83B8
:102700009C8310E000E030E020E044E050E0BE01B7
:102710006F5F7F4F82E00E941313182F882351F0C0
:102720000E94471D6093B8027093B9028093BA0269
:102730009093BB02812F2496E4E00C948024B0E0B7
:10274000A0E0E5EAF3E10C945E247C015B016A0100
:102750000E94D01201E010E0882311F00AE010E09E
:10276000C1E0D0E0B501C701F6010995811104C0AF
:1027700021960C171D072CF4CDB7DEB7EAE00C94B8
:102780007A24CC9F9001CD9F300D300D112490E024
:1027900080E045E34A95F1F7000001968217930720
:1027A000C1F7E0CFA5E0B0E0E8EDF3E10C945E24E2
:1027B0005B01E0900B02F0900C0201E010E09E0142
:1027C0002B5F3F4F50E040E070E060E080E00E940F
:1027D0001313182F882309F44BC067018FEFC81A11
:1027E000D80A6091B4027091B5028091B6029091BE
:1027F000B7020E94621D643671058105910580F162
:1028000004E010E09E012F5F3F4F50E040E070E099
:1028100060E081E00E941313F82E64E070E0C601CE
:102820000E94BE1411E09D81981310E01F2159F100
:102830000E94471D6093B4027093B5028093B60264
:102840009093B70289819A81AB81BC818093B00259
:102850009093B102A093B202B093B30211E013C0FF
:1028600064E070E0C6010E94BE149D818913C8CF48
:10287000F70181819281A381B48189839A83AB839B
:10288000BC831111DFCF8091B0029091B102A09171
:10289000B202B091B302F50180839183A283B38326
:1028A000812F2596EAE00C947A240F931F93CF93FF
:1028B000DF93EC018B0142ED53E10E949F138823CB
:1028C00031F041E653E1B801CE010E949F13DF9140
:1028D000CF911F910F9108950F931F93CF93DF9383
:1028E000C0910B02D0910C02CE01019624E0FB01B5
:1028F000DC0101900D922A95E1F764E070E00E94FE
:10290000BE1488836D817E818F8198850091AC0291
:102910001091AD022091AE023091AF0260177107A5
:102920008207930751F06093AC027093AD028093DD
:10293000AE029093AF020E949710DF91CF911F914A
:102940000F9108950E94121F0E94F90D0E941F1FEF
:1029500008950E94241F0E94100E0E94471F089590
:102960000E94D41C0E94F81E0E94E10D0E94A21435
:102970000E94A9140E94EF0DFBCF0895FC01680F7F
:10298000791F8FEF91E36E177F0709F40895219166
:10299000822728E030E087FF06C0880F8927215072
:1029A0003109C9F7F0CF880FFACFCF93DF93EC014D
:1029B000FB018581882309F4D2C09E013057233260
:1029C000310508F0B2C00E94030D9093EB02809392
:1029D000EA02FE01E150F047E232F10520F4ED5F3A
:1029E000FA4D0C9450248091EA0281608093EA02AF
:1029F00093C08091EB0288608093EB028DC0809140
:102A0000EA028260F3CF8091EA028460EFCF809186
:102A1000EA028860EBCF8091EB028160EDCF80917C
:102A2000EB028260E9CF8091EA028061DFCF809182
:102A3000EA028062DBCF8091EA028064D7CF0E94F5
:102A400007078091EA028068D1CF8091EA028C600A
:102A5000CDCF8091EB028360CFCF8091EA028E7F51
:102A6000C5CF8091EB02877FC7CF8091EA028D7F2F
:102A7000BDCF8091EA028B7FB9CF8091EA02877F38
:102A8000B5CF8091EB028E7FB7CF8091EB028D7F27
:102A9000B3CF8091EA028F7EA9CF8091EA028F7D29
:102AA000A5CF8091EA028F7BA1CF0E94070780917A
:102AB000EA028F779BCF8091EA02837F97CF809144
:102AC000EB028C7F99CF8091EA0282FB992790F9E3
:102AD00021E0922790FB82F990FB83F987CF8091C8
:102AE000EB02982F909591708E7F892B90FB81F946
:102AF00083CF9091EA02892F8F7B96FF806476CFF7
:102B00000E9407079091EA02892F97FB87F9805866
:102B10006DCF81E00E94990D8091EA029091EB02C5
:102B20000E94080D0E94070780E0DF91CF91089571
:102B300080E0F0CF9091EA02892F8F7E94FF806130
:102B400055CF9091EA02892F8E7F90FF81604ECF02
:102B50009091EB02892F877F93FF88604DCF81E0B2
:102B6000E4CFB0E0A0E0E7EBF5E10C946124E82FBE
:102B7000F0E0E15FFD4FD490282F2695269526950D
:102B800030E0F901E155FD4F0491877010E0082E07
:102B900002C0159507950A94E2F701701127F90113
:102BA000E156FD4FE490F12C082E02C0F594E79415
:102BB0000A94E2F791E0E922FF24F901E157FD4F81
:102BC000C491D0E002C0D595C7958A95E2F7C1704F
:102BD000DD270115110519F081EE0E942604E1148C
:102BE000F10419F086EE0E9426048D2D0E94AC049B
:102BF000E114F10419F086EE0E946A040115110532
:102C000019F081EE0E946A04CD2B19F08CE20E942B
:102C1000AC04CDB7DEB7E7E00C947D24EF92FF92D1
:102C20000F931F93CF93DF938C01F62E8AE0E82E4B
:102C3000F8018491882309F454C0813009F04DC013
:102C4000E8012196FE018491813091F42196FE01E4
:102C500084910E94AC048E010F5F1F4F8F2D815015
:102C600038F3EFE9FFE03197F1F700C00000F7CF4C
:102C7000823039F4E8012296FE0184910E942604F4
:102C8000EACF833039F4E8012296FE0184910E9454
:102C90006A04E1CF8430F9F6E8012296FE0124911E
:102CA00090E080E0FE0131962053330B2A3031054D
:102CB00048F0019780F2EFE9FFE03197F1F700C0AB
:102CC0000000F7CFE89EA001E99E500D1124C90134
:102CD000840F951F2491EF01E5CF0E94B115E80103
:102CE000BACFCDB7DEB7E6E00C947E24CF93DF9366
:102CF000EB0186319C4711F50E94CA0B9D819923F7
:102D000099F08A7A91E009F490E09093BC028111E5
:102D100009C089E20E949F0B0E94320C80E0DF9183
:102D2000CF91089585E3F6CF8091BC02811104C054
:102D300089E20E94A70BF0CF85E3FBCF81E0EFCFC4
:102D4000FC018581862351F492819923B9F069238E
:102D5000818583FF05C081E061110FC080E0089587
:102D6000892F8F7092959F70982B862F8F70629508
:102D70006F70682B81E09613F1CF089581E0FDCF4D
:102D8000CF93DF93EC016091C7027091C8028091EC
:102D9000C9029091CA020E94621D643F7140810580
:102DA000910518F58091C7029091C802A091C902BF
:102DB000B091CA028093C3029093C402A093C5024B
:102DC000B093C60284EF91E0A0E0B0E08093BF0230
:102DD0009093C002A093C102B093C202D093BE02EE
:102DE000C093BD02DF91CF9108950E94471D60936B
:102DF000C3027093C4028093C5029093C60282E31B
:102E000090E0A0E0B0E0E2CFFF920F931F93CF934A
:102E1000DF93F82E0091CE021091CF02011511051B
:102E200009F44DC01092BE021092BD020E94F60B32
:102E30000E94F00B0091CE021091CF02D80117969C
:102E4000CD91DC919E013A9521153F4108F4D07E49
:102E5000D1E0C11101C0D0E0D8011A96ED91FC91EA
:102E60001B97309731F01C966D917C9180E009950D
:102E7000D823DD2339F08CEF8C0F813A30F58C2F7D
:102E80000E94A70BFF2099F0E091CE02F091CF02B3
:102E9000818584FD0CC08091CD02882341F0808122
:102EA00091819C01215031092F333E47A0F00E94AF
:102EB000320C1092CF021092CE021092CD02C801B5
:102EC000CDB7DEB7E5E00C947F240E94320C8C2F46
:102ED0000E946A04D7CF0E94C016E9CF10923B012E
:102EE00080E00E940417089580913B01882319F027
:102EF0000E946E17089581E080933B0108950F931F
:102F00001F938091BD029091BE02892B89F160913F
:102F1000C3027091C4028091C5029091C6020E94C2
:102F2000621D0091BF021091C0022091C102309138
:102F3000C2026017710782079307D0F08091BD022B
:102F40009091BE020E94BA021092BE021092BD027F
:102F50001092C3021092C4021092C5021092C602CF
:102F60001092BF021092C0021092C1021092C202CF
:102F70001F910F910895A4E0B0E0E1ECF7E10C940B
:102F800056248C017A836983DB0115965C90552069
:102F9000B1F08E35BCE79B0759F08F35ECE79E0703
:102FA00059F08D359C4759F40E947417312C0DC08F
:102FB00081E080933B01FACF0E946E17F7CF3090EB
:102FC0003B01311007C033243394832D2496E2E172
:102FD0000C947224680120EEC21AD1080E94CA0B18
:102FE000F82E0E94B60B482E0E94F90B482A4F2853
:102FF00038E0C316D10408F094C098012770332735
:1030000081E090E001C0880F2A95EAF7552009F485
:1030100085C0482AA981BA818D919C910E9460083F
:1030200080900001909001018114910409F4E1C0A5
:1030300021E030E0F90102C0EE0FFF1F8A95E2F7B0
:10304000FA83E9836090CE027090CF02A090CB0209
:10305000B090CC02212CE22DF0E0EE0FFF1FE80D26
:10306000F91D208131813C832B832115310509F421
:10307000C0C0411005C0D90112968C9181118BC03E
:10308000EB81FC818381948129813A81822393237E
:10309000892B09F480C08185982F977009F487E007
:1030A00038E0C316D10408F056C0552009F44FC0CB
:1030B00086958170882309F46EC0AB81BC81ED9048
:1030C000FC900E151F0519F4552009F464C0EB811E
:1030D000FC81E615F70509F45EC00684F785E02D4E
:1030E000309721F08081882309F455C0642D8B81AD
:1030F0009C810E94A016882309F44DC00E151F055F
:1031000009F08BC00115110509F48CC051108CC059
:10311000EA14FB0409F03FC0512C86C08095482278
:1031200079CF552009F44EC01093CC020093CB0206
:103130000E94471D6093C7027093C8028093C90222
:103140009093CA021092BE021092BD0263CF82FB1E
:10315000882780F9AFCF5520F1F08170ABCF0E9466
:103160006A0483C00497813A910548F4802F0E9435
:103170009F0B552009F427CF0E94320C17CF0E94D5
:10318000320C8FE39CE90197F1F700C00000802F1B
:103190000E942604EECF23945ECFFC012081318172
:1031A0002017310731F4511007C01092CD0280E092
:1031B00031C0552009F407CFDC0119968C9185FDAB
:1031C00002CFF5CF8091CB029091CC02801791076E
:1031D00081F41092CC021092CB021092C70210928E
:1031E000C8021092C9021092CA021092BE02109236
:1031F000BD028091CE029091CF02009709F4E3CEF8
:10320000A8E0CA16D10448F6642D0E94A0168111C8
:10321000DACE81E00E940417D8CEE114F10409F05F
:1032200077CF512CF12CE12C80E00E940417EB8128
:10323000FC81F093CF02E093CE0281E08093CD0237
:1032400086810E94F30B511010C0E114F10469F063
:10325000AB81BC818D919C919C0124503109213A14
:10326000310508F07CCF0E94A70BEB81FC81078120
:103270001085C8019A9581159F4108F4107EFF249E
:10328000F394C80101978F339E4708F0F12CAB816E
:10329000BC811A96ED91FC911B97309731F01C96EA
:1032A0006D917C9181E00995F822FF2081F0EB81FE
:1032B000FC81878190850E947F020E94ED0BC801EE
:1032C000F8E0CF16D10408F04DCF0E94C0160E943E
:1032D000320C4FCF0F931F93CF93DF93C42FD22F76
:1032E000FC0185818823C9F04093D2020E943B1DD6
:1032F0009093D1028093D00280E28C0F883040F40A
:10330000C77081E001C0880FCA95EAF70E94B50432
:10331000DF91CF911F910F9108951091D202141354
:1033200032C08091D0029091D1020E94531D883CFE
:10333000910548F5C0E2CD0F1D17B9F080E2810F6D
:10334000883040F4177081E001C0880F1A95EAF7C1
:103350000E94BC04C83048F481E09D2F977001C0E2
:10336000880F9A95EAF70E94B504802F0E94AC045A
:10337000C83070F6D77081E001C0880FDA95EAF79F
:103380000E94BC04C5CF80E28C0F883008F6C7705D
:1033900081E001C0880FCA95EAF7F2CF0F93DB01F5
:1033A00088519C4787309105A0F5FC01EB5DFA4DF3
:1033B0000C94502406E221EE41EE6AE17CE7CD0157
:1033C0000E946A1980E00F91089507E225EE45EE0C
:1033D0006BE17CE7F4CF06E221EE40EE68E17CE7AA
:1033E000EECF07E225EE44EE69E17CE7E8CF06E2A6
:1033F00021EE42EE6CE17CE7E2CF07E225EE46EEFD
:103400006DE17CE7DCCF08E221E045EE6EE17CE790
:10341000D6CF15968C91882319F01092D202D3CF73
:1034200081E0D1CF8EE14A9B02C08150E1F74A9BF7
:10343000FECF08955A9880E28A95F1F75A9A089536
:10344000FC013BE03A95F1F798E020E080E031E0C4
:1034500040E14A95F1F7880F4A9B02C0816023271B
:1034600042E04A95F1F7000040E14A95F1F79150AA
:1034700079F790E19A95F1F799B132E03A95F1F741
:10348000000040E14A95F1F792FB992790F99227C5
:103490002081920F90830895A1E0B0E0E2E5FAE187
:1034A0000C94622419828C017C01E60EF11C0E152D
:1034B0001F0541F481E09981911180E02196E6E0B9
:1034C0000C947E240E94121ACE0101960E94201AAA
:1034D000F80181938F01EBCF529A5A9A089552982E
:1034E0005A9AEA9AE9E6F0E080818F7C8083089519
:1034F0006150770B91E001C0990F6A95EAF720E0DF
:1035000031E0911108C0222391F05A9A80E28A9505
:10351000F1F75A980895492F482339F05A9A2327EA
:1035200040E24A95F1F79695ECCF5A98F9CF5A9820
:10353000EDCFFF920F931F93CF93DF93EC018C019C
:10354000060F111DC017D10729F4CDB7DEB7E5E08E
:103550000C947F24F9900E941A1A68E08F2D0E9423
:10356000781AF0CF1F920F920FB60F9211240F937B
:103570001F932F933F934F935F936F937F938F93FB
:103580009F93AF93BF93EF93FF93CF93DF930F92EC
:10359000CDB7DEB719820E94121ACE0101960E94A1
:1035A000201A082F069506950695282F2295257036
:1035B000902F9570290F922F937026952695920F34
:1035C000982797708981982B09F05CC0043008F027
:1035D00059C080E18A95F1F75A9A529A82E08A9509
:1035E000F1F700C05A9888E0089F80011124D801A3
:1035F000AD5DBE4F1696ED91FC9117973097A9F0EF
:1036000060910B0270910C0214962D913C911597CC
:10361000260F371F11968D919C911297680F791F75
:1036200013964C9113978C910995F801ED5DFE4F1F
:103630006381662351F020910B0230910C0284814A
:103640009581820F931F0E94991A0E941A1A80E195
:103650008A95F1F75A9852985A9A80E18A95F1F72B
:10366000F801ED5DFE4F6081662351F020910B0261
:1036700030910C0281819281820F931F0E944C1A1B
:103680000E94121A0F90DF91CF91FF91EF91BF919D
:10369000AF919F918F917F916F915F914F913F91EA
:1036A0002F911F910F910F900FBE0F901F901895A3
:1036B0000F931F93CF93DF93EC0104970CF04CC052
:1036C000F894529A5A9885E08A95F1F700009C2F59
:1036D000969595708C2F8570980F892F837096958D
:1036E000969523E0CC0FDD1F2A95E1F7980F8E0108
:1036F000092B0E941A1A00C068E0802F0E94781AD5
:1037000080E18A95F1F752985A9A4A9B1EC087E049
:1037100090E04A991CC0FE01ED5DFE4F6381662377
:10372000F9F020910B0230910C0284819581820F77
:10373000931F0E944C1A811113C0529A5A9A78947E
:10374000DF91CF911F910F91089500C0DECF0197B7
:1037500029F4529A5A9A789480E0F2CF00C0D9CFD7
:103760000E94121A80E28A95F1F75A98529A80E1E3
:103770008A95F1F7CD5DDE4F6881662351F0209187
:103780000B0230910C0289819A81820F931F0E9453
:10379000991A0E941A1A789481E0D2CF90930F025E
:1037A00080930E0208959093D9028093D8020895D1
:1037B0000E949312811103C08091D3020895E09179
:1037C000D802F091D902309729F00190F081E02DD4
:1037D0000995089580E00895E091D802F091D9020A
:1037E000309721F00280F381E02D09950895A3E040
:1037F000B0E0EDEFFBE10C9466242091D60230910D
:10380000D70228173907A1F09093D7028093D602E8
:10381000E091D802F091D902309751F023E029834A
:103820009B838A830680F781E02DCE01019609955E
:103830002396E2E00C948224A3E0B0E0E2E2FCE113
:103840000C9466242091D4023091D50228173907B0
:10385000A1F09093D5028093D402E091D802F09128
:10386000D902309751F024E029839B838A83068014
:10387000F781E02DCE01019609952396E2E00C94A4
:1038800082249C012E5F3F4FAC01485F5F4F80E078
:103890002417350709F40895F90191919F0199239F
:1038A000B9F38F5FF5CF662349F0FC013296089695
:1038B0002191261729F0E817F907D1F780E008953C
:1038C00081E008959C01FC0132969FEF80E04191D8
:1038D000461751F09F3F19F4411101C0982F8F5F97
:1038E0008630A9F79F3F09F40895290F311D97FDF0
:1038F0003A95F90162830895FC0132960896219168
:10390000261303C0DF0111971C92E817F907B9F7D6
:1039100008950E94621C08950E947C1C08950296DE
:1039200026E0FC0111922A95E9F7089508950E9476
:10393000961C0895811106C081E08093DA020E94EE
:10394000971C089582E0F9CF83E08093DA020E9409
:10395000971C08950E949A1C089581E08093DA02D2
:103960000E94971C08950E94AD1C08950895089523
:103970000E94B71C0895089508950E94B61C0895EA
:10398000CF930E94BB1C0E9414120E94BC1CC0E07A
:103990008C2F0E94F610811105C0CF5FC830C1F78F
:1039A000CF91089581E0FCCF85B7806885BF85B74A
:1039B000806885BF08951F921FB61F9211248F93B0
:1039C0009F93AF93BF938091DB02811113C08091CD
:1039D000FE029091FF02A0910003B0910103419675
:1039E000A11DB11D8093FE029093FF02A0930003DE
:1039F000B0930103BF91AF919F918F911F901FBE14
:103A00001F90189580910603843031F10E94A40321
:103A10001092DB0288E190E020E40FB6F894A895BC
:103A2000809360000FBE2093600083B7817F846025
:103A300083BF83B7816083BF7894889583B78E7F77
:103A400083BF0FB6F894A895809160008861809339
:103A50006000109260000FBE08950E9407070E9448
:103A6000A903089582E084BD93E095BD9AEF97BDC8
:103A700080936E0008952FB7F8948091FE02909184
:103A8000FF02A0910003B09101032FBF08952FB74B
:103A9000F8946091FE027091FF0280910003909172
:103AA00001032FBF08959C014FB7F8948091FE0247
:103AB0009091FF02A0910003B09101034FBF821BC0
:103AC000930B0895CF92DF92EF92FF922FB7F89465
:103AD000C090FE02D090FF02E0900003F09001033E
:103AE0002FBFA7019601261B370B480B590BCA01A4
:103AF000B901FF90EF90DF90CF90089578941F92D6
:103B00001FB61F9211248F939F93AF93BF93809101
:103B1000FE029091FF02A0910003B0910103019673
:103B2000A11DB11D8093FE029093FF02A09300039C
:103B3000B0930103BF91AF919F918F911F901FBED2
:103B40001F90189587E797E79093010880930008E6
:103B500088E19AE00FB6F894A895809360000FBEB4
:103B600090936000FFCF88E19AE00FB6F894A89593
:103B7000809360000FBE90936000FFCF8091E402BD
:103B8000089508959B01BA01909106039430E9F4D9
:103B90008F708093E9009FEF8091E800915085FD40
:103BA00006C085ED8A95F1F700009111F5CF80915F
:103BB000E80085FF0AC050E040E0C9010E94BE1F36
:103BC0008091E8008E778093E800089543E050E00C
:103BD000BC0182E00E94C21D0895CF93DF93EC01E7
:103BE00048E050E0BC0181E00E94C21D88E0FE0177
:103BF000ACEDB2E001900D928A95E1F7DF91CF91A3
:103C0000089580910503811109C00E944E210E94F0
:103C1000AB218091E20084608093E20008951092CD
:103C2000050308950E94AD1C08956091020381E090
:103C3000611101C080E00E94A41C089590910603C8
:103C400081E0943009F080E0609102030E94AA1C98
:103C5000089542E061EC81E00E94CA2042E261ECFA
:103C600082E00E94CA209091060381E0943009F01E
:103C700080E0609102030E949A1C089580910803DD
:103C8000833009F461C030F48130D1F1823009F41D
:103C90009EC008958A3009F48AC08B3009F46FC041
:103CA000893009F050C080910703813209F04BC080
:103CB00080910B0390910C03029708F044C080910F
:103CC000E800877F8093E8008091E80082FF37C09A
:103CD0009091F3008091F200029731F48091F1000D
:103CE000813011F0863021F48091F1008093E4025C
:103CF0008091E8008B778093E8000E94FE2023C02B
:103D000080910703813AF9F48091E800877F8093DE
:103D1000E80080910B0390910C03892B61F468E01B
:103D20008CED92E070E00E940D208091E8008B778E
:103D30008093E800089560E090E080E0F3CF809108
:103D400006038111C1CF089580910703813AD9F705
:103D500080910B0390910C03892BA9F78091E800C7
:103D6000877F8093E8008091E80080FFFCCF8091FE
:103D700044018093F1008091E8008E77BCCF809160
:103D80000703813201F780910B0390910C03892B7B
:103D9000D1F68091E800877F8093E8000E94FE20A2
:103DA00080910903809344010E9407070895809140
:103DB0000703813241F68091E800877F8093E80015
:103DC0000E94FE2080910A038093E502089580916D
:103DD0000703813A09F0B7CF8091E800877F80938D
:103DE000E8008091E80080FFFCCF8091E502C1CF20
:103DF00084B7877F84BF0FB6F894A8958091600040
:103E0000886180936000109260000FBE80E890E0AF
:103E10000FB6F89480936100909361000FBE0E94EA
:103E2000B31C08950E944E210E94AB21E2EEF0E007
:103E300080818460808378940E942A2408958CE392
:103E400091E00E94D31B089580910603853031F4E0
:103E500080910603853019F00E942D1D08950E945F
:103E6000021D80910403882399F30E94C01C8823BB
:103E700079F30E94A81F0E9407072FEF83EC99E0B7
:103E8000215080409040E1F700C00000E1CF08954C
:103E90009A0140910D0350910E030E94501F089506
:103EA000492F55274330510519F168F44130510528
:103EB00009F444C04230510509F445C090E080E067
:103EC00050E040E025C04132510549F142325105F0
:103ED000A9F780E490E04AE753E061157105C1F06D
:103EE00082E390E048E453E06130710589F0E6CF69
:103EF00099278130910581F0009729F00297F1F61A
:103F0000EFEBF2E002C0E7EFF2E0849190E0AF0166
:103F1000F901518340830895E3EDF2E0F6CF89E0A3
:103F200090E04DE053E06115710591F389E090E078
:103F300046E253E06130710559F3C0CF82E190E071
:103F400046E353E0E5CF8BE390E04BEF52E0E0CF68
:103F500080E189BD82E189BD09B400FEFDCF809179
:103F6000D8008F7D8093D8008091E000826080939C
:103F7000E0008091E00081FDFCCF0895AF92BF92F8
:103F8000CF92DF92FF920F931F93CF93DF936C0139
:103F9000EB018A010E941D21F82E811123C0011519
:103FA000110539F0F80180819181C81BD90BC80E29
:103FB000D91EB12CA12C2097A9F08091E80085FD95
:103FC00022C08091E8008E778093E80001151105EA
:103FD000A1F0F80180819181A80EB91EB182A08262
:103FE00085E0F82E8F2DDF91CF911F910F91FF90DB
:103FF000DF90CF90BF90AF9008950E941D2188233D
:10400000D1F2F82EEFCFF60181916F018093F1008C
:104010002197FFEFAF1ABF0ACECFFC0180910D03AD
:1040200090910E0386179707A0F06115710529F48A
:104030009091E8009E779093E80090E061157105FB
:1040400051F4911108C08091E80082FF34C080E0F3
:104050000895BC01F2CF809106038823C1F1853019
:10406000C1F18091E80083FD30C08091E80082FDBD
:10407000EACF8091E80080FFE1CF8091F3002091AA
:10408000F200382F6115710519F02830310558F00C
:1040900091E02830310509F090E02091E8002E777A
:1040A0002093E800CBCF81918093F100615071099A
:1040B0002F5F3F4FE7CF80910603882341F0853083
:1040C00041F08091E80083FFBECF81E0089582E057
:1040D000089583E00895FC0180910D0390910E03F3
:1040E00086179707A0F06115710529F48091E80003
:1040F0008E778093E80090E06115710551F491117D
:1041000008C08091E80082FF35C080E00895BC01BE
:10411000F2CF809106038823C9F18530C9F18091DF
:10412000E80083FD31C08091E80082FDEACF8091F4
:10413000E80080FFE1CF8091F3002091F200382F5A
:104140006115710519F02830310558F091E02830DB
:10415000310509F090E08091E8008E778093E800C7
:10416000CBCF84918093F1003196615071092F5F1C
:104170003F4FE6CF80910603882341F0853041F020
:104180008091E80083FFBDCF81E0089582E008952B
:1041900083E00895982F973028F08F708093E9007E
:1041A00081E008959093E900242F762F50E098172E
:1041B00031F07091EC002091ED005091F00021FD64
:1041C00002C09F5FE8CF3091EB003E7F3093EB0061
:1041D0003091ED003D7F3093ED003091EB00316088
:1041E0003093EB007093EC002093ED005093F000BF
:1041F0002091EE0027FDE5CF80E008958091070330
:1042000087FF13C08091E80082FF06C08091E8001C
:104210008B778093E80004C0809106038111F2CF70
:104220000895809106038823D9F38091E80080FFE8
:10423000F8CF8091E8008E77ECCF2091E4003091A8
:10424000E50095E6A9012091EC00822F817020FF06
:1042500006C08091E80080FF06C080E008952091AC
:10426000E80022FD1AC080910603882389F085307A
:1042700089F08091EB0085FD0FC02091E400309122
:10428000E50042175307F9F29150E1F684E00895F2
:1042900082E0089583E0089581E008950E94BD21A1
:1042A0000E94C521E0EEF0E0808181608083E8ED2E
:1042B000F0E080818F77808319BCA7EDB0E08C910E
:1042C0008E7F8C9380818F7E80831092050308956A
:1042D0000F931F93CF93DF930E94BD210E94C521AE
:1042E000C8EDD0E088818F77888388818068888353
:1042F00088818F7D888319BC109206031092020377
:10430000109204031092030300EE10E0F801808184
:104310008B7F808388818160888342E060E080E0D9
:104320000E94CA20E1EEF0E080818E7F8083E2EE81
:10433000F0E0808181608083808188608083F801E3
:1043400080818E7F8083888180618883DF91CF9197
:104350001F910F910895E8EDF0E080818F7E8083BA
:10436000E7EDF0E080818160808384E082BF81E0BE
:10437000809305030E9468210895E8EDF0E08081B4
:104380008E7F80831092E20008951092DA001092DE
:10439000E10008951F920F920FB60F9211242F93F0
:1043A0003F934F935F936F937F938F939F93AF93BD
:1043B000BF93EF93FF938091E10082FF0BC0809148
:1043C000E20082FF07C08091E1008B7F8093E100D3
:1043D0000E9429248091DA0080FF19C08091D800C2
:1043E00080FF15C08091DA008E7F8093DA00809183
:1043F000D90080FF96C080E189BD82E189BD09B402
:1044000000FEFDCF81E0809306030E94011E809193
:10441000E10080FF19C08091E20080FF15C080910B
:10442000E2008E7F8093E2008091E20080618093C1
:10443000E2008091D80080628093D80019BC85E0AA
:10444000809306030E94151E8091E10084FF2BC01B
:104450008091E20084FF27C080E189BD82E189BDAF
:1044600089B5982F917080FFFBCF8091D8008F7D08
:104470008093D8008091E1008F7E8093E10080914D
:10448000E2008F7E8093E2008091E2008160809361
:10449000E20080910203882309F449C084E08093FC
:1044A00006030E941E1E8091E10083FF29C08091B7
:1044B000E20083FF25C08091E100877F8093E100C7
:1044C00082E080930603109202038091E1008E7FC8
:1044D0008093E1008091E2008E7F8093E2008091E2
:1044E000E20080618093E20042E060E080E00E94B0
:1044F000CA208091F00088608093F0000E94121E14
:10450000FF91EF91BF91AF919F918F917F916F91AB
:104510005F914F913F912F910F900FBE0F901F9081
:10452000189519BC109206030E940F1E70CF80913F
:10453000E30087FD93E090930603B3CF1F920F92A1
:104540000FB60F9211242F933F934F935F936F9366
:104550007F938F939F93AF93BF93CF93DF93EF930B
:10456000FF93D091E900DF708091EC00C82FC170FB
:1045700080FDC0E81092E9008091F000877F809371
:10458000F00078940E94E2221092E9008091F000FD
:1045900088608093F000CD2BCF70C093E900FF912D
:1045A000EF91DF91CF91BF91AF919F918F917F91CB
:1045B0006F915F914F913F912F910F900FBE0F9090
:1045C0001F901895AAE2B0E0E8EEF2E20C946524A0
:1045D00087E093E02091F100FC012193CF01F3E00B
:1045E0008F309F07B9F70E943E1E8091E80083FF3D
:1045F0001EC180910703909108039A3008F017C1FB
:10460000E92FF0E0E45DFA4D0C945024803899F0E5
:10461000823809F00CC180910B038F70873008F04D
:1046200006C18093E9008091EB0085FB882780F923
:104630001092E90006C08091030390910403911148
:1046400082609091E800977F9093E8008093F1005A
:104650001092F1008091E8008E77E5C0882309F47C
:10466000D3C0823009F0E3C0809109038111D6C024
:1046700080910B038F702FEF280F263008F0D7C0E2
:104680008093E9002091EB0020FFC8C0933031F403
:104690008091EB0080628093EB00C0C09091EB00B2
:1046A00090619093EB0021E030E001C0220F8A95E9
:1046B000EAF72093EA001092EA008091EB0088600C
:1046C000EACF8111B4C0109109031F778091E300F4
:1046D0008078812B8093E3008091E800877F80932E
:1046E000E8000E94FE208091E80080FFFCCF8091CE
:1046F000E30080688093E30082E0111183E08093FF
:10470000060395C08058823008F091C0809109035B
:1047100090910A038C3D23E09207A1F583E08A8300
:104720008AE289834FB7F894DE01139620E03EE0D9
:1047300051E2E32FF0E050935700E49120FF03C0D3
:10474000E295EF703F5FEF708E2F90E0EA30C0F09F
:10475000C7968D939D932F5F243159F74FBF80915A
:10476000E800877F8093E8006AE270E0CE0101965E
:104770000E940D208091E8008B778093E80057C05D
:10478000C096E7CF60910B0370910C03AE014F5FB1
:104790005F4F0E94481FBC01892B09F448C09091CB
:1047A000E800977F9093E80089819A810E946B20AE
:1047B000E1CF8038E1F58091E800877F8093E800C1
:1047C000809102038093F10045CF811130C0909118
:1047D0000903923060F58091E800877F8093E800BC
:1047E000909302030E94FE2080910203882311F01F
:1047F00084E005C08091E30087FDFACF81E08093DB
:1048000006030E94291E13C080910903813079F4A8
:1048100081E0933009F080E0809304031092E90076
:104820008091E800877F8093E8000E94FE208091BD
:10483000E80083FF0AC08091E800877F8093E8004A
:104840008091EB0080628093EB00AA96E3E00C94E9
:1048500081240895CF93809106038823A1F0C0910D
:10486000E900CF709091EC00892F817090FD80E875
:10487000C82B1092E9008091E80083FD0E94E2229B
:10488000CF70C093E900CF9108950E944E211092FD
:10489000060308958091E300881F8827881F0895E4
:1048A000EE0FFF1F0590F491E02D09942F923F9297
:1048B0004F925F926F927F928F929F92AF92BF9230
:1048C000CF92DF92EF92FF920F931F93CF93DF93DC
:1048D000CDB7DEB7CA1BDB0B0FB6F894DEBF0FBE39
:1048E000CDBF09942A88398848885F846E847D8486
:1048F0008C849B84AA84B984C884DF80EE80FD8088
:104900000C811B81AA81B981CE0FD11D0FB6F894FD
:10491000DEBF0FBECDBFED010895FB01DC0104C079
:104920008D910190801921F441505040C8F7881BA7
:10493000990B0895FB01DC0102C001900D924150DA
:104940005040D8F70895F999FECF92BD81BDF89AED
:10495000992780B50895A8E1B0E042E050E00C94BA
:10496000E724DC01A40FB51F4150504048F0CB01B3
:10497000840F951F2E910E94C22441505040D0F7C1
:104980000895262FF999FECF92BD81BDF89A01971F
:1049900000B4021639F01FBA20BD0FB6F894FA9A87
:1049A000F99A0FBE08950396272F0E94C2240E94F1
:1049B000C124252F0E94C224242F0C94C2240196C6
:1049C000272F0E94C2240C94C124DC01CB01FC01DE
:1049D000F999FECF06C0F2BDE1BDF89A319600B458
:1049E0000D9241505040B8F70895F894FFCF02055A
:1049F000020552055205B705310531053105D305CC
:104A00004406530653062D15A1153515FF1403153D
:104A1000391507153D15491513159A1517154D1517
:104A20001B15511579151F155515801525155B1585
:104A300063150B1541150F15451529155F156F15D4
:104A400089159815F9143115A815EB19F119DA190A
:104A5000E519F719FD19031A06232E2317242E230F
:0C4A60001724612382231724D923E523A7
:104A6C000201890179016901590100007C0232942B
:104A7C00F691F4C63390F59336973166F73435FFDB
:104A8C00FFFF010000000100000000000000040115
:104A9C00000000040500000000000001BE1DED1D1B
:104AAC00C11DE61D01F491F6943293F59033C6F7CF
:104ABC00663197363534FFFFFF100222FFFF0022CC
:104ACC00380007000000000000360222FFFF002221
:104ADC00370007000000000000100022FFFF00223A
:104AEC00360007000000000000210022FFFF00221A
:104AFC00200007000000000000E200E900EA00B519
:104B0C0000B600B700CD008301CC008A019201945D
:104B1C00012102230224022502260227022A02B3C3
:104B2C0000B4006F0070009F01CB019F02A00281B6
:104B3C008283E200E900EA00B500B600B700CD00C0
:104B4C008301CC008A0192019401210223022402E8
:104B5C002502260227022A02B300B4006F0070005F
:0E4B6C009F01CB019F02A002818283A3020061
:00000001FF
