:100000000C946B010C9488010C9488010C94F31AE5
:100010000C9488010C9488010C9488010C9488013C
:100020000C9488010C9488010C9423220C94F722E0
:100030000C94371D0C9488010C9488010C94880151
:100040000C9488010C9488010C9488010C9488010C
:100050000C9488010C94DA1D0C9488010C9488018E
:100060000C9488010C9488010C9488010C948801EC
:100070000C9488010C9488010C9488010C948801DC
:100080000C9488010C9488010C9488010C948801CC
:100090000C9488010C9488010C9488010C948801BC
:1000A0000C9488010C9488010C94880114001A00A7
:1000B00008001500170004001600070009000A00D8
:1000C0001D001B000600190005002B002800000081
:1000D0000000000000000000000000000000000020
:1000E0000000000000000000000000000000000010
:1000F0000000000000000000000000000000000000
:10010000000000002A2B2800000000000000000072
:100110000000000000000029000000002C1E342018
:10012000212224342627252E362D3738271E1F203E
:100130002122232425263333362E37381F04050683
:100140000708090A0B0C0D0E0F10111213141516C7
:100150001718191A1B1C1D2F3130232D35040506C5
:100160000708090A0B0C0D0E0F10111213141516A7
:100170001718191A1B1C1D2F3130354C00000000B8
:10018000000000000000000000000000000000006F
:10019000000000000000000000000000000000005F
:1001A0007E0F00D4FFFFFFC70000007812034B0052
:1001B0006100680062006F0061007200640000006E
:1001C000080344005000420000000403090409022F
:1001D0003B00020100A0FA09040000010301010034
:1001E00009211101000122400007058103080001D7
:1001F000090401000103000000092111010001228E
:100200007B000705820320000112010002000000AC
:1002100008ABC2393901000102000105010902A140
:100220000185020901A10005091901290815002508
:1002300001950875018102050109300931158125F3
:100240007F95027508810609381581257F9501750E
:10025000088106050C0A38021581257F950175086D
:100260008106C0C005010980A101850319012AB7D3
:1002700000150126B700950175108100C0050C0915
:1002800001A101850419012AA002150126A00295E9
:100290000175108100C005010906A101050719E0DB
:1002A00029E715002501950875018102950175085A
:1002B00081010507190029FF150026FF0095067525
:1002C0000881000508190129059505750191029518
:1002D0000175039101C011241FBECFEFDAE0DEBF2C
:1002E000CDBF11E0A0E0B1E0ECE8FBE402C0059076
:1002F0000D92A83CB107D9F722E0A8ECB1E001C00B
:100300001D92A23CB207E1F70E9405140C947D25D2
:100310000C940000811112C0683080F4453070F4F4
:10032000E42FF0E085E0689FE00DF11D1124EE0F51
:10033000FF1FE455FF4F85919491089581E090E06F
:1003400008950E948A0108959C013A9521153F4124
:1003500050F5FC01EE27F170BC0166277270AC010C
:10036000442754709C012227387094FF0EC080E10E
:10037000EF2B09F480E0672B09F08062452B09F030
:100380008064232B89F08068089581E0EF2B09F4C5
:1003900080E0672B09F08260452B09F08460232BF5
:1003A00019F08860089580E00895CF93DF93EB0102
:1003B0000E94A401FE010995DF91CF910895CF938A
:1003C000DF93EC01805E9109089720F061E776E009
:1003D000209711F463E374E0CE010E94D5018C2FC5
:1003E0000E949203DF91CF910895CF93DF93EC01A8
:1003F0000E94DF03CE01805E9109089720F068E734
:1004000076E0209711F46AE374E0CE010E94D501F2
:10041000DF91CF9108950F931F93CF93DF938C01BA
:10042000EB010E94DF01209741F4C8010E94F50111
:10043000DF91CF911F910F9108958FE99FE0019770
:10044000F1F700C000002197EECF70E060E0893343
:10045000910511F460E570E00E940B02089581E0BF
:1004600008950E942F02089581E008950E942F02AE
:1004700008950E943602089508950E943C0208954E
:10048000A6E0B0E0E6E4F2E00C94D92449835A8374
:100490009E833091CF0189819A8131111AC03E81AA
:1004A000332399F0222389F00E94E407182F682F44
:1004B00089819A810E94C00769817A81812F0E9477
:1004C000D10E2696E3E00C94F5240E94D207182F53
:1004D000F3CF0E94E40769817A81F1CFFC01262FD6
:1004E0004081518162817381848195810E944002A3
:1004F0000895CF93DF93EC0161E00E946E02BE018C
:100500000E943102DF91CF910895CF93DF93EC01E8
:1005100060E00E946E02BE010E943D02DF91CF9119
:10052000089508950E9495060E9491022FEF84E39A
:100530009CE0215080409040E1F700C00000089509
:100540000E9492020E94FE1D08950E9492020E9443
:100550000F1E08950F931F93CF93DF938C0161E0DB
:100560000E946E02EC01B8010E943902811106C09E
:1005700080E0DF91CF911F910F910895B801CE01D6
:100580000E94BC168823A1F3B801CE010E940F1A65
:10059000882371F3B801CE010E943D18882341F3EE
:1005A000B801CE010E948119882311F3F8018581D9
:1005B000882361F0C330FCE7DF07E9F058F4C11588
:1005C000ECE7DE07A9F0C130DC47B9F0C8010E94B2
:1005D0003402CFCFCB358CE7D807A9F0CC35ECE788
:1005E000DE0771F0CA35DC4789F70E941A0CEECF9E
:1005F0000E94A002BDCF0E94220C0E94A502B8CF8B
:100600000E94100CE3CF0E941E0CE0CF0E94141D2C
:100610000E942D0308950E9431030E94191D089520
:10062000089581E008950895CF93DF93D82F0E9415
:100630001103C82F882319F08D2F0E9413038C2FCC
:10064000DF91CF9108950895CF93C82F0E94100392
:100650008C2F0E941403CF91089580E00E94240300
:1006600008950E94191C0E9424030895CF930E94AC
:10067000191CC82F8091CA018C1779F0C093CA0148
:100680000E94A31D6093CB017093CC018093CD0198
:100690009093CE018C2F0E942403CF910895ADE05A
:1006A000B0E0E5E5F3E00C94DA24488759876A87DF
:1006B0007B878C879D8791110E94480B1F8286E063
:1006C000FE013896DE01119601900D928A95E1F7B0
:1006D0008D8181110DC029813A814B815C816D81B1
:1006E0007E818F810E94780A2D96E2E00C94F62498
:1006F000CE0101960E9479028111EDCFF5CFFC0168
:100700002481213021F4808191810E94160808956E
:10071000662329F00E9489140E945C1508950E94A6
:10072000E314FACFCF93C82F8823B9F08CEF8C0F46
:10073000813AA8F46C2F80910001909101010E94F0
:10074000A51C882329F08C2F0E94050B0E94810B89
:100750008C2F0E94FD0A0E94810BCF91089580E2A8
:100760008C0F883048F4C77081E001C0880FCA95AB
:10077000EAF70E94280BEFCFEBE5EC0FE33040F4F3
:10078000F0E0E657FE4F808190E00E94491CE5CFE3
:10079000E8E5EC0FEB3150F4F0E0EE0FFF1FEC5A00
:1007A000FE4F808191810E946E1CD7CF83E38C0F16
:1007B000833198F661E08C2F0E948803CECF882386
:1007C00081F19CEF980F913A28F40E94050B0E944A
:1007D000810B089590E2980F983050F4877091E063
:1007E00001C0990F8A95EAF7892F0E942E0BEFCF4F
:1007F0009BE5980F933028F490E080E00E94491C1C
:10080000089598E5980F9B3128F490E080E00E94CD
:100810006E1C089593E3980F933118F460E00E94E2
:10082000880308951F93CF93DF93182FEB010E9445
:100830009203209739F4812F0E94DF03DF91CF913B
:100840001F9108958FE99FE00197F1F700C0000024
:100850002197EFCF70E060E0893311F460E570E03C
:100860000E9412040895882321F00E94280B0E9400
:10087000810B0895882321F00E942E0B0E94810B8A
:100880000895B0E0A0E0E7E4F4E00C94D3246C0118
:10089000D62FC72FFC011581068102950F700E948B
:1008A0001E0BE82E8823E9F0E12E1123D1F08C2FC6
:1008B000807F803451F080E28D0F8830F8F0011194
:1008C00004C08C2F807E8032C9F080919B0282FF11
:1008D00015C082E00E94E40B0E941E0B91E0E82EFE
:1008E000E926BC2EB2949FE0B922FBE0FB15B8F1DB
:1008F000EB2DF0E0E158FA4D0C94C424E12CF1CF3B
:100900000C2F0F70C07F11F00295007F112399F01A
:10091000002359F080E28D0F883010F0D11107C00C
:10092000802F0E94280B0E94810B8D2F5AC0802F90
:100930000E943B0BF8CF8D2F0E94DF03002379F03C
:1009400080E28D0F883010F0D11104C0802F0E94FA
:100950002E0B03C0802F0E94410B0E94810BEB2DB8
:10096000E850FF0B349720F40E94191C0E942403C6
:10097000EE2089F00E941A0B80FD0DC0F601158251
:100980000E94140B0E941E07C6010E944E060E9480
:10099000140B0E942E07CDB7DEB7E9E00C94EF24CC
:1009A0002C2F2F70F22EC07FC03219F0F29480EFFE
:1009B000F822DD2341F0D130D1F1112309F444C0F4
:1009C0000023F1F0B2CF80919B0282FD15C011236C
:1009D00059F0FF2029F08F2D0E94280B0E94810BD7
:1009E00080E00E949203BBCF80E00E94DF03FF20E3
:1009F00009F4B5CF8F2DABCF112369F0011104C0DD
:100A00008F2D0E943304ABCF013009F0A8CF8F2D7A
:100A10000E945F0BA4CF0111A2CF8F2D0E943A0438
:100A20008F2D0E946B0B8F2D0E944F0B98CF11239F
:100A300021F0063008F093CFE3CF053008F08FCFD8
:100A40008F2D0E943A048BCF0023D1F3D93349F480
:100A50003FEF87EE93E0315080409040E1F700C0D7
:100A600000008D2F0E94DF037ACF8C2F869586950C
:100A7000837069F0813009F072CF8D2F9C2F9370B5
:100A8000111102C080E090E00E946E1C68CF8D2F93
:100A90009C2F9370111102C080E090E00E94491CCD
:100AA0005ECF612F8D2F0E94880359CF8C2F8370CA
:100AB000A1F5111154CF4D2F429546954770440F23
:100AC000440F2D2F2F7030E0042E02C0220F331F51
:100AD0000A94E2F790E080E0D4FF09C08FE090E054
:100AE00002C0880F991F4A95E2F780959095C695A8
:100AF000C695C370822B932BC23049F058F4C13095
:100B000019F00E94EE062BCF0E94E50628CF0E9426
:100B1000F70625CF0E94E20622CF8695112311F019
:100B20008C2F8170882309F41ACF4D2F429546955A
:100B30004770440F440F2D2F2F7030E0042E02C059
:100B4000220F331F0A94E2F790E080E0D4FF09C03F
:100B50008FE090E002C0880F991F4A95E2F78095D8
:100B60009095C695C695C370822B932BC23049F0E1
:100B700058F4C13019F00E945907F1CE0E94500775
:100B8000EECE0E946207EBCE0E940607E8CECF7041
:100B9000112329F08C2F0E941E078D2F32CF8D2F0D
:100BA0000E943A048C2F0E942E07D9CED23F41F1E9
:100BB00060F4D03FB9F0D13F81F0112309F446C071
:100BC0000111B3CE8C2F8F711FC0D33F01F1D43FE1
:100BD000A1F780919B0282FD24C08C2F8F7111237D
:100BE00011F312C0112341F0053008F0B8CE8C2F5C
:100BF0008F710E944007B3CE063008F0B0CEF7CF19
:100C00008C2F8F711111CFCF0E941E07A8CE1123F8
:100C100029F08C2F8F710E941207A1CE0E940D0720
:100C20009ECE112349F0CF718C2F0E941E0763E0E6
:100C30008C2F0E94C60B93CE81E00E94E40B023001
:100C400008F48DCE82E00E94E40B89CE002359F097
:100C5000D93309F006CFEFEFF7EE23E0E150F04093
:100C60002040E1F7FCCE8C2F8F719DCF0F931F9307
:100C7000CF93DF93EC01688179818D810E942108F7
:100C80008C010E946B070E94E106B801CE010E9410
:100C90004104DF91CF911F910F910895CF93DF937E
:100CA000EC018C81882399F0CE010E94AA02811167
:100CB00011C00E941E0B882351F08D81882339F0CA
:100CC00080919B0282FF03C082E00E94E40BDF91CF
:100CD000CF910895CE010E943606CE010E94850272
:100CE000F6CF882321F00E943B0B0E94810B0895D0
:100CF000882321F00E94410B0E94810B089590E00F
:100D000080E00E94491C90E080E00E946E1C0E94DE
:100D1000480B0E94810B0E9478150E945C15089573
:100D20000E940D0B0E947F0608950E94380B0E94BE
:100D30009006089592959F70963091F058F4925FC6
:100D40009F70923058F4803F19F030F4883E30F4B0
:100D500081E008959A5FF4CF843FD1F380E0089555
:100D6000883EB0F3813FD1F7F3CFFC0124812223E9
:100D700039F0808191810E9416080E949A06089598
:100D800080E00895A6E0B0E0E8ECF6E00C94DA2408
:100D90002696E2E00C94F624A7E0B0E0E2EDF6E05F
:100DA0000C94DA242796E2E00C94F62408950E942D
:100DB000D60608950E94D7069093E7018093E60136
:100DC000089508950E94DA0608952091E601309171
:100DD000E701822B932B0E94DA0608952091E60109
:100DE0003091E701822393230E94DA06089520912F
:100DF000E6013091E701822793270E94DA060895E1
:100E00000E94D60608950E94000708950E940307D5
:100E10009093E5018093E401089590E080E00E94C2
:100E20000607089521E030E0A90102C0440F551FD4
:100E30008A95E2F7CA010E940607089521E030E092
:100E400002C0220F331F8A95E2F78091E40190914E
:100E5000E501822B932B0E940607089521E030E0E4
:100E600002C0220F331F8A95E2F7209530958091BA
:100E7000E4019091E501822393230E9406070895DF
:100E800021E030E002C0220F331F8A95E2F7809103
:100E9000E4019091E501822793270E9406070895B7
:100EA0002091E4013091E501822B932B0E940607EB
:100EB00008952091E4013091E501822393230E945B
:100EC000060708952091E4013091E50182279327D8
:100ED0000E94060708950895262F277091E001C00B
:100EE000990F2A95EAF723E0769567952A95E1F719
:100EF000660F771F660F771FFA01E60FF71F50E0A6
:100F000040E0682F70E08191DF0111979B01042E72
:100F100002C0369527950A94E2F72170219528277B
:100F2000292328272C934F5F5F4F4430510559F7F1
:100F30000895A82FA77023E0969587952A95E1F745
:100F4000880F991F880F991FFB01E80FF91F50E0C8
:100F500040E080E0219130E00A2E02C036952795CE
:100F60000A94E2F721703327042E01C0220F0A945D
:100F7000EAF7822B4F5F5F4F4430510559F70895D0
:100F8000262F983070F4853060F4682F70E085E08B
:100F9000989F600D711D112440ED51E0822F0E9439
:100FA0006C070895292F983068F4853058F490E044
:100FB00060ED71E035E0239F800D911D11240E94AA
:100FC0009907089580E00895B0E0A0E0EAEEF7E028
:100FD0000C94D3247C010091E4011091E5018091EF
:100FE000E6019091E701082B192BCFE0D0E0CC244B
:100FF000C394D12CBC2EC6010C2E02C0880F991FA1
:101000000A94E2F780239123892B49F4219790F7E2
:10101000B12C8B2DCDB7DEB7E9E00C94EF24B701EE
:101020008C2F0E94DD0E019789F3F3CFCF93DF93CE
:10103000EC010E94E407BE010E94DD0EDF91CF911A
:1010400008951F93CF93DF93EB019091CF019923E4
:1010500039F0CB010E941608DF91CF911F910895BE
:10106000882369F0CB010E94E407182F682FCE0176
:101070000E94C007BE01812F0E94DD0EEDCFCB0183
:101080000E94D207182FF6CF1F93CF93DF93C09102
:10109000E80117E08091E9018C1304C0DF91CF9142
:1010A0001F910895D0E01C9FF0011D9FF00D1124A9
:1010B000E651FE4F208131814281538164817581E7
:1010C00086810E94CC062196C770E4CF209122022F
:1010D0003091230240912402509125026091260212
:1010E00070912702809128020E94CC060895CF9328
:1010F000DF9380912802807F09F04DC08091270204
:10110000882309F448C0E091E8015091E901C091B9
:101110002302D0912202609124027091250247E0BF
:101120005E17C9F18E2F90E0E49FF0011124E65183
:10113000FE4F2481222391F1489FF001499FF00D39
:101140001124DF01A651BE4F11962C9111972C133B
:1011500025C02C912D1322C015962C911597211185
:101160001DC012962D913C91261B370B283C310552
:10117000A8F4809128028F70806180932802E0514A
:10118000FE4F80818F708061808382E292E00E94B6
:101190004E060E944408DF91CF910895FC013196DC
:1011A000E770BECF482F2091E8019091E90157E008
:1011B000291302C080E0089530E0529FF001539F50
:1011C000F00D1124E651FE4F8181681306C0808125
:1011D000481303C085818111EECF2F5F3F4F2770E9
:1011E000E7CFA4E1B0E0E7EFF8E00C94D0248C0165
:1011F00086E0F801DE011F9601900D928A95E1F7D5
:10120000D80114968C9114971596EC90159792E24C
:10121000A92E92E0B92E9091260291111FC0882329
:10122000D1F0EE20A9F0C8010E94B506F82E88235F
:1012300079F087E0F801D50101900D928A95E1F7E8
:10124000C5010E947F030E9477080E9466083DC086
:10125000C8010E944E06FF24F39437C0F801C080F5
:10126000D18082809380F0902702209124023091D7
:101270002502A401421B530BFF2009F403C1483C83
:10128000510508F0B2C0882301F1909123028091AA
:101290002802282F207F09F067C0D9121BC0909127
:1012A00022029C1117C0E11059C08F708061809399
:1012B00028020E94660882E292E00E944E06809117
:1012C0002802D80116968C93F12C8F2D6496ECE0B1
:1012D0000C94EC24E11042C06D2D8C2D0E94D2089C
:1012E000E82E882371F082E292E00E944E0687E0A9
:1012F000E2E2F2E0DF011D928A95E9F70E946608BA
:10130000E3CFCF86D88A8F8598890E941608292F27
:1013100022952F70243058F49F70223088F0992342
:1013200099F0F8019681907F79F4FE2CCECF2A5F58
:101330002F70223068F0C8010E944E06EF2CF5CFC6
:10134000992311F0882389F3805E883070F3F3CFFE
:10135000803F58F3815F833070F7E7CF8091280298
:10136000816080932802B0CFD91214C090912202DC
:101370009C1110C0E1100EC016968C93C8010E94FB
:101380004E0687E0F801A2E2B2E001900D928A9544
:10139000E1F75BCFC8010E94B506882309F458CF56
:1013A000EE2009F455CF80912802803288F02091F8
:1013B000220230912302398728879B868A86909162
:1013C00026029C871D868E87CE0108960E944E06B7
:1013D00087E0F801A2E2B2E001900D928A95E1F770
:1013E0000E9477080E94660836CF90912802292F24
:1013F000207F91F4682D9A8A898AA6017A899E2D88
:101400000E94C20682E292E00E944E0687E0F50149
:1014100011928A95E9F772CF882309F456CF80910B
:1014200023028D1111C0809122028C110DC0E11098
:101430000BC016969C93C8010E944E0687E0F501EA
:1014400011928A95E9F741CFC8010E94B506882319
:1014500009F4FECEEE2009F4FBCE80912802803202
:1014600008F4B6CF20912202309123023A832983D7
:101470009C828B82909126029D831E828F83CE0157
:101480000196A4CF483C510528F5882309F4E3CE02
:10149000FE2CEE2009F4DCCE809123028D110CC0CD
:1014A000809122028C1108C087E0A2E2B2E0019094
:1014B0000D928A95E1F709CFC8010E94B506811106
:1014C00087CF80912802816080932802C8010E9402
:1014D0004E06FBCE682D9A8A898AA6017A899E2DAE
:1014E0000E94C20687E0D5011D928A95E9F7ADCE2C
:1014F000AEE0B0E0EEE7FAE00C94D9242887398713
:101500004A875B876C877D878E87CE0108960E940D
:10151000F1088823B1F06C85662341F02885398570
:101520004A855B857D858E850E94CC0617E080917B
:10153000E8019091E90189133DC02E96E3E00C94F7
:10154000F52487E0FE013896DE01119601900D9298
:101550008A95E1F78C85882349F32091E90130E0F1
:10156000C9010196877099274091E801481719062B
:1015700099F097E0929FD001939FB00D1124A6514E
:10158000BE4FFE01319601900D929A95E1F780933E
:10159000E9010E944408CACF0E9495061092E90111
:1015A0001092E80187E0E2E2F2E0DF011D928A9505
:1015B000E9F7BCCF819FC001112486519E4F0E9444
:1015C000F108882309F4B9CFE091E8011E9FF001EA
:1015D0001124E651FE4F2081318142815381648183
:1015E000758186810E94CC068091E80190E0019689
:1015F000877099278093E8019ACF682F8091000126
:10160000909101010E94DB1C0895682F80910001D8
:10161000909101010E94DE1C08958091000190913B
:1016200001010E94E11C0895809131028695869502
:1016300086950895809131028770089590913102C6
:10164000977081E009F480E0089580913D0208954B
:1016500090913D02892B80933D0208958095909151
:101660003D02982390933D02089580933D02089592
:1016700010923D02089590913C02892B80933C0288
:101680000895809590913C02982390933C02089590
:1016900010923C02089508950E944B0B089590917A
:1016A0003202292F282331F080958923809332023A
:1016B0000E944C0B089508950E945B0B0895909131
:1016C0003302292F2823281729F0982B90933302CF
:1016D0000E945C0B089590913302292F282331F04A
:1016E00080958923809333020E945C0B089580913A
:1016F0003302882329F01092330280E00E945C0BB1
:101700000895CF93DF93E0910001F0910101809162
:101710003D028083E0910001F09101018081909170
:101720003C02892B808390913302992381F0E091D0
:101730000001F09101018081892B8083809100015B
:10174000909101010E94931C81110E94770BC0911E
:101750000001D091010148E050E069E272E0CE0161
:101760000E941525892B59F088E0FE01A9E2B2E01C
:1017700001900D928A95E1F7CE010E94301CDF9115
:10178000CF91089508950E94C20B089590919B02F5
:1017900092FF11C098E0899F90011124622B609301
:1017A00031020E941E0780913102869586958695AA
:1017B0000E94C30B08950E941E07089510923102E3
:1017C00080E00E94C30B0895909131028095892397
:1017D00080933102282F277069F4891759F090916E
:1017E0009B0292FF07C08695869586950E942E07DC
:1017F0000E94DE0B089590919B0292FB222720F914
:10180000281769F080FB92F990939B0280919A02CD
:1018100090919B020E94430C82E00E94E40B089589
:1018200080919B0282FB882780F991E089270E94A2
:10183000FB0B089581E00E94FB0B089580E00E945D
:10184000FB0B08956FEF7FEF90E080E00E9467252B
:10185000089590E080E00E94332521E0863E9E4F6F
:1018600009F020E0822F089582E090E00E942B256D
:10187000089583E090E00E942B25089584E090E095
:101880000E9433250895BC0184E090E00E94672502
:101890000895AB01BC018FE090E00E945B250895A4
:1018A000AB01BC0183E190E00E945B25089560E0FC
:1018B00070E0CB010E94500C089560E070E0CB0115
:1018C0000E94490C0E94570C0895A8E0B0E0EBE696
:1018D000FCE00C94DA2466EE7EEF90E080E00E945B
:1018E000672560E082E090E00E94492560E083E0A7
:1018F00090E00E9449251092E7011092E60160E015
:1019000074E184E090E00E94672560E086E090E06A
:101910000E9449256FEF87E090E00E94492540E052
:1019200050E0BA0188E090E00E945B2560E084E22C
:1019300090E00E94492560E087E190E00E944925FF
:1019400060E08CE090E00E94492560E08DE090E04E
:101950000E94492519821A821B821C821D821E82C6
:101960001F82188648E050E068E170E0CE010196E1
:101970000E94392540E050E0BA0180E290E00E94E8
:101980005B250E945D0C2896E2E00C94F6240E94F0
:10199000650C08958EE090E00E942B2591E0811166
:1019A00001C090E0892F0895682F8EE090E00E949A
:1019B00049250895A6E0B0E0E0EEFCE00C94D824C0
:1019C0000E94971D8C0180913E0290913F028017EA
:1019D000910781F019821A820E94971D682F498110
:1019E0005A81792F80E090E00E944F0310933F02CC
:1019F00000933E022696E4E00C94F4240E94ED0F3E
:101A000060934C0270934D0280934E0290934F026C
:101A1000609348027093490280934A0290934B026C
:101A20000895089508950E94120D089508950E9442
:101A3000160D089581E0089587E090E10E940F1C43
:101A40000E94110D0E94130D08950E94F611089531
:101A5000089508950E94280D0E94290D08950E945E
:101A600033100E9423030E940C1708950E948E1DBC
:101A70000E94C70F0E940E120E9423110E942F0D78
:101A80000E9496160E941E120E94170D0895A6E04D
:101A9000B0E0EDE4FDE00C94D1240E941A0D811118
:101AA0000CC00E94DA0C0E94F6110E949A150E9446
:101AB00036032696EBE00C94ED240E94771180E427
:101AC000A82E82E0B82E750110E0F70101917F0188
:101AD000812F0E9459101F5F183009F441C0081768
:101AE000A1F38091500281FD0E945F100E94250D9C
:101AF000C82E10E099249394812F0E945910082F2A
:101B0000F50181915F01081729F1D02ED826F12C1B
:101B1000EE24E3948D2D8E21A9F0CC2099F0F9824A
:101B20001A830E94971D9C838B839D8291E0802F56
:101B30008E2109F490E049815A816B817C818D81ED
:101B40000E944F03F394EE0CF5E0FF12E3CFF50192
:101B5000319700831F5F183079F60E94FE0CA3CFE7
:101B60000813BFCF9ECF1F93CF93DF930E94E20E47
:101B7000EC01C11580E5D807F0F5C11580E4D80760
:101B800008F09CC0C03ED10520F5CD3CD10508F041
:101B900082C0C83AD10578F4C53AD10508F073C0BF
:101BA000C130D10519F1209709F1C430D105F0F405
:101BB000D0E0C0E01BC0C33CD105D0F7C85AD0E08C
:101BC000CC0FDD1FC357DE4F0990D881C02DD464E0
:101BD0000DC0C11580E2D80708F0D1C0C11581E061
:101BE000D80708F05AC0C83ED10510F7CE01DF91E2
:101BF000CF911F910895C03682E5D80718F5C034FB
:101C000082E5D80708F06BC0C03282E5D80708F03B
:101C10005FC0C11582E5D80708F497C02C2F269520
:101C2000269580E2289F900111248C2F8370C1E0BB
:101C3000D0E002C0CC0FDD1F8A95E2F7C22BD32B78
:101C4000DD68D4CFC03A82E5D80760F4C03882E5B9
:101C5000D80708F459C0CF71D0E0DC2FCC27C46F6F
:101C6000D06AC4CFC03C82E5D80708F462C0C03E49
:101C700082E5D80708F09CCFDC2FCC27CC27DF717A
:101C8000C06FD06AB3CFC55AD0E0CD53DE4FC88104
:101C9000D0E0D064ABCFD065A9CF8D2F0E94840F48
:101CA000182FCE0199270E94E20EC12FD0E0DC2F21
:101CB000CC27CC27DF71C82BD92B98CFCE01992701
:101CC0000E94E20ECC27DF70C82BD92BD06A8ECFB2
:101CD000CF71D0E0DC2FCC27C16FD06A87CF2C2FFB
:101CE00026952695277080E2289F900111248C2F3D
:101CF0008370C1E0D0E002C0CC0FDD1F8A95E2F70F
:101D0000C22BD32BDC6872CF2C2F269526952770FB
:101D100080E2289F900111248C2F8370C1E0D0E0D5
:101D200002C0CC0FDD1F8A95E2F7C22BD32BDA68F5
:101D30005DCF8C2F8F710E94840FC82FD0E0DC2FD5
:101D4000CC27CC27DF71D06251CF8C2F8F710E94AE
:101D5000840F55E0D695C7955A95E1F7CF70D0E03E
:101D6000DC2FCC27282F30E084FF05C044E0220F71
:101D7000331F4A95E1F7C22BD32BD06937CF8D2F74
:101D80008F710E94840F182FCE0199270E94E20EB6
:101D9000C12FD0E0DC2FCC27CC27DF71C82BD92B6B
:101DA000D2CF462F783030F4653020F4672F0E9470
:101DB000A101089590E080E008950E94D10E0E9454
:101DC000B30D089582389105B9F1B0F481339105CE
:101DD00009F47DC048F48932910509F46DC08A3256
:101DE000910509F47BC008958533910509F45FC01E
:101DF0008933910509F10895833E9105D9F138F4AD
:101E0000803E910529F1823E910579F10895863E43
:101E10009105D9F1873E910509F43EC0843E9105B4
:101E200041F520919B0221FF24C080919A0284FDFC
:101E300019C087EE90E0089520919A02237009F06E
:101E40005AC020919B0223FF14C089E290E00895BC
:101E500020919A0220FD38C030919B0230FF09C0CA
:101E600024FF43C090E080E0089520919A0222FD73
:101E7000F7CF089520919A0222FD3AC030919B023B
:101E800030FD39C024FFF5CFEDCF20919A0223FF1A
:101E9000F0CF24FDE7CFCDCF20919A0223FD2EC0B5
:101EA00030919B0231FFEECF84EE90E008952091B7
:101EB0009A0225FFDECFC9CF20919A0225FD21C0CD
:101EC00020919B0223FFD5CF89E390E0D2CF2091D0
:101ED0009A0226FFCECF8AE290E0089520919A02DE
:101EE00026FFC7CF81E390E0089583EE90E0089548
:101EF00082EE90E0089580EE90E0089586EE90E006
:101F0000089585E390E0089590919A0292FF06C0AB
:101F1000282F28712830F9F4877F846093FF06C04A
:101F2000282F28712831F1F4877E846120919B024B
:101F300020FF06C0382F38713830D9F4877F816090
:101F400021FF06C0282F28712831D1F4877E8161B6
:101F500094FD877E0895282F24712430F9F68B7F15
:101F60008860DCCF282F2471243101F78B7E8861B3
:101F7000DDCF382F3171313019F78E7F8860E0CF97
:101F8000282F2171213121F78E7E8861E1CF1092B7
:101F90009602109297021092980210929902089558
:101FA000CF92DF92EF92FF926B017C010E94F611BB
:101FB00081110EC00E94A31DC61AD70AE80AF90AA9
:101FC000C0929602D0929702E0929802F092990203
:101FD000FF90EF90DF90CF9008950F931F930E9492
:101FE000F611882329F00E94A31D1F910F910895D7
:101FF0000E94A31D009196021091970220919802D1
:1020000030919902600F711F821F931FEECF80E005
:1020100008950E94220C0895CF930E9477112FEF0C
:1020200086E791E0215080409040E1F700C0000039
:102030000E9477110E94F311C4E08111C0E08C2F3F
:102040000E94591090E002C095958795CA95E2F7D5
:1020500080FF04C00E9409100E94FE1DCF910895C8
:102060000E940C1008950E94290C811102C00E9448
:10207000C70C0E94340C809350020E943E0C909337
:102080009B0280939A020E9430100E94390C90E0CB
:102090000E94E2068091E4019091E5010E9403070D
:1020A000089508950E945110089508950E945510B2
:1020B0000895E82FF0E0EB55FD4F808108950895D5
:1020C00008950E9460100895EF92FF921F93CF939E
:1020D000DF9300D000D0CDB7DEB70E94F611182FE5
:1020E0006091AD02882309F447C019821A821B82CD
:1020F0001C82862F90E09E012F5F3F4F7901B9012E
:102100008B559D4F0E942C128823E9F080919C02F0
:1021100090E044E050E0B7018B559D4F0E9415259B
:1021200021E020935102892BC9F410E00E9456103F
:10213000812F0F900F900F900F90DF91CF911F91F3
:10214000FF90EF90089580915102882371F384E00D
:10215000F70111928A95E9F710925102E0919C02E1
:10216000F0E0EB55FD4F89819A81AB81BC81808382
:102170009183A283B383DACF70E06B557D4F80915A
:102180009C0290E08B559D4F0E94B3120E946110FB
:10219000CFCF1F93CF93DF9322E031E0C1E0D0E0B7
:1021A000D90150E040E08D918F3F91F0E82FE2950A
:1021B000EF70F0E011A18F70BE0101C0660F8A952B
:1021C000EAF7962F9095912391A382A1862B82A363
:1021D0004F5F5F4F4530510531F72B5F3F4F81E037
:1021E00026313807E9F6DF91CF911F910895CF93FB
:1021F000DF93AC01A62FB0E085E0689FF0011124C9
:10220000EE5FFE4F75E081E060E091919F3FC9F085
:10221000C92FC295CF70D0E028A130E09F7002C0D6
:10222000359527959A95E2F720FD0BC0282F622B54
:10223000880F715051F7A40FB51F6C93DF91CF91A8
:10224000089520E0F4CFA4E1B0E0E9E2F1E10C94DC
:10225000DA2480911601811126C084E1E0E4F1E0E6
:10226000DE01119601900D928A95E1F7FE013196FB
:10227000A2E0B1E0CE01459620812C9321811196F8
:102280002C931197228112962C93129723811396E7
:102290002C931397248114962C93149735961596A6
:1022A0008E179F0749F78091160194E0811190E005
:1022B0009093AD0284E0891B80939C020E94C91018
:1022C00088E0E5EAF2E0DF01982F1D929A95E9F7A0
:1022D000EDE9F2E0DF011D928A95E9F784E00E94C2
:1022E000B5110E9452106496E2E00C94F624A8E026
:1022F000B0E0EDE7F1E10C94D7248E010F5F1F4FA2
:1023000088E0F80111928A95E9F7F12C6F2DC80148
:102310000E94F710F394F4E0FF12F8CF48E050E089
:10232000B8018DE992E00E94152521E0009709F49B
:1023300020E0892B41F088E0F801ADE9B2E001909E
:102340000D928A95E1F76091AD0270E06B557D4F7B
:1023500044E08DE992E00E94B611182F0E946410AB
:10236000812B2896E5E00C94F3240895CF92DF9218
:10237000EF92FF920F931F93CF936C017B01042F79
:10238000222349F081E0809354020E94971D90938C
:10239000530280935202C0915402C1110AC0C0E09E
:1023A0008C2FCF911F910F91FF90EF90DF90CF90E6
:1023B000089580915202909153020E94AF1D05979B
:1023C00070F310E0A801B601C7010E941525892B02
:1023D00041F0A801B601C7010E94222510925402C3
:1023E000DFCFC0E0FBCF0E94CA0C08958091570256
:1023F000811107C00E94A324882351F081E08093BB
:10240000570281E090915702913009F080E00895E1
:1024100082E0809357020E949E24F3CF0E94290CF1
:10242000811102C00E94C70C0E94F3118093160113
:102430000E94F61181110E94621208950E94F61105
:10244000811102C00E946512089581E090915802A6
:102450009A3008F080E008950F931F93CF93DF9395
:10246000EC018B01809158028A30B8F4B801CE019A
:102470000E94B012C82F811122C0809158028F3F54
:10248000B9F40E94971D90935602809355028C2FA9
:10249000DF91CF911F910F910895809155029091F6
:1024A00056020E94AF1D843F914000F7C0E0EFCF7D
:1024B0008F5F809358028A3020F7C1E0E8CF1092F6
:1024C0005802E5CF0E94AD1A08950E94B01A0895EF
:1024D000B0E0A0E0EEE6F2E10C94D5247901C82F3B
:1024E000880FDD0B41155105A9F0FE0193E0EE0FB9
:1024F000FF1F9A95E1F7E95EFE4F81819281875A2D
:102500009D4F208130E04217530708F49A01A9013A
:102510000E942225CE010E94991BD82E8823D1F03B
:1025200001151105B9F083E0CC0FDD1F8A95E1F7A5
:10253000FE01E95EFE4F438150E00417150708F4E1
:10254000A801C95EDE4F6C817D81675A7D4FC7014E
:102550000E9422258D2DCDB7DEB7E7E00C94F12443
:102560000E94AA1308950E94C1130895A4E0B0E048
:10257000ECEBF2E10C94D82460916E0270916F0242
:1025800080917002909171020E94BE1D11E064362C
:1025900071058105910518F10E94ED0F6E5F7F4F67
:1025A0008F4F9F4F69837A838B839C8310E000E079
:1025B00030E020E044E050E0BE016F5F7F4F82E0FA
:1025C0000E946812182F882351F00E94A31D609367
:1025D0006E0270936F028093700290937102812F4C
:1025E0002496E4E00C94F424B0E0A0E0EAEFF2E1F9
:1025F0000C94D2247C015B016A010E94251201E047
:1026000010E0882311F00AE010E0C1E0D0E0B5014D
:10261000C701F6010995811104C021960C171D0709
:102620002CF4CDB7DEB7EAE00C94EE24CC9F9001F9
:10263000CD9F300D300D112490E080E045E34A95A8
:10264000F1F70000019682179307C1F7E0CFA5E0EC
:10265000B0E0EDE2F3E10C94D2245B01E090C6011E
:10266000F090C70101E010E09E012B5F3F4F50E06A
:1026700040E070E060E080E00E946812182F88233C
:1026800009F44BC067018FEFC81AD80A60916A023B
:1026900070916B0280916C0290916D020E94BE1D40
:1026A000643671058105910580F104E010E09E011A
:1026B0002F5F3F4F50E040E070E060E081E00E941B
:1026C0006812F82E64E070E0C6010E94971611E0CF
:1026D0009D81981310E01F2159F10E94A31D609362
:1026E0006A0270936B0280936C0290936D028981F1
:1026F0009A81AB81BC818093660290936702A0931C
:102700006802B093690211E013C064E070E0C60192
:102710000E9497169D818913C8CFF701818192810C
:10272000A381B48189839A83AB83BC831111DFCFEA
:102730008091660290916702A0916802B09169024F
:10274000F50180839183A283B383812F2596EAE0EC
:102750000C94EE240F931F93CF93DF93EC018B0126
:1027600047E253E10E94F412882331F046EB52E134
:10277000B801CE010E94F412DF91CF911F910F9109
:1027800008950F931F93CF93DF93C091C601D0910B
:10279000C701CE01019624E0FB01DC0101900D92FE
:1027A0002A95E1F764E070E00E94971688836D81B6
:1027B0007E818F8198850091620210916302209141
:1027C000640230916502601771078207930751F028
:1027D0006093620270936302809364029093650237
:1027E0000E94D00FDF91CF911F910F9108950E9409
:1027F000741F0E94360D0E94811F08950E94861F3B
:102800000E94470D0E94A01F08950E94301D0E9443
:102810005A1F0E941C0D0E94F7130E94FE130E9473
:102820002A0DFBCF8091780280FF0DC060913401AA
:1028300070E0660F771F6038710570F561157105DE
:1028400069F1862F089581FF07C06091340184E00B
:10285000689FB0011124EFCF6091340182FD0AC05E
:10286000809177028823A9F020913301609134018F
:10287000821710F088E0ECCF869FC001112433E06E
:10288000880F991F3A95E1F7622F70E00E94B024FB
:10289000D2CF68E070E0D5CF8FE7089581E008954A
:1028A0008091780280FF0CC06091300170E07595D6
:1028B0006795759567956115710549F1862F08959E
:1028C00081FF06C06091300170E075956795F3CF88
:1028D0006091300182FD0BC0909176029923A1F0A6
:1028E00060912F0180913001961738F0682F70E0C9
:1028F0006038710500F38FE70895899FC0011124A6
:1029000070E00E94B024F4CF61E070E0D7CF81E0A6
:1029100008958D3C31F40E941214819580937C02BD
:1029200008958E3C19F40E941214F8CF8F3C31F4B4
:102930000E941214819580937B020895803D19F4C2
:102940000E941214F8CF893D29F40E9450148093FC
:102950007D0208958A3D21F40E9450148195F7CF9D
:102960008B3D31F40E945014819580937E0208952E
:102970008C3D19F40E945014F8CF9FE2980F9830C4
:1029800070F4815D990B21E030E001C0220F8A953F
:10299000EAF780917A02822B80937A0208958D3D26
:1029A00031F48091780281608093780208958E3DA1
:1029B00021F4809178028260F7CF8F3DB9F7809142
:1029C00078028460F1CF40917B028D3C59F4809174
:1029D0007C0287FF0DC010927C0241110BC0109247
:1029E000770208C08E3C81F480917C0218169CF31B
:1029F000442381F080917D0290917E02892B09F021
:102A00005AC01092760208958F3C49F447FFF0CFE8
:102A100010927B0280917C028111ECCFE0CF803D4F
:102A200019F41416ACF3E4CF90917D02893D29F49A
:102A30001916F4F610927D02DBCF8A3D19F497FF48
:102A4000D7CFF8CF90917E028B3D29F497FFD0CF5E
:102A500010927E02CDCF8C3D19F41916CCF3C8CF5D
:102A60009FE2980F983090F4815D990B21E030E05F
:102A7000B90102C0660F771F8A95E2F7CB018095F6
:102A800090917A02892380937A02B2CF8D3D31F4FE
:102A9000809178028E7F80937802AACF8E3D21F4B8
:102AA000809178028D7FF7CF8F3D09F0A1CF809183
:102AB00078028B7FF0CF08950E94971D9C01909122
:102AC0007B0280917C02982B21F030937502209339
:102AD000740290917D0280917E02982B21F03093B8
:102AE00073022093720289E792E00E943B1C0895D2
:102AF00086E0E9E7F2E0DF011D928A95E9F710929E
:102B0000770210927602109278020895FC01828179
:102B100081110EC0838181110BC08481811108C095
:102B200091E08581811101C090E0892F8170089525
:102B300081E0FCCFA6E0B0E0E0EAF5E10C94D92416
:102B400086E0E9E7F2E0DE01119601900D928A95A8
:102B5000E1F710927B0210927C0210927D0210929B
:102B60007E028B819C81892B89F0809174029091E7
:102B700075020E94AF1DAC01909177029923C9F1B3
:102B8000809135018417150608F440C08D819E811F
:102B9000892B91F080917202909173020E94AF1D77
:102BA000AC0190917602992309F471C080913101B2
:102BB0008417150608F479C0BE016F5F7F4F89E75F
:102BC00092E00E94E81C811105C089E792E00E9412
:102BD000861581110E945C1586E0FE013196A9E7F9
:102BE000B2E001900D928A95E1F72696E3E00C940D
:102BF000F524209136018AE0289F900111242417A2
:102C0000350720F69F5F9093770202C09F3FD1F770
:102C10001B81112359F00E9412149FEF11160CF41E
:102C200091E0899F802D112480937B021C811123C8
:102C300059F00E9412149FEF11160CF491E0899F35
:102C4000802D112480937C0230917B02332309F480
:102C50009DCF20917C02222309F498CF45EB3403C9
:102C6000C0011124992359F090937B0245EB240372
:102C700090011124332339F030937C0287CF81E017
:102C800080937B02F3CF81E080937C027FCF209101
:102C900032018AE0289F900111242417350708F09B
:102CA0008BCF9F5F9093760202C09F3FD1F71D812B
:102CB000112359F00E9450149FEF11160CF491E06B
:102CC000899F802D112480937D021E81112359F04C
:102CD0000E9450149FEF11160CF491E0899F802DF3
:102CE000112480937E0230917D02332309F464CF56
:102CF00020917E02222309F45FCF45EB3403C0010B
:102D00001124992359F090937D0245EB24039001FF
:102D10001124332339F030937E024ECF81E080932B
:102D20007D02F3CF81E080937E0246CF0895FC01BF
:102D3000680F791F8FEF91E36E177F0709F40895ED
:102D40002191822728E030E087FF06C0880F89277D
:102D500021503109C9F7F0CF880FFACFFB01258147
:102D6000222341F097FF06C09F77BC0190E080E0EE
:102D70000E94F51781E008950F931F93CF93DF937F
:102D8000EC018B01FB0185818823B1F00E94250BAA
:102D90008272FE01E053FC47E830F10568F4E55724
:102DA000FA4D0C94C424811104C081E003C0811148
:102DB000FCCF8FEF0E941517B801CE010E94AE160E
:102DC000DF91CF911F910F91089580E00E941D1710
:102DD000F3CF81E0FBCF82E0F9CF83E0F7CF84E04F
:102DE000F5CF85E0F3CF9091AF02923071F48A3045
:102DF00050F490E009966AE070E00E94B024875A8F
:102E00000E942A0408958650FBCF0E9476190895E7
:102E100008950E94081708958CE090E00E942B25E9
:102E20008093AF020E940917089508956091AF0240
:102E30008CE090E00E9449250895CF93C82F80939D
:102E4000AF020E9416178C2F0E940917CF91089588
:102E50000E942D1C8093AE029091AF02913029F414
:102E600081FF03C089E30E942A040E94250B8093FE
:102E7000B0020E94380B0E94480B8091AF02823052
:102E800021F158F48823C1F08130D1F08FE39CE91F
:102E90000197F1F700C000000895843051F18530AA
:102EA000A9F78BE191E00E94250285E290E00E9463
:102EB000250288E290E006C082EE0E949203E6CFEF
:102EC00088E193E00E942502E1CF8091AE0280FD6F
:102ED00003C083E50E942A0482EE0E9492038FE3DE
:102EE0009CE90197F1F700C0000087E50E942A04E1
:102EF000CDCF86EE0E942A0488E1F8CF8091AF0200
:102F0000823011F148F4882381F0813091F0809172
:102F1000B0020E94350B08958430F9F08530B9F77E
:102F200088E290E00E942502F2CF82EE0E94DF0349
:102F3000EECF8CE20E942A048091AE0281FFE7CF9F
:102F400089E30E942A04E3CF82EE0E94DF0380918E
:102F5000AE0280FDDCCF83E5F4CF88E2F2CF8F9222
:102F60009F92AF92BF92EF92FF920F931F93CF93D6
:102F7000DF934B015C01D091AF028CE1E82EF12C84
:102F800007E010E021E0D501C4010E2C04C0B69585
:102F9000A795979587950A94D2F7C82FCF702223CB
:102FA00039F0D43051F4CA3040F080E00E94F3167A
:102FB0008C2F0E94F31620E005C0C111F9CF043018
:102FC0001105B4F30150110984E0E81AF1080F3F2C
:102FD0001007C9F6DF91CF911F910F91FF90EF90ED
:102FE000BF90AF909F908F900895CF92DF92EF9215
:102FF000FF926B017C01C114D10481E1E806F10468
:10300000A0F5C114D10481E0E806F10420F080911C
:10301000AF02823051F10E942817C114D10481E01F
:10302000E806F10438F18091AF02811123C081E0FC
:10303000E81AF108C701B6012AE0969587957795B9
:1030400067952A95D1F778528F4F9F4F0E94AF17FF
:1030500083E0D822EE24FF24C701B60174528F4FBB
:103060009F4F0E94AF170E947E17FF90EF90DF9056
:10307000CF900895C701B601F4CFCF93DF93EC0151
:10308000FB018581882309F4D2C09E013057233289
:10309000310508F0B2C00E943E0C90939B028093D1
:1030A0009A02FE01E150F047E232F10520F4ED56BC
:1030B000FA4D0C94C42480919A02816080939A0204
:1030C00093C080919B02886080939B028DC0809109
:1030D0009A028260F3CF80919A028460EFCF809150
:1030E0009A028860EBCF80919B028160EDCF809146
:1030F0009B028260E9CF80919A028061DFCF80914C
:103100009A028062DBCF80919A028064D7CF0E94BE
:10311000950680919A028068D1CF80919A028C6046
:10312000CDCF80919B028360CFCF80919A028E7F1A
:10313000C5CF80919B02877FC7CF80919A028D7FF8
:10314000BDCF80919A028B7FB9CF80919A02877F01
:10315000B5CF80919B028E7FB7CF80919B028D7FF0
:10316000B3CF80919A028F7EA9CF80919A028F7DF2
:10317000A5CF80919A028F7BA1CF0E949506809166
:103180009A028F779BCF80919A02837F97CF80910D
:103190009B028C7F99CF80919A0282FB992790F9AC
:1031A00021E0922790FB82F990FB83F987CF8091F1
:1031B0009B02982F909591708E7F892B90FB81F9BF
:1031C00083CF90919A02892F8F7B96FF806476CF70
:1031D0000E94950690919A02892F97FB87F9805853
:1031E0006DCF81E00E94D40C80919A0290919B0255
:1031F0000E94430C0E94950680E0DF91CF910895D4
:1032000080E0F0CF90919A02892F8F7E94FF8061A9
:1032100055CF90919A02892F8E7F90FF81604ECF7B
:1032200090919B02892F877F93FF88604DCF81E02B
:10323000E4CFB0E0A0E0EFE1F9E10C94D524E82F71
:10324000F0E0E450FF4FD490282F26952695269540
:1032500030E0F901E456FE4F0491877010E0082E2B
:1032600002C0159507950A94E2F701701127F9013C
:10327000E457FE4FE490F12C082E02C0F594E79439
:103280000A94E2F791E0E922FF24F901E458FE4FA5
:10329000C491D0E002C0D595C7958A95E2F7C17078
:1032A000DD270115110519F081EE0E949203E1144A
:1032B000F10419F086EE0E9492038D2D0E942A04DB
:1032C000E114F10419F086EE0E94DF0301151105E7
:1032D00019F081EE0E94DF03CD2B19F08CE20E94E1
:1032E0002A04CDB7DEB7E7E00C94F124982F9F7045
:1032F0009A50963020F0805D0E9419190895895ADD
:10330000FBCFCF93DF93EB0186319C4711F50E94F1
:10331000250B9D81992399F08A7A91E009F490E038
:1033200090937F02811109C089E20E94FD0A0E94E8
:10333000810B80E0DF91CF91089585E3F6CF8091F6
:103340007F02811104C089E20E94050BF0CF85E362
:10335000FBCF81E0EFCF0F931F93CF93DF93C42F69
:10336000D22FFC0185818823C9F0409382020E94FC
:10337000971D909381028093800280E28C0F8830A9
:1033800040F4C77081E001C0880FCA95EAF70E9437
:103390003304DF91CF911F910F9108951091820214
:1033A000141332C080918002909181020E94AF1D5F
:1033B000883C910548F5C0E2CD0F1D17B9F080E2B9
:1033C000810F883040F4177081E001C0880F1A9592
:1033D000EAF70E943A04C83048F481E09D2F9770C4
:1033E00001C0880F9A95EAF70E943304802F0E944B
:1033F0002A04C83070F6D77081E001C0880FDA95D2
:10340000EAF70E943A04C5CF80E28C0F883008F6B4
:10341000C77081E001C0880FCA95EAF7F2CF0F9319
:10342000DB0188519C4787309105A0F5FC01EB54E6
:10343000FA4D0C94C42406E221EE41EE6AE17CE7E9
:10344000CD010E94AB1980E00F91089507E225EEAF
:1034500045EE6BE17CE7F4CF06E221EE40EE68E159
:103460007CE7EECF07E225EE44EE69E17CE7E8CFAA
:1034700006E221EE42EE6CE17CE7E2CF07E225EEC8
:1034800046EE6DE17CE7DCCF08E221E045EE6EE13F
:103490007CE7D6CF15968C91882319F01092820282
:1034A000D3CF81E0D1CF8EE14A9B02C08150E1F7BA
:1034B0004A9BFECF08955A9880E28A95F1F75A9A6E
:1034C0000895FC013BE03A95F1F798E020E080E0B8
:1034D00031E040E14A95F1F7880F4A9B02C08160D4
:1034E000232742E04A95F1F7000040E14A95F1F7C1
:1034F000915079F790E19A95F1F799B132E03A95C8
:10350000F1F7000040E14A95F1F792FB992790F915
:1035100092272081920F90830895A1E0B0E0E3E923
:10352000FAE10C94D62419828C017C01E60EF11C80
:103530000E151F0541F481E09981911180E02196DB
:10354000E6E00C94F2240E94531ACE0101960E94E8
:10355000611AF80181938F01EBCF529A5A9A08951C
:1035600052985A9AEA9AE9E6F0E080818F7C80834B
:1035700008956150770B91E001C0990F6A95EAF7C1
:1035800020E031E0911108C0222391F05A9A80E2A4
:103590008A95F1F75A980895492F482339F05A9A95
:1035A000232740E24A95F1F79695ECCF5A98F9CF48
:1035B0005A98EDCFFF920F931F93CF93DF93EC01B7
:1035C0008C01060F111DC017D10729F4CDB7DEB746
:1035D000E5E00C94F324F9900E945B1A68E08F2DCB
:1035E0000E94B91AF0CF1F920F920FB60F921124BA
:1035F0000F931F932F933F934F935F936F937F93FB
:103600008F939F93AF93BF93EF93FF93CF93DF93EA
:103610000F92CDB7DEB719820E94531ACE010196E0
:103620000E94611A082F069506950695282F229567
:103630002570902F9570290F922F937026952695BF
:10364000920F982797708981982B09F05CC00430FD
:1036500008F059C080E18A95F1F75A9A529A82E0AF
:103660008A95F1F700C05A9888E0089F80011124DC
:10367000D801A95EBE4F1696ED91FC911797309731
:10368000A9F06091C6017091C70114962D913C91EB
:103690001597260F371F11968D919C911297680FE1
:1036A000791F13964C9113978C910995F801E95E57
:1036B000FE4F6381662351F02091C6013091C7010E
:1036C00084819581820F931F0E94DA1A0E945B1AEF
:1036D00080E18A95F1F75A9852985A9A80E18A9532
:1036E000F1F7F801E95EFE4F6081662351F0209109
:1036F000C6013091C70181819281820F931F0E9480
:103700008D1A0E94531A0F90DF91CF91FF91EF9184
:10371000BF91AF919F918F917F916F915F914F91E9
:103720003F912F911F910F910F900FBE0F901F90FF
:1037300018950F931F93CF93DF93EC0104970CF030
:103740004CC0F894529A5A9885E08A95F1F7000097
:103750009C2F969595708C2F8570980F892F83706C
:103760009695969523E0CC0FDD1F2A95E1F7980FEB
:103770008E01092B0E945B1A00C068E0802F0E9416
:10378000B91A80E18A95F1F752985A9A4A9B1EC05D
:1037900087E090E04A991CC0FE01E95EFE4F63811C
:1037A0006623F9F02091C6013091C701848195818B
:1037B000820F931F0E948D1A811113C0529A5A9A38
:1037C0007894DF91CF911F910F91089500C0DECFC3
:1037D000019729F4529A5A9A789480E0F2CF00C067
:1037E000D9CF0E94531A80E28A95F1F75A98529ADB
:1037F00080E18A95F1F7C95EDE4F6881662351F05A
:103800002091C6013091C70189819A81820F931F4F
:103810000E94DA1A0E945B1A789481E0D2CF9093CA
:10382000C9018093C801089590938902809388020A
:1038300008950E94F611811103C0809183020895BA
:10384000E0918802F0918902309729F00190F0818F
:10385000E02D0995089580E008950E94191C0895AF
:10386000E0918802F0918902309721F00280F38183
:10387000E02D09950895E0918802F0918902309732
:1038800039F022E0DC012C930480F581E02D0995CC
:103890000895A3E0B0E0EFE4FCE10C94DA24209179
:1038A00086023091870228173907A1F0909387028A
:1038B00080938602E0918802F0918902309751F05E
:1038C00023E029839B838A830680F781E02DCE0144
:1038D000019609952396E2E00C94F624A3E0B0E06B
:1038E000E4E7FCE10C94DA24209184023091850213
:1038F00028173907A1F09093850280938402E09104
:103900008802F0918902309751F024E029839B834B
:103910008A830680F781E02DCE01019609952396D2
:10392000E2E00C94F6249C012E5F3F4FAC01485F0F
:103930005F4F80E02417350709F40895F90191914C
:103940009F019923B9F38F5FF5CF662349F0FC01FE
:10395000329608962191261729F0E817F907D1F732
:1039600080E0089581E008959C01FC0132969FEF6C
:1039700080E04191461751F09F3F19F4411101C079
:10398000982F8F5F8630A9F79F3F09F40895290F7C
:10399000311D97FD3A95F90162830895FC01329635
:1039A00008962191261303C0DF0111971C92E81796
:1039B000F907B9F708950E94B41C08950E94CE1C1F
:1039C0000895029626E0FC0111922A95E9F70895E0
:1039D00046E050E00E94152521E0892B09F420E003
:1039E000822F089508950E94F21C0895811106C047
:1039F00081E080938A020E94F31C089582E0F9CF4F
:103A000083E080938A020E94F31C08950E94F61CB2
:103A1000089581E080938A020E94F31C08950E9419
:103A2000091D0895089508950E94131D089508958D
:103A300008950E94121D0895CF930E94171D0E94A1
:103A400077110E94181DC0E08C2F0E94591081111F
:103A500005C0CF5FC830C1F7CF91089581E0FCCF9A
:103A600085B7806885BF85B7806885BF08951F9238
:103A70001FB61F9211248F939F93AF93BF93809192
:103A80008B02811113C08091B1029091B202A0917A
:103A9000B302B091B4024196A11DB11D8093B10251
:103AA0009093B202A093B302B093B402BF91AF91CE
:103AB0009F918F911F901FBE1F9018958091B90202
:103AC000843031F10E94060310928B0288E190E06D
:103AD00020E40FB6F894A895809360000FBE209361
:103AE000600083B7817F846083BF83B7816083BFB9
:103AF0007894889583B78E7F83BF0FB6F894A89586
:103B000080916000886180936000109260000FBE19
:103B100008950E9495060E940B03089582E084BDDB
:103B200093E095BD9AEF97BD80936E0008952FB7EF
:103B3000F8948091B1029091B202A091B302B09139
:103B4000B4022FBF08952FB7F8946091B10270911D
:103B5000B2028091B3029091B4022FBF08959C01EC
:103B60004FB7F8948091B1029091B202A091B30244
:103B7000B091B4024FBF821B930B0895CF92DF9296
:103B8000EF92FF922FB7F894C090B102D090B2029A
:103B9000E090B302F090B4022FBFA7019601261B5C
:103BA000370B480B590BCA01B901FF90EF90DF901A
:103BB000CF90089578941F921FB61F9211248F936F
:103BC0009F93AF93BF938091B1029091B202A09165
:103BD000B302B091B4020196A11DB11D8093B10250
:103BE0009093B202A093B302B093B402BF91AF918D
:103BF0009F918F911F901FBE1F90189587E797E7A1
:103C0000909301088093000888E19AE00FB6F89439
:103C1000A895809360000FBE90936000FFCF88E16D
:103C20009AE00FB6F894A895809360000FBE909329
:103C30006000FFCF8091940208959B01BA0190919A
:103C4000B9029430E9F48F708093E9009FEF80917E
:103C5000E800915085FD06C085ED8A95F1F70000DA
:103C60009111F5CF8091E80085FF0AC050E040E057
:103C7000C9010E9417208091E8008E778093E800A8
:103C8000089543E050E0BC0182E00E941D1E0895AB
:103C900046E050E0BC0182E00E941D1E0895CF93D3
:103CA000DF93EC0148E050E0BC0181E00E941D1E62
:103CB00088E0FE01ACE8B2E001900D928A95E1F750
:103CC000DF91CF9108958091B802811109C00E94BF
:103CD000A7210E9404228091E20084608093E20088
:103CE00008951092B80208950E94091D08956091E8
:103CF000B50281E0611101C080E00E94001D0895BD
:103D00009091B90281E0943009F080E06091B502B1
:103D10000E94061D089542E061EC81E00E9423218B
:103D200042E261EC82E00E9423219091B90281E09D
:103D3000943009F080E06091B5020E94F61C08956D
:103D40008091BB02833009F461C030F48130D1F13D
:103D5000823009F49EC008958A3009F48AC08B30FD
:103D600009F46FC0893009F050C08091BA028132E5
:103D700009F04BC08091BE029091BF02029708F0FB
:103D800044C08091E800877F8093E8008091E8003C
:103D900082FF37C09091F3008091F200029731F4D6
:103DA0008091F100813011F0863021F48091F10092
:103DB000809394028091E8008B778093E8000E94C2
:103DC000572123C08091BA02813AF9F48091E8002A
:103DD000877F8093E8008091BE029091BF02892B7B
:103DE00061F468E08CE892E070E00E9466208091C7
:103DF000E8008B778093E800089560E090E080E031
:103E0000F3CF8091B9028111C1CF08958091BA0298
:103E1000813AD9F78091BE029091BF02892BA9F710
:103E20008091E800877F8093E8008091E80080FF20
:103E3000FCCF80913F018093F1008091E8008E7764
:103E4000BCCF8091BA02813201F78091BE0290917D
:103E5000BF02892BD1F68091E800877F8093E8002C
:103E60000E9457218091BC0280933F010E949506D9
:103E700008958091BA02813241F68091E800877FEF
:103E80008093E8000E9457218091BD0280939502A3
:103E900008958091BA02813A09F0B7CF8091E80085
:103EA000877F8093E8008091E80080FFFCCF8091BD
:103EB0009502C1CF84B7877F84BF0FB6F894A895C9
:103EC00080916000886180936000109260000FBE56
:103ED00080E890E00FB6F8948093610090936100C1
:103EE0000FBE0E940F1D08950E94A7210E94042268
:103EF000E2EEF0E080818460808378940E948324E5
:103F0000089587E391E00E94141C08958091B902FE
:103F1000853031F48091B902853019F00E94891DF5
:103F200008950E945E1D8091B702882399F30E9434
:103F30001C1D882379F30E9401200E949506EACF78
:103F400008959A014091C0025091C1020E94A91F98
:103F50000895492F55274330510519F168F4413030
:103F6000510509F444C04230510509F445C090E0C0
:103F700080E050E040E025C04132510549F1423235
:103F80005105A9F780E490E046E952E0611571051A
:103F9000C1F08BE790E04BE152E06130710589F0B0
:103FA000E6CF99278130910581F0009729F002979B
:103FB000F1F6ECEAF1E002C0EAECF1E0849190E085
:103FC000AF01F901518340830895E0ECF1E0F6CFB1
:103FD00089E090E040EE51E06115710591F389E0D0
:103FE00090E049EF51E06130710559F3C0CF82E1B3
:103FF00090E049E052E0E5CF8BE390E04EEC51E0F9
:10400000E0CF80E189BD82E189BD09B400FEFDCF2A
:104010008091D8008F7D8093D8008091E0008260ED
:104020008093E0008091E00081FDFCCF0895AF9285
:10403000BF92CF92DF92FF920F931F93CF93DF93A4
:104040006C01EB018A010E947621F82E811123C0B8
:104050000115110539F0F80180819181C81BD90B38
:10406000C80ED91EB12CA12C2097A9F08091E80090
:1040700085FD22C08091E8008E778093E8000115CD
:104080001105A1F0F80180819181A80EB91EB182BD
:10409000A08285E0F82E8F2DDF91CF911F910F9197
:1040A000FF90DF90CF90BF90AF9008950E9476214F
:1040B0008823D1F2F82EEFCFF60181916F01809322
:1040C000F1002197FFEFAF1ABF0ACECFFC0180911C
:1040D000C0029091C10286179707A0F06115710583
:1040E00029F49091E8009E779093E80090E06115A4
:1040F000710551F4911108C08091E80082FF34C02D
:1041000080E00895BC01F2CF8091B9028823C1F10B
:104110008530C1F18091E80083FD30C08091E800D6
:1041200082FDEACF8091E80080FFE1CF8091F3002B
:104130002091F200382F6115710519F028303105F2
:1041400058F091E02830310509F090E02091E80026
:104150002E772093E800CBCF81918093F1006150BE
:1041600071092F5F3F4FE7CF8091B902882341F05B
:10417000853041F08091E80083FFBECF81E0089553
:1041800082E0089583E00895FC018091C00290913F
:10419000C10286179707A0F06115710529F4809177
:1041A000E8008E778093E80090E06115710551F486
:1041B000911108C08091E80082FF35C080E0089529
:1041C000BC01F2CF8091B9028823C9F18530C9F1D1
:1041D0008091E80083FD31C08091E80082FDEACF44
:1041E0008091E80080FFE1CF8091F3002091F20000
:1041F000382F6115710519F02830310558F091E01C
:104200002830310509F090E08091E8008E778093A6
:10421000E800CBCF84918093F10031966150710911
:104220002F5F3F4FE6CF8091B902882341F0853060
:1042300041F08091E80083FFBDCF81E0089582E0E6
:10424000089583E00895982F973028F08F70809319
:10425000E90081E008959093E900242F762F50E043
:10426000981731F07091EC002091ED005091F00022
:1042700021FD02C09F5FE8CF3091EB003E7F30937D
:10428000EB003091ED003D7F3093ED003091EB007D
:1042900031603093EB007093EC002093ED0050936D
:1042A000F0002091EE0027FDE5CF80E00895809199
:1042B000BA0287FF13C08091E80082FF06C0809198
:1042C000E8008B778093E80004C08091B9028111E7
:1042D000F2CF08958091B9028823D9F38091E80044
:1042E00080FFF8CF8091E8008E77ECCF2091E4003A
:1042F0003091E50095E6A9012091EC00822F8170B4
:1043000020FF06C08091E80080FF06C080E008958D
:104310002091E80022FD1AC08091B902882389F01B
:10432000853089F08091EB0085FD0FC02091E4007D
:104330003091E50042175307F9F29150E1F684E01D
:10434000089582E0089583E0089581E008950E9431
:1043500016220E941E22E0EEF0E0808181608083C0
:10436000E8EDF0E080818F77808319BCA7EDB0E0A5
:104370008C918E7F8C9380818F7E80831092B80287
:1043800008950F931F93CF93DF930E9416220E94EC
:104390001E22C8EDD0E088818F778883888180686D
:1043A000888388818F7D888319BC1092B90210920E
:1043B000B5021092B7021092B60200EE10E0F801BA
:1043C00080818B7F808388818160888342E060E088
:1043D00080E00E942321E1EEF0E080818E7F8083E7
:1043E000E2EEF0E08081816080838081886080835C
:1043F000F80180818E7F8083888180618883DF914E
:10440000CF911F910F910895E8EDF0E080818F7EAC
:104410008083E7EDF0E080818160808384E082BF6B
:1044200081E08093B8020E94C1210895E8EDF0E098
:1044300080818E7F80831092E20008951092DA00CE
:104440001092E10008951F920F920FB60F9211245F
:104450002F933F934F935F936F937F938F939F938C
:10446000AF93BF93EF93FF938091E10082FF0BC066
:104470008091E20082FF07C08091E1008B7F8093F2
:10448000E1000E9482248091DA0080FF19C08091AF
:10449000D80080FF15C08091DA008E7F8093DA000B
:1044A0008091D90080FF96C080E189BD82E189BDFD
:1044B00009B400FEFDCF81E08093B9020E94631E23
:1044C0008091E10080FF19C08091E20080FF15C05B
:1044D0008091E2008E7F8093E2008091E200806113
:1044E0008093E2008091D80080628093D80019BC4C
:1044F00085E08093B9020E94771E8091E10084FFDD
:104500002BC08091E20084FF27C080E189BD82E159
:1045100089BD89B5982F917080FFFBCF8091D8001D
:104520008F7D8093D8008091E1008F7E8093E100A1
:104530008091E2008F7E8093E2008091E2008160B2
:104540008093E2008091B502882309F449C084E099
:104550008093B9020E94801E8091E10083FF29C0F0
:104560008091E20083FF25C08091E100877F8093E6
:10457000E10082E08093B9021092B5028091E100DF
:104580008E7F8093E1008091E2008E7F8093E20035
:104590008091E20080618093E20042E060E080E090
:1045A0000E9423218091F00088608093F0000E9497
:1045B000741EFF91EF91BF91AF919F918F917F9169
:1045C0006F915F914F913F912F910F900FBE0F9080
:1045D0001F90189519BC1092B9020E94711E70CFDD
:1045E0008091E30087FD93E09093B902B3CF1F92CF
:1045F0000F920FB60F9211242F933F934F935F9317
:104600006F937F938F939F93AF93BF93CF93DF93DA
:10461000EF93FF93D091E900DF708091EC00C82FF9
:10462000C17080FDC0E81092E9008091F000877FA2
:104630008093F00078940E943B231092E9008091CF
:10464000F00088608093F000CD2BCF70C093E9001C
:10465000FF91EF91DF91CF91BF91AF919F918F919A
:104660007F916F915F914F913F912F910F900FBE6E
:104670000F901F901895AAE2B0E0E1E4F3E20C94E9
:10468000D9248AEB92E02091F100FC012193CF0123
:10469000F2E0823C9F07B9F70E94A01E8091E800DB
:1046A00083FF1EC18091BA029091BB029A3008F03C
:1046B00017C1E92FF0E0E454FA4D0C94C42480387B
:1046C00099F0823809F00CC18091BE028F7087305A
:1046D00008F006C18093E9008091EB0085FB8827F4
:1046E00080F91092E90006C08091B6029091B7025D
:1046F000911182609091E800977F9093E8008093F9
:10470000F1001092F1008091E8008E77E5C08823D7
:1047100009F4D3C0823009F0E3C08091BC0281115A
:10472000D6C08091BE028F702FEF280F263008F080
:10473000D7C08093E9002091EB0020FFC8C09330E0
:1047400031F48091EB0080628093EB00C0C09091C7
:10475000EB0090619093EB0021E030E001C0220F6C
:104760008A95EAF72093EA001092EA008091EB0024
:104770008860EACF8111B4C01091BC021F7780918C
:10478000E3008078812B8093E3008091E800877FAD
:104790008093E8000E9457218091E80080FFFCCFC1
:1047A0008091E30080688093E30082E0111183E050
:1047B0008093B90295C08058823008F091C08091F2
:1047C000BC029091BD028C3D23E09207A1F583E0ED
:1047D0008A838AE289834FB7F894DE01139620E03A
:1047E0003EE051E2E32FF0E050935700E49120FFC8
:1047F00003C0E295EF703F5FEF708E2F90E0EA30DC
:10480000C0F0C7968D939D932F5F243159F74FBF0A
:104810008091E800877F8093E8006AE270E0CE0133
:1048200001960E9466208091E8008B778093E800D3
:1048300057C0C096E7CF6091BE027091BF02AE0133
:104840004F5F5F4F0E94A11FBC01892B09F448C034
:104850009091E800977F9093E80089819A810E9467
:10486000C420E1CF8038E1F58091E800877F809314
:10487000E8008091B5028093F10045CF811130C0EE
:104880009091BC02923060F58091E800877F809320
:10489000E8009093B5020E9457218091B5028823C9
:1048A00011F084E005C08091E30087FDFACF81E03C
:1048B0008093B9020E948B1E13C08091BC0281308C
:1048C00079F481E0933009F080E08093B702109290
:1048D000E9008091E800877F8093E8000E945721DB
:1048E0008091E80083FF0AC08091E800877F809371
:1048F000E8008091EB0080628093EB00AA96E3E0F1
:104900000C94F5240895CF938091B9028823A1F0E7
:10491000C091E900CF709091EC00892F817090FDDB
:1049200080E8C82B1092E9008091E80083FD0E9486
:104930003B23CF70C093E900CF9108950E94A72137
:104940001092B9020895E8EDF0E0808180618083E3
:104950008AE18A95F1F700C08091D90081700895AD
:1049600097FB072E16F4009407D077FD09D00E941C
:10497000012507FC05D03EF4909581959F4F089541
:10498000709561957F4F0895EE0FFF1F0590F4918C
:10499000E02D09942F923F924F925F926F927F92F7
:1049A0008F929F92AF92BF92CF92DF92EF92FF923F
:1049B0000F931F93CF93DF93CDB7DEB7CA1BDB0BEB
:1049C0000FB6F894DEBF0FBECDBF09942A88398890
:1049D00048885F846E847D848C849B84AA84B98497
:1049E000C884DF80EE80FD800C811B81AA81B981A3
:1049F000CE0FD11D0FB6F894DEBF0FBECDBFED01B7
:104A00000895AA1BBB1B51E107C0AA1FBB1FA61715
:104A1000B70710F0A61BB70B881F991F5A95A9F767
:104A200080959095BC01CD010895FB01DC0104C087
:104A30008D910190801921F441505040C8F7881B96
:104A4000990B0895FB01DC0102C001900D924150C9
:104A50005040D8F70895F999FECF92BD81BDF89ADC
:104A6000992780B50895A8E1B0E042E050E00C94A9
:104A70006F25DC01A40FB51F4150504048F0CB0119
:104A8000840F951F2E910E944A2541505040D0F727
:104A90000895262FF999FECF92BD81BDF89A01970E
:104AA00000B4021639F01FBA20BD0FB6F894FA9A76
:104AB000F99A0FBE08950396272F0E944A250E9457
:104AC0004925252F0E944A25242F0C944A2501961A
:104AD000272F0E944A250C944925DC01CB01FC01BB
:104AE000F999FECF06C0F2BDE1BDF89A319600B447
:104AF0000D9241505040B8F70895F894FFCF8004CC
:104B00008004D004D00435055105AF04AF04560528
:104B1000C705D605D605D316D716E516E916EB1642
:104B2000ED16EF16F116951809199D1867186B18F0
:104B3000A1186F18A518B1187B1802197F18B5189D
:104B40008318B918E1188718BD18E8188D18C3180C
:104B5000CB187318A9187718AD189118C718D7185B
:104B6000F11800196118991810192C1A321A1B1A09
:104B7000261A381A3E1A441A5F2387237024872383
:0C4B80007024BA23DB23702432243E246E
:104B8C0034023294F691F4C63390F593369731662D
:104B9C00F73435FFFFFF01000000010000000000AA
:104BAC0000000401000000040500000000000028C3
:104BBC000850011E0A14011A1E4F1E481E411E01E8
:104BCC00F491F6943293F59033C6F76631973635F7
:104BDC0034FFFFFFE200E900EA00B500B600B700C1
:104BEC00CD008301CC008A019201940121022302A1
:104BFC0024022502260227022A02B300B4006F0009
:104C0C0070009F01CB019F02A002818283E200E928
:104C1C0000EA00B500B600B700CD008301CC008AD5
:104C2C00019201940121022302240225022602276B
:104C3C00022A02B300B4006F0070009F01CB019FE9
:084C4C0002A0028182835902DB
:00000001FF
